{"contracts/GBMarketplace.sol":{"GBMarketplace":{"abi":[{"inputs":[{"internalType":"address","name":"owner","type":"address"},{"internalType":"address","name":"verifyRoleAddress","type":"address"},{"internalType":"address","name":"adminWallet_","type":"address"}],"stateMutability":"nonpayable","type":"constructor"},{"anonymous":false,"inputs":[{"indexed":false,"internalType":"address","name":"collection","type":"address"},{"indexed":false,"internalType":"address","name":"from","type":"address"},{"indexed":false,"internalType":"uint256[]","name":"tokenIds","type":"uint256[]"},{"indexed":false,"internalType":"string[]","name":"tokenURIs","type":"string[]"},{"indexed":false,"internalType":"uint96","name":"royaltyFee","type":"uint96"},{"indexed":false,"internalType":"address","name":"artistAddress","type":"address"},{"indexed":false,"internalType":"uint256","name":"timestamp","type":"uint256"}],"name":"AddedMultiplePrimaryItems","type":"event"},{"anonymous":false,"inputs":[{"indexed":false,"internalType":"address","name":"collection","type":"address"},{"indexed":false,"internalType":"address","name":"from","type":"address"},{"indexed":false,"internalType":"uint256","name":"tokenId","type":"uint256"},{"indexed":false,"internalType":"string","name":"tokenURI","type":"string"},{"indexed":false,"internalType":"uint96","name":"royaltyFee","type":"uint96"},{"indexed":false,"internalType":"uint256","name":"timestamp","type":"uint256"}],"name":"AddedSingleItem","type":"event"},{"anonymous":false,"inputs":[{"components":[{"internalType":"address","name":"account","type":"address"},{"internalType":"address","name":"collection","type":"address"},{"internalType":"address","name":"seller","type":"address"},{"internalType":"uint256","name":"tokenId","type":"uint256"},{"internalType":"uint256","name":"itemPrice","type":"uint256"},{"internalType":"uint256","name":"additionalPrice","type":"uint256"},{"internalType":"address","name":"charityAddress","type":"address"},{"internalType":"uint96","name":"charityFee","type":"uint96"},{"internalType":"uint256","name":"deadline","type":"uint256"}],"indexed":false,"internalType":"struct Domain.BuyItem","name":"item","type":"tuple"},{"indexed":false,"internalType":"uint256","name":"timestamp","type":"uint256"}],"name":"BoughtItem","type":"event"},{"anonymous":false,"inputs":[{"indexed":false,"internalType":"address","name":"account","type":"address"}],"name":"Paused","type":"event"},{"anonymous":false,"inputs":[{"indexed":true,"internalType":"bytes32","name":"role","type":"bytes32"},{"indexed":true,"internalType":"bytes32","name":"previousAdminRole","type":"bytes32"},{"indexed":true,"internalType":"bytes32","name":"newAdminRole","type":"bytes32"}],"name":"RoleAdminChanged","type":"event"},{"anonymous":false,"inputs":[{"indexed":true,"internalType":"bytes32","name":"role","type":"bytes32"},{"indexed":true,"internalType":"address","name":"account","type":"address"},{"indexed":true,"internalType":"address","name":"sender","type":"address"}],"name":"RoleGranted","type":"event"},{"anonymous":false,"inputs":[{"indexed":true,"internalType":"bytes32","name":"role","type":"bytes32"},{"indexed":true,"internalType":"address","name":"account","type":"address"},{"indexed":true,"internalType":"address","name":"sender","type":"address"}],"name":"RoleRevoked","type":"event"},{"anonymous":false,"inputs":[{"indexed":false,"internalType":"address","name":"account","type":"address"}],"name":"SetAdminWallet","type":"event"},{"anonymous":false,"inputs":[{"indexed":false,"internalType":"address","name":"collectionAddress","type":"address"},{"indexed":false,"internalType":"bool","name":"status","type":"bool"}],"name":"SetCollectionAddress","type":"event"},{"anonymous":false,"inputs":[{"indexed":false,"internalType":"uint96","name":"platformFee","type":"uint96"}],"name":"SetPlatformFee","type":"event"},{"anonymous":false,"inputs":[{"indexed":false,"internalType":"address","name":"verifyRoleAddress","type":"address"}],"name":"SetVerifyRole","type":"event"},{"anonymous":false,"inputs":[{"indexed":false,"internalType":"address","name":"account","type":"address"}],"name":"Unpaused","type":"event"},{"anonymous":false,"inputs":[{"indexed":false,"internalType":"address","name":"collection","type":"address"},{"indexed":false,"internalType":"address","name":"from","type":"address"},{"indexed":false,"internalType":"uint256","name":"tokenId","type":"uint256"},{"indexed":false,"internalType":"string","name":"tokenURI","type":"string"},{"indexed":false,"internalType":"uint256","name":"timestamp","type":"uint256"}],"name":"UpdatedTokenURI","type":"event"},{"inputs":[],"name":"DEFAULT_ADMIN_ROLE","outputs":[{"internalType":"bytes32","name":"","type":"bytes32"}],"stateMutability":"view","type":"function"},{"inputs":[],"name":"VERIFY_ROLE","outputs":[{"internalType":"bytes32","name":"","type":"bytes32"}],"stateMutability":"view","type":"function"},{"inputs":[{"internalType":"address","name":"collection","type":"address"},{"internalType":"uint256[]","name":"tokenIds","type":"uint256[]"},{"internalType":"uint96","name":"royaltyFee","type":"uint96"},{"internalType":"string[]","name":"tokenURIs","type":"string[]"},{"internalType":"address","name":"artistAddress","type":"address"}],"name":"addPrimaryMultipleItems","outputs":[],"stateMutability":"nonpayable","type":"function"},{"inputs":[{"components":[{"internalType":"address","name":"account","type":"address"},{"internalType":"address","name":"collection","type":"address"},{"internalType":"uint256","name":"tokenId","type":"uint256"},{"internalType":"uint96","name":"royaltyFee","type":"uint96"},{"internalType":"string","name":"tokenURI","type":"string"},{"internalType":"uint256","name":"deadline","type":"uint256"}],"internalType":"struct Domain.AddSingleItem","name":"item","type":"tuple"},{"internalType":"bytes","name":"signature","type":"bytes"}],"name":"addSingleItem","outputs":[],"stateMutability":"nonpayable","type":"function"},{"inputs":[{"components":[{"internalType":"address","name":"account","type":"address"},{"internalType":"address","name":"collection","type":"address"},{"internalType":"address","name":"seller","type":"address"},{"internalType":"uint256","name":"tokenId","type":"uint256"},{"internalType":"uint256","name":"itemPrice","type":"uint256"},{"internalType":"uint256","name":"additionalPrice","type":"uint256"},{"internalType":"address","name":"charityAddress","type":"address"},{"internalType":"uint96","name":"charityFee","type":"uint96"},{"internalType":"uint256","name":"deadline","type":"uint256"}],"internalType":"struct Domain.BuyItem","name":"item","type":"tuple"},{"internalType":"bytes","name":"signature","type":"bytes"}],"name":"buyItem","outputs":[],"stateMutability":"payable","type":"function"},{"inputs":[{"internalType":"address","name":"","type":"address"}],"name":"gbCollection","outputs":[{"internalType":"bool","name":"","type":"bool"}],"stateMutability":"view","type":"function"},{"inputs":[{"internalType":"bytes32","name":"role","type":"bytes32"}],"name":"getRoleAdmin","outputs":[{"internalType":"bytes32","name":"","type":"bytes32"}],"stateMutability":"view","type":"function"},{"inputs":[{"internalType":"bytes32","name":"role","type":"bytes32"},{"internalType":"address","name":"account","type":"address"}],"name":"grantRole","outputs":[],"stateMutability":"nonpayable","type":"function"},{"inputs":[{"internalType":"bytes32","name":"role","type":"bytes32"},{"internalType":"address","name":"account","type":"address"}],"name":"hasRole","outputs":[{"internalType":"bool","name":"","type":"bool"}],"stateMutability":"view","type":"function"},{"inputs":[{"internalType":"address","name":"","type":"address"},{"internalType":"uint256","name":"","type":"uint256"}],"name":"itemInfo","outputs":[{"internalType":"address","name":"royaltyAddress","type":"address"},{"internalType":"uint96","name":"royaltyFee","type":"uint96"},{"internalType":"bool","name":"isPrimaryCollection","type":"bool"}],"stateMutability":"view","type":"function"},{"inputs":[{"internalType":"address","name":"","type":"address"}],"name":"nonces","outputs":[{"internalType":"uint256","name":"","type":"uint256"}],"stateMutability":"view","type":"function"},{"inputs":[],"name":"pause","outputs":[],"stateMutability":"nonpayable","type":"function"},{"inputs":[],"name":"paused","outputs":[{"internalType":"bool","name":"","type":"bool"}],"stateMutability":"view","type":"function"},{"inputs":[],"name":"platformFee","outputs":[{"internalType":"uint96","name":"","type":"uint96"}],"stateMutability":"view","type":"function"},{"inputs":[{"internalType":"bytes32","name":"role","type":"bytes32"},{"internalType":"address","name":"account","type":"address"}],"name":"renounceRole","outputs":[],"stateMutability":"nonpayable","type":"function"},{"inputs":[{"internalType":"bytes32","name":"role","type":"bytes32"},{"internalType":"address","name":"account","type":"address"}],"name":"revokeRole","outputs":[],"stateMutability":"nonpayable","type":"function"},{"inputs":[{"internalType":"address","name":"adminWallet_","type":"address"}],"name":"setAdminWallet","outputs":[],"stateMutability":"nonpayable","type":"function"},{"inputs":[{"internalType":"address","name":"collectionAddress","type":"address"},{"internalType":"bool","name":"isCollection","type":"bool"}],"name":"setGBCollectionAddress","outputs":[],"stateMutability":"nonpayable","type":"function"},{"inputs":[{"internalType":"uint96","name":"platformFee_","type":"uint96"}],"name":"setPlatformFee","outputs":[],"stateMutability":"nonpayable","type":"function"},{"inputs":[{"internalType":"address","name":"verifyRoleAddress","type":"address"}],"name":"setVerifyRole","outputs":[],"stateMutability":"nonpayable","type":"function"},{"inputs":[{"internalType":"bytes4","name":"interfaceId","type":"bytes4"}],"name":"supportsInterface","outputs":[{"internalType":"bool","name":"","type":"bool"}],"stateMutability":"view","type":"function"},{"inputs":[],"name":"unpause","outputs":[],"stateMutability":"nonpayable","type":"function"},{"inputs":[{"components":[{"internalType":"address","name":"account","type":"address"},{"internalType":"address","name":"collection","type":"address"},{"internalType":"uint256","name":"tokenId","type":"uint256"},{"internalType":"string","name":"tokenURI","type":"string"},{"internalType":"uint256","name":"deadline","type":"uint256"}],"internalType":"struct Domain.UpdateTokenURI","name":"tokenUriInfo","type":"tuple"},{"internalType":"bytes","name":"signature","type":"bytes"}],"name":"updateTokenURI","outputs":[],"stateMutability":"nonpayable","type":"function"}],"evm":{"bytecode":{"linkReferences":{},"object":"610140604052600680546001600160a01b0316607d60a11b1790553480156200002757600080fd5b5060405162003540380380620035408339810160408190526200004a916200027d565b604080518082018252600d81526c47424d61726b6574706c61636560981b6020808301918252835180850190945260058452640312e302e360dc1b908401528151902060e08190527f06c015bd22b4c69690933c1058878ebdfef31f9aaae40bbe86d8a09fe1b2972c6101008190524660a0529192917f8b73c3c69bb8fe3d512ecc4cf759cc79239f7b179b0ffacaa9a75d522b39400f620001318184846040805160208101859052908101839052606081018290524660808201523060a082015260009060c0016040516020818303038152906040528051906020012090509392505050565b6080523060c0526101205250506001805550506002805460ff191690556200015b600084620001b0565b620001877fd262a1e181ec035692bcc8c920b971bccc173d5263f104f91c1561b5033679dd83620001b0565b600680546001600160a01b0319166001600160a01b039290921691909117905550620002c79050565b620001bc8282620001c0565b5050565b6000828152602081815260408083206001600160a01b038516845290915290205460ff16620001bc576000828152602081815260408083206001600160a01b03851684529091529020805460ff191660011790556200021c3390565b6001600160a01b0316816001600160a01b0316837f2f8788117e7eff1d82e926ec794901d17c78024a50270940304540a733656f0d60405160405180910390a45050565b80516001600160a01b03811681146200027857600080fd5b919050565b6000806000606084860312156200029357600080fd5b6200029e8462000260565b9250620002ae6020850162000260565b9150620002be6040850162000260565b90509250925092565b60805160a05160c05160e05161010051610120516132296200031760003960006121390152600061218801526000612163015260006120bc015260006120e60152600061211001526132296000f3fe6080604052600436106101405760003560e01c80638456cb59116100b6578063b5bb4ec81161006f578063b5bb4ec81461040d578063c46f23f41461042d578063d41d0e5c1461044d578063d547741f14610481578063e20c7153146104a1578063f99e5dbb146104c157600080fd5b80638456cb59146103605780638cac56d91461037557806390bb447f1461038857806391d14854146103b857806394ae3881146103d8578063a217fddf146103f857600080fd5b8063350829331161010857806335082933146102a657806336568abe146102c65780633f4ba83a146102e65780635c975abb146102fb57806364ce6f79146103135780637ecebe001461033357600080fd5b806301ffc9a7146101455780631cdaab671461017a578063248a9ca31461020757806326232a2e146102455780632f2ff15d14610284575b600080fd5b34801561015157600080fd5b506101656101603660046126a5565b6104e1565b60405190151581526020015b60405180910390f35b34801561018657600080fd5b506101d86101953660046126f4565b6005602090815260009283526040808420909152908252902080546001909101546001600160a01b03821691600160a01b90046001600160601b03169060ff1683565b604080516001600160a01b0390941684526001600160601b039092166020840152151590820152606001610171565b34801561021357600080fd5b50610237610222366004612720565b60009081526020819052604090206001015490565b604051908152602001610171565b34801561025157600080fd5b5060065461026c90600160a01b90046001600160601b031681565b6040516001600160601b039091168152602001610171565b34801561029057600080fd5b506102a461029f366004612739565b6104f2565b005b3480156102b257600080fd5b506102a46102c1366004612769565b61051c565b3480156102d257600080fd5b506102a46102e1366004612739565b6105ed565b3480156102f257600080fd5b506102a461066b565b34801561030757600080fd5b5060025460ff16610165565b34801561031f57600080fd5b506102a461032e366004612829565b610681565b34801561033f57600080fd5b5061023761034e366004612769565b60046020526000908152604090205481565b34801561036c57600080fd5b506102a46109bd565b6102a4610383366004612895565b6109d0565b34801561039457600080fd5b506101656103a3366004612769565b60036020526000908152604090205460ff1681565b3480156103c457600080fd5b506101656103d3366004612739565b61114b565b3480156103e457600080fd5b506102a46103f336600461293f565b611174565b34801561040457600080fd5b50610237600081565b34801561041957600080fd5b506102a46104283660046129e9565b6114e1565b34801561043957600080fd5b506102a4610448366004612769565b6117fe565b34801561045957600080fd5b506102377fd262a1e181ec035692bcc8c920b971bccc173d5263f104f91c1561b5033679dd81565b34801561048d57600080fd5b506102a461049c366004612739565b6118d6565b3480156104ad57600080fd5b506102a46104bc366004612a28565b6118fb565b3480156104cd57600080fd5b506102a46104dc366004612a5b565b6119d6565b60006104ec82611a9e565b92915050565b60008281526020819052604090206001015461050d81611ad3565b6105178383611add565b505050565b600061052781611ad3565b6001600160a01b0382166105975760405162461bcd60e51b815260206004820152602c60248201527f61646d696e57616c6c65742061646472657373206d757374206e6f742062652060448201526b7a65726f206164647265737360a01b60648201526084015b60405180910390fd5b600680546001600160a01b0319166001600160a01b0384169081179091556040519081527f1b651cfd0a3f185590087e7e632381434dfada46f037b9081264f9f5bdbfcd9b906020015b60405180910390a15050565b6001600160a01b038116331461065d5760405162461bcd60e51b815260206004820152602f60248201527f416363657373436f6e74726f6c3a2063616e206f6e6c792072656e6f756e636560448201526e103937b632b9903337b91039b2b63360891b606482015260840161058e565b6106678282611b61565b5050565b600061067681611ad3565b61067e611bc6565b50565b6002600154036106a35760405162461bcd60e51b815260040161058e90612a76565b60026001556106b0611c18565b60006106c26040840160208501612769565b6001600160a01b0316036106e85760405162461bcd60e51b815260040161058e90612aad565b600082604001351161070c5760405162461bcd60e51b815260040161058e90612b0a565b600360006107206040850160208601612769565b6001600160a01b0316815260208101919091526040016000205460ff166107595760405162461bcd60e51b815260040161058e90612b5a565b816080013542111561077d5760405162461bcd60e51b815260040161058e90612ba3565b336000908152600460205260409020546107a86107a261079d8584611c60565b611ced565b83611d00565b6107c45760405162461bcd60e51b815260040161058e90612bd8565b336107d56040850160208601612769565b6001600160a01b0316636352211e85604001356040518263ffffffff1660e01b815260040161080691815260200190565b602060405180830381865afa158015610823573d6000803e3d6000fd5b505050506040513d601f19601f820116820180604052508101906108479190612c03565b6001600160a01b0316146108bb5760405162461bcd60e51b815260206004820152603560248201527f47424d61726b6574706c6163653a204f6e6c79204e4654206f776e65722063616044820152746e20757064617465206368617269747920696e666f60581b606482015260840161058e565b33600090815260046020908152604091829020805460010190556108e3918501908501612769565b6001600160a01b031663162094c460408501356109036060870187612c20565b6040518463ffffffff1660e01b815260040161092193929190612c90565b600060405180830381600087803b15801561093b57600080fd5b505af115801561094f573d6000803e3d6000fd5b507fe1f839c4aeae0043e808cd49b4b7ab926266154dfc7cd789334663e78fee2f7692506109869150506040850160208601612769565b3360408601356109996060880188612c20565b426040516109ac96959493929190612cb3565b60405180910390a150506001805550565b60006109c881611ad3565b61067e611d37565b6002600154036109f25760405162461bcd60e51b815260040161058e90612a76565b60026001556109ff611c18565b6000610a116040840160208501612769565b6001600160a01b031603610a375760405162461bcd60e51b815260040161058e90612aad565b610a476060830160408401612769565b6001600160a01b03163b15610ac45760405162461bcd60e51b815260206004820152603a60248201527f47424d61726b6574706c6163653a2073656c6c65722061646472657373206d7560448201527f7374206e6f7420626520636f6e74726163742061646472657373000000000000606482015260840161058e565b6000610ad660e0840160c08501612769565b6001600160a01b031603610b525760405162461bcd60e51b815260206004820152603760248201527f47424d61726b6574706c6163653a20636861726974792061646472657373206d60448201527f757374206e6f74206265207a65726f2061646472657373000000000000000000606482015260840161058e565b6103e8610b66610100840160e08501612a5b565b6001600160601b031610158015610b985750612710610b8c610100840160e08501612a5b565b6001600160601b031611155b610c0a5760405162461bcd60e51b815260206004820152603e60248201527f47424d61726b6574706c6163653a20636861726974792070657263656e74616760448201527f65206d757374206265206265747765656e2031302520616e6420313030250000606482015260840161058e565b6000600581610c1f6040860160208701612769565b6001600160a01b0390811682526020808301939093526040918201600090812060608089013583529085529083902083519182018452805492831682526001600160601b03600160a01b93849004811695830186905260019091015460ff16151593820193909352600654909450612710939291900416610ca7610100870160e08801612a5b565b610cb19190612d10565b610cbb9190612d10565b6001600160601b03161115610d2a5760405162461bcd60e51b815260206004820152602f60248201527f47424d61726b6574706c6163653a20746f74616c20666565206d75737420626560448201526e206c657373207468616e203130302560881b606482015260840161058e565b6000836080013511610d965760405162461bcd60e51b815260206004820152602f60248201527f47424d61726b6574706c6163653a204e4654205072696365206d75737420626560448201526e02067726561746572207468616e203608c1b606482015260840161058e565b610da860a08401356080850135612d37565b341015610e015760405162461bcd60e51b815260206004820152602160248201527f47424d61726b6574706c6163653a20496e73756666696369656e742066756e646044820152607360f81b606482015260840161058e565b826101000135421115610e265760405162461bcd60e51b815260040161058e90612ba3565b60036000610e3a6040860160208701612769565b6001600160a01b0316815260208101919091526040016000205460ff16610e735760405162461bcd60e51b815260040161058e90612b5a565b33600090815260046020526040902054610e99610e9361079d8684611d74565b84611d00565b610eb55760405162461bcd60e51b815260040161058e90612bd8565b6000610ee76080860135610ed0610100880160e08901612a5b565b6127106001600160601b0391909116919091020490565b9050610f0f610efc60e0870160c08801612769565b610f0a60a088013584612d37565b611e69565b600080610f226040880160208901612769565b60405163152a902d60e11b815260608901356004820152608089013560248201526001600160a01b039190911690632a55205a906044016040805180830381865afa158015610f75573d6000803e3d6000fd5b505050506040513d601f19601f82011682018060405250810190610f999190612d4a565b91509150610fa78282611e69565b6006546127106080890135600160a01b83046001600160601b0316020490610fd8906001600160a01b031682611e69565b60808801358490038290038181039082146110525786604001511561103f576000611004600283612d78565b905061101f61101960608c0160408d01612769565b82611e69565b600654611039906001600160a01b0316610f0a8385612d9a565b50611052565b61105261101960608b0160408c01612769565b336000908152600460209081526040918290208054600101905561107a918b01908b01612769565b6001600160a01b03166342842e0e61109860608c0160408d01612769565b336040516001600160e01b031960e085901b1681526001600160a01b0392831660048201529116602482015260608c01356044820152606401600060405180830381600087803b1580156110eb57600080fd5b505af11580156110ff573d6000803e3d6000fd5b505050507f8e4c38f8d861e949358d505080ae24192a05e0e6a65a4d62f6a64b998c515c3c8942604051611134929190612dad565b60405180910390a150506001805550505050505050565b6000918252602082815260408084206001600160a01b0393909316845291905290205460ff1690565b6002600154036111965760405162461bcd60e51b815260040161058e90612a76565b60026001556111a3611c18565b60006111ae81611ad3565b6001600160a01b0388166111d45760405162461bcd60e51b815260040161058e90612aad565b8583146112495760405162461bcd60e51b815260206004820152603a60248201527f47424d61726b6574706c6163653a20746f6b656e49647320616e6420746f6b6560448201527f6e55524973206c656e677468206d75737420626520657175616c000000000000606482015260840161058e565b6001600160a01b03881660009081526003602052604090205460ff166112815760405162461bcd60e51b815260040161058e90612b5a565b60005b8681101561148b5760008888838181106112a0576112a0612e66565b90506020020135116112c45760405162461bcd60e51b815260040161058e90612b0a565b604080516060810182526001600160a01b0380861682526001600160601b038916602080840191909152600183850152908c166000908152600590915291822090918a8a8581811061131857611318612e66565b602090810292909201358352508181019290925260409081016000208351928401516001600160601b0316600160a01b026001600160a01b039384161781559201516001909201805492151560ff1990931692909217909155891663e5bff2e4848a8a8581811061138b5761138b612e66565b90506020020135898989878181106113a5576113a5612e66565b90506020028101906113b79190612c20565b6040518663ffffffff1660e01b81526004016113d7959493929190612e7c565b600060405180830381600087803b1580156113f157600080fd5b505af1158015611405573d6000803e3d6000fd5b505050507f65db01c4647d26831be2dde422dc7b3d0ed4d22f9d4bbc1d5306d5cc4176a2ff89848a8a8581811061143e5761143e612e66565b9050602002013588888681811061145757611457612e66565b90506020028101906114699190612c20565b8b4260405161147e9796959493929190612ebe565b60405180910390a1611284565b507f3e8765325d2cfee06ac79d772ffa0bb848dcb609ee5a506031a679b8a4b829038833898988888b89426040516114cb99989796959493929190612f11565b60405180910390a1505060018055505050505050565b6002600154036115035760405162461bcd60e51b815260040161058e90612a76565b6002600155611510611c18565b60006115226040840160208501612769565b6001600160a01b0316036115485760405162461bcd60e51b815260040161058e90612aad565b600082604001351161156c5760405162461bcd60e51b815260040161058e90612b0a565b600360006115806040850160208601612769565b6001600160a01b0316815260208101919091526040016000205460ff166115b95760405162461bcd60e51b815260040161058e90612b5a565b8160a001354211156115dd5760405162461bcd60e51b815260040161058e90612ba3565b336000908152600460205260409020546115fd6107a261079d8584611f82565b6116195760405162461bcd60e51b815260040161058e90612bd8565b604051806060016040528061162b3390565b6001600160a01b031681526020016116496080860160608701612a5b565b6001600160601b03168152600060209182018190526005916116719060408801908801612769565b6001600160a01b0390811682526020808301939093526040918201600090812088840135825284528281208551948601516001600160601b0316600160a01b02949092169390931781559201516001909201805492151560ff19909316929092179091556004906116df3390565b6001600160a01b0316815260208082019290925260409081016000208054600101905561171191908501908501612769565b6001600160a01b031663e5bff2e43360408601356117356080880160608901612a5b565b6117426080890189612c20565b6040518663ffffffff1660e01b8152600401611762959493929190612e7c565b600060405180830381600087803b15801561177c57600080fd5b505af1158015611790573d6000803e3d6000fd5b507f65db01c4647d26831be2dde422dc7b3d0ed4d22f9d4bbc1d5306d5cc4176a2ff92506117c79150506040850160208601612769565b3360408601356117da6080880188612c20565b6117ea60808a0160608b01612a5b565b426040516109ac9796959493929190612ebe565b600061180981611ad3565b6001600160a01b0382166118735760405162461bcd60e51b815260206004820152602b60248201527f766572696679526f6c652061646472657373206d757374206e6f74206265207a60448201526a65726f206164647265737360a81b606482015260840161058e565b61189d7fd262a1e181ec035692bcc8c920b971bccc173d5263f104f91c1561b5033679dd83611add565b6040516001600160a01b03831681527f823bfe6c95b007bb6cc8bb748029c56ae8f83f9fc647a5c47b36f893bdefe74f906020016105e1565b6000828152602081905260409020600101546118f181611ad3565b6105178383611b61565b600061190681611ad3565b6001600160a01b0383166119725760405162461bcd60e51b815260206004820152602d60248201527f6762436f6c6c656374696f6e2061646472657373206d757374206e6f7420626560448201526c207a65726f206164647265737360981b606482015260840161058e565b6001600160a01b038316600081815260036020908152604091829020805460ff19168615159081179091558251938452908301527f223891d059d602a4595404ec0a953e0fa8de6291465a1e0d904d07f387f0b7fa910160405180910390a1505050565b60006119e181611ad3565b6000826001600160601b031611611a485760405162461bcd60e51b815260206004820152602560248201527f706c6174666f726d466565206d7573742062652067726561746572207468616e604482015264207a65726f60d81b606482015260840161058e565b600680546001600160a01b0316600160a01b6001600160601b038516908102919091179091556040519081527fbe3599c33046219ddc3706f4b99caca706dc0f53775580d18a367dc2188c96e5906020016105e1565b60006001600160e01b03198216637965db0b60e01b14806104ec57506301ffc9a760e01b6001600160e01b03198316146104ec565b61067e8133612002565b611ae7828261114b565b610667576000828152602081815260408083206001600160a01b03851684529091529020805460ff19166001179055611b1d3390565b6001600160a01b0316816001600160a01b0316837f2f8788117e7eff1d82e926ec794901d17c78024a50270940304540a733656f0d60405160405180910390a45050565b611b6b828261114b565b15610667576000828152602081815260408083206001600160a01b0385168085529252808320805460ff1916905551339285917ff6391f5c32d9c69d2a47ea670b442974b53935d1edc7fd64eb21e047a839171b9190a45050565b611bce612066565b6002805460ff191690557f5db9ee0a495bf2e6ff9c91a7834c1ba4fdd244a5e8aa4e537bd38aeae4b073aa335b6040516001600160a01b03909116815260200160405180910390a1565b60025460ff1615611c5e5760405162461bcd60e51b815260206004820152601060248201526f14185d5cd8589b194e881c185d5cd95960821b604482015260640161058e565b565b60007f485787466c6bb756e23877696afb1ffef4d4f7daa150be930943445b9efd5abc611c906020850185612769565b611ca06040860160208701612769565b6040860135611cb26060880188612c20565b886080013588604051602001611ccf98979695949392919061302f565b60405160208183030381529060405280519060200120905092915050565b60006104ec611cfa6120af565b836121d6565b6000611d307fd262a1e181ec035692bcc8c920b971bccc173d5263f104f91c1561b5033679dd6103d385856121fd565b9392505050565b611d3f611c18565b6002805460ff191660011790557f62e78cea01bee320cd4e420270b5ea74000d11b0c9f74754ebdbfc544b05a258611bfb3390565b60007f17267e3c9a41fdc4878f6c57751034dfbbf7febe7592905bfe881b17e566ed2b611da46020850185612769565b611db46040860160208701612769565b611dc46060870160408801612769565b6060870135608088013560a0890135611de360e08b0160c08c01612769565b611df46101008c0160e08d01612a5b565b60408051602081019a909a526001600160a01b03988916908a01529587166060890152938616608088015260a087019290925260c086015260e0850152909116610100808401919091526001600160601b03909116610120830152840135610140820152610160810183905261018001611ccf565b80471015611eb95760405162461bcd60e51b815260206004820152601d60248201527f416464726573733a20696e73756666696369656e742062616c616e6365000000604482015260640161058e565b6000826001600160a01b03168260405160006040518083038185875af1925050503d8060008114611f06576040519150601f19603f3d011682016040523d82523d6000602084013e611f0b565b606091505b50509050806105175760405162461bcd60e51b815260206004820152603a60248201527f416464726573733a20756e61626c6520746f2073656e642076616c75652c207260448201527f6563697069656e74206d61792068617665207265766572746564000000000000606482015260840161058e565b60007fd7414a21ae7fe6c7ae7ba4fc193977b266778b52f64e202866e96f1d30267f7f611fb26020850185612769565b611fc26040860160208701612769565b6040860135611fd76080880160608901612a5b565b611fe46080890189612c20565b8960a0013589604051602001611ccf99989796959493929190613080565b61200c828261114b565b61066757612024816001600160a01b03166014612221565b61202f836020612221565b604051602001612040929190613107565b60408051601f198184030181529082905262461bcd60e51b825261058e9160040161317c565b60025460ff16611c5e5760405162461bcd60e51b815260206004820152601460248201527314185d5cd8589b194e881b9bdd081c185d5cd95960621b604482015260640161058e565b6000306001600160a01b037f00000000000000000000000000000000000000000000000000000000000000001614801561210857507f000000000000000000000000000000000000000000000000000000000000000046145b1561213257507f000000000000000000000000000000000000000000000000000000000000000090565b50604080517f00000000000000000000000000000000000000000000000000000000000000006020808301919091527f0000000000000000000000000000000000000000000000000000000000000000828401527f000000000000000000000000000000000000000000000000000000000000000060608301524660808301523060a0808401919091528351808403909101815260c0909201909252805191012090565b60405161190160f01b60208201526022810183905260428101829052600090606201611ccf565b600080600061220c85856123bd565b9150915061221981612402565b509392505050565b606060006122308360026131af565b61223b906002612d37565b67ffffffffffffffff81111561225357612253612786565b6040519080825280601f01601f19166020018201604052801561227d576020820181803683370190505b509050600360fc1b8160008151811061229857612298612e66565b60200101906001600160f81b031916908160001a905350600f60fb1b816001815181106122c7576122c7612e66565b60200101906001600160f81b031916908160001a90535060006122eb8460026131af565b6122f6906001612d37565b90505b600181111561236e576f181899199a1a9b1b9c1cb0b131b232b360811b85600f166010811061232a5761232a612e66565b1a60f81b82828151811061234057612340612e66565b60200101906001600160f81b031916908160001a90535060049490941c93612367816131c6565b90506122f9565b508315611d305760405162461bcd60e51b815260206004820181905260248201527f537472696e67733a20686578206c656e67746820696e73756666696369656e74604482015260640161058e565b60008082516041036123f35760208301516040840151606085015160001a6123e7878285856125b8565b945094505050506123fb565b506000905060025b9250929050565b6000816004811115612416576124166131dd565b0361241e5750565b6001816004811115612432576124326131dd565b0361247f5760405162461bcd60e51b815260206004820152601860248201527f45434453413a20696e76616c6964207369676e61747572650000000000000000604482015260640161058e565b6002816004811115612493576124936131dd565b036124e05760405162461bcd60e51b815260206004820152601f60248201527f45434453413a20696e76616c6964207369676e6174757265206c656e67746800604482015260640161058e565b60038160048111156124f4576124f46131dd565b0361254c5760405162461bcd60e51b815260206004820152602260248201527f45434453413a20696e76616c6964207369676e6174757265202773272076616c604482015261756560f01b606482015260840161058e565b6004816004811115612560576125606131dd565b0361067e5760405162461bcd60e51b815260206004820152602260248201527f45434453413a20696e76616c6964207369676e6174757265202776272076616c604482015261756560f01b606482015260840161058e565b6000807f7fffffffffffffffffffffffffffffff5d576e7357a4501ddfe92f46681b20a08311156125ef575060009050600361269c565b8460ff16601b1415801561260757508460ff16601c14155b15612618575060009050600461269c565b6040805160008082526020820180845289905260ff881692820192909252606081018690526080810185905260019060a0016020604051602081039080840390855afa15801561266c573d6000803e3d6000fd5b5050604051601f1901519150506001600160a01b0381166126955760006001925092505061269c565b9150600090505b94509492505050565b6000602082840312156126b757600080fd5b81356001600160e01b031981168114611d3057600080fd5b6001600160a01b038116811461067e57600080fd5b80356126ef816126cf565b919050565b6000806040838503121561270757600080fd5b8235612712816126cf565b946020939093013593505050565b60006020828403121561273257600080fd5b5035919050565b6000806040838503121561274c57600080fd5b82359150602083013561275e816126cf565b809150509250929050565b60006020828403121561277b57600080fd5b8135611d30816126cf565b634e487b7160e01b600052604160045260246000fd5b600082601f8301126127ad57600080fd5b813567ffffffffffffffff808211156127c8576127c8612786565b604051601f8301601f19908116603f011681019082821181831017156127f0576127f0612786565b8160405283815286602085880101111561280957600080fd5b836020870160208301376000602085830101528094505050505092915050565b6000806040838503121561283c57600080fd5b823567ffffffffffffffff8082111561285457600080fd5b9084019060a0828703121561286857600080fd5b9092506020840135908082111561287e57600080fd5b5061288b8582860161279c565b9150509250929050565b6000808284036101408112156128aa57600080fd5b610120808212156128ba57600080fd5b849350830135905067ffffffffffffffff8111156128d757600080fd5b61288b8582860161279c565b60008083601f8401126128f557600080fd5b50813567ffffffffffffffff81111561290d57600080fd5b6020830191508360208260051b85010111156123fb57600080fd5b80356001600160601b03811681146126ef57600080fd5b600080600080600080600060a0888a03121561295a57600080fd5b8735612965816126cf565b9650602088013567ffffffffffffffff8082111561298257600080fd5b61298e8b838c016128e3565b90985096508691506129a260408b01612928565b955060608a01359150808211156129b857600080fd5b506129c58a828b016128e3565b90945092505060808801356129d9816126cf565b8091505092959891949750929550565b600080604083850312156129fc57600080fd5b823567ffffffffffffffff80821115612a1457600080fd5b9084019060c0828703121561286857600080fd5b60008060408385031215612a3b57600080fd5b8235612a46816126cf565b91506020830135801515811461275e57600080fd5b600060208284031215612a6d57600080fd5b611d3082612928565b6020808252601f908201527f5265656e7472616e637947756172643a207265656e7472616e742063616c6c00604082015260600190565b6020808252603a908201527f47424d61726b6574706c6163653a20636f6c6c656374696f6e2061646472657360408201527f73206d757374206e6f74206265207a65726f2061646472657373000000000000606082015260800190565b60208082526030908201527f47424d61726b6574706c6163653a20746f6b656e4964206d757374206265206760408201526f726561746572207468616e207a65726f60801b606082015260800190565b60208082526029908201527f47424d61726b6574706c6163653a20496e76616c696420636f6c6c656374696f6040820152686e206164647265737360b81b606082015260800190565b6020808252818101527f47424d61726b6574706c6163653a205369676e61747572652065787069726564604082015260600190565b602080825260119082015270496e76616c6964207369676e617475726560781b604082015260600190565b600060208284031215612c1557600080fd5b8151611d30816126cf565b6000808335601e19843603018112612c3757600080fd5b83018035915067ffffffffffffffff821115612c5257600080fd5b6020019150368190038213156123fb57600080fd5b81835281816020850137506000828201602090810191909152601f909101601f19169091010190565b838152604060208201526000612caa604083018486612c67565b95945050505050565b6001600160a01b038781168252861660208201526040810185905260a060608201819052600090612ce79083018587612c67565b9050826080830152979650505050505050565b634e487b7160e01b600052601160045260246000fd5b6001600160601b03818116838216019080821115612d3057612d30612cfa565b5092915050565b808201808211156104ec576104ec612cfa565b60008060408385031215612d5d57600080fd5b8251612d68816126cf565b6020939093015192949293505050565b600082612d9557634e487b7160e01b600052601260045260246000fd5b500490565b818103818111156104ec576104ec612cfa565b61014081018335612dbd816126cf565b6001600160a01b03168252612dd4602085016126e4565b6001600160a01b03166020830152612dee604085016126e4565b6001600160a01b038116604084015250606084013560608301526080840135608083015260a084013560a0830152612e2860c085016126e4565b6001600160a01b031660c0830152612e4260e08501612928565b6001600160601b031660e08301526101009384013593820193909352610120015290565b634e487b7160e01b600052603260045260246000fd5b60018060a01b03861681528460208201526001600160601b0384166040820152608060608201526000612eb3608083018486612c67565b979650505050505050565b6001600160a01b038881168252871660208201526040810186905260c060608201819052600090612ef29083018688612c67565b6001600160601b039490941660808301525060a0015295945050505050565b6001600160a01b038a81168252891660208083019190915260e0604083018190528201889052600090610100906001600160fb1b038a1115612f5257600080fd5b8960051b808c84870137840184810383016060860152918201889052610120808301929060058a901b8201018a60005b8b811015612ff35783830361011f190186528135368e9003601e19018112612fa957600080fd5b8d01858101903567ffffffffffffffff811115612fc557600080fd5b803603821315612fd457600080fd5b612fdf858284612c67565b978701979450505090840190600101612f82565b50506001600160601b0389166080870152935061300f92505050565b6001600160a01b039390931660a082015260c00152979650505050505050565b8881526001600160a01b038881166020830152871660408201526060810186905260e0608082018190526000906130699083018688612c67565b60a08301949094525060c001529695505050505050565b8981526001600160a01b03898116602083015288166040820152606081018790526001600160601b038616608082015261010060a082018190526000906130ca8382018789612c67565b60c0840195909552505060e00152979650505050505050565b60005b838110156130fe5781810151838201526020016130e6565b50506000910152565b7f416363657373436f6e74726f6c3a206163636f756e742000000000000000000081526000835161313f8160178501602088016130e3565b7001034b99036b4b9b9b4b733903937b6329607d1b60179184019182015283516131708160288401602088016130e3565b01602801949350505050565b602081526000825180602084015261319b8160408501602087016130e3565b601f01601f19169190910160400192915050565b80820281158282048414176104ec576104ec612cfa565b6000816131d5576131d5612cfa565b506000190190565b634e487b7160e01b600052602160045260246000fdfea2646970667358221220733e27f216bfa37d9ca4b435affda14c6a7d3ad20c3294845c5e46d7a18cd50364736f6c63430008110033","opcodes":"PUSH2 0x140 PUSH1 0x40 MSTORE PUSH1 0x6 DUP1 SLOAD PUSH1 0x1 PUSH1 0x1 PUSH1 0xA0 SHL SUB AND PUSH1 0x7D PUSH1 0xA1 SHL OR SWAP1 SSTORE CALLVALUE DUP1 ISZERO PUSH3 0x27 JUMPI PUSH1 0x0 DUP1 REVERT JUMPDEST POP PUSH1 0x40 MLOAD PUSH3 0x3540 CODESIZE SUB DUP1 PUSH3 0x3540 DUP4 CODECOPY DUP2 ADD PUSH1 0x40 DUP2 SWAP1 MSTORE PUSH3 0x4A SWAP2 PUSH3 0x27D JUMP JUMPDEST PUSH1 0x40 DUP1 MLOAD DUP1 DUP3 ADD DUP3 MSTORE PUSH1 0xD DUP2 MSTORE PUSH13 0x47424D61726B6574706C616365 PUSH1 0x98 SHL PUSH1 0x20 DUP1 DUP4 ADD SWAP2 DUP3 MSTORE DUP4 MLOAD DUP1 DUP6 ADD SWAP1 SWAP5 MSTORE PUSH1 0x5 DUP5 MSTORE PUSH5 0x312E302E3 PUSH1 0xDC SHL SWAP1 DUP5 ADD MSTORE DUP2 MLOAD SWAP1 KECCAK256 PUSH1 0xE0 DUP2 SWAP1 MSTORE PUSH32 0x6C015BD22B4C69690933C1058878EBDFEF31F9AAAE40BBE86D8A09FE1B2972C PUSH2 0x100 DUP2 SWAP1 MSTORE CHAINID PUSH1 0xA0 MSTORE SWAP2 SWAP3 SWAP2 PUSH32 0x8B73C3C69BB8FE3D512ECC4CF759CC79239F7B179B0FFACAA9A75D522B39400F PUSH3 0x131 DUP2 DUP5 DUP5 PUSH1 0x40 DUP1 MLOAD PUSH1 0x20 DUP2 ADD DUP6 SWAP1 MSTORE SWAP1 DUP2 ADD DUP4 SWAP1 MSTORE PUSH1 0x60 DUP2 ADD DUP3 SWAP1 MSTORE CHAINID PUSH1 0x80 DUP3 ADD MSTORE ADDRESS PUSH1 0xA0 DUP3 ADD MSTORE PUSH1 0x0 SWAP1 PUSH1 0xC0 ADD PUSH1 0x40 MLOAD PUSH1 0x20 DUP2 DUP4 SUB SUB DUP2 MSTORE SWAP1 PUSH1 0x40 MSTORE DUP1 MLOAD SWAP1 PUSH1 0x20 ADD KECCAK256 SWAP1 POP SWAP4 SWAP3 POP POP POP JUMP JUMPDEST PUSH1 0x80 MSTORE ADDRESS PUSH1 0xC0 MSTORE PUSH2 0x120 MSTORE POP POP PUSH1 0x1 DUP1 SSTORE POP POP PUSH1 0x2 DUP1 SLOAD PUSH1 0xFF NOT AND SWAP1 SSTORE PUSH3 0x15B PUSH1 0x0 DUP5 PUSH3 0x1B0 JUMP JUMPDEST PUSH3 0x187 PUSH32 0xD262A1E181EC035692BCC8C920B971BCCC173D5263F104F91C1561B5033679DD DUP4 PUSH3 0x1B0 JUMP JUMPDEST PUSH1 0x6 DUP1 SLOAD PUSH1 0x1 PUSH1 0x1 PUSH1 0xA0 SHL SUB NOT AND PUSH1 0x1 PUSH1 0x1 PUSH1 0xA0 SHL SUB SWAP3 SWAP1 SWAP3 AND SWAP2 SWAP1 SWAP2 OR SWAP1 SSTORE POP PUSH3 0x2C7 SWAP1 POP JUMP JUMPDEST PUSH3 0x1BC DUP3 DUP3 PUSH3 0x1C0 JUMP JUMPDEST POP POP JUMP JUMPDEST PUSH1 0x0 DUP3 DUP2 MSTORE PUSH1 0x20 DUP2 DUP2 MSTORE PUSH1 0x40 DUP1 DUP4 KECCAK256 PUSH1 0x1 PUSH1 0x1 PUSH1 0xA0 SHL SUB DUP6 AND DUP5 MSTORE SWAP1 SWAP2 MSTORE SWAP1 KECCAK256 SLOAD PUSH1 0xFF AND PUSH3 0x1BC JUMPI PUSH1 0x0 DUP3 DUP2 MSTORE PUSH1 0x20 DUP2 DUP2 MSTORE PUSH1 0x40 DUP1 DUP4 KECCAK256 PUSH1 0x1 PUSH1 0x1 PUSH1 0xA0 SHL SUB DUP6 AND DUP5 MSTORE SWAP1 SWAP2 MSTORE SWAP1 KECCAK256 DUP1 SLOAD PUSH1 0xFF NOT AND PUSH1 0x1 OR SWAP1 SSTORE PUSH3 0x21C CALLER SWAP1 JUMP JUMPDEST PUSH1 0x1 PUSH1 0x1 PUSH1 0xA0 SHL SUB AND DUP2 PUSH1 0x1 PUSH1 0x1 PUSH1 0xA0 SHL SUB AND DUP4 PUSH32 0x2F8788117E7EFF1D82E926EC794901D17C78024A50270940304540A733656F0D PUSH1 0x40 MLOAD PUSH1 0x40 MLOAD DUP1 SWAP2 SUB SWAP1 LOG4 POP POP JUMP JUMPDEST DUP1 MLOAD PUSH1 0x1 PUSH1 0x1 PUSH1 0xA0 SHL SUB DUP2 AND DUP2 EQ PUSH3 0x278 JUMPI PUSH1 0x0 DUP1 REVERT JUMPDEST SWAP2 SWAP1 POP JUMP JUMPDEST PUSH1 0x0 DUP1 PUSH1 0x0 PUSH1 0x60 DUP5 DUP7 SUB SLT ISZERO PUSH3 0x293 JUMPI PUSH1 0x0 DUP1 REVERT JUMPDEST PUSH3 0x29E DUP5 PUSH3 0x260 JUMP JUMPDEST SWAP3 POP PUSH3 0x2AE PUSH1 0x20 DUP6 ADD PUSH3 0x260 JUMP JUMPDEST SWAP2 POP PUSH3 0x2BE PUSH1 0x40 DUP6 ADD PUSH3 0x260 JUMP JUMPDEST SWAP1 POP SWAP3 POP SWAP3 POP SWAP3 JUMP JUMPDEST PUSH1 0x80 MLOAD PUSH1 0xA0 MLOAD PUSH1 0xC0 MLOAD PUSH1 0xE0 MLOAD PUSH2 0x100 MLOAD PUSH2 0x120 MLOAD PUSH2 0x3229 PUSH3 0x317 PUSH1 0x0 CODECOPY PUSH1 0x0 PUSH2 0x2139 ADD MSTORE PUSH1 0x0 PUSH2 0x2188 ADD MSTORE PUSH1 0x0 PUSH2 0x2163 ADD MSTORE PUSH1 0x0 PUSH2 0x20BC ADD MSTORE PUSH1 0x0 PUSH2 0x20E6 ADD MSTORE PUSH1 0x0 PUSH2 0x2110 ADD MSTORE PUSH2 0x3229 PUSH1 0x0 RETURN INVALID PUSH1 0x80 PUSH1 0x40 MSTORE PUSH1 0x4 CALLDATASIZE LT PUSH2 0x140 JUMPI PUSH1 0x0 CALLDATALOAD PUSH1 0xE0 SHR DUP1 PUSH4 0x8456CB59 GT PUSH2 0xB6 JUMPI DUP1 PUSH4 0xB5BB4EC8 GT PUSH2 0x6F JUMPI DUP1 PUSH4 0xB5BB4EC8 EQ PUSH2 0x40D JUMPI DUP1 PUSH4 0xC46F23F4 EQ PUSH2 0x42D JUMPI DUP1 PUSH4 0xD41D0E5C EQ PUSH2 0x44D JUMPI DUP1 PUSH4 0xD547741F EQ PUSH2 0x481 JUMPI DUP1 PUSH4 0xE20C7153 EQ PUSH2 0x4A1 JUMPI DUP1 PUSH4 0xF99E5DBB EQ PUSH2 0x4C1 JUMPI PUSH1 0x0 DUP1 REVERT JUMPDEST DUP1 PUSH4 0x8456CB59 EQ PUSH2 0x360 JUMPI DUP1 PUSH4 0x8CAC56D9 EQ PUSH2 0x375 JUMPI DUP1 PUSH4 0x90BB447F EQ PUSH2 0x388 JUMPI DUP1 PUSH4 0x91D14854 EQ PUSH2 0x3B8 JUMPI DUP1 PUSH4 0x94AE3881 EQ PUSH2 0x3D8 JUMPI DUP1 PUSH4 0xA217FDDF EQ PUSH2 0x3F8 JUMPI PUSH1 0x0 DUP1 REVERT JUMPDEST DUP1 PUSH4 0x35082933 GT PUSH2 0x108 JUMPI DUP1 PUSH4 0x35082933 EQ PUSH2 0x2A6 JUMPI DUP1 PUSH4 0x36568ABE EQ PUSH2 0x2C6 JUMPI DUP1 PUSH4 0x3F4BA83A EQ PUSH2 0x2E6 JUMPI DUP1 PUSH4 0x5C975ABB EQ PUSH2 0x2FB JUMPI DUP1 PUSH4 0x64CE6F79 EQ PUSH2 0x313 JUMPI DUP1 PUSH4 0x7ECEBE00 EQ PUSH2 0x333 JUMPI PUSH1 0x0 DUP1 REVERT JUMPDEST DUP1 PUSH4 0x1FFC9A7 EQ PUSH2 0x145 JUMPI DUP1 PUSH4 0x1CDAAB67 EQ PUSH2 0x17A JUMPI DUP1 PUSH4 0x248A9CA3 EQ PUSH2 0x207 JUMPI DUP1 PUSH4 0x26232A2E EQ PUSH2 0x245 JUMPI DUP1 PUSH4 0x2F2FF15D EQ PUSH2 0x284 JUMPI JUMPDEST PUSH1 0x0 DUP1 REVERT JUMPDEST CALLVALUE DUP1 ISZERO PUSH2 0x151 JUMPI PUSH1 0x0 DUP1 REVERT JUMPDEST POP PUSH2 0x165 PUSH2 0x160 CALLDATASIZE PUSH1 0x4 PUSH2 0x26A5 JUMP JUMPDEST PUSH2 0x4E1 JUMP JUMPDEST PUSH1 0x40 MLOAD SWAP1 ISZERO ISZERO DUP2 MSTORE PUSH1 0x20 ADD JUMPDEST PUSH1 0x40 MLOAD DUP1 SWAP2 SUB SWAP1 RETURN JUMPDEST CALLVALUE DUP1 ISZERO PUSH2 0x186 JUMPI PUSH1 0x0 DUP1 REVERT JUMPDEST POP PUSH2 0x1D8 PUSH2 0x195 CALLDATASIZE PUSH1 0x4 PUSH2 0x26F4 JUMP JUMPDEST PUSH1 0x5 PUSH1 0x20 SWAP1 DUP2 MSTORE PUSH1 0x0 SWAP3 DUP4 MSTORE PUSH1 0x40 DUP1 DUP5 KECCAK256 SWAP1 SWAP2 MSTORE SWAP1 DUP3 MSTORE SWAP1 KECCAK256 DUP1 SLOAD PUSH1 0x1 SWAP1 SWAP2 ADD SLOAD PUSH1 0x1 PUSH1 0x1 PUSH1 0xA0 SHL SUB DUP3 AND SWAP2 PUSH1 0x1 PUSH1 0xA0 SHL SWAP1 DIV PUSH1 0x1 PUSH1 0x1 PUSH1 0x60 SHL SUB AND SWAP1 PUSH1 0xFF AND DUP4 JUMP JUMPDEST PUSH1 0x40 DUP1 MLOAD PUSH1 0x1 PUSH1 0x1 PUSH1 0xA0 SHL SUB SWAP1 SWAP5 AND DUP5 MSTORE PUSH1 0x1 PUSH1 0x1 PUSH1 0x60 SHL SUB SWAP1 SWAP3 AND PUSH1 0x20 DUP5 ADD MSTORE ISZERO ISZERO SWAP1 DUP3 ADD MSTORE PUSH1 0x60 ADD PUSH2 0x171 JUMP JUMPDEST CALLVALUE DUP1 ISZERO PUSH2 0x213 JUMPI PUSH1 0x0 DUP1 REVERT JUMPDEST POP PUSH2 0x237 PUSH2 0x222 CALLDATASIZE PUSH1 0x4 PUSH2 0x2720 JUMP JUMPDEST PUSH1 0x0 SWAP1 DUP2 MSTORE PUSH1 0x20 DUP2 SWAP1 MSTORE PUSH1 0x40 SWAP1 KECCAK256 PUSH1 0x1 ADD SLOAD SWAP1 JUMP JUMPDEST PUSH1 0x40 MLOAD SWAP1 DUP2 MSTORE PUSH1 0x20 ADD PUSH2 0x171 JUMP JUMPDEST CALLVALUE DUP1 ISZERO PUSH2 0x251 JUMPI PUSH1 0x0 DUP1 REVERT JUMPDEST POP PUSH1 0x6 SLOAD PUSH2 0x26C SWAP1 PUSH1 0x1 PUSH1 0xA0 SHL SWAP1 DIV PUSH1 0x1 PUSH1 0x1 PUSH1 0x60 SHL SUB AND DUP2 JUMP JUMPDEST PUSH1 0x40 MLOAD PUSH1 0x1 PUSH1 0x1 PUSH1 0x60 SHL SUB SWAP1 SWAP2 AND DUP2 MSTORE PUSH1 0x20 ADD PUSH2 0x171 JUMP JUMPDEST CALLVALUE DUP1 ISZERO PUSH2 0x290 JUMPI PUSH1 0x0 DUP1 REVERT JUMPDEST POP PUSH2 0x2A4 PUSH2 0x29F CALLDATASIZE PUSH1 0x4 PUSH2 0x2739 JUMP JUMPDEST PUSH2 0x4F2 JUMP JUMPDEST STOP JUMPDEST CALLVALUE DUP1 ISZERO PUSH2 0x2B2 JUMPI PUSH1 0x0 DUP1 REVERT JUMPDEST POP PUSH2 0x2A4 PUSH2 0x2C1 CALLDATASIZE PUSH1 0x4 PUSH2 0x2769 JUMP JUMPDEST PUSH2 0x51C JUMP JUMPDEST CALLVALUE DUP1 ISZERO PUSH2 0x2D2 JUMPI PUSH1 0x0 DUP1 REVERT JUMPDEST POP PUSH2 0x2A4 PUSH2 0x2E1 CALLDATASIZE PUSH1 0x4 PUSH2 0x2739 JUMP JUMPDEST PUSH2 0x5ED JUMP JUMPDEST CALLVALUE DUP1 ISZERO PUSH2 0x2F2 JUMPI PUSH1 0x0 DUP1 REVERT JUMPDEST POP PUSH2 0x2A4 PUSH2 0x66B JUMP JUMPDEST CALLVALUE DUP1 ISZERO PUSH2 0x307 JUMPI PUSH1 0x0 DUP1 REVERT JUMPDEST POP PUSH1 0x2 SLOAD PUSH1 0xFF AND PUSH2 0x165 JUMP JUMPDEST CALLVALUE DUP1 ISZERO PUSH2 0x31F JUMPI PUSH1 0x0 DUP1 REVERT JUMPDEST POP PUSH2 0x2A4 PUSH2 0x32E CALLDATASIZE PUSH1 0x4 PUSH2 0x2829 JUMP JUMPDEST PUSH2 0x681 JUMP JUMPDEST CALLVALUE DUP1 ISZERO PUSH2 0x33F JUMPI PUSH1 0x0 DUP1 REVERT JUMPDEST POP PUSH2 0x237 PUSH2 0x34E CALLDATASIZE PUSH1 0x4 PUSH2 0x2769 JUMP JUMPDEST PUSH1 0x4 PUSH1 0x20 MSTORE PUSH1 0x0 SWAP1 DUP2 MSTORE PUSH1 0x40 SWAP1 KECCAK256 SLOAD DUP2 JUMP JUMPDEST CALLVALUE DUP1 ISZERO PUSH2 0x36C JUMPI PUSH1 0x0 DUP1 REVERT JUMPDEST POP PUSH2 0x2A4 PUSH2 0x9BD JUMP JUMPDEST PUSH2 0x2A4 PUSH2 0x383 CALLDATASIZE PUSH1 0x4 PUSH2 0x2895 JUMP JUMPDEST PUSH2 0x9D0 JUMP JUMPDEST CALLVALUE DUP1 ISZERO PUSH2 0x394 JUMPI PUSH1 0x0 DUP1 REVERT JUMPDEST POP PUSH2 0x165 PUSH2 0x3A3 CALLDATASIZE PUSH1 0x4 PUSH2 0x2769 JUMP JUMPDEST PUSH1 0x3 PUSH1 0x20 MSTORE PUSH1 0x0 SWAP1 DUP2 MSTORE PUSH1 0x40 SWAP1 KECCAK256 SLOAD PUSH1 0xFF AND DUP2 JUMP JUMPDEST CALLVALUE DUP1 ISZERO PUSH2 0x3C4 JUMPI PUSH1 0x0 DUP1 REVERT JUMPDEST POP PUSH2 0x165 PUSH2 0x3D3 CALLDATASIZE PUSH1 0x4 PUSH2 0x2739 JUMP JUMPDEST PUSH2 0x114B JUMP JUMPDEST CALLVALUE DUP1 ISZERO PUSH2 0x3E4 JUMPI PUSH1 0x0 DUP1 REVERT JUMPDEST POP PUSH2 0x2A4 PUSH2 0x3F3 CALLDATASIZE PUSH1 0x4 PUSH2 0x293F JUMP JUMPDEST PUSH2 0x1174 JUMP JUMPDEST CALLVALUE DUP1 ISZERO PUSH2 0x404 JUMPI PUSH1 0x0 DUP1 REVERT JUMPDEST POP PUSH2 0x237 PUSH1 0x0 DUP2 JUMP JUMPDEST CALLVALUE DUP1 ISZERO PUSH2 0x419 JUMPI PUSH1 0x0 DUP1 REVERT JUMPDEST POP PUSH2 0x2A4 PUSH2 0x428 CALLDATASIZE PUSH1 0x4 PUSH2 0x29E9 JUMP JUMPDEST PUSH2 0x14E1 JUMP JUMPDEST CALLVALUE DUP1 ISZERO PUSH2 0x439 JUMPI PUSH1 0x0 DUP1 REVERT JUMPDEST POP PUSH2 0x2A4 PUSH2 0x448 CALLDATASIZE PUSH1 0x4 PUSH2 0x2769 JUMP JUMPDEST PUSH2 0x17FE JUMP JUMPDEST CALLVALUE DUP1 ISZERO PUSH2 0x459 JUMPI PUSH1 0x0 DUP1 REVERT JUMPDEST POP PUSH2 0x237 PUSH32 0xD262A1E181EC035692BCC8C920B971BCCC173D5263F104F91C1561B5033679DD DUP2 JUMP JUMPDEST CALLVALUE DUP1 ISZERO PUSH2 0x48D JUMPI PUSH1 0x0 DUP1 REVERT JUMPDEST POP PUSH2 0x2A4 PUSH2 0x49C CALLDATASIZE PUSH1 0x4 PUSH2 0x2739 JUMP JUMPDEST PUSH2 0x18D6 JUMP JUMPDEST CALLVALUE DUP1 ISZERO PUSH2 0x4AD JUMPI PUSH1 0x0 DUP1 REVERT JUMPDEST POP PUSH2 0x2A4 PUSH2 0x4BC CALLDATASIZE PUSH1 0x4 PUSH2 0x2A28 JUMP JUMPDEST PUSH2 0x18FB JUMP JUMPDEST CALLVALUE DUP1 ISZERO PUSH2 0x4CD JUMPI PUSH1 0x0 DUP1 REVERT JUMPDEST POP PUSH2 0x2A4 PUSH2 0x4DC CALLDATASIZE PUSH1 0x4 PUSH2 0x2A5B JUMP JUMPDEST PUSH2 0x19D6 JUMP JUMPDEST PUSH1 0x0 PUSH2 0x4EC DUP3 PUSH2 0x1A9E JUMP JUMPDEST SWAP3 SWAP2 POP POP JUMP JUMPDEST PUSH1 0x0 DUP3 DUP2 MSTORE PUSH1 0x20 DUP2 SWAP1 MSTORE PUSH1 0x40 SWAP1 KECCAK256 PUSH1 0x1 ADD SLOAD PUSH2 0x50D DUP2 PUSH2 0x1AD3 JUMP JUMPDEST PUSH2 0x517 DUP4 DUP4 PUSH2 0x1ADD JUMP JUMPDEST POP POP POP JUMP JUMPDEST PUSH1 0x0 PUSH2 0x527 DUP2 PUSH2 0x1AD3 JUMP JUMPDEST PUSH1 0x1 PUSH1 0x1 PUSH1 0xA0 SHL SUB DUP3 AND PUSH2 0x597 JUMPI PUSH1 0x40 MLOAD PUSH3 0x461BCD PUSH1 0xE5 SHL DUP2 MSTORE PUSH1 0x20 PUSH1 0x4 DUP3 ADD MSTORE PUSH1 0x2C PUSH1 0x24 DUP3 ADD MSTORE PUSH32 0x61646D696E57616C6C65742061646472657373206D757374206E6F7420626520 PUSH1 0x44 DUP3 ADD MSTORE PUSH12 0x7A65726F2061646472657373 PUSH1 0xA0 SHL PUSH1 0x64 DUP3 ADD MSTORE PUSH1 0x84 ADD JUMPDEST PUSH1 0x40 MLOAD DUP1 SWAP2 SUB SWAP1 REVERT JUMPDEST PUSH1 0x6 DUP1 SLOAD PUSH1 0x1 PUSH1 0x1 PUSH1 0xA0 SHL SUB NOT AND PUSH1 0x1 PUSH1 0x1 PUSH1 0xA0 SHL SUB DUP5 AND SWAP1 DUP2 OR SWAP1 SWAP2 SSTORE PUSH1 0x40 MLOAD SWAP1 DUP2 MSTORE PUSH32 0x1B651CFD0A3F185590087E7E632381434DFADA46F037B9081264F9F5BDBFCD9B SWAP1 PUSH1 0x20 ADD JUMPDEST PUSH1 0x40 MLOAD DUP1 SWAP2 SUB SWAP1 LOG1 POP POP JUMP JUMPDEST PUSH1 0x1 PUSH1 0x1 PUSH1 0xA0 SHL SUB DUP2 AND CALLER EQ PUSH2 0x65D JUMPI PUSH1 0x40 MLOAD PUSH3 0x461BCD PUSH1 0xE5 SHL DUP2 MSTORE PUSH1 0x20 PUSH1 0x4 DUP3 ADD MSTORE PUSH1 0x2F PUSH1 0x24 DUP3 ADD MSTORE PUSH32 0x416363657373436F6E74726F6C3A2063616E206F6E6C792072656E6F756E6365 PUSH1 0x44 DUP3 ADD MSTORE PUSH15 0x103937B632B9903337B91039B2B633 PUSH1 0x89 SHL PUSH1 0x64 DUP3 ADD MSTORE PUSH1 0x84 ADD PUSH2 0x58E JUMP JUMPDEST PUSH2 0x667 DUP3 DUP3 PUSH2 0x1B61 JUMP JUMPDEST POP POP JUMP JUMPDEST PUSH1 0x0 PUSH2 0x676 DUP2 PUSH2 0x1AD3 JUMP JUMPDEST PUSH2 0x67E PUSH2 0x1BC6 JUMP JUMPDEST POP JUMP JUMPDEST PUSH1 0x2 PUSH1 0x1 SLOAD SUB PUSH2 0x6A3 JUMPI PUSH1 0x40 MLOAD PUSH3 0x461BCD PUSH1 0xE5 SHL DUP2 MSTORE PUSH1 0x4 ADD PUSH2 0x58E SWAP1 PUSH2 0x2A76 JUMP JUMPDEST PUSH1 0x2 PUSH1 0x1 SSTORE PUSH2 0x6B0 PUSH2 0x1C18 JUMP JUMPDEST PUSH1 0x0 PUSH2 0x6C2 PUSH1 0x40 DUP5 ADD PUSH1 0x20 DUP6 ADD PUSH2 0x2769 JUMP JUMPDEST PUSH1 0x1 PUSH1 0x1 PUSH1 0xA0 SHL SUB AND SUB PUSH2 0x6E8 JUMPI PUSH1 0x40 MLOAD PUSH3 0x461BCD PUSH1 0xE5 SHL DUP2 MSTORE PUSH1 0x4 ADD PUSH2 0x58E SWAP1 PUSH2 0x2AAD JUMP JUMPDEST PUSH1 0x0 DUP3 PUSH1 0x40 ADD CALLDATALOAD GT PUSH2 0x70C JUMPI PUSH1 0x40 MLOAD PUSH3 0x461BCD PUSH1 0xE5 SHL DUP2 MSTORE PUSH1 0x4 ADD PUSH2 0x58E SWAP1 PUSH2 0x2B0A JUMP JUMPDEST PUSH1 0x3 PUSH1 0x0 PUSH2 0x720 PUSH1 0x40 DUP6 ADD PUSH1 0x20 DUP7 ADD PUSH2 0x2769 JUMP JUMPDEST PUSH1 0x1 PUSH1 0x1 PUSH1 0xA0 SHL SUB AND DUP2 MSTORE PUSH1 0x20 DUP2 ADD SWAP2 SWAP1 SWAP2 MSTORE PUSH1 0x40 ADD PUSH1 0x0 KECCAK256 SLOAD PUSH1 0xFF AND PUSH2 0x759 JUMPI PUSH1 0x40 MLOAD PUSH3 0x461BCD PUSH1 0xE5 SHL DUP2 MSTORE PUSH1 0x4 ADD PUSH2 0x58E SWAP1 PUSH2 0x2B5A JUMP JUMPDEST DUP2 PUSH1 0x80 ADD CALLDATALOAD TIMESTAMP GT ISZERO PUSH2 0x77D JUMPI PUSH1 0x40 MLOAD PUSH3 0x461BCD PUSH1 0xE5 SHL DUP2 MSTORE PUSH1 0x4 ADD PUSH2 0x58E SWAP1 PUSH2 0x2BA3 JUMP JUMPDEST CALLER PUSH1 0x0 SWAP1 DUP2 MSTORE PUSH1 0x4 PUSH1 0x20 MSTORE PUSH1 0x40 SWAP1 KECCAK256 SLOAD PUSH2 0x7A8 PUSH2 0x7A2 PUSH2 0x79D DUP6 DUP5 PUSH2 0x1C60 JUMP JUMPDEST PUSH2 0x1CED JUMP JUMPDEST DUP4 PUSH2 0x1D00 JUMP JUMPDEST PUSH2 0x7C4 JUMPI PUSH1 0x40 MLOAD PUSH3 0x461BCD PUSH1 0xE5 SHL DUP2 MSTORE PUSH1 0x4 ADD PUSH2 0x58E SWAP1 PUSH2 0x2BD8 JUMP JUMPDEST CALLER PUSH2 0x7D5 PUSH1 0x40 DUP6 ADD PUSH1 0x20 DUP7 ADD PUSH2 0x2769 JUMP JUMPDEST PUSH1 0x1 PUSH1 0x1 PUSH1 0xA0 SHL SUB AND PUSH4 0x6352211E DUP6 PUSH1 0x40 ADD CALLDATALOAD PUSH1 0x40 MLOAD DUP3 PUSH4 0xFFFFFFFF AND PUSH1 0xE0 SHL DUP2 MSTORE PUSH1 0x4 ADD PUSH2 0x806 SWAP2 DUP2 MSTORE PUSH1 0x20 ADD SWAP1 JUMP JUMPDEST PUSH1 0x20 PUSH1 0x40 MLOAD DUP1 DUP4 SUB DUP2 DUP7 GAS STATICCALL ISZERO DUP1 ISZERO PUSH2 0x823 JUMPI RETURNDATASIZE PUSH1 0x0 DUP1 RETURNDATACOPY RETURNDATASIZE PUSH1 0x0 REVERT JUMPDEST POP POP POP POP PUSH1 0x40 MLOAD RETURNDATASIZE PUSH1 0x1F NOT PUSH1 0x1F DUP3 ADD AND DUP3 ADD DUP1 PUSH1 0x40 MSTORE POP DUP2 ADD SWAP1 PUSH2 0x847 SWAP2 SWAP1 PUSH2 0x2C03 JUMP JUMPDEST PUSH1 0x1 PUSH1 0x1 PUSH1 0xA0 SHL SUB AND EQ PUSH2 0x8BB JUMPI PUSH1 0x40 MLOAD PUSH3 0x461BCD PUSH1 0xE5 SHL DUP2 MSTORE PUSH1 0x20 PUSH1 0x4 DUP3 ADD MSTORE PUSH1 0x35 PUSH1 0x24 DUP3 ADD MSTORE PUSH32 0x47424D61726B6574706C6163653A204F6E6C79204E4654206F776E6572206361 PUSH1 0x44 DUP3 ADD MSTORE PUSH21 0x6E20757064617465206368617269747920696E666F PUSH1 0x58 SHL PUSH1 0x64 DUP3 ADD MSTORE PUSH1 0x84 ADD PUSH2 0x58E JUMP JUMPDEST CALLER PUSH1 0x0 SWAP1 DUP2 MSTORE PUSH1 0x4 PUSH1 0x20 SWAP1 DUP2 MSTORE PUSH1 0x40 SWAP2 DUP3 SWAP1 KECCAK256 DUP1 SLOAD PUSH1 0x1 ADD SWAP1 SSTORE PUSH2 0x8E3 SWAP2 DUP6 ADD SWAP1 DUP6 ADD PUSH2 0x2769 JUMP JUMPDEST PUSH1 0x1 PUSH1 0x1 PUSH1 0xA0 SHL SUB AND PUSH4 0x162094C4 PUSH1 0x40 DUP6 ADD CALLDATALOAD PUSH2 0x903 PUSH1 0x60 DUP8 ADD DUP8 PUSH2 0x2C20 JUMP JUMPDEST PUSH1 0x40 MLOAD DUP5 PUSH4 0xFFFFFFFF AND PUSH1 0xE0 SHL DUP2 MSTORE PUSH1 0x4 ADD PUSH2 0x921 SWAP4 SWAP3 SWAP2 SWAP1 PUSH2 0x2C90 JUMP JUMPDEST PUSH1 0x0 PUSH1 0x40 MLOAD DUP1 DUP4 SUB DUP2 PUSH1 0x0 DUP8 DUP1 EXTCODESIZE ISZERO DUP1 ISZERO PUSH2 0x93B JUMPI PUSH1 0x0 DUP1 REVERT JUMPDEST POP GAS CALL ISZERO DUP1 ISZERO PUSH2 0x94F JUMPI RETURNDATASIZE PUSH1 0x0 DUP1 RETURNDATACOPY RETURNDATASIZE PUSH1 0x0 REVERT JUMPDEST POP PUSH32 0xE1F839C4AEAE0043E808CD49B4B7AB926266154DFC7CD789334663E78FEE2F76 SWAP3 POP PUSH2 0x986 SWAP2 POP POP PUSH1 0x40 DUP6 ADD PUSH1 0x20 DUP7 ADD PUSH2 0x2769 JUMP JUMPDEST CALLER PUSH1 0x40 DUP7 ADD CALLDATALOAD PUSH2 0x999 PUSH1 0x60 DUP9 ADD DUP9 PUSH2 0x2C20 JUMP JUMPDEST TIMESTAMP PUSH1 0x40 MLOAD PUSH2 0x9AC SWAP7 SWAP6 SWAP5 SWAP4 SWAP3 SWAP2 SWAP1 PUSH2 0x2CB3 JUMP JUMPDEST PUSH1 0x40 MLOAD DUP1 SWAP2 SUB SWAP1 LOG1 POP POP PUSH1 0x1 DUP1 SSTORE POP JUMP JUMPDEST PUSH1 0x0 PUSH2 0x9C8 DUP2 PUSH2 0x1AD3 JUMP JUMPDEST PUSH2 0x67E PUSH2 0x1D37 JUMP JUMPDEST PUSH1 0x2 PUSH1 0x1 SLOAD SUB PUSH2 0x9F2 JUMPI PUSH1 0x40 MLOAD PUSH3 0x461BCD PUSH1 0xE5 SHL DUP2 MSTORE PUSH1 0x4 ADD PUSH2 0x58E SWAP1 PUSH2 0x2A76 JUMP JUMPDEST PUSH1 0x2 PUSH1 0x1 SSTORE PUSH2 0x9FF PUSH2 0x1C18 JUMP JUMPDEST PUSH1 0x0 PUSH2 0xA11 PUSH1 0x40 DUP5 ADD PUSH1 0x20 DUP6 ADD PUSH2 0x2769 JUMP JUMPDEST PUSH1 0x1 PUSH1 0x1 PUSH1 0xA0 SHL SUB AND SUB PUSH2 0xA37 JUMPI PUSH1 0x40 MLOAD PUSH3 0x461BCD PUSH1 0xE5 SHL DUP2 MSTORE PUSH1 0x4 ADD PUSH2 0x58E SWAP1 PUSH2 0x2AAD JUMP JUMPDEST PUSH2 0xA47 PUSH1 0x60 DUP4 ADD PUSH1 0x40 DUP5 ADD PUSH2 0x2769 JUMP JUMPDEST PUSH1 0x1 PUSH1 0x1 PUSH1 0xA0 SHL SUB AND EXTCODESIZE ISZERO PUSH2 0xAC4 JUMPI PUSH1 0x40 MLOAD PUSH3 0x461BCD PUSH1 0xE5 SHL DUP2 MSTORE PUSH1 0x20 PUSH1 0x4 DUP3 ADD MSTORE PUSH1 0x3A PUSH1 0x24 DUP3 ADD MSTORE PUSH32 0x47424D61726B6574706C6163653A2073656C6C65722061646472657373206D75 PUSH1 0x44 DUP3 ADD MSTORE PUSH32 0x7374206E6F7420626520636F6E74726163742061646472657373000000000000 PUSH1 0x64 DUP3 ADD MSTORE PUSH1 0x84 ADD PUSH2 0x58E JUMP JUMPDEST PUSH1 0x0 PUSH2 0xAD6 PUSH1 0xE0 DUP5 ADD PUSH1 0xC0 DUP6 ADD PUSH2 0x2769 JUMP JUMPDEST PUSH1 0x1 PUSH1 0x1 PUSH1 0xA0 SHL SUB AND SUB PUSH2 0xB52 JUMPI PUSH1 0x40 MLOAD PUSH3 0x461BCD PUSH1 0xE5 SHL DUP2 MSTORE PUSH1 0x20 PUSH1 0x4 DUP3 ADD MSTORE PUSH1 0x37 PUSH1 0x24 DUP3 ADD MSTORE PUSH32 0x47424D61726B6574706C6163653A20636861726974792061646472657373206D PUSH1 0x44 DUP3 ADD MSTORE PUSH32 0x757374206E6F74206265207A65726F2061646472657373000000000000000000 PUSH1 0x64 DUP3 ADD MSTORE PUSH1 0x84 ADD PUSH2 0x58E JUMP JUMPDEST PUSH2 0x3E8 PUSH2 0xB66 PUSH2 0x100 DUP5 ADD PUSH1 0xE0 DUP6 ADD PUSH2 0x2A5B JUMP JUMPDEST PUSH1 0x1 PUSH1 0x1 PUSH1 0x60 SHL SUB AND LT ISZERO DUP1 ISZERO PUSH2 0xB98 JUMPI POP PUSH2 0x2710 PUSH2 0xB8C PUSH2 0x100 DUP5 ADD PUSH1 0xE0 DUP6 ADD PUSH2 0x2A5B JUMP JUMPDEST PUSH1 0x1 PUSH1 0x1 PUSH1 0x60 SHL SUB AND GT ISZERO JUMPDEST PUSH2 0xC0A JUMPI PUSH1 0x40 MLOAD PUSH3 0x461BCD PUSH1 0xE5 SHL DUP2 MSTORE PUSH1 0x20 PUSH1 0x4 DUP3 ADD MSTORE PUSH1 0x3E PUSH1 0x24 DUP3 ADD MSTORE PUSH32 0x47424D61726B6574706C6163653A20636861726974792070657263656E746167 PUSH1 0x44 DUP3 ADD MSTORE PUSH32 0x65206D757374206265206265747765656E2031302520616E6420313030250000 PUSH1 0x64 DUP3 ADD MSTORE PUSH1 0x84 ADD PUSH2 0x58E JUMP JUMPDEST PUSH1 0x0 PUSH1 0x5 DUP2 PUSH2 0xC1F PUSH1 0x40 DUP7 ADD PUSH1 0x20 DUP8 ADD PUSH2 0x2769 JUMP JUMPDEST PUSH1 0x1 PUSH1 0x1 PUSH1 0xA0 SHL SUB SWAP1 DUP2 AND DUP3 MSTORE PUSH1 0x20 DUP1 DUP4 ADD SWAP4 SWAP1 SWAP4 MSTORE PUSH1 0x40 SWAP2 DUP3 ADD PUSH1 0x0 SWAP1 DUP2 KECCAK256 PUSH1 0x60 DUP1 DUP10 ADD CALLDATALOAD DUP4 MSTORE SWAP1 DUP6 MSTORE SWAP1 DUP4 SWAP1 KECCAK256 DUP4 MLOAD SWAP2 DUP3 ADD DUP5 MSTORE DUP1 SLOAD SWAP3 DUP4 AND DUP3 MSTORE PUSH1 0x1 PUSH1 0x1 PUSH1 0x60 SHL SUB PUSH1 0x1 PUSH1 0xA0 SHL SWAP4 DUP5 SWAP1 DIV DUP2 AND SWAP6 DUP4 ADD DUP7 SWAP1 MSTORE PUSH1 0x1 SWAP1 SWAP2 ADD SLOAD PUSH1 0xFF AND ISZERO ISZERO SWAP4 DUP3 ADD SWAP4 SWAP1 SWAP4 MSTORE PUSH1 0x6 SLOAD SWAP1 SWAP5 POP PUSH2 0x2710 SWAP4 SWAP3 SWAP2 SWAP1 DIV AND PUSH2 0xCA7 PUSH2 0x100 DUP8 ADD PUSH1 0xE0 DUP9 ADD PUSH2 0x2A5B JUMP JUMPDEST PUSH2 0xCB1 SWAP2 SWAP1 PUSH2 0x2D10 JUMP JUMPDEST PUSH2 0xCBB SWAP2 SWAP1 PUSH2 0x2D10 JUMP JUMPDEST PUSH1 0x1 PUSH1 0x1 PUSH1 0x60 SHL SUB AND GT ISZERO PUSH2 0xD2A JUMPI PUSH1 0x40 MLOAD PUSH3 0x461BCD PUSH1 0xE5 SHL DUP2 MSTORE PUSH1 0x20 PUSH1 0x4 DUP3 ADD MSTORE PUSH1 0x2F PUSH1 0x24 DUP3 ADD MSTORE PUSH32 0x47424D61726B6574706C6163653A20746F74616C20666565206D757374206265 PUSH1 0x44 DUP3 ADD MSTORE PUSH15 0x206C657373207468616E2031303025 PUSH1 0x88 SHL PUSH1 0x64 DUP3 ADD MSTORE PUSH1 0x84 ADD PUSH2 0x58E JUMP JUMPDEST PUSH1 0x0 DUP4 PUSH1 0x80 ADD CALLDATALOAD GT PUSH2 0xD96 JUMPI PUSH1 0x40 MLOAD PUSH3 0x461BCD PUSH1 0xE5 SHL DUP2 MSTORE PUSH1 0x20 PUSH1 0x4 DUP3 ADD MSTORE PUSH1 0x2F PUSH1 0x24 DUP3 ADD MSTORE PUSH32 0x47424D61726B6574706C6163653A204E4654205072696365206D757374206265 PUSH1 0x44 DUP3 ADD MSTORE PUSH15 0x2067726561746572207468616E203 PUSH1 0x8C SHL PUSH1 0x64 DUP3 ADD MSTORE PUSH1 0x84 ADD PUSH2 0x58E JUMP JUMPDEST PUSH2 0xDA8 PUSH1 0xA0 DUP5 ADD CALLDATALOAD PUSH1 0x80 DUP6 ADD CALLDATALOAD PUSH2 0x2D37 JUMP JUMPDEST CALLVALUE LT ISZERO PUSH2 0xE01 JUMPI PUSH1 0x40 MLOAD PUSH3 0x461BCD PUSH1 0xE5 SHL DUP2 MSTORE PUSH1 0x20 PUSH1 0x4 DUP3 ADD MSTORE PUSH1 0x21 PUSH1 0x24 DUP3 ADD MSTORE PUSH32 0x47424D61726B6574706C6163653A20496E73756666696369656E742066756E64 PUSH1 0x44 DUP3 ADD MSTORE PUSH1 0x73 PUSH1 0xF8 SHL PUSH1 0x64 DUP3 ADD MSTORE PUSH1 0x84 ADD PUSH2 0x58E JUMP JUMPDEST DUP3 PUSH2 0x100 ADD CALLDATALOAD TIMESTAMP GT ISZERO PUSH2 0xE26 JUMPI PUSH1 0x40 MLOAD PUSH3 0x461BCD PUSH1 0xE5 SHL DUP2 MSTORE PUSH1 0x4 ADD PUSH2 0x58E SWAP1 PUSH2 0x2BA3 JUMP JUMPDEST PUSH1 0x3 PUSH1 0x0 PUSH2 0xE3A PUSH1 0x40 DUP7 ADD PUSH1 0x20 DUP8 ADD PUSH2 0x2769 JUMP JUMPDEST PUSH1 0x1 PUSH1 0x1 PUSH1 0xA0 SHL SUB AND DUP2 MSTORE PUSH1 0x20 DUP2 ADD SWAP2 SWAP1 SWAP2 MSTORE PUSH1 0x40 ADD PUSH1 0x0 KECCAK256 SLOAD PUSH1 0xFF AND PUSH2 0xE73 JUMPI PUSH1 0x40 MLOAD PUSH3 0x461BCD PUSH1 0xE5 SHL DUP2 MSTORE PUSH1 0x4 ADD PUSH2 0x58E SWAP1 PUSH2 0x2B5A JUMP JUMPDEST CALLER PUSH1 0x0 SWAP1 DUP2 MSTORE PUSH1 0x4 PUSH1 0x20 MSTORE PUSH1 0x40 SWAP1 KECCAK256 SLOAD PUSH2 0xE99 PUSH2 0xE93 PUSH2 0x79D DUP7 DUP5 PUSH2 0x1D74 JUMP JUMPDEST DUP5 PUSH2 0x1D00 JUMP JUMPDEST PUSH2 0xEB5 JUMPI PUSH1 0x40 MLOAD PUSH3 0x461BCD PUSH1 0xE5 SHL DUP2 MSTORE PUSH1 0x4 ADD PUSH2 0x58E SWAP1 PUSH2 0x2BD8 JUMP JUMPDEST PUSH1 0x0 PUSH2 0xEE7 PUSH1 0x80 DUP7 ADD CALLDATALOAD PUSH2 0xED0 PUSH2 0x100 DUP9 ADD PUSH1 0xE0 DUP10 ADD PUSH2 0x2A5B JUMP JUMPDEST PUSH2 0x2710 PUSH1 0x1 PUSH1 0x1 PUSH1 0x60 SHL SUB SWAP2 SWAP1 SWAP2 AND SWAP2 SWAP1 SWAP2 MUL DIV SWAP1 JUMP JUMPDEST SWAP1 POP PUSH2 0xF0F PUSH2 0xEFC PUSH1 0xE0 DUP8 ADD PUSH1 0xC0 DUP9 ADD PUSH2 0x2769 JUMP JUMPDEST PUSH2 0xF0A PUSH1 0xA0 DUP9 ADD CALLDATALOAD DUP5 PUSH2 0x2D37 JUMP JUMPDEST PUSH2 0x1E69 JUMP JUMPDEST PUSH1 0x0 DUP1 PUSH2 0xF22 PUSH1 0x40 DUP9 ADD PUSH1 0x20 DUP10 ADD PUSH2 0x2769 JUMP JUMPDEST PUSH1 0x40 MLOAD PUSH4 0x152A902D PUSH1 0xE1 SHL DUP2 MSTORE PUSH1 0x60 DUP10 ADD CALLDATALOAD PUSH1 0x4 DUP3 ADD MSTORE PUSH1 0x80 DUP10 ADD CALLDATALOAD PUSH1 0x24 DUP3 ADD MSTORE PUSH1 0x1 PUSH1 0x1 PUSH1 0xA0 SHL SUB SWAP2 SWAP1 SWAP2 AND SWAP1 PUSH4 0x2A55205A SWAP1 PUSH1 0x44 ADD PUSH1 0x40 DUP1 MLOAD DUP1 DUP4 SUB DUP2 DUP7 GAS STATICCALL ISZERO DUP1 ISZERO PUSH2 0xF75 JUMPI RETURNDATASIZE PUSH1 0x0 DUP1 RETURNDATACOPY RETURNDATASIZE PUSH1 0x0 REVERT JUMPDEST POP POP POP POP PUSH1 0x40 MLOAD RETURNDATASIZE PUSH1 0x1F NOT PUSH1 0x1F DUP3 ADD AND DUP3 ADD DUP1 PUSH1 0x40 MSTORE POP DUP2 ADD SWAP1 PUSH2 0xF99 SWAP2 SWAP1 PUSH2 0x2D4A JUMP JUMPDEST SWAP2 POP SWAP2 POP PUSH2 0xFA7 DUP3 DUP3 PUSH2 0x1E69 JUMP JUMPDEST PUSH1 0x6 SLOAD PUSH2 0x2710 PUSH1 0x80 DUP10 ADD CALLDATALOAD PUSH1 0x1 PUSH1 0xA0 SHL DUP4 DIV PUSH1 0x1 PUSH1 0x1 PUSH1 0x60 SHL SUB AND MUL DIV SWAP1 PUSH2 0xFD8 SWAP1 PUSH1 0x1 PUSH1 0x1 PUSH1 0xA0 SHL SUB AND DUP3 PUSH2 0x1E69 JUMP JUMPDEST PUSH1 0x80 DUP9 ADD CALLDATALOAD DUP5 SWAP1 SUB DUP3 SWAP1 SUB DUP2 DUP2 SUB SWAP1 DUP3 EQ PUSH2 0x1052 JUMPI DUP7 PUSH1 0x40 ADD MLOAD ISZERO PUSH2 0x103F JUMPI PUSH1 0x0 PUSH2 0x1004 PUSH1 0x2 DUP4 PUSH2 0x2D78 JUMP JUMPDEST SWAP1 POP PUSH2 0x101F PUSH2 0x1019 PUSH1 0x60 DUP13 ADD PUSH1 0x40 DUP14 ADD PUSH2 0x2769 JUMP JUMPDEST DUP3 PUSH2 0x1E69 JUMP JUMPDEST PUSH1 0x6 SLOAD PUSH2 0x1039 SWAP1 PUSH1 0x1 PUSH1 0x1 PUSH1 0xA0 SHL SUB AND PUSH2 0xF0A DUP4 DUP6 PUSH2 0x2D9A JUMP JUMPDEST POP PUSH2 0x1052 JUMP JUMPDEST PUSH2 0x1052 PUSH2 0x1019 PUSH1 0x60 DUP12 ADD PUSH1 0x40 DUP13 ADD PUSH2 0x2769 JUMP JUMPDEST CALLER PUSH1 0x0 SWAP1 DUP2 MSTORE PUSH1 0x4 PUSH1 0x20 SWAP1 DUP2 MSTORE PUSH1 0x40 SWAP2 DUP3 SWAP1 KECCAK256 DUP1 SLOAD PUSH1 0x1 ADD SWAP1 SSTORE PUSH2 0x107A SWAP2 DUP12 ADD SWAP1 DUP12 ADD PUSH2 0x2769 JUMP JUMPDEST PUSH1 0x1 PUSH1 0x1 PUSH1 0xA0 SHL SUB AND PUSH4 0x42842E0E PUSH2 0x1098 PUSH1 0x60 DUP13 ADD PUSH1 0x40 DUP14 ADD PUSH2 0x2769 JUMP JUMPDEST CALLER PUSH1 0x40 MLOAD PUSH1 0x1 PUSH1 0x1 PUSH1 0xE0 SHL SUB NOT PUSH1 0xE0 DUP6 SWAP1 SHL AND DUP2 MSTORE PUSH1 0x1 PUSH1 0x1 PUSH1 0xA0 SHL SUB SWAP3 DUP4 AND PUSH1 0x4 DUP3 ADD MSTORE SWAP2 AND PUSH1 0x24 DUP3 ADD MSTORE PUSH1 0x60 DUP13 ADD CALLDATALOAD PUSH1 0x44 DUP3 ADD MSTORE PUSH1 0x64 ADD PUSH1 0x0 PUSH1 0x40 MLOAD DUP1 DUP4 SUB DUP2 PUSH1 0x0 DUP8 DUP1 EXTCODESIZE ISZERO DUP1 ISZERO PUSH2 0x10EB JUMPI PUSH1 0x0 DUP1 REVERT JUMPDEST POP GAS CALL ISZERO DUP1 ISZERO PUSH2 0x10FF JUMPI RETURNDATASIZE PUSH1 0x0 DUP1 RETURNDATACOPY RETURNDATASIZE PUSH1 0x0 REVERT JUMPDEST POP POP POP POP PUSH32 0x8E4C38F8D861E949358D505080AE24192A05E0E6A65A4D62F6A64B998C515C3C DUP10 TIMESTAMP PUSH1 0x40 MLOAD PUSH2 0x1134 SWAP3 SWAP2 SWAP1 PUSH2 0x2DAD JUMP JUMPDEST PUSH1 0x40 MLOAD DUP1 SWAP2 SUB SWAP1 LOG1 POP POP PUSH1 0x1 DUP1 SSTORE POP POP POP POP POP POP POP JUMP JUMPDEST PUSH1 0x0 SWAP2 DUP3 MSTORE PUSH1 0x20 DUP3 DUP2 MSTORE PUSH1 0x40 DUP1 DUP5 KECCAK256 PUSH1 0x1 PUSH1 0x1 PUSH1 0xA0 SHL SUB SWAP4 SWAP1 SWAP4 AND DUP5 MSTORE SWAP2 SWAP1 MSTORE SWAP1 KECCAK256 SLOAD PUSH1 0xFF AND SWAP1 JUMP JUMPDEST PUSH1 0x2 PUSH1 0x1 SLOAD SUB PUSH2 0x1196 JUMPI PUSH1 0x40 MLOAD PUSH3 0x461BCD PUSH1 0xE5 SHL DUP2 MSTORE PUSH1 0x4 ADD PUSH2 0x58E SWAP1 PUSH2 0x2A76 JUMP JUMPDEST PUSH1 0x2 PUSH1 0x1 SSTORE PUSH2 0x11A3 PUSH2 0x1C18 JUMP JUMPDEST PUSH1 0x0 PUSH2 0x11AE DUP2 PUSH2 0x1AD3 JUMP JUMPDEST PUSH1 0x1 PUSH1 0x1 PUSH1 0xA0 SHL SUB DUP9 AND PUSH2 0x11D4 JUMPI PUSH1 0x40 MLOAD PUSH3 0x461BCD PUSH1 0xE5 SHL DUP2 MSTORE PUSH1 0x4 ADD PUSH2 0x58E SWAP1 PUSH2 0x2AAD JUMP JUMPDEST DUP6 DUP4 EQ PUSH2 0x1249 JUMPI PUSH1 0x40 MLOAD PUSH3 0x461BCD PUSH1 0xE5 SHL DUP2 MSTORE PUSH1 0x20 PUSH1 0x4 DUP3 ADD MSTORE PUSH1 0x3A PUSH1 0x24 DUP3 ADD MSTORE PUSH32 0x47424D61726B6574706C6163653A20746F6B656E49647320616E6420746F6B65 PUSH1 0x44 DUP3 ADD MSTORE PUSH32 0x6E55524973206C656E677468206D75737420626520657175616C000000000000 PUSH1 0x64 DUP3 ADD MSTORE PUSH1 0x84 ADD PUSH2 0x58E JUMP JUMPDEST PUSH1 0x1 PUSH1 0x1 PUSH1 0xA0 SHL SUB DUP9 AND PUSH1 0x0 SWAP1 DUP2 MSTORE PUSH1 0x3 PUSH1 0x20 MSTORE PUSH1 0x40 SWAP1 KECCAK256 SLOAD PUSH1 0xFF AND PUSH2 0x1281 JUMPI PUSH1 0x40 MLOAD PUSH3 0x461BCD PUSH1 0xE5 SHL DUP2 MSTORE PUSH1 0x4 ADD PUSH2 0x58E SWAP1 PUSH2 0x2B5A JUMP JUMPDEST PUSH1 0x0 JUMPDEST DUP7 DUP2 LT ISZERO PUSH2 0x148B JUMPI PUSH1 0x0 DUP9 DUP9 DUP4 DUP2 DUP2 LT PUSH2 0x12A0 JUMPI PUSH2 0x12A0 PUSH2 0x2E66 JUMP JUMPDEST SWAP1 POP PUSH1 0x20 MUL ADD CALLDATALOAD GT PUSH2 0x12C4 JUMPI PUSH1 0x40 MLOAD PUSH3 0x461BCD PUSH1 0xE5 SHL DUP2 MSTORE PUSH1 0x4 ADD PUSH2 0x58E SWAP1 PUSH2 0x2B0A JUMP JUMPDEST PUSH1 0x40 DUP1 MLOAD PUSH1 0x60 DUP2 ADD DUP3 MSTORE PUSH1 0x1 PUSH1 0x1 PUSH1 0xA0 SHL SUB DUP1 DUP7 AND DUP3 MSTORE PUSH1 0x1 PUSH1 0x1 PUSH1 0x60 SHL SUB DUP10 AND PUSH1 0x20 DUP1 DUP5 ADD SWAP2 SWAP1 SWAP2 MSTORE PUSH1 0x1 DUP4 DUP6 ADD MSTORE SWAP1 DUP13 AND PUSH1 0x0 SWAP1 DUP2 MSTORE PUSH1 0x5 SWAP1 SWAP2 MSTORE SWAP2 DUP3 KECCAK256 SWAP1 SWAP2 DUP11 DUP11 DUP6 DUP2 DUP2 LT PUSH2 0x1318 JUMPI PUSH2 0x1318 PUSH2 0x2E66 JUMP JUMPDEST PUSH1 0x20 SWAP1 DUP2 MUL SWAP3 SWAP1 SWAP3 ADD CALLDATALOAD DUP4 MSTORE POP DUP2 DUP2 ADD SWAP3 SWAP1 SWAP3 MSTORE PUSH1 0x40 SWAP1 DUP2 ADD PUSH1 0x0 KECCAK256 DUP4 MLOAD SWAP3 DUP5 ADD MLOAD PUSH1 0x1 PUSH1 0x1 PUSH1 0x60 SHL SUB AND PUSH1 0x1 PUSH1 0xA0 SHL MUL PUSH1 0x1 PUSH1 0x1 PUSH1 0xA0 SHL SUB SWAP4 DUP5 AND OR DUP2 SSTORE SWAP3 ADD MLOAD PUSH1 0x1 SWAP1 SWAP3 ADD DUP1 SLOAD SWAP3 ISZERO ISZERO PUSH1 0xFF NOT SWAP1 SWAP4 AND SWAP3 SWAP1 SWAP3 OR SWAP1 SWAP2 SSTORE DUP10 AND PUSH4 0xE5BFF2E4 DUP5 DUP11 DUP11 DUP6 DUP2 DUP2 LT PUSH2 0x138B JUMPI PUSH2 0x138B PUSH2 0x2E66 JUMP JUMPDEST SWAP1 POP PUSH1 0x20 MUL ADD CALLDATALOAD DUP10 DUP10 DUP10 DUP8 DUP2 DUP2 LT PUSH2 0x13A5 JUMPI PUSH2 0x13A5 PUSH2 0x2E66 JUMP JUMPDEST SWAP1 POP PUSH1 0x20 MUL DUP2 ADD SWAP1 PUSH2 0x13B7 SWAP2 SWAP1 PUSH2 0x2C20 JUMP JUMPDEST PUSH1 0x40 MLOAD DUP7 PUSH4 0xFFFFFFFF AND PUSH1 0xE0 SHL DUP2 MSTORE PUSH1 0x4 ADD PUSH2 0x13D7 SWAP6 SWAP5 SWAP4 SWAP3 SWAP2 SWAP1 PUSH2 0x2E7C JUMP JUMPDEST PUSH1 0x0 PUSH1 0x40 MLOAD DUP1 DUP4 SUB DUP2 PUSH1 0x0 DUP8 DUP1 EXTCODESIZE ISZERO DUP1 ISZERO PUSH2 0x13F1 JUMPI PUSH1 0x0 DUP1 REVERT JUMPDEST POP GAS CALL ISZERO DUP1 ISZERO PUSH2 0x1405 JUMPI RETURNDATASIZE PUSH1 0x0 DUP1 RETURNDATACOPY RETURNDATASIZE PUSH1 0x0 REVERT JUMPDEST POP POP POP POP PUSH32 0x65DB01C4647D26831BE2DDE422DC7B3D0ED4D22F9D4BBC1D5306D5CC4176A2FF DUP10 DUP5 DUP11 DUP11 DUP6 DUP2 DUP2 LT PUSH2 0x143E JUMPI PUSH2 0x143E PUSH2 0x2E66 JUMP JUMPDEST SWAP1 POP PUSH1 0x20 MUL ADD CALLDATALOAD DUP9 DUP9 DUP7 DUP2 DUP2 LT PUSH2 0x1457 JUMPI PUSH2 0x1457 PUSH2 0x2E66 JUMP JUMPDEST SWAP1 POP PUSH1 0x20 MUL DUP2 ADD SWAP1 PUSH2 0x1469 SWAP2 SWAP1 PUSH2 0x2C20 JUMP JUMPDEST DUP12 TIMESTAMP PUSH1 0x40 MLOAD PUSH2 0x147E SWAP8 SWAP7 SWAP6 SWAP5 SWAP4 SWAP3 SWAP2 SWAP1 PUSH2 0x2EBE JUMP JUMPDEST PUSH1 0x40 MLOAD DUP1 SWAP2 SUB SWAP1 LOG1 PUSH2 0x1284 JUMP JUMPDEST POP PUSH32 0x3E8765325D2CFEE06AC79D772FFA0BB848DCB609EE5A506031A679B8A4B82903 DUP9 CALLER DUP10 DUP10 DUP9 DUP9 DUP12 DUP10 TIMESTAMP PUSH1 0x40 MLOAD PUSH2 0x14CB SWAP10 SWAP9 SWAP8 SWAP7 SWAP6 SWAP5 SWAP4 SWAP3 SWAP2 SWAP1 PUSH2 0x2F11 JUMP JUMPDEST PUSH1 0x40 MLOAD DUP1 SWAP2 SUB SWAP1 LOG1 POP POP PUSH1 0x1 DUP1 SSTORE POP POP POP POP POP POP JUMP JUMPDEST PUSH1 0x2 PUSH1 0x1 SLOAD SUB PUSH2 0x1503 JUMPI PUSH1 0x40 MLOAD PUSH3 0x461BCD PUSH1 0xE5 SHL DUP2 MSTORE PUSH1 0x4 ADD PUSH2 0x58E SWAP1 PUSH2 0x2A76 JUMP JUMPDEST PUSH1 0x2 PUSH1 0x1 SSTORE PUSH2 0x1510 PUSH2 0x1C18 JUMP JUMPDEST PUSH1 0x0 PUSH2 0x1522 PUSH1 0x40 DUP5 ADD PUSH1 0x20 DUP6 ADD PUSH2 0x2769 JUMP JUMPDEST PUSH1 0x1 PUSH1 0x1 PUSH1 0xA0 SHL SUB AND SUB PUSH2 0x1548 JUMPI PUSH1 0x40 MLOAD PUSH3 0x461BCD PUSH1 0xE5 SHL DUP2 MSTORE PUSH1 0x4 ADD PUSH2 0x58E SWAP1 PUSH2 0x2AAD JUMP JUMPDEST PUSH1 0x0 DUP3 PUSH1 0x40 ADD CALLDATALOAD GT PUSH2 0x156C JUMPI PUSH1 0x40 MLOAD PUSH3 0x461BCD PUSH1 0xE5 SHL DUP2 MSTORE PUSH1 0x4 ADD PUSH2 0x58E SWAP1 PUSH2 0x2B0A JUMP JUMPDEST PUSH1 0x3 PUSH1 0x0 PUSH2 0x1580 PUSH1 0x40 DUP6 ADD PUSH1 0x20 DUP7 ADD PUSH2 0x2769 JUMP JUMPDEST PUSH1 0x1 PUSH1 0x1 PUSH1 0xA0 SHL SUB AND DUP2 MSTORE PUSH1 0x20 DUP2 ADD SWAP2 SWAP1 SWAP2 MSTORE PUSH1 0x40 ADD PUSH1 0x0 KECCAK256 SLOAD PUSH1 0xFF AND PUSH2 0x15B9 JUMPI PUSH1 0x40 MLOAD PUSH3 0x461BCD PUSH1 0xE5 SHL DUP2 MSTORE PUSH1 0x4 ADD PUSH2 0x58E SWAP1 PUSH2 0x2B5A JUMP JUMPDEST DUP2 PUSH1 0xA0 ADD CALLDATALOAD TIMESTAMP GT ISZERO PUSH2 0x15DD JUMPI PUSH1 0x40 MLOAD PUSH3 0x461BCD PUSH1 0xE5 SHL DUP2 MSTORE PUSH1 0x4 ADD PUSH2 0x58E SWAP1 PUSH2 0x2BA3 JUMP JUMPDEST CALLER PUSH1 0x0 SWAP1 DUP2 MSTORE PUSH1 0x4 PUSH1 0x20 MSTORE PUSH1 0x40 SWAP1 KECCAK256 SLOAD PUSH2 0x15FD PUSH2 0x7A2 PUSH2 0x79D DUP6 DUP5 PUSH2 0x1F82 JUMP JUMPDEST PUSH2 0x1619 JUMPI PUSH1 0x40 MLOAD PUSH3 0x461BCD PUSH1 0xE5 SHL DUP2 MSTORE PUSH1 0x4 ADD PUSH2 0x58E SWAP1 PUSH2 0x2BD8 JUMP JUMPDEST PUSH1 0x40 MLOAD DUP1 PUSH1 0x60 ADD PUSH1 0x40 MSTORE DUP1 PUSH2 0x162B CALLER SWAP1 JUMP JUMPDEST PUSH1 0x1 PUSH1 0x1 PUSH1 0xA0 SHL SUB AND DUP2 MSTORE PUSH1 0x20 ADD PUSH2 0x1649 PUSH1 0x80 DUP7 ADD PUSH1 0x60 DUP8 ADD PUSH2 0x2A5B JUMP JUMPDEST PUSH1 0x1 PUSH1 0x1 PUSH1 0x60 SHL SUB AND DUP2 MSTORE PUSH1 0x0 PUSH1 0x20 SWAP2 DUP3 ADD DUP2 SWAP1 MSTORE PUSH1 0x5 SWAP2 PUSH2 0x1671 SWAP1 PUSH1 0x40 DUP9 ADD SWAP1 DUP9 ADD PUSH2 0x2769 JUMP JUMPDEST PUSH1 0x1 PUSH1 0x1 PUSH1 0xA0 SHL SUB SWAP1 DUP2 AND DUP3 MSTORE PUSH1 0x20 DUP1 DUP4 ADD SWAP4 SWAP1 SWAP4 MSTORE PUSH1 0x40 SWAP2 DUP3 ADD PUSH1 0x0 SWAP1 DUP2 KECCAK256 DUP9 DUP5 ADD CALLDATALOAD DUP3 MSTORE DUP5 MSTORE DUP3 DUP2 KECCAK256 DUP6 MLOAD SWAP5 DUP7 ADD MLOAD PUSH1 0x1 PUSH1 0x1 PUSH1 0x60 SHL SUB AND PUSH1 0x1 PUSH1 0xA0 SHL MUL SWAP5 SWAP1 SWAP3 AND SWAP4 SWAP1 SWAP4 OR DUP2 SSTORE SWAP3 ADD MLOAD PUSH1 0x1 SWAP1 SWAP3 ADD DUP1 SLOAD SWAP3 ISZERO ISZERO PUSH1 0xFF NOT SWAP1 SWAP4 AND SWAP3 SWAP1 SWAP3 OR SWAP1 SWAP2 SSTORE PUSH1 0x4 SWAP1 PUSH2 0x16DF CALLER SWAP1 JUMP JUMPDEST PUSH1 0x1 PUSH1 0x1 PUSH1 0xA0 SHL SUB AND DUP2 MSTORE PUSH1 0x20 DUP1 DUP3 ADD SWAP3 SWAP1 SWAP3 MSTORE PUSH1 0x40 SWAP1 DUP2 ADD PUSH1 0x0 KECCAK256 DUP1 SLOAD PUSH1 0x1 ADD SWAP1 SSTORE PUSH2 0x1711 SWAP2 SWAP1 DUP6 ADD SWAP1 DUP6 ADD PUSH2 0x2769 JUMP JUMPDEST PUSH1 0x1 PUSH1 0x1 PUSH1 0xA0 SHL SUB AND PUSH4 0xE5BFF2E4 CALLER PUSH1 0x40 DUP7 ADD CALLDATALOAD PUSH2 0x1735 PUSH1 0x80 DUP9 ADD PUSH1 0x60 DUP10 ADD PUSH2 0x2A5B JUMP JUMPDEST PUSH2 0x1742 PUSH1 0x80 DUP10 ADD DUP10 PUSH2 0x2C20 JUMP JUMPDEST PUSH1 0x40 MLOAD DUP7 PUSH4 0xFFFFFFFF AND PUSH1 0xE0 SHL DUP2 MSTORE PUSH1 0x4 ADD PUSH2 0x1762 SWAP6 SWAP5 SWAP4 SWAP3 SWAP2 SWAP1 PUSH2 0x2E7C JUMP JUMPDEST PUSH1 0x0 PUSH1 0x40 MLOAD DUP1 DUP4 SUB DUP2 PUSH1 0x0 DUP8 DUP1 EXTCODESIZE ISZERO DUP1 ISZERO PUSH2 0x177C JUMPI PUSH1 0x0 DUP1 REVERT JUMPDEST POP GAS CALL ISZERO DUP1 ISZERO PUSH2 0x1790 JUMPI RETURNDATASIZE PUSH1 0x0 DUP1 RETURNDATACOPY RETURNDATASIZE PUSH1 0x0 REVERT JUMPDEST POP PUSH32 0x65DB01C4647D26831BE2DDE422DC7B3D0ED4D22F9D4BBC1D5306D5CC4176A2FF SWAP3 POP PUSH2 0x17C7 SWAP2 POP POP PUSH1 0x40 DUP6 ADD PUSH1 0x20 DUP7 ADD PUSH2 0x2769 JUMP JUMPDEST CALLER PUSH1 0x40 DUP7 ADD CALLDATALOAD PUSH2 0x17DA PUSH1 0x80 DUP9 ADD DUP9 PUSH2 0x2C20 JUMP JUMPDEST PUSH2 0x17EA PUSH1 0x80 DUP11 ADD PUSH1 0x60 DUP12 ADD PUSH2 0x2A5B JUMP JUMPDEST TIMESTAMP PUSH1 0x40 MLOAD PUSH2 0x9AC SWAP8 SWAP7 SWAP6 SWAP5 SWAP4 SWAP3 SWAP2 SWAP1 PUSH2 0x2EBE JUMP JUMPDEST PUSH1 0x0 PUSH2 0x1809 DUP2 PUSH2 0x1AD3 JUMP JUMPDEST PUSH1 0x1 PUSH1 0x1 PUSH1 0xA0 SHL SUB DUP3 AND PUSH2 0x1873 JUMPI PUSH1 0x40 MLOAD PUSH3 0x461BCD PUSH1 0xE5 SHL DUP2 MSTORE PUSH1 0x20 PUSH1 0x4 DUP3 ADD MSTORE PUSH1 0x2B PUSH1 0x24 DUP3 ADD MSTORE PUSH32 0x766572696679526F6C652061646472657373206D757374206E6F74206265207A PUSH1 0x44 DUP3 ADD MSTORE PUSH11 0x65726F2061646472657373 PUSH1 0xA8 SHL PUSH1 0x64 DUP3 ADD MSTORE PUSH1 0x84 ADD PUSH2 0x58E JUMP JUMPDEST PUSH2 0x189D PUSH32 0xD262A1E181EC035692BCC8C920B971BCCC173D5263F104F91C1561B5033679DD DUP4 PUSH2 0x1ADD JUMP JUMPDEST PUSH1 0x40 MLOAD PUSH1 0x1 PUSH1 0x1 PUSH1 0xA0 SHL SUB DUP4 AND DUP2 MSTORE PUSH32 0x823BFE6C95B007BB6CC8BB748029C56AE8F83F9FC647A5C47B36F893BDEFE74F SWAP1 PUSH1 0x20 ADD PUSH2 0x5E1 JUMP JUMPDEST PUSH1 0x0 DUP3 DUP2 MSTORE PUSH1 0x20 DUP2 SWAP1 MSTORE PUSH1 0x40 SWAP1 KECCAK256 PUSH1 0x1 ADD SLOAD PUSH2 0x18F1 DUP2 PUSH2 0x1AD3 JUMP JUMPDEST PUSH2 0x517 DUP4 DUP4 PUSH2 0x1B61 JUMP JUMPDEST PUSH1 0x0 PUSH2 0x1906 DUP2 PUSH2 0x1AD3 JUMP JUMPDEST PUSH1 0x1 PUSH1 0x1 PUSH1 0xA0 SHL SUB DUP4 AND PUSH2 0x1972 JUMPI PUSH1 0x40 MLOAD PUSH3 0x461BCD PUSH1 0xE5 SHL DUP2 MSTORE PUSH1 0x20 PUSH1 0x4 DUP3 ADD MSTORE PUSH1 0x2D PUSH1 0x24 DUP3 ADD MSTORE PUSH32 0x6762436F6C6C656374696F6E2061646472657373206D757374206E6F74206265 PUSH1 0x44 DUP3 ADD MSTORE PUSH13 0x207A65726F2061646472657373 PUSH1 0x98 SHL PUSH1 0x64 DUP3 ADD MSTORE PUSH1 0x84 ADD PUSH2 0x58E JUMP JUMPDEST PUSH1 0x1 PUSH1 0x1 PUSH1 0xA0 SHL SUB DUP4 AND PUSH1 0x0 DUP2 DUP2 MSTORE PUSH1 0x3 PUSH1 0x20 SWAP1 DUP2 MSTORE PUSH1 0x40 SWAP2 DUP3 SWAP1 KECCAK256 DUP1 SLOAD PUSH1 0xFF NOT AND DUP7 ISZERO ISZERO SWAP1 DUP2 OR SWAP1 SWAP2 SSTORE DUP3 MLOAD SWAP4 DUP5 MSTORE SWAP1 DUP4 ADD MSTORE PUSH32 0x223891D059D602A4595404EC0A953E0FA8DE6291465A1E0D904D07F387F0B7FA SWAP2 ADD PUSH1 0x40 MLOAD DUP1 SWAP2 SUB SWAP1 LOG1 POP POP POP JUMP JUMPDEST PUSH1 0x0 PUSH2 0x19E1 DUP2 PUSH2 0x1AD3 JUMP JUMPDEST PUSH1 0x0 DUP3 PUSH1 0x1 PUSH1 0x1 PUSH1 0x60 SHL SUB AND GT PUSH2 0x1A48 JUMPI PUSH1 0x40 MLOAD PUSH3 0x461BCD PUSH1 0xE5 SHL DUP2 MSTORE PUSH1 0x20 PUSH1 0x4 DUP3 ADD MSTORE PUSH1 0x25 PUSH1 0x24 DUP3 ADD MSTORE PUSH32 0x706C6174666F726D466565206D7573742062652067726561746572207468616E PUSH1 0x44 DUP3 ADD MSTORE PUSH5 0x207A65726F PUSH1 0xD8 SHL PUSH1 0x64 DUP3 ADD MSTORE PUSH1 0x84 ADD PUSH2 0x58E JUMP JUMPDEST PUSH1 0x6 DUP1 SLOAD PUSH1 0x1 PUSH1 0x1 PUSH1 0xA0 SHL SUB AND PUSH1 0x1 PUSH1 0xA0 SHL PUSH1 0x1 PUSH1 0x1 PUSH1 0x60 SHL SUB DUP6 AND SWAP1 DUP2 MUL SWAP2 SWAP1 SWAP2 OR SWAP1 SWAP2 SSTORE PUSH1 0x40 MLOAD SWAP1 DUP2 MSTORE PUSH32 0xBE3599C33046219DDC3706F4B99CACA706DC0F53775580D18A367DC2188C96E5 SWAP1 PUSH1 0x20 ADD PUSH2 0x5E1 JUMP JUMPDEST PUSH1 0x0 PUSH1 0x1 PUSH1 0x1 PUSH1 0xE0 SHL SUB NOT DUP3 AND PUSH4 0x7965DB0B PUSH1 0xE0 SHL EQ DUP1 PUSH2 0x4EC JUMPI POP PUSH4 0x1FFC9A7 PUSH1 0xE0 SHL PUSH1 0x1 PUSH1 0x1 PUSH1 0xE0 SHL SUB NOT DUP4 AND EQ PUSH2 0x4EC JUMP JUMPDEST PUSH2 0x67E DUP2 CALLER PUSH2 0x2002 JUMP JUMPDEST PUSH2 0x1AE7 DUP3 DUP3 PUSH2 0x114B JUMP JUMPDEST PUSH2 0x667 JUMPI PUSH1 0x0 DUP3 DUP2 MSTORE PUSH1 0x20 DUP2 DUP2 MSTORE PUSH1 0x40 DUP1 DUP4 KECCAK256 PUSH1 0x1 PUSH1 0x1 PUSH1 0xA0 SHL SUB DUP6 AND DUP5 MSTORE SWAP1 SWAP2 MSTORE SWAP1 KECCAK256 DUP1 SLOAD PUSH1 0xFF NOT AND PUSH1 0x1 OR SWAP1 SSTORE PUSH2 0x1B1D CALLER SWAP1 JUMP JUMPDEST PUSH1 0x1 PUSH1 0x1 PUSH1 0xA0 SHL SUB AND DUP2 PUSH1 0x1 PUSH1 0x1 PUSH1 0xA0 SHL SUB AND DUP4 PUSH32 0x2F8788117E7EFF1D82E926EC794901D17C78024A50270940304540A733656F0D PUSH1 0x40 MLOAD PUSH1 0x40 MLOAD DUP1 SWAP2 SUB SWAP1 LOG4 POP POP JUMP JUMPDEST PUSH2 0x1B6B DUP3 DUP3 PUSH2 0x114B JUMP JUMPDEST ISZERO PUSH2 0x667 JUMPI PUSH1 0x0 DUP3 DUP2 MSTORE PUSH1 0x20 DUP2 DUP2 MSTORE PUSH1 0x40 DUP1 DUP4 KECCAK256 PUSH1 0x1 PUSH1 0x1 PUSH1 0xA0 SHL SUB DUP6 AND DUP1 DUP6 MSTORE SWAP3 MSTORE DUP1 DUP4 KECCAK256 DUP1 SLOAD PUSH1 0xFF NOT AND SWAP1 SSTORE MLOAD CALLER SWAP3 DUP6 SWAP2 PUSH32 0xF6391F5C32D9C69D2A47EA670B442974B53935D1EDC7FD64EB21E047A839171B SWAP2 SWAP1 LOG4 POP POP JUMP JUMPDEST PUSH2 0x1BCE PUSH2 0x2066 JUMP JUMPDEST PUSH1 0x2 DUP1 SLOAD PUSH1 0xFF NOT AND SWAP1 SSTORE PUSH32 0x5DB9EE0A495BF2E6FF9C91A7834C1BA4FDD244A5E8AA4E537BD38AEAE4B073AA CALLER JUMPDEST PUSH1 0x40 MLOAD PUSH1 0x1 PUSH1 0x1 PUSH1 0xA0 SHL SUB SWAP1 SWAP2 AND DUP2 MSTORE PUSH1 0x20 ADD PUSH1 0x40 MLOAD DUP1 SWAP2 SUB SWAP1 LOG1 JUMP JUMPDEST PUSH1 0x2 SLOAD PUSH1 0xFF AND ISZERO PUSH2 0x1C5E JUMPI PUSH1 0x40 MLOAD PUSH3 0x461BCD PUSH1 0xE5 SHL DUP2 MSTORE PUSH1 0x20 PUSH1 0x4 DUP3 ADD MSTORE PUSH1 0x10 PUSH1 0x24 DUP3 ADD MSTORE PUSH16 0x14185D5CD8589B194E881C185D5CD959 PUSH1 0x82 SHL PUSH1 0x44 DUP3 ADD MSTORE PUSH1 0x64 ADD PUSH2 0x58E JUMP JUMPDEST JUMP JUMPDEST PUSH1 0x0 PUSH32 0x485787466C6BB756E23877696AFB1FFEF4D4F7DAA150BE930943445B9EFD5ABC PUSH2 0x1C90 PUSH1 0x20 DUP6 ADD DUP6 PUSH2 0x2769 JUMP JUMPDEST PUSH2 0x1CA0 PUSH1 0x40 DUP7 ADD PUSH1 0x20 DUP8 ADD PUSH2 0x2769 JUMP JUMPDEST PUSH1 0x40 DUP7 ADD CALLDATALOAD PUSH2 0x1CB2 PUSH1 0x60 DUP9 ADD DUP9 PUSH2 0x2C20 JUMP JUMPDEST DUP9 PUSH1 0x80 ADD CALLDATALOAD DUP9 PUSH1 0x40 MLOAD PUSH1 0x20 ADD PUSH2 0x1CCF SWAP9 SWAP8 SWAP7 SWAP6 SWAP5 SWAP4 SWAP3 SWAP2 SWAP1 PUSH2 0x302F JUMP JUMPDEST PUSH1 0x40 MLOAD PUSH1 0x20 DUP2 DUP4 SUB SUB DUP2 MSTORE SWAP1 PUSH1 0x40 MSTORE DUP1 MLOAD SWAP1 PUSH1 0x20 ADD KECCAK256 SWAP1 POP SWAP3 SWAP2 POP POP JUMP JUMPDEST PUSH1 0x0 PUSH2 0x4EC PUSH2 0x1CFA PUSH2 0x20AF JUMP JUMPDEST DUP4 PUSH2 0x21D6 JUMP JUMPDEST PUSH1 0x0 PUSH2 0x1D30 PUSH32 0xD262A1E181EC035692BCC8C920B971BCCC173D5263F104F91C1561B5033679DD PUSH2 0x3D3 DUP6 DUP6 PUSH2 0x21FD JUMP JUMPDEST SWAP4 SWAP3 POP POP POP JUMP JUMPDEST PUSH2 0x1D3F PUSH2 0x1C18 JUMP JUMPDEST PUSH1 0x2 DUP1 SLOAD PUSH1 0xFF NOT AND PUSH1 0x1 OR SWAP1 SSTORE PUSH32 0x62E78CEA01BEE320CD4E420270B5EA74000D11B0C9F74754EBDBFC544B05A258 PUSH2 0x1BFB CALLER SWAP1 JUMP JUMPDEST PUSH1 0x0 PUSH32 0x17267E3C9A41FDC4878F6C57751034DFBBF7FEBE7592905BFE881B17E566ED2B PUSH2 0x1DA4 PUSH1 0x20 DUP6 ADD DUP6 PUSH2 0x2769 JUMP JUMPDEST PUSH2 0x1DB4 PUSH1 0x40 DUP7 ADD PUSH1 0x20 DUP8 ADD PUSH2 0x2769 JUMP JUMPDEST PUSH2 0x1DC4 PUSH1 0x60 DUP8 ADD PUSH1 0x40 DUP9 ADD PUSH2 0x2769 JUMP JUMPDEST PUSH1 0x60 DUP8 ADD CALLDATALOAD PUSH1 0x80 DUP9 ADD CALLDATALOAD PUSH1 0xA0 DUP10 ADD CALLDATALOAD PUSH2 0x1DE3 PUSH1 0xE0 DUP12 ADD PUSH1 0xC0 DUP13 ADD PUSH2 0x2769 JUMP JUMPDEST PUSH2 0x1DF4 PUSH2 0x100 DUP13 ADD PUSH1 0xE0 DUP14 ADD PUSH2 0x2A5B JUMP JUMPDEST PUSH1 0x40 DUP1 MLOAD PUSH1 0x20 DUP2 ADD SWAP11 SWAP1 SWAP11 MSTORE PUSH1 0x1 PUSH1 0x1 PUSH1 0xA0 SHL SUB SWAP9 DUP10 AND SWAP1 DUP11 ADD MSTORE SWAP6 DUP8 AND PUSH1 0x60 DUP10 ADD MSTORE SWAP4 DUP7 AND PUSH1 0x80 DUP9 ADD MSTORE PUSH1 0xA0 DUP8 ADD SWAP3 SWAP1 SWAP3 MSTORE PUSH1 0xC0 DUP7 ADD MSTORE PUSH1 0xE0 DUP6 ADD MSTORE SWAP1 SWAP2 AND PUSH2 0x100 DUP1 DUP5 ADD SWAP2 SWAP1 SWAP2 MSTORE PUSH1 0x1 PUSH1 0x1 PUSH1 0x60 SHL SUB SWAP1 SWAP2 AND PUSH2 0x120 DUP4 ADD MSTORE DUP5 ADD CALLDATALOAD PUSH2 0x140 DUP3 ADD MSTORE PUSH2 0x160 DUP2 ADD DUP4 SWAP1 MSTORE PUSH2 0x180 ADD PUSH2 0x1CCF JUMP JUMPDEST DUP1 SELFBALANCE LT ISZERO PUSH2 0x1EB9 JUMPI PUSH1 0x40 MLOAD PUSH3 0x461BCD PUSH1 0xE5 SHL DUP2 MSTORE PUSH1 0x20 PUSH1 0x4 DUP3 ADD MSTORE PUSH1 0x1D PUSH1 0x24 DUP3 ADD MSTORE PUSH32 0x416464726573733A20696E73756666696369656E742062616C616E6365000000 PUSH1 0x44 DUP3 ADD MSTORE PUSH1 0x64 ADD PUSH2 0x58E JUMP JUMPDEST PUSH1 0x0 DUP3 PUSH1 0x1 PUSH1 0x1 PUSH1 0xA0 SHL SUB AND DUP3 PUSH1 0x40 MLOAD PUSH1 0x0 PUSH1 0x40 MLOAD DUP1 DUP4 SUB DUP2 DUP6 DUP8 GAS CALL SWAP3 POP POP POP RETURNDATASIZE DUP1 PUSH1 0x0 DUP2 EQ PUSH2 0x1F06 JUMPI PUSH1 0x40 MLOAD SWAP2 POP PUSH1 0x1F NOT PUSH1 0x3F RETURNDATASIZE ADD AND DUP3 ADD PUSH1 0x40 MSTORE RETURNDATASIZE DUP3 MSTORE RETURNDATASIZE PUSH1 0x0 PUSH1 0x20 DUP5 ADD RETURNDATACOPY PUSH2 0x1F0B JUMP JUMPDEST PUSH1 0x60 SWAP2 POP JUMPDEST POP POP SWAP1 POP DUP1 PUSH2 0x517 JUMPI PUSH1 0x40 MLOAD PUSH3 0x461BCD PUSH1 0xE5 SHL DUP2 MSTORE PUSH1 0x20 PUSH1 0x4 DUP3 ADD MSTORE PUSH1 0x3A PUSH1 0x24 DUP3 ADD MSTORE PUSH32 0x416464726573733A20756E61626C6520746F2073656E642076616C75652C2072 PUSH1 0x44 DUP3 ADD MSTORE PUSH32 0x6563697069656E74206D61792068617665207265766572746564000000000000 PUSH1 0x64 DUP3 ADD MSTORE PUSH1 0x84 ADD PUSH2 0x58E JUMP JUMPDEST PUSH1 0x0 PUSH32 0xD7414A21AE7FE6C7AE7BA4FC193977B266778B52F64E202866E96F1D30267F7F PUSH2 0x1FB2 PUSH1 0x20 DUP6 ADD DUP6 PUSH2 0x2769 JUMP JUMPDEST PUSH2 0x1FC2 PUSH1 0x40 DUP7 ADD PUSH1 0x20 DUP8 ADD PUSH2 0x2769 JUMP JUMPDEST PUSH1 0x40 DUP7 ADD CALLDATALOAD PUSH2 0x1FD7 PUSH1 0x80 DUP9 ADD PUSH1 0x60 DUP10 ADD PUSH2 0x2A5B JUMP JUMPDEST PUSH2 0x1FE4 PUSH1 0x80 DUP10 ADD DUP10 PUSH2 0x2C20 JUMP JUMPDEST DUP10 PUSH1 0xA0 ADD CALLDATALOAD DUP10 PUSH1 0x40 MLOAD PUSH1 0x20 ADD PUSH2 0x1CCF SWAP10 SWAP9 SWAP8 SWAP7 SWAP6 SWAP5 SWAP4 SWAP3 SWAP2 SWAP1 PUSH2 0x3080 JUMP JUMPDEST PUSH2 0x200C DUP3 DUP3 PUSH2 0x114B JUMP JUMPDEST PUSH2 0x667 JUMPI PUSH2 0x2024 DUP2 PUSH1 0x1 PUSH1 0x1 PUSH1 0xA0 SHL SUB AND PUSH1 0x14 PUSH2 0x2221 JUMP JUMPDEST PUSH2 0x202F DUP4 PUSH1 0x20 PUSH2 0x2221 JUMP JUMPDEST PUSH1 0x40 MLOAD PUSH1 0x20 ADD PUSH2 0x2040 SWAP3 SWAP2 SWAP1 PUSH2 0x3107 JUMP JUMPDEST PUSH1 0x40 DUP1 MLOAD PUSH1 0x1F NOT DUP2 DUP5 SUB ADD DUP2 MSTORE SWAP1 DUP3 SWAP1 MSTORE PUSH3 0x461BCD PUSH1 0xE5 SHL DUP3 MSTORE PUSH2 0x58E SWAP2 PUSH1 0x4 ADD PUSH2 0x317C JUMP JUMPDEST PUSH1 0x2 SLOAD PUSH1 0xFF AND PUSH2 0x1C5E JUMPI PUSH1 0x40 MLOAD PUSH3 0x461BCD PUSH1 0xE5 SHL DUP2 MSTORE PUSH1 0x20 PUSH1 0x4 DUP3 ADD MSTORE PUSH1 0x14 PUSH1 0x24 DUP3 ADD MSTORE PUSH20 0x14185D5CD8589B194E881B9BDD081C185D5CD959 PUSH1 0x62 SHL PUSH1 0x44 DUP3 ADD MSTORE PUSH1 0x64 ADD PUSH2 0x58E JUMP JUMPDEST PUSH1 0x0 ADDRESS PUSH1 0x1 PUSH1 0x1 PUSH1 0xA0 SHL SUB PUSH32 0x0 AND EQ DUP1 ISZERO PUSH2 0x2108 JUMPI POP PUSH32 0x0 CHAINID EQ JUMPDEST ISZERO PUSH2 0x2132 JUMPI POP PUSH32 0x0 SWAP1 JUMP JUMPDEST POP PUSH1 0x40 DUP1 MLOAD PUSH32 0x0 PUSH1 0x20 DUP1 DUP4 ADD SWAP2 SWAP1 SWAP2 MSTORE PUSH32 0x0 DUP3 DUP5 ADD MSTORE PUSH32 0x0 PUSH1 0x60 DUP4 ADD MSTORE CHAINID PUSH1 0x80 DUP4 ADD MSTORE ADDRESS PUSH1 0xA0 DUP1 DUP5 ADD SWAP2 SWAP1 SWAP2 MSTORE DUP4 MLOAD DUP1 DUP5 SUB SWAP1 SWAP2 ADD DUP2 MSTORE PUSH1 0xC0 SWAP1 SWAP3 ADD SWAP1 SWAP3 MSTORE DUP1 MLOAD SWAP2 ADD KECCAK256 SWAP1 JUMP JUMPDEST PUSH1 0x40 MLOAD PUSH2 0x1901 PUSH1 0xF0 SHL PUSH1 0x20 DUP3 ADD MSTORE PUSH1 0x22 DUP2 ADD DUP4 SWAP1 MSTORE PUSH1 0x42 DUP2 ADD DUP3 SWAP1 MSTORE PUSH1 0x0 SWAP1 PUSH1 0x62 ADD PUSH2 0x1CCF JUMP JUMPDEST PUSH1 0x0 DUP1 PUSH1 0x0 PUSH2 0x220C DUP6 DUP6 PUSH2 0x23BD JUMP JUMPDEST SWAP2 POP SWAP2 POP PUSH2 0x2219 DUP2 PUSH2 0x2402 JUMP JUMPDEST POP SWAP4 SWAP3 POP POP POP JUMP JUMPDEST PUSH1 0x60 PUSH1 0x0 PUSH2 0x2230 DUP4 PUSH1 0x2 PUSH2 0x31AF JUMP JUMPDEST PUSH2 0x223B SWAP1 PUSH1 0x2 PUSH2 0x2D37 JUMP JUMPDEST PUSH8 0xFFFFFFFFFFFFFFFF DUP2 GT ISZERO PUSH2 0x2253 JUMPI PUSH2 0x2253 PUSH2 0x2786 JUMP JUMPDEST PUSH1 0x40 MLOAD SWAP1 DUP1 DUP3 MSTORE DUP1 PUSH1 0x1F ADD PUSH1 0x1F NOT AND PUSH1 0x20 ADD DUP3 ADD PUSH1 0x40 MSTORE DUP1 ISZERO PUSH2 0x227D JUMPI PUSH1 0x20 DUP3 ADD DUP2 DUP1 CALLDATASIZE DUP4 CALLDATACOPY ADD SWAP1 POP JUMPDEST POP SWAP1 POP PUSH1 0x3 PUSH1 0xFC SHL DUP2 PUSH1 0x0 DUP2 MLOAD DUP2 LT PUSH2 0x2298 JUMPI PUSH2 0x2298 PUSH2 0x2E66 JUMP JUMPDEST PUSH1 0x20 ADD ADD SWAP1 PUSH1 0x1 PUSH1 0x1 PUSH1 0xF8 SHL SUB NOT AND SWAP1 DUP2 PUSH1 0x0 BYTE SWAP1 MSTORE8 POP PUSH1 0xF PUSH1 0xFB SHL DUP2 PUSH1 0x1 DUP2 MLOAD DUP2 LT PUSH2 0x22C7 JUMPI PUSH2 0x22C7 PUSH2 0x2E66 JUMP JUMPDEST PUSH1 0x20 ADD ADD SWAP1 PUSH1 0x1 PUSH1 0x1 PUSH1 0xF8 SHL SUB NOT AND SWAP1 DUP2 PUSH1 0x0 BYTE SWAP1 MSTORE8 POP PUSH1 0x0 PUSH2 0x22EB DUP5 PUSH1 0x2 PUSH2 0x31AF JUMP JUMPDEST PUSH2 0x22F6 SWAP1 PUSH1 0x1 PUSH2 0x2D37 JUMP JUMPDEST SWAP1 POP JUMPDEST PUSH1 0x1 DUP2 GT ISZERO PUSH2 0x236E JUMPI PUSH16 0x181899199A1A9B1B9C1CB0B131B232B3 PUSH1 0x81 SHL DUP6 PUSH1 0xF AND PUSH1 0x10 DUP2 LT PUSH2 0x232A JUMPI PUSH2 0x232A PUSH2 0x2E66 JUMP JUMPDEST BYTE PUSH1 0xF8 SHL DUP3 DUP3 DUP2 MLOAD DUP2 LT PUSH2 0x2340 JUMPI PUSH2 0x2340 PUSH2 0x2E66 JUMP JUMPDEST PUSH1 0x20 ADD ADD SWAP1 PUSH1 0x1 PUSH1 0x1 PUSH1 0xF8 SHL SUB NOT AND SWAP1 DUP2 PUSH1 0x0 BYTE SWAP1 MSTORE8 POP PUSH1 0x4 SWAP5 SWAP1 SWAP5 SHR SWAP4 PUSH2 0x2367 DUP2 PUSH2 0x31C6 JUMP JUMPDEST SWAP1 POP PUSH2 0x22F9 JUMP JUMPDEST POP DUP4 ISZERO PUSH2 0x1D30 JUMPI PUSH1 0x40 MLOAD PUSH3 0x461BCD PUSH1 0xE5 SHL DUP2 MSTORE PUSH1 0x20 PUSH1 0x4 DUP3 ADD DUP2 SWAP1 MSTORE PUSH1 0x24 DUP3 ADD MSTORE PUSH32 0x537472696E67733A20686578206C656E67746820696E73756666696369656E74 PUSH1 0x44 DUP3 ADD MSTORE PUSH1 0x64 ADD PUSH2 0x58E JUMP JUMPDEST PUSH1 0x0 DUP1 DUP3 MLOAD PUSH1 0x41 SUB PUSH2 0x23F3 JUMPI PUSH1 0x20 DUP4 ADD MLOAD PUSH1 0x40 DUP5 ADD MLOAD PUSH1 0x60 DUP6 ADD MLOAD PUSH1 0x0 BYTE PUSH2 0x23E7 DUP8 DUP3 DUP6 DUP6 PUSH2 0x25B8 JUMP JUMPDEST SWAP5 POP SWAP5 POP POP POP POP PUSH2 0x23FB JUMP JUMPDEST POP PUSH1 0x0 SWAP1 POP PUSH1 0x2 JUMPDEST SWAP3 POP SWAP3 SWAP1 POP JUMP JUMPDEST PUSH1 0x0 DUP2 PUSH1 0x4 DUP2 GT ISZERO PUSH2 0x2416 JUMPI PUSH2 0x2416 PUSH2 0x31DD JUMP JUMPDEST SUB PUSH2 0x241E JUMPI POP JUMP JUMPDEST PUSH1 0x1 DUP2 PUSH1 0x4 DUP2 GT ISZERO PUSH2 0x2432 JUMPI PUSH2 0x2432 PUSH2 0x31DD JUMP JUMPDEST SUB PUSH2 0x247F JUMPI PUSH1 0x40 MLOAD PUSH3 0x461BCD PUSH1 0xE5 SHL DUP2 MSTORE PUSH1 0x20 PUSH1 0x4 DUP3 ADD MSTORE PUSH1 0x18 PUSH1 0x24 DUP3 ADD MSTORE PUSH32 0x45434453413A20696E76616C6964207369676E61747572650000000000000000 PUSH1 0x44 DUP3 ADD MSTORE PUSH1 0x64 ADD PUSH2 0x58E JUMP JUMPDEST PUSH1 0x2 DUP2 PUSH1 0x4 DUP2 GT ISZERO PUSH2 0x2493 JUMPI PUSH2 0x2493 PUSH2 0x31DD JUMP JUMPDEST SUB PUSH2 0x24E0 JUMPI PUSH1 0x40 MLOAD PUSH3 0x461BCD PUSH1 0xE5 SHL DUP2 MSTORE PUSH1 0x20 PUSH1 0x4 DUP3 ADD MSTORE PUSH1 0x1F PUSH1 0x24 DUP3 ADD MSTORE PUSH32 0x45434453413A20696E76616C6964207369676E6174757265206C656E67746800 PUSH1 0x44 DUP3 ADD MSTORE PUSH1 0x64 ADD PUSH2 0x58E JUMP JUMPDEST PUSH1 0x3 DUP2 PUSH1 0x4 DUP2 GT ISZERO PUSH2 0x24F4 JUMPI PUSH2 0x24F4 PUSH2 0x31DD JUMP JUMPDEST SUB PUSH2 0x254C JUMPI PUSH1 0x40 MLOAD PUSH3 0x461BCD PUSH1 0xE5 SHL DUP2 MSTORE PUSH1 0x20 PUSH1 0x4 DUP3 ADD MSTORE PUSH1 0x22 PUSH1 0x24 DUP3 ADD MSTORE PUSH32 0x45434453413A20696E76616C6964207369676E6174757265202773272076616C PUSH1 0x44 DUP3 ADD MSTORE PUSH2 0x7565 PUSH1 0xF0 SHL PUSH1 0x64 DUP3 ADD MSTORE PUSH1 0x84 ADD PUSH2 0x58E JUMP JUMPDEST PUSH1 0x4 DUP2 PUSH1 0x4 DUP2 GT ISZERO PUSH2 0x2560 JUMPI PUSH2 0x2560 PUSH2 0x31DD JUMP JUMPDEST SUB PUSH2 0x67E JUMPI PUSH1 0x40 MLOAD PUSH3 0x461BCD PUSH1 0xE5 SHL DUP2 MSTORE PUSH1 0x20 PUSH1 0x4 DUP3 ADD MSTORE PUSH1 0x22 PUSH1 0x24 DUP3 ADD MSTORE PUSH32 0x45434453413A20696E76616C6964207369676E6174757265202776272076616C PUSH1 0x44 DUP3 ADD MSTORE PUSH2 0x7565 PUSH1 0xF0 SHL PUSH1 0x64 DUP3 ADD MSTORE PUSH1 0x84 ADD PUSH2 0x58E JUMP JUMPDEST PUSH1 0x0 DUP1 PUSH32 0x7FFFFFFFFFFFFFFFFFFFFFFFFFFFFFFF5D576E7357A4501DDFE92F46681B20A0 DUP4 GT ISZERO PUSH2 0x25EF JUMPI POP PUSH1 0x0 SWAP1 POP PUSH1 0x3 PUSH2 0x269C JUMP JUMPDEST DUP5 PUSH1 0xFF AND PUSH1 0x1B EQ ISZERO DUP1 ISZERO PUSH2 0x2607 JUMPI POP DUP5 PUSH1 0xFF AND PUSH1 0x1C EQ ISZERO JUMPDEST ISZERO PUSH2 0x2618 JUMPI POP PUSH1 0x0 SWAP1 POP PUSH1 0x4 PUSH2 0x269C JUMP JUMPDEST PUSH1 0x40 DUP1 MLOAD PUSH1 0x0 DUP1 DUP3 MSTORE PUSH1 0x20 DUP3 ADD DUP1 DUP5 MSTORE DUP10 SWAP1 MSTORE PUSH1 0xFF DUP9 AND SWAP3 DUP3 ADD SWAP3 SWAP1 SWAP3 MSTORE PUSH1 0x60 DUP2 ADD DUP7 SWAP1 MSTORE PUSH1 0x80 DUP2 ADD DUP6 SWAP1 MSTORE PUSH1 0x1 SWAP1 PUSH1 0xA0 ADD PUSH1 0x20 PUSH1 0x40 MLOAD PUSH1 0x20 DUP2 SUB SWAP1 DUP1 DUP5 SUB SWAP1 DUP6 GAS STATICCALL ISZERO DUP1 ISZERO PUSH2 0x266C JUMPI RETURNDATASIZE PUSH1 0x0 DUP1 RETURNDATACOPY RETURNDATASIZE PUSH1 0x0 REVERT JUMPDEST POP POP PUSH1 0x40 MLOAD PUSH1 0x1F NOT ADD MLOAD SWAP2 POP POP PUSH1 0x1 PUSH1 0x1 PUSH1 0xA0 SHL SUB DUP2 AND PUSH2 0x2695 JUMPI PUSH1 0x0 PUSH1 0x1 SWAP3 POP SWAP3 POP POP PUSH2 0x269C JUMP JUMPDEST SWAP2 POP PUSH1 0x0 SWAP1 POP JUMPDEST SWAP5 POP SWAP5 SWAP3 POP POP POP JUMP JUMPDEST PUSH1 0x0 PUSH1 0x20 DUP3 DUP5 SUB SLT ISZERO PUSH2 0x26B7 JUMPI PUSH1 0x0 DUP1 REVERT JUMPDEST DUP2 CALLDATALOAD PUSH1 0x1 PUSH1 0x1 PUSH1 0xE0 SHL SUB NOT DUP2 AND DUP2 EQ PUSH2 0x1D30 JUMPI PUSH1 0x0 DUP1 REVERT JUMPDEST PUSH1 0x1 PUSH1 0x1 PUSH1 0xA0 SHL SUB DUP2 AND DUP2 EQ PUSH2 0x67E JUMPI PUSH1 0x0 DUP1 REVERT JUMPDEST DUP1 CALLDATALOAD PUSH2 0x26EF DUP2 PUSH2 0x26CF JUMP JUMPDEST SWAP2 SWAP1 POP JUMP JUMPDEST PUSH1 0x0 DUP1 PUSH1 0x40 DUP4 DUP6 SUB SLT ISZERO PUSH2 0x2707 JUMPI PUSH1 0x0 DUP1 REVERT JUMPDEST DUP3 CALLDATALOAD PUSH2 0x2712 DUP2 PUSH2 0x26CF JUMP JUMPDEST SWAP5 PUSH1 0x20 SWAP4 SWAP1 SWAP4 ADD CALLDATALOAD SWAP4 POP POP POP JUMP JUMPDEST PUSH1 0x0 PUSH1 0x20 DUP3 DUP5 SUB SLT ISZERO PUSH2 0x2732 JUMPI PUSH1 0x0 DUP1 REVERT JUMPDEST POP CALLDATALOAD SWAP2 SWAP1 POP JUMP JUMPDEST PUSH1 0x0 DUP1 PUSH1 0x40 DUP4 DUP6 SUB SLT ISZERO PUSH2 0x274C JUMPI PUSH1 0x0 DUP1 REVERT JUMPDEST DUP3 CALLDATALOAD SWAP2 POP PUSH1 0x20 DUP4 ADD CALLDATALOAD PUSH2 0x275E DUP2 PUSH2 0x26CF JUMP JUMPDEST DUP1 SWAP2 POP POP SWAP3 POP SWAP3 SWAP1 POP JUMP JUMPDEST PUSH1 0x0 PUSH1 0x20 DUP3 DUP5 SUB SLT ISZERO PUSH2 0x277B JUMPI PUSH1 0x0 DUP1 REVERT JUMPDEST DUP2 CALLDATALOAD PUSH2 0x1D30 DUP2 PUSH2 0x26CF JUMP JUMPDEST PUSH4 0x4E487B71 PUSH1 0xE0 SHL PUSH1 0x0 MSTORE PUSH1 0x41 PUSH1 0x4 MSTORE PUSH1 0x24 PUSH1 0x0 REVERT JUMPDEST PUSH1 0x0 DUP3 PUSH1 0x1F DUP4 ADD SLT PUSH2 0x27AD JUMPI PUSH1 0x0 DUP1 REVERT JUMPDEST DUP2 CALLDATALOAD PUSH8 0xFFFFFFFFFFFFFFFF DUP1 DUP3 GT ISZERO PUSH2 0x27C8 JUMPI PUSH2 0x27C8 PUSH2 0x2786 JUMP JUMPDEST PUSH1 0x40 MLOAD PUSH1 0x1F DUP4 ADD PUSH1 0x1F NOT SWAP1 DUP2 AND PUSH1 0x3F ADD AND DUP2 ADD SWAP1 DUP3 DUP3 GT DUP2 DUP4 LT OR ISZERO PUSH2 0x27F0 JUMPI PUSH2 0x27F0 PUSH2 0x2786 JUMP JUMPDEST DUP2 PUSH1 0x40 MSTORE DUP4 DUP2 MSTORE DUP7 PUSH1 0x20 DUP6 DUP9 ADD ADD GT ISZERO PUSH2 0x2809 JUMPI PUSH1 0x0 DUP1 REVERT JUMPDEST DUP4 PUSH1 0x20 DUP8 ADD PUSH1 0x20 DUP4 ADD CALLDATACOPY PUSH1 0x0 PUSH1 0x20 DUP6 DUP4 ADD ADD MSTORE DUP1 SWAP5 POP POP POP POP POP SWAP3 SWAP2 POP POP JUMP JUMPDEST PUSH1 0x0 DUP1 PUSH1 0x40 DUP4 DUP6 SUB SLT ISZERO PUSH2 0x283C JUMPI PUSH1 0x0 DUP1 REVERT JUMPDEST DUP3 CALLDATALOAD PUSH8 0xFFFFFFFFFFFFFFFF DUP1 DUP3 GT ISZERO PUSH2 0x2854 JUMPI PUSH1 0x0 DUP1 REVERT JUMPDEST SWAP1 DUP5 ADD SWAP1 PUSH1 0xA0 DUP3 DUP8 SUB SLT ISZERO PUSH2 0x2868 JUMPI PUSH1 0x0 DUP1 REVERT JUMPDEST SWAP1 SWAP3 POP PUSH1 0x20 DUP5 ADD CALLDATALOAD SWAP1 DUP1 DUP3 GT ISZERO PUSH2 0x287E JUMPI PUSH1 0x0 DUP1 REVERT JUMPDEST POP PUSH2 0x288B DUP6 DUP3 DUP7 ADD PUSH2 0x279C JUMP JUMPDEST SWAP2 POP POP SWAP3 POP SWAP3 SWAP1 POP JUMP JUMPDEST PUSH1 0x0 DUP1 DUP3 DUP5 SUB PUSH2 0x140 DUP2 SLT ISZERO PUSH2 0x28AA JUMPI PUSH1 0x0 DUP1 REVERT JUMPDEST PUSH2 0x120 DUP1 DUP3 SLT ISZERO PUSH2 0x28BA JUMPI PUSH1 0x0 DUP1 REVERT JUMPDEST DUP5 SWAP4 POP DUP4 ADD CALLDATALOAD SWAP1 POP PUSH8 0xFFFFFFFFFFFFFFFF DUP2 GT ISZERO PUSH2 0x28D7 JUMPI PUSH1 0x0 DUP1 REVERT JUMPDEST PUSH2 0x288B DUP6 DUP3 DUP7 ADD PUSH2 0x279C JUMP JUMPDEST PUSH1 0x0 DUP1 DUP4 PUSH1 0x1F DUP5 ADD SLT PUSH2 0x28F5 JUMPI PUSH1 0x0 DUP1 REVERT JUMPDEST POP DUP2 CALLDATALOAD PUSH8 0xFFFFFFFFFFFFFFFF DUP2 GT ISZERO PUSH2 0x290D JUMPI PUSH1 0x0 DUP1 REVERT JUMPDEST PUSH1 0x20 DUP4 ADD SWAP2 POP DUP4 PUSH1 0x20 DUP3 PUSH1 0x5 SHL DUP6 ADD ADD GT ISZERO PUSH2 0x23FB JUMPI PUSH1 0x0 DUP1 REVERT JUMPDEST DUP1 CALLDATALOAD PUSH1 0x1 PUSH1 0x1 PUSH1 0x60 SHL SUB DUP2 AND DUP2 EQ PUSH2 0x26EF JUMPI PUSH1 0x0 DUP1 REVERT JUMPDEST PUSH1 0x0 DUP1 PUSH1 0x0 DUP1 PUSH1 0x0 DUP1 PUSH1 0x0 PUSH1 0xA0 DUP9 DUP11 SUB SLT ISZERO PUSH2 0x295A JUMPI PUSH1 0x0 DUP1 REVERT JUMPDEST DUP8 CALLDATALOAD PUSH2 0x2965 DUP2 PUSH2 0x26CF JUMP JUMPDEST SWAP7 POP PUSH1 0x20 DUP9 ADD CALLDATALOAD PUSH8 0xFFFFFFFFFFFFFFFF DUP1 DUP3 GT ISZERO PUSH2 0x2982 JUMPI PUSH1 0x0 DUP1 REVERT JUMPDEST PUSH2 0x298E DUP12 DUP4 DUP13 ADD PUSH2 0x28E3 JUMP JUMPDEST SWAP1 SWAP9 POP SWAP7 POP DUP7 SWAP2 POP PUSH2 0x29A2 PUSH1 0x40 DUP12 ADD PUSH2 0x2928 JUMP JUMPDEST SWAP6 POP PUSH1 0x60 DUP11 ADD CALLDATALOAD SWAP2 POP DUP1 DUP3 GT ISZERO PUSH2 0x29B8 JUMPI PUSH1 0x0 DUP1 REVERT JUMPDEST POP PUSH2 0x29C5 DUP11 DUP3 DUP12 ADD PUSH2 0x28E3 JUMP JUMPDEST SWAP1 SWAP5 POP SWAP3 POP POP PUSH1 0x80 DUP9 ADD CALLDATALOAD PUSH2 0x29D9 DUP2 PUSH2 0x26CF JUMP JUMPDEST DUP1 SWAP2 POP POP SWAP3 SWAP6 SWAP9 SWAP2 SWAP5 SWAP8 POP SWAP3 SWAP6 POP JUMP JUMPDEST PUSH1 0x0 DUP1 PUSH1 0x40 DUP4 DUP6 SUB SLT ISZERO PUSH2 0x29FC JUMPI PUSH1 0x0 DUP1 REVERT JUMPDEST DUP3 CALLDATALOAD PUSH8 0xFFFFFFFFFFFFFFFF DUP1 DUP3 GT ISZERO PUSH2 0x2A14 JUMPI PUSH1 0x0 DUP1 REVERT JUMPDEST SWAP1 DUP5 ADD SWAP1 PUSH1 0xC0 DUP3 DUP8 SUB SLT ISZERO PUSH2 0x2868 JUMPI PUSH1 0x0 DUP1 REVERT JUMPDEST PUSH1 0x0 DUP1 PUSH1 0x40 DUP4 DUP6 SUB SLT ISZERO PUSH2 0x2A3B JUMPI PUSH1 0x0 DUP1 REVERT JUMPDEST DUP3 CALLDATALOAD PUSH2 0x2A46 DUP2 PUSH2 0x26CF JUMP JUMPDEST SWAP2 POP PUSH1 0x20 DUP4 ADD CALLDATALOAD DUP1 ISZERO ISZERO DUP2 EQ PUSH2 0x275E JUMPI PUSH1 0x0 DUP1 REVERT JUMPDEST PUSH1 0x0 PUSH1 0x20 DUP3 DUP5 SUB SLT ISZERO PUSH2 0x2A6D JUMPI PUSH1 0x0 DUP1 REVERT JUMPDEST PUSH2 0x1D30 DUP3 PUSH2 0x2928 JUMP JUMPDEST PUSH1 0x20 DUP1 DUP3 MSTORE PUSH1 0x1F SWAP1 DUP3 ADD MSTORE PUSH32 0x5265656E7472616E637947756172643A207265656E7472616E742063616C6C00 PUSH1 0x40 DUP3 ADD MSTORE PUSH1 0x60 ADD SWAP1 JUMP JUMPDEST PUSH1 0x20 DUP1 DUP3 MSTORE PUSH1 0x3A SWAP1 DUP3 ADD MSTORE PUSH32 0x47424D61726B6574706C6163653A20636F6C6C656374696F6E20616464726573 PUSH1 0x40 DUP3 ADD MSTORE PUSH32 0x73206D757374206E6F74206265207A65726F2061646472657373000000000000 PUSH1 0x60 DUP3 ADD MSTORE PUSH1 0x80 ADD SWAP1 JUMP JUMPDEST PUSH1 0x20 DUP1 DUP3 MSTORE PUSH1 0x30 SWAP1 DUP3 ADD MSTORE PUSH32 0x47424D61726B6574706C6163653A20746F6B656E4964206D7573742062652067 PUSH1 0x40 DUP3 ADD MSTORE PUSH16 0x726561746572207468616E207A65726F PUSH1 0x80 SHL PUSH1 0x60 DUP3 ADD MSTORE PUSH1 0x80 ADD SWAP1 JUMP JUMPDEST PUSH1 0x20 DUP1 DUP3 MSTORE PUSH1 0x29 SWAP1 DUP3 ADD MSTORE PUSH32 0x47424D61726B6574706C6163653A20496E76616C696420636F6C6C656374696F PUSH1 0x40 DUP3 ADD MSTORE PUSH9 0x6E2061646472657373 PUSH1 0xB8 SHL PUSH1 0x60 DUP3 ADD MSTORE PUSH1 0x80 ADD SWAP1 JUMP JUMPDEST PUSH1 0x20 DUP1 DUP3 MSTORE DUP2 DUP2 ADD MSTORE PUSH32 0x47424D61726B6574706C6163653A205369676E61747572652065787069726564 PUSH1 0x40 DUP3 ADD MSTORE PUSH1 0x60 ADD SWAP1 JUMP JUMPDEST PUSH1 0x20 DUP1 DUP3 MSTORE PUSH1 0x11 SWAP1 DUP3 ADD MSTORE PUSH17 0x496E76616C6964207369676E6174757265 PUSH1 0x78 SHL PUSH1 0x40 DUP3 ADD MSTORE PUSH1 0x60 ADD SWAP1 JUMP JUMPDEST PUSH1 0x0 PUSH1 0x20 DUP3 DUP5 SUB SLT ISZERO PUSH2 0x2C15 JUMPI PUSH1 0x0 DUP1 REVERT JUMPDEST DUP2 MLOAD PUSH2 0x1D30 DUP2 PUSH2 0x26CF JUMP JUMPDEST PUSH1 0x0 DUP1 DUP4 CALLDATALOAD PUSH1 0x1E NOT DUP5 CALLDATASIZE SUB ADD DUP2 SLT PUSH2 0x2C37 JUMPI PUSH1 0x0 DUP1 REVERT JUMPDEST DUP4 ADD DUP1 CALLDATALOAD SWAP2 POP PUSH8 0xFFFFFFFFFFFFFFFF DUP3 GT ISZERO PUSH2 0x2C52 JUMPI PUSH1 0x0 DUP1 REVERT JUMPDEST PUSH1 0x20 ADD SWAP2 POP CALLDATASIZE DUP2 SWAP1 SUB DUP3 SGT ISZERO PUSH2 0x23FB JUMPI PUSH1 0x0 DUP1 REVERT JUMPDEST DUP2 DUP4 MSTORE DUP2 DUP2 PUSH1 0x20 DUP6 ADD CALLDATACOPY POP PUSH1 0x0 DUP3 DUP3 ADD PUSH1 0x20 SWAP1 DUP2 ADD SWAP2 SWAP1 SWAP2 MSTORE PUSH1 0x1F SWAP1 SWAP2 ADD PUSH1 0x1F NOT AND SWAP1 SWAP2 ADD ADD SWAP1 JUMP JUMPDEST DUP4 DUP2 MSTORE PUSH1 0x40 PUSH1 0x20 DUP3 ADD MSTORE PUSH1 0x0 PUSH2 0x2CAA PUSH1 0x40 DUP4 ADD DUP5 DUP7 PUSH2 0x2C67 JUMP JUMPDEST SWAP6 SWAP5 POP POP POP POP POP JUMP JUMPDEST PUSH1 0x1 PUSH1 0x1 PUSH1 0xA0 SHL SUB DUP8 DUP2 AND DUP3 MSTORE DUP7 AND PUSH1 0x20 DUP3 ADD MSTORE PUSH1 0x40 DUP2 ADD DUP6 SWAP1 MSTORE PUSH1 0xA0 PUSH1 0x60 DUP3 ADD DUP2 SWAP1 MSTORE PUSH1 0x0 SWAP1 PUSH2 0x2CE7 SWAP1 DUP4 ADD DUP6 DUP8 PUSH2 0x2C67 JUMP JUMPDEST SWAP1 POP DUP3 PUSH1 0x80 DUP4 ADD MSTORE SWAP8 SWAP7 POP POP POP POP POP POP POP JUMP JUMPDEST PUSH4 0x4E487B71 PUSH1 0xE0 SHL PUSH1 0x0 MSTORE PUSH1 0x11 PUSH1 0x4 MSTORE PUSH1 0x24 PUSH1 0x0 REVERT JUMPDEST PUSH1 0x1 PUSH1 0x1 PUSH1 0x60 SHL SUB DUP2 DUP2 AND DUP4 DUP3 AND ADD SWAP1 DUP1 DUP3 GT ISZERO PUSH2 0x2D30 JUMPI PUSH2 0x2D30 PUSH2 0x2CFA JUMP JUMPDEST POP SWAP3 SWAP2 POP POP JUMP JUMPDEST DUP1 DUP3 ADD DUP1 DUP3 GT ISZERO PUSH2 0x4EC JUMPI PUSH2 0x4EC PUSH2 0x2CFA JUMP JUMPDEST PUSH1 0x0 DUP1 PUSH1 0x40 DUP4 DUP6 SUB SLT ISZERO PUSH2 0x2D5D JUMPI PUSH1 0x0 DUP1 REVERT JUMPDEST DUP3 MLOAD PUSH2 0x2D68 DUP2 PUSH2 0x26CF JUMP JUMPDEST PUSH1 0x20 SWAP4 SWAP1 SWAP4 ADD MLOAD SWAP3 SWAP5 SWAP3 SWAP4 POP POP POP JUMP JUMPDEST PUSH1 0x0 DUP3 PUSH2 0x2D95 JUMPI PUSH4 0x4E487B71 PUSH1 0xE0 SHL PUSH1 0x0 MSTORE PUSH1 0x12 PUSH1 0x4 MSTORE PUSH1 0x24 PUSH1 0x0 REVERT JUMPDEST POP DIV SWAP1 JUMP JUMPDEST DUP2 DUP2 SUB DUP2 DUP2 GT ISZERO PUSH2 0x4EC JUMPI PUSH2 0x4EC PUSH2 0x2CFA JUMP JUMPDEST PUSH2 0x140 DUP2 ADD DUP4 CALLDATALOAD PUSH2 0x2DBD DUP2 PUSH2 0x26CF JUMP JUMPDEST PUSH1 0x1 PUSH1 0x1 PUSH1 0xA0 SHL SUB AND DUP3 MSTORE PUSH2 0x2DD4 PUSH1 0x20 DUP6 ADD PUSH2 0x26E4 JUMP JUMPDEST PUSH1 0x1 PUSH1 0x1 PUSH1 0xA0 SHL SUB AND PUSH1 0x20 DUP4 ADD MSTORE PUSH2 0x2DEE PUSH1 0x40 DUP6 ADD PUSH2 0x26E4 JUMP JUMPDEST PUSH1 0x1 PUSH1 0x1 PUSH1 0xA0 SHL SUB DUP2 AND PUSH1 0x40 DUP5 ADD MSTORE POP PUSH1 0x60 DUP5 ADD CALLDATALOAD PUSH1 0x60 DUP4 ADD MSTORE PUSH1 0x80 DUP5 ADD CALLDATALOAD PUSH1 0x80 DUP4 ADD MSTORE PUSH1 0xA0 DUP5 ADD CALLDATALOAD PUSH1 0xA0 DUP4 ADD MSTORE PUSH2 0x2E28 PUSH1 0xC0 DUP6 ADD PUSH2 0x26E4 JUMP JUMPDEST PUSH1 0x1 PUSH1 0x1 PUSH1 0xA0 SHL SUB AND PUSH1 0xC0 DUP4 ADD MSTORE PUSH2 0x2E42 PUSH1 0xE0 DUP6 ADD PUSH2 0x2928 JUMP JUMPDEST PUSH1 0x1 PUSH1 0x1 PUSH1 0x60 SHL SUB AND PUSH1 0xE0 DUP4 ADD MSTORE PUSH2 0x100 SWAP4 DUP5 ADD CALLDATALOAD SWAP4 DUP3 ADD SWAP4 SWAP1 SWAP4 MSTORE PUSH2 0x120 ADD MSTORE SWAP1 JUMP JUMPDEST PUSH4 0x4E487B71 PUSH1 0xE0 SHL PUSH1 0x0 MSTORE PUSH1 0x32 PUSH1 0x4 MSTORE PUSH1 0x24 PUSH1 0x0 REVERT JUMPDEST PUSH1 0x1 DUP1 PUSH1 0xA0 SHL SUB DUP7 AND DUP2 MSTORE DUP5 PUSH1 0x20 DUP3 ADD MSTORE PUSH1 0x1 PUSH1 0x1 PUSH1 0x60 SHL SUB DUP5 AND PUSH1 0x40 DUP3 ADD MSTORE PUSH1 0x80 PUSH1 0x60 DUP3 ADD MSTORE PUSH1 0x0 PUSH2 0x2EB3 PUSH1 0x80 DUP4 ADD DUP5 DUP7 PUSH2 0x2C67 JUMP JUMPDEST SWAP8 SWAP7 POP POP POP POP POP POP POP JUMP JUMPDEST PUSH1 0x1 PUSH1 0x1 PUSH1 0xA0 SHL SUB DUP9 DUP2 AND DUP3 MSTORE DUP8 AND PUSH1 0x20 DUP3 ADD MSTORE PUSH1 0x40 DUP2 ADD DUP7 SWAP1 MSTORE PUSH1 0xC0 PUSH1 0x60 DUP3 ADD DUP2 SWAP1 MSTORE PUSH1 0x0 SWAP1 PUSH2 0x2EF2 SWAP1 DUP4 ADD DUP7 DUP9 PUSH2 0x2C67 JUMP JUMPDEST PUSH1 0x1 PUSH1 0x1 PUSH1 0x60 SHL SUB SWAP5 SWAP1 SWAP5 AND PUSH1 0x80 DUP4 ADD MSTORE POP PUSH1 0xA0 ADD MSTORE SWAP6 SWAP5 POP POP POP POP POP JUMP JUMPDEST PUSH1 0x1 PUSH1 0x1 PUSH1 0xA0 SHL SUB DUP11 DUP2 AND DUP3 MSTORE DUP10 AND PUSH1 0x20 DUP1 DUP4 ADD SWAP2 SWAP1 SWAP2 MSTORE PUSH1 0xE0 PUSH1 0x40 DUP4 ADD DUP2 SWAP1 MSTORE DUP3 ADD DUP9 SWAP1 MSTORE PUSH1 0x0 SWAP1 PUSH2 0x100 SWAP1 PUSH1 0x1 PUSH1 0x1 PUSH1 0xFB SHL SUB DUP11 GT ISZERO PUSH2 0x2F52 JUMPI PUSH1 0x0 DUP1 REVERT JUMPDEST DUP10 PUSH1 0x5 SHL DUP1 DUP13 DUP5 DUP8 ADD CALLDATACOPY DUP5 ADD DUP5 DUP2 SUB DUP4 ADD PUSH1 0x60 DUP7 ADD MSTORE SWAP2 DUP3 ADD DUP9 SWAP1 MSTORE PUSH2 0x120 DUP1 DUP4 ADD SWAP3 SWAP1 PUSH1 0x5 DUP11 SWAP1 SHL DUP3 ADD ADD DUP11 PUSH1 0x0 JUMPDEST DUP12 DUP2 LT ISZERO PUSH2 0x2FF3 JUMPI DUP4 DUP4 SUB PUSH2 0x11F NOT ADD DUP7 MSTORE DUP2 CALLDATALOAD CALLDATASIZE DUP15 SWAP1 SUB PUSH1 0x1E NOT ADD DUP2 SLT PUSH2 0x2FA9 JUMPI PUSH1 0x0 DUP1 REVERT JUMPDEST DUP14 ADD DUP6 DUP2 ADD SWAP1 CALLDATALOAD PUSH8 0xFFFFFFFFFFFFFFFF DUP2 GT ISZERO PUSH2 0x2FC5 JUMPI PUSH1 0x0 DUP1 REVERT JUMPDEST DUP1 CALLDATASIZE SUB DUP3 SGT ISZERO PUSH2 0x2FD4 JUMPI PUSH1 0x0 DUP1 REVERT JUMPDEST PUSH2 0x2FDF DUP6 DUP3 DUP5 PUSH2 0x2C67 JUMP JUMPDEST SWAP8 DUP8 ADD SWAP8 SWAP5 POP POP POP SWAP1 DUP5 ADD SWAP1 PUSH1 0x1 ADD PUSH2 0x2F82 JUMP JUMPDEST POP POP PUSH1 0x1 PUSH1 0x1 PUSH1 0x60 SHL SUB DUP10 AND PUSH1 0x80 DUP8 ADD MSTORE SWAP4 POP PUSH2 0x300F SWAP3 POP POP POP JUMP JUMPDEST PUSH1 0x1 PUSH1 0x1 PUSH1 0xA0 SHL SUB SWAP4 SWAP1 SWAP4 AND PUSH1 0xA0 DUP3 ADD MSTORE PUSH1 0xC0 ADD MSTORE SWAP8 SWAP7 POP POP POP POP POP POP POP JUMP JUMPDEST DUP9 DUP2 MSTORE PUSH1 0x1 PUSH1 0x1 PUSH1 0xA0 SHL SUB DUP9 DUP2 AND PUSH1 0x20 DUP4 ADD MSTORE DUP8 AND PUSH1 0x40 DUP3 ADD MSTORE PUSH1 0x60 DUP2 ADD DUP7 SWAP1 MSTORE PUSH1 0xE0 PUSH1 0x80 DUP3 ADD DUP2 SWAP1 MSTORE PUSH1 0x0 SWAP1 PUSH2 0x3069 SWAP1 DUP4 ADD DUP7 DUP9 PUSH2 0x2C67 JUMP JUMPDEST PUSH1 0xA0 DUP4 ADD SWAP5 SWAP1 SWAP5 MSTORE POP PUSH1 0xC0 ADD MSTORE SWAP7 SWAP6 POP POP POP POP POP POP JUMP JUMPDEST DUP10 DUP2 MSTORE PUSH1 0x1 PUSH1 0x1 PUSH1 0xA0 SHL SUB DUP10 DUP2 AND PUSH1 0x20 DUP4 ADD MSTORE DUP9 AND PUSH1 0x40 DUP3 ADD MSTORE PUSH1 0x60 DUP2 ADD DUP8 SWAP1 MSTORE PUSH1 0x1 PUSH1 0x1 PUSH1 0x60 SHL SUB DUP7 AND PUSH1 0x80 DUP3 ADD MSTORE PUSH2 0x100 PUSH1 0xA0 DUP3 ADD DUP2 SWAP1 MSTORE PUSH1 0x0 SWAP1 PUSH2 0x30CA DUP4 DUP3 ADD DUP8 DUP10 PUSH2 0x2C67 JUMP JUMPDEST PUSH1 0xC0 DUP5 ADD SWAP6 SWAP1 SWAP6 MSTORE POP POP PUSH1 0xE0 ADD MSTORE SWAP8 SWAP7 POP POP POP POP POP POP POP JUMP JUMPDEST PUSH1 0x0 JUMPDEST DUP4 DUP2 LT ISZERO PUSH2 0x30FE JUMPI DUP2 DUP2 ADD MLOAD DUP4 DUP3 ADD MSTORE PUSH1 0x20 ADD PUSH2 0x30E6 JUMP JUMPDEST POP POP PUSH1 0x0 SWAP2 ADD MSTORE JUMP JUMPDEST PUSH32 0x416363657373436F6E74726F6C3A206163636F756E7420000000000000000000 DUP2 MSTORE PUSH1 0x0 DUP4 MLOAD PUSH2 0x313F DUP2 PUSH1 0x17 DUP6 ADD PUSH1 0x20 DUP9 ADD PUSH2 0x30E3 JUMP JUMPDEST PUSH17 0x1034B99036B4B9B9B4B733903937B6329 PUSH1 0x7D SHL PUSH1 0x17 SWAP2 DUP5 ADD SWAP2 DUP3 ADD MSTORE DUP4 MLOAD PUSH2 0x3170 DUP2 PUSH1 0x28 DUP5 ADD PUSH1 0x20 DUP9 ADD PUSH2 0x30E3 JUMP JUMPDEST ADD PUSH1 0x28 ADD SWAP5 SWAP4 POP POP POP POP JUMP JUMPDEST PUSH1 0x20 DUP2 MSTORE PUSH1 0x0 DUP3 MLOAD DUP1 PUSH1 0x20 DUP5 ADD MSTORE PUSH2 0x319B DUP2 PUSH1 0x40 DUP6 ADD PUSH1 0x20 DUP8 ADD PUSH2 0x30E3 JUMP JUMPDEST PUSH1 0x1F ADD PUSH1 0x1F NOT AND SWAP2 SWAP1 SWAP2 ADD PUSH1 0x40 ADD SWAP3 SWAP2 POP POP JUMP JUMPDEST DUP1 DUP3 MUL DUP2 ISZERO DUP3 DUP3 DIV DUP5 EQ OR PUSH2 0x4EC JUMPI PUSH2 0x4EC PUSH2 0x2CFA JUMP JUMPDEST PUSH1 0x0 DUP2 PUSH2 0x31D5 JUMPI PUSH2 0x31D5 PUSH2 0x2CFA JUMP JUMPDEST POP PUSH1 0x0 NOT ADD SWAP1 JUMP JUMPDEST PUSH4 0x4E487B71 PUSH1 0xE0 SHL PUSH1 0x0 MSTORE PUSH1 0x21 PUSH1 0x4 MSTORE PUSH1 0x24 PUSH1 0x0 REVERT INVALID LOG2 PUSH5 0x6970667358 0x22 SLT KECCAK256 PUSH20 0x3E27F216BFA37D9CA4B435AFFDA14C6A7D3AD20C ORIGIN SWAP5 DUP5 0x5C 0x5E CHAINID 0xD7 LOG1 DUP13 0xD5 SUB PUSH5 0x736F6C6343 STOP ADDMOD GT STOP CALLER "},"methodIdentifiers":{"DEFAULT_ADMIN_ROLE()":"a217fddf","VERIFY_ROLE()":"d41d0e5c","addPrimaryMultipleItems(address,uint256[],uint96,string[],address)":"94ae3881","addSingleItem((address,address,uint256,uint96,string,uint256),bytes)":"b5bb4ec8","buyItem((address,address,address,uint256,uint256,uint256,address,uint96,uint256),bytes)":"8cac56d9","gbCollection(address)":"90bb447f","getRoleAdmin(bytes32)":"248a9ca3","grantRole(bytes32,address)":"2f2ff15d","hasRole(bytes32,address)":"91d14854","itemInfo(address,uint256)":"1cdaab67","nonces(address)":"7ecebe00","pause()":"8456cb59","paused()":"5c975abb","platformFee()":"26232a2e","renounceRole(bytes32,address)":"36568abe","revokeRole(bytes32,address)":"d547741f","setAdminWallet(address)":"35082933","setGBCollectionAddress(address,bool)":"e20c7153","setPlatformFee(uint96)":"f99e5dbb","setVerifyRole(address)":"c46f23f4","supportsInterface(bytes4)":"01ffc9a7","unpause()":"3f4ba83a","updateTokenURI((address,address,uint256,string,uint256),bytes)":"64ce6f79"}},"storageLayout":{"storage":[{"astId":24,"contract":"contracts/GBMarketplace.sol:GBMarketplace","label":"_roles","offset":0,"slot":"0","type":"t_mapping(t_bytes32,t_struct(RoleData)19_storage)"},{"astId":530,"contract":"contracts/GBMarketplace.sol:GBMarketplace","label":"_status","offset":0,"slot":"1","type":"t_uint256"},{"astId":429,"contract":"contracts/GBMarketplace.sol:GBMarketplace","label":"_paused","offset":0,"slot":"2","type":"t_bool"},{"astId":3301,"contract":"contracts/GBMarketplace.sol:GBMarketplace","label":"gbCollection","offset":0,"slot":"3","type":"t_mapping(t_address,t_bool)"},{"astId":3305,"contract":"contracts/GBMarketplace.sol:GBMarketplace","label":"nonces","offset":0,"slot":"4","type":"t_mapping(t_address,t_uint256)"},{"astId":3312,"contract":"contracts/GBMarketplace.sol:GBMarketplace","label":"itemInfo","offset":0,"slot":"5","type":"t_mapping(t_address,t_mapping(t_uint256,t_struct(ItemInfo)3297_storage))"},{"astId":3319,"contract":"contracts/GBMarketplace.sol:GBMarketplace","label":"adminWallet","offset":0,"slot":"6","type":"t_address"},{"astId":3322,"contract":"contracts/GBMarketplace.sol:GBMarketplace","label":"platformFee","offset":20,"slot":"6","type":"t_uint96"}],"types":{"t_address":{"encoding":"inplace","label":"address","numberOfBytes":"20"},"t_bool":{"encoding":"inplace","label":"bool","numberOfBytes":"1"},"t_bytes32":{"encoding":"inplace","label":"bytes32","numberOfBytes":"32"},"t_mapping(t_address,t_bool)":{"encoding":"mapping","key":"t_address","label":"mapping(address => bool)","numberOfBytes":"32","value":"t_bool"},"t_mapping(t_address,t_mapping(t_uint256,t_struct(ItemInfo)3297_storage))":{"encoding":"mapping","key":"t_address","label":"mapping(address => mapping(uint256 => struct GBMarketplace.ItemInfo))","numberOfBytes":"32","value":"t_mapping(t_uint256,t_struct(ItemInfo)3297_storage)"},"t_mapping(t_address,t_uint256)":{"encoding":"mapping","key":"t_address","label":"mapping(address => uint256)","numberOfBytes":"32","value":"t_uint256"},"t_mapping(t_bytes32,t_struct(RoleData)19_storage)":{"encoding":"mapping","key":"t_bytes32","label":"mapping(bytes32 => struct AccessControl.RoleData)","numberOfBytes":"32","value":"t_struct(RoleData)19_storage"},"t_mapping(t_uint256,t_struct(ItemInfo)3297_storage)":{"encoding":"mapping","key":"t_uint256","label":"mapping(uint256 => struct GBMarketplace.ItemInfo)","numberOfBytes":"32","value":"t_struct(ItemInfo)3297_storage"},"t_struct(ItemInfo)3297_storage":{"encoding":"inplace","label":"struct GBMarketplace.ItemInfo","members":[{"astId":3292,"contract":"contracts/GBMarketplace.sol:GBMarketplace","label":"royaltyAddress","offset":0,"slot":"0","type":"t_address"},{"astId":3294,"contract":"contracts/GBMarketplace.sol:GBMarketplace","label":"royaltyFee","offset":20,"slot":"0","type":"t_uint96"},{"astId":3296,"contract":"contracts/GBMarketplace.sol:GBMarketplace","label":"isPrimaryCollection","offset":0,"slot":"1","type":"t_bool"}],"numberOfBytes":"64"},"t_struct(RoleData)19_storage":{"encoding":"inplace","label":"struct AccessControl.RoleData","members":[{"astId":16,"contract":"contracts/GBMarketplace.sol:GBMarketplace","label":"members","offset":0,"slot":"0","type":"t_mapping(t_address,t_bool)"},{"astId":18,"contract":"contracts/GBMarketplace.sol:GBMarketplace","label":"adminRole","offset":0,"slot":"1","type":"t_bytes32"}],"numberOfBytes":"64"},"t_uint256":{"encoding":"inplace","label":"uint256","numberOfBytes":"32"},"t_uint96":{"encoding":"inplace","label":"uint96","numberOfBytes":"12"}}}}}}