{"contracts/library/Domain.sol":{"Domain":{"abi":[{"inputs":[],"name":"ORDER_ITEM_TYPEHASH","outputs":[{"internalType":"bytes32","name":"","type":"bytes32"}],"stateMutability":"view","type":"function"}],"evm":{"bytecode":{"linkReferences":{},"object":"60a6610038600b82828239805160001a607314602b57634e487b7160e01b600052600060045260246000fd5b30600052607381538281f3fe730000000000000000000000000000000000000000301460806040526004361060335760003560e01c8063b96aeab1146038575b600080fd5b605e7feff405bb0a78706e059b96d98cf8097c37ba430ba5998157d907b89c96b953eb81565b60405190815260200160405180910390f3fea2646970667358221220063fb336a0129c4a1ef7b9c2cd2a1321a24dcfcbf5a1ce2f351132029c1bf86064736f6c63430008110033","opcodes":"PUSH1 0xA6 PUSH2 0x38 PUSH1 0xB DUP3 DUP3 DUP3 CODECOPY DUP1 MLOAD PUSH1 0x0 BYTE PUSH1 0x73 EQ PUSH1 0x2B JUMPI PUSH4 0x4E487B71 PUSH1 0xE0 SHL PUSH1 0x0 MSTORE PUSH1 0x0 PUSH1 0x4 MSTORE PUSH1 0x24 PUSH1 0x0 REVERT JUMPDEST ADDRESS PUSH1 0x0 MSTORE PUSH1 0x73 DUP2 MSTORE8 DUP3 DUP2 RETURN INVALID PUSH20 0x0 ADDRESS EQ PUSH1 0x80 PUSH1 0x40 MSTORE PUSH1 0x4 CALLDATASIZE LT PUSH1 0x33 JUMPI PUSH1 0x0 CALLDATALOAD PUSH1 0xE0 SHR DUP1 PUSH4 0xB96AEAB1 EQ PUSH1 0x38 JUMPI JUMPDEST PUSH1 0x0 DUP1 REVERT JUMPDEST PUSH1 0x5E PUSH32 0xEFF405BB0A78706E059B96D98CF8097C37BA430BA5998157D907B89C96B953EB DUP2 JUMP JUMPDEST PUSH1 0x40 MLOAD SWAP1 DUP2 MSTORE PUSH1 0x20 ADD PUSH1 0x40 MLOAD DUP1 SWAP2 SUB SWAP1 RETURN INVALID LOG2 PUSH5 0x6970667358 0x22 SLT KECCAK256 MOD EXTCODEHASH 0xB3 CALLDATASIZE LOG0 SLT SWAP13 0x4A 0x1E 0xF7 0xB9 0xC2 0xCD 0x2A SGT 0x21 LOG2 0x4D 0xCF 0xCB CREATE2 LOG1 0xCE 0x2F CALLDATALOAD GT ORIGIN MUL SWAP13 SHL 0xF8 PUSH1 0x64 PUSH20 0x6F6C634300081100330000000000000000000000 "},"methodIdentifiers":{"ORDER_ITEM_TYPEHASH()":"b96aeab1"}},"storageLayout":{"storage":[],"types":null}}}}