{"contracts/GBMarketplace.sol":{"GBMarketplace":{"abi":[{"inputs":[{"internalType":"address","name":"owner","type":"address"},{"internalType":"address","name":"adminWallet_","type":"address"}],"stateMutability":"nonpayable","type":"constructor"},{"anonymous":false,"inputs":[{"components":[{"components":[{"internalType":"address","name":"nftContract","type":"address"},{"internalType":"uint256","name":"itemType","type":"uint256"},{"internalType":"address","name":"seller","type":"address"},{"internalType":"bool","name":"isMinted","type":"bool"},{"internalType":"uint256","name":"tokenId","type":"uint256"},{"internalType":"string","name":"tokenURI","type":"string"},{"internalType":"uint256","name":"quantity","type":"uint256"},{"internalType":"uint256","name":"itemPrice","type":"uint256"},{"internalType":"address","name":"charityAddress","type":"address"},{"internalType":"uint96","name":"charityShare","type":"uint96"},{"internalType":"uint96","name":"royaltyFee","type":"uint96"},{"internalType":"uint256","name":"deadline","type":"uint256"},{"internalType":"uint256","name":"salt","type":"uint256"}],"internalType":"struct OrderItem","name":"orderItem","type":"tuple"},{"internalType":"uint256","name":"additionalAmount","type":"uint256"},{"internalType":"bytes","name":"signature","type":"bytes"}],"indexed":false,"internalType":"struct Order[]","name":"orders","type":"tuple[]"},{"indexed":false,"internalType":"bool[]","name":"ordersResult","type":"bool[]"},{"indexed":false,"internalType":"string[]","name":"ordersStatus","type":"string[]"},{"indexed":false,"internalType":"bytes32[]","name":"ordersHash","type":"bytes32[]"}],"name":"BoughtItem","type":"event"},{"anonymous":false,"inputs":[{"indexed":false,"internalType":"bool[]","name":"cancelResults","type":"bool[]"},{"indexed":false,"internalType":"string[]","name":"cancelStatus","type":"string[]"},{"indexed":false,"internalType":"bytes32[]","name":"ordersHash","type":"bytes32[]"}],"name":"OrderCancelled","type":"event"},{"anonymous":false,"inputs":[{"indexed":false,"internalType":"address","name":"account","type":"address"}],"name":"Paused","type":"event"},{"anonymous":false,"inputs":[{"indexed":true,"internalType":"bytes32","name":"role","type":"bytes32"},{"indexed":true,"internalType":"bytes32","name":"previousAdminRole","type":"bytes32"},{"indexed":true,"internalType":"bytes32","name":"newAdminRole","type":"bytes32"}],"name":"RoleAdminChanged","type":"event"},{"anonymous":false,"inputs":[{"indexed":true,"internalType":"bytes32","name":"role","type":"bytes32"},{"indexed":true,"internalType":"address","name":"account","type":"address"},{"indexed":true,"internalType":"address","name":"sender","type":"address"}],"name":"RoleGranted","type":"event"},{"anonymous":false,"inputs":[{"indexed":true,"internalType":"bytes32","name":"role","type":"bytes32"},{"indexed":true,"internalType":"address","name":"account","type":"address"},{"indexed":true,"internalType":"address","name":"sender","type":"address"}],"name":"RoleRevoked","type":"event"},{"anonymous":false,"inputs":[{"indexed":false,"internalType":"address","name":"account","type":"address"}],"name":"SetAdminWallet","type":"event"},{"anonymous":false,"inputs":[{"indexed":false,"internalType":"address","name":"nftContract","type":"address"},{"indexed":false,"internalType":"bool","name":"status","type":"bool"}],"name":"SetNftContractAddress","type":"event"},{"anonymous":false,"inputs":[{"indexed":false,"internalType":"uint96","name":"platformFee","type":"uint96"}],"name":"SetPlatformFee","type":"event"},{"anonymous":false,"inputs":[{"indexed":false,"internalType":"address","name":"account","type":"address"}],"name":"Unpaused","type":"event"},{"anonymous":false,"inputs":[{"indexed":false,"internalType":"address","name":"nftContract","type":"address"},{"indexed":false,"internalType":"address","name":"owner","type":"address"},{"indexed":false,"internalType":"uint256","name":"tokenId","type":"uint256"},{"indexed":false,"internalType":"string","name":"tokenURI","type":"string"}],"name":"UpdatedTokenURI","type":"event"},{"inputs":[],"name":"DEFAULT_ADMIN_ROLE","outputs":[{"internalType":"bytes32","name":"","type":"bytes32"}],"stateMutability":"view","type":"function"},{"inputs":[{"components":[{"components":[{"internalType":"address","name":"nftContract","type":"address"},{"internalType":"uint256","name":"itemType","type":"uint256"},{"internalType":"address","name":"seller","type":"address"},{"internalType":"bool","name":"isMinted","type":"bool"},{"internalType":"uint256","name":"tokenId","type":"uint256"},{"internalType":"string","name":"tokenURI","type":"string"},{"internalType":"uint256","name":"quantity","type":"uint256"},{"internalType":"uint256","name":"itemPrice","type":"uint256"},{"internalType":"address","name":"charityAddress","type":"address"},{"internalType":"uint96","name":"charityShare","type":"uint96"},{"internalType":"uint96","name":"royaltyFee","type":"uint96"},{"internalType":"uint256","name":"deadline","type":"uint256"},{"internalType":"uint256","name":"salt","type":"uint256"}],"internalType":"struct OrderItem","name":"orderItem","type":"tuple"},{"internalType":"uint256","name":"additionalAmount","type":"uint256"},{"internalType":"bytes","name":"signature","type":"bytes"}],"internalType":"struct Order[]","name":"orders","type":"tuple[]"}],"name":"buyItems","outputs":[],"stateMutability":"payable","type":"function"},{"inputs":[{"components":[{"internalType":"address","name":"nftContract","type":"address"},{"internalType":"uint256","name":"itemType","type":"uint256"},{"internalType":"address","name":"seller","type":"address"},{"internalType":"bool","name":"isMinted","type":"bool"},{"internalType":"uint256","name":"tokenId","type":"uint256"},{"internalType":"string","name":"tokenURI","type":"string"},{"internalType":"uint256","name":"quantity","type":"uint256"},{"internalType":"uint256","name":"itemPrice","type":"uint256"},{"internalType":"address","name":"charityAddress","type":"address"},{"internalType":"uint96","name":"charityShare","type":"uint96"},{"internalType":"uint96","name":"royaltyFee","type":"uint96"},{"internalType":"uint256","name":"deadline","type":"uint256"},{"internalType":"uint256","name":"salt","type":"uint256"}],"internalType":"struct OrderItem[]","name":"orderItems","type":"tuple[]"}],"name":"cancelOrders","outputs":[],"stateMutability":"nonpayable","type":"function"},{"inputs":[{"internalType":"address","name":"","type":"address"}],"name":"gbNftContracts","outputs":[{"internalType":"bool","name":"","type":"bool"}],"stateMutability":"view","type":"function"},{"inputs":[{"internalType":"bytes32","name":"role","type":"bytes32"}],"name":"getRoleAdmin","outputs":[{"internalType":"bytes32","name":"","type":"bytes32"}],"stateMutability":"view","type":"function"},{"inputs":[{"internalType":"bytes32","name":"role","type":"bytes32"},{"internalType":"address","name":"account","type":"address"}],"name":"grantRole","outputs":[],"stateMutability":"nonpayable","type":"function"},{"inputs":[{"internalType":"bytes32","name":"role","type":"bytes32"},{"internalType":"address","name":"account","type":"address"}],"name":"hasRole","outputs":[{"internalType":"bool","name":"","type":"bool"}],"stateMutability":"view","type":"function"},{"inputs":[{"internalType":"bytes32","name":"","type":"bytes32"}],"name":"orderCancelled","outputs":[{"internalType":"bool","name":"","type":"bool"}],"stateMutability":"view","type":"function"},{"inputs":[{"internalType":"bytes32","name":"","type":"bytes32"}],"name":"orderProcessed","outputs":[{"internalType":"bool","name":"","type":"bool"}],"stateMutability":"view","type":"function"},{"inputs":[],"name":"pause","outputs":[],"stateMutability":"nonpayable","type":"function"},{"inputs":[],"name":"paused","outputs":[{"internalType":"bool","name":"","type":"bool"}],"stateMutability":"view","type":"function"},{"inputs":[],"name":"platformFee","outputs":[{"internalType":"uint96","name":"","type":"uint96"}],"stateMutability":"view","type":"function"},{"inputs":[{"internalType":"bytes32","name":"role","type":"bytes32"},{"internalType":"address","name":"account","type":"address"}],"name":"renounceRole","outputs":[],"stateMutability":"nonpayable","type":"function"},{"inputs":[{"internalType":"bytes32","name":"role","type":"bytes32"},{"internalType":"address","name":"account","type":"address"}],"name":"revokeRole","outputs":[],"stateMutability":"nonpayable","type":"function"},{"inputs":[{"internalType":"address","name":"adminWallet_","type":"address"}],"name":"setAdminWallet","outputs":[],"stateMutability":"nonpayable","type":"function"},{"inputs":[{"internalType":"address","name":"nftContractAddress","type":"address"},{"internalType":"bool","name":"isEnabled","type":"bool"}],"name":"setNftContractAddress","outputs":[],"stateMutability":"nonpayable","type":"function"},{"inputs":[{"internalType":"uint96","name":"platformFee_","type":"uint96"}],"name":"setPlatformFee","outputs":[],"stateMutability":"nonpayable","type":"function"},{"inputs":[{"internalType":"bytes4","name":"interfaceId","type":"bytes4"}],"name":"supportsInterface","outputs":[{"internalType":"bool","name":"","type":"bool"}],"stateMutability":"view","type":"function"},{"inputs":[],"name":"unpause","outputs":[],"stateMutability":"nonpayable","type":"function"},{"inputs":[{"internalType":"address","name":"nftContract","type":"address"},{"internalType":"uint256","name":"tokenId","type":"uint256"},{"internalType":"string","name":"tokenURI","type":"string"}],"name":"updateTokenURI","outputs":[],"stateMutability":"nonpayable","type":"function"}],"evm":{"bytecode":{"linkReferences":{},"object":"610140604052600680546001600160a01b0316607d60a11b1790553480156200002757600080fd5b5060405162003479380380620034798339810160408190526200004a916200024b565b604080518082018252600d81526c47424d61726b6574706c61636560981b6020808301918252835180850190945260058452640312e302e360dc1b908401528151902060e08190527f06c015bd22b4c69690933c1058878ebdfef31f9aaae40bbe86d8a09fe1b2972c6101008190524660a0529192917f8b73c3c69bb8fe3d512ecc4cf759cc79239f7b179b0ffacaa9a75d522b39400f620001318184846040805160208101859052908101839052606081018290524660808201523060a082015260009060c0016040516020818303038152906040528051906020012090509392505050565b6080523060c0526101205250506001805550506002805460ff19169055600680546001600160a01b0319166001600160a01b038316179055620001766000836200017e565b505062000283565b6200018a82826200018e565b5050565b6000828152602081815260408083206001600160a01b038516845290915290205460ff166200018a576000828152602081815260408083206001600160a01b03851684529091529020805460ff19166001179055620001ea3390565b6001600160a01b0316816001600160a01b0316837f2f8788117e7eff1d82e926ec794901d17c78024a50270940304540a733656f0d60405160405180910390a45050565b80516001600160a01b03811681146200024657600080fd5b919050565b600080604083850312156200025f57600080fd5b6200026a836200022e565b91506200027a602084016200022e565b90509250929050565b60805160a05160c05160e05161010051610120516131a6620002d3600039600061214d0152600061219c01526000612177015260006120d0015260006120fa0152600061212401526131a66000f3fe60806040526004361061011f5760003560e01c80635889bf5e116100a0578063a217fddf11610064578063a217fddf1461035d578063c0dd369514610372578063d547741f14610392578063dab93b0a146103b2578063f99e5dbb146103d257600080fd5b80635889bf5e146102b05780635c975abb146102e057806368b35a13146102f85780638456cb591461032857806391d148541461033d57600080fd5b80632f2ff15d116100e75780632f2ff15d1461022857806334e001d314610248578063350829331461025b57806336568abe1461027b5780633f4ba83a1461029b57600080fd5b806301ffc9a7146101245780630fcd7f8f14610159578063248a9ca31461017b57806326232a2e146101b957806327df5389146101f8575b600080fd5b34801561013057600080fd5b5061014461013f366004612461565b6103f2565b60405190151581526020015b60405180910390f35b34801561016557600080fd5b50610179610174366004612584565b610403565b005b34801561018757600080fd5b506101ab6101963660046125dc565b60009081526020819052604090206001015490565b604051908152602001610150565b3480156101c557600080fd5b506006546101e090600160a01b90046001600160601b031681565b6040516001600160601b039091168152602001610150565b34801561020457600080fd5b506101446102133660046125f5565b60036020526000908152604090205460ff1681565b34801561023457600080fd5b50610179610243366004612612565b61083c565b610179610256366004612686565b610861565b34801561026757600080fd5b506101796102763660046125f5565b610e34565b34801561028757600080fd5b50610179610296366004612612565b610f00565b3480156102a757600080fd5b50610179610f7a565b3480156102bc57600080fd5b506101446102cb3660046125dc565b60046020526000908152604090205460ff1681565b3480156102ec57600080fd5b5060025460ff16610144565b34801561030457600080fd5b506101446103133660046125dc565b60056020526000908152604090205460ff1681565b34801561033457600080fd5b50610179610f90565b34801561034957600080fd5b50610144610358366004612612565b610fa3565b34801561036957600080fd5b506101ab600081565b34801561037e57600080fd5b5061017961038d3660046126e0565b610fcc565b34801561039e57600080fd5b506101796103ad366004612612565b6110a6565b3480156103be57600080fd5b506101796103cd366004612686565b6110cb565b3480156103de57600080fd5b506101796103ed366004612725565b611381565b60006103fd82611449565b92915050565b61040b61147e565b6104136114d7565b6040516301ffc9a760e01b815283906001600160a01b038216906301ffc9a790610448906380ac58cd60e01b90600401612740565b602060405180830381865afa158015610465573d6000803e3d6000fd5b505050506040513d601f19601f820116820180604052508101906104899190612755565b8061050357506040516301ffc9a760e01b81526001600160a01b038216906301ffc9a7906104c290636cdb3d1360e11b90600401612740565b602060405180830381865afa1580156104df573d6000803e3d6000fd5b505050506040513d601f19601f820116820180604052508101906105039190612755565b61056f5760405162461bcd60e51b815260206004820152603260248201527f47424d61726b6574706c6163653a2054686973206973206e6f742045524337326044820152710c4bd15490cc4c4d4d4818dbdb9d1c9858dd60721b60648201526084015b60405180910390fd5b6001600160a01b0384166105eb5760405162461bcd60e51b815260206004820152603b60248201527f47424d61726b6574706c6163653a206e6674436f6e747261637420616464726560448201527f7373206d757374206e6f74206265207a65726f206164647265737300000000006064820152608401610566565b600083116106545760405162461bcd60e51b815260206004820152603060248201527f47424d61726b6574706c6163653a20746f6b656e4964206d757374206265206760448201526f726561746572207468616e207a65726f60801b6064820152608401610566565b6001600160a01b03841660009081526003602052604090205460ff166106cf5760405162461bcd60e51b815260206004820152602a60248201527f47424d61726b6574706c6163653a20496e76616c6964206e6674436f6e7472616044820152696374206164647265737360b01b6064820152608401610566565b6040516331a9108f60e11b81526004810184905233906001600160a01b03861690636352211e90602401602060405180830381865afa158015610716573d6000803e3d6000fd5b505050506040513d601f19601f8201168201806040525081019061073a9190612772565b6001600160a01b0316146107905760405162461bcd60e51b815260206004820152601f60248201527f47424d61726b6574706c6163653a206973206e6f74206e6674206f776e6572006044820152606401610566565b604051630588253160e21b81526001600160a01b0385169063162094c4906107be90869086906004016127df565b600060405180830381600087803b1580156107d857600080fd5b505af11580156107ec573d6000803e3d6000fd5b505050507f2a594f4fdcfb43b211e3fe501443da843ed0daa6e9cc58965e68afb67938f5f2843385856040516108259493929190612800565b60405180910390a15061083760018055565b505050565b6000828152602081905260409020600101546108578161151f565b6108378383611529565b61086961147e565b6108716114d7565b34816000816001600160401b0381111561088d5761088d6124b0565b6040519080825280602002602001820160405280156108b6578160200160208202803683370190505b5090506000826001600160401b038111156108d3576108d36124b0565b60405190808252806020026020018201604052801561090657816020015b60608152602001906001900390816108f15790505b5090506000836001600160401b03811115610923576109236124b0565b60405190808252806020026020018201604052801561094c578160200160208202803683370190505b50905060005b84811015610dd257600088888381811061096e5761096e61283d565b90506020028101906109809190612853565b61098990612964565b80516040820151602083015192935090916109a68383838d6115ad565b8a88815181106109b8576109b861283d565b602002602001018a89815181106109d1576109d161283d565b602002602001018a8a815181106109ea576109ea61283d565b60200260200101838152508390528315151515815250505050878581518110610a1557610a1561283d565b6020026020010151610a2a5750505050610dca565b60e08301516101208401516101008501516127106001600160601b039092169092020490610a6190610a5c8484612a1d565b611ac2565b60e08401516006546127106001600160601b03600160a01b8304169092029190910490610a97906001600160a01b031682611ac2565b84516001600160a01b0316600090815260036020526040812054819060ff1615610c42578660600151610bb85786516040516301ffc9a760e01b81526001600160a01b03909116906301ffc9a790610afa906380ac58cd60e01b90600401612740565b602060405180830381865afa158015610b17573d6000803e3d6000fd5b505050506040513d601f19601f82011682018060405250810190610b3b9190612755565b15610bb857865160408089015160808a01516101408b015160a08c0151935163396ffcb960e21b81526001600160a01b039095169463e5bff2e494610b8594939291600401612a30565b600060405180830381600087803b158015610b9f57600080fd5b505af1158015610bb3573d6000803e3d6000fd5b505050505b8651608088015160e089015160405163152a902d60e11b8152600481019290925260248201526001600160a01b0390911690632a55205a906044016040805180830381865afa158015610c0f573d6000803e3d6000fd5b505050506040513d601f19601f82011682018060405250810190610c339190612a66565b9092509050610c428282611ac2565b60e0870151848201840190811015610c6857610c688860400151828a60e0015103611ac2565b5086516040516301ffc9a760e01b81526001600160a01b03909116906301ffc9a790610c9f906380ac58cd60e01b90600401612740565b602060405180830381865afa158015610cbc573d6000803e3d6000fd5b505050506040513d601f19601f82011682018060405250810190610ce09190612755565b15610d715786600001516001600160a01b03166342842e0e8860400151610d043390565b60808b01516040516001600160e01b031960e086901b1681526001600160a01b0393841660048201529290911660248301526044820152606401600060405180830381600087803b158015610d5857600080fd5b505af1158015610d6c573d6000803e3d6000fd5b505050505b848760e001518f03039d506001600560008c8c81518110610d9457610d9461283d565b6020026020010151815260200190815260200160002060006101000a81548160ff02191690831515021790555050505050505050505b600101610952565b508415610de357610de33386611ac2565b7f7fc4538ec4e24165838a31cf55558696a0936db77a700812580300c7ebc3b9cf8787858585604051610e1a959493929190612bc1565b60405180910390a15050505050610e3060018055565b5050565b6000610e3f8161151f565b6001600160a01b038216610eaa5760405162461bcd60e51b815260206004820152602c60248201527f61646d696e57616c6c65742061646472657373206d757374206e6f742062652060448201526b7a65726f206164647265737360a01b6064820152608401610566565b600680546001600160a01b0319166001600160a01b0384169081179091556040519081527f1b651cfd0a3f185590087e7e632381434dfada46f037b9081264f9f5bdbfcd9b906020015b60405180910390a15050565b6001600160a01b0381163314610f705760405162461bcd60e51b815260206004820152602f60248201527f416363657373436f6e74726f6c3a2063616e206f6e6c792072656e6f756e636560448201526e103937b632b9903337b91039b2b63360891b6064820152608401610566565b610e308282611bdb565b6000610f858161151f565b610f8d611c40565b50565b6000610f9b8161151f565b610f8d611c92565b6000918252602082815260408084206001600160a01b0393909316845291905290205460ff1690565b6000610fd78161151f565b6001600160a01b0383166110425760405162461bcd60e51b815260206004820152602c60248201527f4e6674436f6e74726163742061646472657373206d757374206e6f742062652060448201526b7a65726f206164647265737360a01b6064820152608401610566565b6001600160a01b038316600081815260036020908152604091829020805460ff19168615159081179091558251938452908301527f37940b2348bce0015e28074f3a1d2ddc211ad7dfa13f0aef19072b22034ebc97910160405180910390a1505050565b6000828152602081905260409020600101546110c18161151f565b6108378383611bdb565b6110d36114d7565b806000816001600160401b038111156110ee576110ee6124b0565b604051908082528060200260200182016040528015611117578160200160208202803683370190505b5090506000826001600160401b03811115611134576111346124b0565b60405190808252806020026020018201604052801561116757816020015b60608152602001906001900390816111525790505b5090506000836001600160401b03811115611184576111846124b0565b6040519080825280602002602001820160405280156111ad578160200160208202803683370190505b50905060005b8581101561133d57368787838181106111ce576111ce61283d565b90506020028101906111e09190612dd8565b90506111f260608201604083016125f5565b6001600160a01b0316336001600160a01b03161461124557604051806060016040528060278152602001612f72602791398483815181106112355761123561283d565b6020026020010181905250611334565b60018583815181106112595761125961283d565b6020026020010190151590811515815250506040518060400160405280601f81526020017f47424d61726b6574706c6163653a2043616e63656c6c6564206f726465722e008152508483815181106112b3576112b361283d565b60200260200101819052506112d0816112cb90612def565b611ccf565b8383815181106112e2576112e261283d565b6020026020010181815250506001600460008585815181106113065761130661283d565b6020026020010151815260200190815260200160002060006101000a81548160ff0219169083151502179055505b506001016111b3565b507f15f99f1cf783ec6699f2ff7916a0502d78d1cf20b8c9422ae62c33c66dce90d183838360405161137193929190612dfb565b60405180910390a1505050505050565b600061138c8161151f565b6000826001600160601b0316116113f35760405162461bcd60e51b815260206004820152602560248201527f706c6174666f726d466565206d7573742062652067726561746572207468616e604482015264207a65726f60d81b6064820152608401610566565b600680546001600160a01b0316600160a01b6001600160601b038516908102919091179091556040519081527fbe3599c33046219ddc3706f4b99caca706dc0f53775580d18a367dc2188c96e590602001610ef4565b60006001600160e01b03198216637965db0b60e01b14806103fd57506301ffc9a760e01b6001600160e01b03198316146103fd565b6002600154036114d05760405162461bcd60e51b815260206004820152601f60248201527f5265656e7472616e637947756172643a207265656e7472616e742063616c6c006044820152606401610566565b6002600155565b60025460ff161561151d5760405162461bcd60e51b815260206004820152601060248201526f14185d5cd8589b194e881c185d5cd95960821b6044820152606401610566565b565b610f8d8133611df6565b6115338282610fa3565b610e30576000828152602081815260408083206001600160a01b03851684529091529020805460ff191660011790556115693390565b6001600160a01b0316816001600160a01b0316837f2f8788117e7eff1d82e926ec794901d17c78024a50270940304540a733656f0d60405160405180910390a45050565b835160009060609082906001600160a01b03166115e4576040518060600160405280603b8152602001612f99603b91399150611ab8565b86516040516301ffc9a760e01b81526001600160a01b03909116906301ffc9a79061161a906380ac58cd60e01b90600401612740565b602060405180830381865afa158015611637573d6000803e3d6000fd5b505050506040513d601f19601f8201168201806040525081019061165b9190612755565b1580156116dc575086516040516301ffc9a760e01b81526001600160a01b03909116906301ffc9a79061169990636cdb3d1360e11b90600401612740565b602060405180830381865afa1580156116b6573d6000803e3d6000fd5b505050506040513d601f19601f820116820180604052508101906116da9190612755565b155b15611701576040518060600160405280603b8152602001612f99603b91399150611ab8565b8660600151801561178657508651604080890151905163e985e9c560e01b81526001600160a01b03918216600482015230602482015291169063e985e9c590604401602060405180830381865afa158015611760573d6000803e3d6000fd5b505050506040513d601f19601f820116820180604052508101906117849190612755565b155b156117ab576040518060600160405280602f81526020016130ac602f91399150611ab8565b60408701516001600160a01b03163b156117df576040518060600160405280603a815260200161300c603a91399150611ab8565b6101008701516001600160a01b031661181257604051806060016040528060378152602001613046603791399150611ab8565b6103e88761012001516001600160601b0316108061183f57506127108761012001516001600160601b0316115b15611864576040518060600160405280603e815260200161310a603e91399150611ab8565b6127108761014001516001600160601b0316111561189c57604051806060016040528060388152602001612fd4603891399150611ab8565b612710876101400151600660149054906101000a90046001600160601b03168961012001516118cb9190612e34565b6118d59190612e34565b6001600160601b03161115611904576040518060600160405280602f815260200161307d602f91399150611ab8565b8660e00151600003611930576040518060600160405280602f81526020016130db602f91399150611ab8565b848760e001516119409190612a1d565b84101561196757604051806060016040528060218152602001612f28602191399150611ab8565b4287610160015110156119b1576040518060400160405280602081526020017f47424d61726b6574706c6163653a205369676e617475726520657870697265648152509150611ab8565b6119ba87611ccf565b60008181526004602052604090205490915060ff16156119f457604051806060016040528060298152602001613148602991399150611ab8565b60008181526005602052604090205460ff1615611a2b57604051806060016040528060298152602001612f49602991399150611ab8565b611a428760400151611a3c83611e4f565b88611e9d565b611a83576040518060400160405280602081526020017f47424d61726b6574706c6163653a20496e76616c6964207369676e61747572658152509150611ab8565b600192506040518060400160405280601581526020017411d093585c9ad95d1c1b1858d94e8814185cdcd959605a1b81525091505b9450945094915050565b80471015611b125760405162461bcd60e51b815260206004820152601d60248201527f416464726573733a20696e73756666696369656e742062616c616e63650000006044820152606401610566565b6000826001600160a01b03168260405160006040518083038185875af1925050503d8060008114611b5f576040519150601f19603f3d011682016040523d82523d6000602084013e611b64565b606091505b50509050806108375760405162461bcd60e51b815260206004820152603a60248201527f416464726573733a20756e61626c6520746f2073656e642076616c75652c207260448201527f6563697069656e74206d617920686176652072657665727465640000000000006064820152608401610566565b611be58282610fa3565b15610e30576000828152602081815260408083206001600160a01b0385168085529252808320805460ff1916905551339285917ff6391f5c32d9c69d2a47ea670b442974b53935d1edc7fd64eb21e047a839171b9190a45050565b611c48611ec6565b6002805460ff191690557f5db9ee0a495bf2e6ff9c91a7834c1ba4fdd244a5e8aa4e537bd38aeae4b073aa335b6040516001600160a01b03909116815260200160405180910390a1565b611c9a6114d7565b6002805460ff191660011790557f62e78cea01bee320cd4e420270b5ea74000d11b0c9f74754ebdbfc544b05a258611c753390565b60007feff405bb0a78706e059b96d98cf8097c37ba430ba5998157d907b89c96b953eb826000015183602001518460400151856060015186608001518760a00151805190602001208860c001518960e001518a61010001518b61012001518c61014001518d61016001518e6101800151604051602001611dd99e9d9c9b9a999897969594939291909d8e526001600160a01b039c8d1660208f015260408e019b909b52988b1660608d015296151560808c015260a08b019590955260c08a019390935260e08901919091526101008801529094166101208601526001600160601b039384166101408601529092166101608401526101808301919091526101a08201526101c00190565b604051602081830303815290604052805190602001209050919050565b611e008282610fa3565b610e3057611e0d81611f0f565b611e18836020611f21565b604051602001611e29929190612e5b565b60408051601f198184030181529082905262461bcd60e51b825261056691600401612ed0565b60006103fd611e5c6120c3565b8360405161190160f01b6020820152602281018390526042810182905260009060620160405160208183030381529060405280519060200120905092915050565b6000611ea983836121ea565b6001600160a01b0316846001600160a01b03161490509392505050565b60025460ff1661151d5760405162461bcd60e51b815260206004820152601460248201527314185d5cd8589b194e881b9bdd081c185d5cd95960621b6044820152606401610566565b60606103fd6001600160a01b03831660145b60606000611f30836002612ee3565b611f3b906002612a1d565b6001600160401b03811115611f5257611f526124b0565b6040519080825280601f01601f191660200182016040528015611f7c576020820181803683370190505b509050600360fc1b81600081518110611f9757611f9761283d565b60200101906001600160f81b031916908160001a905350600f60fb1b81600181518110611fc657611fc661283d565b60200101906001600160f81b031916908160001a9053506000611fea846002612ee3565b611ff5906001612a1d565b90505b600181111561206d576f181899199a1a9b1b9c1cb0b131b232b360811b85600f16601081106120295761202961283d565b1a60f81b82828151811061203f5761203f61283d565b60200101906001600160f81b031916908160001a90535060049490941c9361206681612efa565b9050611ff8565b5083156120bc5760405162461bcd60e51b815260206004820181905260248201527f537472696e67733a20686578206c656e67746820696e73756666696369656e746044820152606401610566565b9392505050565b6000306001600160a01b037f00000000000000000000000000000000000000000000000000000000000000001614801561211c57507f000000000000000000000000000000000000000000000000000000000000000046145b1561214657507f000000000000000000000000000000000000000000000000000000000000000090565b50604080517f00000000000000000000000000000000000000000000000000000000000000006020808301919091527f0000000000000000000000000000000000000000000000000000000000000000828401527f000000000000000000000000000000000000000000000000000000000000000060608301524660808301523060a0808401919091528351808403909101815260c0909201909252805191012090565b60008060006121f9858561220e565b9150915061220681612253565b509392505050565b60008082516041036122445760208301516040840151606085015160001a6122388782858561239d565b9450945050505061224c565b506000905060025b9250929050565b600081600481111561226757612267612f11565b0361226f5750565b600181600481111561228357612283612f11565b036122d05760405162461bcd60e51b815260206004820152601860248201527f45434453413a20696e76616c6964207369676e617475726500000000000000006044820152606401610566565b60028160048111156122e4576122e4612f11565b036123315760405162461bcd60e51b815260206004820152601f60248201527f45434453413a20696e76616c6964207369676e6174757265206c656e677468006044820152606401610566565b600381600481111561234557612345612f11565b03610f8d5760405162461bcd60e51b815260206004820152602260248201527f45434453413a20696e76616c6964207369676e6174757265202773272076616c604482015261756560f01b6064820152608401610566565b6000807f7fffffffffffffffffffffffffffffff5d576e7357a4501ddfe92f46681b20a08311156123d45750600090506003612458565b6040805160008082526020820180845289905260ff881692820192909252606081018690526080810185905260019060a0016020604051602081039080840390855afa158015612428573d6000803e3d6000fd5b5050604051601f1901519150506001600160a01b03811661245157600060019250925050612458565b9150600090505b94509492505050565b60006020828403121561247357600080fd5b81356001600160e01b0319811681146120bc57600080fd5b6001600160a01b0381168114610f8d57600080fd5b80356124ab8161248b565b919050565b634e487b7160e01b600052604160045260246000fd5b6040516101a081016001600160401b03811182821017156124e9576124e96124b0565b60405290565b60006001600160401b0380841115612509576125096124b0565b604051601f8501601f19908116603f01168101908282118183101715612531576125316124b0565b8160405280935085815286868601111561254a57600080fd5b858560208301376000602087830101525050509392505050565b600082601f83011261257557600080fd5b6120bc838335602085016124ef565b60008060006060848603121561259957600080fd5b83356125a48161248b565b92506020840135915060408401356001600160401b038111156125c657600080fd5b6125d286828701612564565b9150509250925092565b6000602082840312156125ee57600080fd5b5035919050565b60006020828403121561260757600080fd5b81356120bc8161248b565b6000806040838503121561262557600080fd5b8235915060208301356126378161248b565b809150509250929050565b60008083601f84011261265457600080fd5b5081356001600160401b0381111561266b57600080fd5b6020830191508360208260051b850101111561224c57600080fd5b6000806020838503121561269957600080fd5b82356001600160401b038111156126af57600080fd5b6126bb85828601612642565b90969095509350505050565b8015158114610f8d57600080fd5b80356124ab816126c7565b600080604083850312156126f357600080fd5b82356126fe8161248b565b91506020830135612637816126c7565b80356001600160601b03811681146124ab57600080fd5b60006020828403121561273757600080fd5b6120bc8261270e565b6001600160e01b031991909116815260200190565b60006020828403121561276757600080fd5b81516120bc816126c7565b60006020828403121561278457600080fd5b81516120bc8161248b565b60005b838110156127aa578181015183820152602001612792565b50506000910152565b600081518084526127cb81602086016020860161278f565b601f01601f19169290920160200192915050565b8281526040602082015260006127f860408301846127b3565b949350505050565b6001600160a01b0385811682528416602082015260408101839052608060608201819052600090612833908301846127b3565b9695505050505050565b634e487b7160e01b600052603260045260246000fd5b60008235605e1983360301811261286957600080fd5b9190910192915050565b60006101a0828403121561288657600080fd5b61288e6124c6565b9050612899826124a0565b8152602082013560208201526128b1604083016124a0565b60408201526128c2606083016126d5565b60608201526080820135608082015260a08201356001600160401b038111156128ea57600080fd5b6128f684828501612564565b60a08301525060c082013560c082015260e082013560e082015261010061291e8184016124a0565b9082015261012061293083820161270e565b9082015261014061294283820161270e565b9082015261016082810135908201526101809182013591810191909152919050565b60006060823603121561297657600080fd5b604051606081016001600160401b038282108183111715612999576129996124b0565b8160405284359150808211156129ae57600080fd5b6129ba36838701612873565b83526020850135602084015260408501359150808211156129da57600080fd5b50830136601f8201126129ec57600080fd5b6129fb368235602084016124ef565b60408301525092915050565b634e487b7160e01b600052601160045260246000fd5b808201808211156103fd576103fd612a07565b60018060a01b03851681528360208201526001600160601b038316604082015260806060820152600061283360808301846127b3565b60008060408385031215612a7957600080fd5b8251612a848161248b565b6020939093015192949293505050565b6000808335601e19843603018112612aab57600080fd5b83016020810192503590506001600160401b03811115612aca57600080fd5b80360382131561224c57600080fd5b81835281816020850137506000828201602090810191909152601f909101601f19169091010190565b600081518084526020808501945080840160005b83811015612b34578151151587529582019590820190600101612b16565b509495945050505050565b6000815180845260208085019450848260051b860182860160005b85811015612b84578383038952612b728383516127b3565b98850198925090840190600101612b5a565b5090979650505050505050565b600081518084526020808501945080840160005b83811015612b3457815187529582019590820190600101612ba5565b608080825281810186905260009060a0808401600589901b850182018a855b8b811015612d8d57878303609f190184528135368e9003605e19018112612c0657600080fd5b8d01606081353683900361019e19018112612c2057600080fd5b8186528201612c41868301612c34836124a0565b6001600160a01b03169052565b6020808201358a8801526040612c588184016124a0565b6001600160a01b03168a890152612c708385016126d5565b935060c0612c81818a018615159052565b60e094508b840135858a0152612c998b850185612a94565b6101a061010081818e0152612cb36102008e018486612ad9565b9350610120925084880135838e0152610140945088880135858e0152612cda8189016124a0565b985050610160612cf4818e018a6001600160a01b03169052565b612cff83890161270e565b98506101809250612d1a838e018a6001600160601b03169052565b612d2585890161270e565b6001600160601b0381168e84015298508701356101c08d0152508501356101e08b015286840135848b0152612d5c83880188612a94565b97509550898103838b0152612d72818888612ad9565b9a84019a995050509501945050506001919091019050612be0565b50508581036020870152612da1818a612b02565b93505050508281036040840152612db88186612b3f565b90508281036060840152612dcc8185612b91565b98975050505050505050565b6000823561019e1983360301811261286957600080fd5b60006103fd3683612873565b606081526000612e0e6060830186612b02565b8281036020840152612e208186612b3f565b905082810360408401526128338185612b91565b6001600160601b03818116838216019080821115612e5457612e54612a07565b5092915050565b7f416363657373436f6e74726f6c3a206163636f756e7420000000000000000000815260008351612e9381601785016020880161278f565b7001034b99036b4b9b9b4b733903937b6329607d1b6017918401918201528351612ec481602884016020880161278f565b01602801949350505050565b6020815260006120bc60208301846127b3565b80820281158282048414176103fd576103fd612a07565b600081612f0957612f09612a07565b506000190190565b634e487b7160e01b600052602160045260246000fdfe47424d61726b6574706c6163653a20496e73756666696369656e742066756e647347424d61726b6574706c6163653a204f7264657220697320616c72656164792070726f63657373656447424d61726b6574706c6163653a20496e76616c6964206f726465722063616e63656c6c65722e47424d61726b6574706c6163653a206e6674436f6e74726163742061646472657373206d757374206e6f74206265207a65726f206164647265737347424d61726b6574706c6163653a20726f79616c747920666565206d757374206e6f742062652067726561746572207468616e203130302547424d61726b6574706c6163653a2073656c6c65722061646472657373206d757374206e6f7420626520636f6e7472616374206164647265737347424d61726b6574706c6163653a20636861726974792061646472657373206d757374206e6f74206265207a65726f206164647265737347424d61726b6574706c6163653a20746f74616c20666565206d757374206265206c657373207468616e203130302547424d61726b6574706c6163653a204e465420776173206e6f7420617070726f7665642066726f6d2073656c6c657247424d61726b6574706c6163653a204e4654205072696365206d7573742062652067726561746572207468616e203047424d61726b6574706c6163653a20636861726974792070657263656e74616765206d757374206265206265747765656e2031302520616e64203130302547424d61726b6574706c6163653a204f7264657220697320616c72656164792063616e63656c6c6564a2646970667358221220340ab2e3be253aa688b2f30a229373e616188c2d611259ee47c268a086892b6064736f6c63430008110033","opcodes":"PUSH2 0x140 PUSH1 0x40 MSTORE PUSH1 0x6 DUP1 SLOAD PUSH1 0x1 PUSH1 0x1 PUSH1 0xA0 SHL SUB AND PUSH1 0x7D PUSH1 0xA1 SHL OR SWAP1 SSTORE CALLVALUE DUP1 ISZERO PUSH3 0x27 JUMPI PUSH1 0x0 DUP1 REVERT JUMPDEST POP PUSH1 0x40 MLOAD PUSH3 0x3479 CODESIZE SUB DUP1 PUSH3 0x3479 DUP4 CODECOPY DUP2 ADD PUSH1 0x40 DUP2 SWAP1 MSTORE PUSH3 0x4A SWAP2 PUSH3 0x24B JUMP JUMPDEST PUSH1 0x40 DUP1 MLOAD DUP1 DUP3 ADD DUP3 MSTORE PUSH1 0xD DUP2 MSTORE PUSH13 0x47424D61726B6574706C616365 PUSH1 0x98 SHL PUSH1 0x20 DUP1 DUP4 ADD SWAP2 DUP3 MSTORE DUP4 MLOAD DUP1 DUP6 ADD SWAP1 SWAP5 MSTORE PUSH1 0x5 DUP5 MSTORE PUSH5 0x312E302E3 PUSH1 0xDC SHL SWAP1 DUP5 ADD MSTORE DUP2 MLOAD SWAP1 KECCAK256 PUSH1 0xE0 DUP2 SWAP1 MSTORE PUSH32 0x6C015BD22B4C69690933C1058878EBDFEF31F9AAAE40BBE86D8A09FE1B2972C PUSH2 0x100 DUP2 SWAP1 MSTORE CHAINID PUSH1 0xA0 MSTORE SWAP2 SWAP3 SWAP2 PUSH32 0x8B73C3C69BB8FE3D512ECC4CF759CC79239F7B179B0FFACAA9A75D522B39400F PUSH3 0x131 DUP2 DUP5 DUP5 PUSH1 0x40 DUP1 MLOAD PUSH1 0x20 DUP2 ADD DUP6 SWAP1 MSTORE SWAP1 DUP2 ADD DUP4 SWAP1 MSTORE PUSH1 0x60 DUP2 ADD DUP3 SWAP1 MSTORE CHAINID PUSH1 0x80 DUP3 ADD MSTORE ADDRESS PUSH1 0xA0 DUP3 ADD MSTORE PUSH1 0x0 SWAP1 PUSH1 0xC0 ADD PUSH1 0x40 MLOAD PUSH1 0x20 DUP2 DUP4 SUB SUB DUP2 MSTORE SWAP1 PUSH1 0x40 MSTORE DUP1 MLOAD SWAP1 PUSH1 0x20 ADD KECCAK256 SWAP1 POP SWAP4 SWAP3 POP POP POP JUMP JUMPDEST PUSH1 0x80 MSTORE ADDRESS PUSH1 0xC0 MSTORE PUSH2 0x120 MSTORE POP POP PUSH1 0x1 DUP1 SSTORE POP POP PUSH1 0x2 DUP1 SLOAD PUSH1 0xFF NOT AND SWAP1 SSTORE PUSH1 0x6 DUP1 SLOAD PUSH1 0x1 PUSH1 0x1 PUSH1 0xA0 SHL SUB NOT AND PUSH1 0x1 PUSH1 0x1 PUSH1 0xA0 SHL SUB DUP4 AND OR SWAP1 SSTORE PUSH3 0x176 PUSH1 0x0 DUP4 PUSH3 0x17E JUMP JUMPDEST POP POP PUSH3 0x283 JUMP JUMPDEST PUSH3 0x18A DUP3 DUP3 PUSH3 0x18E JUMP JUMPDEST POP POP JUMP JUMPDEST PUSH1 0x0 DUP3 DUP2 MSTORE PUSH1 0x20 DUP2 DUP2 MSTORE PUSH1 0x40 DUP1 DUP4 KECCAK256 PUSH1 0x1 PUSH1 0x1 PUSH1 0xA0 SHL SUB DUP6 AND DUP5 MSTORE SWAP1 SWAP2 MSTORE SWAP1 KECCAK256 SLOAD PUSH1 0xFF AND PUSH3 0x18A JUMPI PUSH1 0x0 DUP3 DUP2 MSTORE PUSH1 0x20 DUP2 DUP2 MSTORE PUSH1 0x40 DUP1 DUP4 KECCAK256 PUSH1 0x1 PUSH1 0x1 PUSH1 0xA0 SHL SUB DUP6 AND DUP5 MSTORE SWAP1 SWAP2 MSTORE SWAP1 KECCAK256 DUP1 SLOAD PUSH1 0xFF NOT AND PUSH1 0x1 OR SWAP1 SSTORE PUSH3 0x1EA CALLER SWAP1 JUMP JUMPDEST PUSH1 0x1 PUSH1 0x1 PUSH1 0xA0 SHL SUB AND DUP2 PUSH1 0x1 PUSH1 0x1 PUSH1 0xA0 SHL SUB AND DUP4 PUSH32 0x2F8788117E7EFF1D82E926EC794901D17C78024A50270940304540A733656F0D PUSH1 0x40 MLOAD PUSH1 0x40 MLOAD DUP1 SWAP2 SUB SWAP1 LOG4 POP POP JUMP JUMPDEST DUP1 MLOAD PUSH1 0x1 PUSH1 0x1 PUSH1 0xA0 SHL SUB DUP2 AND DUP2 EQ PUSH3 0x246 JUMPI PUSH1 0x0 DUP1 REVERT JUMPDEST SWAP2 SWAP1 POP JUMP JUMPDEST PUSH1 0x0 DUP1 PUSH1 0x40 DUP4 DUP6 SUB SLT ISZERO PUSH3 0x25F JUMPI PUSH1 0x0 DUP1 REVERT JUMPDEST PUSH3 0x26A DUP4 PUSH3 0x22E JUMP JUMPDEST SWAP2 POP PUSH3 0x27A PUSH1 0x20 DUP5 ADD PUSH3 0x22E JUMP JUMPDEST SWAP1 POP SWAP3 POP SWAP3 SWAP1 POP JUMP JUMPDEST PUSH1 0x80 MLOAD PUSH1 0xA0 MLOAD PUSH1 0xC0 MLOAD PUSH1 0xE0 MLOAD PUSH2 0x100 MLOAD PUSH2 0x120 MLOAD PUSH2 0x31A6 PUSH3 0x2D3 PUSH1 0x0 CODECOPY PUSH1 0x0 PUSH2 0x214D ADD MSTORE PUSH1 0x0 PUSH2 0x219C ADD MSTORE PUSH1 0x0 PUSH2 0x2177 ADD MSTORE PUSH1 0x0 PUSH2 0x20D0 ADD MSTORE PUSH1 0x0 PUSH2 0x20FA ADD MSTORE PUSH1 0x0 PUSH2 0x2124 ADD MSTORE PUSH2 0x31A6 PUSH1 0x0 RETURN INVALID PUSH1 0x80 PUSH1 0x40 MSTORE PUSH1 0x4 CALLDATASIZE LT PUSH2 0x11F JUMPI PUSH1 0x0 CALLDATALOAD PUSH1 0xE0 SHR DUP1 PUSH4 0x5889BF5E GT PUSH2 0xA0 JUMPI DUP1 PUSH4 0xA217FDDF GT PUSH2 0x64 JUMPI DUP1 PUSH4 0xA217FDDF EQ PUSH2 0x35D JUMPI DUP1 PUSH4 0xC0DD3695 EQ PUSH2 0x372 JUMPI DUP1 PUSH4 0xD547741F EQ PUSH2 0x392 JUMPI DUP1 PUSH4 0xDAB93B0A EQ PUSH2 0x3B2 JUMPI DUP1 PUSH4 0xF99E5DBB EQ PUSH2 0x3D2 JUMPI PUSH1 0x0 DUP1 REVERT JUMPDEST DUP1 PUSH4 0x5889BF5E EQ PUSH2 0x2B0 JUMPI DUP1 PUSH4 0x5C975ABB EQ PUSH2 0x2E0 JUMPI DUP1 PUSH4 0x68B35A13 EQ PUSH2 0x2F8 JUMPI DUP1 PUSH4 0x8456CB59 EQ PUSH2 0x328 JUMPI DUP1 PUSH4 0x91D14854 EQ PUSH2 0x33D JUMPI PUSH1 0x0 DUP1 REVERT JUMPDEST DUP1 PUSH4 0x2F2FF15D GT PUSH2 0xE7 JUMPI DUP1 PUSH4 0x2F2FF15D EQ PUSH2 0x228 JUMPI DUP1 PUSH4 0x34E001D3 EQ PUSH2 0x248 JUMPI DUP1 PUSH4 0x35082933 EQ PUSH2 0x25B JUMPI DUP1 PUSH4 0x36568ABE EQ PUSH2 0x27B JUMPI DUP1 PUSH4 0x3F4BA83A EQ PUSH2 0x29B JUMPI PUSH1 0x0 DUP1 REVERT JUMPDEST DUP1 PUSH4 0x1FFC9A7 EQ PUSH2 0x124 JUMPI DUP1 PUSH4 0xFCD7F8F EQ PUSH2 0x159 JUMPI DUP1 PUSH4 0x248A9CA3 EQ PUSH2 0x17B JUMPI DUP1 PUSH4 0x26232A2E EQ PUSH2 0x1B9 JUMPI DUP1 PUSH4 0x27DF5389 EQ PUSH2 0x1F8 JUMPI JUMPDEST PUSH1 0x0 DUP1 REVERT JUMPDEST CALLVALUE DUP1 ISZERO PUSH2 0x130 JUMPI PUSH1 0x0 DUP1 REVERT JUMPDEST POP PUSH2 0x144 PUSH2 0x13F CALLDATASIZE PUSH1 0x4 PUSH2 0x2461 JUMP JUMPDEST PUSH2 0x3F2 JUMP JUMPDEST PUSH1 0x40 MLOAD SWAP1 ISZERO ISZERO DUP2 MSTORE PUSH1 0x20 ADD JUMPDEST PUSH1 0x40 MLOAD DUP1 SWAP2 SUB SWAP1 RETURN JUMPDEST CALLVALUE DUP1 ISZERO PUSH2 0x165 JUMPI PUSH1 0x0 DUP1 REVERT JUMPDEST POP PUSH2 0x179 PUSH2 0x174 CALLDATASIZE PUSH1 0x4 PUSH2 0x2584 JUMP JUMPDEST PUSH2 0x403 JUMP JUMPDEST STOP JUMPDEST CALLVALUE DUP1 ISZERO PUSH2 0x187 JUMPI PUSH1 0x0 DUP1 REVERT JUMPDEST POP PUSH2 0x1AB PUSH2 0x196 CALLDATASIZE PUSH1 0x4 PUSH2 0x25DC JUMP JUMPDEST PUSH1 0x0 SWAP1 DUP2 MSTORE PUSH1 0x20 DUP2 SWAP1 MSTORE PUSH1 0x40 SWAP1 KECCAK256 PUSH1 0x1 ADD SLOAD SWAP1 JUMP JUMPDEST PUSH1 0x40 MLOAD SWAP1 DUP2 MSTORE PUSH1 0x20 ADD PUSH2 0x150 JUMP JUMPDEST CALLVALUE DUP1 ISZERO PUSH2 0x1C5 JUMPI PUSH1 0x0 DUP1 REVERT JUMPDEST POP PUSH1 0x6 SLOAD PUSH2 0x1E0 SWAP1 PUSH1 0x1 PUSH1 0xA0 SHL SWAP1 DIV PUSH1 0x1 PUSH1 0x1 PUSH1 0x60 SHL SUB AND DUP2 JUMP JUMPDEST PUSH1 0x40 MLOAD PUSH1 0x1 PUSH1 0x1 PUSH1 0x60 SHL SUB SWAP1 SWAP2 AND DUP2 MSTORE PUSH1 0x20 ADD PUSH2 0x150 JUMP JUMPDEST CALLVALUE DUP1 ISZERO PUSH2 0x204 JUMPI PUSH1 0x0 DUP1 REVERT JUMPDEST POP PUSH2 0x144 PUSH2 0x213 CALLDATASIZE PUSH1 0x4 PUSH2 0x25F5 JUMP JUMPDEST PUSH1 0x3 PUSH1 0x20 MSTORE PUSH1 0x0 SWAP1 DUP2 MSTORE PUSH1 0x40 SWAP1 KECCAK256 SLOAD PUSH1 0xFF AND DUP2 JUMP JUMPDEST CALLVALUE DUP1 ISZERO PUSH2 0x234 JUMPI PUSH1 0x0 DUP1 REVERT JUMPDEST POP PUSH2 0x179 PUSH2 0x243 CALLDATASIZE PUSH1 0x4 PUSH2 0x2612 JUMP JUMPDEST PUSH2 0x83C JUMP JUMPDEST PUSH2 0x179 PUSH2 0x256 CALLDATASIZE PUSH1 0x4 PUSH2 0x2686 JUMP JUMPDEST PUSH2 0x861 JUMP JUMPDEST CALLVALUE DUP1 ISZERO PUSH2 0x267 JUMPI PUSH1 0x0 DUP1 REVERT JUMPDEST POP PUSH2 0x179 PUSH2 0x276 CALLDATASIZE PUSH1 0x4 PUSH2 0x25F5 JUMP JUMPDEST PUSH2 0xE34 JUMP JUMPDEST CALLVALUE DUP1 ISZERO PUSH2 0x287 JUMPI PUSH1 0x0 DUP1 REVERT JUMPDEST POP PUSH2 0x179 PUSH2 0x296 CALLDATASIZE PUSH1 0x4 PUSH2 0x2612 JUMP JUMPDEST PUSH2 0xF00 JUMP JUMPDEST CALLVALUE DUP1 ISZERO PUSH2 0x2A7 JUMPI PUSH1 0x0 DUP1 REVERT JUMPDEST POP PUSH2 0x179 PUSH2 0xF7A JUMP JUMPDEST CALLVALUE DUP1 ISZERO PUSH2 0x2BC JUMPI PUSH1 0x0 DUP1 REVERT JUMPDEST POP PUSH2 0x144 PUSH2 0x2CB CALLDATASIZE PUSH1 0x4 PUSH2 0x25DC JUMP JUMPDEST PUSH1 0x4 PUSH1 0x20 MSTORE PUSH1 0x0 SWAP1 DUP2 MSTORE PUSH1 0x40 SWAP1 KECCAK256 SLOAD PUSH1 0xFF AND DUP2 JUMP JUMPDEST CALLVALUE DUP1 ISZERO PUSH2 0x2EC JUMPI PUSH1 0x0 DUP1 REVERT JUMPDEST POP PUSH1 0x2 SLOAD PUSH1 0xFF AND PUSH2 0x144 JUMP JUMPDEST CALLVALUE DUP1 ISZERO PUSH2 0x304 JUMPI PUSH1 0x0 DUP1 REVERT JUMPDEST POP PUSH2 0x144 PUSH2 0x313 CALLDATASIZE PUSH1 0x4 PUSH2 0x25DC JUMP JUMPDEST PUSH1 0x5 PUSH1 0x20 MSTORE PUSH1 0x0 SWAP1 DUP2 MSTORE PUSH1 0x40 SWAP1 KECCAK256 SLOAD PUSH1 0xFF AND DUP2 JUMP JUMPDEST CALLVALUE DUP1 ISZERO PUSH2 0x334 JUMPI PUSH1 0x0 DUP1 REVERT JUMPDEST POP PUSH2 0x179 PUSH2 0xF90 JUMP JUMPDEST CALLVALUE DUP1 ISZERO PUSH2 0x349 JUMPI PUSH1 0x0 DUP1 REVERT JUMPDEST POP PUSH2 0x144 PUSH2 0x358 CALLDATASIZE PUSH1 0x4 PUSH2 0x2612 JUMP JUMPDEST PUSH2 0xFA3 JUMP JUMPDEST CALLVALUE DUP1 ISZERO PUSH2 0x369 JUMPI PUSH1 0x0 DUP1 REVERT JUMPDEST POP PUSH2 0x1AB PUSH1 0x0 DUP2 JUMP JUMPDEST CALLVALUE DUP1 ISZERO PUSH2 0x37E JUMPI PUSH1 0x0 DUP1 REVERT JUMPDEST POP PUSH2 0x179 PUSH2 0x38D CALLDATASIZE PUSH1 0x4 PUSH2 0x26E0 JUMP JUMPDEST PUSH2 0xFCC JUMP JUMPDEST CALLVALUE DUP1 ISZERO PUSH2 0x39E JUMPI PUSH1 0x0 DUP1 REVERT JUMPDEST POP PUSH2 0x179 PUSH2 0x3AD CALLDATASIZE PUSH1 0x4 PUSH2 0x2612 JUMP JUMPDEST PUSH2 0x10A6 JUMP JUMPDEST CALLVALUE DUP1 ISZERO PUSH2 0x3BE JUMPI PUSH1 0x0 DUP1 REVERT JUMPDEST POP PUSH2 0x179 PUSH2 0x3CD CALLDATASIZE PUSH1 0x4 PUSH2 0x2686 JUMP JUMPDEST PUSH2 0x10CB JUMP JUMPDEST CALLVALUE DUP1 ISZERO PUSH2 0x3DE JUMPI PUSH1 0x0 DUP1 REVERT JUMPDEST POP PUSH2 0x179 PUSH2 0x3ED CALLDATASIZE PUSH1 0x4 PUSH2 0x2725 JUMP JUMPDEST PUSH2 0x1381 JUMP JUMPDEST PUSH1 0x0 PUSH2 0x3FD DUP3 PUSH2 0x1449 JUMP JUMPDEST SWAP3 SWAP2 POP POP JUMP JUMPDEST PUSH2 0x40B PUSH2 0x147E JUMP JUMPDEST PUSH2 0x413 PUSH2 0x14D7 JUMP JUMPDEST PUSH1 0x40 MLOAD PUSH4 0x1FFC9A7 PUSH1 0xE0 SHL DUP2 MSTORE DUP4 SWAP1 PUSH1 0x1 PUSH1 0x1 PUSH1 0xA0 SHL SUB DUP3 AND SWAP1 PUSH4 0x1FFC9A7 SWAP1 PUSH2 0x448 SWAP1 PUSH4 0x80AC58CD PUSH1 0xE0 SHL SWAP1 PUSH1 0x4 ADD PUSH2 0x2740 JUMP JUMPDEST PUSH1 0x20 PUSH1 0x40 MLOAD DUP1 DUP4 SUB DUP2 DUP7 GAS STATICCALL ISZERO DUP1 ISZERO PUSH2 0x465 JUMPI RETURNDATASIZE PUSH1 0x0 DUP1 RETURNDATACOPY RETURNDATASIZE PUSH1 0x0 REVERT JUMPDEST POP POP POP POP PUSH1 0x40 MLOAD RETURNDATASIZE PUSH1 0x1F NOT PUSH1 0x1F DUP3 ADD AND DUP3 ADD DUP1 PUSH1 0x40 MSTORE POP DUP2 ADD SWAP1 PUSH2 0x489 SWAP2 SWAP1 PUSH2 0x2755 JUMP JUMPDEST DUP1 PUSH2 0x503 JUMPI POP PUSH1 0x40 MLOAD PUSH4 0x1FFC9A7 PUSH1 0xE0 SHL DUP2 MSTORE PUSH1 0x1 PUSH1 0x1 PUSH1 0xA0 SHL SUB DUP3 AND SWAP1 PUSH4 0x1FFC9A7 SWAP1 PUSH2 0x4C2 SWAP1 PUSH4 0x6CDB3D13 PUSH1 0xE1 SHL SWAP1 PUSH1 0x4 ADD PUSH2 0x2740 JUMP JUMPDEST PUSH1 0x20 PUSH1 0x40 MLOAD DUP1 DUP4 SUB DUP2 DUP7 GAS STATICCALL ISZERO DUP1 ISZERO PUSH2 0x4DF JUMPI RETURNDATASIZE PUSH1 0x0 DUP1 RETURNDATACOPY RETURNDATASIZE PUSH1 0x0 REVERT JUMPDEST POP POP POP POP PUSH1 0x40 MLOAD RETURNDATASIZE PUSH1 0x1F NOT PUSH1 0x1F DUP3 ADD AND DUP3 ADD DUP1 PUSH1 0x40 MSTORE POP DUP2 ADD SWAP1 PUSH2 0x503 SWAP2 SWAP1 PUSH2 0x2755 JUMP JUMPDEST PUSH2 0x56F JUMPI PUSH1 0x40 MLOAD PUSH3 0x461BCD PUSH1 0xE5 SHL DUP2 MSTORE PUSH1 0x20 PUSH1 0x4 DUP3 ADD MSTORE PUSH1 0x32 PUSH1 0x24 DUP3 ADD MSTORE PUSH32 0x47424D61726B6574706C6163653A2054686973206973206E6F74204552433732 PUSH1 0x44 DUP3 ADD MSTORE PUSH18 0xC4BD15490CC4C4D4D4818DBDB9D1C9858DD PUSH1 0x72 SHL PUSH1 0x64 DUP3 ADD MSTORE PUSH1 0x84 ADD JUMPDEST PUSH1 0x40 MLOAD DUP1 SWAP2 SUB SWAP1 REVERT JUMPDEST PUSH1 0x1 PUSH1 0x1 PUSH1 0xA0 SHL SUB DUP5 AND PUSH2 0x5EB JUMPI PUSH1 0x40 MLOAD PUSH3 0x461BCD PUSH1 0xE5 SHL DUP2 MSTORE PUSH1 0x20 PUSH1 0x4 DUP3 ADD MSTORE PUSH1 0x3B PUSH1 0x24 DUP3 ADD MSTORE PUSH32 0x47424D61726B6574706C6163653A206E6674436F6E7472616374206164647265 PUSH1 0x44 DUP3 ADD MSTORE PUSH32 0x7373206D757374206E6F74206265207A65726F20616464726573730000000000 PUSH1 0x64 DUP3 ADD MSTORE PUSH1 0x84 ADD PUSH2 0x566 JUMP JUMPDEST PUSH1 0x0 DUP4 GT PUSH2 0x654 JUMPI PUSH1 0x40 MLOAD PUSH3 0x461BCD PUSH1 0xE5 SHL DUP2 MSTORE PUSH1 0x20 PUSH1 0x4 DUP3 ADD MSTORE PUSH1 0x30 PUSH1 0x24 DUP3 ADD MSTORE PUSH32 0x47424D61726B6574706C6163653A20746F6B656E4964206D7573742062652067 PUSH1 0x44 DUP3 ADD MSTORE PUSH16 0x726561746572207468616E207A65726F PUSH1 0x80 SHL PUSH1 0x64 DUP3 ADD MSTORE PUSH1 0x84 ADD PUSH2 0x566 JUMP JUMPDEST PUSH1 0x1 PUSH1 0x1 PUSH1 0xA0 SHL SUB DUP5 AND PUSH1 0x0 SWAP1 DUP2 MSTORE PUSH1 0x3 PUSH1 0x20 MSTORE PUSH1 0x40 SWAP1 KECCAK256 SLOAD PUSH1 0xFF AND PUSH2 0x6CF JUMPI PUSH1 0x40 MLOAD PUSH3 0x461BCD PUSH1 0xE5 SHL DUP2 MSTORE PUSH1 0x20 PUSH1 0x4 DUP3 ADD MSTORE PUSH1 0x2A PUSH1 0x24 DUP3 ADD MSTORE PUSH32 0x47424D61726B6574706C6163653A20496E76616C6964206E6674436F6E747261 PUSH1 0x44 DUP3 ADD MSTORE PUSH10 0x63742061646472657373 PUSH1 0xB0 SHL PUSH1 0x64 DUP3 ADD MSTORE PUSH1 0x84 ADD PUSH2 0x566 JUMP JUMPDEST PUSH1 0x40 MLOAD PUSH4 0x31A9108F PUSH1 0xE1 SHL DUP2 MSTORE PUSH1 0x4 DUP2 ADD DUP5 SWAP1 MSTORE CALLER SWAP1 PUSH1 0x1 PUSH1 0x1 PUSH1 0xA0 SHL SUB DUP7 AND SWAP1 PUSH4 0x6352211E SWAP1 PUSH1 0x24 ADD PUSH1 0x20 PUSH1 0x40 MLOAD DUP1 DUP4 SUB DUP2 DUP7 GAS STATICCALL ISZERO DUP1 ISZERO PUSH2 0x716 JUMPI RETURNDATASIZE PUSH1 0x0 DUP1 RETURNDATACOPY RETURNDATASIZE PUSH1 0x0 REVERT JUMPDEST POP POP POP POP PUSH1 0x40 MLOAD RETURNDATASIZE PUSH1 0x1F NOT PUSH1 0x1F DUP3 ADD AND DUP3 ADD DUP1 PUSH1 0x40 MSTORE POP DUP2 ADD SWAP1 PUSH2 0x73A SWAP2 SWAP1 PUSH2 0x2772 JUMP JUMPDEST PUSH1 0x1 PUSH1 0x1 PUSH1 0xA0 SHL SUB AND EQ PUSH2 0x790 JUMPI PUSH1 0x40 MLOAD PUSH3 0x461BCD PUSH1 0xE5 SHL DUP2 MSTORE PUSH1 0x20 PUSH1 0x4 DUP3 ADD MSTORE PUSH1 0x1F PUSH1 0x24 DUP3 ADD MSTORE PUSH32 0x47424D61726B6574706C6163653A206973206E6F74206E6674206F776E657200 PUSH1 0x44 DUP3 ADD MSTORE PUSH1 0x64 ADD PUSH2 0x566 JUMP JUMPDEST PUSH1 0x40 MLOAD PUSH4 0x5882531 PUSH1 0xE2 SHL DUP2 MSTORE PUSH1 0x1 PUSH1 0x1 PUSH1 0xA0 SHL SUB DUP6 AND SWAP1 PUSH4 0x162094C4 SWAP1 PUSH2 0x7BE SWAP1 DUP7 SWAP1 DUP7 SWAP1 PUSH1 0x4 ADD PUSH2 0x27DF JUMP JUMPDEST PUSH1 0x0 PUSH1 0x40 MLOAD DUP1 DUP4 SUB DUP2 PUSH1 0x0 DUP8 DUP1 EXTCODESIZE ISZERO DUP1 ISZERO PUSH2 0x7D8 JUMPI PUSH1 0x0 DUP1 REVERT JUMPDEST POP GAS CALL ISZERO DUP1 ISZERO PUSH2 0x7EC JUMPI RETURNDATASIZE PUSH1 0x0 DUP1 RETURNDATACOPY RETURNDATASIZE PUSH1 0x0 REVERT JUMPDEST POP POP POP POP PUSH32 0x2A594F4FDCFB43B211E3FE501443DA843ED0DAA6E9CC58965E68AFB67938F5F2 DUP5 CALLER DUP6 DUP6 PUSH1 0x40 MLOAD PUSH2 0x825 SWAP5 SWAP4 SWAP3 SWAP2 SWAP1 PUSH2 0x2800 JUMP JUMPDEST PUSH1 0x40 MLOAD DUP1 SWAP2 SUB SWAP1 LOG1 POP PUSH2 0x837 PUSH1 0x1 DUP1 SSTORE JUMP JUMPDEST POP POP POP JUMP JUMPDEST PUSH1 0x0 DUP3 DUP2 MSTORE PUSH1 0x20 DUP2 SWAP1 MSTORE PUSH1 0x40 SWAP1 KECCAK256 PUSH1 0x1 ADD SLOAD PUSH2 0x857 DUP2 PUSH2 0x151F JUMP JUMPDEST PUSH2 0x837 DUP4 DUP4 PUSH2 0x1529 JUMP JUMPDEST PUSH2 0x869 PUSH2 0x147E JUMP JUMPDEST PUSH2 0x871 PUSH2 0x14D7 JUMP JUMPDEST CALLVALUE DUP2 PUSH1 0x0 DUP2 PUSH1 0x1 PUSH1 0x1 PUSH1 0x40 SHL SUB DUP2 GT ISZERO PUSH2 0x88D JUMPI PUSH2 0x88D PUSH2 0x24B0 JUMP JUMPDEST PUSH1 0x40 MLOAD SWAP1 DUP1 DUP3 MSTORE DUP1 PUSH1 0x20 MUL PUSH1 0x20 ADD DUP3 ADD PUSH1 0x40 MSTORE DUP1 ISZERO PUSH2 0x8B6 JUMPI DUP2 PUSH1 0x20 ADD PUSH1 0x20 DUP3 MUL DUP1 CALLDATASIZE DUP4 CALLDATACOPY ADD SWAP1 POP JUMPDEST POP SWAP1 POP PUSH1 0x0 DUP3 PUSH1 0x1 PUSH1 0x1 PUSH1 0x40 SHL SUB DUP2 GT ISZERO PUSH2 0x8D3 JUMPI PUSH2 0x8D3 PUSH2 0x24B0 JUMP JUMPDEST PUSH1 0x40 MLOAD SWAP1 DUP1 DUP3 MSTORE DUP1 PUSH1 0x20 MUL PUSH1 0x20 ADD DUP3 ADD PUSH1 0x40 MSTORE DUP1 ISZERO PUSH2 0x906 JUMPI DUP2 PUSH1 0x20 ADD JUMPDEST PUSH1 0x60 DUP2 MSTORE PUSH1 0x20 ADD SWAP1 PUSH1 0x1 SWAP1 SUB SWAP1 DUP2 PUSH2 0x8F1 JUMPI SWAP1 POP JUMPDEST POP SWAP1 POP PUSH1 0x0 DUP4 PUSH1 0x1 PUSH1 0x1 PUSH1 0x40 SHL SUB DUP2 GT ISZERO PUSH2 0x923 JUMPI PUSH2 0x923 PUSH2 0x24B0 JUMP JUMPDEST PUSH1 0x40 MLOAD SWAP1 DUP1 DUP3 MSTORE DUP1 PUSH1 0x20 MUL PUSH1 0x20 ADD DUP3 ADD PUSH1 0x40 MSTORE DUP1 ISZERO PUSH2 0x94C JUMPI DUP2 PUSH1 0x20 ADD PUSH1 0x20 DUP3 MUL DUP1 CALLDATASIZE DUP4 CALLDATACOPY ADD SWAP1 POP JUMPDEST POP SWAP1 POP PUSH1 0x0 JUMPDEST DUP5 DUP2 LT ISZERO PUSH2 0xDD2 JUMPI PUSH1 0x0 DUP9 DUP9 DUP4 DUP2 DUP2 LT PUSH2 0x96E JUMPI PUSH2 0x96E PUSH2 0x283D JUMP JUMPDEST SWAP1 POP PUSH1 0x20 MUL DUP2 ADD SWAP1 PUSH2 0x980 SWAP2 SWAP1 PUSH2 0x2853 JUMP JUMPDEST PUSH2 0x989 SWAP1 PUSH2 0x2964 JUMP JUMPDEST DUP1 MLOAD PUSH1 0x40 DUP3 ADD MLOAD PUSH1 0x20 DUP4 ADD MLOAD SWAP3 SWAP4 POP SWAP1 SWAP2 PUSH2 0x9A6 DUP4 DUP4 DUP4 DUP14 PUSH2 0x15AD JUMP JUMPDEST DUP11 DUP9 DUP2 MLOAD DUP2 LT PUSH2 0x9B8 JUMPI PUSH2 0x9B8 PUSH2 0x283D JUMP JUMPDEST PUSH1 0x20 MUL PUSH1 0x20 ADD ADD DUP11 DUP10 DUP2 MLOAD DUP2 LT PUSH2 0x9D1 JUMPI PUSH2 0x9D1 PUSH2 0x283D JUMP JUMPDEST PUSH1 0x20 MUL PUSH1 0x20 ADD ADD DUP11 DUP11 DUP2 MLOAD DUP2 LT PUSH2 0x9EA JUMPI PUSH2 0x9EA PUSH2 0x283D JUMP JUMPDEST PUSH1 0x20 MUL PUSH1 0x20 ADD ADD DUP4 DUP2 MSTORE POP DUP4 SWAP1 MSTORE DUP4 ISZERO ISZERO ISZERO ISZERO DUP2 MSTORE POP POP POP POP DUP8 DUP6 DUP2 MLOAD DUP2 LT PUSH2 0xA15 JUMPI PUSH2 0xA15 PUSH2 0x283D JUMP JUMPDEST PUSH1 0x20 MUL PUSH1 0x20 ADD ADD MLOAD PUSH2 0xA2A JUMPI POP POP POP POP PUSH2 0xDCA JUMP JUMPDEST PUSH1 0xE0 DUP4 ADD MLOAD PUSH2 0x120 DUP5 ADD MLOAD PUSH2 0x100 DUP6 ADD MLOAD PUSH2 0x2710 PUSH1 0x1 PUSH1 0x1 PUSH1 0x60 SHL SUB SWAP1 SWAP3 AND SWAP1 SWAP3 MUL DIV SWAP1 PUSH2 0xA61 SWAP1 PUSH2 0xA5C DUP5 DUP5 PUSH2 0x2A1D JUMP JUMPDEST PUSH2 0x1AC2 JUMP JUMPDEST PUSH1 0xE0 DUP5 ADD MLOAD PUSH1 0x6 SLOAD PUSH2 0x2710 PUSH1 0x1 PUSH1 0x1 PUSH1 0x60 SHL SUB PUSH1 0x1 PUSH1 0xA0 SHL DUP4 DIV AND SWAP1 SWAP3 MUL SWAP2 SWAP1 SWAP2 DIV SWAP1 PUSH2 0xA97 SWAP1 PUSH1 0x1 PUSH1 0x1 PUSH1 0xA0 SHL SUB AND DUP3 PUSH2 0x1AC2 JUMP JUMPDEST DUP5 MLOAD PUSH1 0x1 PUSH1 0x1 PUSH1 0xA0 SHL SUB AND PUSH1 0x0 SWAP1 DUP2 MSTORE PUSH1 0x3 PUSH1 0x20 MSTORE PUSH1 0x40 DUP2 KECCAK256 SLOAD DUP2 SWAP1 PUSH1 0xFF AND ISZERO PUSH2 0xC42 JUMPI DUP7 PUSH1 0x60 ADD MLOAD PUSH2 0xBB8 JUMPI DUP7 MLOAD PUSH1 0x40 MLOAD PUSH4 0x1FFC9A7 PUSH1 0xE0 SHL DUP2 MSTORE PUSH1 0x1 PUSH1 0x1 PUSH1 0xA0 SHL SUB SWAP1 SWAP2 AND SWAP1 PUSH4 0x1FFC9A7 SWAP1 PUSH2 0xAFA SWAP1 PUSH4 0x80AC58CD PUSH1 0xE0 SHL SWAP1 PUSH1 0x4 ADD PUSH2 0x2740 JUMP JUMPDEST PUSH1 0x20 PUSH1 0x40 MLOAD DUP1 DUP4 SUB DUP2 DUP7 GAS STATICCALL ISZERO DUP1 ISZERO PUSH2 0xB17 JUMPI RETURNDATASIZE PUSH1 0x0 DUP1 RETURNDATACOPY RETURNDATASIZE PUSH1 0x0 REVERT JUMPDEST POP POP POP POP PUSH1 0x40 MLOAD RETURNDATASIZE PUSH1 0x1F NOT PUSH1 0x1F DUP3 ADD AND DUP3 ADD DUP1 PUSH1 0x40 MSTORE POP DUP2 ADD SWAP1 PUSH2 0xB3B SWAP2 SWAP1 PUSH2 0x2755 JUMP JUMPDEST ISZERO PUSH2 0xBB8 JUMPI DUP7 MLOAD PUSH1 0x40 DUP1 DUP10 ADD MLOAD PUSH1 0x80 DUP11 ADD MLOAD PUSH2 0x140 DUP12 ADD MLOAD PUSH1 0xA0 DUP13 ADD MLOAD SWAP4 MLOAD PUSH4 0x396FFCB9 PUSH1 0xE2 SHL DUP2 MSTORE PUSH1 0x1 PUSH1 0x1 PUSH1 0xA0 SHL SUB SWAP1 SWAP6 AND SWAP5 PUSH4 0xE5BFF2E4 SWAP5 PUSH2 0xB85 SWAP5 SWAP4 SWAP3 SWAP2 PUSH1 0x4 ADD PUSH2 0x2A30 JUMP JUMPDEST PUSH1 0x0 PUSH1 0x40 MLOAD DUP1 DUP4 SUB DUP2 PUSH1 0x0 DUP8 DUP1 EXTCODESIZE ISZERO DUP1 ISZERO PUSH2 0xB9F JUMPI PUSH1 0x0 DUP1 REVERT JUMPDEST POP GAS CALL ISZERO DUP1 ISZERO PUSH2 0xBB3 JUMPI RETURNDATASIZE PUSH1 0x0 DUP1 RETURNDATACOPY RETURNDATASIZE PUSH1 0x0 REVERT JUMPDEST POP POP POP POP JUMPDEST DUP7 MLOAD PUSH1 0x80 DUP9 ADD MLOAD PUSH1 0xE0 DUP10 ADD MLOAD PUSH1 0x40 MLOAD PUSH4 0x152A902D PUSH1 0xE1 SHL DUP2 MSTORE PUSH1 0x4 DUP2 ADD SWAP3 SWAP1 SWAP3 MSTORE PUSH1 0x24 DUP3 ADD MSTORE PUSH1 0x1 PUSH1 0x1 PUSH1 0xA0 SHL SUB SWAP1 SWAP2 AND SWAP1 PUSH4 0x2A55205A SWAP1 PUSH1 0x44 ADD PUSH1 0x40 DUP1 MLOAD DUP1 DUP4 SUB DUP2 DUP7 GAS STATICCALL ISZERO DUP1 ISZERO PUSH2 0xC0F JUMPI RETURNDATASIZE PUSH1 0x0 DUP1 RETURNDATACOPY RETURNDATASIZE PUSH1 0x0 REVERT JUMPDEST POP POP POP POP PUSH1 0x40 MLOAD RETURNDATASIZE PUSH1 0x1F NOT PUSH1 0x1F DUP3 ADD AND DUP3 ADD DUP1 PUSH1 0x40 MSTORE POP DUP2 ADD SWAP1 PUSH2 0xC33 SWAP2 SWAP1 PUSH2 0x2A66 JUMP JUMPDEST SWAP1 SWAP3 POP SWAP1 POP PUSH2 0xC42 DUP3 DUP3 PUSH2 0x1AC2 JUMP JUMPDEST PUSH1 0xE0 DUP8 ADD MLOAD DUP5 DUP3 ADD DUP5 ADD SWAP1 DUP2 LT ISZERO PUSH2 0xC68 JUMPI PUSH2 0xC68 DUP9 PUSH1 0x40 ADD MLOAD DUP3 DUP11 PUSH1 0xE0 ADD MLOAD SUB PUSH2 0x1AC2 JUMP JUMPDEST POP DUP7 MLOAD PUSH1 0x40 MLOAD PUSH4 0x1FFC9A7 PUSH1 0xE0 SHL DUP2 MSTORE PUSH1 0x1 PUSH1 0x1 PUSH1 0xA0 SHL SUB SWAP1 SWAP2 AND SWAP1 PUSH4 0x1FFC9A7 SWAP1 PUSH2 0xC9F SWAP1 PUSH4 0x80AC58CD PUSH1 0xE0 SHL SWAP1 PUSH1 0x4 ADD PUSH2 0x2740 JUMP JUMPDEST PUSH1 0x20 PUSH1 0x40 MLOAD DUP1 DUP4 SUB DUP2 DUP7 GAS STATICCALL ISZERO DUP1 ISZERO PUSH2 0xCBC JUMPI RETURNDATASIZE PUSH1 0x0 DUP1 RETURNDATACOPY RETURNDATASIZE PUSH1 0x0 REVERT JUMPDEST POP POP POP POP PUSH1 0x40 MLOAD RETURNDATASIZE PUSH1 0x1F NOT PUSH1 0x1F DUP3 ADD AND DUP3 ADD DUP1 PUSH1 0x40 MSTORE POP DUP2 ADD SWAP1 PUSH2 0xCE0 SWAP2 SWAP1 PUSH2 0x2755 JUMP JUMPDEST ISZERO PUSH2 0xD71 JUMPI DUP7 PUSH1 0x0 ADD MLOAD PUSH1 0x1 PUSH1 0x1 PUSH1 0xA0 SHL SUB AND PUSH4 0x42842E0E DUP9 PUSH1 0x40 ADD MLOAD PUSH2 0xD04 CALLER SWAP1 JUMP JUMPDEST PUSH1 0x80 DUP12 ADD MLOAD PUSH1 0x40 MLOAD PUSH1 0x1 PUSH1 0x1 PUSH1 0xE0 SHL SUB NOT PUSH1 0xE0 DUP7 SWAP1 SHL AND DUP2 MSTORE PUSH1 0x1 PUSH1 0x1 PUSH1 0xA0 SHL SUB SWAP4 DUP5 AND PUSH1 0x4 DUP3 ADD MSTORE SWAP3 SWAP1 SWAP2 AND PUSH1 0x24 DUP4 ADD MSTORE PUSH1 0x44 DUP3 ADD MSTORE PUSH1 0x64 ADD PUSH1 0x0 PUSH1 0x40 MLOAD DUP1 DUP4 SUB DUP2 PUSH1 0x0 DUP8 DUP1 EXTCODESIZE ISZERO DUP1 ISZERO PUSH2 0xD58 JUMPI PUSH1 0x0 DUP1 REVERT JUMPDEST POP GAS CALL ISZERO DUP1 ISZERO PUSH2 0xD6C JUMPI RETURNDATASIZE PUSH1 0x0 DUP1 RETURNDATACOPY RETURNDATASIZE PUSH1 0x0 REVERT JUMPDEST POP POP POP POP JUMPDEST DUP5 DUP8 PUSH1 0xE0 ADD MLOAD DUP16 SUB SUB SWAP14 POP PUSH1 0x1 PUSH1 0x5 PUSH1 0x0 DUP13 DUP13 DUP2 MLOAD DUP2 LT PUSH2 0xD94 JUMPI PUSH2 0xD94 PUSH2 0x283D JUMP JUMPDEST PUSH1 0x20 MUL PUSH1 0x20 ADD ADD MLOAD DUP2 MSTORE PUSH1 0x20 ADD SWAP1 DUP2 MSTORE PUSH1 0x20 ADD PUSH1 0x0 KECCAK256 PUSH1 0x0 PUSH2 0x100 EXP DUP2 SLOAD DUP2 PUSH1 0xFF MUL NOT AND SWAP1 DUP4 ISZERO ISZERO MUL OR SWAP1 SSTORE POP POP POP POP POP POP POP POP POP JUMPDEST PUSH1 0x1 ADD PUSH2 0x952 JUMP JUMPDEST POP DUP5 ISZERO PUSH2 0xDE3 JUMPI PUSH2 0xDE3 CALLER DUP7 PUSH2 0x1AC2 JUMP JUMPDEST PUSH32 0x7FC4538EC4E24165838A31CF55558696A0936DB77A700812580300C7EBC3B9CF DUP8 DUP8 DUP6 DUP6 DUP6 PUSH1 0x40 MLOAD PUSH2 0xE1A SWAP6 SWAP5 SWAP4 SWAP3 SWAP2 SWAP1 PUSH2 0x2BC1 JUMP JUMPDEST PUSH1 0x40 MLOAD DUP1 SWAP2 SUB SWAP1 LOG1 POP POP POP POP POP PUSH2 0xE30 PUSH1 0x1 DUP1 SSTORE JUMP JUMPDEST POP POP JUMP JUMPDEST PUSH1 0x0 PUSH2 0xE3F DUP2 PUSH2 0x151F JUMP JUMPDEST PUSH1 0x1 PUSH1 0x1 PUSH1 0xA0 SHL SUB DUP3 AND PUSH2 0xEAA JUMPI PUSH1 0x40 MLOAD PUSH3 0x461BCD PUSH1 0xE5 SHL DUP2 MSTORE PUSH1 0x20 PUSH1 0x4 DUP3 ADD MSTORE PUSH1 0x2C PUSH1 0x24 DUP3 ADD MSTORE PUSH32 0x61646D696E57616C6C65742061646472657373206D757374206E6F7420626520 PUSH1 0x44 DUP3 ADD MSTORE PUSH12 0x7A65726F2061646472657373 PUSH1 0xA0 SHL PUSH1 0x64 DUP3 ADD MSTORE PUSH1 0x84 ADD PUSH2 0x566 JUMP JUMPDEST PUSH1 0x6 DUP1 SLOAD PUSH1 0x1 PUSH1 0x1 PUSH1 0xA0 SHL SUB NOT AND PUSH1 0x1 PUSH1 0x1 PUSH1 0xA0 SHL SUB DUP5 AND SWAP1 DUP2 OR SWAP1 SWAP2 SSTORE PUSH1 0x40 MLOAD SWAP1 DUP2 MSTORE PUSH32 0x1B651CFD0A3F185590087E7E632381434DFADA46F037B9081264F9F5BDBFCD9B SWAP1 PUSH1 0x20 ADD JUMPDEST PUSH1 0x40 MLOAD DUP1 SWAP2 SUB SWAP1 LOG1 POP POP JUMP JUMPDEST PUSH1 0x1 PUSH1 0x1 PUSH1 0xA0 SHL SUB DUP2 AND CALLER EQ PUSH2 0xF70 JUMPI PUSH1 0x40 MLOAD PUSH3 0x461BCD PUSH1 0xE5 SHL DUP2 MSTORE PUSH1 0x20 PUSH1 0x4 DUP3 ADD MSTORE PUSH1 0x2F PUSH1 0x24 DUP3 ADD MSTORE PUSH32 0x416363657373436F6E74726F6C3A2063616E206F6E6C792072656E6F756E6365 PUSH1 0x44 DUP3 ADD MSTORE PUSH15 0x103937B632B9903337B91039B2B633 PUSH1 0x89 SHL PUSH1 0x64 DUP3 ADD MSTORE PUSH1 0x84 ADD PUSH2 0x566 JUMP JUMPDEST PUSH2 0xE30 DUP3 DUP3 PUSH2 0x1BDB JUMP JUMPDEST PUSH1 0x0 PUSH2 0xF85 DUP2 PUSH2 0x151F JUMP JUMPDEST PUSH2 0xF8D PUSH2 0x1C40 JUMP JUMPDEST POP JUMP JUMPDEST PUSH1 0x0 PUSH2 0xF9B DUP2 PUSH2 0x151F JUMP JUMPDEST PUSH2 0xF8D PUSH2 0x1C92 JUMP JUMPDEST PUSH1 0x0 SWAP2 DUP3 MSTORE PUSH1 0x20 DUP3 DUP2 MSTORE PUSH1 0x40 DUP1 DUP5 KECCAK256 PUSH1 0x1 PUSH1 0x1 PUSH1 0xA0 SHL SUB SWAP4 SWAP1 SWAP4 AND DUP5 MSTORE SWAP2 SWAP1 MSTORE SWAP1 KECCAK256 SLOAD PUSH1 0xFF AND SWAP1 JUMP JUMPDEST PUSH1 0x0 PUSH2 0xFD7 DUP2 PUSH2 0x151F JUMP JUMPDEST PUSH1 0x1 PUSH1 0x1 PUSH1 0xA0 SHL SUB DUP4 AND PUSH2 0x1042 JUMPI PUSH1 0x40 MLOAD PUSH3 0x461BCD PUSH1 0xE5 SHL DUP2 MSTORE PUSH1 0x20 PUSH1 0x4 DUP3 ADD MSTORE PUSH1 0x2C PUSH1 0x24 DUP3 ADD MSTORE PUSH32 0x4E6674436F6E74726163742061646472657373206D757374206E6F7420626520 PUSH1 0x44 DUP3 ADD MSTORE PUSH12 0x7A65726F2061646472657373 PUSH1 0xA0 SHL PUSH1 0x64 DUP3 ADD MSTORE PUSH1 0x84 ADD PUSH2 0x566 JUMP JUMPDEST PUSH1 0x1 PUSH1 0x1 PUSH1 0xA0 SHL SUB DUP4 AND PUSH1 0x0 DUP2 DUP2 MSTORE PUSH1 0x3 PUSH1 0x20 SWAP1 DUP2 MSTORE PUSH1 0x40 SWAP2 DUP3 SWAP1 KECCAK256 DUP1 SLOAD PUSH1 0xFF NOT AND DUP7 ISZERO ISZERO SWAP1 DUP2 OR SWAP1 SWAP2 SSTORE DUP3 MLOAD SWAP4 DUP5 MSTORE SWAP1 DUP4 ADD MSTORE PUSH32 0x37940B2348BCE0015E28074F3A1D2DDC211AD7DFA13F0AEF19072B22034EBC97 SWAP2 ADD PUSH1 0x40 MLOAD DUP1 SWAP2 SUB SWAP1 LOG1 POP POP POP JUMP JUMPDEST PUSH1 0x0 DUP3 DUP2 MSTORE PUSH1 0x20 DUP2 SWAP1 MSTORE PUSH1 0x40 SWAP1 KECCAK256 PUSH1 0x1 ADD SLOAD PUSH2 0x10C1 DUP2 PUSH2 0x151F JUMP JUMPDEST PUSH2 0x837 DUP4 DUP4 PUSH2 0x1BDB JUMP JUMPDEST PUSH2 0x10D3 PUSH2 0x14D7 JUMP JUMPDEST DUP1 PUSH1 0x0 DUP2 PUSH1 0x1 PUSH1 0x1 PUSH1 0x40 SHL SUB DUP2 GT ISZERO PUSH2 0x10EE JUMPI PUSH2 0x10EE PUSH2 0x24B0 JUMP JUMPDEST PUSH1 0x40 MLOAD SWAP1 DUP1 DUP3 MSTORE DUP1 PUSH1 0x20 MUL PUSH1 0x20 ADD DUP3 ADD PUSH1 0x40 MSTORE DUP1 ISZERO PUSH2 0x1117 JUMPI DUP2 PUSH1 0x20 ADD PUSH1 0x20 DUP3 MUL DUP1 CALLDATASIZE DUP4 CALLDATACOPY ADD SWAP1 POP JUMPDEST POP SWAP1 POP PUSH1 0x0 DUP3 PUSH1 0x1 PUSH1 0x1 PUSH1 0x40 SHL SUB DUP2 GT ISZERO PUSH2 0x1134 JUMPI PUSH2 0x1134 PUSH2 0x24B0 JUMP JUMPDEST PUSH1 0x40 MLOAD SWAP1 DUP1 DUP3 MSTORE DUP1 PUSH1 0x20 MUL PUSH1 0x20 ADD DUP3 ADD PUSH1 0x40 MSTORE DUP1 ISZERO PUSH2 0x1167 JUMPI DUP2 PUSH1 0x20 ADD JUMPDEST PUSH1 0x60 DUP2 MSTORE PUSH1 0x20 ADD SWAP1 PUSH1 0x1 SWAP1 SUB SWAP1 DUP2 PUSH2 0x1152 JUMPI SWAP1 POP JUMPDEST POP SWAP1 POP PUSH1 0x0 DUP4 PUSH1 0x1 PUSH1 0x1 PUSH1 0x40 SHL SUB DUP2 GT ISZERO PUSH2 0x1184 JUMPI PUSH2 0x1184 PUSH2 0x24B0 JUMP JUMPDEST PUSH1 0x40 MLOAD SWAP1 DUP1 DUP3 MSTORE DUP1 PUSH1 0x20 MUL PUSH1 0x20 ADD DUP3 ADD PUSH1 0x40 MSTORE DUP1 ISZERO PUSH2 0x11AD JUMPI DUP2 PUSH1 0x20 ADD PUSH1 0x20 DUP3 MUL DUP1 CALLDATASIZE DUP4 CALLDATACOPY ADD SWAP1 POP JUMPDEST POP SWAP1 POP PUSH1 0x0 JUMPDEST DUP6 DUP2 LT ISZERO PUSH2 0x133D JUMPI CALLDATASIZE DUP8 DUP8 DUP4 DUP2 DUP2 LT PUSH2 0x11CE JUMPI PUSH2 0x11CE PUSH2 0x283D JUMP JUMPDEST SWAP1 POP PUSH1 0x20 MUL DUP2 ADD SWAP1 PUSH2 0x11E0 SWAP2 SWAP1 PUSH2 0x2DD8 JUMP JUMPDEST SWAP1 POP PUSH2 0x11F2 PUSH1 0x60 DUP3 ADD PUSH1 0x40 DUP4 ADD PUSH2 0x25F5 JUMP JUMPDEST PUSH1 0x1 PUSH1 0x1 PUSH1 0xA0 SHL SUB AND CALLER PUSH1 0x1 PUSH1 0x1 PUSH1 0xA0 SHL SUB AND EQ PUSH2 0x1245 JUMPI PUSH1 0x40 MLOAD DUP1 PUSH1 0x60 ADD PUSH1 0x40 MSTORE DUP1 PUSH1 0x27 DUP2 MSTORE PUSH1 0x20 ADD PUSH2 0x2F72 PUSH1 0x27 SWAP2 CODECOPY DUP5 DUP4 DUP2 MLOAD DUP2 LT PUSH2 0x1235 JUMPI PUSH2 0x1235 PUSH2 0x283D JUMP JUMPDEST PUSH1 0x20 MUL PUSH1 0x20 ADD ADD DUP2 SWAP1 MSTORE POP PUSH2 0x1334 JUMP JUMPDEST PUSH1 0x1 DUP6 DUP4 DUP2 MLOAD DUP2 LT PUSH2 0x1259 JUMPI PUSH2 0x1259 PUSH2 0x283D JUMP JUMPDEST PUSH1 0x20 MUL PUSH1 0x20 ADD ADD SWAP1 ISZERO ISZERO SWAP1 DUP2 ISZERO ISZERO DUP2 MSTORE POP POP PUSH1 0x40 MLOAD DUP1 PUSH1 0x40 ADD PUSH1 0x40 MSTORE DUP1 PUSH1 0x1F DUP2 MSTORE PUSH1 0x20 ADD PUSH32 0x47424D61726B6574706C6163653A2043616E63656C6C6564206F726465722E00 DUP2 MSTORE POP DUP5 DUP4 DUP2 MLOAD DUP2 LT PUSH2 0x12B3 JUMPI PUSH2 0x12B3 PUSH2 0x283D JUMP JUMPDEST PUSH1 0x20 MUL PUSH1 0x20 ADD ADD DUP2 SWAP1 MSTORE POP PUSH2 0x12D0 DUP2 PUSH2 0x12CB SWAP1 PUSH2 0x2DEF JUMP JUMPDEST PUSH2 0x1CCF JUMP JUMPDEST DUP4 DUP4 DUP2 MLOAD DUP2 LT PUSH2 0x12E2 JUMPI PUSH2 0x12E2 PUSH2 0x283D JUMP JUMPDEST PUSH1 0x20 MUL PUSH1 0x20 ADD ADD DUP2 DUP2 MSTORE POP POP PUSH1 0x1 PUSH1 0x4 PUSH1 0x0 DUP6 DUP6 DUP2 MLOAD DUP2 LT PUSH2 0x1306 JUMPI PUSH2 0x1306 PUSH2 0x283D JUMP JUMPDEST PUSH1 0x20 MUL PUSH1 0x20 ADD ADD MLOAD DUP2 MSTORE PUSH1 0x20 ADD SWAP1 DUP2 MSTORE PUSH1 0x20 ADD PUSH1 0x0 KECCAK256 PUSH1 0x0 PUSH2 0x100 EXP DUP2 SLOAD DUP2 PUSH1 0xFF MUL NOT AND SWAP1 DUP4 ISZERO ISZERO MUL OR SWAP1 SSTORE POP JUMPDEST POP PUSH1 0x1 ADD PUSH2 0x11B3 JUMP JUMPDEST POP PUSH32 0x15F99F1CF783EC6699F2FF7916A0502D78D1CF20B8C9422AE62C33C66DCE90D1 DUP4 DUP4 DUP4 PUSH1 0x40 MLOAD PUSH2 0x1371 SWAP4 SWAP3 SWAP2 SWAP1 PUSH2 0x2DFB JUMP JUMPDEST PUSH1 0x40 MLOAD DUP1 SWAP2 SUB SWAP1 LOG1 POP POP POP POP POP POP JUMP JUMPDEST PUSH1 0x0 PUSH2 0x138C DUP2 PUSH2 0x151F JUMP JUMPDEST PUSH1 0x0 DUP3 PUSH1 0x1 PUSH1 0x1 PUSH1 0x60 SHL SUB AND GT PUSH2 0x13F3 JUMPI PUSH1 0x40 MLOAD PUSH3 0x461BCD PUSH1 0xE5 SHL DUP2 MSTORE PUSH1 0x20 PUSH1 0x4 DUP3 ADD MSTORE PUSH1 0x25 PUSH1 0x24 DUP3 ADD MSTORE PUSH32 0x706C6174666F726D466565206D7573742062652067726561746572207468616E PUSH1 0x44 DUP3 ADD MSTORE PUSH5 0x207A65726F PUSH1 0xD8 SHL PUSH1 0x64 DUP3 ADD MSTORE PUSH1 0x84 ADD PUSH2 0x566 JUMP JUMPDEST PUSH1 0x6 DUP1 SLOAD PUSH1 0x1 PUSH1 0x1 PUSH1 0xA0 SHL SUB AND PUSH1 0x1 PUSH1 0xA0 SHL PUSH1 0x1 PUSH1 0x1 PUSH1 0x60 SHL SUB DUP6 AND SWAP1 DUP2 MUL SWAP2 SWAP1 SWAP2 OR SWAP1 SWAP2 SSTORE PUSH1 0x40 MLOAD SWAP1 DUP2 MSTORE PUSH32 0xBE3599C33046219DDC3706F4B99CACA706DC0F53775580D18A367DC2188C96E5 SWAP1 PUSH1 0x20 ADD PUSH2 0xEF4 JUMP JUMPDEST PUSH1 0x0 PUSH1 0x1 PUSH1 0x1 PUSH1 0xE0 SHL SUB NOT DUP3 AND PUSH4 0x7965DB0B PUSH1 0xE0 SHL EQ DUP1 PUSH2 0x3FD JUMPI POP PUSH4 0x1FFC9A7 PUSH1 0xE0 SHL PUSH1 0x1 PUSH1 0x1 PUSH1 0xE0 SHL SUB NOT DUP4 AND EQ PUSH2 0x3FD JUMP JUMPDEST PUSH1 0x2 PUSH1 0x1 SLOAD SUB PUSH2 0x14D0 JUMPI PUSH1 0x40 MLOAD PUSH3 0x461BCD PUSH1 0xE5 SHL DUP2 MSTORE PUSH1 0x20 PUSH1 0x4 DUP3 ADD MSTORE PUSH1 0x1F PUSH1 0x24 DUP3 ADD MSTORE PUSH32 0x5265656E7472616E637947756172643A207265656E7472616E742063616C6C00 PUSH1 0x44 DUP3 ADD MSTORE PUSH1 0x64 ADD PUSH2 0x566 JUMP JUMPDEST PUSH1 0x2 PUSH1 0x1 SSTORE JUMP JUMPDEST PUSH1 0x2 SLOAD PUSH1 0xFF AND ISZERO PUSH2 0x151D JUMPI PUSH1 0x40 MLOAD PUSH3 0x461BCD PUSH1 0xE5 SHL DUP2 MSTORE PUSH1 0x20 PUSH1 0x4 DUP3 ADD MSTORE PUSH1 0x10 PUSH1 0x24 DUP3 ADD MSTORE PUSH16 0x14185D5CD8589B194E881C185D5CD959 PUSH1 0x82 SHL PUSH1 0x44 DUP3 ADD MSTORE PUSH1 0x64 ADD PUSH2 0x566 JUMP JUMPDEST JUMP JUMPDEST PUSH2 0xF8D DUP2 CALLER PUSH2 0x1DF6 JUMP JUMPDEST PUSH2 0x1533 DUP3 DUP3 PUSH2 0xFA3 JUMP JUMPDEST PUSH2 0xE30 JUMPI PUSH1 0x0 DUP3 DUP2 MSTORE PUSH1 0x20 DUP2 DUP2 MSTORE PUSH1 0x40 DUP1 DUP4 KECCAK256 PUSH1 0x1 PUSH1 0x1 PUSH1 0xA0 SHL SUB DUP6 AND DUP5 MSTORE SWAP1 SWAP2 MSTORE SWAP1 KECCAK256 DUP1 SLOAD PUSH1 0xFF NOT AND PUSH1 0x1 OR SWAP1 SSTORE PUSH2 0x1569 CALLER SWAP1 JUMP JUMPDEST PUSH1 0x1 PUSH1 0x1 PUSH1 0xA0 SHL SUB AND DUP2 PUSH1 0x1 PUSH1 0x1 PUSH1 0xA0 SHL SUB AND DUP4 PUSH32 0x2F8788117E7EFF1D82E926EC794901D17C78024A50270940304540A733656F0D PUSH1 0x40 MLOAD PUSH1 0x40 MLOAD DUP1 SWAP2 SUB SWAP1 LOG4 POP POP JUMP JUMPDEST DUP4 MLOAD PUSH1 0x0 SWAP1 PUSH1 0x60 SWAP1 DUP3 SWAP1 PUSH1 0x1 PUSH1 0x1 PUSH1 0xA0 SHL SUB AND PUSH2 0x15E4 JUMPI PUSH1 0x40 MLOAD DUP1 PUSH1 0x60 ADD PUSH1 0x40 MSTORE DUP1 PUSH1 0x3B DUP2 MSTORE PUSH1 0x20 ADD PUSH2 0x2F99 PUSH1 0x3B SWAP2 CODECOPY SWAP2 POP PUSH2 0x1AB8 JUMP JUMPDEST DUP7 MLOAD PUSH1 0x40 MLOAD PUSH4 0x1FFC9A7 PUSH1 0xE0 SHL DUP2 MSTORE PUSH1 0x1 PUSH1 0x1 PUSH1 0xA0 SHL SUB SWAP1 SWAP2 AND SWAP1 PUSH4 0x1FFC9A7 SWAP1 PUSH2 0x161A SWAP1 PUSH4 0x80AC58CD PUSH1 0xE0 SHL SWAP1 PUSH1 0x4 ADD PUSH2 0x2740 JUMP JUMPDEST PUSH1 0x20 PUSH1 0x40 MLOAD DUP1 DUP4 SUB DUP2 DUP7 GAS STATICCALL ISZERO DUP1 ISZERO PUSH2 0x1637 JUMPI RETURNDATASIZE PUSH1 0x0 DUP1 RETURNDATACOPY RETURNDATASIZE PUSH1 0x0 REVERT JUMPDEST POP POP POP POP PUSH1 0x40 MLOAD RETURNDATASIZE PUSH1 0x1F NOT PUSH1 0x1F DUP3 ADD AND DUP3 ADD DUP1 PUSH1 0x40 MSTORE POP DUP2 ADD SWAP1 PUSH2 0x165B SWAP2 SWAP1 PUSH2 0x2755 JUMP JUMPDEST ISZERO DUP1 ISZERO PUSH2 0x16DC JUMPI POP DUP7 MLOAD PUSH1 0x40 MLOAD PUSH4 0x1FFC9A7 PUSH1 0xE0 SHL DUP2 MSTORE PUSH1 0x1 PUSH1 0x1 PUSH1 0xA0 SHL SUB SWAP1 SWAP2 AND SWAP1 PUSH4 0x1FFC9A7 SWAP1 PUSH2 0x1699 SWAP1 PUSH4 0x6CDB3D13 PUSH1 0xE1 SHL SWAP1 PUSH1 0x4 ADD PUSH2 0x2740 JUMP JUMPDEST PUSH1 0x20 PUSH1 0x40 MLOAD DUP1 DUP4 SUB DUP2 DUP7 GAS STATICCALL ISZERO DUP1 ISZERO PUSH2 0x16B6 JUMPI RETURNDATASIZE PUSH1 0x0 DUP1 RETURNDATACOPY RETURNDATASIZE PUSH1 0x0 REVERT JUMPDEST POP POP POP POP PUSH1 0x40 MLOAD RETURNDATASIZE PUSH1 0x1F NOT PUSH1 0x1F DUP3 ADD AND DUP3 ADD DUP1 PUSH1 0x40 MSTORE POP DUP2 ADD SWAP1 PUSH2 0x16DA SWAP2 SWAP1 PUSH2 0x2755 JUMP JUMPDEST ISZERO JUMPDEST ISZERO PUSH2 0x1701 JUMPI PUSH1 0x40 MLOAD DUP1 PUSH1 0x60 ADD PUSH1 0x40 MSTORE DUP1 PUSH1 0x3B DUP2 MSTORE PUSH1 0x20 ADD PUSH2 0x2F99 PUSH1 0x3B SWAP2 CODECOPY SWAP2 POP PUSH2 0x1AB8 JUMP JUMPDEST DUP7 PUSH1 0x60 ADD MLOAD DUP1 ISZERO PUSH2 0x1786 JUMPI POP DUP7 MLOAD PUSH1 0x40 DUP1 DUP10 ADD MLOAD SWAP1 MLOAD PUSH4 0xE985E9C5 PUSH1 0xE0 SHL DUP2 MSTORE PUSH1 0x1 PUSH1 0x1 PUSH1 0xA0 SHL SUB SWAP2 DUP3 AND PUSH1 0x4 DUP3 ADD MSTORE ADDRESS PUSH1 0x24 DUP3 ADD MSTORE SWAP2 AND SWAP1 PUSH4 0xE985E9C5 SWAP1 PUSH1 0x44 ADD PUSH1 0x20 PUSH1 0x40 MLOAD DUP1 DUP4 SUB DUP2 DUP7 GAS STATICCALL ISZERO DUP1 ISZERO PUSH2 0x1760 JUMPI RETURNDATASIZE PUSH1 0x0 DUP1 RETURNDATACOPY RETURNDATASIZE PUSH1 0x0 REVERT JUMPDEST POP POP POP POP PUSH1 0x40 MLOAD RETURNDATASIZE PUSH1 0x1F NOT PUSH1 0x1F DUP3 ADD AND DUP3 ADD DUP1 PUSH1 0x40 MSTORE POP DUP2 ADD SWAP1 PUSH2 0x1784 SWAP2 SWAP1 PUSH2 0x2755 JUMP JUMPDEST ISZERO JUMPDEST ISZERO PUSH2 0x17AB JUMPI PUSH1 0x40 MLOAD DUP1 PUSH1 0x60 ADD PUSH1 0x40 MSTORE DUP1 PUSH1 0x2F DUP2 MSTORE PUSH1 0x20 ADD PUSH2 0x30AC PUSH1 0x2F SWAP2 CODECOPY SWAP2 POP PUSH2 0x1AB8 JUMP JUMPDEST PUSH1 0x40 DUP8 ADD MLOAD PUSH1 0x1 PUSH1 0x1 PUSH1 0xA0 SHL SUB AND EXTCODESIZE ISZERO PUSH2 0x17DF JUMPI PUSH1 0x40 MLOAD DUP1 PUSH1 0x60 ADD PUSH1 0x40 MSTORE DUP1 PUSH1 0x3A DUP2 MSTORE PUSH1 0x20 ADD PUSH2 0x300C PUSH1 0x3A SWAP2 CODECOPY SWAP2 POP PUSH2 0x1AB8 JUMP JUMPDEST PUSH2 0x100 DUP8 ADD MLOAD PUSH1 0x1 PUSH1 0x1 PUSH1 0xA0 SHL SUB AND PUSH2 0x1812 JUMPI PUSH1 0x40 MLOAD DUP1 PUSH1 0x60 ADD PUSH1 0x40 MSTORE DUP1 PUSH1 0x37 DUP2 MSTORE PUSH1 0x20 ADD PUSH2 0x3046 PUSH1 0x37 SWAP2 CODECOPY SWAP2 POP PUSH2 0x1AB8 JUMP JUMPDEST PUSH2 0x3E8 DUP8 PUSH2 0x120 ADD MLOAD PUSH1 0x1 PUSH1 0x1 PUSH1 0x60 SHL SUB AND LT DUP1 PUSH2 0x183F JUMPI POP PUSH2 0x2710 DUP8 PUSH2 0x120 ADD MLOAD PUSH1 0x1 PUSH1 0x1 PUSH1 0x60 SHL SUB AND GT JUMPDEST ISZERO PUSH2 0x1864 JUMPI PUSH1 0x40 MLOAD DUP1 PUSH1 0x60 ADD PUSH1 0x40 MSTORE DUP1 PUSH1 0x3E DUP2 MSTORE PUSH1 0x20 ADD PUSH2 0x310A PUSH1 0x3E SWAP2 CODECOPY SWAP2 POP PUSH2 0x1AB8 JUMP JUMPDEST PUSH2 0x2710 DUP8 PUSH2 0x140 ADD MLOAD PUSH1 0x1 PUSH1 0x1 PUSH1 0x60 SHL SUB AND GT ISZERO PUSH2 0x189C JUMPI PUSH1 0x40 MLOAD DUP1 PUSH1 0x60 ADD PUSH1 0x40 MSTORE DUP1 PUSH1 0x38 DUP2 MSTORE PUSH1 0x20 ADD PUSH2 0x2FD4 PUSH1 0x38 SWAP2 CODECOPY SWAP2 POP PUSH2 0x1AB8 JUMP JUMPDEST PUSH2 0x2710 DUP8 PUSH2 0x140 ADD MLOAD PUSH1 0x6 PUSH1 0x14 SWAP1 SLOAD SWAP1 PUSH2 0x100 EXP SWAP1 DIV PUSH1 0x1 PUSH1 0x1 PUSH1 0x60 SHL SUB AND DUP10 PUSH2 0x120 ADD MLOAD PUSH2 0x18CB SWAP2 SWAP1 PUSH2 0x2E34 JUMP JUMPDEST PUSH2 0x18D5 SWAP2 SWAP1 PUSH2 0x2E34 JUMP JUMPDEST PUSH1 0x1 PUSH1 0x1 PUSH1 0x60 SHL SUB AND GT ISZERO PUSH2 0x1904 JUMPI PUSH1 0x40 MLOAD DUP1 PUSH1 0x60 ADD PUSH1 0x40 MSTORE DUP1 PUSH1 0x2F DUP2 MSTORE PUSH1 0x20 ADD PUSH2 0x307D PUSH1 0x2F SWAP2 CODECOPY SWAP2 POP PUSH2 0x1AB8 JUMP JUMPDEST DUP7 PUSH1 0xE0 ADD MLOAD PUSH1 0x0 SUB PUSH2 0x1930 JUMPI PUSH1 0x40 MLOAD DUP1 PUSH1 0x60 ADD PUSH1 0x40 MSTORE DUP1 PUSH1 0x2F DUP2 MSTORE PUSH1 0x20 ADD PUSH2 0x30DB PUSH1 0x2F SWAP2 CODECOPY SWAP2 POP PUSH2 0x1AB8 JUMP JUMPDEST DUP5 DUP8 PUSH1 0xE0 ADD MLOAD PUSH2 0x1940 SWAP2 SWAP1 PUSH2 0x2A1D JUMP JUMPDEST DUP5 LT ISZERO PUSH2 0x1967 JUMPI PUSH1 0x40 MLOAD DUP1 PUSH1 0x60 ADD PUSH1 0x40 MSTORE DUP1 PUSH1 0x21 DUP2 MSTORE PUSH1 0x20 ADD PUSH2 0x2F28 PUSH1 0x21 SWAP2 CODECOPY SWAP2 POP PUSH2 0x1AB8 JUMP JUMPDEST TIMESTAMP DUP8 PUSH2 0x160 ADD MLOAD LT ISZERO PUSH2 0x19B1 JUMPI PUSH1 0x40 MLOAD DUP1 PUSH1 0x40 ADD PUSH1 0x40 MSTORE DUP1 PUSH1 0x20 DUP2 MSTORE PUSH1 0x20 ADD PUSH32 0x47424D61726B6574706C6163653A205369676E61747572652065787069726564 DUP2 MSTORE POP SWAP2 POP PUSH2 0x1AB8 JUMP JUMPDEST PUSH2 0x19BA DUP8 PUSH2 0x1CCF JUMP JUMPDEST PUSH1 0x0 DUP2 DUP2 MSTORE PUSH1 0x4 PUSH1 0x20 MSTORE PUSH1 0x40 SWAP1 KECCAK256 SLOAD SWAP1 SWAP2 POP PUSH1 0xFF AND ISZERO PUSH2 0x19F4 JUMPI PUSH1 0x40 MLOAD DUP1 PUSH1 0x60 ADD PUSH1 0x40 MSTORE DUP1 PUSH1 0x29 DUP2 MSTORE PUSH1 0x20 ADD PUSH2 0x3148 PUSH1 0x29 SWAP2 CODECOPY SWAP2 POP PUSH2 0x1AB8 JUMP JUMPDEST PUSH1 0x0 DUP2 DUP2 MSTORE PUSH1 0x5 PUSH1 0x20 MSTORE PUSH1 0x40 SWAP1 KECCAK256 SLOAD PUSH1 0xFF AND ISZERO PUSH2 0x1A2B JUMPI PUSH1 0x40 MLOAD DUP1 PUSH1 0x60 ADD PUSH1 0x40 MSTORE DUP1 PUSH1 0x29 DUP2 MSTORE PUSH1 0x20 ADD PUSH2 0x2F49 PUSH1 0x29 SWAP2 CODECOPY SWAP2 POP PUSH2 0x1AB8 JUMP JUMPDEST PUSH2 0x1A42 DUP8 PUSH1 0x40 ADD MLOAD PUSH2 0x1A3C DUP4 PUSH2 0x1E4F JUMP JUMPDEST DUP9 PUSH2 0x1E9D JUMP JUMPDEST PUSH2 0x1A83 JUMPI PUSH1 0x40 MLOAD DUP1 PUSH1 0x40 ADD PUSH1 0x40 MSTORE DUP1 PUSH1 0x20 DUP2 MSTORE PUSH1 0x20 ADD PUSH32 0x47424D61726B6574706C6163653A20496E76616C6964207369676E6174757265 DUP2 MSTORE POP SWAP2 POP PUSH2 0x1AB8 JUMP JUMPDEST PUSH1 0x1 SWAP3 POP PUSH1 0x40 MLOAD DUP1 PUSH1 0x40 ADD PUSH1 0x40 MSTORE DUP1 PUSH1 0x15 DUP2 MSTORE PUSH1 0x20 ADD PUSH21 0x11D093585C9AD95D1C1B1858D94E8814185CDCD959 PUSH1 0x5A SHL DUP2 MSTORE POP SWAP2 POP JUMPDEST SWAP5 POP SWAP5 POP SWAP5 SWAP2 POP POP JUMP JUMPDEST DUP1 SELFBALANCE LT ISZERO PUSH2 0x1B12 JUMPI PUSH1 0x40 MLOAD PUSH3 0x461BCD PUSH1 0xE5 SHL DUP2 MSTORE PUSH1 0x20 PUSH1 0x4 DUP3 ADD MSTORE PUSH1 0x1D PUSH1 0x24 DUP3 ADD MSTORE PUSH32 0x416464726573733A20696E73756666696369656E742062616C616E6365000000 PUSH1 0x44 DUP3 ADD MSTORE PUSH1 0x64 ADD PUSH2 0x566 JUMP JUMPDEST PUSH1 0x0 DUP3 PUSH1 0x1 PUSH1 0x1 PUSH1 0xA0 SHL SUB AND DUP3 PUSH1 0x40 MLOAD PUSH1 0x0 PUSH1 0x40 MLOAD DUP1 DUP4 SUB DUP2 DUP6 DUP8 GAS CALL SWAP3 POP POP POP RETURNDATASIZE DUP1 PUSH1 0x0 DUP2 EQ PUSH2 0x1B5F JUMPI PUSH1 0x40 MLOAD SWAP2 POP PUSH1 0x1F NOT PUSH1 0x3F RETURNDATASIZE ADD AND DUP3 ADD PUSH1 0x40 MSTORE RETURNDATASIZE DUP3 MSTORE RETURNDATASIZE PUSH1 0x0 PUSH1 0x20 DUP5 ADD RETURNDATACOPY PUSH2 0x1B64 JUMP JUMPDEST PUSH1 0x60 SWAP2 POP JUMPDEST POP POP SWAP1 POP DUP1 PUSH2 0x837 JUMPI PUSH1 0x40 MLOAD PUSH3 0x461BCD PUSH1 0xE5 SHL DUP2 MSTORE PUSH1 0x20 PUSH1 0x4 DUP3 ADD MSTORE PUSH1 0x3A PUSH1 0x24 DUP3 ADD MSTORE PUSH32 0x416464726573733A20756E61626C6520746F2073656E642076616C75652C2072 PUSH1 0x44 DUP3 ADD MSTORE PUSH32 0x6563697069656E74206D61792068617665207265766572746564000000000000 PUSH1 0x64 DUP3 ADD MSTORE PUSH1 0x84 ADD PUSH2 0x566 JUMP JUMPDEST PUSH2 0x1BE5 DUP3 DUP3 PUSH2 0xFA3 JUMP JUMPDEST ISZERO PUSH2 0xE30 JUMPI PUSH1 0x0 DUP3 DUP2 MSTORE PUSH1 0x20 DUP2 DUP2 MSTORE PUSH1 0x40 DUP1 DUP4 KECCAK256 PUSH1 0x1 PUSH1 0x1 PUSH1 0xA0 SHL SUB DUP6 AND DUP1 DUP6 MSTORE SWAP3 MSTORE DUP1 DUP4 KECCAK256 DUP1 SLOAD PUSH1 0xFF NOT AND SWAP1 SSTORE MLOAD CALLER SWAP3 DUP6 SWAP2 PUSH32 0xF6391F5C32D9C69D2A47EA670B442974B53935D1EDC7FD64EB21E047A839171B SWAP2 SWAP1 LOG4 POP POP JUMP JUMPDEST PUSH2 0x1C48 PUSH2 0x1EC6 JUMP JUMPDEST PUSH1 0x2 DUP1 SLOAD PUSH1 0xFF NOT AND SWAP1 SSTORE PUSH32 0x5DB9EE0A495BF2E6FF9C91A7834C1BA4FDD244A5E8AA4E537BD38AEAE4B073AA CALLER JUMPDEST PUSH1 0x40 MLOAD PUSH1 0x1 PUSH1 0x1 PUSH1 0xA0 SHL SUB SWAP1 SWAP2 AND DUP2 MSTORE PUSH1 0x20 ADD PUSH1 0x40 MLOAD DUP1 SWAP2 SUB SWAP1 LOG1 JUMP JUMPDEST PUSH2 0x1C9A PUSH2 0x14D7 JUMP JUMPDEST PUSH1 0x2 DUP1 SLOAD PUSH1 0xFF NOT AND PUSH1 0x1 OR SWAP1 SSTORE PUSH32 0x62E78CEA01BEE320CD4E420270B5EA74000D11B0C9F74754EBDBFC544B05A258 PUSH2 0x1C75 CALLER SWAP1 JUMP JUMPDEST PUSH1 0x0 PUSH32 0xEFF405BB0A78706E059B96D98CF8097C37BA430BA5998157D907B89C96B953EB DUP3 PUSH1 0x0 ADD MLOAD DUP4 PUSH1 0x20 ADD MLOAD DUP5 PUSH1 0x40 ADD MLOAD DUP6 PUSH1 0x60 ADD MLOAD DUP7 PUSH1 0x80 ADD MLOAD DUP8 PUSH1 0xA0 ADD MLOAD DUP1 MLOAD SWAP1 PUSH1 0x20 ADD KECCAK256 DUP9 PUSH1 0xC0 ADD MLOAD DUP10 PUSH1 0xE0 ADD MLOAD DUP11 PUSH2 0x100 ADD MLOAD DUP12 PUSH2 0x120 ADD MLOAD DUP13 PUSH2 0x140 ADD MLOAD DUP14 PUSH2 0x160 ADD MLOAD DUP15 PUSH2 0x180 ADD MLOAD PUSH1 0x40 MLOAD PUSH1 0x20 ADD PUSH2 0x1DD9 SWAP15 SWAP14 SWAP13 SWAP12 SWAP11 SWAP10 SWAP9 SWAP8 SWAP7 SWAP6 SWAP5 SWAP4 SWAP3 SWAP2 SWAP1 SWAP14 DUP15 MSTORE PUSH1 0x1 PUSH1 0x1 PUSH1 0xA0 SHL SUB SWAP13 DUP14 AND PUSH1 0x20 DUP16 ADD MSTORE PUSH1 0x40 DUP15 ADD SWAP12 SWAP1 SWAP12 MSTORE SWAP9 DUP12 AND PUSH1 0x60 DUP14 ADD MSTORE SWAP7 ISZERO ISZERO PUSH1 0x80 DUP13 ADD MSTORE PUSH1 0xA0 DUP12 ADD SWAP6 SWAP1 SWAP6 MSTORE PUSH1 0xC0 DUP11 ADD SWAP4 SWAP1 SWAP4 MSTORE PUSH1 0xE0 DUP10 ADD SWAP2 SWAP1 SWAP2 MSTORE PUSH2 0x100 DUP9 ADD MSTORE SWAP1 SWAP5 AND PUSH2 0x120 DUP7 ADD MSTORE PUSH1 0x1 PUSH1 0x1 PUSH1 0x60 SHL SUB SWAP4 DUP5 AND PUSH2 0x140 DUP7 ADD MSTORE SWAP1 SWAP3 AND PUSH2 0x160 DUP5 ADD MSTORE PUSH2 0x180 DUP4 ADD SWAP2 SWAP1 SWAP2 MSTORE PUSH2 0x1A0 DUP3 ADD MSTORE PUSH2 0x1C0 ADD SWAP1 JUMP JUMPDEST PUSH1 0x40 MLOAD PUSH1 0x20 DUP2 DUP4 SUB SUB DUP2 MSTORE SWAP1 PUSH1 0x40 MSTORE DUP1 MLOAD SWAP1 PUSH1 0x20 ADD KECCAK256 SWAP1 POP SWAP2 SWAP1 POP JUMP JUMPDEST PUSH2 0x1E00 DUP3 DUP3 PUSH2 0xFA3 JUMP JUMPDEST PUSH2 0xE30 JUMPI PUSH2 0x1E0D DUP2 PUSH2 0x1F0F JUMP JUMPDEST PUSH2 0x1E18 DUP4 PUSH1 0x20 PUSH2 0x1F21 JUMP JUMPDEST PUSH1 0x40 MLOAD PUSH1 0x20 ADD PUSH2 0x1E29 SWAP3 SWAP2 SWAP1 PUSH2 0x2E5B JUMP JUMPDEST PUSH1 0x40 DUP1 MLOAD PUSH1 0x1F NOT DUP2 DUP5 SUB ADD DUP2 MSTORE SWAP1 DUP3 SWAP1 MSTORE PUSH3 0x461BCD PUSH1 0xE5 SHL DUP3 MSTORE PUSH2 0x566 SWAP2 PUSH1 0x4 ADD PUSH2 0x2ED0 JUMP JUMPDEST PUSH1 0x0 PUSH2 0x3FD PUSH2 0x1E5C PUSH2 0x20C3 JUMP JUMPDEST DUP4 PUSH1 0x40 MLOAD PUSH2 0x1901 PUSH1 0xF0 SHL PUSH1 0x20 DUP3 ADD MSTORE PUSH1 0x22 DUP2 ADD DUP4 SWAP1 MSTORE PUSH1 0x42 DUP2 ADD DUP3 SWAP1 MSTORE PUSH1 0x0 SWAP1 PUSH1 0x62 ADD PUSH1 0x40 MLOAD PUSH1 0x20 DUP2 DUP4 SUB SUB DUP2 MSTORE SWAP1 PUSH1 0x40 MSTORE DUP1 MLOAD SWAP1 PUSH1 0x20 ADD KECCAK256 SWAP1 POP SWAP3 SWAP2 POP POP JUMP JUMPDEST PUSH1 0x0 PUSH2 0x1EA9 DUP4 DUP4 PUSH2 0x21EA JUMP JUMPDEST PUSH1 0x1 PUSH1 0x1 PUSH1 0xA0 SHL SUB AND DUP5 PUSH1 0x1 PUSH1 0x1 PUSH1 0xA0 SHL SUB AND EQ SWAP1 POP SWAP4 SWAP3 POP POP POP JUMP JUMPDEST PUSH1 0x2 SLOAD PUSH1 0xFF AND PUSH2 0x151D JUMPI PUSH1 0x40 MLOAD PUSH3 0x461BCD PUSH1 0xE5 SHL DUP2 MSTORE PUSH1 0x20 PUSH1 0x4 DUP3 ADD MSTORE PUSH1 0x14 PUSH1 0x24 DUP3 ADD MSTORE PUSH20 0x14185D5CD8589B194E881B9BDD081C185D5CD959 PUSH1 0x62 SHL PUSH1 0x44 DUP3 ADD MSTORE PUSH1 0x64 ADD PUSH2 0x566 JUMP JUMPDEST PUSH1 0x60 PUSH2 0x3FD PUSH1 0x1 PUSH1 0x1 PUSH1 0xA0 SHL SUB DUP4 AND PUSH1 0x14 JUMPDEST PUSH1 0x60 PUSH1 0x0 PUSH2 0x1F30 DUP4 PUSH1 0x2 PUSH2 0x2EE3 JUMP JUMPDEST PUSH2 0x1F3B SWAP1 PUSH1 0x2 PUSH2 0x2A1D JUMP JUMPDEST PUSH1 0x1 PUSH1 0x1 PUSH1 0x40 SHL SUB DUP2 GT ISZERO PUSH2 0x1F52 JUMPI PUSH2 0x1F52 PUSH2 0x24B0 JUMP JUMPDEST PUSH1 0x40 MLOAD SWAP1 DUP1 DUP3 MSTORE DUP1 PUSH1 0x1F ADD PUSH1 0x1F NOT AND PUSH1 0x20 ADD DUP3 ADD PUSH1 0x40 MSTORE DUP1 ISZERO PUSH2 0x1F7C JUMPI PUSH1 0x20 DUP3 ADD DUP2 DUP1 CALLDATASIZE DUP4 CALLDATACOPY ADD SWAP1 POP JUMPDEST POP SWAP1 POP PUSH1 0x3 PUSH1 0xFC SHL DUP2 PUSH1 0x0 DUP2 MLOAD DUP2 LT PUSH2 0x1F97 JUMPI PUSH2 0x1F97 PUSH2 0x283D JUMP JUMPDEST PUSH1 0x20 ADD ADD SWAP1 PUSH1 0x1 PUSH1 0x1 PUSH1 0xF8 SHL SUB NOT AND SWAP1 DUP2 PUSH1 0x0 BYTE SWAP1 MSTORE8 POP PUSH1 0xF PUSH1 0xFB SHL DUP2 PUSH1 0x1 DUP2 MLOAD DUP2 LT PUSH2 0x1FC6 JUMPI PUSH2 0x1FC6 PUSH2 0x283D JUMP JUMPDEST PUSH1 0x20 ADD ADD SWAP1 PUSH1 0x1 PUSH1 0x1 PUSH1 0xF8 SHL SUB NOT AND SWAP1 DUP2 PUSH1 0x0 BYTE SWAP1 MSTORE8 POP PUSH1 0x0 PUSH2 0x1FEA DUP5 PUSH1 0x2 PUSH2 0x2EE3 JUMP JUMPDEST PUSH2 0x1FF5 SWAP1 PUSH1 0x1 PUSH2 0x2A1D JUMP JUMPDEST SWAP1 POP JUMPDEST PUSH1 0x1 DUP2 GT ISZERO PUSH2 0x206D JUMPI PUSH16 0x181899199A1A9B1B9C1CB0B131B232B3 PUSH1 0x81 SHL DUP6 PUSH1 0xF AND PUSH1 0x10 DUP2 LT PUSH2 0x2029 JUMPI PUSH2 0x2029 PUSH2 0x283D JUMP JUMPDEST BYTE PUSH1 0xF8 SHL DUP3 DUP3 DUP2 MLOAD DUP2 LT PUSH2 0x203F JUMPI PUSH2 0x203F PUSH2 0x283D JUMP JUMPDEST PUSH1 0x20 ADD ADD SWAP1 PUSH1 0x1 PUSH1 0x1 PUSH1 0xF8 SHL SUB NOT AND SWAP1 DUP2 PUSH1 0x0 BYTE SWAP1 MSTORE8 POP PUSH1 0x4 SWAP5 SWAP1 SWAP5 SHR SWAP4 PUSH2 0x2066 DUP2 PUSH2 0x2EFA JUMP JUMPDEST SWAP1 POP PUSH2 0x1FF8 JUMP JUMPDEST POP DUP4 ISZERO PUSH2 0x20BC JUMPI PUSH1 0x40 MLOAD PUSH3 0x461BCD PUSH1 0xE5 SHL DUP2 MSTORE PUSH1 0x20 PUSH1 0x4 DUP3 ADD DUP2 SWAP1 MSTORE PUSH1 0x24 DUP3 ADD MSTORE PUSH32 0x537472696E67733A20686578206C656E67746820696E73756666696369656E74 PUSH1 0x44 DUP3 ADD MSTORE PUSH1 0x64 ADD PUSH2 0x566 JUMP JUMPDEST SWAP4 SWAP3 POP POP POP JUMP JUMPDEST PUSH1 0x0 ADDRESS PUSH1 0x1 PUSH1 0x1 PUSH1 0xA0 SHL SUB PUSH32 0x0 AND EQ DUP1 ISZERO PUSH2 0x211C JUMPI POP PUSH32 0x0 CHAINID EQ JUMPDEST ISZERO PUSH2 0x2146 JUMPI POP PUSH32 0x0 SWAP1 JUMP JUMPDEST POP PUSH1 0x40 DUP1 MLOAD PUSH32 0x0 PUSH1 0x20 DUP1 DUP4 ADD SWAP2 SWAP1 SWAP2 MSTORE PUSH32 0x0 DUP3 DUP5 ADD MSTORE PUSH32 0x0 PUSH1 0x60 DUP4 ADD MSTORE CHAINID PUSH1 0x80 DUP4 ADD MSTORE ADDRESS PUSH1 0xA0 DUP1 DUP5 ADD SWAP2 SWAP1 SWAP2 MSTORE DUP4 MLOAD DUP1 DUP5 SUB SWAP1 SWAP2 ADD DUP2 MSTORE PUSH1 0xC0 SWAP1 SWAP3 ADD SWAP1 SWAP3 MSTORE DUP1 MLOAD SWAP2 ADD KECCAK256 SWAP1 JUMP JUMPDEST PUSH1 0x0 DUP1 PUSH1 0x0 PUSH2 0x21F9 DUP6 DUP6 PUSH2 0x220E JUMP JUMPDEST SWAP2 POP SWAP2 POP PUSH2 0x2206 DUP2 PUSH2 0x2253 JUMP JUMPDEST POP SWAP4 SWAP3 POP POP POP JUMP JUMPDEST PUSH1 0x0 DUP1 DUP3 MLOAD PUSH1 0x41 SUB PUSH2 0x2244 JUMPI PUSH1 0x20 DUP4 ADD MLOAD PUSH1 0x40 DUP5 ADD MLOAD PUSH1 0x60 DUP6 ADD MLOAD PUSH1 0x0 BYTE PUSH2 0x2238 DUP8 DUP3 DUP6 DUP6 PUSH2 0x239D JUMP JUMPDEST SWAP5 POP SWAP5 POP POP POP POP PUSH2 0x224C JUMP JUMPDEST POP PUSH1 0x0 SWAP1 POP PUSH1 0x2 JUMPDEST SWAP3 POP SWAP3 SWAP1 POP JUMP JUMPDEST PUSH1 0x0 DUP2 PUSH1 0x4 DUP2 GT ISZERO PUSH2 0x2267 JUMPI PUSH2 0x2267 PUSH2 0x2F11 JUMP JUMPDEST SUB PUSH2 0x226F JUMPI POP JUMP JUMPDEST PUSH1 0x1 DUP2 PUSH1 0x4 DUP2 GT ISZERO PUSH2 0x2283 JUMPI PUSH2 0x2283 PUSH2 0x2F11 JUMP JUMPDEST SUB PUSH2 0x22D0 JUMPI PUSH1 0x40 MLOAD PUSH3 0x461BCD PUSH1 0xE5 SHL DUP2 MSTORE PUSH1 0x20 PUSH1 0x4 DUP3 ADD MSTORE PUSH1 0x18 PUSH1 0x24 DUP3 ADD MSTORE PUSH32 0x45434453413A20696E76616C6964207369676E61747572650000000000000000 PUSH1 0x44 DUP3 ADD MSTORE PUSH1 0x64 ADD PUSH2 0x566 JUMP JUMPDEST PUSH1 0x2 DUP2 PUSH1 0x4 DUP2 GT ISZERO PUSH2 0x22E4 JUMPI PUSH2 0x22E4 PUSH2 0x2F11 JUMP JUMPDEST SUB PUSH2 0x2331 JUMPI PUSH1 0x40 MLOAD PUSH3 0x461BCD PUSH1 0xE5 SHL DUP2 MSTORE PUSH1 0x20 PUSH1 0x4 DUP3 ADD MSTORE PUSH1 0x1F PUSH1 0x24 DUP3 ADD MSTORE PUSH32 0x45434453413A20696E76616C6964207369676E6174757265206C656E67746800 PUSH1 0x44 DUP3 ADD MSTORE PUSH1 0x64 ADD PUSH2 0x566 JUMP JUMPDEST PUSH1 0x3 DUP2 PUSH1 0x4 DUP2 GT ISZERO PUSH2 0x2345 JUMPI PUSH2 0x2345 PUSH2 0x2F11 JUMP JUMPDEST SUB PUSH2 0xF8D JUMPI PUSH1 0x40 MLOAD PUSH3 0x461BCD PUSH1 0xE5 SHL DUP2 MSTORE PUSH1 0x20 PUSH1 0x4 DUP3 ADD MSTORE PUSH1 0x22 PUSH1 0x24 DUP3 ADD MSTORE PUSH32 0x45434453413A20696E76616C6964207369676E6174757265202773272076616C PUSH1 0x44 DUP3 ADD MSTORE PUSH2 0x7565 PUSH1 0xF0 SHL PUSH1 0x64 DUP3 ADD MSTORE PUSH1 0x84 ADD PUSH2 0x566 JUMP JUMPDEST PUSH1 0x0 DUP1 PUSH32 0x7FFFFFFFFFFFFFFFFFFFFFFFFFFFFFFF5D576E7357A4501DDFE92F46681B20A0 DUP4 GT ISZERO PUSH2 0x23D4 JUMPI POP PUSH1 0x0 SWAP1 POP PUSH1 0x3 PUSH2 0x2458 JUMP JUMPDEST PUSH1 0x40 DUP1 MLOAD PUSH1 0x0 DUP1 DUP3 MSTORE PUSH1 0x20 DUP3 ADD DUP1 DUP5 MSTORE DUP10 SWAP1 MSTORE PUSH1 0xFF DUP9 AND SWAP3 DUP3 ADD SWAP3 SWAP1 SWAP3 MSTORE PUSH1 0x60 DUP2 ADD DUP7 SWAP1 MSTORE PUSH1 0x80 DUP2 ADD DUP6 SWAP1 MSTORE PUSH1 0x1 SWAP1 PUSH1 0xA0 ADD PUSH1 0x20 PUSH1 0x40 MLOAD PUSH1 0x20 DUP2 SUB SWAP1 DUP1 DUP5 SUB SWAP1 DUP6 GAS STATICCALL ISZERO DUP1 ISZERO PUSH2 0x2428 JUMPI RETURNDATASIZE PUSH1 0x0 DUP1 RETURNDATACOPY RETURNDATASIZE PUSH1 0x0 REVERT JUMPDEST POP POP PUSH1 0x40 MLOAD PUSH1 0x1F NOT ADD MLOAD SWAP2 POP POP PUSH1 0x1 PUSH1 0x1 PUSH1 0xA0 SHL SUB DUP2 AND PUSH2 0x2451 JUMPI PUSH1 0x0 PUSH1 0x1 SWAP3 POP SWAP3 POP POP PUSH2 0x2458 JUMP JUMPDEST SWAP2 POP PUSH1 0x0 SWAP1 POP JUMPDEST SWAP5 POP SWAP5 SWAP3 POP POP POP JUMP JUMPDEST PUSH1 0x0 PUSH1 0x20 DUP3 DUP5 SUB SLT ISZERO PUSH2 0x2473 JUMPI PUSH1 0x0 DUP1 REVERT JUMPDEST DUP2 CALLDATALOAD PUSH1 0x1 PUSH1 0x1 PUSH1 0xE0 SHL SUB NOT DUP2 AND DUP2 EQ PUSH2 0x20BC JUMPI PUSH1 0x0 DUP1 REVERT JUMPDEST PUSH1 0x1 PUSH1 0x1 PUSH1 0xA0 SHL SUB DUP2 AND DUP2 EQ PUSH2 0xF8D JUMPI PUSH1 0x0 DUP1 REVERT JUMPDEST DUP1 CALLDATALOAD PUSH2 0x24AB DUP2 PUSH2 0x248B JUMP JUMPDEST SWAP2 SWAP1 POP JUMP JUMPDEST PUSH4 0x4E487B71 PUSH1 0xE0 SHL PUSH1 0x0 MSTORE PUSH1 0x41 PUSH1 0x4 MSTORE PUSH1 0x24 PUSH1 0x0 REVERT JUMPDEST PUSH1 0x40 MLOAD PUSH2 0x1A0 DUP2 ADD PUSH1 0x1 PUSH1 0x1 PUSH1 0x40 SHL SUB DUP2 GT DUP3 DUP3 LT OR ISZERO PUSH2 0x24E9 JUMPI PUSH2 0x24E9 PUSH2 0x24B0 JUMP JUMPDEST PUSH1 0x40 MSTORE SWAP1 JUMP JUMPDEST PUSH1 0x0 PUSH1 0x1 PUSH1 0x1 PUSH1 0x40 SHL SUB DUP1 DUP5 GT ISZERO PUSH2 0x2509 JUMPI PUSH2 0x2509 PUSH2 0x24B0 JUMP JUMPDEST PUSH1 0x40 MLOAD PUSH1 0x1F DUP6 ADD PUSH1 0x1F NOT SWAP1 DUP2 AND PUSH1 0x3F ADD AND DUP2 ADD SWAP1 DUP3 DUP3 GT DUP2 DUP4 LT OR ISZERO PUSH2 0x2531 JUMPI PUSH2 0x2531 PUSH2 0x24B0 JUMP JUMPDEST DUP2 PUSH1 0x40 MSTORE DUP1 SWAP4 POP DUP6 DUP2 MSTORE DUP7 DUP7 DUP7 ADD GT ISZERO PUSH2 0x254A JUMPI PUSH1 0x0 DUP1 REVERT JUMPDEST DUP6 DUP6 PUSH1 0x20 DUP4 ADD CALLDATACOPY PUSH1 0x0 PUSH1 0x20 DUP8 DUP4 ADD ADD MSTORE POP POP POP SWAP4 SWAP3 POP POP POP JUMP JUMPDEST PUSH1 0x0 DUP3 PUSH1 0x1F DUP4 ADD SLT PUSH2 0x2575 JUMPI PUSH1 0x0 DUP1 REVERT JUMPDEST PUSH2 0x20BC DUP4 DUP4 CALLDATALOAD PUSH1 0x20 DUP6 ADD PUSH2 0x24EF JUMP JUMPDEST PUSH1 0x0 DUP1 PUSH1 0x0 PUSH1 0x60 DUP5 DUP7 SUB SLT ISZERO PUSH2 0x2599 JUMPI PUSH1 0x0 DUP1 REVERT JUMPDEST DUP4 CALLDATALOAD PUSH2 0x25A4 DUP2 PUSH2 0x248B JUMP JUMPDEST SWAP3 POP PUSH1 0x20 DUP5 ADD CALLDATALOAD SWAP2 POP PUSH1 0x40 DUP5 ADD CALLDATALOAD PUSH1 0x1 PUSH1 0x1 PUSH1 0x40 SHL SUB DUP2 GT ISZERO PUSH2 0x25C6 JUMPI PUSH1 0x0 DUP1 REVERT JUMPDEST PUSH2 0x25D2 DUP7 DUP3 DUP8 ADD PUSH2 0x2564 JUMP JUMPDEST SWAP2 POP POP SWAP3 POP SWAP3 POP SWAP3 JUMP JUMPDEST PUSH1 0x0 PUSH1 0x20 DUP3 DUP5 SUB SLT ISZERO PUSH2 0x25EE JUMPI PUSH1 0x0 DUP1 REVERT JUMPDEST POP CALLDATALOAD SWAP2 SWAP1 POP JUMP JUMPDEST PUSH1 0x0 PUSH1 0x20 DUP3 DUP5 SUB SLT ISZERO PUSH2 0x2607 JUMPI PUSH1 0x0 DUP1 REVERT JUMPDEST DUP2 CALLDATALOAD PUSH2 0x20BC DUP2 PUSH2 0x248B JUMP JUMPDEST PUSH1 0x0 DUP1 PUSH1 0x40 DUP4 DUP6 SUB SLT ISZERO PUSH2 0x2625 JUMPI PUSH1 0x0 DUP1 REVERT JUMPDEST DUP3 CALLDATALOAD SWAP2 POP PUSH1 0x20 DUP4 ADD CALLDATALOAD PUSH2 0x2637 DUP2 PUSH2 0x248B JUMP JUMPDEST DUP1 SWAP2 POP POP SWAP3 POP SWAP3 SWAP1 POP JUMP JUMPDEST PUSH1 0x0 DUP1 DUP4 PUSH1 0x1F DUP5 ADD SLT PUSH2 0x2654 JUMPI PUSH1 0x0 DUP1 REVERT JUMPDEST POP DUP2 CALLDATALOAD PUSH1 0x1 PUSH1 0x1 PUSH1 0x40 SHL SUB DUP2 GT ISZERO PUSH2 0x266B JUMPI PUSH1 0x0 DUP1 REVERT JUMPDEST PUSH1 0x20 DUP4 ADD SWAP2 POP DUP4 PUSH1 0x20 DUP3 PUSH1 0x5 SHL DUP6 ADD ADD GT ISZERO PUSH2 0x224C JUMPI PUSH1 0x0 DUP1 REVERT JUMPDEST PUSH1 0x0 DUP1 PUSH1 0x20 DUP4 DUP6 SUB SLT ISZERO PUSH2 0x2699 JUMPI PUSH1 0x0 DUP1 REVERT JUMPDEST DUP3 CALLDATALOAD PUSH1 0x1 PUSH1 0x1 PUSH1 0x40 SHL SUB DUP2 GT ISZERO PUSH2 0x26AF JUMPI PUSH1 0x0 DUP1 REVERT JUMPDEST PUSH2 0x26BB DUP6 DUP3 DUP7 ADD PUSH2 0x2642 JUMP JUMPDEST SWAP1 SWAP7 SWAP1 SWAP6 POP SWAP4 POP POP POP POP JUMP JUMPDEST DUP1 ISZERO ISZERO DUP2 EQ PUSH2 0xF8D JUMPI PUSH1 0x0 DUP1 REVERT JUMPDEST DUP1 CALLDATALOAD PUSH2 0x24AB DUP2 PUSH2 0x26C7 JUMP JUMPDEST PUSH1 0x0 DUP1 PUSH1 0x40 DUP4 DUP6 SUB SLT ISZERO PUSH2 0x26F3 JUMPI PUSH1 0x0 DUP1 REVERT JUMPDEST DUP3 CALLDATALOAD PUSH2 0x26FE DUP2 PUSH2 0x248B JUMP JUMPDEST SWAP2 POP PUSH1 0x20 DUP4 ADD CALLDATALOAD PUSH2 0x2637 DUP2 PUSH2 0x26C7 JUMP JUMPDEST DUP1 CALLDATALOAD PUSH1 0x1 PUSH1 0x1 PUSH1 0x60 SHL SUB DUP2 AND DUP2 EQ PUSH2 0x24AB JUMPI PUSH1 0x0 DUP1 REVERT JUMPDEST PUSH1 0x0 PUSH1 0x20 DUP3 DUP5 SUB SLT ISZERO PUSH2 0x2737 JUMPI PUSH1 0x0 DUP1 REVERT JUMPDEST PUSH2 0x20BC DUP3 PUSH2 0x270E JUMP JUMPDEST PUSH1 0x1 PUSH1 0x1 PUSH1 0xE0 SHL SUB NOT SWAP2 SWAP1 SWAP2 AND DUP2 MSTORE PUSH1 0x20 ADD SWAP1 JUMP JUMPDEST PUSH1 0x0 PUSH1 0x20 DUP3 DUP5 SUB SLT ISZERO PUSH2 0x2767 JUMPI PUSH1 0x0 DUP1 REVERT JUMPDEST DUP2 MLOAD PUSH2 0x20BC DUP2 PUSH2 0x26C7 JUMP JUMPDEST PUSH1 0x0 PUSH1 0x20 DUP3 DUP5 SUB SLT ISZERO PUSH2 0x2784 JUMPI PUSH1 0x0 DUP1 REVERT JUMPDEST DUP2 MLOAD PUSH2 0x20BC DUP2 PUSH2 0x248B JUMP JUMPDEST PUSH1 0x0 JUMPDEST DUP4 DUP2 LT ISZERO PUSH2 0x27AA JUMPI DUP2 DUP2 ADD MLOAD DUP4 DUP3 ADD MSTORE PUSH1 0x20 ADD PUSH2 0x2792 JUMP JUMPDEST POP POP PUSH1 0x0 SWAP2 ADD MSTORE JUMP JUMPDEST PUSH1 0x0 DUP2 MLOAD DUP1 DUP5 MSTORE PUSH2 0x27CB DUP2 PUSH1 0x20 DUP7 ADD PUSH1 0x20 DUP7 ADD PUSH2 0x278F JUMP JUMPDEST PUSH1 0x1F ADD PUSH1 0x1F NOT AND SWAP3 SWAP1 SWAP3 ADD PUSH1 0x20 ADD SWAP3 SWAP2 POP POP JUMP JUMPDEST DUP3 DUP2 MSTORE PUSH1 0x40 PUSH1 0x20 DUP3 ADD MSTORE PUSH1 0x0 PUSH2 0x27F8 PUSH1 0x40 DUP4 ADD DUP5 PUSH2 0x27B3 JUMP JUMPDEST SWAP5 SWAP4 POP POP POP POP JUMP JUMPDEST PUSH1 0x1 PUSH1 0x1 PUSH1 0xA0 SHL SUB DUP6 DUP2 AND DUP3 MSTORE DUP5 AND PUSH1 0x20 DUP3 ADD MSTORE PUSH1 0x40 DUP2 ADD DUP4 SWAP1 MSTORE PUSH1 0x80 PUSH1 0x60 DUP3 ADD DUP2 SWAP1 MSTORE PUSH1 0x0 SWAP1 PUSH2 0x2833 SWAP1 DUP4 ADD DUP5 PUSH2 0x27B3 JUMP JUMPDEST SWAP7 SWAP6 POP POP POP POP POP POP JUMP JUMPDEST PUSH4 0x4E487B71 PUSH1 0xE0 SHL PUSH1 0x0 MSTORE PUSH1 0x32 PUSH1 0x4 MSTORE PUSH1 0x24 PUSH1 0x0 REVERT JUMPDEST PUSH1 0x0 DUP3 CALLDATALOAD PUSH1 0x5E NOT DUP4 CALLDATASIZE SUB ADD DUP2 SLT PUSH2 0x2869 JUMPI PUSH1 0x0 DUP1 REVERT JUMPDEST SWAP2 SWAP1 SWAP2 ADD SWAP3 SWAP2 POP POP JUMP JUMPDEST PUSH1 0x0 PUSH2 0x1A0 DUP3 DUP5 SUB SLT ISZERO PUSH2 0x2886 JUMPI PUSH1 0x0 DUP1 REVERT JUMPDEST PUSH2 0x288E PUSH2 0x24C6 JUMP JUMPDEST SWAP1 POP PUSH2 0x2899 DUP3 PUSH2 0x24A0 JUMP JUMPDEST DUP2 MSTORE PUSH1 0x20 DUP3 ADD CALLDATALOAD PUSH1 0x20 DUP3 ADD MSTORE PUSH2 0x28B1 PUSH1 0x40 DUP4 ADD PUSH2 0x24A0 JUMP JUMPDEST PUSH1 0x40 DUP3 ADD MSTORE PUSH2 0x28C2 PUSH1 0x60 DUP4 ADD PUSH2 0x26D5 JUMP JUMPDEST PUSH1 0x60 DUP3 ADD MSTORE PUSH1 0x80 DUP3 ADD CALLDATALOAD PUSH1 0x80 DUP3 ADD MSTORE PUSH1 0xA0 DUP3 ADD CALLDATALOAD PUSH1 0x1 PUSH1 0x1 PUSH1 0x40 SHL SUB DUP2 GT ISZERO PUSH2 0x28EA JUMPI PUSH1 0x0 DUP1 REVERT JUMPDEST PUSH2 0x28F6 DUP5 DUP3 DUP6 ADD PUSH2 0x2564 JUMP JUMPDEST PUSH1 0xA0 DUP4 ADD MSTORE POP PUSH1 0xC0 DUP3 ADD CALLDATALOAD PUSH1 0xC0 DUP3 ADD MSTORE PUSH1 0xE0 DUP3 ADD CALLDATALOAD PUSH1 0xE0 DUP3 ADD MSTORE PUSH2 0x100 PUSH2 0x291E DUP2 DUP5 ADD PUSH2 0x24A0 JUMP JUMPDEST SWAP1 DUP3 ADD MSTORE PUSH2 0x120 PUSH2 0x2930 DUP4 DUP3 ADD PUSH2 0x270E JUMP JUMPDEST SWAP1 DUP3 ADD MSTORE PUSH2 0x140 PUSH2 0x2942 DUP4 DUP3 ADD PUSH2 0x270E JUMP JUMPDEST SWAP1 DUP3 ADD MSTORE PUSH2 0x160 DUP3 DUP2 ADD CALLDATALOAD SWAP1 DUP3 ADD MSTORE PUSH2 0x180 SWAP2 DUP3 ADD CALLDATALOAD SWAP2 DUP2 ADD SWAP2 SWAP1 SWAP2 MSTORE SWAP2 SWAP1 POP JUMP JUMPDEST PUSH1 0x0 PUSH1 0x60 DUP3 CALLDATASIZE SUB SLT ISZERO PUSH2 0x2976 JUMPI PUSH1 0x0 DUP1 REVERT JUMPDEST PUSH1 0x40 MLOAD PUSH1 0x60 DUP2 ADD PUSH1 0x1 PUSH1 0x1 PUSH1 0x40 SHL SUB DUP3 DUP3 LT DUP2 DUP4 GT OR ISZERO PUSH2 0x2999 JUMPI PUSH2 0x2999 PUSH2 0x24B0 JUMP JUMPDEST DUP2 PUSH1 0x40 MSTORE DUP5 CALLDATALOAD SWAP2 POP DUP1 DUP3 GT ISZERO PUSH2 0x29AE JUMPI PUSH1 0x0 DUP1 REVERT JUMPDEST PUSH2 0x29BA CALLDATASIZE DUP4 DUP8 ADD PUSH2 0x2873 JUMP JUMPDEST DUP4 MSTORE PUSH1 0x20 DUP6 ADD CALLDATALOAD PUSH1 0x20 DUP5 ADD MSTORE PUSH1 0x40 DUP6 ADD CALLDATALOAD SWAP2 POP DUP1 DUP3 GT ISZERO PUSH2 0x29DA JUMPI PUSH1 0x0 DUP1 REVERT JUMPDEST POP DUP4 ADD CALLDATASIZE PUSH1 0x1F DUP3 ADD SLT PUSH2 0x29EC JUMPI PUSH1 0x0 DUP1 REVERT JUMPDEST PUSH2 0x29FB CALLDATASIZE DUP3 CALLDATALOAD PUSH1 0x20 DUP5 ADD PUSH2 0x24EF JUMP JUMPDEST PUSH1 0x40 DUP4 ADD MSTORE POP SWAP3 SWAP2 POP POP JUMP JUMPDEST PUSH4 0x4E487B71 PUSH1 0xE0 SHL PUSH1 0x0 MSTORE PUSH1 0x11 PUSH1 0x4 MSTORE PUSH1 0x24 PUSH1 0x0 REVERT JUMPDEST DUP1 DUP3 ADD DUP1 DUP3 GT ISZERO PUSH2 0x3FD JUMPI PUSH2 0x3FD PUSH2 0x2A07 JUMP JUMPDEST PUSH1 0x1 DUP1 PUSH1 0xA0 SHL SUB DUP6 AND DUP2 MSTORE DUP4 PUSH1 0x20 DUP3 ADD MSTORE PUSH1 0x1 PUSH1 0x1 PUSH1 0x60 SHL SUB DUP4 AND PUSH1 0x40 DUP3 ADD MSTORE PUSH1 0x80 PUSH1 0x60 DUP3 ADD MSTORE PUSH1 0x0 PUSH2 0x2833 PUSH1 0x80 DUP4 ADD DUP5 PUSH2 0x27B3 JUMP JUMPDEST PUSH1 0x0 DUP1 PUSH1 0x40 DUP4 DUP6 SUB SLT ISZERO PUSH2 0x2A79 JUMPI PUSH1 0x0 DUP1 REVERT JUMPDEST DUP3 MLOAD PUSH2 0x2A84 DUP2 PUSH2 0x248B JUMP JUMPDEST PUSH1 0x20 SWAP4 SWAP1 SWAP4 ADD MLOAD SWAP3 SWAP5 SWAP3 SWAP4 POP POP POP JUMP JUMPDEST PUSH1 0x0 DUP1 DUP4 CALLDATALOAD PUSH1 0x1E NOT DUP5 CALLDATASIZE SUB ADD DUP2 SLT PUSH2 0x2AAB JUMPI PUSH1 0x0 DUP1 REVERT JUMPDEST DUP4 ADD PUSH1 0x20 DUP2 ADD SWAP3 POP CALLDATALOAD SWAP1 POP PUSH1 0x1 PUSH1 0x1 PUSH1 0x40 SHL SUB DUP2 GT ISZERO PUSH2 0x2ACA JUMPI PUSH1 0x0 DUP1 REVERT JUMPDEST DUP1 CALLDATASIZE SUB DUP3 SGT ISZERO PUSH2 0x224C JUMPI PUSH1 0x0 DUP1 REVERT JUMPDEST DUP2 DUP4 MSTORE DUP2 DUP2 PUSH1 0x20 DUP6 ADD CALLDATACOPY POP PUSH1 0x0 DUP3 DUP3 ADD PUSH1 0x20 SWAP1 DUP2 ADD SWAP2 SWAP1 SWAP2 MSTORE PUSH1 0x1F SWAP1 SWAP2 ADD PUSH1 0x1F NOT AND SWAP1 SWAP2 ADD ADD SWAP1 JUMP JUMPDEST PUSH1 0x0 DUP2 MLOAD DUP1 DUP5 MSTORE PUSH1 0x20 DUP1 DUP6 ADD SWAP5 POP DUP1 DUP5 ADD PUSH1 0x0 JUMPDEST DUP4 DUP2 LT ISZERO PUSH2 0x2B34 JUMPI DUP2 MLOAD ISZERO ISZERO DUP8 MSTORE SWAP6 DUP3 ADD SWAP6 SWAP1 DUP3 ADD SWAP1 PUSH1 0x1 ADD PUSH2 0x2B16 JUMP JUMPDEST POP SWAP5 SWAP6 SWAP5 POP POP POP POP POP JUMP JUMPDEST PUSH1 0x0 DUP2 MLOAD DUP1 DUP5 MSTORE PUSH1 0x20 DUP1 DUP6 ADD SWAP5 POP DUP5 DUP3 PUSH1 0x5 SHL DUP7 ADD DUP3 DUP7 ADD PUSH1 0x0 JUMPDEST DUP6 DUP2 LT ISZERO PUSH2 0x2B84 JUMPI DUP4 DUP4 SUB DUP10 MSTORE PUSH2 0x2B72 DUP4 DUP4 MLOAD PUSH2 0x27B3 JUMP JUMPDEST SWAP9 DUP6 ADD SWAP9 SWAP3 POP SWAP1 DUP5 ADD SWAP1 PUSH1 0x1 ADD PUSH2 0x2B5A JUMP JUMPDEST POP SWAP1 SWAP8 SWAP7 POP POP POP POP POP POP POP JUMP JUMPDEST PUSH1 0x0 DUP2 MLOAD DUP1 DUP5 MSTORE PUSH1 0x20 DUP1 DUP6 ADD SWAP5 POP DUP1 DUP5 ADD PUSH1 0x0 JUMPDEST DUP4 DUP2 LT ISZERO PUSH2 0x2B34 JUMPI DUP2 MLOAD DUP8 MSTORE SWAP6 DUP3 ADD SWAP6 SWAP1 DUP3 ADD SWAP1 PUSH1 0x1 ADD PUSH2 0x2BA5 JUMP JUMPDEST PUSH1 0x80 DUP1 DUP3 MSTORE DUP2 DUP2 ADD DUP7 SWAP1 MSTORE PUSH1 0x0 SWAP1 PUSH1 0xA0 DUP1 DUP5 ADD PUSH1 0x5 DUP10 SWAP1 SHL DUP6 ADD DUP3 ADD DUP11 DUP6 JUMPDEST DUP12 DUP2 LT ISZERO PUSH2 0x2D8D JUMPI DUP8 DUP4 SUB PUSH1 0x9F NOT ADD DUP5 MSTORE DUP2 CALLDATALOAD CALLDATASIZE DUP15 SWAP1 SUB PUSH1 0x5E NOT ADD DUP2 SLT PUSH2 0x2C06 JUMPI PUSH1 0x0 DUP1 REVERT JUMPDEST DUP14 ADD PUSH1 0x60 DUP2 CALLDATALOAD CALLDATASIZE DUP4 SWAP1 SUB PUSH2 0x19E NOT ADD DUP2 SLT PUSH2 0x2C20 JUMPI PUSH1 0x0 DUP1 REVERT JUMPDEST DUP2 DUP7 MSTORE DUP3 ADD PUSH2 0x2C41 DUP7 DUP4 ADD PUSH2 0x2C34 DUP4 PUSH2 0x24A0 JUMP JUMPDEST PUSH1 0x1 PUSH1 0x1 PUSH1 0xA0 SHL SUB AND SWAP1 MSTORE JUMP JUMPDEST PUSH1 0x20 DUP1 DUP3 ADD CALLDATALOAD DUP11 DUP9 ADD MSTORE PUSH1 0x40 PUSH2 0x2C58 DUP2 DUP5 ADD PUSH2 0x24A0 JUMP JUMPDEST PUSH1 0x1 PUSH1 0x1 PUSH1 0xA0 SHL SUB AND DUP11 DUP10 ADD MSTORE PUSH2 0x2C70 DUP4 DUP6 ADD PUSH2 0x26D5 JUMP JUMPDEST SWAP4 POP PUSH1 0xC0 PUSH2 0x2C81 DUP2 DUP11 ADD DUP7 ISZERO ISZERO SWAP1 MSTORE JUMP JUMPDEST PUSH1 0xE0 SWAP5 POP DUP12 DUP5 ADD CALLDATALOAD DUP6 DUP11 ADD MSTORE PUSH2 0x2C99 DUP12 DUP6 ADD DUP6 PUSH2 0x2A94 JUMP JUMPDEST PUSH2 0x1A0 PUSH2 0x100 DUP2 DUP2 DUP15 ADD MSTORE PUSH2 0x2CB3 PUSH2 0x200 DUP15 ADD DUP5 DUP7 PUSH2 0x2AD9 JUMP JUMPDEST SWAP4 POP PUSH2 0x120 SWAP3 POP DUP5 DUP9 ADD CALLDATALOAD DUP4 DUP15 ADD MSTORE PUSH2 0x140 SWAP5 POP DUP9 DUP9 ADD CALLDATALOAD DUP6 DUP15 ADD MSTORE PUSH2 0x2CDA DUP2 DUP10 ADD PUSH2 0x24A0 JUMP JUMPDEST SWAP9 POP POP PUSH2 0x160 PUSH2 0x2CF4 DUP2 DUP15 ADD DUP11 PUSH1 0x1 PUSH1 0x1 PUSH1 0xA0 SHL SUB AND SWAP1 MSTORE JUMP JUMPDEST PUSH2 0x2CFF DUP4 DUP10 ADD PUSH2 0x270E JUMP JUMPDEST SWAP9 POP PUSH2 0x180 SWAP3 POP PUSH2 0x2D1A DUP4 DUP15 ADD DUP11 PUSH1 0x1 PUSH1 0x1 PUSH1 0x60 SHL SUB AND SWAP1 MSTORE JUMP JUMPDEST PUSH2 0x2D25 DUP6 DUP10 ADD PUSH2 0x270E JUMP JUMPDEST PUSH1 0x1 PUSH1 0x1 PUSH1 0x60 SHL SUB DUP2 AND DUP15 DUP5 ADD MSTORE SWAP9 POP DUP8 ADD CALLDATALOAD PUSH2 0x1C0 DUP14 ADD MSTORE POP DUP6 ADD CALLDATALOAD PUSH2 0x1E0 DUP12 ADD MSTORE DUP7 DUP5 ADD CALLDATALOAD DUP5 DUP12 ADD MSTORE PUSH2 0x2D5C DUP4 DUP9 ADD DUP9 PUSH2 0x2A94 JUMP JUMPDEST SWAP8 POP SWAP6 POP DUP10 DUP2 SUB DUP4 DUP12 ADD MSTORE PUSH2 0x2D72 DUP2 DUP9 DUP9 PUSH2 0x2AD9 JUMP JUMPDEST SWAP11 DUP5 ADD SWAP11 SWAP10 POP POP POP SWAP6 ADD SWAP5 POP POP POP PUSH1 0x1 SWAP2 SWAP1 SWAP2 ADD SWAP1 POP PUSH2 0x2BE0 JUMP JUMPDEST POP POP DUP6 DUP2 SUB PUSH1 0x20 DUP8 ADD MSTORE PUSH2 0x2DA1 DUP2 DUP11 PUSH2 0x2B02 JUMP JUMPDEST SWAP4 POP POP POP POP DUP3 DUP2 SUB PUSH1 0x40 DUP5 ADD MSTORE PUSH2 0x2DB8 DUP2 DUP7 PUSH2 0x2B3F JUMP JUMPDEST SWAP1 POP DUP3 DUP2 SUB PUSH1 0x60 DUP5 ADD MSTORE PUSH2 0x2DCC DUP2 DUP6 PUSH2 0x2B91 JUMP JUMPDEST SWAP9 SWAP8 POP POP POP POP POP POP POP POP JUMP JUMPDEST PUSH1 0x0 DUP3 CALLDATALOAD PUSH2 0x19E NOT DUP4 CALLDATASIZE SUB ADD DUP2 SLT PUSH2 0x2869 JUMPI PUSH1 0x0 DUP1 REVERT JUMPDEST PUSH1 0x0 PUSH2 0x3FD CALLDATASIZE DUP4 PUSH2 0x2873 JUMP JUMPDEST PUSH1 0x60 DUP2 MSTORE PUSH1 0x0 PUSH2 0x2E0E PUSH1 0x60 DUP4 ADD DUP7 PUSH2 0x2B02 JUMP JUMPDEST DUP3 DUP2 SUB PUSH1 0x20 DUP5 ADD MSTORE PUSH2 0x2E20 DUP2 DUP7 PUSH2 0x2B3F JUMP JUMPDEST SWAP1 POP DUP3 DUP2 SUB PUSH1 0x40 DUP5 ADD MSTORE PUSH2 0x2833 DUP2 DUP6 PUSH2 0x2B91 JUMP JUMPDEST PUSH1 0x1 PUSH1 0x1 PUSH1 0x60 SHL SUB DUP2 DUP2 AND DUP4 DUP3 AND ADD SWAP1 DUP1 DUP3 GT ISZERO PUSH2 0x2E54 JUMPI PUSH2 0x2E54 PUSH2 0x2A07 JUMP JUMPDEST POP SWAP3 SWAP2 POP POP JUMP JUMPDEST PUSH32 0x416363657373436F6E74726F6C3A206163636F756E7420000000000000000000 DUP2 MSTORE PUSH1 0x0 DUP4 MLOAD PUSH2 0x2E93 DUP2 PUSH1 0x17 DUP6 ADD PUSH1 0x20 DUP9 ADD PUSH2 0x278F JUMP JUMPDEST PUSH17 0x1034B99036B4B9B9B4B733903937B6329 PUSH1 0x7D SHL PUSH1 0x17 SWAP2 DUP5 ADD SWAP2 DUP3 ADD MSTORE DUP4 MLOAD PUSH2 0x2EC4 DUP2 PUSH1 0x28 DUP5 ADD PUSH1 0x20 DUP9 ADD PUSH2 0x278F JUMP JUMPDEST ADD PUSH1 0x28 ADD SWAP5 SWAP4 POP POP POP POP JUMP JUMPDEST PUSH1 0x20 DUP2 MSTORE PUSH1 0x0 PUSH2 0x20BC PUSH1 0x20 DUP4 ADD DUP5 PUSH2 0x27B3 JUMP JUMPDEST DUP1 DUP3 MUL DUP2 ISZERO DUP3 DUP3 DIV DUP5 EQ OR PUSH2 0x3FD JUMPI PUSH2 0x3FD PUSH2 0x2A07 JUMP JUMPDEST PUSH1 0x0 DUP2 PUSH2 0x2F09 JUMPI PUSH2 0x2F09 PUSH2 0x2A07 JUMP JUMPDEST POP PUSH1 0x0 NOT ADD SWAP1 JUMP JUMPDEST PUSH4 0x4E487B71 PUSH1 0xE0 SHL PUSH1 0x0 MSTORE PUSH1 0x21 PUSH1 0x4 MSTORE PUSH1 0x24 PUSH1 0x0 REVERT INVALID SELFBALANCE TIMESTAMP 0x4D PUSH2 0x726B PUSH6 0x74706C616365 GASPRICE KECCAK256 0x49 PUSH15 0x73756666696369656E742066756E64 PUSH20 0x47424D61726B6574706C6163653A204F72646572 KECCAK256 PUSH10 0x7320616C726561647920 PUSH17 0x726F63657373656447424D61726B657470 PUSH13 0x6163653A20496E76616C696420 PUSH16 0x726465722063616E63656C6C65722E47 TIMESTAMP 0x4D PUSH2 0x726B PUSH6 0x74706C616365 GASPRICE KECCAK256 PUSH15 0x6674436F6E74726163742061646472 PUSH6 0x7373206D7573 PUSH21 0x206E6F74206265207A65726F206164647265737347 TIMESTAMP 0x4D PUSH2 0x726B PUSH6 0x74706C616365 GASPRICE KECCAK256 PUSH19 0x6F79616C747920666565206D757374206E6F74 KECCAK256 PUSH3 0x652067 PUSH19 0x6561746572207468616E203130302547424D61 PUSH19 0x6B6574706C6163653A2073656C6C6572206164 PUSH5 0x7265737320 PUSH14 0x757374206E6F7420626520636F6E PUSH21 0x72616374206164647265737347424D61726B657470 PUSH13 0x6163653A206368617269747920 PUSH2 0x6464 PUSH19 0x657373206D757374206E6F74206265207A6572 PUSH16 0x206164647265737347424D61726B6574 PUSH17 0x6C6163653A20746F74616C20666565206D PUSH22 0x7374206265206C657373207468616E20313030254742 0x4D PUSH2 0x726B PUSH6 0x74706C616365 GASPRICE KECCAK256 0x4E CHAINID SLOAD KECCAK256 PUSH24 0x6173206E6F7420617070726F7665642066726F6D2073656C PUSH13 0x657247424D61726B6574706C61 PUSH4 0x653A204E CHAINID SLOAD KECCAK256 POP PUSH19 0x696365206D7573742062652067726561746572 KECCAK256 PUSH21 0x68616E203047424D61726B6574706C6163653A2063 PUSH9 0x617269747920706572 PUSH4 0x656E7461 PUSH8 0x65206D7573742062 PUSH6 0x206265747765 PUSH6 0x6E2031302520 PUSH2 0x6E64 KECCAK256 BALANCE ADDRESS ADDRESS 0x25 SELFBALANCE TIMESTAMP 0x4D PUSH2 0x726B PUSH6 0x74706C616365 GASPRICE KECCAK256 0x4F PUSH19 0x64657220697320616C72656164792063616E63 PUSH6 0x6C6C6564A264 PUSH10 0x70667358221220340AB2 0xE3 0xBE 0x25 GASPRICE 0xA6 DUP9 0xB2 RETURN EXP 0x22 SWAP4 PUSH20 0xE616188C2D611259EE47C268A086892B6064736F PUSH13 0x63430008110033000000000000 "},"methodIdentifiers":{"DEFAULT_ADMIN_ROLE()":"a217fddf","buyItems(((address,uint256,address,bool,uint256,string,uint256,uint256,address,uint96,uint96,uint256,uint256),uint256,bytes)[])":"34e001d3","cancelOrders((address,uint256,address,bool,uint256,string,uint256,uint256,address,uint96,uint96,uint256,uint256)[])":"dab93b0a","gbNftContracts(address)":"27df5389","getRoleAdmin(bytes32)":"248a9ca3","grantRole(bytes32,address)":"2f2ff15d","hasRole(bytes32,address)":"91d14854","orderCancelled(bytes32)":"5889bf5e","orderProcessed(bytes32)":"68b35a13","pause()":"8456cb59","paused()":"5c975abb","platformFee()":"26232a2e","renounceRole(bytes32,address)":"36568abe","revokeRole(bytes32,address)":"d547741f","setAdminWallet(address)":"35082933","setNftContractAddress(address,bool)":"c0dd3695","setPlatformFee(uint96)":"f99e5dbb","supportsInterface(bytes4)":"01ffc9a7","unpause()":"3f4ba83a","updateTokenURI(address,uint256,string)":"0fcd7f8f"}},"storageLayout":{"storage":[{"astId":24,"contract":"contracts/GBMarketplace.sol:GBMarketplace","label":"_roles","offset":0,"slot":"0","type":"t_mapping(t_bytes32,t_struct(RoleData)19_storage)"},{"astId":526,"contract":"contracts/GBMarketplace.sol:GBMarketplace","label":"_status","offset":0,"slot":"1","type":"t_uint256"},{"astId":425,"contract":"contracts/GBMarketplace.sol:GBMarketplace","label":"_paused","offset":0,"slot":"2","type":"t_bool"},{"astId":2840,"contract":"contracts/GBMarketplace.sol:GBMarketplace","label":"gbNftContracts","offset":0,"slot":"3","type":"t_mapping(t_address,t_bool)"},{"astId":2844,"contract":"contracts/GBMarketplace.sol:GBMarketplace","label":"orderCancelled","offset":0,"slot":"4","type":"t_mapping(t_bytes32,t_bool)"},{"astId":2848,"contract":"contracts/GBMarketplace.sol:GBMarketplace","label":"orderProcessed","offset":0,"slot":"5","type":"t_mapping(t_bytes32,t_bool)"},{"astId":2850,"contract":"contracts/GBMarketplace.sol:GBMarketplace","label":"adminWallet","offset":0,"slot":"6","type":"t_address"},{"astId":2853,"contract":"contracts/GBMarketplace.sol:GBMarketplace","label":"platformFee","offset":20,"slot":"6","type":"t_uint96"}],"types":{"t_address":{"encoding":"inplace","label":"address","numberOfBytes":"20"},"t_bool":{"encoding":"inplace","label":"bool","numberOfBytes":"1"},"t_bytes32":{"encoding":"inplace","label":"bytes32","numberOfBytes":"32"},"t_mapping(t_address,t_bool)":{"encoding":"mapping","key":"t_address","label":"mapping(address => bool)","numberOfBytes":"32","value":"t_bool"},"t_mapping(t_bytes32,t_bool)":{"encoding":"mapping","key":"t_bytes32","label":"mapping(bytes32 => bool)","numberOfBytes":"32","value":"t_bool"},"t_mapping(t_bytes32,t_struct(RoleData)19_storage)":{"encoding":"mapping","key":"t_bytes32","label":"mapping(bytes32 => struct AccessControl.RoleData)","numberOfBytes":"32","value":"t_struct(RoleData)19_storage"},"t_struct(RoleData)19_storage":{"encoding":"inplace","label":"struct AccessControl.RoleData","members":[{"astId":16,"contract":"contracts/GBMarketplace.sol:GBMarketplace","label":"members","offset":0,"slot":"0","type":"t_mapping(t_address,t_bool)"},{"astId":18,"contract":"contracts/GBMarketplace.sol:GBMarketplace","label":"adminRole","offset":0,"slot":"1","type":"t_bytes32"}],"numberOfBytes":"64"},"t_uint256":{"encoding":"inplace","label":"uint256","numberOfBytes":"32"},"t_uint96":{"encoding":"inplace","label":"uint96","numberOfBytes":"12"}}}}}}