{"contracts/library/Domain.sol":{"Domain":{"abi":[{"inputs":[],"name":"ADD_SINGLE_ITEM_TYPEHASH","outputs":[{"internalType":"bytes32","name":"","type":"bytes32"}],"stateMutability":"view","type":"function"},{"inputs":[],"name":"BUY_ITEM_TYPEHASH","outputs":[{"internalType":"bytes32","name":"","type":"bytes32"}],"stateMutability":"view","type":"function"},{"inputs":[],"name":"TEST_TYPEHASH","outputs":[{"internalType":"bytes32","name":"","type":"bytes32"}],"stateMutability":"view","type":"function"},{"inputs":[],"name":"UPDATE_TOKENURI_TYPEHASH","outputs":[{"internalType":"bytes32","name":"","type":"bytes32"}],"stateMutability":"view","type":"function"}],"evm":{"bytecode":{"linkReferences":{},"object":"61013f61003a600b82828239805160001a60731461002d57634e487b7160e01b600052600060045260246000fd5b30600052607381538281f3fe73000000000000000000000000000000000000000030146080604052600436106100565760003560e01c8063454321821461005b5780634acfd79514610094578063cee4d50a146100bb578063e7e89c7d146100e2575b600080fd5b6100827f17267e3c9a41fdc4878f6c57751034dfbbf7febe7592905bfe881b17e566ed2b81565b60405190815260200160405180910390f35b6100827f3b8fb4f63ef890bd0c5c826cb2ee3ecdeae16f25e9a4efae10944b4e586bd2e981565b6100827f485787466c6bb756e23877696afb1ffef4d4f7daa150be930943445b9efd5abc81565b6100827fd7414a21ae7fe6c7ae7ba4fc193977b266778b52f64e202866e96f1d30267f7f8156fea264697066735822122020acb6735f2e2ebab666616d2fa6c334894f3adf3a6df84b3cbb1fa1e9c4a1f864736f6c63430008110033","opcodes":"PUSH2 0x13F PUSH2 0x3A PUSH1 0xB DUP3 DUP3 DUP3 CODECOPY DUP1 MLOAD PUSH1 0x0 BYTE PUSH1 0x73 EQ PUSH2 0x2D JUMPI PUSH4 0x4E487B71 PUSH1 0xE0 SHL PUSH1 0x0 MSTORE PUSH1 0x0 PUSH1 0x4 MSTORE PUSH1 0x24 PUSH1 0x0 REVERT JUMPDEST ADDRESS PUSH1 0x0 MSTORE PUSH1 0x73 DUP2 MSTORE8 DUP3 DUP2 RETURN INVALID PUSH20 0x0 ADDRESS EQ PUSH1 0x80 PUSH1 0x40 MSTORE PUSH1 0x4 CALLDATASIZE LT PUSH2 0x56 JUMPI PUSH1 0x0 CALLDATALOAD PUSH1 0xE0 SHR DUP1 PUSH4 0x45432182 EQ PUSH2 0x5B JUMPI DUP1 PUSH4 0x4ACFD795 EQ PUSH2 0x94 JUMPI DUP1 PUSH4 0xCEE4D50A EQ PUSH2 0xBB JUMPI DUP1 PUSH4 0xE7E89C7D EQ PUSH2 0xE2 JUMPI JUMPDEST PUSH1 0x0 DUP1 REVERT JUMPDEST PUSH2 0x82 PUSH32 0x17267E3C9A41FDC4878F6C57751034DFBBF7FEBE7592905BFE881B17E566ED2B DUP2 JUMP JUMPDEST PUSH1 0x40 MLOAD SWAP1 DUP2 MSTORE PUSH1 0x20 ADD PUSH1 0x40 MLOAD DUP1 SWAP2 SUB SWAP1 RETURN JUMPDEST PUSH2 0x82 PUSH32 0x3B8FB4F63EF890BD0C5C826CB2EE3ECDEAE16F25E9A4EFAE10944B4E586BD2E9 DUP2 JUMP JUMPDEST PUSH2 0x82 PUSH32 0x485787466C6BB756E23877696AFB1FFEF4D4F7DAA150BE930943445B9EFD5ABC DUP2 JUMP JUMPDEST PUSH2 0x82 PUSH32 0xD7414A21AE7FE6C7AE7BA4FC193977B266778B52F64E202866E96F1D30267F7F DUP2 JUMP INVALID LOG2 PUSH5 0x6970667358 0x22 SLT KECCAK256 KECCAK256 0xAC 0xB6 PUSH20 0x5F2E2EBAB666616D2FA6C334894F3ADF3A6DF84B EXTCODECOPY 0xBB 0x1F LOG1 0xE9 0xC4 LOG1 0xF8 PUSH5 0x736F6C6343 STOP ADDMOD GT STOP CALLER "},"methodIdentifiers":{"ADD_SINGLE_ITEM_TYPEHASH()":"e7e89c7d","BUY_ITEM_TYPEHASH()":"45432182","TEST_TYPEHASH()":"4acfd795","UPDATE_TOKENURI_TYPEHASH()":"cee4d50a"}},"storageLayout":{"storage":[],"types":null}}}}