{"contracts/GBMarketplace.sol":{"GBMarketplace":{"abi":[{"inputs":[{"internalType":"address","name":"owner","type":"address"},{"internalType":"address","name":"verifyRoleAddress","type":"address"},{"internalType":"address","name":"adminWallet_","type":"address"}],"stateMutability":"nonpayable","type":"constructor"},{"anonymous":false,"inputs":[{"indexed":false,"internalType":"address","name":"collection","type":"address"},{"indexed":false,"internalType":"address","name":"from","type":"address"},{"indexed":false,"internalType":"uint256[]","name":"tokenIds","type":"uint256[]"},{"indexed":false,"internalType":"string[]","name":"tokenURIs","type":"string[]"},{"indexed":false,"internalType":"uint96","name":"royaltyFee","type":"uint96"},{"indexed":false,"internalType":"address","name":"artistAddress","type":"address"}],"name":"AddedMultiplePrimaryItems","type":"event"},{"anonymous":false,"inputs":[{"indexed":false,"internalType":"address","name":"collection","type":"address"},{"indexed":false,"internalType":"address","name":"from","type":"address"},{"indexed":false,"internalType":"uint256","name":"tokenId","type":"uint256"},{"indexed":false,"internalType":"string","name":"tokenURI","type":"string"},{"indexed":false,"internalType":"uint96","name":"royaltyFee","type":"uint96"}],"name":"AddedSingleItem","type":"event"},{"anonymous":false,"inputs":[{"components":[{"internalType":"address","name":"account","type":"address"},{"internalType":"address","name":"collection","type":"address"},{"internalType":"address","name":"seller","type":"address"},{"internalType":"uint256","name":"tokenId","type":"uint256"},{"internalType":"uint256","name":"itemPrice","type":"uint256"},{"internalType":"uint256","name":"additionalPrice","type":"uint256"},{"internalType":"address","name":"charityAddress","type":"address"},{"internalType":"uint96","name":"charityFee","type":"uint96"},{"internalType":"uint256","name":"deadline","type":"uint256"},{"internalType":"uint256","name":"nonce","type":"uint256"}],"indexed":false,"internalType":"struct Domain.BuyItem","name":"item","type":"tuple"}],"name":"BoughtItem","type":"event"},{"anonymous":false,"inputs":[{"indexed":false,"internalType":"address","name":"account","type":"address"}],"name":"Paused","type":"event"},{"anonymous":false,"inputs":[{"indexed":true,"internalType":"bytes32","name":"role","type":"bytes32"},{"indexed":true,"internalType":"bytes32","name":"previousAdminRole","type":"bytes32"},{"indexed":true,"internalType":"bytes32","name":"newAdminRole","type":"bytes32"}],"name":"RoleAdminChanged","type":"event"},{"anonymous":false,"inputs":[{"indexed":true,"internalType":"bytes32","name":"role","type":"bytes32"},{"indexed":true,"internalType":"address","name":"account","type":"address"},{"indexed":true,"internalType":"address","name":"sender","type":"address"}],"name":"RoleGranted","type":"event"},{"anonymous":false,"inputs":[{"indexed":true,"internalType":"bytes32","name":"role","type":"bytes32"},{"indexed":true,"internalType":"address","name":"account","type":"address"},{"indexed":true,"internalType":"address","name":"sender","type":"address"}],"name":"RoleRevoked","type":"event"},{"anonymous":false,"inputs":[{"indexed":false,"internalType":"address","name":"account","type":"address"}],"name":"SetAdminWallet","type":"event"},{"anonymous":false,"inputs":[{"indexed":false,"internalType":"address","name":"collectionAddress","type":"address"},{"indexed":false,"internalType":"bool","name":"status","type":"bool"}],"name":"SetCollectionAddress","type":"event"},{"anonymous":false,"inputs":[{"indexed":false,"internalType":"uint96","name":"platformFee","type":"uint96"}],"name":"SetPlatformFee","type":"event"},{"anonymous":false,"inputs":[{"indexed":false,"internalType":"address","name":"verifyRoleAddress","type":"address"}],"name":"SetVerifyRole","type":"event"},{"anonymous":false,"inputs":[{"indexed":false,"internalType":"address","name":"account","type":"address"}],"name":"Unpaused","type":"event"},{"anonymous":false,"inputs":[{"indexed":false,"internalType":"address","name":"collection","type":"address"},{"indexed":false,"internalType":"address","name":"from","type":"address"},{"indexed":false,"internalType":"uint256","name":"tokenId","type":"uint256"},{"indexed":false,"internalType":"string","name":"tokenURI","type":"string"}],"name":"UpdatedTokenURI","type":"event"},{"inputs":[],"name":"DEFAULT_ADMIN_ROLE","outputs":[{"internalType":"bytes32","name":"","type":"bytes32"}],"stateMutability":"view","type":"function"},{"inputs":[],"name":"VERIFY_ROLE","outputs":[{"internalType":"bytes32","name":"","type":"bytes32"}],"stateMutability":"view","type":"function"},{"inputs":[{"internalType":"address","name":"collection","type":"address"},{"internalType":"uint256[]","name":"tokenIds","type":"uint256[]"},{"internalType":"uint96","name":"royaltyFee","type":"uint96"},{"internalType":"string[]","name":"tokenURIs","type":"string[]"},{"internalType":"address","name":"artistAddress","type":"address"}],"name":"addPrimaryMultipleItems","outputs":[],"stateMutability":"nonpayable","type":"function"},{"inputs":[{"components":[{"internalType":"address","name":"account","type":"address"},{"internalType":"address","name":"collection","type":"address"},{"internalType":"uint256","name":"tokenId","type":"uint256"},{"internalType":"uint96","name":"royaltyFee","type":"uint96"},{"internalType":"string","name":"tokenURI","type":"string"},{"internalType":"uint256","name":"deadline","type":"uint256"},{"internalType":"uint256","name":"nonce","type":"uint256"}],"internalType":"struct Domain.AddSingleItem","name":"item","type":"tuple"},{"internalType":"bytes","name":"signature","type":"bytes"}],"name":"addSingleItem","outputs":[],"stateMutability":"nonpayable","type":"function"},{"inputs":[{"components":[{"internalType":"address","name":"account","type":"address"},{"internalType":"address","name":"collection","type":"address"},{"internalType":"address","name":"seller","type":"address"},{"internalType":"uint256","name":"tokenId","type":"uint256"},{"internalType":"uint256","name":"itemPrice","type":"uint256"},{"internalType":"uint256","name":"additionalPrice","type":"uint256"},{"internalType":"address","name":"charityAddress","type":"address"},{"internalType":"uint96","name":"charityFee","type":"uint96"},{"internalType":"uint256","name":"deadline","type":"uint256"},{"internalType":"uint256","name":"nonce","type":"uint256"}],"internalType":"struct Domain.BuyItem","name":"item","type":"tuple"},{"internalType":"bytes","name":"signature","type":"bytes"}],"name":"buyItem","outputs":[],"stateMutability":"payable","type":"function"},{"inputs":[{"internalType":"address","name":"","type":"address"}],"name":"gbCollection","outputs":[{"internalType":"bool","name":"","type":"bool"}],"stateMutability":"view","type":"function"},{"inputs":[{"internalType":"bytes32","name":"role","type":"bytes32"}],"name":"getRoleAdmin","outputs":[{"internalType":"bytes32","name":"","type":"bytes32"}],"stateMutability":"view","type":"function"},{"inputs":[{"internalType":"bytes32","name":"role","type":"bytes32"},{"internalType":"address","name":"account","type":"address"}],"name":"grantRole","outputs":[],"stateMutability":"nonpayable","type":"function"},{"inputs":[{"internalType":"bytes32","name":"role","type":"bytes32"},{"internalType":"address","name":"account","type":"address"}],"name":"hasRole","outputs":[{"internalType":"bool","name":"","type":"bool"}],"stateMutability":"view","type":"function"},{"inputs":[{"internalType":"address","name":"","type":"address"},{"internalType":"uint256","name":"","type":"uint256"}],"name":"itemInfo","outputs":[{"internalType":"address","name":"royaltyAddress","type":"address"},{"internalType":"uint96","name":"royaltyFee","type":"uint96"},{"internalType":"bool","name":"isPrimaryCollection","type":"bool"}],"stateMutability":"view","type":"function"},{"inputs":[{"components":[{"internalType":"address","name":"account","type":"address"},{"internalType":"uint256","name":"nonce","type":"uint256"}],"internalType":"struct Domain.MyTest","name":"item","type":"tuple"},{"internalType":"bytes","name":"signature","type":"bytes"}],"name":"myTest","outputs":[],"stateMutability":"nonpayable","type":"function"},{"inputs":[{"internalType":"address","name":"","type":"address"}],"name":"nonces","outputs":[{"internalType":"uint256","name":"","type":"uint256"}],"stateMutability":"view","type":"function"},{"inputs":[],"name":"pause","outputs":[],"stateMutability":"nonpayable","type":"function"},{"inputs":[],"name":"paused","outputs":[{"internalType":"bool","name":"","type":"bool"}],"stateMutability":"view","type":"function"},{"inputs":[],"name":"platformFee","outputs":[{"internalType":"uint96","name":"","type":"uint96"}],"stateMutability":"view","type":"function"},{"inputs":[{"internalType":"bytes32","name":"role","type":"bytes32"},{"internalType":"address","name":"account","type":"address"}],"name":"renounceRole","outputs":[],"stateMutability":"nonpayable","type":"function"},{"inputs":[{"internalType":"bytes32","name":"role","type":"bytes32"},{"internalType":"address","name":"account","type":"address"}],"name":"revokeRole","outputs":[],"stateMutability":"nonpayable","type":"function"},{"inputs":[{"internalType":"address","name":"adminWallet_","type":"address"}],"name":"setAdminWallet","outputs":[],"stateMutability":"nonpayable","type":"function"},{"inputs":[{"internalType":"address","name":"collectionAddress","type":"address"},{"internalType":"bool","name":"isCollection","type":"bool"}],"name":"setGBCollectionAddress","outputs":[],"stateMutability":"nonpayable","type":"function"},{"inputs":[{"internalType":"uint96","name":"platformFee_","type":"uint96"}],"name":"setPlatformFee","outputs":[],"stateMutability":"nonpayable","type":"function"},{"inputs":[{"internalType":"address","name":"verifyRoleAddress","type":"address"}],"name":"setVerifyRole","outputs":[],"stateMutability":"nonpayable","type":"function"},{"inputs":[{"internalType":"bytes4","name":"interfaceId","type":"bytes4"}],"name":"supportsInterface","outputs":[{"internalType":"bool","name":"","type":"bool"}],"stateMutability":"view","type":"function"},{"inputs":[],"name":"unpause","outputs":[],"stateMutability":"nonpayable","type":"function"},{"inputs":[{"components":[{"internalType":"address","name":"account","type":"address"},{"internalType":"address","name":"collection","type":"address"},{"internalType":"uint256","name":"tokenId","type":"uint256"},{"internalType":"string","name":"tokenURI","type":"string"},{"internalType":"uint256","name":"deadline","type":"uint256"},{"internalType":"uint256","name":"nonce","type":"uint256"}],"internalType":"struct Domain.UpdateTokenURI","name":"tokenUriInfo","type":"tuple"},{"internalType":"bytes","name":"signature","type":"bytes"}],"name":"updateTokenURI","outputs":[],"stateMutability":"nonpayable","type":"function"}],"evm":{"bytecode":{"linkReferences":{},"object":"610140604052600680546001600160a01b0316607d60a11b1790553480156200002757600080fd5b50604051620036cd380380620036cd8339810160408190526200004a9162000278565b604080518082018252600d81526c47424d61726b6574706c61636560981b6020808301918252835180850190945260058452640312e302e360dc1b908401528151902060e08190527f06c015bd22b4c69690933c1058878ebdfef31f9aaae40bbe86d8a09fe1b2972c6101008190524660a0529192917f8b73c3c69bb8fe3d512ecc4cf759cc79239f7b179b0ffacaa9a75d522b39400f620001318184846040805160208101859052908101839052606081018290524660808201523060a082015260009060c0016040516020818303038152906040528051906020012090509392505050565b6080523060c0526101205250506001805550506002805460ff19169055600680546001600160a01b0319166001600160a01b03831617905562000176600084620001ab565b620001a27fd262a1e181ec035692bcc8c920b971bccc173d5263f104f91c1561b5033679dd83620001ab565b505050620002c2565b620001b78282620001bb565b5050565b6000828152602081815260408083206001600160a01b038516845290915290205460ff16620001b7576000828152602081815260408083206001600160a01b03851684529091529020805460ff19166001179055620002173390565b6001600160a01b0316816001600160a01b0316837f2f8788117e7eff1d82e926ec794901d17c78024a50270940304540a733656f0d60405160405180910390a45050565b80516001600160a01b03811681146200027357600080fd5b919050565b6000806000606084860312156200028e57600080fd5b62000299846200025b565b9250620002a9602085016200025b565b9150620002b9604085016200025b565b90509250925092565b60805160a05160c05160e05161010051610120516133bb6200031260003960006122d801526000612327015260006123020152600061225b01526000612285015260006122af01526133bb6000f3fe60806040526004361061014b5760003560e01c806390bb447f116100b6578063c46f23f41161006f578063c46f23f414610438578063d41d0e5c14610458578063d547741f1461048c578063e20c7153146104ac578063e806fdd1146104cc578063f99e5dbb146104ec57600080fd5b806390bb447f1461037357806391d14854146103a357806394ae3881146103c3578063a217fddf146103e3578063ae3771b4146103f8578063b9bca0da1461041857600080fd5b806336568abe1161010857806336568abe146102d15780633f4ba83a146102f15780635c975abb146103065780637ecebe001461031e578063811f6b761461034b5780638456cb591461035e57600080fd5b806301ffc9a7146101505780631cdaab6714610185578063248a9ca31461021257806326232a2e146102505780632f2ff15d1461028f57806335082933146102b1575b600080fd5b34801561015c57600080fd5b5061017061016b366004612844565b61050c565b60405190151581526020015b60405180910390f35b34801561019157600080fd5b506101e36101a0366004612893565b6005602090815260009283526040808420909152908252902080546001909101546001600160a01b03821691600160a01b90046001600160601b03169060ff1683565b604080516001600160a01b0390941684526001600160601b03909216602084015215159082015260600161017c565b34801561021e57600080fd5b5061024261022d3660046128bf565b60009081526020819052604090206001015490565b60405190815260200161017c565b34801561025c57600080fd5b5060065461027790600160a01b90046001600160601b031681565b6040516001600160601b03909116815260200161017c565b34801561029b57600080fd5b506102af6102aa3660046128d8565b61051d565b005b3480156102bd57600080fd5b506102af6102cc366004612908565b610547565b3480156102dd57600080fd5b506102af6102ec3660046128d8565b610618565b3480156102fd57600080fd5b506102af610696565b34801561031257600080fd5b5060025460ff16610170565b34801561032a57600080fd5b50610242610339366004612908565b60046020526000908152604090205481565b6102af610359366004612967565b6106ac565b34801561036a57600080fd5b506102af610e61565b34801561037f57600080fd5b5061017061038e366004612908565b60036020526000908152604090205460ff1681565b3480156103af57600080fd5b506101706103be3660046128d8565b610e74565b3480156103cf57600080fd5b506102af6103de366004612a20565b610e9d565b3480156103ef57600080fd5b50610242600081565b34801561040457600080fd5b506102af610413366004612aca565b611206565b34801561042457600080fd5b506102af610433366004612b2e565b611572565b34801561044457600080fd5b506102af610453366004612908565b61188d565b34801561046457600080fd5b506102427fd262a1e181ec035692bcc8c920b971bccc173d5263f104f91c1561b5033679dd81565b34801561049857600080fd5b506102af6104a73660046128d8565b611965565b3480156104b857600080fd5b506102af6104c7366004612b6f565b61198a565b3480156104d857600080fd5b506102af6104e7366004612ba2565b611a65565b3480156104f857600080fd5b506102af610507366004612be4565b611b04565b600061051782611bcc565b92915050565b60008281526020819052604090206001015461053881611c01565b6105428383611c0b565b505050565b600061055281611c01565b6001600160a01b0382166105c25760405162461bcd60e51b815260206004820152602c60248201527f61646d696e57616c6c65742061646472657373206d757374206e6f742062652060448201526b7a65726f206164647265737360a01b60648201526084015b60405180910390fd5b600680546001600160a01b0319166001600160a01b0384169081179091556040519081527f1b651cfd0a3f185590087e7e632381434dfada46f037b9081264f9f5bdbfcd9b906020015b60405180910390a15050565b6001600160a01b03811633146106885760405162461bcd60e51b815260206004820152602f60248201527f416363657373436f6e74726f6c3a2063616e206f6e6c792072656e6f756e636560448201526e103937b632b9903337b91039b2b63360891b60648201526084016105b9565b6106928282611c8f565b5050565b60006106a181611c01565b6106a9611cf4565b50565b6002600154036106ce5760405162461bcd60e51b81526004016105b990612bff565b60026001556106db611d46565b60006106ed6040850160208601612908565b6001600160a01b0316036107135760405162461bcd60e51b81526004016105b990612c36565b6107236060840160408501612908565b6001600160a01b03163b156107a05760405162461bcd60e51b815260206004820152603a60248201527f47424d61726b6574706c6163653a2073656c6c65722061646472657373206d7560448201527f7374206e6f7420626520636f6e7472616374206164647265737300000000000060648201526084016105b9565b60006107b260e0850160c08601612908565b6001600160a01b03160361082e5760405162461bcd60e51b815260206004820152603760248201527f47424d61726b6574706c6163653a20636861726974792061646472657373206d60448201527f757374206e6f74206265207a65726f206164647265737300000000000000000060648201526084016105b9565b6103e8610842610100850160e08601612be4565b6001600160601b0316101580156108745750612710610868610100850160e08601612be4565b6001600160601b031611155b6108e65760405162461bcd60e51b815260206004820152603e60248201527f47424d61726b6574706c6163653a20636861726974792070657263656e74616760448201527f65206d757374206265206265747765656e2031302520616e642031303025000060648201526084016105b9565b60006005816108fb6040870160208801612908565b6001600160a01b039081168252602080830193909352604091820160009081206060808a013583529085529083902083519182018452805492831682526001600160601b03600160a01b93849004811695830186905260019091015460ff16151593820193909352600654909450612710939291900416610983610100880160e08901612be4565b61098d9190612ca9565b6109979190612ca9565b6001600160601b03161115610a065760405162461bcd60e51b815260206004820152602f60248201527f47424d61726b6574706c6163653a20746f74616c20666565206d75737420626560448201526e206c657373207468616e203130302560881b60648201526084016105b9565b6000846080013511610a725760405162461bcd60e51b815260206004820152602f60248201527f47424d61726b6574706c6163653a204e4654205072696365206d75737420626560448201526e02067726561746572207468616e203608c1b60648201526084016105b9565b610a8460a08501356080860135612cd0565b341015610add5760405162461bcd60e51b815260206004820152602160248201527f47424d61726b6574706c6163653a20496e73756666696369656e742066756e646044820152607360f81b60648201526084016105b9565b836101000135421115610b025760405162461bcd60e51b81526004016105b990612ce3565b60036000610b166040870160208801612908565b6001600160a01b0316815260208101919091526040016000205460ff16610b4f5760405162461bcd60e51b81526004016105b990612d18565b33600090815260046020526040902054610bb0610b74610b6f8784611d8e565b611e9d565b85858080601f016020809104026020016040519081016040528093929190818152602001838380828437600092019190915250611eb092505050565b610bcc5760405162461bcd60e51b81526004016105b990612d61565b6000610bfe6080870135610be7610100890160e08a01612be4565b6127106001600160601b0391909116919091020490565b9050610c26610c1360e0880160c08901612908565b610c2160a089013584612cd0565b611ee7565b600080610c396040890160208a01612908565b60405163152a902d60e11b815260608a0135600482015260808a013560248201526001600160a01b039190911690632a55205a906044016040805180830381865afa158015610c8c573d6000803e3d6000fd5b505050506040513d601f19601f82011682018060405250810190610cb09190612d8c565b91509150610cbe8282611ee7565b60065461271060808a0135600160a01b83046001600160601b0316020490610cef906001600160a01b031682611ee7565b6080890135849003829003818103908214610d6957866040015115610d56576000610d1b600283612dba565b9050610d36610d3060608d0160408e01612908565b82611ee7565b600654610d50906001600160a01b0316610c218385612ddc565b50610d69565b610d69610d3060608c0160408d01612908565b3360009081526004602090815260409182902080546001019055610d91918c01908c01612908565b6001600160a01b03166342842e0e610daf60608d0160408e01612908565b336040516001600160e01b031960e085901b1681526001600160a01b0392831660048201529116602482015260608d01356044820152606401600060405180830381600087803b158015610e0257600080fd5b505af1158015610e16573d6000803e3d6000fd5b505050507fb238def85b84e39431a81cf74571c9e05efa135b52dd670762d0d300f04402968a604051610e499190612def565b60405180910390a15050600180555050505050505050565b6000610e6c81611c01565b6106a9612000565b6000918252602082815260408084206001600160a01b0393909316845291905290205460ff1690565b600260015403610ebf5760405162461bcd60e51b81526004016105b990612bff565b6002600155610ecc611d46565b6000610ed781611c01565b6001600160a01b038816610efd5760405162461bcd60e51b81526004016105b990612c36565b858314610f725760405162461bcd60e51b815260206004820152603a60248201527f47424d61726b6574706c6163653a20746f6b656e49647320616e6420746f6b6560448201527f6e55524973206c656e677468206d75737420626520657175616c00000000000060648201526084016105b9565b6001600160a01b03881660009081526003602052604090205460ff16610faa5760405162461bcd60e51b81526004016105b990612d18565b60005b868110156111b2576000888883818110610fc957610fc9612eb3565b9050602002013511610fed5760405162461bcd60e51b81526004016105b990612ec9565b604080516060810182526001600160a01b0380861682526001600160601b038916602080840191909152600183850152908c166000908152600590915291822090918a8a8581811061104157611041612eb3565b602090810292909201358352508181019290925260409081016000208351928401516001600160601b0316600160a01b026001600160a01b039384161781559201516001909201805492151560ff1990931692909217909155891663e5bff2e4848a8a858181106110b4576110b4612eb3565b90506020020135898989878181106110ce576110ce612eb3565b90506020028101906110e09190612f19565b6040518663ffffffff1660e01b8152600401611100959493929190612f89565b600060405180830381600087803b15801561111a57600080fd5b505af115801561112e573d6000803e3d6000fd5b505050507f723a7f75732cc7c49d80e424f8f880b978246d5e12bd498d41d6a39240e2c67889848a8a8581811061116757611167612eb3565b9050602002013588888681811061118057611180612eb3565b90506020028101906111929190612f19565b8b6040516111a596959493929190612fcb565b60405180910390a1610fad565b507fa74b74a78619f24285b7c1638ce8aca155445a36c3703f2297493080a0c1585a8833898988888b896040516111f098979695949392919061301b565b60405180910390a1505060018055505050505050565b6002600154036112285760405162461bcd60e51b81526004016105b990612bff565b6002600155611235611d46565b60006112476040850160208601612908565b6001600160a01b03160361126d5760405162461bcd60e51b81526004016105b990612c36565b60008360400135116112915760405162461bcd60e51b81526004016105b990612ec9565b600360006112a56040860160208701612908565b6001600160a01b0316815260208101919091526040016000205460ff166112de5760405162461bcd60e51b81526004016105b990612d18565b82608001354211156113025760405162461bcd60e51b81526004016105b990612ce3565b3360009081526004602052604090205461135e611322610b6f868461203d565b84848080601f016020809104026020016040519081016040528093929190818152602001838380828437600092019190915250611eb092505050565b61137a5760405162461bcd60e51b81526004016105b990612d61565b3361138b6040860160208701612908565b6001600160a01b0316636352211e86604001356040518263ffffffff1660e01b81526004016113bc91815260200190565b602060405180830381865afa1580156113d9573d6000803e3d6000fd5b505050506040513d601f19601f820116820180604052508101906113fd9190613137565b6001600160a01b0316146114715760405162461bcd60e51b815260206004820152603560248201527f47424d61726b6574706c6163653a204f6e6c79204e4654206f776e65722063616044820152746e20757064617465206368617269747920696e666f60581b60648201526084016105b9565b3360009081526004602090815260409182902080546001019055611499918601908601612908565b6001600160a01b031663162094c460408601356114b96060880188612f19565b6040518463ffffffff1660e01b81526004016114d793929190613154565b600060405180830381600087803b1580156114f157600080fd5b505af1158015611505573d6000803e3d6000fd5b507f2a594f4fdcfb43b211e3fe501443da843ed0daa6e9cc58965e68afb67938f5f2925061153c9150506040860160208701612908565b33604087013561154f6060890189612f19565b604051611560959493929190613177565b60405180910390a15050600180555050565b6002600154036115945760405162461bcd60e51b81526004016105b990612bff565b60026001556115a1611d46565b60006115b36040850160208601612908565b6001600160a01b0316036115d95760405162461bcd60e51b81526004016105b990612c36565b60008360400135116115fd5760405162461bcd60e51b81526004016105b990612ec9565b600360006116116040860160208701612908565b6001600160a01b0316815260208101919091526040016000205460ff1661164a5760405162461bcd60e51b81526004016105b990612d18565b8260a0013542111561166e5760405162461bcd60e51b81526004016105b990612ce3565b3360009081526004602052604090205461168e611322610b6f86846120ac565b6116aa5760405162461bcd60e51b81526004016105b990612d61565b60405180606001604052806116bc3390565b6001600160a01b031681526020016116da6080870160608801612be4565b6001600160601b03168152600060209182018190526005916117029060408901908901612908565b6001600160a01b0390811682526020808301939093526040918201600090812089840135825284528281208551948601516001600160601b0316600160a01b02949092169390931781559201516001909201805492151560ff19909316929092179091556004906117703390565b6001600160a01b031681526020808201929092526040908101600020805460010190556117a291908601908601612908565b6001600160a01b031663e5bff2e43360408701356117c66080890160608a01612be4565b6117d360808a018a612f19565b6040518663ffffffff1660e01b81526004016117f3959493929190612f89565b600060405180830381600087803b15801561180d57600080fd5b505af1158015611821573d6000803e3d6000fd5b507f723a7f75732cc7c49d80e424f8f880b978246d5e12bd498d41d6a39240e2c67892506118589150506040860160208701612908565b33604087013561186b6080890189612f19565b61187b60808b0160608c01612be4565b60405161156096959493929190612fcb565b600061189881611c01565b6001600160a01b0382166119025760405162461bcd60e51b815260206004820152602b60248201527f766572696679526f6c652061646472657373206d757374206e6f74206265207a60448201526a65726f206164647265737360a81b60648201526084016105b9565b61192c7fd262a1e181ec035692bcc8c920b971bccc173d5263f104f91c1561b5033679dd83611c0b565b6040516001600160a01b03831681527f823bfe6c95b007bb6cc8bb748029c56ae8f83f9fc647a5c47b36f893bdefe74f9060200161060c565b60008281526020819052604090206001015461198081611c01565b6105428383611c8f565b600061199581611c01565b6001600160a01b038316611a015760405162461bcd60e51b815260206004820152602d60248201527f6762436f6c6c656374696f6e2061646472657373206d757374206e6f7420626560448201526c207a65726f206164647265737360981b60648201526084016105b9565b6001600160a01b038316600081815260036020908152604091829020805460ff19168615159081179091558251938452908301527f223891d059d602a4595404ec0a953e0fa8de6291465a1e0d904d07f387f0b7fa910160405180910390a1505050565b600260015403611a875760405162461bcd60e51b81526004016105b990612bff565b6002600155611a94611d46565b611adf611aa3610b6f8561212c565b83838080601f016020809104026020016040519081016040528093929190818152602001838380828437600092019190915250611eb092505050565b611afb5760405162461bcd60e51b81526004016105b990612d61565b50506001805550565b6000611b0f81611c01565b6000826001600160601b031611611b765760405162461bcd60e51b815260206004820152602560248201527f706c6174666f726d466565206d7573742062652067726561746572207468616e604482015264207a65726f60d81b60648201526084016105b9565b600680546001600160a01b0316600160a01b6001600160601b038516908102919091179091556040519081527fbe3599c33046219ddc3706f4b99caca706dc0f53775580d18a367dc2188c96e59060200161060c565b60006001600160e01b03198216637965db0b60e01b148061051757506301ffc9a760e01b6001600160e01b0319831614610517565b6106a981336121a1565b611c158282610e74565b610692576000828152602081815260408083206001600160a01b03851684529091529020805460ff19166001179055611c4b3390565b6001600160a01b0316816001600160a01b0316837f2f8788117e7eff1d82e926ec794901d17c78024a50270940304540a733656f0d60405160405180910390a45050565b611c998282610e74565b15610692576000828152602081815260408083206001600160a01b0385168085529252808320805460ff1916905551339285917ff6391f5c32d9c69d2a47ea670b442974b53935d1edc7fd64eb21e047a839171b9190a45050565b611cfc612205565b6002805460ff191690557f5db9ee0a495bf2e6ff9c91a7834c1ba4fdd244a5e8aa4e537bd38aeae4b073aa335b6040516001600160a01b03909116815260200160405180910390a1565b60025460ff1615611d8c5760405162461bcd60e51b815260206004820152601060248201526f14185d5cd8589b194e881c185d5cd95960821b60448201526064016105b9565b565b60007f17267e3c9a41fdc4878f6c57751034dfbbf7febe7592905bfe881b17e566ed2b611dbe6020850185612908565b611dce6040860160208701612908565b611dde6060870160408801612908565b6060870135608088013560a0890135611dfd60e08b0160c08c01612908565b611e0e6101008c0160e08d01612be4565b60408051602081019a909a526001600160a01b03988916908a01529587166060890152938616608088015260a087019290925260c086015260e0850152909116610100808401919091526001600160601b039091166101208301528401356101408201526101608101839052610180015b60405160208183030381529060405280519060200120905092915050565b6000610517611eaa61224e565b83612375565b6000611ee07fd262a1e181ec035692bcc8c920b971bccc173d5263f104f91c1561b5033679dd6103be858561239c565b9392505050565b80471015611f375760405162461bcd60e51b815260206004820152601d60248201527f416464726573733a20696e73756666696369656e742062616c616e636500000060448201526064016105b9565b6000826001600160a01b03168260405160006040518083038185875af1925050503d8060008114611f84576040519150601f19603f3d011682016040523d82523d6000602084013e611f89565b606091505b50509050806105425760405162461bcd60e51b815260206004820152603a60248201527f416464726573733a20756e61626c6520746f2073656e642076616c75652c207260448201527f6563697069656e74206d6179206861766520726576657274656400000000000060648201526084016105b9565b612008611d46565b6002805460ff191660011790557f62e78cea01bee320cd4e420270b5ea74000d11b0c9f74754ebdbfc544b05a258611d293390565b60007f485787466c6bb756e23877696afb1ffef4d4f7daa150be930943445b9efd5abc61206d6020850185612908565b61207d6040860160208701612908565b604086013561208f6060880188612f19565b886080013588604051602001611e7f9897969594939291906131ab565b60007fd7414a21ae7fe6c7ae7ba4fc193977b266778b52f64e202866e96f1d30267f7f6120dc6020850185612908565b6120ec6040860160208701612908565b60408601356121016080880160608901612be4565b61210e6080890189612f19565b8960a0013589604051602001611e7f999897969594939291906131fc565b60007f3b8fb4f63ef890bd0c5c826cb2ee3ecdeae16f25e9a4efae10944b4e586bd2e961215c6020840184612908565b604080516020818101949094526001600160a01b0390921690820152908301356060820152608001604051602081830303815290604052805190602001209050919050565b6121ab8282610e74565b610692576121c3816001600160a01b031660146123c0565b6121ce8360206123c0565b6040516020016121df929190613283565b60408051601f198184030181529082905262461bcd60e51b82526105b9916004016132f8565b60025460ff16611d8c5760405162461bcd60e51b815260206004820152601460248201527314185d5cd8589b194e881b9bdd081c185d5cd95960621b60448201526064016105b9565b6000306001600160a01b037f0000000000000000000000000000000000000000000000000000000000000000161480156122a757507f000000000000000000000000000000000000000000000000000000000000000046145b156122d157507f000000000000000000000000000000000000000000000000000000000000000090565b50604080517f00000000000000000000000000000000000000000000000000000000000000006020808301919091527f0000000000000000000000000000000000000000000000000000000000000000828401527f000000000000000000000000000000000000000000000000000000000000000060608301524660808301523060a0808401919091528351808403909101815260c0909201909252805191012090565b60405161190160f01b60208201526022810183905260428101829052600090606201611e7f565b60008060006123ab858561255c565b915091506123b8816125a1565b509392505050565b606060006123cf83600261332b565b6123da906002612cd0565b67ffffffffffffffff8111156123f2576123f2613342565b6040519080825280601f01601f19166020018201604052801561241c576020820181803683370190505b509050600360fc1b8160008151811061243757612437612eb3565b60200101906001600160f81b031916908160001a905350600f60fb1b8160018151811061246657612466612eb3565b60200101906001600160f81b031916908160001a905350600061248a84600261332b565b612495906001612cd0565b90505b600181111561250d576f181899199a1a9b1b9c1cb0b131b232b360811b85600f16601081106124c9576124c9612eb3565b1a60f81b8282815181106124df576124df612eb3565b60200101906001600160f81b031916908160001a90535060049490941c9361250681613358565b9050612498565b508315611ee05760405162461bcd60e51b815260206004820181905260248201527f537472696e67733a20686578206c656e67746820696e73756666696369656e7460448201526064016105b9565b60008082516041036125925760208301516040840151606085015160001a61258687828585612757565b9450945050505061259a565b506000905060025b9250929050565b60008160048111156125b5576125b561336f565b036125bd5750565b60018160048111156125d1576125d161336f565b0361261e5760405162461bcd60e51b815260206004820152601860248201527f45434453413a20696e76616c6964207369676e6174757265000000000000000060448201526064016105b9565b60028160048111156126325761263261336f565b0361267f5760405162461bcd60e51b815260206004820152601f60248201527f45434453413a20696e76616c6964207369676e6174757265206c656e6774680060448201526064016105b9565b60038160048111156126935761269361336f565b036126eb5760405162461bcd60e51b815260206004820152602260248201527f45434453413a20696e76616c6964207369676e6174757265202773272076616c604482015261756560f01b60648201526084016105b9565b60048160048111156126ff576126ff61336f565b036106a95760405162461bcd60e51b815260206004820152602260248201527f45434453413a20696e76616c6964207369676e6174757265202776272076616c604482015261756560f01b60648201526084016105b9565b6000807f7fffffffffffffffffffffffffffffff5d576e7357a4501ddfe92f46681b20a083111561278e575060009050600361283b565b8460ff16601b141580156127a657508460ff16601c14155b156127b7575060009050600461283b565b6040805160008082526020820180845289905260ff881692820192909252606081018690526080810185905260019060a0016020604051602081039080840390855afa15801561280b573d6000803e3d6000fd5b5050604051601f1901519150506001600160a01b0381166128345760006001925092505061283b565b9150600090505b94509492505050565b60006020828403121561285657600080fd5b81356001600160e01b031981168114611ee057600080fd5b6001600160a01b03811681146106a957600080fd5b803561288e8161286e565b919050565b600080604083850312156128a657600080fd5b82356128b18161286e565b946020939093013593505050565b6000602082840312156128d157600080fd5b5035919050565b600080604083850312156128eb57600080fd5b8235915060208301356128fd8161286e565b809150509250929050565b60006020828403121561291a57600080fd5b8135611ee08161286e565b60008083601f84011261293757600080fd5b50813567ffffffffffffffff81111561294f57600080fd5b60208301915083602082850101111561259a57600080fd5b600080600083850361016081121561297e57600080fd5b6101408082121561298e57600080fd5b859450840135905067ffffffffffffffff8111156129ab57600080fd5b6129b786828701612925565b9497909650939450505050565b60008083601f8401126129d657600080fd5b50813567ffffffffffffffff8111156129ee57600080fd5b6020830191508360208260051b850101111561259a57600080fd5b80356001600160601b038116811461288e57600080fd5b600080600080600080600060a0888a031215612a3b57600080fd5b8735612a468161286e565b9650602088013567ffffffffffffffff80821115612a6357600080fd5b612a6f8b838c016129c4565b9098509650869150612a8360408b01612a09565b955060608a0135915080821115612a9957600080fd5b50612aa68a828b016129c4565b9094509250506080880135612aba8161286e565b8091505092959891949750929550565b600080600060408486031215612adf57600080fd5b833567ffffffffffffffff80821115612af757600080fd5b9085019060c08288031215612b0b57600080fd5b90935060208501359080821115612b2157600080fd5b506129b786828701612925565b600080600060408486031215612b4357600080fd5b833567ffffffffffffffff80821115612b5b57600080fd5b9085019060e08288031215612b0b57600080fd5b60008060408385031215612b8257600080fd5b8235612b8d8161286e565b9150602083013580151581146128fd57600080fd5b60008060008385036060811215612bb857600080fd5b6040811215612bc657600080fd5b50839250604084013567ffffffffffffffff8111156129ab57600080fd5b600060208284031215612bf657600080fd5b611ee082612a09565b6020808252601f908201527f5265656e7472616e637947756172643a207265656e7472616e742063616c6c00604082015260600190565b6020808252603a908201527f47424d61726b6574706c6163653a20636f6c6c656374696f6e2061646472657360408201527f73206d757374206e6f74206265207a65726f2061646472657373000000000000606082015260800190565b634e487b7160e01b600052601160045260246000fd5b6001600160601b03818116838216019080821115612cc957612cc9612c93565b5092915050565b8082018082111561051757610517612c93565b6020808252818101527f47424d61726b6574706c6163653a205369676e61747572652065787069726564604082015260600190565b60208082526029908201527f47424d61726b6574706c6163653a20496e76616c696420636f6c6c656374696f6040820152686e206164647265737360b81b606082015260800190565b602080825260119082015270496e76616c6964207369676e617475726560781b604082015260600190565b60008060408385031215612d9f57600080fd5b8251612daa8161286e565b6020939093015192949293505050565b600082612dd757634e487b7160e01b600052601260045260246000fd5b500490565b8181038181111561051757610517612c93565b6101408101612e0e82612e0185612883565b6001600160a01b03169052565b612e1a60208401612883565b6001600160a01b03166020830152612e3460408401612883565b6001600160a01b038116604084015250606083013560608301526080830135608083015260a083013560a0830152612e6e60c08401612883565b6001600160a01b031660c0830152612e8860e08401612a09565b6001600160601b031660e0830152610100838101359083015261012092830135929091019190915290565b634e487b7160e01b600052603260045260246000fd5b60208082526030908201527f47424d61726b6574706c6163653a20746f6b656e4964206d757374206265206760408201526f726561746572207468616e207a65726f60801b606082015260800190565b6000808335601e19843603018112612f3057600080fd5b83018035915067ffffffffffffffff821115612f4b57600080fd5b60200191503681900382131561259a57600080fd5b81835281816020850137506000828201602090810191909152601f909101601f19169091010190565b60018060a01b03861681528460208201526001600160601b0384166040820152608060608201526000612fc0608083018486612f60565b979650505050505050565b6001600160a01b038781168252861660208201526040810185905260a060608201819052600090612fff9083018587612f60565b90506001600160601b0383166080830152979650505050505050565b6001600160a01b03898116825288811660208084019190915260c0604084018190528301889052600091906001600160fb1b0389111561305a57600080fd5b8860051b9150818a60e086013760e091840184810383016060860152918201879052610100600588901b830181019083018960005b8a8110156130ff5785840360ff190183528135368d9003601e190181126130b557600080fd5b8c01858101903567ffffffffffffffff8111156130d157600080fd5b8036038213156130e057600080fd5b6130eb868284612f60565b95505050918401919084019060010161308f565b5050506001600160601b0387166080860152925061311b915050565b6001600160a01b03831660a08301529998505050505050505050565b60006020828403121561314957600080fd5b8151611ee08161286e565b83815260406020820152600061316e604083018486612f60565b95945050505050565b6001600160a01b0386811682528516602082015260408101849052608060608201819052600090612fc09083018486612f60565b8881526001600160a01b038881166020830152871660408201526060810186905260e0608082018190526000906131e59083018688612f60565b60a08301949094525060c001529695505050505050565b8981526001600160a01b03898116602083015288166040820152606081018790526001600160601b038616608082015261010060a082018190526000906132468382018789612f60565b60c0840195909552505060e00152979650505050505050565b60005b8381101561327a578181015183820152602001613262565b50506000910152565b7f416363657373436f6e74726f6c3a206163636f756e74200000000000000000008152600083516132bb81601785016020880161325f565b7001034b99036b4b9b9b4b733903937b6329607d1b60179184019182015283516132ec81602884016020880161325f565b01602801949350505050565b602081526000825180602084015261331781604085016020870161325f565b601f01601f19169190910160400192915050565b808202811582820484141761051757610517612c93565b634e487b7160e01b600052604160045260246000fd5b60008161336757613367612c93565b506000190190565b634e487b7160e01b600052602160045260246000fdfea264697066735822122030354aaa8ba1419ce3ce15f4862138fe0858e1d324296e962845466fd44de90964736f6c63430008110033","opcodes":"PUSH2 0x140 PUSH1 0x40 MSTORE PUSH1 0x6 DUP1 SLOAD PUSH1 0x1 PUSH1 0x1 PUSH1 0xA0 SHL SUB AND PUSH1 0x7D PUSH1 0xA1 SHL OR SWAP1 SSTORE CALLVALUE DUP1 ISZERO PUSH3 0x27 JUMPI PUSH1 0x0 DUP1 REVERT JUMPDEST POP PUSH1 0x40 MLOAD PUSH3 0x36CD CODESIZE SUB DUP1 PUSH3 0x36CD DUP4 CODECOPY DUP2 ADD PUSH1 0x40 DUP2 SWAP1 MSTORE PUSH3 0x4A SWAP2 PUSH3 0x278 JUMP JUMPDEST PUSH1 0x40 DUP1 MLOAD DUP1 DUP3 ADD DUP3 MSTORE PUSH1 0xD DUP2 MSTORE PUSH13 0x47424D61726B6574706C616365 PUSH1 0x98 SHL PUSH1 0x20 DUP1 DUP4 ADD SWAP2 DUP3 MSTORE DUP4 MLOAD DUP1 DUP6 ADD SWAP1 SWAP5 MSTORE PUSH1 0x5 DUP5 MSTORE PUSH5 0x312E302E3 PUSH1 0xDC SHL SWAP1 DUP5 ADD MSTORE DUP2 MLOAD SWAP1 KECCAK256 PUSH1 0xE0 DUP2 SWAP1 MSTORE PUSH32 0x6C015BD22B4C69690933C1058878EBDFEF31F9AAAE40BBE86D8A09FE1B2972C PUSH2 0x100 DUP2 SWAP1 MSTORE CHAINID PUSH1 0xA0 MSTORE SWAP2 SWAP3 SWAP2 PUSH32 0x8B73C3C69BB8FE3D512ECC4CF759CC79239F7B179B0FFACAA9A75D522B39400F PUSH3 0x131 DUP2 DUP5 DUP5 PUSH1 0x40 DUP1 MLOAD PUSH1 0x20 DUP2 ADD DUP6 SWAP1 MSTORE SWAP1 DUP2 ADD DUP4 SWAP1 MSTORE PUSH1 0x60 DUP2 ADD DUP3 SWAP1 MSTORE CHAINID PUSH1 0x80 DUP3 ADD MSTORE ADDRESS PUSH1 0xA0 DUP3 ADD MSTORE PUSH1 0x0 SWAP1 PUSH1 0xC0 ADD PUSH1 0x40 MLOAD PUSH1 0x20 DUP2 DUP4 SUB SUB DUP2 MSTORE SWAP1 PUSH1 0x40 MSTORE DUP1 MLOAD SWAP1 PUSH1 0x20 ADD KECCAK256 SWAP1 POP SWAP4 SWAP3 POP POP POP JUMP JUMPDEST PUSH1 0x80 MSTORE ADDRESS PUSH1 0xC0 MSTORE PUSH2 0x120 MSTORE POP POP PUSH1 0x1 DUP1 SSTORE POP POP PUSH1 0x2 DUP1 SLOAD PUSH1 0xFF NOT AND SWAP1 SSTORE PUSH1 0x6 DUP1 SLOAD PUSH1 0x1 PUSH1 0x1 PUSH1 0xA0 SHL SUB NOT AND PUSH1 0x1 PUSH1 0x1 PUSH1 0xA0 SHL SUB DUP4 AND OR SWAP1 SSTORE PUSH3 0x176 PUSH1 0x0 DUP5 PUSH3 0x1AB JUMP JUMPDEST PUSH3 0x1A2 PUSH32 0xD262A1E181EC035692BCC8C920B971BCCC173D5263F104F91C1561B5033679DD DUP4 PUSH3 0x1AB JUMP JUMPDEST POP POP POP PUSH3 0x2C2 JUMP JUMPDEST PUSH3 0x1B7 DUP3 DUP3 PUSH3 0x1BB JUMP JUMPDEST POP POP JUMP JUMPDEST PUSH1 0x0 DUP3 DUP2 MSTORE PUSH1 0x20 DUP2 DUP2 MSTORE PUSH1 0x40 DUP1 DUP4 KECCAK256 PUSH1 0x1 PUSH1 0x1 PUSH1 0xA0 SHL SUB DUP6 AND DUP5 MSTORE SWAP1 SWAP2 MSTORE SWAP1 KECCAK256 SLOAD PUSH1 0xFF AND PUSH3 0x1B7 JUMPI PUSH1 0x0 DUP3 DUP2 MSTORE PUSH1 0x20 DUP2 DUP2 MSTORE PUSH1 0x40 DUP1 DUP4 KECCAK256 PUSH1 0x1 PUSH1 0x1 PUSH1 0xA0 SHL SUB DUP6 AND DUP5 MSTORE SWAP1 SWAP2 MSTORE SWAP1 KECCAK256 DUP1 SLOAD PUSH1 0xFF NOT AND PUSH1 0x1 OR SWAP1 SSTORE PUSH3 0x217 CALLER SWAP1 JUMP JUMPDEST PUSH1 0x1 PUSH1 0x1 PUSH1 0xA0 SHL SUB AND DUP2 PUSH1 0x1 PUSH1 0x1 PUSH1 0xA0 SHL SUB AND DUP4 PUSH32 0x2F8788117E7EFF1D82E926EC794901D17C78024A50270940304540A733656F0D PUSH1 0x40 MLOAD PUSH1 0x40 MLOAD DUP1 SWAP2 SUB SWAP1 LOG4 POP POP JUMP JUMPDEST DUP1 MLOAD PUSH1 0x1 PUSH1 0x1 PUSH1 0xA0 SHL SUB DUP2 AND DUP2 EQ PUSH3 0x273 JUMPI PUSH1 0x0 DUP1 REVERT JUMPDEST SWAP2 SWAP1 POP JUMP JUMPDEST PUSH1 0x0 DUP1 PUSH1 0x0 PUSH1 0x60 DUP5 DUP7 SUB SLT ISZERO PUSH3 0x28E JUMPI PUSH1 0x0 DUP1 REVERT JUMPDEST PUSH3 0x299 DUP5 PUSH3 0x25B JUMP JUMPDEST SWAP3 POP PUSH3 0x2A9 PUSH1 0x20 DUP6 ADD PUSH3 0x25B JUMP JUMPDEST SWAP2 POP PUSH3 0x2B9 PUSH1 0x40 DUP6 ADD PUSH3 0x25B JUMP JUMPDEST SWAP1 POP SWAP3 POP SWAP3 POP SWAP3 JUMP JUMPDEST PUSH1 0x80 MLOAD PUSH1 0xA0 MLOAD PUSH1 0xC0 MLOAD PUSH1 0xE0 MLOAD PUSH2 0x100 MLOAD PUSH2 0x120 MLOAD PUSH2 0x33BB PUSH3 0x312 PUSH1 0x0 CODECOPY PUSH1 0x0 PUSH2 0x22D8 ADD MSTORE PUSH1 0x0 PUSH2 0x2327 ADD MSTORE PUSH1 0x0 PUSH2 0x2302 ADD MSTORE PUSH1 0x0 PUSH2 0x225B ADD MSTORE PUSH1 0x0 PUSH2 0x2285 ADD MSTORE PUSH1 0x0 PUSH2 0x22AF ADD MSTORE PUSH2 0x33BB PUSH1 0x0 RETURN INVALID PUSH1 0x80 PUSH1 0x40 MSTORE PUSH1 0x4 CALLDATASIZE LT PUSH2 0x14B JUMPI PUSH1 0x0 CALLDATALOAD PUSH1 0xE0 SHR DUP1 PUSH4 0x90BB447F GT PUSH2 0xB6 JUMPI DUP1 PUSH4 0xC46F23F4 GT PUSH2 0x6F JUMPI DUP1 PUSH4 0xC46F23F4 EQ PUSH2 0x438 JUMPI DUP1 PUSH4 0xD41D0E5C EQ PUSH2 0x458 JUMPI DUP1 PUSH4 0xD547741F EQ PUSH2 0x48C JUMPI DUP1 PUSH4 0xE20C7153 EQ PUSH2 0x4AC JUMPI DUP1 PUSH4 0xE806FDD1 EQ PUSH2 0x4CC JUMPI DUP1 PUSH4 0xF99E5DBB EQ PUSH2 0x4EC JUMPI PUSH1 0x0 DUP1 REVERT JUMPDEST DUP1 PUSH4 0x90BB447F EQ PUSH2 0x373 JUMPI DUP1 PUSH4 0x91D14854 EQ PUSH2 0x3A3 JUMPI DUP1 PUSH4 0x94AE3881 EQ PUSH2 0x3C3 JUMPI DUP1 PUSH4 0xA217FDDF EQ PUSH2 0x3E3 JUMPI DUP1 PUSH4 0xAE3771B4 EQ PUSH2 0x3F8 JUMPI DUP1 PUSH4 0xB9BCA0DA EQ PUSH2 0x418 JUMPI PUSH1 0x0 DUP1 REVERT JUMPDEST DUP1 PUSH4 0x36568ABE GT PUSH2 0x108 JUMPI DUP1 PUSH4 0x36568ABE EQ PUSH2 0x2D1 JUMPI DUP1 PUSH4 0x3F4BA83A EQ PUSH2 0x2F1 JUMPI DUP1 PUSH4 0x5C975ABB EQ PUSH2 0x306 JUMPI DUP1 PUSH4 0x7ECEBE00 EQ PUSH2 0x31E JUMPI DUP1 PUSH4 0x811F6B76 EQ PUSH2 0x34B JUMPI DUP1 PUSH4 0x8456CB59 EQ PUSH2 0x35E JUMPI PUSH1 0x0 DUP1 REVERT JUMPDEST DUP1 PUSH4 0x1FFC9A7 EQ PUSH2 0x150 JUMPI DUP1 PUSH4 0x1CDAAB67 EQ PUSH2 0x185 JUMPI DUP1 PUSH4 0x248A9CA3 EQ PUSH2 0x212 JUMPI DUP1 PUSH4 0x26232A2E EQ PUSH2 0x250 JUMPI DUP1 PUSH4 0x2F2FF15D EQ PUSH2 0x28F JUMPI DUP1 PUSH4 0x35082933 EQ PUSH2 0x2B1 JUMPI JUMPDEST PUSH1 0x0 DUP1 REVERT JUMPDEST CALLVALUE DUP1 ISZERO PUSH2 0x15C JUMPI PUSH1 0x0 DUP1 REVERT JUMPDEST POP PUSH2 0x170 PUSH2 0x16B CALLDATASIZE PUSH1 0x4 PUSH2 0x2844 JUMP JUMPDEST PUSH2 0x50C JUMP JUMPDEST PUSH1 0x40 MLOAD SWAP1 ISZERO ISZERO DUP2 MSTORE PUSH1 0x20 ADD JUMPDEST PUSH1 0x40 MLOAD DUP1 SWAP2 SUB SWAP1 RETURN JUMPDEST CALLVALUE DUP1 ISZERO PUSH2 0x191 JUMPI PUSH1 0x0 DUP1 REVERT JUMPDEST POP PUSH2 0x1E3 PUSH2 0x1A0 CALLDATASIZE PUSH1 0x4 PUSH2 0x2893 JUMP JUMPDEST PUSH1 0x5 PUSH1 0x20 SWAP1 DUP2 MSTORE PUSH1 0x0 SWAP3 DUP4 MSTORE PUSH1 0x40 DUP1 DUP5 KECCAK256 SWAP1 SWAP2 MSTORE SWAP1 DUP3 MSTORE SWAP1 KECCAK256 DUP1 SLOAD PUSH1 0x1 SWAP1 SWAP2 ADD SLOAD PUSH1 0x1 PUSH1 0x1 PUSH1 0xA0 SHL SUB DUP3 AND SWAP2 PUSH1 0x1 PUSH1 0xA0 SHL SWAP1 DIV PUSH1 0x1 PUSH1 0x1 PUSH1 0x60 SHL SUB AND SWAP1 PUSH1 0xFF AND DUP4 JUMP JUMPDEST PUSH1 0x40 DUP1 MLOAD PUSH1 0x1 PUSH1 0x1 PUSH1 0xA0 SHL SUB SWAP1 SWAP5 AND DUP5 MSTORE PUSH1 0x1 PUSH1 0x1 PUSH1 0x60 SHL SUB SWAP1 SWAP3 AND PUSH1 0x20 DUP5 ADD MSTORE ISZERO ISZERO SWAP1 DUP3 ADD MSTORE PUSH1 0x60 ADD PUSH2 0x17C JUMP JUMPDEST CALLVALUE DUP1 ISZERO PUSH2 0x21E JUMPI PUSH1 0x0 DUP1 REVERT JUMPDEST POP PUSH2 0x242 PUSH2 0x22D CALLDATASIZE PUSH1 0x4 PUSH2 0x28BF JUMP JUMPDEST PUSH1 0x0 SWAP1 DUP2 MSTORE PUSH1 0x20 DUP2 SWAP1 MSTORE PUSH1 0x40 SWAP1 KECCAK256 PUSH1 0x1 ADD SLOAD SWAP1 JUMP JUMPDEST PUSH1 0x40 MLOAD SWAP1 DUP2 MSTORE PUSH1 0x20 ADD PUSH2 0x17C JUMP JUMPDEST CALLVALUE DUP1 ISZERO PUSH2 0x25C JUMPI PUSH1 0x0 DUP1 REVERT JUMPDEST POP PUSH1 0x6 SLOAD PUSH2 0x277 SWAP1 PUSH1 0x1 PUSH1 0xA0 SHL SWAP1 DIV PUSH1 0x1 PUSH1 0x1 PUSH1 0x60 SHL SUB AND DUP2 JUMP JUMPDEST PUSH1 0x40 MLOAD PUSH1 0x1 PUSH1 0x1 PUSH1 0x60 SHL SUB SWAP1 SWAP2 AND DUP2 MSTORE PUSH1 0x20 ADD PUSH2 0x17C JUMP JUMPDEST CALLVALUE DUP1 ISZERO PUSH2 0x29B JUMPI PUSH1 0x0 DUP1 REVERT JUMPDEST POP PUSH2 0x2AF PUSH2 0x2AA CALLDATASIZE PUSH1 0x4 PUSH2 0x28D8 JUMP JUMPDEST PUSH2 0x51D JUMP JUMPDEST STOP JUMPDEST CALLVALUE DUP1 ISZERO PUSH2 0x2BD JUMPI PUSH1 0x0 DUP1 REVERT JUMPDEST POP PUSH2 0x2AF PUSH2 0x2CC CALLDATASIZE PUSH1 0x4 PUSH2 0x2908 JUMP JUMPDEST PUSH2 0x547 JUMP JUMPDEST CALLVALUE DUP1 ISZERO PUSH2 0x2DD JUMPI PUSH1 0x0 DUP1 REVERT JUMPDEST POP PUSH2 0x2AF PUSH2 0x2EC CALLDATASIZE PUSH1 0x4 PUSH2 0x28D8 JUMP JUMPDEST PUSH2 0x618 JUMP JUMPDEST CALLVALUE DUP1 ISZERO PUSH2 0x2FD JUMPI PUSH1 0x0 DUP1 REVERT JUMPDEST POP PUSH2 0x2AF PUSH2 0x696 JUMP JUMPDEST CALLVALUE DUP1 ISZERO PUSH2 0x312 JUMPI PUSH1 0x0 DUP1 REVERT JUMPDEST POP PUSH1 0x2 SLOAD PUSH1 0xFF AND PUSH2 0x170 JUMP JUMPDEST CALLVALUE DUP1 ISZERO PUSH2 0x32A JUMPI PUSH1 0x0 DUP1 REVERT JUMPDEST POP PUSH2 0x242 PUSH2 0x339 CALLDATASIZE PUSH1 0x4 PUSH2 0x2908 JUMP JUMPDEST PUSH1 0x4 PUSH1 0x20 MSTORE PUSH1 0x0 SWAP1 DUP2 MSTORE PUSH1 0x40 SWAP1 KECCAK256 SLOAD DUP2 JUMP JUMPDEST PUSH2 0x2AF PUSH2 0x359 CALLDATASIZE PUSH1 0x4 PUSH2 0x2967 JUMP JUMPDEST PUSH2 0x6AC JUMP JUMPDEST CALLVALUE DUP1 ISZERO PUSH2 0x36A JUMPI PUSH1 0x0 DUP1 REVERT JUMPDEST POP PUSH2 0x2AF PUSH2 0xE61 JUMP JUMPDEST CALLVALUE DUP1 ISZERO PUSH2 0x37F JUMPI PUSH1 0x0 DUP1 REVERT JUMPDEST POP PUSH2 0x170 PUSH2 0x38E CALLDATASIZE PUSH1 0x4 PUSH2 0x2908 JUMP JUMPDEST PUSH1 0x3 PUSH1 0x20 MSTORE PUSH1 0x0 SWAP1 DUP2 MSTORE PUSH1 0x40 SWAP1 KECCAK256 SLOAD PUSH1 0xFF AND DUP2 JUMP JUMPDEST CALLVALUE DUP1 ISZERO PUSH2 0x3AF JUMPI PUSH1 0x0 DUP1 REVERT JUMPDEST POP PUSH2 0x170 PUSH2 0x3BE CALLDATASIZE PUSH1 0x4 PUSH2 0x28D8 JUMP JUMPDEST PUSH2 0xE74 JUMP JUMPDEST CALLVALUE DUP1 ISZERO PUSH2 0x3CF JUMPI PUSH1 0x0 DUP1 REVERT JUMPDEST POP PUSH2 0x2AF PUSH2 0x3DE CALLDATASIZE PUSH1 0x4 PUSH2 0x2A20 JUMP JUMPDEST PUSH2 0xE9D JUMP JUMPDEST CALLVALUE DUP1 ISZERO PUSH2 0x3EF JUMPI PUSH1 0x0 DUP1 REVERT JUMPDEST POP PUSH2 0x242 PUSH1 0x0 DUP2 JUMP JUMPDEST CALLVALUE DUP1 ISZERO PUSH2 0x404 JUMPI PUSH1 0x0 DUP1 REVERT JUMPDEST POP PUSH2 0x2AF PUSH2 0x413 CALLDATASIZE PUSH1 0x4 PUSH2 0x2ACA JUMP JUMPDEST PUSH2 0x1206 JUMP JUMPDEST CALLVALUE DUP1 ISZERO PUSH2 0x424 JUMPI PUSH1 0x0 DUP1 REVERT JUMPDEST POP PUSH2 0x2AF PUSH2 0x433 CALLDATASIZE PUSH1 0x4 PUSH2 0x2B2E JUMP JUMPDEST PUSH2 0x1572 JUMP JUMPDEST CALLVALUE DUP1 ISZERO PUSH2 0x444 JUMPI PUSH1 0x0 DUP1 REVERT JUMPDEST POP PUSH2 0x2AF PUSH2 0x453 CALLDATASIZE PUSH1 0x4 PUSH2 0x2908 JUMP JUMPDEST PUSH2 0x188D JUMP JUMPDEST CALLVALUE DUP1 ISZERO PUSH2 0x464 JUMPI PUSH1 0x0 DUP1 REVERT JUMPDEST POP PUSH2 0x242 PUSH32 0xD262A1E181EC035692BCC8C920B971BCCC173D5263F104F91C1561B5033679DD DUP2 JUMP JUMPDEST CALLVALUE DUP1 ISZERO PUSH2 0x498 JUMPI PUSH1 0x0 DUP1 REVERT JUMPDEST POP PUSH2 0x2AF PUSH2 0x4A7 CALLDATASIZE PUSH1 0x4 PUSH2 0x28D8 JUMP JUMPDEST PUSH2 0x1965 JUMP JUMPDEST CALLVALUE DUP1 ISZERO PUSH2 0x4B8 JUMPI PUSH1 0x0 DUP1 REVERT JUMPDEST POP PUSH2 0x2AF PUSH2 0x4C7 CALLDATASIZE PUSH1 0x4 PUSH2 0x2B6F JUMP JUMPDEST PUSH2 0x198A JUMP JUMPDEST CALLVALUE DUP1 ISZERO PUSH2 0x4D8 JUMPI PUSH1 0x0 DUP1 REVERT JUMPDEST POP PUSH2 0x2AF PUSH2 0x4E7 CALLDATASIZE PUSH1 0x4 PUSH2 0x2BA2 JUMP JUMPDEST PUSH2 0x1A65 JUMP JUMPDEST CALLVALUE DUP1 ISZERO PUSH2 0x4F8 JUMPI PUSH1 0x0 DUP1 REVERT JUMPDEST POP PUSH2 0x2AF PUSH2 0x507 CALLDATASIZE PUSH1 0x4 PUSH2 0x2BE4 JUMP JUMPDEST PUSH2 0x1B04 JUMP JUMPDEST PUSH1 0x0 PUSH2 0x517 DUP3 PUSH2 0x1BCC JUMP JUMPDEST SWAP3 SWAP2 POP POP JUMP JUMPDEST PUSH1 0x0 DUP3 DUP2 MSTORE PUSH1 0x20 DUP2 SWAP1 MSTORE PUSH1 0x40 SWAP1 KECCAK256 PUSH1 0x1 ADD SLOAD PUSH2 0x538 DUP2 PUSH2 0x1C01 JUMP JUMPDEST PUSH2 0x542 DUP4 DUP4 PUSH2 0x1C0B JUMP JUMPDEST POP POP POP JUMP JUMPDEST PUSH1 0x0 PUSH2 0x552 DUP2 PUSH2 0x1C01 JUMP JUMPDEST PUSH1 0x1 PUSH1 0x1 PUSH1 0xA0 SHL SUB DUP3 AND PUSH2 0x5C2 JUMPI PUSH1 0x40 MLOAD PUSH3 0x461BCD PUSH1 0xE5 SHL DUP2 MSTORE PUSH1 0x20 PUSH1 0x4 DUP3 ADD MSTORE PUSH1 0x2C PUSH1 0x24 DUP3 ADD MSTORE PUSH32 0x61646D696E57616C6C65742061646472657373206D757374206E6F7420626520 PUSH1 0x44 DUP3 ADD MSTORE PUSH12 0x7A65726F2061646472657373 PUSH1 0xA0 SHL PUSH1 0x64 DUP3 ADD MSTORE PUSH1 0x84 ADD JUMPDEST PUSH1 0x40 MLOAD DUP1 SWAP2 SUB SWAP1 REVERT JUMPDEST PUSH1 0x6 DUP1 SLOAD PUSH1 0x1 PUSH1 0x1 PUSH1 0xA0 SHL SUB NOT AND PUSH1 0x1 PUSH1 0x1 PUSH1 0xA0 SHL SUB DUP5 AND SWAP1 DUP2 OR SWAP1 SWAP2 SSTORE PUSH1 0x40 MLOAD SWAP1 DUP2 MSTORE PUSH32 0x1B651CFD0A3F185590087E7E632381434DFADA46F037B9081264F9F5BDBFCD9B SWAP1 PUSH1 0x20 ADD JUMPDEST PUSH1 0x40 MLOAD DUP1 SWAP2 SUB SWAP1 LOG1 POP POP JUMP JUMPDEST PUSH1 0x1 PUSH1 0x1 PUSH1 0xA0 SHL SUB DUP2 AND CALLER EQ PUSH2 0x688 JUMPI PUSH1 0x40 MLOAD PUSH3 0x461BCD PUSH1 0xE5 SHL DUP2 MSTORE PUSH1 0x20 PUSH1 0x4 DUP3 ADD MSTORE PUSH1 0x2F PUSH1 0x24 DUP3 ADD MSTORE PUSH32 0x416363657373436F6E74726F6C3A2063616E206F6E6C792072656E6F756E6365 PUSH1 0x44 DUP3 ADD MSTORE PUSH15 0x103937B632B9903337B91039B2B633 PUSH1 0x89 SHL PUSH1 0x64 DUP3 ADD MSTORE PUSH1 0x84 ADD PUSH2 0x5B9 JUMP JUMPDEST PUSH2 0x692 DUP3 DUP3 PUSH2 0x1C8F JUMP JUMPDEST POP POP JUMP JUMPDEST PUSH1 0x0 PUSH2 0x6A1 DUP2 PUSH2 0x1C01 JUMP JUMPDEST PUSH2 0x6A9 PUSH2 0x1CF4 JUMP JUMPDEST POP JUMP JUMPDEST PUSH1 0x2 PUSH1 0x1 SLOAD SUB PUSH2 0x6CE JUMPI PUSH1 0x40 MLOAD PUSH3 0x461BCD PUSH1 0xE5 SHL DUP2 MSTORE PUSH1 0x4 ADD PUSH2 0x5B9 SWAP1 PUSH2 0x2BFF JUMP JUMPDEST PUSH1 0x2 PUSH1 0x1 SSTORE PUSH2 0x6DB PUSH2 0x1D46 JUMP JUMPDEST PUSH1 0x0 PUSH2 0x6ED PUSH1 0x40 DUP6 ADD PUSH1 0x20 DUP7 ADD PUSH2 0x2908 JUMP JUMPDEST PUSH1 0x1 PUSH1 0x1 PUSH1 0xA0 SHL SUB AND SUB PUSH2 0x713 JUMPI PUSH1 0x40 MLOAD PUSH3 0x461BCD PUSH1 0xE5 SHL DUP2 MSTORE PUSH1 0x4 ADD PUSH2 0x5B9 SWAP1 PUSH2 0x2C36 JUMP JUMPDEST PUSH2 0x723 PUSH1 0x60 DUP5 ADD PUSH1 0x40 DUP6 ADD PUSH2 0x2908 JUMP JUMPDEST PUSH1 0x1 PUSH1 0x1 PUSH1 0xA0 SHL SUB AND EXTCODESIZE ISZERO PUSH2 0x7A0 JUMPI PUSH1 0x40 MLOAD PUSH3 0x461BCD PUSH1 0xE5 SHL DUP2 MSTORE PUSH1 0x20 PUSH1 0x4 DUP3 ADD MSTORE PUSH1 0x3A PUSH1 0x24 DUP3 ADD MSTORE PUSH32 0x47424D61726B6574706C6163653A2073656C6C65722061646472657373206D75 PUSH1 0x44 DUP3 ADD MSTORE PUSH32 0x7374206E6F7420626520636F6E74726163742061646472657373000000000000 PUSH1 0x64 DUP3 ADD MSTORE PUSH1 0x84 ADD PUSH2 0x5B9 JUMP JUMPDEST PUSH1 0x0 PUSH2 0x7B2 PUSH1 0xE0 DUP6 ADD PUSH1 0xC0 DUP7 ADD PUSH2 0x2908 JUMP JUMPDEST PUSH1 0x1 PUSH1 0x1 PUSH1 0xA0 SHL SUB AND SUB PUSH2 0x82E JUMPI PUSH1 0x40 MLOAD PUSH3 0x461BCD PUSH1 0xE5 SHL DUP2 MSTORE PUSH1 0x20 PUSH1 0x4 DUP3 ADD MSTORE PUSH1 0x37 PUSH1 0x24 DUP3 ADD MSTORE PUSH32 0x47424D61726B6574706C6163653A20636861726974792061646472657373206D PUSH1 0x44 DUP3 ADD MSTORE PUSH32 0x757374206E6F74206265207A65726F2061646472657373000000000000000000 PUSH1 0x64 DUP3 ADD MSTORE PUSH1 0x84 ADD PUSH2 0x5B9 JUMP JUMPDEST PUSH2 0x3E8 PUSH2 0x842 PUSH2 0x100 DUP6 ADD PUSH1 0xE0 DUP7 ADD PUSH2 0x2BE4 JUMP JUMPDEST PUSH1 0x1 PUSH1 0x1 PUSH1 0x60 SHL SUB AND LT ISZERO DUP1 ISZERO PUSH2 0x874 JUMPI POP PUSH2 0x2710 PUSH2 0x868 PUSH2 0x100 DUP6 ADD PUSH1 0xE0 DUP7 ADD PUSH2 0x2BE4 JUMP JUMPDEST PUSH1 0x1 PUSH1 0x1 PUSH1 0x60 SHL SUB AND GT ISZERO JUMPDEST PUSH2 0x8E6 JUMPI PUSH1 0x40 MLOAD PUSH3 0x461BCD PUSH1 0xE5 SHL DUP2 MSTORE PUSH1 0x20 PUSH1 0x4 DUP3 ADD MSTORE PUSH1 0x3E PUSH1 0x24 DUP3 ADD MSTORE PUSH32 0x47424D61726B6574706C6163653A20636861726974792070657263656E746167 PUSH1 0x44 DUP3 ADD MSTORE PUSH32 0x65206D757374206265206265747765656E2031302520616E6420313030250000 PUSH1 0x64 DUP3 ADD MSTORE PUSH1 0x84 ADD PUSH2 0x5B9 JUMP JUMPDEST PUSH1 0x0 PUSH1 0x5 DUP2 PUSH2 0x8FB PUSH1 0x40 DUP8 ADD PUSH1 0x20 DUP9 ADD PUSH2 0x2908 JUMP JUMPDEST PUSH1 0x1 PUSH1 0x1 PUSH1 0xA0 SHL SUB SWAP1 DUP2 AND DUP3 MSTORE PUSH1 0x20 DUP1 DUP4 ADD SWAP4 SWAP1 SWAP4 MSTORE PUSH1 0x40 SWAP2 DUP3 ADD PUSH1 0x0 SWAP1 DUP2 KECCAK256 PUSH1 0x60 DUP1 DUP11 ADD CALLDATALOAD DUP4 MSTORE SWAP1 DUP6 MSTORE SWAP1 DUP4 SWAP1 KECCAK256 DUP4 MLOAD SWAP2 DUP3 ADD DUP5 MSTORE DUP1 SLOAD SWAP3 DUP4 AND DUP3 MSTORE PUSH1 0x1 PUSH1 0x1 PUSH1 0x60 SHL SUB PUSH1 0x1 PUSH1 0xA0 SHL SWAP4 DUP5 SWAP1 DIV DUP2 AND SWAP6 DUP4 ADD DUP7 SWAP1 MSTORE PUSH1 0x1 SWAP1 SWAP2 ADD SLOAD PUSH1 0xFF AND ISZERO ISZERO SWAP4 DUP3 ADD SWAP4 SWAP1 SWAP4 MSTORE PUSH1 0x6 SLOAD SWAP1 SWAP5 POP PUSH2 0x2710 SWAP4 SWAP3 SWAP2 SWAP1 DIV AND PUSH2 0x983 PUSH2 0x100 DUP9 ADD PUSH1 0xE0 DUP10 ADD PUSH2 0x2BE4 JUMP JUMPDEST PUSH2 0x98D SWAP2 SWAP1 PUSH2 0x2CA9 JUMP JUMPDEST PUSH2 0x997 SWAP2 SWAP1 PUSH2 0x2CA9 JUMP JUMPDEST PUSH1 0x1 PUSH1 0x1 PUSH1 0x60 SHL SUB AND GT ISZERO PUSH2 0xA06 JUMPI PUSH1 0x40 MLOAD PUSH3 0x461BCD PUSH1 0xE5 SHL DUP2 MSTORE PUSH1 0x20 PUSH1 0x4 DUP3 ADD MSTORE PUSH1 0x2F PUSH1 0x24 DUP3 ADD MSTORE PUSH32 0x47424D61726B6574706C6163653A20746F74616C20666565206D757374206265 PUSH1 0x44 DUP3 ADD MSTORE PUSH15 0x206C657373207468616E2031303025 PUSH1 0x88 SHL PUSH1 0x64 DUP3 ADD MSTORE PUSH1 0x84 ADD PUSH2 0x5B9 JUMP JUMPDEST PUSH1 0x0 DUP5 PUSH1 0x80 ADD CALLDATALOAD GT PUSH2 0xA72 JUMPI PUSH1 0x40 MLOAD PUSH3 0x461BCD PUSH1 0xE5 SHL DUP2 MSTORE PUSH1 0x20 PUSH1 0x4 DUP3 ADD MSTORE PUSH1 0x2F PUSH1 0x24 DUP3 ADD MSTORE PUSH32 0x47424D61726B6574706C6163653A204E4654205072696365206D757374206265 PUSH1 0x44 DUP3 ADD MSTORE PUSH15 0x2067726561746572207468616E203 PUSH1 0x8C SHL PUSH1 0x64 DUP3 ADD MSTORE PUSH1 0x84 ADD PUSH2 0x5B9 JUMP JUMPDEST PUSH2 0xA84 PUSH1 0xA0 DUP6 ADD CALLDATALOAD PUSH1 0x80 DUP7 ADD CALLDATALOAD PUSH2 0x2CD0 JUMP JUMPDEST CALLVALUE LT ISZERO PUSH2 0xADD JUMPI PUSH1 0x40 MLOAD PUSH3 0x461BCD PUSH1 0xE5 SHL DUP2 MSTORE PUSH1 0x20 PUSH1 0x4 DUP3 ADD MSTORE PUSH1 0x21 PUSH1 0x24 DUP3 ADD MSTORE PUSH32 0x47424D61726B6574706C6163653A20496E73756666696369656E742066756E64 PUSH1 0x44 DUP3 ADD MSTORE PUSH1 0x73 PUSH1 0xF8 SHL PUSH1 0x64 DUP3 ADD MSTORE PUSH1 0x84 ADD PUSH2 0x5B9 JUMP JUMPDEST DUP4 PUSH2 0x100 ADD CALLDATALOAD TIMESTAMP GT ISZERO PUSH2 0xB02 JUMPI PUSH1 0x40 MLOAD PUSH3 0x461BCD PUSH1 0xE5 SHL DUP2 MSTORE PUSH1 0x4 ADD PUSH2 0x5B9 SWAP1 PUSH2 0x2CE3 JUMP JUMPDEST PUSH1 0x3 PUSH1 0x0 PUSH2 0xB16 PUSH1 0x40 DUP8 ADD PUSH1 0x20 DUP9 ADD PUSH2 0x2908 JUMP JUMPDEST PUSH1 0x1 PUSH1 0x1 PUSH1 0xA0 SHL SUB AND DUP2 MSTORE PUSH1 0x20 DUP2 ADD SWAP2 SWAP1 SWAP2 MSTORE PUSH1 0x40 ADD PUSH1 0x0 KECCAK256 SLOAD PUSH1 0xFF AND PUSH2 0xB4F JUMPI PUSH1 0x40 MLOAD PUSH3 0x461BCD PUSH1 0xE5 SHL DUP2 MSTORE PUSH1 0x4 ADD PUSH2 0x5B9 SWAP1 PUSH2 0x2D18 JUMP JUMPDEST CALLER PUSH1 0x0 SWAP1 DUP2 MSTORE PUSH1 0x4 PUSH1 0x20 MSTORE PUSH1 0x40 SWAP1 KECCAK256 SLOAD PUSH2 0xBB0 PUSH2 0xB74 PUSH2 0xB6F DUP8 DUP5 PUSH2 0x1D8E JUMP JUMPDEST PUSH2 0x1E9D JUMP JUMPDEST DUP6 DUP6 DUP1 DUP1 PUSH1 0x1F ADD PUSH1 0x20 DUP1 SWAP2 DIV MUL PUSH1 0x20 ADD PUSH1 0x40 MLOAD SWAP1 DUP2 ADD PUSH1 0x40 MSTORE DUP1 SWAP4 SWAP3 SWAP2 SWAP1 DUP2 DUP2 MSTORE PUSH1 0x20 ADD DUP4 DUP4 DUP1 DUP3 DUP5 CALLDATACOPY PUSH1 0x0 SWAP3 ADD SWAP2 SWAP1 SWAP2 MSTORE POP PUSH2 0x1EB0 SWAP3 POP POP POP JUMP JUMPDEST PUSH2 0xBCC JUMPI PUSH1 0x40 MLOAD PUSH3 0x461BCD PUSH1 0xE5 SHL DUP2 MSTORE PUSH1 0x4 ADD PUSH2 0x5B9 SWAP1 PUSH2 0x2D61 JUMP JUMPDEST PUSH1 0x0 PUSH2 0xBFE PUSH1 0x80 DUP8 ADD CALLDATALOAD PUSH2 0xBE7 PUSH2 0x100 DUP10 ADD PUSH1 0xE0 DUP11 ADD PUSH2 0x2BE4 JUMP JUMPDEST PUSH2 0x2710 PUSH1 0x1 PUSH1 0x1 PUSH1 0x60 SHL SUB SWAP2 SWAP1 SWAP2 AND SWAP2 SWAP1 SWAP2 MUL DIV SWAP1 JUMP JUMPDEST SWAP1 POP PUSH2 0xC26 PUSH2 0xC13 PUSH1 0xE0 DUP9 ADD PUSH1 0xC0 DUP10 ADD PUSH2 0x2908 JUMP JUMPDEST PUSH2 0xC21 PUSH1 0xA0 DUP10 ADD CALLDATALOAD DUP5 PUSH2 0x2CD0 JUMP JUMPDEST PUSH2 0x1EE7 JUMP JUMPDEST PUSH1 0x0 DUP1 PUSH2 0xC39 PUSH1 0x40 DUP10 ADD PUSH1 0x20 DUP11 ADD PUSH2 0x2908 JUMP JUMPDEST PUSH1 0x40 MLOAD PUSH4 0x152A902D PUSH1 0xE1 SHL DUP2 MSTORE PUSH1 0x60 DUP11 ADD CALLDATALOAD PUSH1 0x4 DUP3 ADD MSTORE PUSH1 0x80 DUP11 ADD CALLDATALOAD PUSH1 0x24 DUP3 ADD MSTORE PUSH1 0x1 PUSH1 0x1 PUSH1 0xA0 SHL SUB SWAP2 SWAP1 SWAP2 AND SWAP1 PUSH4 0x2A55205A SWAP1 PUSH1 0x44 ADD PUSH1 0x40 DUP1 MLOAD DUP1 DUP4 SUB DUP2 DUP7 GAS STATICCALL ISZERO DUP1 ISZERO PUSH2 0xC8C JUMPI RETURNDATASIZE PUSH1 0x0 DUP1 RETURNDATACOPY RETURNDATASIZE PUSH1 0x0 REVERT JUMPDEST POP POP POP POP PUSH1 0x40 MLOAD RETURNDATASIZE PUSH1 0x1F NOT PUSH1 0x1F DUP3 ADD AND DUP3 ADD DUP1 PUSH1 0x40 MSTORE POP DUP2 ADD SWAP1 PUSH2 0xCB0 SWAP2 SWAP1 PUSH2 0x2D8C JUMP JUMPDEST SWAP2 POP SWAP2 POP PUSH2 0xCBE DUP3 DUP3 PUSH2 0x1EE7 JUMP JUMPDEST PUSH1 0x6 SLOAD PUSH2 0x2710 PUSH1 0x80 DUP11 ADD CALLDATALOAD PUSH1 0x1 PUSH1 0xA0 SHL DUP4 DIV PUSH1 0x1 PUSH1 0x1 PUSH1 0x60 SHL SUB AND MUL DIV SWAP1 PUSH2 0xCEF SWAP1 PUSH1 0x1 PUSH1 0x1 PUSH1 0xA0 SHL SUB AND DUP3 PUSH2 0x1EE7 JUMP JUMPDEST PUSH1 0x80 DUP10 ADD CALLDATALOAD DUP5 SWAP1 SUB DUP3 SWAP1 SUB DUP2 DUP2 SUB SWAP1 DUP3 EQ PUSH2 0xD69 JUMPI DUP7 PUSH1 0x40 ADD MLOAD ISZERO PUSH2 0xD56 JUMPI PUSH1 0x0 PUSH2 0xD1B PUSH1 0x2 DUP4 PUSH2 0x2DBA JUMP JUMPDEST SWAP1 POP PUSH2 0xD36 PUSH2 0xD30 PUSH1 0x60 DUP14 ADD PUSH1 0x40 DUP15 ADD PUSH2 0x2908 JUMP JUMPDEST DUP3 PUSH2 0x1EE7 JUMP JUMPDEST PUSH1 0x6 SLOAD PUSH2 0xD50 SWAP1 PUSH1 0x1 PUSH1 0x1 PUSH1 0xA0 SHL SUB AND PUSH2 0xC21 DUP4 DUP6 PUSH2 0x2DDC JUMP JUMPDEST POP PUSH2 0xD69 JUMP JUMPDEST PUSH2 0xD69 PUSH2 0xD30 PUSH1 0x60 DUP13 ADD PUSH1 0x40 DUP14 ADD PUSH2 0x2908 JUMP JUMPDEST CALLER PUSH1 0x0 SWAP1 DUP2 MSTORE PUSH1 0x4 PUSH1 0x20 SWAP1 DUP2 MSTORE PUSH1 0x40 SWAP2 DUP3 SWAP1 KECCAK256 DUP1 SLOAD PUSH1 0x1 ADD SWAP1 SSTORE PUSH2 0xD91 SWAP2 DUP13 ADD SWAP1 DUP13 ADD PUSH2 0x2908 JUMP JUMPDEST PUSH1 0x1 PUSH1 0x1 PUSH1 0xA0 SHL SUB AND PUSH4 0x42842E0E PUSH2 0xDAF PUSH1 0x60 DUP14 ADD PUSH1 0x40 DUP15 ADD PUSH2 0x2908 JUMP JUMPDEST CALLER PUSH1 0x40 MLOAD PUSH1 0x1 PUSH1 0x1 PUSH1 0xE0 SHL SUB NOT PUSH1 0xE0 DUP6 SWAP1 SHL AND DUP2 MSTORE PUSH1 0x1 PUSH1 0x1 PUSH1 0xA0 SHL SUB SWAP3 DUP4 AND PUSH1 0x4 DUP3 ADD MSTORE SWAP2 AND PUSH1 0x24 DUP3 ADD MSTORE PUSH1 0x60 DUP14 ADD CALLDATALOAD PUSH1 0x44 DUP3 ADD MSTORE PUSH1 0x64 ADD PUSH1 0x0 PUSH1 0x40 MLOAD DUP1 DUP4 SUB DUP2 PUSH1 0x0 DUP8 DUP1 EXTCODESIZE ISZERO DUP1 ISZERO PUSH2 0xE02 JUMPI PUSH1 0x0 DUP1 REVERT JUMPDEST POP GAS CALL ISZERO DUP1 ISZERO PUSH2 0xE16 JUMPI RETURNDATASIZE PUSH1 0x0 DUP1 RETURNDATACOPY RETURNDATASIZE PUSH1 0x0 REVERT JUMPDEST POP POP POP POP PUSH32 0xB238DEF85B84E39431A81CF74571C9E05EFA135B52DD670762D0D300F0440296 DUP11 PUSH1 0x40 MLOAD PUSH2 0xE49 SWAP2 SWAP1 PUSH2 0x2DEF JUMP JUMPDEST PUSH1 0x40 MLOAD DUP1 SWAP2 SUB SWAP1 LOG1 POP POP PUSH1 0x1 DUP1 SSTORE POP POP POP POP POP POP POP POP JUMP JUMPDEST PUSH1 0x0 PUSH2 0xE6C DUP2 PUSH2 0x1C01 JUMP JUMPDEST PUSH2 0x6A9 PUSH2 0x2000 JUMP JUMPDEST PUSH1 0x0 SWAP2 DUP3 MSTORE PUSH1 0x20 DUP3 DUP2 MSTORE PUSH1 0x40 DUP1 DUP5 KECCAK256 PUSH1 0x1 PUSH1 0x1 PUSH1 0xA0 SHL SUB SWAP4 SWAP1 SWAP4 AND DUP5 MSTORE SWAP2 SWAP1 MSTORE SWAP1 KECCAK256 SLOAD PUSH1 0xFF AND SWAP1 JUMP JUMPDEST PUSH1 0x2 PUSH1 0x1 SLOAD SUB PUSH2 0xEBF JUMPI PUSH1 0x40 MLOAD PUSH3 0x461BCD PUSH1 0xE5 SHL DUP2 MSTORE PUSH1 0x4 ADD PUSH2 0x5B9 SWAP1 PUSH2 0x2BFF JUMP JUMPDEST PUSH1 0x2 PUSH1 0x1 SSTORE PUSH2 0xECC PUSH2 0x1D46 JUMP JUMPDEST PUSH1 0x0 PUSH2 0xED7 DUP2 PUSH2 0x1C01 JUMP JUMPDEST PUSH1 0x1 PUSH1 0x1 PUSH1 0xA0 SHL SUB DUP9 AND PUSH2 0xEFD JUMPI PUSH1 0x40 MLOAD PUSH3 0x461BCD PUSH1 0xE5 SHL DUP2 MSTORE PUSH1 0x4 ADD PUSH2 0x5B9 SWAP1 PUSH2 0x2C36 JUMP JUMPDEST DUP6 DUP4 EQ PUSH2 0xF72 JUMPI PUSH1 0x40 MLOAD PUSH3 0x461BCD PUSH1 0xE5 SHL DUP2 MSTORE PUSH1 0x20 PUSH1 0x4 DUP3 ADD MSTORE PUSH1 0x3A PUSH1 0x24 DUP3 ADD MSTORE PUSH32 0x47424D61726B6574706C6163653A20746F6B656E49647320616E6420746F6B65 PUSH1 0x44 DUP3 ADD MSTORE PUSH32 0x6E55524973206C656E677468206D75737420626520657175616C000000000000 PUSH1 0x64 DUP3 ADD MSTORE PUSH1 0x84 ADD PUSH2 0x5B9 JUMP JUMPDEST PUSH1 0x1 PUSH1 0x1 PUSH1 0xA0 SHL SUB DUP9 AND PUSH1 0x0 SWAP1 DUP2 MSTORE PUSH1 0x3 PUSH1 0x20 MSTORE PUSH1 0x40 SWAP1 KECCAK256 SLOAD PUSH1 0xFF AND PUSH2 0xFAA JUMPI PUSH1 0x40 MLOAD PUSH3 0x461BCD PUSH1 0xE5 SHL DUP2 MSTORE PUSH1 0x4 ADD PUSH2 0x5B9 SWAP1 PUSH2 0x2D18 JUMP JUMPDEST PUSH1 0x0 JUMPDEST DUP7 DUP2 LT ISZERO PUSH2 0x11B2 JUMPI PUSH1 0x0 DUP9 DUP9 DUP4 DUP2 DUP2 LT PUSH2 0xFC9 JUMPI PUSH2 0xFC9 PUSH2 0x2EB3 JUMP JUMPDEST SWAP1 POP PUSH1 0x20 MUL ADD CALLDATALOAD GT PUSH2 0xFED JUMPI PUSH1 0x40 MLOAD PUSH3 0x461BCD PUSH1 0xE5 SHL DUP2 MSTORE PUSH1 0x4 ADD PUSH2 0x5B9 SWAP1 PUSH2 0x2EC9 JUMP JUMPDEST PUSH1 0x40 DUP1 MLOAD PUSH1 0x60 DUP2 ADD DUP3 MSTORE PUSH1 0x1 PUSH1 0x1 PUSH1 0xA0 SHL SUB DUP1 DUP7 AND DUP3 MSTORE PUSH1 0x1 PUSH1 0x1 PUSH1 0x60 SHL SUB DUP10 AND PUSH1 0x20 DUP1 DUP5 ADD SWAP2 SWAP1 SWAP2 MSTORE PUSH1 0x1 DUP4 DUP6 ADD MSTORE SWAP1 DUP13 AND PUSH1 0x0 SWAP1 DUP2 MSTORE PUSH1 0x5 SWAP1 SWAP2 MSTORE SWAP2 DUP3 KECCAK256 SWAP1 SWAP2 DUP11 DUP11 DUP6 DUP2 DUP2 LT PUSH2 0x1041 JUMPI PUSH2 0x1041 PUSH2 0x2EB3 JUMP JUMPDEST PUSH1 0x20 SWAP1 DUP2 MUL SWAP3 SWAP1 SWAP3 ADD CALLDATALOAD DUP4 MSTORE POP DUP2 DUP2 ADD SWAP3 SWAP1 SWAP3 MSTORE PUSH1 0x40 SWAP1 DUP2 ADD PUSH1 0x0 KECCAK256 DUP4 MLOAD SWAP3 DUP5 ADD MLOAD PUSH1 0x1 PUSH1 0x1 PUSH1 0x60 SHL SUB AND PUSH1 0x1 PUSH1 0xA0 SHL MUL PUSH1 0x1 PUSH1 0x1 PUSH1 0xA0 SHL SUB SWAP4 DUP5 AND OR DUP2 SSTORE SWAP3 ADD MLOAD PUSH1 0x1 SWAP1 SWAP3 ADD DUP1 SLOAD SWAP3 ISZERO ISZERO PUSH1 0xFF NOT SWAP1 SWAP4 AND SWAP3 SWAP1 SWAP3 OR SWAP1 SWAP2 SSTORE DUP10 AND PUSH4 0xE5BFF2E4 DUP5 DUP11 DUP11 DUP6 DUP2 DUP2 LT PUSH2 0x10B4 JUMPI PUSH2 0x10B4 PUSH2 0x2EB3 JUMP JUMPDEST SWAP1 POP PUSH1 0x20 MUL ADD CALLDATALOAD DUP10 DUP10 DUP10 DUP8 DUP2 DUP2 LT PUSH2 0x10CE JUMPI PUSH2 0x10CE PUSH2 0x2EB3 JUMP JUMPDEST SWAP1 POP PUSH1 0x20 MUL DUP2 ADD SWAP1 PUSH2 0x10E0 SWAP2 SWAP1 PUSH2 0x2F19 JUMP JUMPDEST PUSH1 0x40 MLOAD DUP7 PUSH4 0xFFFFFFFF AND PUSH1 0xE0 SHL DUP2 MSTORE PUSH1 0x4 ADD PUSH2 0x1100 SWAP6 SWAP5 SWAP4 SWAP3 SWAP2 SWAP1 PUSH2 0x2F89 JUMP JUMPDEST PUSH1 0x0 PUSH1 0x40 MLOAD DUP1 DUP4 SUB DUP2 PUSH1 0x0 DUP8 DUP1 EXTCODESIZE ISZERO DUP1 ISZERO PUSH2 0x111A JUMPI PUSH1 0x0 DUP1 REVERT JUMPDEST POP GAS CALL ISZERO DUP1 ISZERO PUSH2 0x112E JUMPI RETURNDATASIZE PUSH1 0x0 DUP1 RETURNDATACOPY RETURNDATASIZE PUSH1 0x0 REVERT JUMPDEST POP POP POP POP PUSH32 0x723A7F75732CC7C49D80E424F8F880B978246D5E12BD498D41D6A39240E2C678 DUP10 DUP5 DUP11 DUP11 DUP6 DUP2 DUP2 LT PUSH2 0x1167 JUMPI PUSH2 0x1167 PUSH2 0x2EB3 JUMP JUMPDEST SWAP1 POP PUSH1 0x20 MUL ADD CALLDATALOAD DUP9 DUP9 DUP7 DUP2 DUP2 LT PUSH2 0x1180 JUMPI PUSH2 0x1180 PUSH2 0x2EB3 JUMP JUMPDEST SWAP1 POP PUSH1 0x20 MUL DUP2 ADD SWAP1 PUSH2 0x1192 SWAP2 SWAP1 PUSH2 0x2F19 JUMP JUMPDEST DUP12 PUSH1 0x40 MLOAD PUSH2 0x11A5 SWAP7 SWAP6 SWAP5 SWAP4 SWAP3 SWAP2 SWAP1 PUSH2 0x2FCB JUMP JUMPDEST PUSH1 0x40 MLOAD DUP1 SWAP2 SUB SWAP1 LOG1 PUSH2 0xFAD JUMP JUMPDEST POP PUSH32 0xA74B74A78619F24285B7C1638CE8ACA155445A36C3703F2297493080A0C1585A DUP9 CALLER DUP10 DUP10 DUP9 DUP9 DUP12 DUP10 PUSH1 0x40 MLOAD PUSH2 0x11F0 SWAP9 SWAP8 SWAP7 SWAP6 SWAP5 SWAP4 SWAP3 SWAP2 SWAP1 PUSH2 0x301B JUMP JUMPDEST PUSH1 0x40 MLOAD DUP1 SWAP2 SUB SWAP1 LOG1 POP POP PUSH1 0x1 DUP1 SSTORE POP POP POP POP POP POP JUMP JUMPDEST PUSH1 0x2 PUSH1 0x1 SLOAD SUB PUSH2 0x1228 JUMPI PUSH1 0x40 MLOAD PUSH3 0x461BCD PUSH1 0xE5 SHL DUP2 MSTORE PUSH1 0x4 ADD PUSH2 0x5B9 SWAP1 PUSH2 0x2BFF JUMP JUMPDEST PUSH1 0x2 PUSH1 0x1 SSTORE PUSH2 0x1235 PUSH2 0x1D46 JUMP JUMPDEST PUSH1 0x0 PUSH2 0x1247 PUSH1 0x40 DUP6 ADD PUSH1 0x20 DUP7 ADD PUSH2 0x2908 JUMP JUMPDEST PUSH1 0x1 PUSH1 0x1 PUSH1 0xA0 SHL SUB AND SUB PUSH2 0x126D JUMPI PUSH1 0x40 MLOAD PUSH3 0x461BCD PUSH1 0xE5 SHL DUP2 MSTORE PUSH1 0x4 ADD PUSH2 0x5B9 SWAP1 PUSH2 0x2C36 JUMP JUMPDEST PUSH1 0x0 DUP4 PUSH1 0x40 ADD CALLDATALOAD GT PUSH2 0x1291 JUMPI PUSH1 0x40 MLOAD PUSH3 0x461BCD PUSH1 0xE5 SHL DUP2 MSTORE PUSH1 0x4 ADD PUSH2 0x5B9 SWAP1 PUSH2 0x2EC9 JUMP JUMPDEST PUSH1 0x3 PUSH1 0x0 PUSH2 0x12A5 PUSH1 0x40 DUP7 ADD PUSH1 0x20 DUP8 ADD PUSH2 0x2908 JUMP JUMPDEST PUSH1 0x1 PUSH1 0x1 PUSH1 0xA0 SHL SUB AND DUP2 MSTORE PUSH1 0x20 DUP2 ADD SWAP2 SWAP1 SWAP2 MSTORE PUSH1 0x40 ADD PUSH1 0x0 KECCAK256 SLOAD PUSH1 0xFF AND PUSH2 0x12DE JUMPI PUSH1 0x40 MLOAD PUSH3 0x461BCD PUSH1 0xE5 SHL DUP2 MSTORE PUSH1 0x4 ADD PUSH2 0x5B9 SWAP1 PUSH2 0x2D18 JUMP JUMPDEST DUP3 PUSH1 0x80 ADD CALLDATALOAD TIMESTAMP GT ISZERO PUSH2 0x1302 JUMPI PUSH1 0x40 MLOAD PUSH3 0x461BCD PUSH1 0xE5 SHL DUP2 MSTORE PUSH1 0x4 ADD PUSH2 0x5B9 SWAP1 PUSH2 0x2CE3 JUMP JUMPDEST CALLER PUSH1 0x0 SWAP1 DUP2 MSTORE PUSH1 0x4 PUSH1 0x20 MSTORE PUSH1 0x40 SWAP1 KECCAK256 SLOAD PUSH2 0x135E PUSH2 0x1322 PUSH2 0xB6F DUP7 DUP5 PUSH2 0x203D JUMP JUMPDEST DUP5 DUP5 DUP1 DUP1 PUSH1 0x1F ADD PUSH1 0x20 DUP1 SWAP2 DIV MUL PUSH1 0x20 ADD PUSH1 0x40 MLOAD SWAP1 DUP2 ADD PUSH1 0x40 MSTORE DUP1 SWAP4 SWAP3 SWAP2 SWAP1 DUP2 DUP2 MSTORE PUSH1 0x20 ADD DUP4 DUP4 DUP1 DUP3 DUP5 CALLDATACOPY PUSH1 0x0 SWAP3 ADD SWAP2 SWAP1 SWAP2 MSTORE POP PUSH2 0x1EB0 SWAP3 POP POP POP JUMP JUMPDEST PUSH2 0x137A JUMPI PUSH1 0x40 MLOAD PUSH3 0x461BCD PUSH1 0xE5 SHL DUP2 MSTORE PUSH1 0x4 ADD PUSH2 0x5B9 SWAP1 PUSH2 0x2D61 JUMP JUMPDEST CALLER PUSH2 0x138B PUSH1 0x40 DUP7 ADD PUSH1 0x20 DUP8 ADD PUSH2 0x2908 JUMP JUMPDEST PUSH1 0x1 PUSH1 0x1 PUSH1 0xA0 SHL SUB AND PUSH4 0x6352211E DUP7 PUSH1 0x40 ADD CALLDATALOAD PUSH1 0x40 MLOAD DUP3 PUSH4 0xFFFFFFFF AND PUSH1 0xE0 SHL DUP2 MSTORE PUSH1 0x4 ADD PUSH2 0x13BC SWAP2 DUP2 MSTORE PUSH1 0x20 ADD SWAP1 JUMP JUMPDEST PUSH1 0x20 PUSH1 0x40 MLOAD DUP1 DUP4 SUB DUP2 DUP7 GAS STATICCALL ISZERO DUP1 ISZERO PUSH2 0x13D9 JUMPI RETURNDATASIZE PUSH1 0x0 DUP1 RETURNDATACOPY RETURNDATASIZE PUSH1 0x0 REVERT JUMPDEST POP POP POP POP PUSH1 0x40 MLOAD RETURNDATASIZE PUSH1 0x1F NOT PUSH1 0x1F DUP3 ADD AND DUP3 ADD DUP1 PUSH1 0x40 MSTORE POP DUP2 ADD SWAP1 PUSH2 0x13FD SWAP2 SWAP1 PUSH2 0x3137 JUMP JUMPDEST PUSH1 0x1 PUSH1 0x1 PUSH1 0xA0 SHL SUB AND EQ PUSH2 0x1471 JUMPI PUSH1 0x40 MLOAD PUSH3 0x461BCD PUSH1 0xE5 SHL DUP2 MSTORE PUSH1 0x20 PUSH1 0x4 DUP3 ADD MSTORE PUSH1 0x35 PUSH1 0x24 DUP3 ADD MSTORE PUSH32 0x47424D61726B6574706C6163653A204F6E6C79204E4654206F776E6572206361 PUSH1 0x44 DUP3 ADD MSTORE PUSH21 0x6E20757064617465206368617269747920696E666F PUSH1 0x58 SHL PUSH1 0x64 DUP3 ADD MSTORE PUSH1 0x84 ADD PUSH2 0x5B9 JUMP JUMPDEST CALLER PUSH1 0x0 SWAP1 DUP2 MSTORE PUSH1 0x4 PUSH1 0x20 SWAP1 DUP2 MSTORE PUSH1 0x40 SWAP2 DUP3 SWAP1 KECCAK256 DUP1 SLOAD PUSH1 0x1 ADD SWAP1 SSTORE PUSH2 0x1499 SWAP2 DUP7 ADD SWAP1 DUP7 ADD PUSH2 0x2908 JUMP JUMPDEST PUSH1 0x1 PUSH1 0x1 PUSH1 0xA0 SHL SUB AND PUSH4 0x162094C4 PUSH1 0x40 DUP7 ADD CALLDATALOAD PUSH2 0x14B9 PUSH1 0x60 DUP9 ADD DUP9 PUSH2 0x2F19 JUMP JUMPDEST PUSH1 0x40 MLOAD DUP5 PUSH4 0xFFFFFFFF AND PUSH1 0xE0 SHL DUP2 MSTORE PUSH1 0x4 ADD PUSH2 0x14D7 SWAP4 SWAP3 SWAP2 SWAP1 PUSH2 0x3154 JUMP JUMPDEST PUSH1 0x0 PUSH1 0x40 MLOAD DUP1 DUP4 SUB DUP2 PUSH1 0x0 DUP8 DUP1 EXTCODESIZE ISZERO DUP1 ISZERO PUSH2 0x14F1 JUMPI PUSH1 0x0 DUP1 REVERT JUMPDEST POP GAS CALL ISZERO DUP1 ISZERO PUSH2 0x1505 JUMPI RETURNDATASIZE PUSH1 0x0 DUP1 RETURNDATACOPY RETURNDATASIZE PUSH1 0x0 REVERT JUMPDEST POP PUSH32 0x2A594F4FDCFB43B211E3FE501443DA843ED0DAA6E9CC58965E68AFB67938F5F2 SWAP3 POP PUSH2 0x153C SWAP2 POP POP PUSH1 0x40 DUP7 ADD PUSH1 0x20 DUP8 ADD PUSH2 0x2908 JUMP JUMPDEST CALLER PUSH1 0x40 DUP8 ADD CALLDATALOAD PUSH2 0x154F PUSH1 0x60 DUP10 ADD DUP10 PUSH2 0x2F19 JUMP JUMPDEST PUSH1 0x40 MLOAD PUSH2 0x1560 SWAP6 SWAP5 SWAP4 SWAP3 SWAP2 SWAP1 PUSH2 0x3177 JUMP JUMPDEST PUSH1 0x40 MLOAD DUP1 SWAP2 SUB SWAP1 LOG1 POP POP PUSH1 0x1 DUP1 SSTORE POP POP JUMP JUMPDEST PUSH1 0x2 PUSH1 0x1 SLOAD SUB PUSH2 0x1594 JUMPI PUSH1 0x40 MLOAD PUSH3 0x461BCD PUSH1 0xE5 SHL DUP2 MSTORE PUSH1 0x4 ADD PUSH2 0x5B9 SWAP1 PUSH2 0x2BFF JUMP JUMPDEST PUSH1 0x2 PUSH1 0x1 SSTORE PUSH2 0x15A1 PUSH2 0x1D46 JUMP JUMPDEST PUSH1 0x0 PUSH2 0x15B3 PUSH1 0x40 DUP6 ADD PUSH1 0x20 DUP7 ADD PUSH2 0x2908 JUMP JUMPDEST PUSH1 0x1 PUSH1 0x1 PUSH1 0xA0 SHL SUB AND SUB PUSH2 0x15D9 JUMPI PUSH1 0x40 MLOAD PUSH3 0x461BCD PUSH1 0xE5 SHL DUP2 MSTORE PUSH1 0x4 ADD PUSH2 0x5B9 SWAP1 PUSH2 0x2C36 JUMP JUMPDEST PUSH1 0x0 DUP4 PUSH1 0x40 ADD CALLDATALOAD GT PUSH2 0x15FD JUMPI PUSH1 0x40 MLOAD PUSH3 0x461BCD PUSH1 0xE5 SHL DUP2 MSTORE PUSH1 0x4 ADD PUSH2 0x5B9 SWAP1 PUSH2 0x2EC9 JUMP JUMPDEST PUSH1 0x3 PUSH1 0x0 PUSH2 0x1611 PUSH1 0x40 DUP7 ADD PUSH1 0x20 DUP8 ADD PUSH2 0x2908 JUMP JUMPDEST PUSH1 0x1 PUSH1 0x1 PUSH1 0xA0 SHL SUB AND DUP2 MSTORE PUSH1 0x20 DUP2 ADD SWAP2 SWAP1 SWAP2 MSTORE PUSH1 0x40 ADD PUSH1 0x0 KECCAK256 SLOAD PUSH1 0xFF AND PUSH2 0x164A JUMPI PUSH1 0x40 MLOAD PUSH3 0x461BCD PUSH1 0xE5 SHL DUP2 MSTORE PUSH1 0x4 ADD PUSH2 0x5B9 SWAP1 PUSH2 0x2D18 JUMP JUMPDEST DUP3 PUSH1 0xA0 ADD CALLDATALOAD TIMESTAMP GT ISZERO PUSH2 0x166E JUMPI PUSH1 0x40 MLOAD PUSH3 0x461BCD PUSH1 0xE5 SHL DUP2 MSTORE PUSH1 0x4 ADD PUSH2 0x5B9 SWAP1 PUSH2 0x2CE3 JUMP JUMPDEST CALLER PUSH1 0x0 SWAP1 DUP2 MSTORE PUSH1 0x4 PUSH1 0x20 MSTORE PUSH1 0x40 SWAP1 KECCAK256 SLOAD PUSH2 0x168E PUSH2 0x1322 PUSH2 0xB6F DUP7 DUP5 PUSH2 0x20AC JUMP JUMPDEST PUSH2 0x16AA JUMPI PUSH1 0x40 MLOAD PUSH3 0x461BCD PUSH1 0xE5 SHL DUP2 MSTORE PUSH1 0x4 ADD PUSH2 0x5B9 SWAP1 PUSH2 0x2D61 JUMP JUMPDEST PUSH1 0x40 MLOAD DUP1 PUSH1 0x60 ADD PUSH1 0x40 MSTORE DUP1 PUSH2 0x16BC CALLER SWAP1 JUMP JUMPDEST PUSH1 0x1 PUSH1 0x1 PUSH1 0xA0 SHL SUB AND DUP2 MSTORE PUSH1 0x20 ADD PUSH2 0x16DA PUSH1 0x80 DUP8 ADD PUSH1 0x60 DUP9 ADD PUSH2 0x2BE4 JUMP JUMPDEST PUSH1 0x1 PUSH1 0x1 PUSH1 0x60 SHL SUB AND DUP2 MSTORE PUSH1 0x0 PUSH1 0x20 SWAP2 DUP3 ADD DUP2 SWAP1 MSTORE PUSH1 0x5 SWAP2 PUSH2 0x1702 SWAP1 PUSH1 0x40 DUP10 ADD SWAP1 DUP10 ADD PUSH2 0x2908 JUMP JUMPDEST PUSH1 0x1 PUSH1 0x1 PUSH1 0xA0 SHL SUB SWAP1 DUP2 AND DUP3 MSTORE PUSH1 0x20 DUP1 DUP4 ADD SWAP4 SWAP1 SWAP4 MSTORE PUSH1 0x40 SWAP2 DUP3 ADD PUSH1 0x0 SWAP1 DUP2 KECCAK256 DUP10 DUP5 ADD CALLDATALOAD DUP3 MSTORE DUP5 MSTORE DUP3 DUP2 KECCAK256 DUP6 MLOAD SWAP5 DUP7 ADD MLOAD PUSH1 0x1 PUSH1 0x1 PUSH1 0x60 SHL SUB AND PUSH1 0x1 PUSH1 0xA0 SHL MUL SWAP5 SWAP1 SWAP3 AND SWAP4 SWAP1 SWAP4 OR DUP2 SSTORE SWAP3 ADD MLOAD PUSH1 0x1 SWAP1 SWAP3 ADD DUP1 SLOAD SWAP3 ISZERO ISZERO PUSH1 0xFF NOT SWAP1 SWAP4 AND SWAP3 SWAP1 SWAP3 OR SWAP1 SWAP2 SSTORE PUSH1 0x4 SWAP1 PUSH2 0x1770 CALLER SWAP1 JUMP JUMPDEST PUSH1 0x1 PUSH1 0x1 PUSH1 0xA0 SHL SUB AND DUP2 MSTORE PUSH1 0x20 DUP1 DUP3 ADD SWAP3 SWAP1 SWAP3 MSTORE PUSH1 0x40 SWAP1 DUP2 ADD PUSH1 0x0 KECCAK256 DUP1 SLOAD PUSH1 0x1 ADD SWAP1 SSTORE PUSH2 0x17A2 SWAP2 SWAP1 DUP7 ADD SWAP1 DUP7 ADD PUSH2 0x2908 JUMP JUMPDEST PUSH1 0x1 PUSH1 0x1 PUSH1 0xA0 SHL SUB AND PUSH4 0xE5BFF2E4 CALLER PUSH1 0x40 DUP8 ADD CALLDATALOAD PUSH2 0x17C6 PUSH1 0x80 DUP10 ADD PUSH1 0x60 DUP11 ADD PUSH2 0x2BE4 JUMP JUMPDEST PUSH2 0x17D3 PUSH1 0x80 DUP11 ADD DUP11 PUSH2 0x2F19 JUMP JUMPDEST PUSH1 0x40 MLOAD DUP7 PUSH4 0xFFFFFFFF AND PUSH1 0xE0 SHL DUP2 MSTORE PUSH1 0x4 ADD PUSH2 0x17F3 SWAP6 SWAP5 SWAP4 SWAP3 SWAP2 SWAP1 PUSH2 0x2F89 JUMP JUMPDEST PUSH1 0x0 PUSH1 0x40 MLOAD DUP1 DUP4 SUB DUP2 PUSH1 0x0 DUP8 DUP1 EXTCODESIZE ISZERO DUP1 ISZERO PUSH2 0x180D JUMPI PUSH1 0x0 DUP1 REVERT JUMPDEST POP GAS CALL ISZERO DUP1 ISZERO PUSH2 0x1821 JUMPI RETURNDATASIZE PUSH1 0x0 DUP1 RETURNDATACOPY RETURNDATASIZE PUSH1 0x0 REVERT JUMPDEST POP PUSH32 0x723A7F75732CC7C49D80E424F8F880B978246D5E12BD498D41D6A39240E2C678 SWAP3 POP PUSH2 0x1858 SWAP2 POP POP PUSH1 0x40 DUP7 ADD PUSH1 0x20 DUP8 ADD PUSH2 0x2908 JUMP JUMPDEST CALLER PUSH1 0x40 DUP8 ADD CALLDATALOAD PUSH2 0x186B PUSH1 0x80 DUP10 ADD DUP10 PUSH2 0x2F19 JUMP JUMPDEST PUSH2 0x187B PUSH1 0x80 DUP12 ADD PUSH1 0x60 DUP13 ADD PUSH2 0x2BE4 JUMP JUMPDEST PUSH1 0x40 MLOAD PUSH2 0x1560 SWAP7 SWAP6 SWAP5 SWAP4 SWAP3 SWAP2 SWAP1 PUSH2 0x2FCB JUMP JUMPDEST PUSH1 0x0 PUSH2 0x1898 DUP2 PUSH2 0x1C01 JUMP JUMPDEST PUSH1 0x1 PUSH1 0x1 PUSH1 0xA0 SHL SUB DUP3 AND PUSH2 0x1902 JUMPI PUSH1 0x40 MLOAD PUSH3 0x461BCD PUSH1 0xE5 SHL DUP2 MSTORE PUSH1 0x20 PUSH1 0x4 DUP3 ADD MSTORE PUSH1 0x2B PUSH1 0x24 DUP3 ADD MSTORE PUSH32 0x766572696679526F6C652061646472657373206D757374206E6F74206265207A PUSH1 0x44 DUP3 ADD MSTORE PUSH11 0x65726F2061646472657373 PUSH1 0xA8 SHL PUSH1 0x64 DUP3 ADD MSTORE PUSH1 0x84 ADD PUSH2 0x5B9 JUMP JUMPDEST PUSH2 0x192C PUSH32 0xD262A1E181EC035692BCC8C920B971BCCC173D5263F104F91C1561B5033679DD DUP4 PUSH2 0x1C0B JUMP JUMPDEST PUSH1 0x40 MLOAD PUSH1 0x1 PUSH1 0x1 PUSH1 0xA0 SHL SUB DUP4 AND DUP2 MSTORE PUSH32 0x823BFE6C95B007BB6CC8BB748029C56AE8F83F9FC647A5C47B36F893BDEFE74F SWAP1 PUSH1 0x20 ADD PUSH2 0x60C JUMP JUMPDEST PUSH1 0x0 DUP3 DUP2 MSTORE PUSH1 0x20 DUP2 SWAP1 MSTORE PUSH1 0x40 SWAP1 KECCAK256 PUSH1 0x1 ADD SLOAD PUSH2 0x1980 DUP2 PUSH2 0x1C01 JUMP JUMPDEST PUSH2 0x542 DUP4 DUP4 PUSH2 0x1C8F JUMP JUMPDEST PUSH1 0x0 PUSH2 0x1995 DUP2 PUSH2 0x1C01 JUMP JUMPDEST PUSH1 0x1 PUSH1 0x1 PUSH1 0xA0 SHL SUB DUP4 AND PUSH2 0x1A01 JUMPI PUSH1 0x40 MLOAD PUSH3 0x461BCD PUSH1 0xE5 SHL DUP2 MSTORE PUSH1 0x20 PUSH1 0x4 DUP3 ADD MSTORE PUSH1 0x2D PUSH1 0x24 DUP3 ADD MSTORE PUSH32 0x6762436F6C6C656374696F6E2061646472657373206D757374206E6F74206265 PUSH1 0x44 DUP3 ADD MSTORE PUSH13 0x207A65726F2061646472657373 PUSH1 0x98 SHL PUSH1 0x64 DUP3 ADD MSTORE PUSH1 0x84 ADD PUSH2 0x5B9 JUMP JUMPDEST PUSH1 0x1 PUSH1 0x1 PUSH1 0xA0 SHL SUB DUP4 AND PUSH1 0x0 DUP2 DUP2 MSTORE PUSH1 0x3 PUSH1 0x20 SWAP1 DUP2 MSTORE PUSH1 0x40 SWAP2 DUP3 SWAP1 KECCAK256 DUP1 SLOAD PUSH1 0xFF NOT AND DUP7 ISZERO ISZERO SWAP1 DUP2 OR SWAP1 SWAP2 SSTORE DUP3 MLOAD SWAP4 DUP5 MSTORE SWAP1 DUP4 ADD MSTORE PUSH32 0x223891D059D602A4595404EC0A953E0FA8DE6291465A1E0D904D07F387F0B7FA SWAP2 ADD PUSH1 0x40 MLOAD DUP1 SWAP2 SUB SWAP1 LOG1 POP POP POP JUMP JUMPDEST PUSH1 0x2 PUSH1 0x1 SLOAD SUB PUSH2 0x1A87 JUMPI PUSH1 0x40 MLOAD PUSH3 0x461BCD PUSH1 0xE5 SHL DUP2 MSTORE PUSH1 0x4 ADD PUSH2 0x5B9 SWAP1 PUSH2 0x2BFF JUMP JUMPDEST PUSH1 0x2 PUSH1 0x1 SSTORE PUSH2 0x1A94 PUSH2 0x1D46 JUMP JUMPDEST PUSH2 0x1ADF PUSH2 0x1AA3 PUSH2 0xB6F DUP6 PUSH2 0x212C JUMP JUMPDEST DUP4 DUP4 DUP1 DUP1 PUSH1 0x1F ADD PUSH1 0x20 DUP1 SWAP2 DIV MUL PUSH1 0x20 ADD PUSH1 0x40 MLOAD SWAP1 DUP2 ADD PUSH1 0x40 MSTORE DUP1 SWAP4 SWAP3 SWAP2 SWAP1 DUP2 DUP2 MSTORE PUSH1 0x20 ADD DUP4 DUP4 DUP1 DUP3 DUP5 CALLDATACOPY PUSH1 0x0 SWAP3 ADD SWAP2 SWAP1 SWAP2 MSTORE POP PUSH2 0x1EB0 SWAP3 POP POP POP JUMP JUMPDEST PUSH2 0x1AFB JUMPI PUSH1 0x40 MLOAD PUSH3 0x461BCD PUSH1 0xE5 SHL DUP2 MSTORE PUSH1 0x4 ADD PUSH2 0x5B9 SWAP1 PUSH2 0x2D61 JUMP JUMPDEST POP POP PUSH1 0x1 DUP1 SSTORE POP JUMP JUMPDEST PUSH1 0x0 PUSH2 0x1B0F DUP2 PUSH2 0x1C01 JUMP JUMPDEST PUSH1 0x0 DUP3 PUSH1 0x1 PUSH1 0x1 PUSH1 0x60 SHL SUB AND GT PUSH2 0x1B76 JUMPI PUSH1 0x40 MLOAD PUSH3 0x461BCD PUSH1 0xE5 SHL DUP2 MSTORE PUSH1 0x20 PUSH1 0x4 DUP3 ADD MSTORE PUSH1 0x25 PUSH1 0x24 DUP3 ADD MSTORE PUSH32 0x706C6174666F726D466565206D7573742062652067726561746572207468616E PUSH1 0x44 DUP3 ADD MSTORE PUSH5 0x207A65726F PUSH1 0xD8 SHL PUSH1 0x64 DUP3 ADD MSTORE PUSH1 0x84 ADD PUSH2 0x5B9 JUMP JUMPDEST PUSH1 0x6 DUP1 SLOAD PUSH1 0x1 PUSH1 0x1 PUSH1 0xA0 SHL SUB AND PUSH1 0x1 PUSH1 0xA0 SHL PUSH1 0x1 PUSH1 0x1 PUSH1 0x60 SHL SUB DUP6 AND SWAP1 DUP2 MUL SWAP2 SWAP1 SWAP2 OR SWAP1 SWAP2 SSTORE PUSH1 0x40 MLOAD SWAP1 DUP2 MSTORE PUSH32 0xBE3599C33046219DDC3706F4B99CACA706DC0F53775580D18A367DC2188C96E5 SWAP1 PUSH1 0x20 ADD PUSH2 0x60C JUMP JUMPDEST PUSH1 0x0 PUSH1 0x1 PUSH1 0x1 PUSH1 0xE0 SHL SUB NOT DUP3 AND PUSH4 0x7965DB0B PUSH1 0xE0 SHL EQ DUP1 PUSH2 0x517 JUMPI POP PUSH4 0x1FFC9A7 PUSH1 0xE0 SHL PUSH1 0x1 PUSH1 0x1 PUSH1 0xE0 SHL SUB NOT DUP4 AND EQ PUSH2 0x517 JUMP JUMPDEST PUSH2 0x6A9 DUP2 CALLER PUSH2 0x21A1 JUMP JUMPDEST PUSH2 0x1C15 DUP3 DUP3 PUSH2 0xE74 JUMP JUMPDEST PUSH2 0x692 JUMPI PUSH1 0x0 DUP3 DUP2 MSTORE PUSH1 0x20 DUP2 DUP2 MSTORE PUSH1 0x40 DUP1 DUP4 KECCAK256 PUSH1 0x1 PUSH1 0x1 PUSH1 0xA0 SHL SUB DUP6 AND DUP5 MSTORE SWAP1 SWAP2 MSTORE SWAP1 KECCAK256 DUP1 SLOAD PUSH1 0xFF NOT AND PUSH1 0x1 OR SWAP1 SSTORE PUSH2 0x1C4B CALLER SWAP1 JUMP JUMPDEST PUSH1 0x1 PUSH1 0x1 PUSH1 0xA0 SHL SUB AND DUP2 PUSH1 0x1 PUSH1 0x1 PUSH1 0xA0 SHL SUB AND DUP4 PUSH32 0x2F8788117E7EFF1D82E926EC794901D17C78024A50270940304540A733656F0D PUSH1 0x40 MLOAD PUSH1 0x40 MLOAD DUP1 SWAP2 SUB SWAP1 LOG4 POP POP JUMP JUMPDEST PUSH2 0x1C99 DUP3 DUP3 PUSH2 0xE74 JUMP JUMPDEST ISZERO PUSH2 0x692 JUMPI PUSH1 0x0 DUP3 DUP2 MSTORE PUSH1 0x20 DUP2 DUP2 MSTORE PUSH1 0x40 DUP1 DUP4 KECCAK256 PUSH1 0x1 PUSH1 0x1 PUSH1 0xA0 SHL SUB DUP6 AND DUP1 DUP6 MSTORE SWAP3 MSTORE DUP1 DUP4 KECCAK256 DUP1 SLOAD PUSH1 0xFF NOT AND SWAP1 SSTORE MLOAD CALLER SWAP3 DUP6 SWAP2 PUSH32 0xF6391F5C32D9C69D2A47EA670B442974B53935D1EDC7FD64EB21E047A839171B SWAP2 SWAP1 LOG4 POP POP JUMP JUMPDEST PUSH2 0x1CFC PUSH2 0x2205 JUMP JUMPDEST PUSH1 0x2 DUP1 SLOAD PUSH1 0xFF NOT AND SWAP1 SSTORE PUSH32 0x5DB9EE0A495BF2E6FF9C91A7834C1BA4FDD244A5E8AA4E537BD38AEAE4B073AA CALLER JUMPDEST PUSH1 0x40 MLOAD PUSH1 0x1 PUSH1 0x1 PUSH1 0xA0 SHL SUB SWAP1 SWAP2 AND DUP2 MSTORE PUSH1 0x20 ADD PUSH1 0x40 MLOAD DUP1 SWAP2 SUB SWAP1 LOG1 JUMP JUMPDEST PUSH1 0x2 SLOAD PUSH1 0xFF AND ISZERO PUSH2 0x1D8C JUMPI PUSH1 0x40 MLOAD PUSH3 0x461BCD PUSH1 0xE5 SHL DUP2 MSTORE PUSH1 0x20 PUSH1 0x4 DUP3 ADD MSTORE PUSH1 0x10 PUSH1 0x24 DUP3 ADD MSTORE PUSH16 0x14185D5CD8589B194E881C185D5CD959 PUSH1 0x82 SHL PUSH1 0x44 DUP3 ADD MSTORE PUSH1 0x64 ADD PUSH2 0x5B9 JUMP JUMPDEST JUMP JUMPDEST PUSH1 0x0 PUSH32 0x17267E3C9A41FDC4878F6C57751034DFBBF7FEBE7592905BFE881B17E566ED2B PUSH2 0x1DBE PUSH1 0x20 DUP6 ADD DUP6 PUSH2 0x2908 JUMP JUMPDEST PUSH2 0x1DCE PUSH1 0x40 DUP7 ADD PUSH1 0x20 DUP8 ADD PUSH2 0x2908 JUMP JUMPDEST PUSH2 0x1DDE PUSH1 0x60 DUP8 ADD PUSH1 0x40 DUP9 ADD PUSH2 0x2908 JUMP JUMPDEST PUSH1 0x60 DUP8 ADD CALLDATALOAD PUSH1 0x80 DUP9 ADD CALLDATALOAD PUSH1 0xA0 DUP10 ADD CALLDATALOAD PUSH2 0x1DFD PUSH1 0xE0 DUP12 ADD PUSH1 0xC0 DUP13 ADD PUSH2 0x2908 JUMP JUMPDEST PUSH2 0x1E0E PUSH2 0x100 DUP13 ADD PUSH1 0xE0 DUP14 ADD PUSH2 0x2BE4 JUMP JUMPDEST PUSH1 0x40 DUP1 MLOAD PUSH1 0x20 DUP2 ADD SWAP11 SWAP1 SWAP11 MSTORE PUSH1 0x1 PUSH1 0x1 PUSH1 0xA0 SHL SUB SWAP9 DUP10 AND SWAP1 DUP11 ADD MSTORE SWAP6 DUP8 AND PUSH1 0x60 DUP10 ADD MSTORE SWAP4 DUP7 AND PUSH1 0x80 DUP9 ADD MSTORE PUSH1 0xA0 DUP8 ADD SWAP3 SWAP1 SWAP3 MSTORE PUSH1 0xC0 DUP7 ADD MSTORE PUSH1 0xE0 DUP6 ADD MSTORE SWAP1 SWAP2 AND PUSH2 0x100 DUP1 DUP5 ADD SWAP2 SWAP1 SWAP2 MSTORE PUSH1 0x1 PUSH1 0x1 PUSH1 0x60 SHL SUB SWAP1 SWAP2 AND PUSH2 0x120 DUP4 ADD MSTORE DUP5 ADD CALLDATALOAD PUSH2 0x140 DUP3 ADD MSTORE PUSH2 0x160 DUP2 ADD DUP4 SWAP1 MSTORE PUSH2 0x180 ADD JUMPDEST PUSH1 0x40 MLOAD PUSH1 0x20 DUP2 DUP4 SUB SUB DUP2 MSTORE SWAP1 PUSH1 0x40 MSTORE DUP1 MLOAD SWAP1 PUSH1 0x20 ADD KECCAK256 SWAP1 POP SWAP3 SWAP2 POP POP JUMP JUMPDEST PUSH1 0x0 PUSH2 0x517 PUSH2 0x1EAA PUSH2 0x224E JUMP JUMPDEST DUP4 PUSH2 0x2375 JUMP JUMPDEST PUSH1 0x0 PUSH2 0x1EE0 PUSH32 0xD262A1E181EC035692BCC8C920B971BCCC173D5263F104F91C1561B5033679DD PUSH2 0x3BE DUP6 DUP6 PUSH2 0x239C JUMP JUMPDEST SWAP4 SWAP3 POP POP POP JUMP JUMPDEST DUP1 SELFBALANCE LT ISZERO PUSH2 0x1F37 JUMPI PUSH1 0x40 MLOAD PUSH3 0x461BCD PUSH1 0xE5 SHL DUP2 MSTORE PUSH1 0x20 PUSH1 0x4 DUP3 ADD MSTORE PUSH1 0x1D PUSH1 0x24 DUP3 ADD MSTORE PUSH32 0x416464726573733A20696E73756666696369656E742062616C616E6365000000 PUSH1 0x44 DUP3 ADD MSTORE PUSH1 0x64 ADD PUSH2 0x5B9 JUMP JUMPDEST PUSH1 0x0 DUP3 PUSH1 0x1 PUSH1 0x1 PUSH1 0xA0 SHL SUB AND DUP3 PUSH1 0x40 MLOAD PUSH1 0x0 PUSH1 0x40 MLOAD DUP1 DUP4 SUB DUP2 DUP6 DUP8 GAS CALL SWAP3 POP POP POP RETURNDATASIZE DUP1 PUSH1 0x0 DUP2 EQ PUSH2 0x1F84 JUMPI PUSH1 0x40 MLOAD SWAP2 POP PUSH1 0x1F NOT PUSH1 0x3F RETURNDATASIZE ADD AND DUP3 ADD PUSH1 0x40 MSTORE RETURNDATASIZE DUP3 MSTORE RETURNDATASIZE PUSH1 0x0 PUSH1 0x20 DUP5 ADD RETURNDATACOPY PUSH2 0x1F89 JUMP JUMPDEST PUSH1 0x60 SWAP2 POP JUMPDEST POP POP SWAP1 POP DUP1 PUSH2 0x542 JUMPI PUSH1 0x40 MLOAD PUSH3 0x461BCD PUSH1 0xE5 SHL DUP2 MSTORE PUSH1 0x20 PUSH1 0x4 DUP3 ADD MSTORE PUSH1 0x3A PUSH1 0x24 DUP3 ADD MSTORE PUSH32 0x416464726573733A20756E61626C6520746F2073656E642076616C75652C2072 PUSH1 0x44 DUP3 ADD MSTORE PUSH32 0x6563697069656E74206D61792068617665207265766572746564000000000000 PUSH1 0x64 DUP3 ADD MSTORE PUSH1 0x84 ADD PUSH2 0x5B9 JUMP JUMPDEST PUSH2 0x2008 PUSH2 0x1D46 JUMP JUMPDEST PUSH1 0x2 DUP1 SLOAD PUSH1 0xFF NOT AND PUSH1 0x1 OR SWAP1 SSTORE PUSH32 0x62E78CEA01BEE320CD4E420270B5EA74000D11B0C9F74754EBDBFC544B05A258 PUSH2 0x1D29 CALLER SWAP1 JUMP JUMPDEST PUSH1 0x0 PUSH32 0x485787466C6BB756E23877696AFB1FFEF4D4F7DAA150BE930943445B9EFD5ABC PUSH2 0x206D PUSH1 0x20 DUP6 ADD DUP6 PUSH2 0x2908 JUMP JUMPDEST PUSH2 0x207D PUSH1 0x40 DUP7 ADD PUSH1 0x20 DUP8 ADD PUSH2 0x2908 JUMP JUMPDEST PUSH1 0x40 DUP7 ADD CALLDATALOAD PUSH2 0x208F PUSH1 0x60 DUP9 ADD DUP9 PUSH2 0x2F19 JUMP JUMPDEST DUP9 PUSH1 0x80 ADD CALLDATALOAD DUP9 PUSH1 0x40 MLOAD PUSH1 0x20 ADD PUSH2 0x1E7F SWAP9 SWAP8 SWAP7 SWAP6 SWAP5 SWAP4 SWAP3 SWAP2 SWAP1 PUSH2 0x31AB JUMP JUMPDEST PUSH1 0x0 PUSH32 0xD7414A21AE7FE6C7AE7BA4FC193977B266778B52F64E202866E96F1D30267F7F PUSH2 0x20DC PUSH1 0x20 DUP6 ADD DUP6 PUSH2 0x2908 JUMP JUMPDEST PUSH2 0x20EC PUSH1 0x40 DUP7 ADD PUSH1 0x20 DUP8 ADD PUSH2 0x2908 JUMP JUMPDEST PUSH1 0x40 DUP7 ADD CALLDATALOAD PUSH2 0x2101 PUSH1 0x80 DUP9 ADD PUSH1 0x60 DUP10 ADD PUSH2 0x2BE4 JUMP JUMPDEST PUSH2 0x210E PUSH1 0x80 DUP10 ADD DUP10 PUSH2 0x2F19 JUMP JUMPDEST DUP10 PUSH1 0xA0 ADD CALLDATALOAD DUP10 PUSH1 0x40 MLOAD PUSH1 0x20 ADD PUSH2 0x1E7F SWAP10 SWAP9 SWAP8 SWAP7 SWAP6 SWAP5 SWAP4 SWAP3 SWAP2 SWAP1 PUSH2 0x31FC JUMP JUMPDEST PUSH1 0x0 PUSH32 0x3B8FB4F63EF890BD0C5C826CB2EE3ECDEAE16F25E9A4EFAE10944B4E586BD2E9 PUSH2 0x215C PUSH1 0x20 DUP5 ADD DUP5 PUSH2 0x2908 JUMP JUMPDEST PUSH1 0x40 DUP1 MLOAD PUSH1 0x20 DUP2 DUP2 ADD SWAP5 SWAP1 SWAP5 MSTORE PUSH1 0x1 PUSH1 0x1 PUSH1 0xA0 SHL SUB SWAP1 SWAP3 AND SWAP1 DUP3 ADD MSTORE SWAP1 DUP4 ADD CALLDATALOAD PUSH1 0x60 DUP3 ADD MSTORE PUSH1 0x80 ADD PUSH1 0x40 MLOAD PUSH1 0x20 DUP2 DUP4 SUB SUB DUP2 MSTORE SWAP1 PUSH1 0x40 MSTORE DUP1 MLOAD SWAP1 PUSH1 0x20 ADD KECCAK256 SWAP1 POP SWAP2 SWAP1 POP JUMP JUMPDEST PUSH2 0x21AB DUP3 DUP3 PUSH2 0xE74 JUMP JUMPDEST PUSH2 0x692 JUMPI PUSH2 0x21C3 DUP2 PUSH1 0x1 PUSH1 0x1 PUSH1 0xA0 SHL SUB AND PUSH1 0x14 PUSH2 0x23C0 JUMP JUMPDEST PUSH2 0x21CE DUP4 PUSH1 0x20 PUSH2 0x23C0 JUMP JUMPDEST PUSH1 0x40 MLOAD PUSH1 0x20 ADD PUSH2 0x21DF SWAP3 SWAP2 SWAP1 PUSH2 0x3283 JUMP JUMPDEST PUSH1 0x40 DUP1 MLOAD PUSH1 0x1F NOT DUP2 DUP5 SUB ADD DUP2 MSTORE SWAP1 DUP3 SWAP1 MSTORE PUSH3 0x461BCD PUSH1 0xE5 SHL DUP3 MSTORE PUSH2 0x5B9 SWAP2 PUSH1 0x4 ADD PUSH2 0x32F8 JUMP JUMPDEST PUSH1 0x2 SLOAD PUSH1 0xFF AND PUSH2 0x1D8C JUMPI PUSH1 0x40 MLOAD PUSH3 0x461BCD PUSH1 0xE5 SHL DUP2 MSTORE PUSH1 0x20 PUSH1 0x4 DUP3 ADD MSTORE PUSH1 0x14 PUSH1 0x24 DUP3 ADD MSTORE PUSH20 0x14185D5CD8589B194E881B9BDD081C185D5CD959 PUSH1 0x62 SHL PUSH1 0x44 DUP3 ADD MSTORE PUSH1 0x64 ADD PUSH2 0x5B9 JUMP JUMPDEST PUSH1 0x0 ADDRESS PUSH1 0x1 PUSH1 0x1 PUSH1 0xA0 SHL SUB PUSH32 0x0 AND EQ DUP1 ISZERO PUSH2 0x22A7 JUMPI POP PUSH32 0x0 CHAINID EQ JUMPDEST ISZERO PUSH2 0x22D1 JUMPI POP PUSH32 0x0 SWAP1 JUMP JUMPDEST POP PUSH1 0x40 DUP1 MLOAD PUSH32 0x0 PUSH1 0x20 DUP1 DUP4 ADD SWAP2 SWAP1 SWAP2 MSTORE PUSH32 0x0 DUP3 DUP5 ADD MSTORE PUSH32 0x0 PUSH1 0x60 DUP4 ADD MSTORE CHAINID PUSH1 0x80 DUP4 ADD MSTORE ADDRESS PUSH1 0xA0 DUP1 DUP5 ADD SWAP2 SWAP1 SWAP2 MSTORE DUP4 MLOAD DUP1 DUP5 SUB SWAP1 SWAP2 ADD DUP2 MSTORE PUSH1 0xC0 SWAP1 SWAP3 ADD SWAP1 SWAP3 MSTORE DUP1 MLOAD SWAP2 ADD KECCAK256 SWAP1 JUMP JUMPDEST PUSH1 0x40 MLOAD PUSH2 0x1901 PUSH1 0xF0 SHL PUSH1 0x20 DUP3 ADD MSTORE PUSH1 0x22 DUP2 ADD DUP4 SWAP1 MSTORE PUSH1 0x42 DUP2 ADD DUP3 SWAP1 MSTORE PUSH1 0x0 SWAP1 PUSH1 0x62 ADD PUSH2 0x1E7F JUMP JUMPDEST PUSH1 0x0 DUP1 PUSH1 0x0 PUSH2 0x23AB DUP6 DUP6 PUSH2 0x255C JUMP JUMPDEST SWAP2 POP SWAP2 POP PUSH2 0x23B8 DUP2 PUSH2 0x25A1 JUMP JUMPDEST POP SWAP4 SWAP3 POP POP POP JUMP JUMPDEST PUSH1 0x60 PUSH1 0x0 PUSH2 0x23CF DUP4 PUSH1 0x2 PUSH2 0x332B JUMP JUMPDEST PUSH2 0x23DA SWAP1 PUSH1 0x2 PUSH2 0x2CD0 JUMP JUMPDEST PUSH8 0xFFFFFFFFFFFFFFFF DUP2 GT ISZERO PUSH2 0x23F2 JUMPI PUSH2 0x23F2 PUSH2 0x3342 JUMP JUMPDEST PUSH1 0x40 MLOAD SWAP1 DUP1 DUP3 MSTORE DUP1 PUSH1 0x1F ADD PUSH1 0x1F NOT AND PUSH1 0x20 ADD DUP3 ADD PUSH1 0x40 MSTORE DUP1 ISZERO PUSH2 0x241C JUMPI PUSH1 0x20 DUP3 ADD DUP2 DUP1 CALLDATASIZE DUP4 CALLDATACOPY ADD SWAP1 POP JUMPDEST POP SWAP1 POP PUSH1 0x3 PUSH1 0xFC SHL DUP2 PUSH1 0x0 DUP2 MLOAD DUP2 LT PUSH2 0x2437 JUMPI PUSH2 0x2437 PUSH2 0x2EB3 JUMP JUMPDEST PUSH1 0x20 ADD ADD SWAP1 PUSH1 0x1 PUSH1 0x1 PUSH1 0xF8 SHL SUB NOT AND SWAP1 DUP2 PUSH1 0x0 BYTE SWAP1 MSTORE8 POP PUSH1 0xF PUSH1 0xFB SHL DUP2 PUSH1 0x1 DUP2 MLOAD DUP2 LT PUSH2 0x2466 JUMPI PUSH2 0x2466 PUSH2 0x2EB3 JUMP JUMPDEST PUSH1 0x20 ADD ADD SWAP1 PUSH1 0x1 PUSH1 0x1 PUSH1 0xF8 SHL SUB NOT AND SWAP1 DUP2 PUSH1 0x0 BYTE SWAP1 MSTORE8 POP PUSH1 0x0 PUSH2 0x248A DUP5 PUSH1 0x2 PUSH2 0x332B JUMP JUMPDEST PUSH2 0x2495 SWAP1 PUSH1 0x1 PUSH2 0x2CD0 JUMP JUMPDEST SWAP1 POP JUMPDEST PUSH1 0x1 DUP2 GT ISZERO PUSH2 0x250D JUMPI PUSH16 0x181899199A1A9B1B9C1CB0B131B232B3 PUSH1 0x81 SHL DUP6 PUSH1 0xF AND PUSH1 0x10 DUP2 LT PUSH2 0x24C9 JUMPI PUSH2 0x24C9 PUSH2 0x2EB3 JUMP JUMPDEST BYTE PUSH1 0xF8 SHL DUP3 DUP3 DUP2 MLOAD DUP2 LT PUSH2 0x24DF JUMPI PUSH2 0x24DF PUSH2 0x2EB3 JUMP JUMPDEST PUSH1 0x20 ADD ADD SWAP1 PUSH1 0x1 PUSH1 0x1 PUSH1 0xF8 SHL SUB NOT AND SWAP1 DUP2 PUSH1 0x0 BYTE SWAP1 MSTORE8 POP PUSH1 0x4 SWAP5 SWAP1 SWAP5 SHR SWAP4 PUSH2 0x2506 DUP2 PUSH2 0x3358 JUMP JUMPDEST SWAP1 POP PUSH2 0x2498 JUMP JUMPDEST POP DUP4 ISZERO PUSH2 0x1EE0 JUMPI PUSH1 0x40 MLOAD PUSH3 0x461BCD PUSH1 0xE5 SHL DUP2 MSTORE PUSH1 0x20 PUSH1 0x4 DUP3 ADD DUP2 SWAP1 MSTORE PUSH1 0x24 DUP3 ADD MSTORE PUSH32 0x537472696E67733A20686578206C656E67746820696E73756666696369656E74 PUSH1 0x44 DUP3 ADD MSTORE PUSH1 0x64 ADD PUSH2 0x5B9 JUMP JUMPDEST PUSH1 0x0 DUP1 DUP3 MLOAD PUSH1 0x41 SUB PUSH2 0x2592 JUMPI PUSH1 0x20 DUP4 ADD MLOAD PUSH1 0x40 DUP5 ADD MLOAD PUSH1 0x60 DUP6 ADD MLOAD PUSH1 0x0 BYTE PUSH2 0x2586 DUP8 DUP3 DUP6 DUP6 PUSH2 0x2757 JUMP JUMPDEST SWAP5 POP SWAP5 POP POP POP POP PUSH2 0x259A JUMP JUMPDEST POP PUSH1 0x0 SWAP1 POP PUSH1 0x2 JUMPDEST SWAP3 POP SWAP3 SWAP1 POP JUMP JUMPDEST PUSH1 0x0 DUP2 PUSH1 0x4 DUP2 GT ISZERO PUSH2 0x25B5 JUMPI PUSH2 0x25B5 PUSH2 0x336F JUMP JUMPDEST SUB PUSH2 0x25BD JUMPI POP JUMP JUMPDEST PUSH1 0x1 DUP2 PUSH1 0x4 DUP2 GT ISZERO PUSH2 0x25D1 JUMPI PUSH2 0x25D1 PUSH2 0x336F JUMP JUMPDEST SUB PUSH2 0x261E JUMPI PUSH1 0x40 MLOAD PUSH3 0x461BCD PUSH1 0xE5 SHL DUP2 MSTORE PUSH1 0x20 PUSH1 0x4 DUP3 ADD MSTORE PUSH1 0x18 PUSH1 0x24 DUP3 ADD MSTORE PUSH32 0x45434453413A20696E76616C6964207369676E61747572650000000000000000 PUSH1 0x44 DUP3 ADD MSTORE PUSH1 0x64 ADD PUSH2 0x5B9 JUMP JUMPDEST PUSH1 0x2 DUP2 PUSH1 0x4 DUP2 GT ISZERO PUSH2 0x2632 JUMPI PUSH2 0x2632 PUSH2 0x336F JUMP JUMPDEST SUB PUSH2 0x267F JUMPI PUSH1 0x40 MLOAD PUSH3 0x461BCD PUSH1 0xE5 SHL DUP2 MSTORE PUSH1 0x20 PUSH1 0x4 DUP3 ADD MSTORE PUSH1 0x1F PUSH1 0x24 DUP3 ADD MSTORE PUSH32 0x45434453413A20696E76616C6964207369676E6174757265206C656E67746800 PUSH1 0x44 DUP3 ADD MSTORE PUSH1 0x64 ADD PUSH2 0x5B9 JUMP JUMPDEST PUSH1 0x3 DUP2 PUSH1 0x4 DUP2 GT ISZERO PUSH2 0x2693 JUMPI PUSH2 0x2693 PUSH2 0x336F JUMP JUMPDEST SUB PUSH2 0x26EB JUMPI PUSH1 0x40 MLOAD PUSH3 0x461BCD PUSH1 0xE5 SHL DUP2 MSTORE PUSH1 0x20 PUSH1 0x4 DUP3 ADD MSTORE PUSH1 0x22 PUSH1 0x24 DUP3 ADD MSTORE PUSH32 0x45434453413A20696E76616C6964207369676E6174757265202773272076616C PUSH1 0x44 DUP3 ADD MSTORE PUSH2 0x7565 PUSH1 0xF0 SHL PUSH1 0x64 DUP3 ADD MSTORE PUSH1 0x84 ADD PUSH2 0x5B9 JUMP JUMPDEST PUSH1 0x4 DUP2 PUSH1 0x4 DUP2 GT ISZERO PUSH2 0x26FF JUMPI PUSH2 0x26FF PUSH2 0x336F JUMP JUMPDEST SUB PUSH2 0x6A9 JUMPI PUSH1 0x40 MLOAD PUSH3 0x461BCD PUSH1 0xE5 SHL DUP2 MSTORE PUSH1 0x20 PUSH1 0x4 DUP3 ADD MSTORE PUSH1 0x22 PUSH1 0x24 DUP3 ADD MSTORE PUSH32 0x45434453413A20696E76616C6964207369676E6174757265202776272076616C PUSH1 0x44 DUP3 ADD MSTORE PUSH2 0x7565 PUSH1 0xF0 SHL PUSH1 0x64 DUP3 ADD MSTORE PUSH1 0x84 ADD PUSH2 0x5B9 JUMP JUMPDEST PUSH1 0x0 DUP1 PUSH32 0x7FFFFFFFFFFFFFFFFFFFFFFFFFFFFFFF5D576E7357A4501DDFE92F46681B20A0 DUP4 GT ISZERO PUSH2 0x278E JUMPI POP PUSH1 0x0 SWAP1 POP PUSH1 0x3 PUSH2 0x283B JUMP JUMPDEST DUP5 PUSH1 0xFF AND PUSH1 0x1B EQ ISZERO DUP1 ISZERO PUSH2 0x27A6 JUMPI POP DUP5 PUSH1 0xFF AND PUSH1 0x1C EQ ISZERO JUMPDEST ISZERO PUSH2 0x27B7 JUMPI POP PUSH1 0x0 SWAP1 POP PUSH1 0x4 PUSH2 0x283B JUMP JUMPDEST PUSH1 0x40 DUP1 MLOAD PUSH1 0x0 DUP1 DUP3 MSTORE PUSH1 0x20 DUP3 ADD DUP1 DUP5 MSTORE DUP10 SWAP1 MSTORE PUSH1 0xFF DUP9 AND SWAP3 DUP3 ADD SWAP3 SWAP1 SWAP3 MSTORE PUSH1 0x60 DUP2 ADD DUP7 SWAP1 MSTORE PUSH1 0x80 DUP2 ADD DUP6 SWAP1 MSTORE PUSH1 0x1 SWAP1 PUSH1 0xA0 ADD PUSH1 0x20 PUSH1 0x40 MLOAD PUSH1 0x20 DUP2 SUB SWAP1 DUP1 DUP5 SUB SWAP1 DUP6 GAS STATICCALL ISZERO DUP1 ISZERO PUSH2 0x280B JUMPI RETURNDATASIZE PUSH1 0x0 DUP1 RETURNDATACOPY RETURNDATASIZE PUSH1 0x0 REVERT JUMPDEST POP POP PUSH1 0x40 MLOAD PUSH1 0x1F NOT ADD MLOAD SWAP2 POP POP PUSH1 0x1 PUSH1 0x1 PUSH1 0xA0 SHL SUB DUP2 AND PUSH2 0x2834 JUMPI PUSH1 0x0 PUSH1 0x1 SWAP3 POP SWAP3 POP POP PUSH2 0x283B JUMP JUMPDEST SWAP2 POP PUSH1 0x0 SWAP1 POP JUMPDEST SWAP5 POP SWAP5 SWAP3 POP POP POP JUMP JUMPDEST PUSH1 0x0 PUSH1 0x20 DUP3 DUP5 SUB SLT ISZERO PUSH2 0x2856 JUMPI PUSH1 0x0 DUP1 REVERT JUMPDEST DUP2 CALLDATALOAD PUSH1 0x1 PUSH1 0x1 PUSH1 0xE0 SHL SUB NOT DUP2 AND DUP2 EQ PUSH2 0x1EE0 JUMPI PUSH1 0x0 DUP1 REVERT JUMPDEST PUSH1 0x1 PUSH1 0x1 PUSH1 0xA0 SHL SUB DUP2 AND DUP2 EQ PUSH2 0x6A9 JUMPI PUSH1 0x0 DUP1 REVERT JUMPDEST DUP1 CALLDATALOAD PUSH2 0x288E DUP2 PUSH2 0x286E JUMP JUMPDEST SWAP2 SWAP1 POP JUMP JUMPDEST PUSH1 0x0 DUP1 PUSH1 0x40 DUP4 DUP6 SUB SLT ISZERO PUSH2 0x28A6 JUMPI PUSH1 0x0 DUP1 REVERT JUMPDEST DUP3 CALLDATALOAD PUSH2 0x28B1 DUP2 PUSH2 0x286E JUMP JUMPDEST SWAP5 PUSH1 0x20 SWAP4 SWAP1 SWAP4 ADD CALLDATALOAD SWAP4 POP POP POP JUMP JUMPDEST PUSH1 0x0 PUSH1 0x20 DUP3 DUP5 SUB SLT ISZERO PUSH2 0x28D1 JUMPI PUSH1 0x0 DUP1 REVERT JUMPDEST POP CALLDATALOAD SWAP2 SWAP1 POP JUMP JUMPDEST PUSH1 0x0 DUP1 PUSH1 0x40 DUP4 DUP6 SUB SLT ISZERO PUSH2 0x28EB JUMPI PUSH1 0x0 DUP1 REVERT JUMPDEST DUP3 CALLDATALOAD SWAP2 POP PUSH1 0x20 DUP4 ADD CALLDATALOAD PUSH2 0x28FD DUP2 PUSH2 0x286E JUMP JUMPDEST DUP1 SWAP2 POP POP SWAP3 POP SWAP3 SWAP1 POP JUMP JUMPDEST PUSH1 0x0 PUSH1 0x20 DUP3 DUP5 SUB SLT ISZERO PUSH2 0x291A JUMPI PUSH1 0x0 DUP1 REVERT JUMPDEST DUP2 CALLDATALOAD PUSH2 0x1EE0 DUP2 PUSH2 0x286E JUMP JUMPDEST PUSH1 0x0 DUP1 DUP4 PUSH1 0x1F DUP5 ADD SLT PUSH2 0x2937 JUMPI PUSH1 0x0 DUP1 REVERT JUMPDEST POP DUP2 CALLDATALOAD PUSH8 0xFFFFFFFFFFFFFFFF DUP2 GT ISZERO PUSH2 0x294F JUMPI PUSH1 0x0 DUP1 REVERT JUMPDEST PUSH1 0x20 DUP4 ADD SWAP2 POP DUP4 PUSH1 0x20 DUP3 DUP6 ADD ADD GT ISZERO PUSH2 0x259A JUMPI PUSH1 0x0 DUP1 REVERT JUMPDEST PUSH1 0x0 DUP1 PUSH1 0x0 DUP4 DUP6 SUB PUSH2 0x160 DUP2 SLT ISZERO PUSH2 0x297E JUMPI PUSH1 0x0 DUP1 REVERT JUMPDEST PUSH2 0x140 DUP1 DUP3 SLT ISZERO PUSH2 0x298E JUMPI PUSH1 0x0 DUP1 REVERT JUMPDEST DUP6 SWAP5 POP DUP5 ADD CALLDATALOAD SWAP1 POP PUSH8 0xFFFFFFFFFFFFFFFF DUP2 GT ISZERO PUSH2 0x29AB JUMPI PUSH1 0x0 DUP1 REVERT JUMPDEST PUSH2 0x29B7 DUP7 DUP3 DUP8 ADD PUSH2 0x2925 JUMP JUMPDEST SWAP5 SWAP8 SWAP1 SWAP7 POP SWAP4 SWAP5 POP POP POP POP JUMP JUMPDEST PUSH1 0x0 DUP1 DUP4 PUSH1 0x1F DUP5 ADD SLT PUSH2 0x29D6 JUMPI PUSH1 0x0 DUP1 REVERT JUMPDEST POP DUP2 CALLDATALOAD PUSH8 0xFFFFFFFFFFFFFFFF DUP2 GT ISZERO PUSH2 0x29EE JUMPI PUSH1 0x0 DUP1 REVERT JUMPDEST PUSH1 0x20 DUP4 ADD SWAP2 POP DUP4 PUSH1 0x20 DUP3 PUSH1 0x5 SHL DUP6 ADD ADD GT ISZERO PUSH2 0x259A JUMPI PUSH1 0x0 DUP1 REVERT JUMPDEST DUP1 CALLDATALOAD PUSH1 0x1 PUSH1 0x1 PUSH1 0x60 SHL SUB DUP2 AND DUP2 EQ PUSH2 0x288E JUMPI PUSH1 0x0 DUP1 REVERT JUMPDEST PUSH1 0x0 DUP1 PUSH1 0x0 DUP1 PUSH1 0x0 DUP1 PUSH1 0x0 PUSH1 0xA0 DUP9 DUP11 SUB SLT ISZERO PUSH2 0x2A3B JUMPI PUSH1 0x0 DUP1 REVERT JUMPDEST DUP8 CALLDATALOAD PUSH2 0x2A46 DUP2 PUSH2 0x286E JUMP JUMPDEST SWAP7 POP PUSH1 0x20 DUP9 ADD CALLDATALOAD PUSH8 0xFFFFFFFFFFFFFFFF DUP1 DUP3 GT ISZERO PUSH2 0x2A63 JUMPI PUSH1 0x0 DUP1 REVERT JUMPDEST PUSH2 0x2A6F DUP12 DUP4 DUP13 ADD PUSH2 0x29C4 JUMP JUMPDEST SWAP1 SWAP9 POP SWAP7 POP DUP7 SWAP2 POP PUSH2 0x2A83 PUSH1 0x40 DUP12 ADD PUSH2 0x2A09 JUMP JUMPDEST SWAP6 POP PUSH1 0x60 DUP11 ADD CALLDATALOAD SWAP2 POP DUP1 DUP3 GT ISZERO PUSH2 0x2A99 JUMPI PUSH1 0x0 DUP1 REVERT JUMPDEST POP PUSH2 0x2AA6 DUP11 DUP3 DUP12 ADD PUSH2 0x29C4 JUMP JUMPDEST SWAP1 SWAP5 POP SWAP3 POP POP PUSH1 0x80 DUP9 ADD CALLDATALOAD PUSH2 0x2ABA DUP2 PUSH2 0x286E JUMP JUMPDEST DUP1 SWAP2 POP POP SWAP3 SWAP6 SWAP9 SWAP2 SWAP5 SWAP8 POP SWAP3 SWAP6 POP JUMP JUMPDEST PUSH1 0x0 DUP1 PUSH1 0x0 PUSH1 0x40 DUP5 DUP7 SUB SLT ISZERO PUSH2 0x2ADF JUMPI PUSH1 0x0 DUP1 REVERT JUMPDEST DUP4 CALLDATALOAD PUSH8 0xFFFFFFFFFFFFFFFF DUP1 DUP3 GT ISZERO PUSH2 0x2AF7 JUMPI PUSH1 0x0 DUP1 REVERT JUMPDEST SWAP1 DUP6 ADD SWAP1 PUSH1 0xC0 DUP3 DUP9 SUB SLT ISZERO PUSH2 0x2B0B JUMPI PUSH1 0x0 DUP1 REVERT JUMPDEST SWAP1 SWAP4 POP PUSH1 0x20 DUP6 ADD CALLDATALOAD SWAP1 DUP1 DUP3 GT ISZERO PUSH2 0x2B21 JUMPI PUSH1 0x0 DUP1 REVERT JUMPDEST POP PUSH2 0x29B7 DUP7 DUP3 DUP8 ADD PUSH2 0x2925 JUMP JUMPDEST PUSH1 0x0 DUP1 PUSH1 0x0 PUSH1 0x40 DUP5 DUP7 SUB SLT ISZERO PUSH2 0x2B43 JUMPI PUSH1 0x0 DUP1 REVERT JUMPDEST DUP4 CALLDATALOAD PUSH8 0xFFFFFFFFFFFFFFFF DUP1 DUP3 GT ISZERO PUSH2 0x2B5B JUMPI PUSH1 0x0 DUP1 REVERT JUMPDEST SWAP1 DUP6 ADD SWAP1 PUSH1 0xE0 DUP3 DUP9 SUB SLT ISZERO PUSH2 0x2B0B JUMPI PUSH1 0x0 DUP1 REVERT JUMPDEST PUSH1 0x0 DUP1 PUSH1 0x40 DUP4 DUP6 SUB SLT ISZERO PUSH2 0x2B82 JUMPI PUSH1 0x0 DUP1 REVERT JUMPDEST DUP3 CALLDATALOAD PUSH2 0x2B8D DUP2 PUSH2 0x286E JUMP JUMPDEST SWAP2 POP PUSH1 0x20 DUP4 ADD CALLDATALOAD DUP1 ISZERO ISZERO DUP2 EQ PUSH2 0x28FD JUMPI PUSH1 0x0 DUP1 REVERT JUMPDEST PUSH1 0x0 DUP1 PUSH1 0x0 DUP4 DUP6 SUB PUSH1 0x60 DUP2 SLT ISZERO PUSH2 0x2BB8 JUMPI PUSH1 0x0 DUP1 REVERT JUMPDEST PUSH1 0x40 DUP2 SLT ISZERO PUSH2 0x2BC6 JUMPI PUSH1 0x0 DUP1 REVERT JUMPDEST POP DUP4 SWAP3 POP PUSH1 0x40 DUP5 ADD CALLDATALOAD PUSH8 0xFFFFFFFFFFFFFFFF DUP2 GT ISZERO PUSH2 0x29AB JUMPI PUSH1 0x0 DUP1 REVERT JUMPDEST PUSH1 0x0 PUSH1 0x20 DUP3 DUP5 SUB SLT ISZERO PUSH2 0x2BF6 JUMPI PUSH1 0x0 DUP1 REVERT JUMPDEST PUSH2 0x1EE0 DUP3 PUSH2 0x2A09 JUMP JUMPDEST PUSH1 0x20 DUP1 DUP3 MSTORE PUSH1 0x1F SWAP1 DUP3 ADD MSTORE PUSH32 0x5265656E7472616E637947756172643A207265656E7472616E742063616C6C00 PUSH1 0x40 DUP3 ADD MSTORE PUSH1 0x60 ADD SWAP1 JUMP JUMPDEST PUSH1 0x20 DUP1 DUP3 MSTORE PUSH1 0x3A SWAP1 DUP3 ADD MSTORE PUSH32 0x47424D61726B6574706C6163653A20636F6C6C656374696F6E20616464726573 PUSH1 0x40 DUP3 ADD MSTORE PUSH32 0x73206D757374206E6F74206265207A65726F2061646472657373000000000000 PUSH1 0x60 DUP3 ADD MSTORE PUSH1 0x80 ADD SWAP1 JUMP JUMPDEST PUSH4 0x4E487B71 PUSH1 0xE0 SHL PUSH1 0x0 MSTORE PUSH1 0x11 PUSH1 0x4 MSTORE PUSH1 0x24 PUSH1 0x0 REVERT JUMPDEST PUSH1 0x1 PUSH1 0x1 PUSH1 0x60 SHL SUB DUP2 DUP2 AND DUP4 DUP3 AND ADD SWAP1 DUP1 DUP3 GT ISZERO PUSH2 0x2CC9 JUMPI PUSH2 0x2CC9 PUSH2 0x2C93 JUMP JUMPDEST POP SWAP3 SWAP2 POP POP JUMP JUMPDEST DUP1 DUP3 ADD DUP1 DUP3 GT ISZERO PUSH2 0x517 JUMPI PUSH2 0x517 PUSH2 0x2C93 JUMP JUMPDEST PUSH1 0x20 DUP1 DUP3 MSTORE DUP2 DUP2 ADD MSTORE PUSH32 0x47424D61726B6574706C6163653A205369676E61747572652065787069726564 PUSH1 0x40 DUP3 ADD MSTORE PUSH1 0x60 ADD SWAP1 JUMP JUMPDEST PUSH1 0x20 DUP1 DUP3 MSTORE PUSH1 0x29 SWAP1 DUP3 ADD MSTORE PUSH32 0x47424D61726B6574706C6163653A20496E76616C696420636F6C6C656374696F PUSH1 0x40 DUP3 ADD MSTORE PUSH9 0x6E2061646472657373 PUSH1 0xB8 SHL PUSH1 0x60 DUP3 ADD MSTORE PUSH1 0x80 ADD SWAP1 JUMP JUMPDEST PUSH1 0x20 DUP1 DUP3 MSTORE PUSH1 0x11 SWAP1 DUP3 ADD MSTORE PUSH17 0x496E76616C6964207369676E6174757265 PUSH1 0x78 SHL PUSH1 0x40 DUP3 ADD MSTORE PUSH1 0x60 ADD SWAP1 JUMP JUMPDEST PUSH1 0x0 DUP1 PUSH1 0x40 DUP4 DUP6 SUB SLT ISZERO PUSH2 0x2D9F JUMPI PUSH1 0x0 DUP1 REVERT JUMPDEST DUP3 MLOAD PUSH2 0x2DAA DUP2 PUSH2 0x286E JUMP JUMPDEST PUSH1 0x20 SWAP4 SWAP1 SWAP4 ADD MLOAD SWAP3 SWAP5 SWAP3 SWAP4 POP POP POP JUMP JUMPDEST PUSH1 0x0 DUP3 PUSH2 0x2DD7 JUMPI PUSH4 0x4E487B71 PUSH1 0xE0 SHL PUSH1 0x0 MSTORE PUSH1 0x12 PUSH1 0x4 MSTORE PUSH1 0x24 PUSH1 0x0 REVERT JUMPDEST POP DIV SWAP1 JUMP JUMPDEST DUP2 DUP2 SUB DUP2 DUP2 GT ISZERO PUSH2 0x517 JUMPI PUSH2 0x517 PUSH2 0x2C93 JUMP JUMPDEST PUSH2 0x140 DUP2 ADD PUSH2 0x2E0E DUP3 PUSH2 0x2E01 DUP6 PUSH2 0x2883 JUMP JUMPDEST PUSH1 0x1 PUSH1 0x1 PUSH1 0xA0 SHL SUB AND SWAP1 MSTORE JUMP JUMPDEST PUSH2 0x2E1A PUSH1 0x20 DUP5 ADD PUSH2 0x2883 JUMP JUMPDEST PUSH1 0x1 PUSH1 0x1 PUSH1 0xA0 SHL SUB AND PUSH1 0x20 DUP4 ADD MSTORE PUSH2 0x2E34 PUSH1 0x40 DUP5 ADD PUSH2 0x2883 JUMP JUMPDEST PUSH1 0x1 PUSH1 0x1 PUSH1 0xA0 SHL SUB DUP2 AND PUSH1 0x40 DUP5 ADD MSTORE POP PUSH1 0x60 DUP4 ADD CALLDATALOAD PUSH1 0x60 DUP4 ADD MSTORE PUSH1 0x80 DUP4 ADD CALLDATALOAD PUSH1 0x80 DUP4 ADD MSTORE PUSH1 0xA0 DUP4 ADD CALLDATALOAD PUSH1 0xA0 DUP4 ADD MSTORE PUSH2 0x2E6E PUSH1 0xC0 DUP5 ADD PUSH2 0x2883 JUMP JUMPDEST PUSH1 0x1 PUSH1 0x1 PUSH1 0xA0 SHL SUB AND PUSH1 0xC0 DUP4 ADD MSTORE PUSH2 0x2E88 PUSH1 0xE0 DUP5 ADD PUSH2 0x2A09 JUMP JUMPDEST PUSH1 0x1 PUSH1 0x1 PUSH1 0x60 SHL SUB AND PUSH1 0xE0 DUP4 ADD MSTORE PUSH2 0x100 DUP4 DUP2 ADD CALLDATALOAD SWAP1 DUP4 ADD MSTORE PUSH2 0x120 SWAP3 DUP4 ADD CALLDATALOAD SWAP3 SWAP1 SWAP2 ADD SWAP2 SWAP1 SWAP2 MSTORE SWAP1 JUMP JUMPDEST PUSH4 0x4E487B71 PUSH1 0xE0 SHL PUSH1 0x0 MSTORE PUSH1 0x32 PUSH1 0x4 MSTORE PUSH1 0x24 PUSH1 0x0 REVERT JUMPDEST PUSH1 0x20 DUP1 DUP3 MSTORE PUSH1 0x30 SWAP1 DUP3 ADD MSTORE PUSH32 0x47424D61726B6574706C6163653A20746F6B656E4964206D7573742062652067 PUSH1 0x40 DUP3 ADD MSTORE PUSH16 0x726561746572207468616E207A65726F PUSH1 0x80 SHL PUSH1 0x60 DUP3 ADD MSTORE PUSH1 0x80 ADD SWAP1 JUMP JUMPDEST PUSH1 0x0 DUP1 DUP4 CALLDATALOAD PUSH1 0x1E NOT DUP5 CALLDATASIZE SUB ADD DUP2 SLT PUSH2 0x2F30 JUMPI PUSH1 0x0 DUP1 REVERT JUMPDEST DUP4 ADD DUP1 CALLDATALOAD SWAP2 POP PUSH8 0xFFFFFFFFFFFFFFFF DUP3 GT ISZERO PUSH2 0x2F4B JUMPI PUSH1 0x0 DUP1 REVERT JUMPDEST PUSH1 0x20 ADD SWAP2 POP CALLDATASIZE DUP2 SWAP1 SUB DUP3 SGT ISZERO PUSH2 0x259A JUMPI PUSH1 0x0 DUP1 REVERT JUMPDEST DUP2 DUP4 MSTORE DUP2 DUP2 PUSH1 0x20 DUP6 ADD CALLDATACOPY POP PUSH1 0x0 DUP3 DUP3 ADD PUSH1 0x20 SWAP1 DUP2 ADD SWAP2 SWAP1 SWAP2 MSTORE PUSH1 0x1F SWAP1 SWAP2 ADD PUSH1 0x1F NOT AND SWAP1 SWAP2 ADD ADD SWAP1 JUMP JUMPDEST PUSH1 0x1 DUP1 PUSH1 0xA0 SHL SUB DUP7 AND DUP2 MSTORE DUP5 PUSH1 0x20 DUP3 ADD MSTORE PUSH1 0x1 PUSH1 0x1 PUSH1 0x60 SHL SUB DUP5 AND PUSH1 0x40 DUP3 ADD MSTORE PUSH1 0x80 PUSH1 0x60 DUP3 ADD MSTORE PUSH1 0x0 PUSH2 0x2FC0 PUSH1 0x80 DUP4 ADD DUP5 DUP7 PUSH2 0x2F60 JUMP JUMPDEST SWAP8 SWAP7 POP POP POP POP POP POP POP JUMP JUMPDEST PUSH1 0x1 PUSH1 0x1 PUSH1 0xA0 SHL SUB DUP8 DUP2 AND DUP3 MSTORE DUP7 AND PUSH1 0x20 DUP3 ADD MSTORE PUSH1 0x40 DUP2 ADD DUP6 SWAP1 MSTORE PUSH1 0xA0 PUSH1 0x60 DUP3 ADD DUP2 SWAP1 MSTORE PUSH1 0x0 SWAP1 PUSH2 0x2FFF SWAP1 DUP4 ADD DUP6 DUP8 PUSH2 0x2F60 JUMP JUMPDEST SWAP1 POP PUSH1 0x1 PUSH1 0x1 PUSH1 0x60 SHL SUB DUP4 AND PUSH1 0x80 DUP4 ADD MSTORE SWAP8 SWAP7 POP POP POP POP POP POP POP JUMP JUMPDEST PUSH1 0x1 PUSH1 0x1 PUSH1 0xA0 SHL SUB DUP10 DUP2 AND DUP3 MSTORE DUP9 DUP2 AND PUSH1 0x20 DUP1 DUP5 ADD SWAP2 SWAP1 SWAP2 MSTORE PUSH1 0xC0 PUSH1 0x40 DUP5 ADD DUP2 SWAP1 MSTORE DUP4 ADD DUP9 SWAP1 MSTORE PUSH1 0x0 SWAP2 SWAP1 PUSH1 0x1 PUSH1 0x1 PUSH1 0xFB SHL SUB DUP10 GT ISZERO PUSH2 0x305A JUMPI PUSH1 0x0 DUP1 REVERT JUMPDEST DUP9 PUSH1 0x5 SHL SWAP2 POP DUP2 DUP11 PUSH1 0xE0 DUP7 ADD CALLDATACOPY PUSH1 0xE0 SWAP2 DUP5 ADD DUP5 DUP2 SUB DUP4 ADD PUSH1 0x60 DUP7 ADD MSTORE SWAP2 DUP3 ADD DUP8 SWAP1 MSTORE PUSH2 0x100 PUSH1 0x5 DUP9 SWAP1 SHL DUP4 ADD DUP2 ADD SWAP1 DUP4 ADD DUP10 PUSH1 0x0 JUMPDEST DUP11 DUP2 LT ISZERO PUSH2 0x30FF JUMPI DUP6 DUP5 SUB PUSH1 0xFF NOT ADD DUP4 MSTORE DUP2 CALLDATALOAD CALLDATASIZE DUP14 SWAP1 SUB PUSH1 0x1E NOT ADD DUP2 SLT PUSH2 0x30B5 JUMPI PUSH1 0x0 DUP1 REVERT JUMPDEST DUP13 ADD DUP6 DUP2 ADD SWAP1 CALLDATALOAD PUSH8 0xFFFFFFFFFFFFFFFF DUP2 GT ISZERO PUSH2 0x30D1 JUMPI PUSH1 0x0 DUP1 REVERT JUMPDEST DUP1 CALLDATASIZE SUB DUP3 SGT ISZERO PUSH2 0x30E0 JUMPI PUSH1 0x0 DUP1 REVERT JUMPDEST PUSH2 0x30EB DUP7 DUP3 DUP5 PUSH2 0x2F60 JUMP JUMPDEST SWAP6 POP POP POP SWAP2 DUP5 ADD SWAP2 SWAP1 DUP5 ADD SWAP1 PUSH1 0x1 ADD PUSH2 0x308F JUMP JUMPDEST POP POP POP PUSH1 0x1 PUSH1 0x1 PUSH1 0x60 SHL SUB DUP8 AND PUSH1 0x80 DUP7 ADD MSTORE SWAP3 POP PUSH2 0x311B SWAP2 POP POP JUMP JUMPDEST PUSH1 0x1 PUSH1 0x1 PUSH1 0xA0 SHL SUB DUP4 AND PUSH1 0xA0 DUP4 ADD MSTORE SWAP10 SWAP9 POP POP POP POP POP POP POP POP POP JUMP JUMPDEST PUSH1 0x0 PUSH1 0x20 DUP3 DUP5 SUB SLT ISZERO PUSH2 0x3149 JUMPI PUSH1 0x0 DUP1 REVERT JUMPDEST DUP2 MLOAD PUSH2 0x1EE0 DUP2 PUSH2 0x286E JUMP JUMPDEST DUP4 DUP2 MSTORE PUSH1 0x40 PUSH1 0x20 DUP3 ADD MSTORE PUSH1 0x0 PUSH2 0x316E PUSH1 0x40 DUP4 ADD DUP5 DUP7 PUSH2 0x2F60 JUMP JUMPDEST SWAP6 SWAP5 POP POP POP POP POP JUMP JUMPDEST PUSH1 0x1 PUSH1 0x1 PUSH1 0xA0 SHL SUB DUP7 DUP2 AND DUP3 MSTORE DUP6 AND PUSH1 0x20 DUP3 ADD MSTORE PUSH1 0x40 DUP2 ADD DUP5 SWAP1 MSTORE PUSH1 0x80 PUSH1 0x60 DUP3 ADD DUP2 SWAP1 MSTORE PUSH1 0x0 SWAP1 PUSH2 0x2FC0 SWAP1 DUP4 ADD DUP5 DUP7 PUSH2 0x2F60 JUMP JUMPDEST DUP9 DUP2 MSTORE PUSH1 0x1 PUSH1 0x1 PUSH1 0xA0 SHL SUB DUP9 DUP2 AND PUSH1 0x20 DUP4 ADD MSTORE DUP8 AND PUSH1 0x40 DUP3 ADD MSTORE PUSH1 0x60 DUP2 ADD DUP7 SWAP1 MSTORE PUSH1 0xE0 PUSH1 0x80 DUP3 ADD DUP2 SWAP1 MSTORE PUSH1 0x0 SWAP1 PUSH2 0x31E5 SWAP1 DUP4 ADD DUP7 DUP9 PUSH2 0x2F60 JUMP JUMPDEST PUSH1 0xA0 DUP4 ADD SWAP5 SWAP1 SWAP5 MSTORE POP PUSH1 0xC0 ADD MSTORE SWAP7 SWAP6 POP POP POP POP POP POP JUMP JUMPDEST DUP10 DUP2 MSTORE PUSH1 0x1 PUSH1 0x1 PUSH1 0xA0 SHL SUB DUP10 DUP2 AND PUSH1 0x20 DUP4 ADD MSTORE DUP9 AND PUSH1 0x40 DUP3 ADD MSTORE PUSH1 0x60 DUP2 ADD DUP8 SWAP1 MSTORE PUSH1 0x1 PUSH1 0x1 PUSH1 0x60 SHL SUB DUP7 AND PUSH1 0x80 DUP3 ADD MSTORE PUSH2 0x100 PUSH1 0xA0 DUP3 ADD DUP2 SWAP1 MSTORE PUSH1 0x0 SWAP1 PUSH2 0x3246 DUP4 DUP3 ADD DUP8 DUP10 PUSH2 0x2F60 JUMP JUMPDEST PUSH1 0xC0 DUP5 ADD SWAP6 SWAP1 SWAP6 MSTORE POP POP PUSH1 0xE0 ADD MSTORE SWAP8 SWAP7 POP POP POP POP POP POP POP JUMP JUMPDEST PUSH1 0x0 JUMPDEST DUP4 DUP2 LT ISZERO PUSH2 0x327A JUMPI DUP2 DUP2 ADD MLOAD DUP4 DUP3 ADD MSTORE PUSH1 0x20 ADD PUSH2 0x3262 JUMP JUMPDEST POP POP PUSH1 0x0 SWAP2 ADD MSTORE JUMP JUMPDEST PUSH32 0x416363657373436F6E74726F6C3A206163636F756E7420000000000000000000 DUP2 MSTORE PUSH1 0x0 DUP4 MLOAD PUSH2 0x32BB DUP2 PUSH1 0x17 DUP6 ADD PUSH1 0x20 DUP9 ADD PUSH2 0x325F JUMP JUMPDEST PUSH17 0x1034B99036B4B9B9B4B733903937B6329 PUSH1 0x7D SHL PUSH1 0x17 SWAP2 DUP5 ADD SWAP2 DUP3 ADD MSTORE DUP4 MLOAD PUSH2 0x32EC DUP2 PUSH1 0x28 DUP5 ADD PUSH1 0x20 DUP9 ADD PUSH2 0x325F JUMP JUMPDEST ADD PUSH1 0x28 ADD SWAP5 SWAP4 POP POP POP POP JUMP JUMPDEST PUSH1 0x20 DUP2 MSTORE PUSH1 0x0 DUP3 MLOAD DUP1 PUSH1 0x20 DUP5 ADD MSTORE PUSH2 0x3317 DUP2 PUSH1 0x40 DUP6 ADD PUSH1 0x20 DUP8 ADD PUSH2 0x325F JUMP JUMPDEST PUSH1 0x1F ADD PUSH1 0x1F NOT AND SWAP2 SWAP1 SWAP2 ADD PUSH1 0x40 ADD SWAP3 SWAP2 POP POP JUMP JUMPDEST DUP1 DUP3 MUL DUP2 ISZERO DUP3 DUP3 DIV DUP5 EQ OR PUSH2 0x517 JUMPI PUSH2 0x517 PUSH2 0x2C93 JUMP JUMPDEST PUSH4 0x4E487B71 PUSH1 0xE0 SHL PUSH1 0x0 MSTORE PUSH1 0x41 PUSH1 0x4 MSTORE PUSH1 0x24 PUSH1 0x0 REVERT JUMPDEST PUSH1 0x0 DUP2 PUSH2 0x3367 JUMPI PUSH2 0x3367 PUSH2 0x2C93 JUMP JUMPDEST POP PUSH1 0x0 NOT ADD SWAP1 JUMP JUMPDEST PUSH4 0x4E487B71 PUSH1 0xE0 SHL PUSH1 0x0 MSTORE PUSH1 0x21 PUSH1 0x4 MSTORE PUSH1 0x24 PUSH1 0x0 REVERT INVALID LOG2 PUSH5 0x6970667358 0x22 SLT KECCAK256 ADDRESS CALLDATALOAD 0x4A 0xAA DUP12 LOG1 COINBASE SWAP13 0xE3 0xCE ISZERO DELEGATECALL DUP7 0x21 CODESIZE INVALID ADDMOD PC 0xE1 0xD3 0x24 0x29 PUSH15 0x962845466FD44DE90964736F6C6343 STOP ADDMOD GT STOP CALLER "},"methodIdentifiers":{"DEFAULT_ADMIN_ROLE()":"a217fddf","VERIFY_ROLE()":"d41d0e5c","addPrimaryMultipleItems(address,uint256[],uint96,string[],address)":"94ae3881","addSingleItem((address,address,uint256,uint96,string,uint256,uint256),bytes)":"b9bca0da","buyItem((address,address,address,uint256,uint256,uint256,address,uint96,uint256,uint256),bytes)":"811f6b76","gbCollection(address)":"90bb447f","getRoleAdmin(bytes32)":"248a9ca3","grantRole(bytes32,address)":"2f2ff15d","hasRole(bytes32,address)":"91d14854","itemInfo(address,uint256)":"1cdaab67","myTest((address,uint256),bytes)":"e806fdd1","nonces(address)":"7ecebe00","pause()":"8456cb59","paused()":"5c975abb","platformFee()":"26232a2e","renounceRole(bytes32,address)":"36568abe","revokeRole(bytes32,address)":"d547741f","setAdminWallet(address)":"35082933","setGBCollectionAddress(address,bool)":"e20c7153","setPlatformFee(uint96)":"f99e5dbb","setVerifyRole(address)":"c46f23f4","supportsInterface(bytes4)":"01ffc9a7","unpause()":"3f4ba83a","updateTokenURI((address,address,uint256,string,uint256,uint256),bytes)":"ae3771b4"}},"storageLayout":{"storage":[{"astId":24,"contract":"contracts/GBMarketplace.sol:GBMarketplace","label":"_roles","offset":0,"slot":"0","type":"t_mapping(t_bytes32,t_struct(RoleData)19_storage)"},{"astId":530,"contract":"contracts/GBMarketplace.sol:GBMarketplace","label":"_status","offset":0,"slot":"1","type":"t_uint256"},{"astId":429,"contract":"contracts/GBMarketplace.sol:GBMarketplace","label":"_paused","offset":0,"slot":"2","type":"t_bool"},{"astId":3293,"contract":"contracts/GBMarketplace.sol:GBMarketplace","label":"gbCollection","offset":0,"slot":"3","type":"t_mapping(t_address,t_bool)"},{"astId":3297,"contract":"contracts/GBMarketplace.sol:GBMarketplace","label":"nonces","offset":0,"slot":"4","type":"t_mapping(t_address,t_uint256)"},{"astId":3304,"contract":"contracts/GBMarketplace.sol:GBMarketplace","label":"itemInfo","offset":0,"slot":"5","type":"t_mapping(t_address,t_mapping(t_uint256,t_struct(ItemInfo)3289_storage))"},{"astId":3311,"contract":"contracts/GBMarketplace.sol:GBMarketplace","label":"adminWallet","offset":0,"slot":"6","type":"t_address"},{"astId":3314,"contract":"contracts/GBMarketplace.sol:GBMarketplace","label":"platformFee","offset":20,"slot":"6","type":"t_uint96"}],"types":{"t_address":{"encoding":"inplace","label":"address","numberOfBytes":"20"},"t_bool":{"encoding":"inplace","label":"bool","numberOfBytes":"1"},"t_bytes32":{"encoding":"inplace","label":"bytes32","numberOfBytes":"32"},"t_mapping(t_address,t_bool)":{"encoding":"mapping","key":"t_address","label":"mapping(address => bool)","numberOfBytes":"32","value":"t_bool"},"t_mapping(t_address,t_mapping(t_uint256,t_struct(ItemInfo)3289_storage))":{"encoding":"mapping","key":"t_address","label":"mapping(address => mapping(uint256 => struct GBMarketplace.ItemInfo))","numberOfBytes":"32","value":"t_mapping(t_uint256,t_struct(ItemInfo)3289_storage)"},"t_mapping(t_address,t_uint256)":{"encoding":"mapping","key":"t_address","label":"mapping(address => uint256)","numberOfBytes":"32","value":"t_uint256"},"t_mapping(t_bytes32,t_struct(RoleData)19_storage)":{"encoding":"mapping","key":"t_bytes32","label":"mapping(bytes32 => struct AccessControl.RoleData)","numberOfBytes":"32","value":"t_struct(RoleData)19_storage"},"t_mapping(t_uint256,t_struct(ItemInfo)3289_storage)":{"encoding":"mapping","key":"t_uint256","label":"mapping(uint256 => struct GBMarketplace.ItemInfo)","numberOfBytes":"32","value":"t_struct(ItemInfo)3289_storage"},"t_struct(ItemInfo)3289_storage":{"encoding":"inplace","label":"struct GBMarketplace.ItemInfo","members":[{"astId":3284,"contract":"contracts/GBMarketplace.sol:GBMarketplace","label":"royaltyAddress","offset":0,"slot":"0","type":"t_address"},{"astId":3286,"contract":"contracts/GBMarketplace.sol:GBMarketplace","label":"royaltyFee","offset":20,"slot":"0","type":"t_uint96"},{"astId":3288,"contract":"contracts/GBMarketplace.sol:GBMarketplace","label":"isPrimaryCollection","offset":0,"slot":"1","type":"t_bool"}],"numberOfBytes":"64"},"t_struct(RoleData)19_storage":{"encoding":"inplace","label":"struct AccessControl.RoleData","members":[{"astId":16,"contract":"contracts/GBMarketplace.sol:GBMarketplace","label":"members","offset":0,"slot":"0","type":"t_mapping(t_address,t_bool)"},{"astId":18,"contract":"contracts/GBMarketplace.sol:GBMarketplace","label":"adminRole","offset":0,"slot":"1","type":"t_bytes32"}],"numberOfBytes":"64"},"t_uint256":{"encoding":"inplace","label":"uint256","numberOfBytes":"32"},"t_uint96":{"encoding":"inplace","label":"uint96","numberOfBytes":"12"}}}}}}