{"contracts/GBMarketplace.sol":{"GBMarketplace":{"abi":[{"inputs":[{"internalType":"address","name":"owner","type":"address"},{"internalType":"address","name":"adminWallet_","type":"address"}],"stateMutability":"nonpayable","type":"constructor"},{"anonymous":false,"inputs":[{"indexed":false,"internalType":"uint256[]","name":"ids","type":"uint256[]"}],"name":"BoughtItem","type":"event"},{"anonymous":false,"inputs":[{"indexed":false,"internalType":"bool[]","name":"cancelResults","type":"bool[]"},{"indexed":false,"internalType":"string[]","name":"cancelStatus","type":"string[]"},{"indexed":false,"internalType":"bytes32[]","name":"ordersHash","type":"bytes32[]"}],"name":"OrderCancelled","type":"event"},{"anonymous":false,"inputs":[{"indexed":false,"internalType":"address","name":"account","type":"address"}],"name":"Paused","type":"event"},{"anonymous":false,"inputs":[{"indexed":true,"internalType":"bytes32","name":"role","type":"bytes32"},{"indexed":true,"internalType":"bytes32","name":"previousAdminRole","type":"bytes32"},{"indexed":true,"internalType":"bytes32","name":"newAdminRole","type":"bytes32"}],"name":"RoleAdminChanged","type":"event"},{"anonymous":false,"inputs":[{"indexed":true,"internalType":"bytes32","name":"role","type":"bytes32"},{"indexed":true,"internalType":"address","name":"account","type":"address"},{"indexed":true,"internalType":"address","name":"sender","type":"address"}],"name":"RoleGranted","type":"event"},{"anonymous":false,"inputs":[{"indexed":true,"internalType":"bytes32","name":"role","type":"bytes32"},{"indexed":true,"internalType":"address","name":"account","type":"address"},{"indexed":true,"internalType":"address","name":"sender","type":"address"}],"name":"RoleRevoked","type":"event"},{"anonymous":false,"inputs":[{"indexed":false,"internalType":"address","name":"account","type":"address"}],"name":"SetAdminWallet","type":"event"},{"anonymous":false,"inputs":[{"indexed":false,"internalType":"address","name":"nftContract","type":"address"},{"indexed":false,"internalType":"bool","name":"status","type":"bool"}],"name":"SetNftContractAddress","type":"event"},{"anonymous":false,"inputs":[{"indexed":false,"internalType":"uint96","name":"platformFee","type":"uint96"},{"indexed":false,"internalType":"uint8","name":"platformFeeType","type":"uint8"}],"name":"SetPlatformFee","type":"event"},{"anonymous":false,"inputs":[{"indexed":false,"internalType":"address","name":"account","type":"address"}],"name":"Unpaused","type":"event"},{"anonymous":false,"inputs":[{"indexed":false,"internalType":"address","name":"nftContract","type":"address"},{"indexed":false,"internalType":"address","name":"owner","type":"address"},{"indexed":false,"internalType":"uint256","name":"tokenId","type":"uint256"},{"indexed":false,"internalType":"string","name":"tokenURI","type":"string"}],"name":"UpdatedTokenURI","type":"event"},{"inputs":[],"name":"DEFAULT_ADMIN_ROLE","outputs":[{"internalType":"bytes32","name":"","type":"bytes32"}],"stateMutability":"view","type":"function"},{"inputs":[{"components":[{"components":[{"internalType":"address","name":"nftContract","type":"address"},{"internalType":"uint256","name":"itemType","type":"uint256"},{"internalType":"address","name":"seller","type":"address"},{"internalType":"address","name":"artist","type":"address"},{"internalType":"bool","name":"isMinted","type":"bool"},{"internalType":"uint256","name":"tokenId","type":"uint256"},{"internalType":"string","name":"tokenURI","type":"string"},{"internalType":"uint256","name":"quantity","type":"uint256"},{"internalType":"uint256","name":"itemPrice","type":"uint256"},{"internalType":"address","name":"charityAddress","type":"address"},{"internalType":"uint96","name":"charityShare","type":"uint96"},{"internalType":"uint96","name":"royaltyFee","type":"uint96"},{"internalType":"uint256","name":"deadline","type":"uint256"},{"internalType":"uint256","name":"salt","type":"uint256"}],"internalType":"struct OrderItem","name":"orderItem","type":"tuple"},{"internalType":"uint256","name":"additionalAmount","type":"uint256"},{"internalType":"bytes","name":"signature","type":"bytes"}],"internalType":"struct Order[]","name":"orders","type":"tuple[]"}],"name":"buyItems","outputs":[],"stateMutability":"payable","type":"function"},{"inputs":[{"internalType":"address","name":"","type":"address"}],"name":"gbNftContracts","outputs":[{"internalType":"bool","name":"","type":"bool"}],"stateMutability":"view","type":"function"},{"inputs":[{"internalType":"bytes32","name":"role","type":"bytes32"}],"name":"getRoleAdmin","outputs":[{"internalType":"bytes32","name":"","type":"bytes32"}],"stateMutability":"view","type":"function"},{"inputs":[{"internalType":"bytes32","name":"role","type":"bytes32"},{"internalType":"address","name":"account","type":"address"}],"name":"grantRole","outputs":[],"stateMutability":"nonpayable","type":"function"},{"inputs":[{"internalType":"bytes32","name":"role","type":"bytes32"},{"internalType":"address","name":"account","type":"address"}],"name":"hasRole","outputs":[{"internalType":"bool","name":"","type":"bool"}],"stateMutability":"view","type":"function"},{"inputs":[{"internalType":"bytes32","name":"","type":"bytes32"}],"name":"orderCancelled","outputs":[{"internalType":"bool","name":"","type":"bool"}],"stateMutability":"view","type":"function"},{"inputs":[{"internalType":"bytes32","name":"","type":"bytes32"}],"name":"orderProcessed","outputs":[{"internalType":"bool","name":"","type":"bool"}],"stateMutability":"view","type":"function"},{"inputs":[],"name":"pause","outputs":[],"stateMutability":"nonpayable","type":"function"},{"inputs":[],"name":"paused","outputs":[{"internalType":"bool","name":"","type":"bool"}],"stateMutability":"view","type":"function"},{"inputs":[],"name":"platformFeeFromCharity","outputs":[{"internalType":"uint96","name":"","type":"uint96"}],"stateMutability":"view","type":"function"},{"inputs":[],"name":"platformFeeFromSeller","outputs":[{"internalType":"uint96","name":"","type":"uint96"}],"stateMutability":"view","type":"function"},{"inputs":[{"internalType":"bytes32","name":"role","type":"bytes32"},{"internalType":"address","name":"account","type":"address"}],"name":"renounceRole","outputs":[],"stateMutability":"nonpayable","type":"function"},{"inputs":[{"internalType":"bytes32","name":"role","type":"bytes32"},{"internalType":"address","name":"account","type":"address"}],"name":"revokeRole","outputs":[],"stateMutability":"nonpayable","type":"function"},{"inputs":[{"internalType":"address","name":"adminWallet_","type":"address"}],"name":"setAdminWallet","outputs":[],"stateMutability":"nonpayable","type":"function"},{"inputs":[{"internalType":"address","name":"nftContractAddress","type":"address"},{"internalType":"bool","name":"isEnabled","type":"bool"}],"name":"setNftContractAddress","outputs":[],"stateMutability":"nonpayable","type":"function"},{"inputs":[{"internalType":"uint96","name":"platformFee_","type":"uint96"},{"internalType":"uint8","name":"platformFeeType","type":"uint8"}],"name":"setPlatformFee","outputs":[],"stateMutability":"nonpayable","type":"function"},{"inputs":[{"internalType":"bytes4","name":"interfaceId","type":"bytes4"}],"name":"supportsInterface","outputs":[{"internalType":"bool","name":"","type":"bool"}],"stateMutability":"view","type":"function"},{"inputs":[],"name":"unpause","outputs":[],"stateMutability":"nonpayable","type":"function"},{"inputs":[{"internalType":"address","name":"nftContract","type":"address"},{"internalType":"uint256","name":"tokenId","type":"uint256"},{"internalType":"string","name":"tokenURI","type":"string"}],"name":"updateTokenURI","outputs":[],"stateMutability":"nonpayable","type":"function"}],"evm":{"bytecode":{"linkReferences":{},"object":"6101403462000214576001600160401b0362001b19601f38829003908101601f191684019083821185831017620001fe57808591604094859485528339810103126200021457620000508362000235565b6200005f602080950162000235565b908251926200006e8462000219565b600d845260058685016c47424d61726b6574706c61636560981b8152878351620000988162000219565b8381520195640312e302e360dc1b87525190209420958460e052610100968088524660a0528251828101917f8b73c3c69bb8fe3d512ecc4cf759cc79239f7b179b0ffacaa9a75d522b39400f978884528583015260608201524660808201523060a082015260a0815260c081019781891090891117620001fe578784525190206080523060c052610120948552600180556002805460ff19908116909155600780546001600160601b031916606417905561027160a31b6001600160a01b03958616176006556000808052808352838120949095168086529382528285205490929060ff1615620001b3575b6118ce87878a836200024b843960805183505060a05183505060c05183505060e0518350505182505051815050f35b600191858052858152818620908587525284209182541617905533917f2f8788117e7eff1d82e926ec794901d17c78024a50270940304540a733656f0d8180a4388080808062000184565b634e487b7160e01b600052604160045260246000fd5b600080fd5b604081019081106001600160401b03821117620001fe57604052565b51906001600160a01b0382168203620002145756fe608080604052600436101561001357600080fd5b60003560e01c90816301ffc9a71461118a5750806302d94ca814610be95780630fcd7f8f146107d2578063248a9ca3146107a357806327df5389146107645780632f2ff15d146106b157806335082933146105e657806335daf728146104dc57806336568abe1461044a5780633f4ba83a146103b65780635889bf5e146103855780635c975abb1461036257806368b35a13146103315780638456cb59146102d757806391d148541461028a57806392cacf4114610269578063a217fddf1461024d578063c0dd369514610168578063d547741f146101275763df128e9e146100fb57600080fd5b346101225760003660031901126101225760206001600160601b0360075416604051908152f35b600080fd5b34610122576040366003190112610122576101666004356101466111f3565b908060005260006020526101616001604060002001546114ea565b61163c565b005b34610122576040366003190112610122576101816111dd565b60243590811515809203610122576101976112f0565b6001600160a01b03169081156101f357816040917f37940b2348bce0015e28074f3a1d2ddc211ad7dfa13f0aef19072b22034ebc979360005260036020528260002060ff1981541660ff831617905582519182526020820152a1005b60405162461bcd60e51b815260206004820152602c60248201527f4e6674436f6e74726163742061646472657373206d757374206e6f742062652060448201526b7a65726f206164647265737360a01b6064820152608490fd5b3461012257600036600319011261012257602060405160008152f35b3461012257600036600319011261012257602060065460a01c604051908152f35b34610122576040366003190112610122576102a36111f3565b600435600052600060205260406000209060018060a01b0316600052602052602060ff604060002054166040519015158152f35b34610122576000366003190112610122576102f06112f0565b6102f86117fe565b600160ff1960025416176002557f62e78cea01bee320cd4e420270b5ea74000d11b0c9f74754ebdbfc544b05a2586020604051338152a1005b34610122576020366003190112610122576004356000526005602052602060ff604060002054166040519015158152f35b3461012257600036600319011261012257602060ff600254166040519015158152f35b34610122576020366003190112610122576004356000526004602052602060ff604060002054166040519015158152f35b34610122576000366003190112610122576103cf6112f0565b60025460ff81161561040e5760ff19166002557f5db9ee0a495bf2e6ff9c91a7834c1ba4fdd244a5e8aa4e537bd38aeae4b073aa6020604051338152a1005b60405162461bcd60e51b815260206004820152601460248201527314185d5cd8589b194e881b9bdd081c185d5cd95960621b6044820152606490fd5b34610122576040366003190112610122576104636111f3565b336001600160a01b0382160361047f576101669060043561163c565b60405162461bcd60e51b815260206004820152602f60248201527f416363657373436f6e74726f6c3a2063616e206f6e6c792072656e6f756e636560448201526e103937b632b9903337b91039b2b63360891b6064820152608490fd5b34610122576040366003190112610122576004356001600160601b03811690818103610122576024359160ff8316809303610122576105196112f0565b612710811015610596577f75822b40f249c484aaeef9e7b5723e5abaf2a9573937a605fec2e69b7cd1e7eb926040928161057e57600680546001600160a01b031660a09290921b6001600160a01b0319169190911790555b82519182526020820152a1005b50816001600160601b03196007541617600755610571565b60405162461bcd60e51b815260206004820152602260248201527f706c6174666f726d466565206d757374206265206c657373207468616e203130604482015261302560f01b6064820152608490fd5b34610122576020366003190112610122576105ff6111dd565b6106076112f0565b6001600160a01b03168015610657576020817f1b651cfd0a3f185590087e7e632381434dfada46f037b9081264f9f5bdbfcd9b926001600160601b0360a01b6006541617600655604051908152a1005b60405162461bcd60e51b815260206004820152602c60248201527f61646d696e57616c6c65742061646472657373206d757374206e6f742062652060448201526b7a65726f206164647265737360a01b6064820152608490fd5b34610122576040366003190112610122576004356106cd6111f3565b8160005260006020526106e76001604060002001546114ea565b81600052600060205260406000209060018060a01b0316908160005260205260ff604060002054161561071657005b8160005260006020526040600020816000526020526040600020600160ff1982541617905533917f2f8788117e7eff1d82e926ec794901d17c78024a50270940304540a733656f0d600080a4005b34610122576020366003190112610122576001600160a01b036107856111dd565b166000526003602052602060ff604060002054166040519015158152f35b346101225760203660031901126101225760043560005260006020526020600160406000200154604051908152f35b34610122576060366003190112610122576107eb6111dd565b6044906024803583356001600160401b038111610122576108109036906004016112be565b610818611842565b6108206117fe565b6040516301ffc9a760e01b8082526380ac58cd60e01b60048301526020956001600160a01b0390811695929091878285818a5afa91821561096c57600092610bca575b508115610b6b575b5015610b0d578415610aa4578315610a4857846000526003865260ff60406000205416156109f2576040516331a9108f60e11b8152600481018590529086828481895afa91821561096c576000926109ba575b503391160361097857833b156101225760406000916108f882519889938493630588253160e21b8552886004860152840152820185611617565b038183875af191821561096c577f2a594f4fdcfb43b211e3fe501443da843ed0daa6e9cc58965e68afb67938f5f2956109549361095d575b50604051948594855233908501526040840152608060608401526080830190611617565b0390a160018055005b6109669061121d565b86610930565b6040513d6000823e3d90fd5b847f47424d61726b6574706c6163653a206973206e6f74206e6674206f776e65720087601f6064946040519462461bcd60e51b86526004860152840152820152fd5b9091508681813d83116109eb575b6109d2818361124b565b81010312610122575181811681036101225790886108be565b503d6109c8565b60405162461bcd60e51b815260048101879052602a818401527f47424d61726b6574706c6163653a20496e76616c6964206e6674436f6e74726181890152696374206164647265737360b01b6064820152608490fd5b60405162461bcd60e51b8152600481018790526030818401527f47424d61726b6574706c6163653a20746f6b656e4964206d7573742062652067818901526f726561746572207468616e207a65726f60801b6064820152608490fd5b60405162461bcd60e51b815260048101879052603b818401527f47424d61726b6574706c6163653a206e6674436f6e7472616374206164647265818901527f7373206d757374206e6f74206265207a65726f206164647265737300000000006064820152608490fd5b60405162461bcd60e51b8152600481018790526032818401527f47424d61726b6574706c6163653a2054686973206973206e6f7420455243373281890152710c4bd15490cc4c4d4d4818dbdb9d1c9858dd60721b6064820152608490fd5b604051908152636cdb3d1360e11b6004820152905086818481895afa90811561096c57600091610b9d575b508861086b565b610bbd9150873d8911610bc3575b610bb5818361124b565b8101906117e6565b88610b96565b503d610bab565b610be2919250883d8a11610bc357610bb5818361124b565b9089610863565b6020366003190112610122576001600160401b036004351161012257366023600435011215610122576001600160401b036004356004013511610122573660246004356004013560051b60043501011161012257610c45611842565b610c4d6117fe565b610c5c600435600401356117cf565b610c69604051918261124b565b600480350135808252601f1990610c7f906117cf565b0136602083013760005b600435600401358110610cfc57506040516020810160208252825180915260206040830193019060005b818110610ce6577f2054bc223c304b304149e171a2f1706c4776ed99d46d0585e60a696305747d2984860385a160018055005b8251855260209485019490920191600101610cb3565b60248160051b6004350101356082196004353603018112156101225760609081602319826004350136030112610122576040519182818101106001600160401b038285011117611174576024826004350101356001600160401b038111610122576101c06004358401820136036023190112610122578184016102208501106001600160401b0361022086011117611174576102208401604052610da860248285600435010101611209565b848301526004358301810160448101356080860152610dc990606401611209565b60a0850152610de060848285600435010101611209565b60c085015260a481846004350101013580151581036101225760e08501526004358301810160c481013561010086015260e40135906001600160401b03821161012257610e3c6101c492602436918488600435010101016112be565b61012086015260043584018101610104810135610140870152610124810135610160870152610e6e9061014401611209565b610180860152610e8761016482866004350101016112dc565b6101a0860152610ea061018482866004350101016112dc565b6101c086015260043584019081016101a48101356101e0870152919091013561020085015290830183526044810135602084015260640135906001600160401b0382116101225760043501013660438201121561012257610f0b903690604460248201359101611287565b6040820152516006546001600160a01b031634471061112f5760008080809334905af13d1561112a573d610f3e8161126c565b90610f4c604051928361124b565b8152600060203d92013e5b156110bf5780516001600160a01b031660009081526003602052604090205460ff16610f87575b50600101610c89565b6080810151610f7e5780516040516301ffc9a760e01b81526380ac58cd60e01b600482015290602090829060249082906001600160a01b03165afa90811561096c576000916110a0575b5015610f7e5760018060a01b0381511660018060a01b0360408301511660a083019283519260c06001600160601b036101608401511692015193813b15610122576000809461104d6040519788968795869463396ffcb960e21b8652600486015260248501526044840152608060648401526084830190611617565b03925af1801561096c57611091575b505190825181101561107b5760019160208260051b8501015290610f7e565b634e487b7160e01b600052603260045260246000fd5b61109a9061121d565b8361105c565b6110b9915060203d602011610bc357610bb5818361124b565b84610fd1565b60405162461bcd60e51b815260206004820152603a60248201527f416464726573733a20756e61626c6520746f2073656e642076616c75652c207260448201527f6563697069656e74206d617920686176652072657665727465640000000000006064820152608490fd5b610f57565b60405162461bcd60e51b815260206004820152601d60248201527f416464726573733a20696e73756666696369656e742062616c616e63650000006044820152606490fd5b634e487b7160e01b600052604160045260246000fd5b34610122576020366003190112610122576004359063ffffffff60e01b821680920361012257602091637965db0b60e01b81149081156111cc575b5015158152f35b6301ffc9a760e01b149050836111c5565b600435906001600160a01b038216820361012257565b602435906001600160a01b038216820361012257565b35906001600160a01b038216820361012257565b6001600160401b03811161117457604052565b608081019081106001600160401b0382111761117457604052565b90601f801991011681019081106001600160401b0382111761117457604052565b6001600160401b03811161117457601f01601f191660200190565b9291926112938261126c565b916112a1604051938461124b565b829481845281830111610122578281602093846000960137010152565b9080601f83011215610122578160206112d993359101611287565b90565b35906001600160601b038216820361012257565b3360009081527fad3228b676f7d3cd4284a5443f17f1962b36e491b30a40b2405849e597ba5fb5602090815260408083205490929060ff161561133257505050565b61133b336116c1565b908084519061134982611230565b604282528482019260603685378251156114d657603084538251906001918210156114d65790607860218501536041915b81831161146857505050611426576048611422938693611406936113f7985198899376020b1b1b2b9b9a1b7b73a3937b61d1030b1b1b7bab73a1604d1b8a8601526113ce815180928c6037890191016115f4565b8401917001034b99036b4b9b9b4b733903937b6329607d1b6037840152518093868401906115f4565b0103602881018752018561124b565b5192839262461bcd60e51b845260048401526024830190611617565b0390fd5b60648486519062461bcd60e51b825280600483015260248201527f537472696e67733a20686578206c656e67746820696e73756666696369656e746044820152fd5b909192600f811660108110156114c2576f181899199a1a9b1b9c1cb0b131b232b360811b901a61149885876116b0565b5360041c9280156114ae5760001901919061137a565b634e487b7160e01b82526011600452602482fd5b634e487b7160e01b83526032600452602483fd5b634e487b7160e01b81526032600452602490fd5b600090808252602090828252604092838120338252835260ff8482205416156115135750505050565b61151c336116c1565b9184519061152982611230565b604282528482019260603685378251156114d657603084538251906001918210156114d65790607860218501536041915b8183116115ae57505050611426576048611422938693611406936113f7985198899376020b1b1b2b9b9a1b7b73a3937b61d1030b1b1b7bab73a1604d1b8a8601526113ce815180928c6037890191016115f4565b909192600f811660108110156114c2576f181899199a1a9b1b9c1cb0b131b232b360811b901a6115de85876116b0565b5360041c9280156114ae5760001901919061155a565b60005b8381106116075750506000910152565b81810151838201526020016115f7565b90602091611630815180928185528580860191016115f4565b601f01601f1916010190565b9060009180835282602052604083209160018060a01b03169182845260205260ff60408420541661166c57505050565b80835282602052604083208284526020526040832060ff1981541690557ff6391f5c32d9c69d2a47ea670b442974b53935d1edc7fd64eb21e047a839171b339380a4565b90815181101561107b570160200190565b60405190606082018281106001600160401b0382111761117457604052602a825260208201604036823782511561107b5760309053815160019081101561107b57607860218401536029905b80821161176157505061171d5790565b606460405162461bcd60e51b815260206004820152602060248201527f537472696e67733a20686578206c656e67746820696e73756666696369656e746044820152fd5b9091600f811660108110156117ba576f181899199a1a9b1b9c1cb0b131b232b360811b901a61179084866116b0565b5360041c9180156117a557600019019061170d565b60246000634e487b7160e01b81526011600452fd5b60246000634e487b7160e01b81526032600452fd5b6001600160401b0381116111745760051b60200190565b90816020910312610122575180151581036101225790565b60ff6002541661180a57565b60405162461bcd60e51b815260206004820152601060248201526f14185d5cd8589b194e881c185d5cd95960821b6044820152606490fd5b600260015414611853576002600155565b60405162461bcd60e51b815260206004820152601f60248201527f5265656e7472616e637947756172643a207265656e7472616e742063616c6c006044820152606490fdfea26469706673582212206960ccab62ab15981e54193465f5dc440d950d348a98481f47360d4799fc982164736f6c63430008110033","opcodes":"PUSH2 0x140 CALLVALUE PUSH3 0x214 JUMPI PUSH1 0x1 PUSH1 0x1 PUSH1 0x40 SHL SUB PUSH3 0x1B19 PUSH1 0x1F CODESIZE DUP3 SWAP1 SUB SWAP1 DUP2 ADD PUSH1 0x1F NOT AND DUP5 ADD SWAP1 DUP4 DUP3 GT DUP6 DUP4 LT OR PUSH3 0x1FE JUMPI DUP1 DUP6 SWAP2 PUSH1 0x40 SWAP5 DUP6 SWAP5 DUP6 MSTORE DUP4 CODECOPY DUP2 ADD SUB SLT PUSH3 0x214 JUMPI PUSH3 0x50 DUP4 PUSH3 0x235 JUMP JUMPDEST PUSH3 0x5F PUSH1 0x20 DUP1 SWAP6 ADD PUSH3 0x235 JUMP JUMPDEST SWAP1 DUP3 MLOAD SWAP3 PUSH3 0x6E DUP5 PUSH3 0x219 JUMP JUMPDEST PUSH1 0xD DUP5 MSTORE PUSH1 0x5 DUP7 DUP6 ADD PUSH13 0x47424D61726B6574706C616365 PUSH1 0x98 SHL DUP2 MSTORE DUP8 DUP4 MLOAD PUSH3 0x98 DUP2 PUSH3 0x219 JUMP JUMPDEST DUP4 DUP2 MSTORE ADD SWAP6 PUSH5 0x312E302E3 PUSH1 0xDC SHL DUP8 MSTORE MLOAD SWAP1 KECCAK256 SWAP5 KECCAK256 SWAP6 DUP5 PUSH1 0xE0 MSTORE PUSH2 0x100 SWAP7 DUP1 DUP9 MSTORE CHAINID PUSH1 0xA0 MSTORE DUP3 MLOAD DUP3 DUP2 ADD SWAP2 PUSH32 0x8B73C3C69BB8FE3D512ECC4CF759CC79239F7B179B0FFACAA9A75D522B39400F SWAP8 DUP9 DUP5 MSTORE DUP6 DUP4 ADD MSTORE PUSH1 0x60 DUP3 ADD MSTORE CHAINID PUSH1 0x80 DUP3 ADD MSTORE ADDRESS PUSH1 0xA0 DUP3 ADD MSTORE PUSH1 0xA0 DUP2 MSTORE PUSH1 0xC0 DUP2 ADD SWAP8 DUP2 DUP10 LT SWAP1 DUP10 GT OR PUSH3 0x1FE JUMPI DUP8 DUP5 MSTORE MLOAD SWAP1 KECCAK256 PUSH1 0x80 MSTORE ADDRESS PUSH1 0xC0 MSTORE PUSH2 0x120 SWAP5 DUP6 MSTORE PUSH1 0x1 DUP1 SSTORE PUSH1 0x2 DUP1 SLOAD PUSH1 0xFF NOT SWAP1 DUP2 AND SWAP1 SWAP2 SSTORE PUSH1 0x7 DUP1 SLOAD PUSH1 0x1 PUSH1 0x1 PUSH1 0x60 SHL SUB NOT AND PUSH1 0x64 OR SWAP1 SSTORE PUSH2 0x271 PUSH1 0xA3 SHL PUSH1 0x1 PUSH1 0x1 PUSH1 0xA0 SHL SUB SWAP6 DUP7 AND OR PUSH1 0x6 SSTORE PUSH1 0x0 DUP1 DUP1 MSTORE DUP1 DUP4 MSTORE DUP4 DUP2 KECCAK256 SWAP5 SWAP1 SWAP6 AND DUP1 DUP7 MSTORE SWAP4 DUP3 MSTORE DUP3 DUP6 KECCAK256 SLOAD SWAP1 SWAP3 SWAP1 PUSH1 0xFF AND ISZERO PUSH3 0x1B3 JUMPI JUMPDEST PUSH2 0x18CE DUP8 DUP8 DUP11 DUP4 PUSH3 0x24B DUP5 CODECOPY PUSH1 0x80 MLOAD DUP4 POP POP PUSH1 0xA0 MLOAD DUP4 POP POP PUSH1 0xC0 MLOAD DUP4 POP POP PUSH1 0xE0 MLOAD DUP4 POP POP MLOAD DUP3 POP POP MLOAD DUP2 POP POP RETURN JUMPDEST PUSH1 0x1 SWAP2 DUP6 DUP1 MSTORE DUP6 DUP2 MSTORE DUP2 DUP7 KECCAK256 SWAP1 DUP6 DUP8 MSTORE MSTORE DUP5 KECCAK256 SWAP2 DUP3 SLOAD AND OR SWAP1 SSTORE CALLER SWAP2 PUSH32 0x2F8788117E7EFF1D82E926EC794901D17C78024A50270940304540A733656F0D DUP2 DUP1 LOG4 CODESIZE DUP1 DUP1 DUP1 DUP1 PUSH3 0x184 JUMP JUMPDEST PUSH4 0x4E487B71 PUSH1 0xE0 SHL PUSH1 0x0 MSTORE PUSH1 0x41 PUSH1 0x4 MSTORE PUSH1 0x24 PUSH1 0x0 REVERT JUMPDEST PUSH1 0x0 DUP1 REVERT JUMPDEST PUSH1 0x40 DUP2 ADD SWAP1 DUP2 LT PUSH1 0x1 PUSH1 0x1 PUSH1 0x40 SHL SUB DUP3 GT OR PUSH3 0x1FE JUMPI PUSH1 0x40 MSTORE JUMP JUMPDEST MLOAD SWAP1 PUSH1 0x1 PUSH1 0x1 PUSH1 0xA0 SHL SUB DUP3 AND DUP3 SUB PUSH3 0x214 JUMPI JUMP INVALID PUSH1 0x80 DUP1 PUSH1 0x40 MSTORE PUSH1 0x4 CALLDATASIZE LT ISZERO PUSH2 0x13 JUMPI PUSH1 0x0 DUP1 REVERT JUMPDEST PUSH1 0x0 CALLDATALOAD PUSH1 0xE0 SHR SWAP1 DUP2 PUSH4 0x1FFC9A7 EQ PUSH2 0x118A JUMPI POP DUP1 PUSH4 0x2D94CA8 EQ PUSH2 0xBE9 JUMPI DUP1 PUSH4 0xFCD7F8F EQ PUSH2 0x7D2 JUMPI DUP1 PUSH4 0x248A9CA3 EQ PUSH2 0x7A3 JUMPI DUP1 PUSH4 0x27DF5389 EQ PUSH2 0x764 JUMPI DUP1 PUSH4 0x2F2FF15D EQ PUSH2 0x6B1 JUMPI DUP1 PUSH4 0x35082933 EQ PUSH2 0x5E6 JUMPI DUP1 PUSH4 0x35DAF728 EQ PUSH2 0x4DC JUMPI DUP1 PUSH4 0x36568ABE EQ PUSH2 0x44A JUMPI DUP1 PUSH4 0x3F4BA83A EQ PUSH2 0x3B6 JUMPI DUP1 PUSH4 0x5889BF5E EQ PUSH2 0x385 JUMPI DUP1 PUSH4 0x5C975ABB EQ PUSH2 0x362 JUMPI DUP1 PUSH4 0x68B35A13 EQ PUSH2 0x331 JUMPI DUP1 PUSH4 0x8456CB59 EQ PUSH2 0x2D7 JUMPI DUP1 PUSH4 0x91D14854 EQ PUSH2 0x28A JUMPI DUP1 PUSH4 0x92CACF41 EQ PUSH2 0x269 JUMPI DUP1 PUSH4 0xA217FDDF EQ PUSH2 0x24D JUMPI DUP1 PUSH4 0xC0DD3695 EQ PUSH2 0x168 JUMPI DUP1 PUSH4 0xD547741F EQ PUSH2 0x127 JUMPI PUSH4 0xDF128E9E EQ PUSH2 0xFB JUMPI PUSH1 0x0 DUP1 REVERT JUMPDEST CALLVALUE PUSH2 0x122 JUMPI PUSH1 0x0 CALLDATASIZE PUSH1 0x3 NOT ADD SLT PUSH2 0x122 JUMPI PUSH1 0x20 PUSH1 0x1 PUSH1 0x1 PUSH1 0x60 SHL SUB PUSH1 0x7 SLOAD AND PUSH1 0x40 MLOAD SWAP1 DUP2 MSTORE RETURN JUMPDEST PUSH1 0x0 DUP1 REVERT JUMPDEST CALLVALUE PUSH2 0x122 JUMPI PUSH1 0x40 CALLDATASIZE PUSH1 0x3 NOT ADD SLT PUSH2 0x122 JUMPI PUSH2 0x166 PUSH1 0x4 CALLDATALOAD PUSH2 0x146 PUSH2 0x11F3 JUMP JUMPDEST SWAP1 DUP1 PUSH1 0x0 MSTORE PUSH1 0x0 PUSH1 0x20 MSTORE PUSH2 0x161 PUSH1 0x1 PUSH1 0x40 PUSH1 0x0 KECCAK256 ADD SLOAD PUSH2 0x14EA JUMP JUMPDEST PUSH2 0x163C JUMP JUMPDEST STOP JUMPDEST CALLVALUE PUSH2 0x122 JUMPI PUSH1 0x40 CALLDATASIZE PUSH1 0x3 NOT ADD SLT PUSH2 0x122 JUMPI PUSH2 0x181 PUSH2 0x11DD JUMP JUMPDEST PUSH1 0x24 CALLDATALOAD SWAP1 DUP2 ISZERO ISZERO DUP1 SWAP3 SUB PUSH2 0x122 JUMPI PUSH2 0x197 PUSH2 0x12F0 JUMP JUMPDEST PUSH1 0x1 PUSH1 0x1 PUSH1 0xA0 SHL SUB AND SWAP1 DUP2 ISZERO PUSH2 0x1F3 JUMPI DUP2 PUSH1 0x40 SWAP2 PUSH32 0x37940B2348BCE0015E28074F3A1D2DDC211AD7DFA13F0AEF19072B22034EBC97 SWAP4 PUSH1 0x0 MSTORE PUSH1 0x3 PUSH1 0x20 MSTORE DUP3 PUSH1 0x0 KECCAK256 PUSH1 0xFF NOT DUP2 SLOAD AND PUSH1 0xFF DUP4 AND OR SWAP1 SSTORE DUP3 MLOAD SWAP2 DUP3 MSTORE PUSH1 0x20 DUP3 ADD MSTORE LOG1 STOP JUMPDEST PUSH1 0x40 MLOAD PUSH3 0x461BCD PUSH1 0xE5 SHL DUP2 MSTORE PUSH1 0x20 PUSH1 0x4 DUP3 ADD MSTORE PUSH1 0x2C PUSH1 0x24 DUP3 ADD MSTORE PUSH32 0x4E6674436F6E74726163742061646472657373206D757374206E6F7420626520 PUSH1 0x44 DUP3 ADD MSTORE PUSH12 0x7A65726F2061646472657373 PUSH1 0xA0 SHL PUSH1 0x64 DUP3 ADD MSTORE PUSH1 0x84 SWAP1 REVERT JUMPDEST CALLVALUE PUSH2 0x122 JUMPI PUSH1 0x0 CALLDATASIZE PUSH1 0x3 NOT ADD SLT PUSH2 0x122 JUMPI PUSH1 0x20 PUSH1 0x40 MLOAD PUSH1 0x0 DUP2 MSTORE RETURN JUMPDEST CALLVALUE PUSH2 0x122 JUMPI PUSH1 0x0 CALLDATASIZE PUSH1 0x3 NOT ADD SLT PUSH2 0x122 JUMPI PUSH1 0x20 PUSH1 0x6 SLOAD PUSH1 0xA0 SHR PUSH1 0x40 MLOAD SWAP1 DUP2 MSTORE RETURN JUMPDEST CALLVALUE PUSH2 0x122 JUMPI PUSH1 0x40 CALLDATASIZE PUSH1 0x3 NOT ADD SLT PUSH2 0x122 JUMPI PUSH2 0x2A3 PUSH2 0x11F3 JUMP JUMPDEST PUSH1 0x4 CALLDATALOAD PUSH1 0x0 MSTORE PUSH1 0x0 PUSH1 0x20 MSTORE PUSH1 0x40 PUSH1 0x0 KECCAK256 SWAP1 PUSH1 0x1 DUP1 PUSH1 0xA0 SHL SUB AND PUSH1 0x0 MSTORE PUSH1 0x20 MSTORE PUSH1 0x20 PUSH1 0xFF PUSH1 0x40 PUSH1 0x0 KECCAK256 SLOAD AND PUSH1 0x40 MLOAD SWAP1 ISZERO ISZERO DUP2 MSTORE RETURN JUMPDEST CALLVALUE PUSH2 0x122 JUMPI PUSH1 0x0 CALLDATASIZE PUSH1 0x3 NOT ADD SLT PUSH2 0x122 JUMPI PUSH2 0x2F0 PUSH2 0x12F0 JUMP JUMPDEST PUSH2 0x2F8 PUSH2 0x17FE JUMP JUMPDEST PUSH1 0x1 PUSH1 0xFF NOT PUSH1 0x2 SLOAD AND OR PUSH1 0x2 SSTORE PUSH32 0x62E78CEA01BEE320CD4E420270B5EA74000D11B0C9F74754EBDBFC544B05A258 PUSH1 0x20 PUSH1 0x40 MLOAD CALLER DUP2 MSTORE LOG1 STOP JUMPDEST CALLVALUE PUSH2 0x122 JUMPI PUSH1 0x20 CALLDATASIZE PUSH1 0x3 NOT ADD SLT PUSH2 0x122 JUMPI PUSH1 0x4 CALLDATALOAD PUSH1 0x0 MSTORE PUSH1 0x5 PUSH1 0x20 MSTORE PUSH1 0x20 PUSH1 0xFF PUSH1 0x40 PUSH1 0x0 KECCAK256 SLOAD AND PUSH1 0x40 MLOAD SWAP1 ISZERO ISZERO DUP2 MSTORE RETURN JUMPDEST CALLVALUE PUSH2 0x122 JUMPI PUSH1 0x0 CALLDATASIZE PUSH1 0x3 NOT ADD SLT PUSH2 0x122 JUMPI PUSH1 0x20 PUSH1 0xFF PUSH1 0x2 SLOAD AND PUSH1 0x40 MLOAD SWAP1 ISZERO ISZERO DUP2 MSTORE RETURN JUMPDEST CALLVALUE PUSH2 0x122 JUMPI PUSH1 0x20 CALLDATASIZE PUSH1 0x3 NOT ADD SLT PUSH2 0x122 JUMPI PUSH1 0x4 CALLDATALOAD PUSH1 0x0 MSTORE PUSH1 0x4 PUSH1 0x20 MSTORE PUSH1 0x20 PUSH1 0xFF PUSH1 0x40 PUSH1 0x0 KECCAK256 SLOAD AND PUSH1 0x40 MLOAD SWAP1 ISZERO ISZERO DUP2 MSTORE RETURN JUMPDEST CALLVALUE PUSH2 0x122 JUMPI PUSH1 0x0 CALLDATASIZE PUSH1 0x3 NOT ADD SLT PUSH2 0x122 JUMPI PUSH2 0x3CF PUSH2 0x12F0 JUMP JUMPDEST PUSH1 0x2 SLOAD PUSH1 0xFF DUP2 AND ISZERO PUSH2 0x40E JUMPI PUSH1 0xFF NOT AND PUSH1 0x2 SSTORE PUSH32 0x5DB9EE0A495BF2E6FF9C91A7834C1BA4FDD244A5E8AA4E537BD38AEAE4B073AA PUSH1 0x20 PUSH1 0x40 MLOAD CALLER DUP2 MSTORE LOG1 STOP JUMPDEST PUSH1 0x40 MLOAD PUSH3 0x461BCD PUSH1 0xE5 SHL DUP2 MSTORE PUSH1 0x20 PUSH1 0x4 DUP3 ADD MSTORE PUSH1 0x14 PUSH1 0x24 DUP3 ADD MSTORE PUSH20 0x14185D5CD8589B194E881B9BDD081C185D5CD959 PUSH1 0x62 SHL PUSH1 0x44 DUP3 ADD MSTORE PUSH1 0x64 SWAP1 REVERT JUMPDEST CALLVALUE PUSH2 0x122 JUMPI PUSH1 0x40 CALLDATASIZE PUSH1 0x3 NOT ADD SLT PUSH2 0x122 JUMPI PUSH2 0x463 PUSH2 0x11F3 JUMP JUMPDEST CALLER PUSH1 0x1 PUSH1 0x1 PUSH1 0xA0 SHL SUB DUP3 AND SUB PUSH2 0x47F JUMPI PUSH2 0x166 SWAP1 PUSH1 0x4 CALLDATALOAD PUSH2 0x163C JUMP JUMPDEST PUSH1 0x40 MLOAD PUSH3 0x461BCD PUSH1 0xE5 SHL DUP2 MSTORE PUSH1 0x20 PUSH1 0x4 DUP3 ADD MSTORE PUSH1 0x2F PUSH1 0x24 DUP3 ADD MSTORE PUSH32 0x416363657373436F6E74726F6C3A2063616E206F6E6C792072656E6F756E6365 PUSH1 0x44 DUP3 ADD MSTORE PUSH15 0x103937B632B9903337B91039B2B633 PUSH1 0x89 SHL PUSH1 0x64 DUP3 ADD MSTORE PUSH1 0x84 SWAP1 REVERT JUMPDEST CALLVALUE PUSH2 0x122 JUMPI PUSH1 0x40 CALLDATASIZE PUSH1 0x3 NOT ADD SLT PUSH2 0x122 JUMPI PUSH1 0x4 CALLDATALOAD PUSH1 0x1 PUSH1 0x1 PUSH1 0x60 SHL SUB DUP2 AND SWAP1 DUP2 DUP2 SUB PUSH2 0x122 JUMPI PUSH1 0x24 CALLDATALOAD SWAP2 PUSH1 0xFF DUP4 AND DUP1 SWAP4 SUB PUSH2 0x122 JUMPI PUSH2 0x519 PUSH2 0x12F0 JUMP JUMPDEST PUSH2 0x2710 DUP2 LT ISZERO PUSH2 0x596 JUMPI PUSH32 0x75822B40F249C484AAEEF9E7B5723E5ABAF2A9573937A605FEC2E69B7CD1E7EB SWAP3 PUSH1 0x40 SWAP3 DUP2 PUSH2 0x57E JUMPI PUSH1 0x6 DUP1 SLOAD PUSH1 0x1 PUSH1 0x1 PUSH1 0xA0 SHL SUB AND PUSH1 0xA0 SWAP3 SWAP1 SWAP3 SHL PUSH1 0x1 PUSH1 0x1 PUSH1 0xA0 SHL SUB NOT AND SWAP2 SWAP1 SWAP2 OR SWAP1 SSTORE JUMPDEST DUP3 MLOAD SWAP2 DUP3 MSTORE PUSH1 0x20 DUP3 ADD MSTORE LOG1 STOP JUMPDEST POP DUP2 PUSH1 0x1 PUSH1 0x1 PUSH1 0x60 SHL SUB NOT PUSH1 0x7 SLOAD AND OR PUSH1 0x7 SSTORE PUSH2 0x571 JUMP JUMPDEST PUSH1 0x40 MLOAD PUSH3 0x461BCD PUSH1 0xE5 SHL DUP2 MSTORE PUSH1 0x20 PUSH1 0x4 DUP3 ADD MSTORE PUSH1 0x22 PUSH1 0x24 DUP3 ADD MSTORE PUSH32 0x706C6174666F726D466565206D757374206265206C657373207468616E203130 PUSH1 0x44 DUP3 ADD MSTORE PUSH2 0x3025 PUSH1 0xF0 SHL PUSH1 0x64 DUP3 ADD MSTORE PUSH1 0x84 SWAP1 REVERT JUMPDEST CALLVALUE PUSH2 0x122 JUMPI PUSH1 0x20 CALLDATASIZE PUSH1 0x3 NOT ADD SLT PUSH2 0x122 JUMPI PUSH2 0x5FF PUSH2 0x11DD JUMP JUMPDEST PUSH2 0x607 PUSH2 0x12F0 JUMP JUMPDEST PUSH1 0x1 PUSH1 0x1 PUSH1 0xA0 SHL SUB AND DUP1 ISZERO PUSH2 0x657 JUMPI PUSH1 0x20 DUP2 PUSH32 0x1B651CFD0A3F185590087E7E632381434DFADA46F037B9081264F9F5BDBFCD9B SWAP3 PUSH1 0x1 PUSH1 0x1 PUSH1 0x60 SHL SUB PUSH1 0xA0 SHL PUSH1 0x6 SLOAD AND OR PUSH1 0x6 SSTORE PUSH1 0x40 MLOAD SWAP1 DUP2 MSTORE LOG1 STOP JUMPDEST PUSH1 0x40 MLOAD PUSH3 0x461BCD PUSH1 0xE5 SHL DUP2 MSTORE PUSH1 0x20 PUSH1 0x4 DUP3 ADD MSTORE PUSH1 0x2C PUSH1 0x24 DUP3 ADD MSTORE PUSH32 0x61646D696E57616C6C65742061646472657373206D757374206E6F7420626520 PUSH1 0x44 DUP3 ADD MSTORE PUSH12 0x7A65726F2061646472657373 PUSH1 0xA0 SHL PUSH1 0x64 DUP3 ADD MSTORE PUSH1 0x84 SWAP1 REVERT JUMPDEST CALLVALUE PUSH2 0x122 JUMPI PUSH1 0x40 CALLDATASIZE PUSH1 0x3 NOT ADD SLT PUSH2 0x122 JUMPI PUSH1 0x4 CALLDATALOAD PUSH2 0x6CD PUSH2 0x11F3 JUMP JUMPDEST DUP2 PUSH1 0x0 MSTORE PUSH1 0x0 PUSH1 0x20 MSTORE PUSH2 0x6E7 PUSH1 0x1 PUSH1 0x40 PUSH1 0x0 KECCAK256 ADD SLOAD PUSH2 0x14EA JUMP JUMPDEST DUP2 PUSH1 0x0 MSTORE PUSH1 0x0 PUSH1 0x20 MSTORE PUSH1 0x40 PUSH1 0x0 KECCAK256 SWAP1 PUSH1 0x1 DUP1 PUSH1 0xA0 SHL SUB AND SWAP1 DUP2 PUSH1 0x0 MSTORE PUSH1 0x20 MSTORE PUSH1 0xFF PUSH1 0x40 PUSH1 0x0 KECCAK256 SLOAD AND ISZERO PUSH2 0x716 JUMPI STOP JUMPDEST DUP2 PUSH1 0x0 MSTORE PUSH1 0x0 PUSH1 0x20 MSTORE PUSH1 0x40 PUSH1 0x0 KECCAK256 DUP2 PUSH1 0x0 MSTORE PUSH1 0x20 MSTORE PUSH1 0x40 PUSH1 0x0 KECCAK256 PUSH1 0x1 PUSH1 0xFF NOT DUP3 SLOAD AND OR SWAP1 SSTORE CALLER SWAP2 PUSH32 0x2F8788117E7EFF1D82E926EC794901D17C78024A50270940304540A733656F0D PUSH1 0x0 DUP1 LOG4 STOP JUMPDEST CALLVALUE PUSH2 0x122 JUMPI PUSH1 0x20 CALLDATASIZE PUSH1 0x3 NOT ADD SLT PUSH2 0x122 JUMPI PUSH1 0x1 PUSH1 0x1 PUSH1 0xA0 SHL SUB PUSH2 0x785 PUSH2 0x11DD JUMP JUMPDEST AND PUSH1 0x0 MSTORE PUSH1 0x3 PUSH1 0x20 MSTORE PUSH1 0x20 PUSH1 0xFF PUSH1 0x40 PUSH1 0x0 KECCAK256 SLOAD AND PUSH1 0x40 MLOAD SWAP1 ISZERO ISZERO DUP2 MSTORE RETURN JUMPDEST CALLVALUE PUSH2 0x122 JUMPI PUSH1 0x20 CALLDATASIZE PUSH1 0x3 NOT ADD SLT PUSH2 0x122 JUMPI PUSH1 0x4 CALLDATALOAD PUSH1 0x0 MSTORE PUSH1 0x0 PUSH1 0x20 MSTORE PUSH1 0x20 PUSH1 0x1 PUSH1 0x40 PUSH1 0x0 KECCAK256 ADD SLOAD PUSH1 0x40 MLOAD SWAP1 DUP2 MSTORE RETURN JUMPDEST CALLVALUE PUSH2 0x122 JUMPI PUSH1 0x60 CALLDATASIZE PUSH1 0x3 NOT ADD SLT PUSH2 0x122 JUMPI PUSH2 0x7EB PUSH2 0x11DD JUMP JUMPDEST PUSH1 0x44 SWAP1 PUSH1 0x24 DUP1 CALLDATALOAD DUP4 CALLDATALOAD PUSH1 0x1 PUSH1 0x1 PUSH1 0x40 SHL SUB DUP2 GT PUSH2 0x122 JUMPI PUSH2 0x810 SWAP1 CALLDATASIZE SWAP1 PUSH1 0x4 ADD PUSH2 0x12BE JUMP JUMPDEST PUSH2 0x818 PUSH2 0x1842 JUMP JUMPDEST PUSH2 0x820 PUSH2 0x17FE JUMP JUMPDEST PUSH1 0x40 MLOAD PUSH4 0x1FFC9A7 PUSH1 0xE0 SHL DUP1 DUP3 MSTORE PUSH4 0x80AC58CD PUSH1 0xE0 SHL PUSH1 0x4 DUP4 ADD MSTORE PUSH1 0x20 SWAP6 PUSH1 0x1 PUSH1 0x1 PUSH1 0xA0 SHL SUB SWAP1 DUP2 AND SWAP6 SWAP3 SWAP1 SWAP2 DUP8 DUP3 DUP6 DUP2 DUP11 GAS STATICCALL SWAP2 DUP3 ISZERO PUSH2 0x96C JUMPI PUSH1 0x0 SWAP3 PUSH2 0xBCA JUMPI JUMPDEST POP DUP2 ISZERO PUSH2 0xB6B JUMPI JUMPDEST POP ISZERO PUSH2 0xB0D JUMPI DUP5 ISZERO PUSH2 0xAA4 JUMPI DUP4 ISZERO PUSH2 0xA48 JUMPI DUP5 PUSH1 0x0 MSTORE PUSH1 0x3 DUP7 MSTORE PUSH1 0xFF PUSH1 0x40 PUSH1 0x0 KECCAK256 SLOAD AND ISZERO PUSH2 0x9F2 JUMPI PUSH1 0x40 MLOAD PUSH4 0x31A9108F PUSH1 0xE1 SHL DUP2 MSTORE PUSH1 0x4 DUP2 ADD DUP6 SWAP1 MSTORE SWAP1 DUP7 DUP3 DUP5 DUP2 DUP10 GAS STATICCALL SWAP2 DUP3 ISZERO PUSH2 0x96C JUMPI PUSH1 0x0 SWAP3 PUSH2 0x9BA JUMPI JUMPDEST POP CALLER SWAP2 AND SUB PUSH2 0x978 JUMPI DUP4 EXTCODESIZE ISZERO PUSH2 0x122 JUMPI PUSH1 0x40 PUSH1 0x0 SWAP2 PUSH2 0x8F8 DUP3 MLOAD SWAP9 DUP10 SWAP4 DUP5 SWAP4 PUSH4 0x5882531 PUSH1 0xE2 SHL DUP6 MSTORE DUP9 PUSH1 0x4 DUP7 ADD MSTORE DUP5 ADD MSTORE DUP3 ADD DUP6 PUSH2 0x1617 JUMP JUMPDEST SUB DUP2 DUP4 DUP8 GAS CALL SWAP2 DUP3 ISZERO PUSH2 0x96C JUMPI PUSH32 0x2A594F4FDCFB43B211E3FE501443DA843ED0DAA6E9CC58965E68AFB67938F5F2 SWAP6 PUSH2 0x954 SWAP4 PUSH2 0x95D JUMPI JUMPDEST POP PUSH1 0x40 MLOAD SWAP5 DUP6 SWAP5 DUP6 MSTORE CALLER SWAP1 DUP6 ADD MSTORE PUSH1 0x40 DUP5 ADD MSTORE PUSH1 0x80 PUSH1 0x60 DUP5 ADD MSTORE PUSH1 0x80 DUP4 ADD SWAP1 PUSH2 0x1617 JUMP JUMPDEST SUB SWAP1 LOG1 PUSH1 0x1 DUP1 SSTORE STOP JUMPDEST PUSH2 0x966 SWAP1 PUSH2 0x121D JUMP JUMPDEST DUP7 PUSH2 0x930 JUMP JUMPDEST PUSH1 0x40 MLOAD RETURNDATASIZE PUSH1 0x0 DUP3 RETURNDATACOPY RETURNDATASIZE SWAP1 REVERT JUMPDEST DUP5 PUSH32 0x47424D61726B6574706C6163653A206973206E6F74206E6674206F776E657200 DUP8 PUSH1 0x1F PUSH1 0x64 SWAP5 PUSH1 0x40 MLOAD SWAP5 PUSH3 0x461BCD PUSH1 0xE5 SHL DUP7 MSTORE PUSH1 0x4 DUP7 ADD MSTORE DUP5 ADD MSTORE DUP3 ADD MSTORE REVERT JUMPDEST SWAP1 SWAP2 POP DUP7 DUP2 DUP2 RETURNDATASIZE DUP4 GT PUSH2 0x9EB JUMPI JUMPDEST PUSH2 0x9D2 DUP2 DUP4 PUSH2 0x124B JUMP JUMPDEST DUP2 ADD SUB SLT PUSH2 0x122 JUMPI MLOAD DUP2 DUP2 AND DUP2 SUB PUSH2 0x122 JUMPI SWAP1 DUP9 PUSH2 0x8BE JUMP JUMPDEST POP RETURNDATASIZE PUSH2 0x9C8 JUMP JUMPDEST PUSH1 0x40 MLOAD PUSH3 0x461BCD PUSH1 0xE5 SHL DUP2 MSTORE PUSH1 0x4 DUP2 ADD DUP8 SWAP1 MSTORE PUSH1 0x2A DUP2 DUP5 ADD MSTORE PUSH32 0x47424D61726B6574706C6163653A20496E76616C6964206E6674436F6E747261 DUP2 DUP10 ADD MSTORE PUSH10 0x63742061646472657373 PUSH1 0xB0 SHL PUSH1 0x64 DUP3 ADD MSTORE PUSH1 0x84 SWAP1 REVERT JUMPDEST PUSH1 0x40 MLOAD PUSH3 0x461BCD PUSH1 0xE5 SHL DUP2 MSTORE PUSH1 0x4 DUP2 ADD DUP8 SWAP1 MSTORE PUSH1 0x30 DUP2 DUP5 ADD MSTORE PUSH32 0x47424D61726B6574706C6163653A20746F6B656E4964206D7573742062652067 DUP2 DUP10 ADD MSTORE PUSH16 0x726561746572207468616E207A65726F PUSH1 0x80 SHL PUSH1 0x64 DUP3 ADD MSTORE PUSH1 0x84 SWAP1 REVERT JUMPDEST PUSH1 0x40 MLOAD PUSH3 0x461BCD PUSH1 0xE5 SHL DUP2 MSTORE PUSH1 0x4 DUP2 ADD DUP8 SWAP1 MSTORE PUSH1 0x3B DUP2 DUP5 ADD MSTORE PUSH32 0x47424D61726B6574706C6163653A206E6674436F6E7472616374206164647265 DUP2 DUP10 ADD MSTORE PUSH32 0x7373206D757374206E6F74206265207A65726F20616464726573730000000000 PUSH1 0x64 DUP3 ADD MSTORE PUSH1 0x84 SWAP1 REVERT JUMPDEST PUSH1 0x40 MLOAD PUSH3 0x461BCD PUSH1 0xE5 SHL DUP2 MSTORE PUSH1 0x4 DUP2 ADD DUP8 SWAP1 MSTORE PUSH1 0x32 DUP2 DUP5 ADD MSTORE PUSH32 0x47424D61726B6574706C6163653A2054686973206973206E6F74204552433732 DUP2 DUP10 ADD MSTORE PUSH18 0xC4BD15490CC4C4D4D4818DBDB9D1C9858DD PUSH1 0x72 SHL PUSH1 0x64 DUP3 ADD MSTORE PUSH1 0x84 SWAP1 REVERT JUMPDEST PUSH1 0x40 MLOAD SWAP1 DUP2 MSTORE PUSH4 0x6CDB3D13 PUSH1 0xE1 SHL PUSH1 0x4 DUP3 ADD MSTORE SWAP1 POP DUP7 DUP2 DUP5 DUP2 DUP10 GAS STATICCALL SWAP1 DUP2 ISZERO PUSH2 0x96C JUMPI PUSH1 0x0 SWAP2 PUSH2 0xB9D JUMPI JUMPDEST POP DUP9 PUSH2 0x86B JUMP JUMPDEST PUSH2 0xBBD SWAP2 POP DUP8 RETURNDATASIZE DUP10 GT PUSH2 0xBC3 JUMPI JUMPDEST PUSH2 0xBB5 DUP2 DUP4 PUSH2 0x124B JUMP JUMPDEST DUP2 ADD SWAP1 PUSH2 0x17E6 JUMP JUMPDEST DUP9 PUSH2 0xB96 JUMP JUMPDEST POP RETURNDATASIZE PUSH2 0xBAB JUMP JUMPDEST PUSH2 0xBE2 SWAP2 SWAP3 POP DUP9 RETURNDATASIZE DUP11 GT PUSH2 0xBC3 JUMPI PUSH2 0xBB5 DUP2 DUP4 PUSH2 0x124B JUMP JUMPDEST SWAP1 DUP10 PUSH2 0x863 JUMP JUMPDEST PUSH1 0x20 CALLDATASIZE PUSH1 0x3 NOT ADD SLT PUSH2 0x122 JUMPI PUSH1 0x1 PUSH1 0x1 PUSH1 0x40 SHL SUB PUSH1 0x4 CALLDATALOAD GT PUSH2 0x122 JUMPI CALLDATASIZE PUSH1 0x23 PUSH1 0x4 CALLDATALOAD ADD SLT ISZERO PUSH2 0x122 JUMPI PUSH1 0x1 PUSH1 0x1 PUSH1 0x40 SHL SUB PUSH1 0x4 CALLDATALOAD PUSH1 0x4 ADD CALLDATALOAD GT PUSH2 0x122 JUMPI CALLDATASIZE PUSH1 0x24 PUSH1 0x4 CALLDATALOAD PUSH1 0x4 ADD CALLDATALOAD PUSH1 0x5 SHL PUSH1 0x4 CALLDATALOAD ADD ADD GT PUSH2 0x122 JUMPI PUSH2 0xC45 PUSH2 0x1842 JUMP JUMPDEST PUSH2 0xC4D PUSH2 0x17FE JUMP JUMPDEST PUSH2 0xC5C PUSH1 0x4 CALLDATALOAD PUSH1 0x4 ADD CALLDATALOAD PUSH2 0x17CF JUMP JUMPDEST PUSH2 0xC69 PUSH1 0x40 MLOAD SWAP2 DUP3 PUSH2 0x124B JUMP JUMPDEST PUSH1 0x4 DUP1 CALLDATALOAD ADD CALLDATALOAD DUP1 DUP3 MSTORE PUSH1 0x1F NOT SWAP1 PUSH2 0xC7F SWAP1 PUSH2 0x17CF JUMP JUMPDEST ADD CALLDATASIZE PUSH1 0x20 DUP4 ADD CALLDATACOPY PUSH1 0x0 JUMPDEST PUSH1 0x4 CALLDATALOAD PUSH1 0x4 ADD CALLDATALOAD DUP2 LT PUSH2 0xCFC JUMPI POP PUSH1 0x40 MLOAD PUSH1 0x20 DUP2 ADD PUSH1 0x20 DUP3 MSTORE DUP3 MLOAD DUP1 SWAP2 MSTORE PUSH1 0x20 PUSH1 0x40 DUP4 ADD SWAP4 ADD SWAP1 PUSH1 0x0 JUMPDEST DUP2 DUP2 LT PUSH2 0xCE6 JUMPI PUSH32 0x2054BC223C304B304149E171A2F1706C4776ED99D46D0585E60A696305747D29 DUP5 DUP7 SUB DUP6 LOG1 PUSH1 0x1 DUP1 SSTORE STOP JUMPDEST DUP3 MLOAD DUP6 MSTORE PUSH1 0x20 SWAP5 DUP6 ADD SWAP5 SWAP1 SWAP3 ADD SWAP2 PUSH1 0x1 ADD PUSH2 0xCB3 JUMP JUMPDEST PUSH1 0x24 DUP2 PUSH1 0x5 SHL PUSH1 0x4 CALLDATALOAD ADD ADD CALLDATALOAD PUSH1 0x82 NOT PUSH1 0x4 CALLDATALOAD CALLDATASIZE SUB ADD DUP2 SLT ISZERO PUSH2 0x122 JUMPI PUSH1 0x60 SWAP1 DUP2 PUSH1 0x23 NOT DUP3 PUSH1 0x4 CALLDATALOAD ADD CALLDATASIZE SUB ADD SLT PUSH2 0x122 JUMPI PUSH1 0x40 MLOAD SWAP2 DUP3 DUP2 DUP2 ADD LT PUSH1 0x1 PUSH1 0x1 PUSH1 0x40 SHL SUB DUP3 DUP6 ADD GT OR PUSH2 0x1174 JUMPI PUSH1 0x24 DUP3 PUSH1 0x4 CALLDATALOAD ADD ADD CALLDATALOAD PUSH1 0x1 PUSH1 0x1 PUSH1 0x40 SHL SUB DUP2 GT PUSH2 0x122 JUMPI PUSH2 0x1C0 PUSH1 0x4 CALLDATALOAD DUP5 ADD DUP3 ADD CALLDATASIZE SUB PUSH1 0x23 NOT ADD SLT PUSH2 0x122 JUMPI DUP2 DUP5 ADD PUSH2 0x220 DUP6 ADD LT PUSH1 0x1 PUSH1 0x1 PUSH1 0x40 SHL SUB PUSH2 0x220 DUP7 ADD GT OR PUSH2 0x1174 JUMPI PUSH2 0x220 DUP5 ADD PUSH1 0x40 MSTORE PUSH2 0xDA8 PUSH1 0x24 DUP3 DUP6 PUSH1 0x4 CALLDATALOAD ADD ADD ADD PUSH2 0x1209 JUMP JUMPDEST DUP5 DUP4 ADD MSTORE PUSH1 0x4 CALLDATALOAD DUP4 ADD DUP2 ADD PUSH1 0x44 DUP2 ADD CALLDATALOAD PUSH1 0x80 DUP7 ADD MSTORE PUSH2 0xDC9 SWAP1 PUSH1 0x64 ADD PUSH2 0x1209 JUMP JUMPDEST PUSH1 0xA0 DUP6 ADD MSTORE PUSH2 0xDE0 PUSH1 0x84 DUP3 DUP6 PUSH1 0x4 CALLDATALOAD ADD ADD ADD PUSH2 0x1209 JUMP JUMPDEST PUSH1 0xC0 DUP6 ADD MSTORE PUSH1 0xA4 DUP2 DUP5 PUSH1 0x4 CALLDATALOAD ADD ADD ADD CALLDATALOAD DUP1 ISZERO ISZERO DUP2 SUB PUSH2 0x122 JUMPI PUSH1 0xE0 DUP6 ADD MSTORE PUSH1 0x4 CALLDATALOAD DUP4 ADD DUP2 ADD PUSH1 0xC4 DUP2 ADD CALLDATALOAD PUSH2 0x100 DUP7 ADD MSTORE PUSH1 0xE4 ADD CALLDATALOAD SWAP1 PUSH1 0x1 PUSH1 0x1 PUSH1 0x40 SHL SUB DUP3 GT PUSH2 0x122 JUMPI PUSH2 0xE3C PUSH2 0x1C4 SWAP3 PUSH1 0x24 CALLDATASIZE SWAP2 DUP5 DUP9 PUSH1 0x4 CALLDATALOAD ADD ADD ADD ADD PUSH2 0x12BE JUMP JUMPDEST PUSH2 0x120 DUP7 ADD MSTORE PUSH1 0x4 CALLDATALOAD DUP5 ADD DUP2 ADD PUSH2 0x104 DUP2 ADD CALLDATALOAD PUSH2 0x140 DUP8 ADD MSTORE PUSH2 0x124 DUP2 ADD CALLDATALOAD PUSH2 0x160 DUP8 ADD MSTORE PUSH2 0xE6E SWAP1 PUSH2 0x144 ADD PUSH2 0x1209 JUMP JUMPDEST PUSH2 0x180 DUP7 ADD MSTORE PUSH2 0xE87 PUSH2 0x164 DUP3 DUP7 PUSH1 0x4 CALLDATALOAD ADD ADD ADD PUSH2 0x12DC JUMP JUMPDEST PUSH2 0x1A0 DUP7 ADD MSTORE PUSH2 0xEA0 PUSH2 0x184 DUP3 DUP7 PUSH1 0x4 CALLDATALOAD ADD ADD ADD PUSH2 0x12DC JUMP JUMPDEST PUSH2 0x1C0 DUP7 ADD MSTORE PUSH1 0x4 CALLDATALOAD DUP5 ADD SWAP1 DUP2 ADD PUSH2 0x1A4 DUP2 ADD CALLDATALOAD PUSH2 0x1E0 DUP8 ADD MSTORE SWAP2 SWAP1 SWAP2 ADD CALLDATALOAD PUSH2 0x200 DUP6 ADD MSTORE SWAP1 DUP4 ADD DUP4 MSTORE PUSH1 0x44 DUP2 ADD CALLDATALOAD PUSH1 0x20 DUP5 ADD MSTORE PUSH1 0x64 ADD CALLDATALOAD SWAP1 PUSH1 0x1 PUSH1 0x1 PUSH1 0x40 SHL SUB DUP3 GT PUSH2 0x122 JUMPI PUSH1 0x4 CALLDATALOAD ADD ADD CALLDATASIZE PUSH1 0x43 DUP3 ADD SLT ISZERO PUSH2 0x122 JUMPI PUSH2 0xF0B SWAP1 CALLDATASIZE SWAP1 PUSH1 0x44 PUSH1 0x24 DUP3 ADD CALLDATALOAD SWAP2 ADD PUSH2 0x1287 JUMP JUMPDEST PUSH1 0x40 DUP3 ADD MSTORE MLOAD PUSH1 0x6 SLOAD PUSH1 0x1 PUSH1 0x1 PUSH1 0xA0 SHL SUB AND CALLVALUE SELFBALANCE LT PUSH2 0x112F JUMPI PUSH1 0x0 DUP1 DUP1 DUP1 SWAP4 CALLVALUE SWAP1 GAS CALL RETURNDATASIZE ISZERO PUSH2 0x112A JUMPI RETURNDATASIZE PUSH2 0xF3E DUP2 PUSH2 0x126C JUMP JUMPDEST SWAP1 PUSH2 0xF4C PUSH1 0x40 MLOAD SWAP3 DUP4 PUSH2 0x124B JUMP JUMPDEST DUP2 MSTORE PUSH1 0x0 PUSH1 0x20 RETURNDATASIZE SWAP3 ADD RETURNDATACOPY JUMPDEST ISZERO PUSH2 0x10BF JUMPI DUP1 MLOAD PUSH1 0x1 PUSH1 0x1 PUSH1 0xA0 SHL SUB AND PUSH1 0x0 SWAP1 DUP2 MSTORE PUSH1 0x3 PUSH1 0x20 MSTORE PUSH1 0x40 SWAP1 KECCAK256 SLOAD PUSH1 0xFF AND PUSH2 0xF87 JUMPI JUMPDEST POP PUSH1 0x1 ADD PUSH2 0xC89 JUMP JUMPDEST PUSH1 0x80 DUP2 ADD MLOAD PUSH2 0xF7E JUMPI DUP1 MLOAD PUSH1 0x40 MLOAD PUSH4 0x1FFC9A7 PUSH1 0xE0 SHL DUP2 MSTORE PUSH4 0x80AC58CD PUSH1 0xE0 SHL PUSH1 0x4 DUP3 ADD MSTORE SWAP1 PUSH1 0x20 SWAP1 DUP3 SWAP1 PUSH1 0x24 SWAP1 DUP3 SWAP1 PUSH1 0x1 PUSH1 0x1 PUSH1 0xA0 SHL SUB AND GAS STATICCALL SWAP1 DUP2 ISZERO PUSH2 0x96C JUMPI PUSH1 0x0 SWAP2 PUSH2 0x10A0 JUMPI JUMPDEST POP ISZERO PUSH2 0xF7E JUMPI PUSH1 0x1 DUP1 PUSH1 0xA0 SHL SUB DUP2 MLOAD AND PUSH1 0x1 DUP1 PUSH1 0xA0 SHL SUB PUSH1 0x40 DUP4 ADD MLOAD AND PUSH1 0xA0 DUP4 ADD SWAP3 DUP4 MLOAD SWAP3 PUSH1 0xC0 PUSH1 0x1 PUSH1 0x1 PUSH1 0x60 SHL SUB PUSH2 0x160 DUP5 ADD MLOAD AND SWAP3 ADD MLOAD SWAP4 DUP2 EXTCODESIZE ISZERO PUSH2 0x122 JUMPI PUSH1 0x0 DUP1 SWAP5 PUSH2 0x104D PUSH1 0x40 MLOAD SWAP8 DUP9 SWAP7 DUP8 SWAP6 DUP7 SWAP5 PUSH4 0x396FFCB9 PUSH1 0xE2 SHL DUP7 MSTORE PUSH1 0x4 DUP7 ADD MSTORE PUSH1 0x24 DUP6 ADD MSTORE PUSH1 0x44 DUP5 ADD MSTORE PUSH1 0x80 PUSH1 0x64 DUP5 ADD MSTORE PUSH1 0x84 DUP4 ADD SWAP1 PUSH2 0x1617 JUMP JUMPDEST SUB SWAP3 GAS CALL DUP1 ISZERO PUSH2 0x96C JUMPI PUSH2 0x1091 JUMPI JUMPDEST POP MLOAD SWAP1 DUP3 MLOAD DUP2 LT ISZERO PUSH2 0x107B JUMPI PUSH1 0x1 SWAP2 PUSH1 0x20 DUP3 PUSH1 0x5 SHL DUP6 ADD ADD MSTORE SWAP1 PUSH2 0xF7E JUMP JUMPDEST PUSH4 0x4E487B71 PUSH1 0xE0 SHL PUSH1 0x0 MSTORE PUSH1 0x32 PUSH1 0x4 MSTORE PUSH1 0x24 PUSH1 0x0 REVERT JUMPDEST PUSH2 0x109A SWAP1 PUSH2 0x121D JUMP JUMPDEST DUP4 PUSH2 0x105C JUMP JUMPDEST PUSH2 0x10B9 SWAP2 POP PUSH1 0x20 RETURNDATASIZE PUSH1 0x20 GT PUSH2 0xBC3 JUMPI PUSH2 0xBB5 DUP2 DUP4 PUSH2 0x124B JUMP JUMPDEST DUP5 PUSH2 0xFD1 JUMP JUMPDEST PUSH1 0x40 MLOAD PUSH3 0x461BCD PUSH1 0xE5 SHL DUP2 MSTORE PUSH1 0x20 PUSH1 0x4 DUP3 ADD MSTORE PUSH1 0x3A PUSH1 0x24 DUP3 ADD MSTORE PUSH32 0x416464726573733A20756E61626C6520746F2073656E642076616C75652C2072 PUSH1 0x44 DUP3 ADD MSTORE PUSH32 0x6563697069656E74206D61792068617665207265766572746564000000000000 PUSH1 0x64 DUP3 ADD MSTORE PUSH1 0x84 SWAP1 REVERT JUMPDEST PUSH2 0xF57 JUMP JUMPDEST PUSH1 0x40 MLOAD PUSH3 0x461BCD PUSH1 0xE5 SHL DUP2 MSTORE PUSH1 0x20 PUSH1 0x4 DUP3 ADD MSTORE PUSH1 0x1D PUSH1 0x24 DUP3 ADD MSTORE PUSH32 0x416464726573733A20696E73756666696369656E742062616C616E6365000000 PUSH1 0x44 DUP3 ADD MSTORE PUSH1 0x64 SWAP1 REVERT JUMPDEST PUSH4 0x4E487B71 PUSH1 0xE0 SHL PUSH1 0x0 MSTORE PUSH1 0x41 PUSH1 0x4 MSTORE PUSH1 0x24 PUSH1 0x0 REVERT JUMPDEST CALLVALUE PUSH2 0x122 JUMPI PUSH1 0x20 CALLDATASIZE PUSH1 0x3 NOT ADD SLT PUSH2 0x122 JUMPI PUSH1 0x4 CALLDATALOAD SWAP1 PUSH4 0xFFFFFFFF PUSH1 0xE0 SHL DUP3 AND DUP1 SWAP3 SUB PUSH2 0x122 JUMPI PUSH1 0x20 SWAP2 PUSH4 0x7965DB0B PUSH1 0xE0 SHL DUP2 EQ SWAP1 DUP2 ISZERO PUSH2 0x11CC JUMPI JUMPDEST POP ISZERO ISZERO DUP2 MSTORE RETURN JUMPDEST PUSH4 0x1FFC9A7 PUSH1 0xE0 SHL EQ SWAP1 POP DUP4 PUSH2 0x11C5 JUMP JUMPDEST PUSH1 0x4 CALLDATALOAD SWAP1 PUSH1 0x1 PUSH1 0x1 PUSH1 0xA0 SHL SUB DUP3 AND DUP3 SUB PUSH2 0x122 JUMPI JUMP JUMPDEST PUSH1 0x24 CALLDATALOAD SWAP1 PUSH1 0x1 PUSH1 0x1 PUSH1 0xA0 SHL SUB DUP3 AND DUP3 SUB PUSH2 0x122 JUMPI JUMP JUMPDEST CALLDATALOAD SWAP1 PUSH1 0x1 PUSH1 0x1 PUSH1 0xA0 SHL SUB DUP3 AND DUP3 SUB PUSH2 0x122 JUMPI JUMP JUMPDEST PUSH1 0x1 PUSH1 0x1 PUSH1 0x40 SHL SUB DUP2 GT PUSH2 0x1174 JUMPI PUSH1 0x40 MSTORE JUMP JUMPDEST PUSH1 0x80 DUP2 ADD SWAP1 DUP2 LT PUSH1 0x1 PUSH1 0x1 PUSH1 0x40 SHL SUB DUP3 GT OR PUSH2 0x1174 JUMPI PUSH1 0x40 MSTORE JUMP JUMPDEST SWAP1 PUSH1 0x1F DUP1 NOT SWAP2 ADD AND DUP2 ADD SWAP1 DUP2 LT PUSH1 0x1 PUSH1 0x1 PUSH1 0x40 SHL SUB DUP3 GT OR PUSH2 0x1174 JUMPI PUSH1 0x40 MSTORE JUMP JUMPDEST PUSH1 0x1 PUSH1 0x1 PUSH1 0x40 SHL SUB DUP2 GT PUSH2 0x1174 JUMPI PUSH1 0x1F ADD PUSH1 0x1F NOT AND PUSH1 0x20 ADD SWAP1 JUMP JUMPDEST SWAP3 SWAP2 SWAP3 PUSH2 0x1293 DUP3 PUSH2 0x126C JUMP JUMPDEST SWAP2 PUSH2 0x12A1 PUSH1 0x40 MLOAD SWAP4 DUP5 PUSH2 0x124B JUMP JUMPDEST DUP3 SWAP5 DUP2 DUP5 MSTORE DUP2 DUP4 ADD GT PUSH2 0x122 JUMPI DUP3 DUP2 PUSH1 0x20 SWAP4 DUP5 PUSH1 0x0 SWAP7 ADD CALLDATACOPY ADD ADD MSTORE JUMP JUMPDEST SWAP1 DUP1 PUSH1 0x1F DUP4 ADD SLT ISZERO PUSH2 0x122 JUMPI DUP2 PUSH1 0x20 PUSH2 0x12D9 SWAP4 CALLDATALOAD SWAP2 ADD PUSH2 0x1287 JUMP JUMPDEST SWAP1 JUMP JUMPDEST CALLDATALOAD SWAP1 PUSH1 0x1 PUSH1 0x1 PUSH1 0x60 SHL SUB DUP3 AND DUP3 SUB PUSH2 0x122 JUMPI JUMP JUMPDEST CALLER PUSH1 0x0 SWAP1 DUP2 MSTORE PUSH32 0xAD3228B676F7D3CD4284A5443F17F1962B36E491B30A40B2405849E597BA5FB5 PUSH1 0x20 SWAP1 DUP2 MSTORE PUSH1 0x40 DUP1 DUP4 KECCAK256 SLOAD SWAP1 SWAP3 SWAP1 PUSH1 0xFF AND ISZERO PUSH2 0x1332 JUMPI POP POP POP JUMP JUMPDEST PUSH2 0x133B CALLER PUSH2 0x16C1 JUMP JUMPDEST SWAP1 DUP1 DUP5 MLOAD SWAP1 PUSH2 0x1349 DUP3 PUSH2 0x1230 JUMP JUMPDEST PUSH1 0x42 DUP3 MSTORE DUP5 DUP3 ADD SWAP3 PUSH1 0x60 CALLDATASIZE DUP6 CALLDATACOPY DUP3 MLOAD ISZERO PUSH2 0x14D6 JUMPI PUSH1 0x30 DUP5 MSTORE8 DUP3 MLOAD SWAP1 PUSH1 0x1 SWAP2 DUP3 LT ISZERO PUSH2 0x14D6 JUMPI SWAP1 PUSH1 0x78 PUSH1 0x21 DUP6 ADD MSTORE8 PUSH1 0x41 SWAP2 JUMPDEST DUP2 DUP4 GT PUSH2 0x1468 JUMPI POP POP POP PUSH2 0x1426 JUMPI PUSH1 0x48 PUSH2 0x1422 SWAP4 DUP7 SWAP4 PUSH2 0x1406 SWAP4 PUSH2 0x13F7 SWAP9 MLOAD SWAP9 DUP10 SWAP4 PUSH23 0x20B1B1B2B9B9A1B7B73A3937B61D1030B1B1B7BAB73A1 PUSH1 0x4D SHL DUP11 DUP7 ADD MSTORE PUSH2 0x13CE DUP2 MLOAD DUP1 SWAP3 DUP13 PUSH1 0x37 DUP10 ADD SWAP2 ADD PUSH2 0x15F4 JUMP JUMPDEST DUP5 ADD SWAP2 PUSH17 0x1034B99036B4B9B9B4B733903937B6329 PUSH1 0x7D SHL PUSH1 0x37 DUP5 ADD MSTORE MLOAD DUP1 SWAP4 DUP7 DUP5 ADD SWAP1 PUSH2 0x15F4 JUMP JUMPDEST ADD SUB PUSH1 0x28 DUP2 ADD DUP8 MSTORE ADD DUP6 PUSH2 0x124B JUMP JUMPDEST MLOAD SWAP3 DUP4 SWAP3 PUSH3 0x461BCD PUSH1 0xE5 SHL DUP5 MSTORE PUSH1 0x4 DUP5 ADD MSTORE PUSH1 0x24 DUP4 ADD SWAP1 PUSH2 0x1617 JUMP JUMPDEST SUB SWAP1 REVERT JUMPDEST PUSH1 0x64 DUP5 DUP7 MLOAD SWAP1 PUSH3 0x461BCD PUSH1 0xE5 SHL DUP3 MSTORE DUP1 PUSH1 0x4 DUP4 ADD MSTORE PUSH1 0x24 DUP3 ADD MSTORE PUSH32 0x537472696E67733A20686578206C656E67746820696E73756666696369656E74 PUSH1 0x44 DUP3 ADD MSTORE REVERT JUMPDEST SWAP1 SWAP2 SWAP3 PUSH1 0xF DUP2 AND PUSH1 0x10 DUP2 LT ISZERO PUSH2 0x14C2 JUMPI PUSH16 0x181899199A1A9B1B9C1CB0B131B232B3 PUSH1 0x81 SHL SWAP1 BYTE PUSH2 0x1498 DUP6 DUP8 PUSH2 0x16B0 JUMP JUMPDEST MSTORE8 PUSH1 0x4 SHR SWAP3 DUP1 ISZERO PUSH2 0x14AE JUMPI PUSH1 0x0 NOT ADD SWAP2 SWAP1 PUSH2 0x137A JUMP JUMPDEST PUSH4 0x4E487B71 PUSH1 0xE0 SHL DUP3 MSTORE PUSH1 0x11 PUSH1 0x4 MSTORE PUSH1 0x24 DUP3 REVERT JUMPDEST PUSH4 0x4E487B71 PUSH1 0xE0 SHL DUP4 MSTORE PUSH1 0x32 PUSH1 0x4 MSTORE PUSH1 0x24 DUP4 REVERT JUMPDEST PUSH4 0x4E487B71 PUSH1 0xE0 SHL DUP2 MSTORE PUSH1 0x32 PUSH1 0x4 MSTORE PUSH1 0x24 SWAP1 REVERT JUMPDEST PUSH1 0x0 SWAP1 DUP1 DUP3 MSTORE PUSH1 0x20 SWAP1 DUP3 DUP3 MSTORE PUSH1 0x40 SWAP3 DUP4 DUP2 KECCAK256 CALLER DUP3 MSTORE DUP4 MSTORE PUSH1 0xFF DUP5 DUP3 KECCAK256 SLOAD AND ISZERO PUSH2 0x1513 JUMPI POP POP POP POP JUMP JUMPDEST PUSH2 0x151C CALLER PUSH2 0x16C1 JUMP JUMPDEST SWAP2 DUP5 MLOAD SWAP1 PUSH2 0x1529 DUP3 PUSH2 0x1230 JUMP JUMPDEST PUSH1 0x42 DUP3 MSTORE DUP5 DUP3 ADD SWAP3 PUSH1 0x60 CALLDATASIZE DUP6 CALLDATACOPY DUP3 MLOAD ISZERO PUSH2 0x14D6 JUMPI PUSH1 0x30 DUP5 MSTORE8 DUP3 MLOAD SWAP1 PUSH1 0x1 SWAP2 DUP3 LT ISZERO PUSH2 0x14D6 JUMPI SWAP1 PUSH1 0x78 PUSH1 0x21 DUP6 ADD MSTORE8 PUSH1 0x41 SWAP2 JUMPDEST DUP2 DUP4 GT PUSH2 0x15AE JUMPI POP POP POP PUSH2 0x1426 JUMPI PUSH1 0x48 PUSH2 0x1422 SWAP4 DUP7 SWAP4 PUSH2 0x1406 SWAP4 PUSH2 0x13F7 SWAP9 MLOAD SWAP9 DUP10 SWAP4 PUSH23 0x20B1B1B2B9B9A1B7B73A3937B61D1030B1B1B7BAB73A1 PUSH1 0x4D SHL DUP11 DUP7 ADD MSTORE PUSH2 0x13CE DUP2 MLOAD DUP1 SWAP3 DUP13 PUSH1 0x37 DUP10 ADD SWAP2 ADD PUSH2 0x15F4 JUMP JUMPDEST SWAP1 SWAP2 SWAP3 PUSH1 0xF DUP2 AND PUSH1 0x10 DUP2 LT ISZERO PUSH2 0x14C2 JUMPI PUSH16 0x181899199A1A9B1B9C1CB0B131B232B3 PUSH1 0x81 SHL SWAP1 BYTE PUSH2 0x15DE DUP6 DUP8 PUSH2 0x16B0 JUMP JUMPDEST MSTORE8 PUSH1 0x4 SHR SWAP3 DUP1 ISZERO PUSH2 0x14AE JUMPI PUSH1 0x0 NOT ADD SWAP2 SWAP1 PUSH2 0x155A JUMP JUMPDEST PUSH1 0x0 JUMPDEST DUP4 DUP2 LT PUSH2 0x1607 JUMPI POP POP PUSH1 0x0 SWAP2 ADD MSTORE JUMP JUMPDEST DUP2 DUP2 ADD MLOAD DUP4 DUP3 ADD MSTORE PUSH1 0x20 ADD PUSH2 0x15F7 JUMP JUMPDEST SWAP1 PUSH1 0x20 SWAP2 PUSH2 0x1630 DUP2 MLOAD DUP1 SWAP3 DUP2 DUP6 MSTORE DUP6 DUP1 DUP7 ADD SWAP2 ADD PUSH2 0x15F4 JUMP JUMPDEST PUSH1 0x1F ADD PUSH1 0x1F NOT AND ADD ADD SWAP1 JUMP JUMPDEST SWAP1 PUSH1 0x0 SWAP2 DUP1 DUP4 MSTORE DUP3 PUSH1 0x20 MSTORE PUSH1 0x40 DUP4 KECCAK256 SWAP2 PUSH1 0x1 DUP1 PUSH1 0xA0 SHL SUB AND SWAP2 DUP3 DUP5 MSTORE PUSH1 0x20 MSTORE PUSH1 0xFF PUSH1 0x40 DUP5 KECCAK256 SLOAD AND PUSH2 0x166C JUMPI POP POP POP JUMP JUMPDEST DUP1 DUP4 MSTORE DUP3 PUSH1 0x20 MSTORE PUSH1 0x40 DUP4 KECCAK256 DUP3 DUP5 MSTORE PUSH1 0x20 MSTORE PUSH1 0x40 DUP4 KECCAK256 PUSH1 0xFF NOT DUP2 SLOAD AND SWAP1 SSTORE PUSH32 0xF6391F5C32D9C69D2A47EA670B442974B53935D1EDC7FD64EB21E047A839171B CALLER SWAP4 DUP1 LOG4 JUMP JUMPDEST SWAP1 DUP2 MLOAD DUP2 LT ISZERO PUSH2 0x107B JUMPI ADD PUSH1 0x20 ADD SWAP1 JUMP JUMPDEST PUSH1 0x40 MLOAD SWAP1 PUSH1 0x60 DUP3 ADD DUP3 DUP2 LT PUSH1 0x1 PUSH1 0x1 PUSH1 0x40 SHL SUB DUP3 GT OR PUSH2 0x1174 JUMPI PUSH1 0x40 MSTORE PUSH1 0x2A DUP3 MSTORE PUSH1 0x20 DUP3 ADD PUSH1 0x40 CALLDATASIZE DUP3 CALLDATACOPY DUP3 MLOAD ISZERO PUSH2 0x107B JUMPI PUSH1 0x30 SWAP1 MSTORE8 DUP2 MLOAD PUSH1 0x1 SWAP1 DUP2 LT ISZERO PUSH2 0x107B JUMPI PUSH1 0x78 PUSH1 0x21 DUP5 ADD MSTORE8 PUSH1 0x29 SWAP1 JUMPDEST DUP1 DUP3 GT PUSH2 0x1761 JUMPI POP POP PUSH2 0x171D JUMPI SWAP1 JUMP JUMPDEST PUSH1 0x64 PUSH1 0x40 MLOAD PUSH3 0x461BCD PUSH1 0xE5 SHL DUP2 MSTORE PUSH1 0x20 PUSH1 0x4 DUP3 ADD MSTORE PUSH1 0x20 PUSH1 0x24 DUP3 ADD MSTORE PUSH32 0x537472696E67733A20686578206C656E67746820696E73756666696369656E74 PUSH1 0x44 DUP3 ADD MSTORE REVERT JUMPDEST SWAP1 SWAP2 PUSH1 0xF DUP2 AND PUSH1 0x10 DUP2 LT ISZERO PUSH2 0x17BA JUMPI PUSH16 0x181899199A1A9B1B9C1CB0B131B232B3 PUSH1 0x81 SHL SWAP1 BYTE PUSH2 0x1790 DUP5 DUP7 PUSH2 0x16B0 JUMP JUMPDEST MSTORE8 PUSH1 0x4 SHR SWAP2 DUP1 ISZERO PUSH2 0x17A5 JUMPI PUSH1 0x0 NOT ADD SWAP1 PUSH2 0x170D JUMP JUMPDEST PUSH1 0x24 PUSH1 0x0 PUSH4 0x4E487B71 PUSH1 0xE0 SHL DUP2 MSTORE PUSH1 0x11 PUSH1 0x4 MSTORE REVERT JUMPDEST PUSH1 0x24 PUSH1 0x0 PUSH4 0x4E487B71 PUSH1 0xE0 SHL DUP2 MSTORE PUSH1 0x32 PUSH1 0x4 MSTORE REVERT JUMPDEST PUSH1 0x1 PUSH1 0x1 PUSH1 0x40 SHL SUB DUP2 GT PUSH2 0x1174 JUMPI PUSH1 0x5 SHL PUSH1 0x20 ADD SWAP1 JUMP JUMPDEST SWAP1 DUP2 PUSH1 0x20 SWAP2 SUB SLT PUSH2 0x122 JUMPI MLOAD DUP1 ISZERO ISZERO DUP2 SUB PUSH2 0x122 JUMPI SWAP1 JUMP JUMPDEST PUSH1 0xFF PUSH1 0x2 SLOAD AND PUSH2 0x180A JUMPI JUMP JUMPDEST PUSH1 0x40 MLOAD PUSH3 0x461BCD PUSH1 0xE5 SHL DUP2 MSTORE PUSH1 0x20 PUSH1 0x4 DUP3 ADD MSTORE PUSH1 0x10 PUSH1 0x24 DUP3 ADD MSTORE PUSH16 0x14185D5CD8589B194E881C185D5CD959 PUSH1 0x82 SHL PUSH1 0x44 DUP3 ADD MSTORE PUSH1 0x64 SWAP1 REVERT JUMPDEST PUSH1 0x2 PUSH1 0x1 SLOAD EQ PUSH2 0x1853 JUMPI PUSH1 0x2 PUSH1 0x1 SSTORE JUMP JUMPDEST PUSH1 0x40 MLOAD PUSH3 0x461BCD PUSH1 0xE5 SHL DUP2 MSTORE PUSH1 0x20 PUSH1 0x4 DUP3 ADD MSTORE PUSH1 0x1F PUSH1 0x24 DUP3 ADD MSTORE PUSH32 0x5265656E7472616E637947756172643A207265656E7472616E742063616C6C00 PUSH1 0x44 DUP3 ADD MSTORE PUSH1 0x64 SWAP1 REVERT INVALID LOG2 PUSH5 0x6970667358 0x22 SLT KECCAK256 PUSH10 0x60CCAB62AB15981E5419 CALLVALUE PUSH6 0xF5DC440D950D CALLVALUE DUP11 SWAP9 BASEFEE 0x1F SELFBALANCE CALLDATASIZE 0xD SELFBALANCE SWAP10 0xFC SWAP9 0x21 PUSH5 0x736F6C6343 STOP ADDMOD GT STOP CALLER "},"methodIdentifiers":{"DEFAULT_ADMIN_ROLE()":"a217fddf","buyItems(((address,uint256,address,address,bool,uint256,string,uint256,uint256,address,uint96,uint96,uint256,uint256),uint256,bytes)[])":"02d94ca8","gbNftContracts(address)":"27df5389","getRoleAdmin(bytes32)":"248a9ca3","grantRole(bytes32,address)":"2f2ff15d","hasRole(bytes32,address)":"91d14854","orderCancelled(bytes32)":"5889bf5e","orderProcessed(bytes32)":"68b35a13","pause()":"8456cb59","paused()":"5c975abb","platformFeeFromCharity()":"df128e9e","platformFeeFromSeller()":"92cacf41","renounceRole(bytes32,address)":"36568abe","revokeRole(bytes32,address)":"d547741f","setAdminWallet(address)":"35082933","setNftContractAddress(address,bool)":"c0dd3695","setPlatformFee(uint96,uint8)":"35daf728","supportsInterface(bytes4)":"01ffc9a7","unpause()":"3f4ba83a","updateTokenURI(address,uint256,string)":"0fcd7f8f"}},"storageLayout":{"storage":[{"astId":24,"contract":"contracts/GBMarketplace.sol:GBMarketplace","label":"_roles","offset":0,"slot":"0","type":"t_mapping(t_bytes32,t_struct(RoleData)19_storage)"},{"astId":526,"contract":"contracts/GBMarketplace.sol:GBMarketplace","label":"_status","offset":0,"slot":"1","type":"t_uint256"},{"astId":425,"contract":"contracts/GBMarketplace.sol:GBMarketplace","label":"_paused","offset":0,"slot":"2","type":"t_bool"},{"astId":2832,"contract":"contracts/GBMarketplace.sol:GBMarketplace","label":"gbNftContracts","offset":0,"slot":"3","type":"t_mapping(t_address,t_bool)"},{"astId":2836,"contract":"contracts/GBMarketplace.sol:GBMarketplace","label":"orderCancelled","offset":0,"slot":"4","type":"t_mapping(t_bytes32,t_bool)"},{"astId":2840,"contract":"contracts/GBMarketplace.sol:GBMarketplace","label":"orderProcessed","offset":0,"slot":"5","type":"t_mapping(t_bytes32,t_bool)"},{"astId":2842,"contract":"contracts/GBMarketplace.sol:GBMarketplace","label":"adminWallet","offset":0,"slot":"6","type":"t_address"},{"astId":2845,"contract":"contracts/GBMarketplace.sol:GBMarketplace","label":"platformFeeFromSeller","offset":20,"slot":"6","type":"t_uint96"},{"astId":2848,"contract":"contracts/GBMarketplace.sol:GBMarketplace","label":"platformFeeFromCharity","offset":0,"slot":"7","type":"t_uint96"}],"types":{"t_address":{"encoding":"inplace","label":"address","numberOfBytes":"20"},"t_bool":{"encoding":"inplace","label":"bool","numberOfBytes":"1"},"t_bytes32":{"encoding":"inplace","label":"bytes32","numberOfBytes":"32"},"t_mapping(t_address,t_bool)":{"encoding":"mapping","key":"t_address","label":"mapping(address => bool)","numberOfBytes":"32","value":"t_bool"},"t_mapping(t_bytes32,t_bool)":{"encoding":"mapping","key":"t_bytes32","label":"mapping(bytes32 => bool)","numberOfBytes":"32","value":"t_bool"},"t_mapping(t_bytes32,t_struct(RoleData)19_storage)":{"encoding":"mapping","key":"t_bytes32","label":"mapping(bytes32 => struct AccessControl.RoleData)","numberOfBytes":"32","value":"t_struct(RoleData)19_storage"},"t_struct(RoleData)19_storage":{"encoding":"inplace","label":"struct AccessControl.RoleData","members":[{"astId":16,"contract":"contracts/GBMarketplace.sol:GBMarketplace","label":"members","offset":0,"slot":"0","type":"t_mapping(t_address,t_bool)"},{"astId":18,"contract":"contracts/GBMarketplace.sol:GBMarketplace","label":"adminRole","offset":0,"slot":"1","type":"t_bytes32"}],"numberOfBytes":"64"},"t_uint256":{"encoding":"inplace","label":"uint256","numberOfBytes":"32"},"t_uint96":{"encoding":"inplace","label":"uint96","numberOfBytes":"12"}}}}}}