{"contracts/GBMarketplace.sol":{"GBMarketplace":{"abi":[{"inputs":[{"internalType":"address","name":"owner","type":"address"},{"internalType":"address","name":"adminWallet_","type":"address"}],"stateMutability":"nonpayable","type":"constructor"},{"anonymous":false,"inputs":[{"indexed":false,"internalType":"bool[]","name":"ordersResult","type":"bool[]"},{"indexed":false,"internalType":"string[]","name":"ordersStatus","type":"string[]"},{"indexed":false,"internalType":"bytes32[]","name":"ordersHash","type":"bytes32[]"}],"name":"BoughtItem","type":"event"},{"anonymous":false,"inputs":[{"indexed":false,"internalType":"bool[]","name":"cancelResults","type":"bool[]"},{"indexed":false,"internalType":"string[]","name":"cancelStatus","type":"string[]"},{"indexed":false,"internalType":"bytes32[]","name":"ordersHash","type":"bytes32[]"}],"name":"OrderCancelled","type":"event"},{"anonymous":false,"inputs":[{"indexed":false,"internalType":"address","name":"account","type":"address"}],"name":"Paused","type":"event"},{"anonymous":false,"inputs":[{"indexed":true,"internalType":"bytes32","name":"role","type":"bytes32"},{"indexed":true,"internalType":"bytes32","name":"previousAdminRole","type":"bytes32"},{"indexed":true,"internalType":"bytes32","name":"newAdminRole","type":"bytes32"}],"name":"RoleAdminChanged","type":"event"},{"anonymous":false,"inputs":[{"indexed":true,"internalType":"bytes32","name":"role","type":"bytes32"},{"indexed":true,"internalType":"address","name":"account","type":"address"},{"indexed":true,"internalType":"address","name":"sender","type":"address"}],"name":"RoleGranted","type":"event"},{"anonymous":false,"inputs":[{"indexed":true,"internalType":"bytes32","name":"role","type":"bytes32"},{"indexed":true,"internalType":"address","name":"account","type":"address"},{"indexed":true,"internalType":"address","name":"sender","type":"address"}],"name":"RoleRevoked","type":"event"},{"anonymous":false,"inputs":[{"indexed":false,"internalType":"address","name":"account","type":"address"}],"name":"SetAdminWallet","type":"event"},{"anonymous":false,"inputs":[{"indexed":false,"internalType":"address","name":"nftContract","type":"address"},{"indexed":false,"internalType":"bool","name":"status","type":"bool"}],"name":"SetNftContractAddress","type":"event"},{"anonymous":false,"inputs":[{"indexed":false,"internalType":"uint96","name":"platformFee","type":"uint96"},{"indexed":false,"internalType":"uint8","name":"platformFeeType","type":"uint8"}],"name":"SetPlatformFee","type":"event"},{"anonymous":false,"inputs":[{"indexed":false,"internalType":"address","name":"account","type":"address"}],"name":"Unpaused","type":"event"},{"anonymous":false,"inputs":[{"indexed":false,"internalType":"address","name":"nftContract","type":"address"},{"indexed":false,"internalType":"address","name":"owner","type":"address"},{"indexed":false,"internalType":"uint256","name":"tokenId","type":"uint256"},{"indexed":false,"internalType":"string","name":"tokenURI","type":"string"}],"name":"UpdatedTokenURI","type":"event"},{"inputs":[],"name":"DEFAULT_ADMIN_ROLE","outputs":[{"internalType":"bytes32","name":"","type":"bytes32"}],"stateMutability":"view","type":"function"},{"inputs":[{"components":[{"components":[{"internalType":"address","name":"nftContract","type":"address"},{"internalType":"uint256","name":"itemType","type":"uint256"},{"internalType":"address","name":"seller","type":"address"},{"internalType":"address","name":"artist","type":"address"},{"internalType":"bool","name":"isMinted","type":"bool"},{"internalType":"uint256","name":"tokenId","type":"uint256"},{"internalType":"string","name":"tokenURI","type":"string"},{"internalType":"uint256","name":"quantity","type":"uint256"},{"internalType":"uint256","name":"itemPrice","type":"uint256"},{"internalType":"address","name":"charityAddress","type":"address"},{"internalType":"uint96","name":"charityShare","type":"uint96"},{"internalType":"uint96","name":"royaltyFee","type":"uint96"},{"internalType":"uint256","name":"deadline","type":"uint256"},{"internalType":"uint256","name":"salt","type":"uint256"}],"internalType":"struct OrderItem","name":"orderItem","type":"tuple"},{"internalType":"uint256","name":"additionalAmount","type":"uint256"},{"internalType":"bytes","name":"signature","type":"bytes"}],"internalType":"struct Order[]","name":"orders","type":"tuple[]"}],"name":"buyItems","outputs":[],"stateMutability":"payable","type":"function"},{"inputs":[{"components":[{"internalType":"address","name":"nftContract","type":"address"},{"internalType":"uint256","name":"itemType","type":"uint256"},{"internalType":"address","name":"seller","type":"address"},{"internalType":"address","name":"artist","type":"address"},{"internalType":"bool","name":"isMinted","type":"bool"},{"internalType":"uint256","name":"tokenId","type":"uint256"},{"internalType":"string","name":"tokenURI","type":"string"},{"internalType":"uint256","name":"quantity","type":"uint256"},{"internalType":"uint256","name":"itemPrice","type":"uint256"},{"internalType":"address","name":"charityAddress","type":"address"},{"internalType":"uint96","name":"charityShare","type":"uint96"},{"internalType":"uint96","name":"royaltyFee","type":"uint96"},{"internalType":"uint256","name":"deadline","type":"uint256"},{"internalType":"uint256","name":"salt","type":"uint256"}],"internalType":"struct OrderItem[]","name":"orderItems","type":"tuple[]"}],"name":"cancelOrders","outputs":[],"stateMutability":"nonpayable","type":"function"},{"inputs":[{"internalType":"address","name":"","type":"address"}],"name":"gbNftContracts","outputs":[{"internalType":"bool","name":"","type":"bool"}],"stateMutability":"view","type":"function"},{"inputs":[{"internalType":"bytes32","name":"role","type":"bytes32"}],"name":"getRoleAdmin","outputs":[{"internalType":"bytes32","name":"","type":"bytes32"}],"stateMutability":"view","type":"function"},{"inputs":[{"internalType":"bytes32","name":"role","type":"bytes32"},{"internalType":"address","name":"account","type":"address"}],"name":"grantRole","outputs":[],"stateMutability":"nonpayable","type":"function"},{"inputs":[{"internalType":"bytes32","name":"role","type":"bytes32"},{"internalType":"address","name":"account","type":"address"}],"name":"hasRole","outputs":[{"internalType":"bool","name":"","type":"bool"}],"stateMutability":"view","type":"function"},{"inputs":[{"internalType":"bytes32","name":"","type":"bytes32"}],"name":"orderCancelled","outputs":[{"internalType":"bool","name":"","type":"bool"}],"stateMutability":"view","type":"function"},{"inputs":[{"internalType":"bytes32","name":"","type":"bytes32"}],"name":"orderProcessed","outputs":[{"internalType":"bool","name":"","type":"bool"}],"stateMutability":"view","type":"function"},{"inputs":[],"name":"pause","outputs":[],"stateMutability":"nonpayable","type":"function"},{"inputs":[],"name":"paused","outputs":[{"internalType":"bool","name":"","type":"bool"}],"stateMutability":"view","type":"function"},{"inputs":[],"name":"platformFeeFromCharity","outputs":[{"internalType":"uint96","name":"","type":"uint96"}],"stateMutability":"view","type":"function"},{"inputs":[],"name":"platformFeeFromSeller","outputs":[{"internalType":"uint96","name":"","type":"uint96"}],"stateMutability":"view","type":"function"},{"inputs":[{"internalType":"bytes32","name":"role","type":"bytes32"},{"internalType":"address","name":"account","type":"address"}],"name":"renounceRole","outputs":[],"stateMutability":"nonpayable","type":"function"},{"inputs":[{"internalType":"bytes32","name":"role","type":"bytes32"},{"internalType":"address","name":"account","type":"address"}],"name":"revokeRole","outputs":[],"stateMutability":"nonpayable","type":"function"},{"inputs":[{"internalType":"address","name":"adminWallet_","type":"address"}],"name":"setAdminWallet","outputs":[],"stateMutability":"nonpayable","type":"function"},{"inputs":[{"internalType":"address","name":"nftContractAddress","type":"address"},{"internalType":"bool","name":"isEnabled","type":"bool"}],"name":"setNftContractAddress","outputs":[],"stateMutability":"nonpayable","type":"function"},{"inputs":[{"internalType":"uint96","name":"platformFee_","type":"uint96"},{"internalType":"uint8","name":"platformFeeType","type":"uint8"}],"name":"setPlatformFee","outputs":[],"stateMutability":"nonpayable","type":"function"},{"inputs":[{"internalType":"bytes4","name":"interfaceId","type":"bytes4"}],"name":"supportsInterface","outputs":[{"internalType":"bool","name":"","type":"bool"}],"stateMutability":"view","type":"function"},{"inputs":[],"name":"unpause","outputs":[],"stateMutability":"nonpayable","type":"function"},{"inputs":[{"internalType":"address","name":"nftContract","type":"address"},{"internalType":"uint256","name":"tokenId","type":"uint256"},{"internalType":"string","name":"tokenURI","type":"string"}],"name":"updateTokenURI","outputs":[],"stateMutability":"nonpayable","type":"function"}],"evm":{"bytecode":{"linkReferences":{},"object":"6101403462000226576001600160401b0362002d9e601f38829003908101601f1916840190838211858310176200021057808591604094859485528339810103126200022657620000508362000247565b6200005f602080950162000247565b908251926200006e846200022b565b600d845260058685016c47424d61726b6574706c61636560981b815287835162000098816200022b565b8381520195640312e302e360dc1b87525190209420958460e052610100968088524660a0528251828101917f8b73c3c69bb8fe3d512ecc4cf759cc79239f7b179b0ffacaa9a75d522b39400f978884528583015260608201524660808201523060a082015260a0815260c08101978189109089111762000210578784525190206080523060c052610120948552600180556002805460ff19908116909155600780546001600160601b031916606417905561027160a31b6001600160a01b03958616176006556000808052808352838120949095168086529382528285205490929060ff1615620001c5575b612b4187878a836200025d843960805183612721015260a051836127ec015260c051836126eb015260e05183612770015251826127960152518161274d0152f35b600191858052858152818620908587525284209182541617905533917f2f8788117e7eff1d82e926ec794901d17c78024a50270940304540a733656f0d8180a4388080808062000184565b634e487b7160e01b600052604160045260246000fd5b600080fd5b604081019081106001600160401b038211176200021057604052565b51906001600160a01b0382168203620002265756fe608080604052600436101561001357600080fd5b60003560e01c90816301ffc9a714611b7e5750806302d94ca814610ec15780630fcd7f8f14610aab578063248a9ca314610a7c57806327df538914610a3d5780632f2ff15d1461098a57806335082933146108bf57806335daf728146107b557806336568abe146107235780633f4ba83a1461068f5780635889bf5e1461065e5780635c975abb1461063b57806368b35a131461060a5780638456cb59146105b057806391d148541461056357806392cacf41146105425780639aefa50314610274578063a217fddf14610258578063c0dd369514610173578063d547741f146101325763df128e9e1461010657600080fd5b3461012d57600036600319011261012d5760206001600160601b0360075416604051908152f35b600080fd5b3461012d57604036600319011261012d57610171600435610151611c17565b9080600052600060205261016c600160406000200154611f44565b612096565b005b3461012d57604036600319011261012d5761018c611c01565b6024359081151580920361012d576101a2611d4a565b6001600160a01b03169081156101fe57816040917f37940b2348bce0015e28074f3a1d2ddc211ad7dfa13f0aef19072b22034ebc979360005260036020528260002060ff1981541660ff831617905582519182526020820152a1005b60405162461bcd60e51b815260206004820152602c60248201527f4e6674436f6e74726163742061646472657373206d757374206e6f742062652060448201526b7a65726f206164647265737360a01b6064820152608490fd5b3461012d57600036600319011261012d57602060405160008152f35b3461012d5760208060031936011261012d576004356001600160401b03811161012d576102a5903690600401611bd1565b916102ae6124ef565b6102b783612253565b926102c181612285565b926102cb82612253565b9260005b83811061030d576040517f15f99f1cf783ec6699f2ff7916a0502d78d1cf20b8c9422ae62c33c66dce90d19080610308888a8c8461241d565b0390a1005b60059080821b8401356101be198536030181121561012d5784019160408301359260018060a01b03841680940361012d5760019333146103ab57505060405161035581611c6f565b602781527f47424d61726b6574706c6163653a20496e76616c6964206f726465722063616e848201526631b2b63632b91760c91b604082015261039882896123d0565b526103a381886123d0565b505b016102cf565b6103b96103be9136906122cf565b6129f3565b6103c883896123d0565b526103d382886123d0565b516000526004845260ff9081604060002054166000146104535750506040516103fb81611c6f565b602b81527f47424d61726b6574706c6163653a204f726465722077617320616c7265616479848201526a1031b0b731b2b63632b21760a91b604082015261044282896123d0565b5261044d81886123d0565b506103a5565b61045d83896123d0565b516000528452604060002054166000146104c45760405161047d81611c6f565b602b81527f47424d61726b6574706c6163653a204f726465722077617320616c7265616479848201526a10383937b1b2b9b9b2b21760a91b604082015261044282896123d0565b81806104d0838b6123d0565b526040516104dd81611c54565b601f81527f47424d61726b6574706c6163653a2043616e63656c6c6564206f726465722e0085820152610510838a6123d0565b5261051b82896123d0565b5061052682886123d0565b516000526004845260406000209060ff198254161790556103a5565b3461012d57600036600319011261012d57602060065460a01c604051908152f35b3461012d57604036600319011261012d5761057c611c17565b600435600052600060205260406000209060018060a01b0316600052602052602060ff604060002054166040519015158152f35b3461012d57600036600319011261012d576105c9611d4a565b6105d16124ef565b600160ff1960025416176002557f62e78cea01bee320cd4e420270b5ea74000d11b0c9f74754ebdbfc544b05a2586020604051338152a1005b3461012d57602036600319011261012d576004356000526005602052602060ff604060002054166040519015158152f35b3461012d57600036600319011261012d57602060ff600254166040519015158152f35b3461012d57602036600319011261012d576004356000526004602052602060ff604060002054166040519015158152f35b3461012d57600036600319011261012d576106a8611d4a565b60025460ff8116156106e75760ff19166002557f5db9ee0a495bf2e6ff9c91a7834c1ba4fdd244a5e8aa4e537bd38aeae4b073aa6020604051338152a1005b60405162461bcd60e51b815260206004820152601460248201527314185d5cd8589b194e881b9bdd081c185d5cd95960621b6044820152606490fd5b3461012d57604036600319011261012d5761073c611c17565b336001600160a01b038216036107585761017190600435612096565b60405162461bcd60e51b815260206004820152602f60248201527f416363657373436f6e74726f6c3a2063616e206f6e6c792072656e6f756e636560448201526e103937b632b9903337b91039b2b63360891b6064820152608490fd5b3461012d57604036600319011261012d576004356001600160601b0381169081810361012d576024359160ff831680930361012d576107f2611d4a565b61271081101561086f577f75822b40f249c484aaeef9e7b5723e5abaf2a9573937a605fec2e69b7cd1e7eb926040928161085757600680546001600160a01b031660a09290921b6001600160a01b0319169190911790555b82519182526020820152a1005b50816001600160601b0319600754161760075561084a565b60405162461bcd60e51b815260206004820152602260248201527f706c6174666f726d466565206d757374206265206c657373207468616e203130604482015261302560f01b6064820152608490fd5b3461012d57602036600319011261012d576108d8611c01565b6108e0611d4a565b6001600160a01b03168015610930576020817f1b651cfd0a3f185590087e7e632381434dfada46f037b9081264f9f5bdbfcd9b926001600160601b0360a01b6006541617600655604051908152a1005b60405162461bcd60e51b815260206004820152602c60248201527f61646d696e57616c6c65742061646472657373206d757374206e6f742062652060448201526b7a65726f206164647265737360a01b6064820152608490fd5b3461012d57604036600319011261012d576004356109a6611c17565b8160005260006020526109c0600160406000200154611f44565b81600052600060205260406000209060018060a01b0316908160005260205260ff60406000205416156109ef57005b8160005260006020526040600020816000526020526040600020600160ff1982541617905533917f2f8788117e7eff1d82e926ec794901d17c78024a50270940304540a733656f0d600080a4005b3461012d57602036600319011261012d576001600160a01b03610a5e611c01565b166000526003602052602060ff604060002054166040519015158152f35b3461012d57602036600319011261012d5760043560005260006020526020600160406000200154604051908152f35b3461012d57606036600319011261012d57610ac4611c01565b6044906024803583356001600160401b03811161012d57610ae9903690600401611d18565b610af1612533565b610af96124ef565b6040516301ffc9a760e01b8082526380ac58cd60e01b60048301526020956001600160a01b0390811695929091878285818a5afa918215610c4557600092610ea2575b508115610e43575b5015610de5578415610d7c578315610d2057846000526003865260ff6040600020541615610cca576040516331a9108f60e11b8152600481018590529086828481895afa918215610c4557600092610c93575b5033911603610c5157833b1561012d576040600091610bd182519889938493630588253160e21b8552886004860152840152820185612071565b038183875af1918215610c45577f2a594f4fdcfb43b211e3fe501443da843ed0daa6e9cc58965e68afb67938f5f295610c2d93610c36575b50604051948594855233908501526040840152608060608401526080830190612071565b0390a160018055005b610c3f90611c41565b86610c09565b6040513d6000823e3d90fd5b847f47424d61726b6574706c6163653a206973206e6f74206e6674206f776e65720087601f6064946040519462461bcd60e51b86526004860152840152820152fd5b9091508681813d8311610cc3575b610cab8183611ca5565b8101031261012d57610cbc90612409565b9088610b97565b503d610ca1565b60405162461bcd60e51b815260048101879052602a818401527f47424d61726b6574706c6163653a20496e76616c6964206e6674436f6e74726181890152696374206164647265737360b01b6064820152608490fd5b60405162461bcd60e51b8152600481018790526030818401527f47424d61726b6574706c6163653a20746f6b656e4964206d7573742062652067818901526f726561746572207468616e207a65726f60801b6064820152608490fd5b60405162461bcd60e51b815260048101879052603b818401527f47424d61726b6574706c6163653a206e6674436f6e7472616374206164647265818901527f7373206d757374206e6f74206265207a65726f206164647265737300000000006064820152608490fd5b60405162461bcd60e51b8152600481018790526032818401527f47424d61726b6574706c6163653a2054686973206973206e6f7420455243373281890152710c4bd15490cc4c4d4d4818dbdb9d1c9858dd60721b6064820152608490fd5b604051908152636cdb3d1360e11b6004820152905086818481895afa908115610c4557600091610e75575b5088610b44565b610e959150873d8911610e9b575b610e8d8183611ca5565b8101906123f1565b88610e6e565b503d610e83565b610eba919250883d8a11610e9b57610e8d8183611ca5565b9089610b3c565b602036600319011261012d576004356001600160401b03811161012d57610eec903690600401611bd1565b90610ef5612533565b610efd6124ef565b3491610f0881612253565b90610f1281612285565b92610f1c82612253565b916000915b818310610f7457505050610c2d90847f2936eb2452e2f53567f08a410dfa6bc4e0e084810986e7cc62d29af7cc13d74b95610f64575b506040519384938461241d565b610f6e9033612589565b85610f57565b9091958660051b820135605e198336030181121561012d5782019060608236031261012d5760405191606083018381106001600160401b03821117611a525760405280356001600160401b03811161012d57610fd390369083016122cf565b83526020810135602084015260408101356001600160401b03811161012d5736601f82840101121561012d5761101191369101803590602001611ce1565b60408301819052825160209093015183519092916000918291906001600160a01b031680611465575050611043612689565b905b61104f8c8a6123d0565b5261105a8b8b6123d0565b526110658a896123d0565b901515905261107489886123d0565b51156114595760006127106101008501516001600160601b03610140870151160204906110a1848361210a565b6001600160601b036007541680611448575b506110d6906110d08360018060a01b036101208a015116926123e4565b90612589565b84516001600160a01b031660009081526003602052604081205460ff1661128a575b6111259261010087015161110c838361210a565b1061123b575b50506006546001600160a01b0316612589565b82516040516301ffc9a760e01b81526380ac58cd60e01b600482015290602090829060249082906001600160a01b03165afa908115610c455760009161121c575b506111a3575b61010060019301519003039661118281866123d0565b51600052600560205260406000208260ff198254161790555b019190610f21565b8251604084015160a08501516001600160a01b03928316959290911690853b1561012d576064600092836040519889948593632142170760e11b8552600485015233602485015260448401525af1908115610c45576001946101009261120d575b5093505061116c565b61121690611c41565b8b611204565b611235915060203d602011610e9b57610e8d8183611ca5565b8a611166565b61128391611251611256926101008a01516123e4565b6123e4565b6110d061126f61271060065460a01c840204809561210a565b9360018060a01b0360608a015116926123e4565b8b80611112565b50608085015115611349575b60018060a01b03855116604060a08701516044610100890151918351948593849263152a902d60e11b8452600484015260248301525afa8015610c4557600091600091611300575b506111259390916112f99083906001600160a01b0316612589565b92506110f8565b9150506040813d604011611341575b8161131c60409383611ca5565b8101031261012d57611125926112f9602061133684612409565b9301519194506112de565b3d915061130f565b84516040516301ffc9a760e01b81526380ac58cd60e01b600482015290602090829060249082906001600160a01b03165afa908115610c4557600091611429575b5015611296578451604086015160a087015161016088015160c0890151936001600160a01b03938416936001600160601b0390921692911690813b1561012d57600080946114056040519788968795869463396ffcb960e21b8652600486015260248501526044840152608060648401526084830190612071565b03925af18015610c455761141a575b50611296565b61142390611c41565b8b611414565b611442915060203d602011610e9b57610e8d8183611ca5565b8c61138a565b6127109082020491506110d66110b3565b9790506001915061119b565b6040516301ffc9a760e01b81526380ac58cd60e01b600482015290602090829060249082905afa908115610c4557600091611b5f575b501580611af7575b156114b757506114b1612689565b90611045565b6080860151151580611a89575b1561151e57506040516114d681611c6f565b602f81527f47424d61726b6574706c6163653a204e465420776173206e6f7420617070726f60208201526e3b32b210333937b69039b2b63632b960891b604082015290611045565b60408601516001600160a01b03163b15611595575060405161153f81611c6f565b603a81527f47424d61726b6574706c6163653a2073656c6c65722061646472657373206d7560208201527f7374206e6f7420626520636f6e74726163742061646472657373000000000000604082015290611045565b6101208601516001600160a01b031661160b57506040516115b581611c6f565b603781527f47424d61726b6574706c6163653a20636861726974792061646472657373206d60208201527f757374206e6f74206265207a65726f2061646472657373000000000000000000604082015290611045565b6001600160601b03610140870151166103e881108015611a7e575b1561168f57505060405161163981611c6f565b603e81527f47424d61726b6574706c6163653a20636861726974792070657263656e74616760208201527f65206d757374206265206265747765656e2031302520616e6420313030250000604082015290611045565b6101608701516001600160601b03169061271082111561170e575050506040516116b881611c6f565b603881527f47424d61726b6574706c6163653a20726f79616c747920666565206d7573742060208201527f6e6f742062652067726561746572207468616e20313030250000000000000000604082015290611045565b6001600160601b0382820111611a685761271091016001600160601b03161115611787575060405161173f81611c6f565b602f81527f47424d61726b6574706c6163653a20746f74616c20666565206d75737420626560208201526e206c657373207468616e203130302560881b604082015290611045565b61010086015185816117ea575050506040516117a281611c6f565b602f81527f47424d61726b6574706c6163653a204e4654205072696365206d75737420626560208201526e02067726561746572207468616e203608c1b604082015290611045565b6117f39161210a565b841015611841575060405161180781611c6f565b602181527f47424d61726b6574706c6163653a20496e73756666696369656e742066756e646020820152607360f81b604082015290611045565b61018086015142111561188b575060405161185b81611c54565b602081527f47424d61726b6574706c6163653a205369676e61747572652065787069726564602082015290611045565b9050611896856129f3565b9081600052600460205260ff80604060002054166000146119015750506040516118bf81611c6f565b602981527f47424d61726b6574706c6163653a204f7264657220697320616c72656164792060208201526818d85b98d95b1b195960ba1b604082015290611045565b60056020526040600020541615611961575060405161191f81611c6f565b602981527f47424d61726b6574706c6163653a204f7264657220697320616c7265616479206020820152681c1c9bd8d95cdcd95960ba1b604082015290611045565b60408601516001600160a01b0316906119786126e8565b6040519061190160f01b602083015260228201526042848183015281528060808101106001600160401b03608083011117611a52576119d0918160806119c893016040526020815191012061292c565b919091612812565b6001600160a01b031614611a1a576040516119ea81611c54565b602081527f47424d61726b6574706c6163653a20496e76616c6964207369676e6174757265602082015290611045565b60405160019250611a2a81611c54565b601581527411d093585c9ad95d1c1b1858d94e8814185cdcd959605a1b602082015290611045565b634e487b7160e01b600052604160045260246000fd5b634e487b7160e01b600052601160045260246000fd5b506127108111611626565b508551604080880151905163e985e9c560e01b81526001600160a01b0391821660048201523060248201529160209183916044918391165afa908115610c4557600091611ad8575b50156114c4565b611af1915060203d602011610e9b57610e8d8183611ca5565b8d611ad1565b5085516040516301ffc9a760e01b8152636cdb3d1360e11b600482015290602090829060249082906001600160a01b03165afa908115610c4557600091611b40575b50156114a3565b611b59915060203d602011610e9b57610e8d8183611ca5565b8d611b39565b611b78915060203d602011610e9b57610e8d8183611ca5565b8d61149b565b3461012d57602036600319011261012d576004359063ffffffff60e01b821680920361012d57602091637965db0b60e01b8114908115611bc0575b5015158152f35b6301ffc9a760e01b14905083611bb9565b9181601f8401121561012d578235916001600160401b03831161012d576020808501948460051b01011161012d57565b600435906001600160a01b038216820361012d57565b602435906001600160a01b038216820361012d57565b35906001600160a01b038216820361012d57565b6001600160401b038111611a5257604052565b604081019081106001600160401b03821117611a5257604052565b606081019081106001600160401b03821117611a5257604052565b608081019081106001600160401b03821117611a5257604052565b90601f801991011681019081106001600160401b03821117611a5257604052565b6001600160401b038111611a5257601f01601f191660200190565b929192611ced82611cc6565b91611cfb6040519384611ca5565b82948184528183011161012d578281602093846000960137010152565b9080601f8301121561012d57816020611d3393359101611ce1565b90565b35906001600160601b038216820361012d57565b3360009081527fad3228b676f7d3cd4284a5443f17f1962b36e491b30a40b2405849e597ba5fb5602090815260408083205490929060ff1615611d8c57505050565b611d953361213e565b9080845190611da382611c8a565b60428252848201926060368537825115611f305760308453825190600191821015611f305790607860218501536041915b818311611ec257505050611e80576048611e7c938693611e6093611e51985198899376020b1b1b2b9b9a1b7b73a3937b61d1030b1b1b7bab73a1604d1b8a860152611e28815180928c60378901910161204e565b8401917001034b99036b4b9b9b4b733903937b6329607d1b60378401525180938684019061204e565b01036028810187520185611ca5565b5192839262461bcd60e51b845260048401526024830190612071565b0390fd5b60648486519062461bcd60e51b825280600483015260248201527f537472696e67733a20686578206c656e67746820696e73756666696369656e746044820152fd5b909192600f81166010811015611f1c576f181899199a1a9b1b9c1cb0b131b232b360811b901a611ef28587612117565b5360041c928015611f0857600019019190611dd4565b634e487b7160e01b82526011600452602482fd5b634e487b7160e01b83526032600452602483fd5b634e487b7160e01b81526032600452602490fd5b600090808252602090828252604092838120338252835260ff848220541615611f6d5750505050565b611f763361213e565b91845190611f8382611c8a565b60428252848201926060368537825115611f305760308453825190600191821015611f305790607860218501536041915b81831161200857505050611e80576048611e7c938693611e6093611e51985198899376020b1b1b2b9b9a1b7b73a3937b61d1030b1b1b7bab73a1604d1b8a860152611e28815180928c60378901910161204e565b909192600f81166010811015611f1c576f181899199a1a9b1b9c1cb0b131b232b360811b901a6120388587612117565b5360041c928015611f0857600019019190611fb4565b60005b8381106120615750506000910152565b8181015183820152602001612051565b9060209161208a8151809281855285808601910161204e565b601f01601f1916010190565b9060009180835282602052604083209160018060a01b03169182845260205260ff6040842054166120c657505050565b80835282602052604083208284526020526040832060ff1981541690557ff6391f5c32d9c69d2a47ea670b442974b53935d1edc7fd64eb21e047a839171b339380a4565b91908201809211611a6857565b908151811015612128570160200190565b634e487b7160e01b600052603260045260246000fd5b6040519061214b82611c6f565b602a82526020820160403682378251156121285760309053815160019081101561212857607860218401536029905b8082116121ce57505061218a5790565b606460405162461bcd60e51b815260206004820152602060248201527f537472696e67733a20686578206c656e67746820696e73756666696369656e746044820152fd5b9091600f81166010811015612227576f181899199a1a9b1b9c1cb0b131b232b360811b901a6121fd8486612117565b5360041c91801561221257600019019061217a565b60246000634e487b7160e01b81526011600452fd5b60246000634e487b7160e01b81526032600452fd5b6001600160401b038111611a525760051b60200190565b9061225d8261223c565b61226a6040519182611ca5565b828152809261227b601f199161223c565b0190602036910137565b9061228f8261223c565b61229c6040519182611ca5565b82815280926122ad601f199161223c565b019060005b8281106122be57505050565b8060606020809385010152016122b2565b9190916101c090818185031261012d576040519182016001600160401b039083811082821117611a5257604052829461230783611c2d565b84526020830135602085015261231f60408401611c2d565b604085015261233060608401611c2d565b60608501526080830135801515810361012d57608085015260a083013560a085015260c083013591821161012d57612369918301611d18565b60c083015260e081013560e08301526101008082013590830152610120612391818301611c2d565b908301526101406123a3818301611d36565b908301526101606123b5818301611d36565b9083015261018080820135908301526101a080910135910152565b80518210156121285760209160051b010190565b91908203918211611a6857565b9081602091031261012d5751801515810361012d5790565b51906001600160a01b038216820361012d57565b91909160608101606082528351809152608082019060208095019060005b8181106124d9575050508181038483015282518082528482019185808360051b8301019501926000915b8383106124aa575050505050604081830391015281808451928381520193019160005b828110612496575050505090565b835185529381019392810192600101612488565b90919293969586806124c8600193601f198682030187528b51612071565b989901959491909101920190612465565b825115158452928601929186019160010161243b565b60ff600254166124fb57565b60405162461bcd60e51b815260206004820152601060248201526f14185d5cd8589b194e881c185d5cd95960821b6044820152606490fd5b600260015414612544576002600155565b60405162461bcd60e51b815260206004820152601f60248201527f5265656e7472616e637947756172643a207265656e7472616e742063616c6c006044820152606490fd5b814710612644576000918291829182916001600160a01b03165af13d1561263f573d6125b481611cc6565b906125c26040519283611ca5565b8152600060203d92013e5b156125d457565b60405162461bcd60e51b815260206004820152603a60248201527f416464726573733a20756e61626c6520746f2073656e642076616c75652c207260448201527f6563697069656e74206d617920686176652072657665727465640000000000006064820152608490fd5b6125cd565b60405162461bcd60e51b815260206004820152601d60248201527f416464726573733a20696e73756666696369656e742062616c616e63650000006044820152606490fd5b6040519061269682611c6f565b603b82527f7373206d757374206e6f74206265207a65726f206164647265737300000000006040837f47424d61726b6574706c6163653a206e6674436f6e747261637420616464726560208201520152565b307f00000000000000000000000000000000000000000000000000000000000000006001600160a01b031614806127e9575b15612743577f000000000000000000000000000000000000000000000000000000000000000090565b60405160208101907f000000000000000000000000000000000000000000000000000000000000000082527f000000000000000000000000000000000000000000000000000000000000000060408201527f000000000000000000000000000000000000000000000000000000000000000060608201524660808201523060a082015260a0815260c081018181106001600160401b03821117611a525760405251902090565b507f0000000000000000000000000000000000000000000000000000000000000000461461271a565b600581101561291657806128235750565b600181036128705760405162461bcd60e51b815260206004820152601860248201527f45434453413a20696e76616c6964207369676e617475726500000000000000006044820152606490fd5b600281036128bd5760405162461bcd60e51b815260206004820152601f60248201527f45434453413a20696e76616c6964207369676e6174757265206c656e677468006044820152606490fd5b6003146128c657565b60405162461bcd60e51b815260206004820152602260248201527f45434453413a20696e76616c6964207369676e6174757265202773272076616c604482015261756560f01b6064820152608490fd5b634e487b7160e01b600052602160045260246000fd5b90604181511460001461295a57612956916020820151906060604084015193015160001a90612964565b9091565b5050600090600290565b9291907f7fffffffffffffffffffffffffffffff5d576e7357a4501ddfe92f46681b20a083116129e75791608094939160ff602094604051948552168484015260408301526060820152600093849182805260015afa156129da5781516001600160a01b038116156129d4579190565b50600190565b50604051903d90823e3d90fd5b50505050600090600390565b60018060a01b03808251169160208101519180604083015116908060608401511690608084015115159060a085015160c08601516020815191012060e0870151916101008801519361012089015116946001600160601b0396876101408b015116976101608b015116986101a06101808c01519b01519b60606040519e8f907f51a2c7a72ca7ccbf8ee583e8eeaede48c40bfd027939c3cbd4f474227d6b059a60208301526040820152015260808d015260a08c015260c08b015260e08a01526101008901526101208801526101408701526101608601526101808501526101a08401526101c08301526101e09081830152815261020081018181106001600160401b03821117611a5257604052602081519101209056fea26469706673582212209ddbe8afbcdb97e147605c3ca4be8d497989a4e85fe0631553133e57e67201f764736f6c63430008110033","opcodes":"PUSH2 0x140 CALLVALUE PUSH3 0x226 JUMPI PUSH1 0x1 PUSH1 0x1 PUSH1 0x40 SHL SUB PUSH3 0x2D9E PUSH1 0x1F CODESIZE DUP3 SWAP1 SUB SWAP1 DUP2 ADD PUSH1 0x1F NOT AND DUP5 ADD SWAP1 DUP4 DUP3 GT DUP6 DUP4 LT OR PUSH3 0x210 JUMPI DUP1 DUP6 SWAP2 PUSH1 0x40 SWAP5 DUP6 SWAP5 DUP6 MSTORE DUP4 CODECOPY DUP2 ADD SUB SLT PUSH3 0x226 JUMPI PUSH3 0x50 DUP4 PUSH3 0x247 JUMP JUMPDEST PUSH3 0x5F PUSH1 0x20 DUP1 SWAP6 ADD PUSH3 0x247 JUMP JUMPDEST SWAP1 DUP3 MLOAD SWAP3 PUSH3 0x6E DUP5 PUSH3 0x22B JUMP JUMPDEST PUSH1 0xD DUP5 MSTORE PUSH1 0x5 DUP7 DUP6 ADD PUSH13 0x47424D61726B6574706C616365 PUSH1 0x98 SHL DUP2 MSTORE DUP8 DUP4 MLOAD PUSH3 0x98 DUP2 PUSH3 0x22B JUMP JUMPDEST DUP4 DUP2 MSTORE ADD SWAP6 PUSH5 0x312E302E3 PUSH1 0xDC SHL DUP8 MSTORE MLOAD SWAP1 KECCAK256 SWAP5 KECCAK256 SWAP6 DUP5 PUSH1 0xE0 MSTORE PUSH2 0x100 SWAP7 DUP1 DUP9 MSTORE CHAINID PUSH1 0xA0 MSTORE DUP3 MLOAD DUP3 DUP2 ADD SWAP2 PUSH32 0x8B73C3C69BB8FE3D512ECC4CF759CC79239F7B179B0FFACAA9A75D522B39400F SWAP8 DUP9 DUP5 MSTORE DUP6 DUP4 ADD MSTORE PUSH1 0x60 DUP3 ADD MSTORE CHAINID PUSH1 0x80 DUP3 ADD MSTORE ADDRESS PUSH1 0xA0 DUP3 ADD MSTORE PUSH1 0xA0 DUP2 MSTORE PUSH1 0xC0 DUP2 ADD SWAP8 DUP2 DUP10 LT SWAP1 DUP10 GT OR PUSH3 0x210 JUMPI DUP8 DUP5 MSTORE MLOAD SWAP1 KECCAK256 PUSH1 0x80 MSTORE ADDRESS PUSH1 0xC0 MSTORE PUSH2 0x120 SWAP5 DUP6 MSTORE PUSH1 0x1 DUP1 SSTORE PUSH1 0x2 DUP1 SLOAD PUSH1 0xFF NOT SWAP1 DUP2 AND SWAP1 SWAP2 SSTORE PUSH1 0x7 DUP1 SLOAD PUSH1 0x1 PUSH1 0x1 PUSH1 0x60 SHL SUB NOT AND PUSH1 0x64 OR SWAP1 SSTORE PUSH2 0x271 PUSH1 0xA3 SHL PUSH1 0x1 PUSH1 0x1 PUSH1 0xA0 SHL SUB SWAP6 DUP7 AND OR PUSH1 0x6 SSTORE PUSH1 0x0 DUP1 DUP1 MSTORE DUP1 DUP4 MSTORE DUP4 DUP2 KECCAK256 SWAP5 SWAP1 SWAP6 AND DUP1 DUP7 MSTORE SWAP4 DUP3 MSTORE DUP3 DUP6 KECCAK256 SLOAD SWAP1 SWAP3 SWAP1 PUSH1 0xFF AND ISZERO PUSH3 0x1C5 JUMPI JUMPDEST PUSH2 0x2B41 DUP8 DUP8 DUP11 DUP4 PUSH3 0x25D DUP5 CODECOPY PUSH1 0x80 MLOAD DUP4 PUSH2 0x2721 ADD MSTORE PUSH1 0xA0 MLOAD DUP4 PUSH2 0x27EC ADD MSTORE PUSH1 0xC0 MLOAD DUP4 PUSH2 0x26EB ADD MSTORE PUSH1 0xE0 MLOAD DUP4 PUSH2 0x2770 ADD MSTORE MLOAD DUP3 PUSH2 0x2796 ADD MSTORE MLOAD DUP2 PUSH2 0x274D ADD MSTORE RETURN JUMPDEST PUSH1 0x1 SWAP2 DUP6 DUP1 MSTORE DUP6 DUP2 MSTORE DUP2 DUP7 KECCAK256 SWAP1 DUP6 DUP8 MSTORE MSTORE DUP5 KECCAK256 SWAP2 DUP3 SLOAD AND OR SWAP1 SSTORE CALLER SWAP2 PUSH32 0x2F8788117E7EFF1D82E926EC794901D17C78024A50270940304540A733656F0D DUP2 DUP1 LOG4 CODESIZE DUP1 DUP1 DUP1 DUP1 PUSH3 0x184 JUMP JUMPDEST PUSH4 0x4E487B71 PUSH1 0xE0 SHL PUSH1 0x0 MSTORE PUSH1 0x41 PUSH1 0x4 MSTORE PUSH1 0x24 PUSH1 0x0 REVERT JUMPDEST PUSH1 0x0 DUP1 REVERT JUMPDEST PUSH1 0x40 DUP2 ADD SWAP1 DUP2 LT PUSH1 0x1 PUSH1 0x1 PUSH1 0x40 SHL SUB DUP3 GT OR PUSH3 0x210 JUMPI PUSH1 0x40 MSTORE JUMP JUMPDEST MLOAD SWAP1 PUSH1 0x1 PUSH1 0x1 PUSH1 0xA0 SHL SUB DUP3 AND DUP3 SUB PUSH3 0x226 JUMPI JUMP INVALID PUSH1 0x80 DUP1 PUSH1 0x40 MSTORE PUSH1 0x4 CALLDATASIZE LT ISZERO PUSH2 0x13 JUMPI PUSH1 0x0 DUP1 REVERT JUMPDEST PUSH1 0x0 CALLDATALOAD PUSH1 0xE0 SHR SWAP1 DUP2 PUSH4 0x1FFC9A7 EQ PUSH2 0x1B7E JUMPI POP DUP1 PUSH4 0x2D94CA8 EQ PUSH2 0xEC1 JUMPI DUP1 PUSH4 0xFCD7F8F EQ PUSH2 0xAAB JUMPI DUP1 PUSH4 0x248A9CA3 EQ PUSH2 0xA7C JUMPI DUP1 PUSH4 0x27DF5389 EQ PUSH2 0xA3D JUMPI DUP1 PUSH4 0x2F2FF15D EQ PUSH2 0x98A JUMPI DUP1 PUSH4 0x35082933 EQ PUSH2 0x8BF JUMPI DUP1 PUSH4 0x35DAF728 EQ PUSH2 0x7B5 JUMPI DUP1 PUSH4 0x36568ABE EQ PUSH2 0x723 JUMPI DUP1 PUSH4 0x3F4BA83A EQ PUSH2 0x68F JUMPI DUP1 PUSH4 0x5889BF5E EQ PUSH2 0x65E JUMPI DUP1 PUSH4 0x5C975ABB EQ PUSH2 0x63B JUMPI DUP1 PUSH4 0x68B35A13 EQ PUSH2 0x60A JUMPI DUP1 PUSH4 0x8456CB59 EQ PUSH2 0x5B0 JUMPI DUP1 PUSH4 0x91D14854 EQ PUSH2 0x563 JUMPI DUP1 PUSH4 0x92CACF41 EQ PUSH2 0x542 JUMPI DUP1 PUSH4 0x9AEFA503 EQ PUSH2 0x274 JUMPI DUP1 PUSH4 0xA217FDDF EQ PUSH2 0x258 JUMPI DUP1 PUSH4 0xC0DD3695 EQ PUSH2 0x173 JUMPI DUP1 PUSH4 0xD547741F EQ PUSH2 0x132 JUMPI PUSH4 0xDF128E9E EQ PUSH2 0x106 JUMPI PUSH1 0x0 DUP1 REVERT JUMPDEST CALLVALUE PUSH2 0x12D JUMPI PUSH1 0x0 CALLDATASIZE PUSH1 0x3 NOT ADD SLT PUSH2 0x12D JUMPI PUSH1 0x20 PUSH1 0x1 PUSH1 0x1 PUSH1 0x60 SHL SUB PUSH1 0x7 SLOAD AND PUSH1 0x40 MLOAD SWAP1 DUP2 MSTORE RETURN JUMPDEST PUSH1 0x0 DUP1 REVERT JUMPDEST CALLVALUE PUSH2 0x12D JUMPI PUSH1 0x40 CALLDATASIZE PUSH1 0x3 NOT ADD SLT PUSH2 0x12D JUMPI PUSH2 0x171 PUSH1 0x4 CALLDATALOAD PUSH2 0x151 PUSH2 0x1C17 JUMP JUMPDEST SWAP1 DUP1 PUSH1 0x0 MSTORE PUSH1 0x0 PUSH1 0x20 MSTORE PUSH2 0x16C PUSH1 0x1 PUSH1 0x40 PUSH1 0x0 KECCAK256 ADD SLOAD PUSH2 0x1F44 JUMP JUMPDEST PUSH2 0x2096 JUMP JUMPDEST STOP JUMPDEST CALLVALUE PUSH2 0x12D JUMPI PUSH1 0x40 CALLDATASIZE PUSH1 0x3 NOT ADD SLT PUSH2 0x12D JUMPI PUSH2 0x18C PUSH2 0x1C01 JUMP JUMPDEST PUSH1 0x24 CALLDATALOAD SWAP1 DUP2 ISZERO ISZERO DUP1 SWAP3 SUB PUSH2 0x12D JUMPI PUSH2 0x1A2 PUSH2 0x1D4A JUMP JUMPDEST PUSH1 0x1 PUSH1 0x1 PUSH1 0xA0 SHL SUB AND SWAP1 DUP2 ISZERO PUSH2 0x1FE JUMPI DUP2 PUSH1 0x40 SWAP2 PUSH32 0x37940B2348BCE0015E28074F3A1D2DDC211AD7DFA13F0AEF19072B22034EBC97 SWAP4 PUSH1 0x0 MSTORE PUSH1 0x3 PUSH1 0x20 MSTORE DUP3 PUSH1 0x0 KECCAK256 PUSH1 0xFF NOT DUP2 SLOAD AND PUSH1 0xFF DUP4 AND OR SWAP1 SSTORE DUP3 MLOAD SWAP2 DUP3 MSTORE PUSH1 0x20 DUP3 ADD MSTORE LOG1 STOP JUMPDEST PUSH1 0x40 MLOAD PUSH3 0x461BCD PUSH1 0xE5 SHL DUP2 MSTORE PUSH1 0x20 PUSH1 0x4 DUP3 ADD MSTORE PUSH1 0x2C PUSH1 0x24 DUP3 ADD MSTORE PUSH32 0x4E6674436F6E74726163742061646472657373206D757374206E6F7420626520 PUSH1 0x44 DUP3 ADD MSTORE PUSH12 0x7A65726F2061646472657373 PUSH1 0xA0 SHL PUSH1 0x64 DUP3 ADD MSTORE PUSH1 0x84 SWAP1 REVERT JUMPDEST CALLVALUE PUSH2 0x12D JUMPI PUSH1 0x0 CALLDATASIZE PUSH1 0x3 NOT ADD SLT PUSH2 0x12D JUMPI PUSH1 0x20 PUSH1 0x40 MLOAD PUSH1 0x0 DUP2 MSTORE RETURN JUMPDEST CALLVALUE PUSH2 0x12D JUMPI PUSH1 0x20 DUP1 PUSH1 0x3 NOT CALLDATASIZE ADD SLT PUSH2 0x12D JUMPI PUSH1 0x4 CALLDATALOAD PUSH1 0x1 PUSH1 0x1 PUSH1 0x40 SHL SUB DUP2 GT PUSH2 0x12D JUMPI PUSH2 0x2A5 SWAP1 CALLDATASIZE SWAP1 PUSH1 0x4 ADD PUSH2 0x1BD1 JUMP JUMPDEST SWAP2 PUSH2 0x2AE PUSH2 0x24EF JUMP JUMPDEST PUSH2 0x2B7 DUP4 PUSH2 0x2253 JUMP JUMPDEST SWAP3 PUSH2 0x2C1 DUP2 PUSH2 0x2285 JUMP JUMPDEST SWAP3 PUSH2 0x2CB DUP3 PUSH2 0x2253 JUMP JUMPDEST SWAP3 PUSH1 0x0 JUMPDEST DUP4 DUP2 LT PUSH2 0x30D JUMPI PUSH1 0x40 MLOAD PUSH32 0x15F99F1CF783EC6699F2FF7916A0502D78D1CF20B8C9422AE62C33C66DCE90D1 SWAP1 DUP1 PUSH2 0x308 DUP9 DUP11 DUP13 DUP5 PUSH2 0x241D JUMP JUMPDEST SUB SWAP1 LOG1 STOP JUMPDEST PUSH1 0x5 SWAP1 DUP1 DUP3 SHL DUP5 ADD CALLDATALOAD PUSH2 0x1BE NOT DUP6 CALLDATASIZE SUB ADD DUP2 SLT ISZERO PUSH2 0x12D JUMPI DUP5 ADD SWAP2 PUSH1 0x40 DUP4 ADD CALLDATALOAD SWAP3 PUSH1 0x1 DUP1 PUSH1 0xA0 SHL SUB DUP5 AND DUP1 SWAP5 SUB PUSH2 0x12D JUMPI PUSH1 0x1 SWAP4 CALLER EQ PUSH2 0x3AB JUMPI POP POP PUSH1 0x40 MLOAD PUSH2 0x355 DUP2 PUSH2 0x1C6F JUMP JUMPDEST PUSH1 0x27 DUP2 MSTORE PUSH32 0x47424D61726B6574706C6163653A20496E76616C6964206F726465722063616E DUP5 DUP3 ADD MSTORE PUSH7 0x31B2B63632B917 PUSH1 0xC9 SHL PUSH1 0x40 DUP3 ADD MSTORE PUSH2 0x398 DUP3 DUP10 PUSH2 0x23D0 JUMP JUMPDEST MSTORE PUSH2 0x3A3 DUP2 DUP9 PUSH2 0x23D0 JUMP JUMPDEST POP JUMPDEST ADD PUSH2 0x2CF JUMP JUMPDEST PUSH2 0x3B9 PUSH2 0x3BE SWAP2 CALLDATASIZE SWAP1 PUSH2 0x22CF JUMP JUMPDEST PUSH2 0x29F3 JUMP JUMPDEST PUSH2 0x3C8 DUP4 DUP10 PUSH2 0x23D0 JUMP JUMPDEST MSTORE PUSH2 0x3D3 DUP3 DUP9 PUSH2 0x23D0 JUMP JUMPDEST MLOAD PUSH1 0x0 MSTORE PUSH1 0x4 DUP5 MSTORE PUSH1 0xFF SWAP1 DUP2 PUSH1 0x40 PUSH1 0x0 KECCAK256 SLOAD AND PUSH1 0x0 EQ PUSH2 0x453 JUMPI POP POP PUSH1 0x40 MLOAD PUSH2 0x3FB DUP2 PUSH2 0x1C6F JUMP JUMPDEST PUSH1 0x2B DUP2 MSTORE PUSH32 0x47424D61726B6574706C6163653A204F726465722077617320616C7265616479 DUP5 DUP3 ADD MSTORE PUSH11 0x1031B0B731B2B63632B217 PUSH1 0xA9 SHL PUSH1 0x40 DUP3 ADD MSTORE PUSH2 0x442 DUP3 DUP10 PUSH2 0x23D0 JUMP JUMPDEST MSTORE PUSH2 0x44D DUP2 DUP9 PUSH2 0x23D0 JUMP JUMPDEST POP PUSH2 0x3A5 JUMP JUMPDEST PUSH2 0x45D DUP4 DUP10 PUSH2 0x23D0 JUMP JUMPDEST MLOAD PUSH1 0x0 MSTORE DUP5 MSTORE PUSH1 0x40 PUSH1 0x0 KECCAK256 SLOAD AND PUSH1 0x0 EQ PUSH2 0x4C4 JUMPI PUSH1 0x40 MLOAD PUSH2 0x47D DUP2 PUSH2 0x1C6F JUMP JUMPDEST PUSH1 0x2B DUP2 MSTORE PUSH32 0x47424D61726B6574706C6163653A204F726465722077617320616C7265616479 DUP5 DUP3 ADD MSTORE PUSH11 0x10383937B1B2B9B9B2B217 PUSH1 0xA9 SHL PUSH1 0x40 DUP3 ADD MSTORE PUSH2 0x442 DUP3 DUP10 PUSH2 0x23D0 JUMP JUMPDEST DUP2 DUP1 PUSH2 0x4D0 DUP4 DUP12 PUSH2 0x23D0 JUMP JUMPDEST MSTORE PUSH1 0x40 MLOAD PUSH2 0x4DD DUP2 PUSH2 0x1C54 JUMP JUMPDEST PUSH1 0x1F DUP2 MSTORE PUSH32 0x47424D61726B6574706C6163653A2043616E63656C6C6564206F726465722E00 DUP6 DUP3 ADD MSTORE PUSH2 0x510 DUP4 DUP11 PUSH2 0x23D0 JUMP JUMPDEST MSTORE PUSH2 0x51B DUP3 DUP10 PUSH2 0x23D0 JUMP JUMPDEST POP PUSH2 0x526 DUP3 DUP9 PUSH2 0x23D0 JUMP JUMPDEST MLOAD PUSH1 0x0 MSTORE PUSH1 0x4 DUP5 MSTORE PUSH1 0x40 PUSH1 0x0 KECCAK256 SWAP1 PUSH1 0xFF NOT DUP3 SLOAD AND OR SWAP1 SSTORE PUSH2 0x3A5 JUMP JUMPDEST CALLVALUE PUSH2 0x12D JUMPI PUSH1 0x0 CALLDATASIZE PUSH1 0x3 NOT ADD SLT PUSH2 0x12D JUMPI PUSH1 0x20 PUSH1 0x6 SLOAD PUSH1 0xA0 SHR PUSH1 0x40 MLOAD SWAP1 DUP2 MSTORE RETURN JUMPDEST CALLVALUE PUSH2 0x12D JUMPI PUSH1 0x40 CALLDATASIZE PUSH1 0x3 NOT ADD SLT PUSH2 0x12D JUMPI PUSH2 0x57C PUSH2 0x1C17 JUMP JUMPDEST PUSH1 0x4 CALLDATALOAD PUSH1 0x0 MSTORE PUSH1 0x0 PUSH1 0x20 MSTORE PUSH1 0x40 PUSH1 0x0 KECCAK256 SWAP1 PUSH1 0x1 DUP1 PUSH1 0xA0 SHL SUB AND PUSH1 0x0 MSTORE PUSH1 0x20 MSTORE PUSH1 0x20 PUSH1 0xFF PUSH1 0x40 PUSH1 0x0 KECCAK256 SLOAD AND PUSH1 0x40 MLOAD SWAP1 ISZERO ISZERO DUP2 MSTORE RETURN JUMPDEST CALLVALUE PUSH2 0x12D JUMPI PUSH1 0x0 CALLDATASIZE PUSH1 0x3 NOT ADD SLT PUSH2 0x12D JUMPI PUSH2 0x5C9 PUSH2 0x1D4A JUMP JUMPDEST PUSH2 0x5D1 PUSH2 0x24EF JUMP JUMPDEST PUSH1 0x1 PUSH1 0xFF NOT PUSH1 0x2 SLOAD AND OR PUSH1 0x2 SSTORE PUSH32 0x62E78CEA01BEE320CD4E420270B5EA74000D11B0C9F74754EBDBFC544B05A258 PUSH1 0x20 PUSH1 0x40 MLOAD CALLER DUP2 MSTORE LOG1 STOP JUMPDEST CALLVALUE PUSH2 0x12D JUMPI PUSH1 0x20 CALLDATASIZE PUSH1 0x3 NOT ADD SLT PUSH2 0x12D JUMPI PUSH1 0x4 CALLDATALOAD PUSH1 0x0 MSTORE PUSH1 0x5 PUSH1 0x20 MSTORE PUSH1 0x20 PUSH1 0xFF PUSH1 0x40 PUSH1 0x0 KECCAK256 SLOAD AND PUSH1 0x40 MLOAD SWAP1 ISZERO ISZERO DUP2 MSTORE RETURN JUMPDEST CALLVALUE PUSH2 0x12D JUMPI PUSH1 0x0 CALLDATASIZE PUSH1 0x3 NOT ADD SLT PUSH2 0x12D JUMPI PUSH1 0x20 PUSH1 0xFF PUSH1 0x2 SLOAD AND PUSH1 0x40 MLOAD SWAP1 ISZERO ISZERO DUP2 MSTORE RETURN JUMPDEST CALLVALUE PUSH2 0x12D JUMPI PUSH1 0x20 CALLDATASIZE PUSH1 0x3 NOT ADD SLT PUSH2 0x12D JUMPI PUSH1 0x4 CALLDATALOAD PUSH1 0x0 MSTORE PUSH1 0x4 PUSH1 0x20 MSTORE PUSH1 0x20 PUSH1 0xFF PUSH1 0x40 PUSH1 0x0 KECCAK256 SLOAD AND PUSH1 0x40 MLOAD SWAP1 ISZERO ISZERO DUP2 MSTORE RETURN JUMPDEST CALLVALUE PUSH2 0x12D JUMPI PUSH1 0x0 CALLDATASIZE PUSH1 0x3 NOT ADD SLT PUSH2 0x12D JUMPI PUSH2 0x6A8 PUSH2 0x1D4A JUMP JUMPDEST PUSH1 0x2 SLOAD PUSH1 0xFF DUP2 AND ISZERO PUSH2 0x6E7 JUMPI PUSH1 0xFF NOT AND PUSH1 0x2 SSTORE PUSH32 0x5DB9EE0A495BF2E6FF9C91A7834C1BA4FDD244A5E8AA4E537BD38AEAE4B073AA PUSH1 0x20 PUSH1 0x40 MLOAD CALLER DUP2 MSTORE LOG1 STOP JUMPDEST PUSH1 0x40 MLOAD PUSH3 0x461BCD PUSH1 0xE5 SHL DUP2 MSTORE PUSH1 0x20 PUSH1 0x4 DUP3 ADD MSTORE PUSH1 0x14 PUSH1 0x24 DUP3 ADD MSTORE PUSH20 0x14185D5CD8589B194E881B9BDD081C185D5CD959 PUSH1 0x62 SHL PUSH1 0x44 DUP3 ADD MSTORE PUSH1 0x64 SWAP1 REVERT JUMPDEST CALLVALUE PUSH2 0x12D JUMPI PUSH1 0x40 CALLDATASIZE PUSH1 0x3 NOT ADD SLT PUSH2 0x12D JUMPI PUSH2 0x73C PUSH2 0x1C17 JUMP JUMPDEST CALLER PUSH1 0x1 PUSH1 0x1 PUSH1 0xA0 SHL SUB DUP3 AND SUB PUSH2 0x758 JUMPI PUSH2 0x171 SWAP1 PUSH1 0x4 CALLDATALOAD PUSH2 0x2096 JUMP JUMPDEST PUSH1 0x40 MLOAD PUSH3 0x461BCD PUSH1 0xE5 SHL DUP2 MSTORE PUSH1 0x20 PUSH1 0x4 DUP3 ADD MSTORE PUSH1 0x2F PUSH1 0x24 DUP3 ADD MSTORE PUSH32 0x416363657373436F6E74726F6C3A2063616E206F6E6C792072656E6F756E6365 PUSH1 0x44 DUP3 ADD MSTORE PUSH15 0x103937B632B9903337B91039B2B633 PUSH1 0x89 SHL PUSH1 0x64 DUP3 ADD MSTORE PUSH1 0x84 SWAP1 REVERT JUMPDEST CALLVALUE PUSH2 0x12D JUMPI PUSH1 0x40 CALLDATASIZE PUSH1 0x3 NOT ADD SLT PUSH2 0x12D JUMPI PUSH1 0x4 CALLDATALOAD PUSH1 0x1 PUSH1 0x1 PUSH1 0x60 SHL SUB DUP2 AND SWAP1 DUP2 DUP2 SUB PUSH2 0x12D JUMPI PUSH1 0x24 CALLDATALOAD SWAP2 PUSH1 0xFF DUP4 AND DUP1 SWAP4 SUB PUSH2 0x12D JUMPI PUSH2 0x7F2 PUSH2 0x1D4A JUMP JUMPDEST PUSH2 0x2710 DUP2 LT ISZERO PUSH2 0x86F JUMPI PUSH32 0x75822B40F249C484AAEEF9E7B5723E5ABAF2A9573937A605FEC2E69B7CD1E7EB SWAP3 PUSH1 0x40 SWAP3 DUP2 PUSH2 0x857 JUMPI PUSH1 0x6 DUP1 SLOAD PUSH1 0x1 PUSH1 0x1 PUSH1 0xA0 SHL SUB AND PUSH1 0xA0 SWAP3 SWAP1 SWAP3 SHL PUSH1 0x1 PUSH1 0x1 PUSH1 0xA0 SHL SUB NOT AND SWAP2 SWAP1 SWAP2 OR SWAP1 SSTORE JUMPDEST DUP3 MLOAD SWAP2 DUP3 MSTORE PUSH1 0x20 DUP3 ADD MSTORE LOG1 STOP JUMPDEST POP DUP2 PUSH1 0x1 PUSH1 0x1 PUSH1 0x60 SHL SUB NOT PUSH1 0x7 SLOAD AND OR PUSH1 0x7 SSTORE PUSH2 0x84A JUMP JUMPDEST PUSH1 0x40 MLOAD PUSH3 0x461BCD PUSH1 0xE5 SHL DUP2 MSTORE PUSH1 0x20 PUSH1 0x4 DUP3 ADD MSTORE PUSH1 0x22 PUSH1 0x24 DUP3 ADD MSTORE PUSH32 0x706C6174666F726D466565206D757374206265206C657373207468616E203130 PUSH1 0x44 DUP3 ADD MSTORE PUSH2 0x3025 PUSH1 0xF0 SHL PUSH1 0x64 DUP3 ADD MSTORE PUSH1 0x84 SWAP1 REVERT JUMPDEST CALLVALUE PUSH2 0x12D JUMPI PUSH1 0x20 CALLDATASIZE PUSH1 0x3 NOT ADD SLT PUSH2 0x12D JUMPI PUSH2 0x8D8 PUSH2 0x1C01 JUMP JUMPDEST PUSH2 0x8E0 PUSH2 0x1D4A JUMP JUMPDEST PUSH1 0x1 PUSH1 0x1 PUSH1 0xA0 SHL SUB AND DUP1 ISZERO PUSH2 0x930 JUMPI PUSH1 0x20 DUP2 PUSH32 0x1B651CFD0A3F185590087E7E632381434DFADA46F037B9081264F9F5BDBFCD9B SWAP3 PUSH1 0x1 PUSH1 0x1 PUSH1 0x60 SHL SUB PUSH1 0xA0 SHL PUSH1 0x6 SLOAD AND OR PUSH1 0x6 SSTORE PUSH1 0x40 MLOAD SWAP1 DUP2 MSTORE LOG1 STOP JUMPDEST PUSH1 0x40 MLOAD PUSH3 0x461BCD PUSH1 0xE5 SHL DUP2 MSTORE PUSH1 0x20 PUSH1 0x4 DUP3 ADD MSTORE PUSH1 0x2C PUSH1 0x24 DUP3 ADD MSTORE PUSH32 0x61646D696E57616C6C65742061646472657373206D757374206E6F7420626520 PUSH1 0x44 DUP3 ADD MSTORE PUSH12 0x7A65726F2061646472657373 PUSH1 0xA0 SHL PUSH1 0x64 DUP3 ADD MSTORE PUSH1 0x84 SWAP1 REVERT JUMPDEST CALLVALUE PUSH2 0x12D JUMPI PUSH1 0x40 CALLDATASIZE PUSH1 0x3 NOT ADD SLT PUSH2 0x12D JUMPI PUSH1 0x4 CALLDATALOAD PUSH2 0x9A6 PUSH2 0x1C17 JUMP JUMPDEST DUP2 PUSH1 0x0 MSTORE PUSH1 0x0 PUSH1 0x20 MSTORE PUSH2 0x9C0 PUSH1 0x1 PUSH1 0x40 PUSH1 0x0 KECCAK256 ADD SLOAD PUSH2 0x1F44 JUMP JUMPDEST DUP2 PUSH1 0x0 MSTORE PUSH1 0x0 PUSH1 0x20 MSTORE PUSH1 0x40 PUSH1 0x0 KECCAK256 SWAP1 PUSH1 0x1 DUP1 PUSH1 0xA0 SHL SUB AND SWAP1 DUP2 PUSH1 0x0 MSTORE PUSH1 0x20 MSTORE PUSH1 0xFF PUSH1 0x40 PUSH1 0x0 KECCAK256 SLOAD AND ISZERO PUSH2 0x9EF JUMPI STOP JUMPDEST DUP2 PUSH1 0x0 MSTORE PUSH1 0x0 PUSH1 0x20 MSTORE PUSH1 0x40 PUSH1 0x0 KECCAK256 DUP2 PUSH1 0x0 MSTORE PUSH1 0x20 MSTORE PUSH1 0x40 PUSH1 0x0 KECCAK256 PUSH1 0x1 PUSH1 0xFF NOT DUP3 SLOAD AND OR SWAP1 SSTORE CALLER SWAP2 PUSH32 0x2F8788117E7EFF1D82E926EC794901D17C78024A50270940304540A733656F0D PUSH1 0x0 DUP1 LOG4 STOP JUMPDEST CALLVALUE PUSH2 0x12D JUMPI PUSH1 0x20 CALLDATASIZE PUSH1 0x3 NOT ADD SLT PUSH2 0x12D JUMPI PUSH1 0x1 PUSH1 0x1 PUSH1 0xA0 SHL SUB PUSH2 0xA5E PUSH2 0x1C01 JUMP JUMPDEST AND PUSH1 0x0 MSTORE PUSH1 0x3 PUSH1 0x20 MSTORE PUSH1 0x20 PUSH1 0xFF PUSH1 0x40 PUSH1 0x0 KECCAK256 SLOAD AND PUSH1 0x40 MLOAD SWAP1 ISZERO ISZERO DUP2 MSTORE RETURN JUMPDEST CALLVALUE PUSH2 0x12D JUMPI PUSH1 0x20 CALLDATASIZE PUSH1 0x3 NOT ADD SLT PUSH2 0x12D JUMPI PUSH1 0x4 CALLDATALOAD PUSH1 0x0 MSTORE PUSH1 0x0 PUSH1 0x20 MSTORE PUSH1 0x20 PUSH1 0x1 PUSH1 0x40 PUSH1 0x0 KECCAK256 ADD SLOAD PUSH1 0x40 MLOAD SWAP1 DUP2 MSTORE RETURN JUMPDEST CALLVALUE PUSH2 0x12D JUMPI PUSH1 0x60 CALLDATASIZE PUSH1 0x3 NOT ADD SLT PUSH2 0x12D JUMPI PUSH2 0xAC4 PUSH2 0x1C01 JUMP JUMPDEST PUSH1 0x44 SWAP1 PUSH1 0x24 DUP1 CALLDATALOAD DUP4 CALLDATALOAD PUSH1 0x1 PUSH1 0x1 PUSH1 0x40 SHL SUB DUP2 GT PUSH2 0x12D JUMPI PUSH2 0xAE9 SWAP1 CALLDATASIZE SWAP1 PUSH1 0x4 ADD PUSH2 0x1D18 JUMP JUMPDEST PUSH2 0xAF1 PUSH2 0x2533 JUMP JUMPDEST PUSH2 0xAF9 PUSH2 0x24EF JUMP JUMPDEST PUSH1 0x40 MLOAD PUSH4 0x1FFC9A7 PUSH1 0xE0 SHL DUP1 DUP3 MSTORE PUSH4 0x80AC58CD PUSH1 0xE0 SHL PUSH1 0x4 DUP4 ADD MSTORE PUSH1 0x20 SWAP6 PUSH1 0x1 PUSH1 0x1 PUSH1 0xA0 SHL SUB SWAP1 DUP2 AND SWAP6 SWAP3 SWAP1 SWAP2 DUP8 DUP3 DUP6 DUP2 DUP11 GAS STATICCALL SWAP2 DUP3 ISZERO PUSH2 0xC45 JUMPI PUSH1 0x0 SWAP3 PUSH2 0xEA2 JUMPI JUMPDEST POP DUP2 ISZERO PUSH2 0xE43 JUMPI JUMPDEST POP ISZERO PUSH2 0xDE5 JUMPI DUP5 ISZERO PUSH2 0xD7C JUMPI DUP4 ISZERO PUSH2 0xD20 JUMPI DUP5 PUSH1 0x0 MSTORE PUSH1 0x3 DUP7 MSTORE PUSH1 0xFF PUSH1 0x40 PUSH1 0x0 KECCAK256 SLOAD AND ISZERO PUSH2 0xCCA JUMPI PUSH1 0x40 MLOAD PUSH4 0x31A9108F PUSH1 0xE1 SHL DUP2 MSTORE PUSH1 0x4 DUP2 ADD DUP6 SWAP1 MSTORE SWAP1 DUP7 DUP3 DUP5 DUP2 DUP10 GAS STATICCALL SWAP2 DUP3 ISZERO PUSH2 0xC45 JUMPI PUSH1 0x0 SWAP3 PUSH2 0xC93 JUMPI JUMPDEST POP CALLER SWAP2 AND SUB PUSH2 0xC51 JUMPI DUP4 EXTCODESIZE ISZERO PUSH2 0x12D JUMPI PUSH1 0x40 PUSH1 0x0 SWAP2 PUSH2 0xBD1 DUP3 MLOAD SWAP9 DUP10 SWAP4 DUP5 SWAP4 PUSH4 0x5882531 PUSH1 0xE2 SHL DUP6 MSTORE DUP9 PUSH1 0x4 DUP7 ADD MSTORE DUP5 ADD MSTORE DUP3 ADD DUP6 PUSH2 0x2071 JUMP JUMPDEST SUB DUP2 DUP4 DUP8 GAS CALL SWAP2 DUP3 ISZERO PUSH2 0xC45 JUMPI PUSH32 0x2A594F4FDCFB43B211E3FE501443DA843ED0DAA6E9CC58965E68AFB67938F5F2 SWAP6 PUSH2 0xC2D SWAP4 PUSH2 0xC36 JUMPI JUMPDEST POP PUSH1 0x40 MLOAD SWAP5 DUP6 SWAP5 DUP6 MSTORE CALLER SWAP1 DUP6 ADD MSTORE PUSH1 0x40 DUP5 ADD MSTORE PUSH1 0x80 PUSH1 0x60 DUP5 ADD MSTORE PUSH1 0x80 DUP4 ADD SWAP1 PUSH2 0x2071 JUMP JUMPDEST SUB SWAP1 LOG1 PUSH1 0x1 DUP1 SSTORE STOP JUMPDEST PUSH2 0xC3F SWAP1 PUSH2 0x1C41 JUMP JUMPDEST DUP7 PUSH2 0xC09 JUMP JUMPDEST PUSH1 0x40 MLOAD RETURNDATASIZE PUSH1 0x0 DUP3 RETURNDATACOPY RETURNDATASIZE SWAP1 REVERT JUMPDEST DUP5 PUSH32 0x47424D61726B6574706C6163653A206973206E6F74206E6674206F776E657200 DUP8 PUSH1 0x1F PUSH1 0x64 SWAP5 PUSH1 0x40 MLOAD SWAP5 PUSH3 0x461BCD PUSH1 0xE5 SHL DUP7 MSTORE PUSH1 0x4 DUP7 ADD MSTORE DUP5 ADD MSTORE DUP3 ADD MSTORE REVERT JUMPDEST SWAP1 SWAP2 POP DUP7 DUP2 DUP2 RETURNDATASIZE DUP4 GT PUSH2 0xCC3 JUMPI JUMPDEST PUSH2 0xCAB DUP2 DUP4 PUSH2 0x1CA5 JUMP JUMPDEST DUP2 ADD SUB SLT PUSH2 0x12D JUMPI PUSH2 0xCBC SWAP1 PUSH2 0x2409 JUMP JUMPDEST SWAP1 DUP9 PUSH2 0xB97 JUMP JUMPDEST POP RETURNDATASIZE PUSH2 0xCA1 JUMP JUMPDEST PUSH1 0x40 MLOAD PUSH3 0x461BCD PUSH1 0xE5 SHL DUP2 MSTORE PUSH1 0x4 DUP2 ADD DUP8 SWAP1 MSTORE PUSH1 0x2A DUP2 DUP5 ADD MSTORE PUSH32 0x47424D61726B6574706C6163653A20496E76616C6964206E6674436F6E747261 DUP2 DUP10 ADD MSTORE PUSH10 0x63742061646472657373 PUSH1 0xB0 SHL PUSH1 0x64 DUP3 ADD MSTORE PUSH1 0x84 SWAP1 REVERT JUMPDEST PUSH1 0x40 MLOAD PUSH3 0x461BCD PUSH1 0xE5 SHL DUP2 MSTORE PUSH1 0x4 DUP2 ADD DUP8 SWAP1 MSTORE PUSH1 0x30 DUP2 DUP5 ADD MSTORE PUSH32 0x47424D61726B6574706C6163653A20746F6B656E4964206D7573742062652067 DUP2 DUP10 ADD MSTORE PUSH16 0x726561746572207468616E207A65726F PUSH1 0x80 SHL PUSH1 0x64 DUP3 ADD MSTORE PUSH1 0x84 SWAP1 REVERT JUMPDEST PUSH1 0x40 MLOAD PUSH3 0x461BCD PUSH1 0xE5 SHL DUP2 MSTORE PUSH1 0x4 DUP2 ADD DUP8 SWAP1 MSTORE PUSH1 0x3B DUP2 DUP5 ADD MSTORE PUSH32 0x47424D61726B6574706C6163653A206E6674436F6E7472616374206164647265 DUP2 DUP10 ADD MSTORE PUSH32 0x7373206D757374206E6F74206265207A65726F20616464726573730000000000 PUSH1 0x64 DUP3 ADD MSTORE PUSH1 0x84 SWAP1 REVERT JUMPDEST PUSH1 0x40 MLOAD PUSH3 0x461BCD PUSH1 0xE5 SHL DUP2 MSTORE PUSH1 0x4 DUP2 ADD DUP8 SWAP1 MSTORE PUSH1 0x32 DUP2 DUP5 ADD MSTORE PUSH32 0x47424D61726B6574706C6163653A2054686973206973206E6F74204552433732 DUP2 DUP10 ADD MSTORE PUSH18 0xC4BD15490CC4C4D4D4818DBDB9D1C9858DD PUSH1 0x72 SHL PUSH1 0x64 DUP3 ADD MSTORE PUSH1 0x84 SWAP1 REVERT JUMPDEST PUSH1 0x40 MLOAD SWAP1 DUP2 MSTORE PUSH4 0x6CDB3D13 PUSH1 0xE1 SHL PUSH1 0x4 DUP3 ADD MSTORE SWAP1 POP DUP7 DUP2 DUP5 DUP2 DUP10 GAS STATICCALL SWAP1 DUP2 ISZERO PUSH2 0xC45 JUMPI PUSH1 0x0 SWAP2 PUSH2 0xE75 JUMPI JUMPDEST POP DUP9 PUSH2 0xB44 JUMP JUMPDEST PUSH2 0xE95 SWAP2 POP DUP8 RETURNDATASIZE DUP10 GT PUSH2 0xE9B JUMPI JUMPDEST PUSH2 0xE8D DUP2 DUP4 PUSH2 0x1CA5 JUMP JUMPDEST DUP2 ADD SWAP1 PUSH2 0x23F1 JUMP JUMPDEST DUP9 PUSH2 0xE6E JUMP JUMPDEST POP RETURNDATASIZE PUSH2 0xE83 JUMP JUMPDEST PUSH2 0xEBA SWAP2 SWAP3 POP DUP9 RETURNDATASIZE DUP11 GT PUSH2 0xE9B JUMPI PUSH2 0xE8D DUP2 DUP4 PUSH2 0x1CA5 JUMP JUMPDEST SWAP1 DUP10 PUSH2 0xB3C JUMP JUMPDEST PUSH1 0x20 CALLDATASIZE PUSH1 0x3 NOT ADD SLT PUSH2 0x12D JUMPI PUSH1 0x4 CALLDATALOAD PUSH1 0x1 PUSH1 0x1 PUSH1 0x40 SHL SUB DUP2 GT PUSH2 0x12D JUMPI PUSH2 0xEEC SWAP1 CALLDATASIZE SWAP1 PUSH1 0x4 ADD PUSH2 0x1BD1 JUMP JUMPDEST SWAP1 PUSH2 0xEF5 PUSH2 0x2533 JUMP JUMPDEST PUSH2 0xEFD PUSH2 0x24EF JUMP JUMPDEST CALLVALUE SWAP2 PUSH2 0xF08 DUP2 PUSH2 0x2253 JUMP JUMPDEST SWAP1 PUSH2 0xF12 DUP2 PUSH2 0x2285 JUMP JUMPDEST SWAP3 PUSH2 0xF1C DUP3 PUSH2 0x2253 JUMP JUMPDEST SWAP2 PUSH1 0x0 SWAP2 JUMPDEST DUP2 DUP4 LT PUSH2 0xF74 JUMPI POP POP POP PUSH2 0xC2D SWAP1 DUP5 PUSH32 0x2936EB2452E2F53567F08A410DFA6BC4E0E084810986E7CC62D29AF7CC13D74B SWAP6 PUSH2 0xF64 JUMPI JUMPDEST POP PUSH1 0x40 MLOAD SWAP4 DUP5 SWAP4 DUP5 PUSH2 0x241D JUMP JUMPDEST PUSH2 0xF6E SWAP1 CALLER PUSH2 0x2589 JUMP JUMPDEST DUP6 PUSH2 0xF57 JUMP JUMPDEST SWAP1 SWAP2 SWAP6 DUP7 PUSH1 0x5 SHL DUP3 ADD CALLDATALOAD PUSH1 0x5E NOT DUP4 CALLDATASIZE SUB ADD DUP2 SLT ISZERO PUSH2 0x12D JUMPI DUP3 ADD SWAP1 PUSH1 0x60 DUP3 CALLDATASIZE SUB SLT PUSH2 0x12D JUMPI PUSH1 0x40 MLOAD SWAP2 PUSH1 0x60 DUP4 ADD DUP4 DUP2 LT PUSH1 0x1 PUSH1 0x1 PUSH1 0x40 SHL SUB DUP3 GT OR PUSH2 0x1A52 JUMPI PUSH1 0x40 MSTORE DUP1 CALLDATALOAD PUSH1 0x1 PUSH1 0x1 PUSH1 0x40 SHL SUB DUP2 GT PUSH2 0x12D JUMPI PUSH2 0xFD3 SWAP1 CALLDATASIZE SWAP1 DUP4 ADD PUSH2 0x22CF JUMP JUMPDEST DUP4 MSTORE PUSH1 0x20 DUP2 ADD CALLDATALOAD PUSH1 0x20 DUP5 ADD MSTORE PUSH1 0x40 DUP2 ADD CALLDATALOAD PUSH1 0x1 PUSH1 0x1 PUSH1 0x40 SHL SUB DUP2 GT PUSH2 0x12D JUMPI CALLDATASIZE PUSH1 0x1F DUP3 DUP5 ADD ADD SLT ISZERO PUSH2 0x12D JUMPI PUSH2 0x1011 SWAP2 CALLDATASIZE SWAP2 ADD DUP1 CALLDATALOAD SWAP1 PUSH1 0x20 ADD PUSH2 0x1CE1 JUMP JUMPDEST PUSH1 0x40 DUP4 ADD DUP2 SWAP1 MSTORE DUP3 MLOAD PUSH1 0x20 SWAP1 SWAP4 ADD MLOAD DUP4 MLOAD SWAP1 SWAP3 SWAP2 PUSH1 0x0 SWAP2 DUP3 SWAP2 SWAP1 PUSH1 0x1 PUSH1 0x1 PUSH1 0xA0 SHL SUB AND DUP1 PUSH2 0x1465 JUMPI POP POP PUSH2 0x1043 PUSH2 0x2689 JUMP JUMPDEST SWAP1 JUMPDEST PUSH2 0x104F DUP13 DUP11 PUSH2 0x23D0 JUMP JUMPDEST MSTORE PUSH2 0x105A DUP12 DUP12 PUSH2 0x23D0 JUMP JUMPDEST MSTORE PUSH2 0x1065 DUP11 DUP10 PUSH2 0x23D0 JUMP JUMPDEST SWAP1 ISZERO ISZERO SWAP1 MSTORE PUSH2 0x1074 DUP10 DUP9 PUSH2 0x23D0 JUMP JUMPDEST MLOAD ISZERO PUSH2 0x1459 JUMPI PUSH1 0x0 PUSH2 0x2710 PUSH2 0x100 DUP6 ADD MLOAD PUSH1 0x1 PUSH1 0x1 PUSH1 0x60 SHL SUB PUSH2 0x140 DUP8 ADD MLOAD AND MUL DIV SWAP1 PUSH2 0x10A1 DUP5 DUP4 PUSH2 0x210A JUMP JUMPDEST PUSH1 0x1 PUSH1 0x1 PUSH1 0x60 SHL SUB PUSH1 0x7 SLOAD AND DUP1 PUSH2 0x1448 JUMPI JUMPDEST POP PUSH2 0x10D6 SWAP1 PUSH2 0x10D0 DUP4 PUSH1 0x1 DUP1 PUSH1 0xA0 SHL SUB PUSH2 0x120 DUP11 ADD MLOAD AND SWAP3 PUSH2 0x23E4 JUMP JUMPDEST SWAP1 PUSH2 0x2589 JUMP JUMPDEST DUP5 MLOAD PUSH1 0x1 PUSH1 0x1 PUSH1 0xA0 SHL SUB AND PUSH1 0x0 SWAP1 DUP2 MSTORE PUSH1 0x3 PUSH1 0x20 MSTORE PUSH1 0x40 DUP2 KECCAK256 SLOAD PUSH1 0xFF AND PUSH2 0x128A JUMPI JUMPDEST PUSH2 0x1125 SWAP3 PUSH2 0x100 DUP8 ADD MLOAD PUSH2 0x110C DUP4 DUP4 PUSH2 0x210A JUMP JUMPDEST LT PUSH2 0x123B JUMPI JUMPDEST POP POP PUSH1 0x6 SLOAD PUSH1 0x1 PUSH1 0x1 PUSH1 0xA0 SHL SUB AND PUSH2 0x2589 JUMP JUMPDEST DUP3 MLOAD PUSH1 0x40 MLOAD PUSH4 0x1FFC9A7 PUSH1 0xE0 SHL DUP2 MSTORE PUSH4 0x80AC58CD PUSH1 0xE0 SHL PUSH1 0x4 DUP3 ADD MSTORE SWAP1 PUSH1 0x20 SWAP1 DUP3 SWAP1 PUSH1 0x24 SWAP1 DUP3 SWAP1 PUSH1 0x1 PUSH1 0x1 PUSH1 0xA0 SHL SUB AND GAS STATICCALL SWAP1 DUP2 ISZERO PUSH2 0xC45 JUMPI PUSH1 0x0 SWAP2 PUSH2 0x121C JUMPI JUMPDEST POP PUSH2 0x11A3 JUMPI JUMPDEST PUSH2 0x100 PUSH1 0x1 SWAP4 ADD MLOAD SWAP1 SUB SUB SWAP7 PUSH2 0x1182 DUP2 DUP7 PUSH2 0x23D0 JUMP JUMPDEST MLOAD PUSH1 0x0 MSTORE PUSH1 0x5 PUSH1 0x20 MSTORE PUSH1 0x40 PUSH1 0x0 KECCAK256 DUP3 PUSH1 0xFF NOT DUP3 SLOAD AND OR SWAP1 SSTORE JUMPDEST ADD SWAP2 SWAP1 PUSH2 0xF21 JUMP JUMPDEST DUP3 MLOAD PUSH1 0x40 DUP5 ADD MLOAD PUSH1 0xA0 DUP6 ADD MLOAD PUSH1 0x1 PUSH1 0x1 PUSH1 0xA0 SHL SUB SWAP3 DUP4 AND SWAP6 SWAP3 SWAP1 SWAP2 AND SWAP1 DUP6 EXTCODESIZE ISZERO PUSH2 0x12D JUMPI PUSH1 0x64 PUSH1 0x0 SWAP3 DUP4 PUSH1 0x40 MLOAD SWAP9 DUP10 SWAP5 DUP6 SWAP4 PUSH4 0x21421707 PUSH1 0xE1 SHL DUP6 MSTORE PUSH1 0x4 DUP6 ADD MSTORE CALLER PUSH1 0x24 DUP6 ADD MSTORE PUSH1 0x44 DUP5 ADD MSTORE GAS CALL SWAP1 DUP2 ISZERO PUSH2 0xC45 JUMPI PUSH1 0x1 SWAP5 PUSH2 0x100 SWAP3 PUSH2 0x120D JUMPI JUMPDEST POP SWAP4 POP POP PUSH2 0x116C JUMP JUMPDEST PUSH2 0x1216 SWAP1 PUSH2 0x1C41 JUMP JUMPDEST DUP12 PUSH2 0x1204 JUMP JUMPDEST PUSH2 0x1235 SWAP2 POP PUSH1 0x20 RETURNDATASIZE PUSH1 0x20 GT PUSH2 0xE9B JUMPI PUSH2 0xE8D DUP2 DUP4 PUSH2 0x1CA5 JUMP JUMPDEST DUP11 PUSH2 0x1166 JUMP JUMPDEST PUSH2 0x1283 SWAP2 PUSH2 0x1251 PUSH2 0x1256 SWAP3 PUSH2 0x100 DUP11 ADD MLOAD PUSH2 0x23E4 JUMP JUMPDEST PUSH2 0x23E4 JUMP JUMPDEST PUSH2 0x10D0 PUSH2 0x126F PUSH2 0x2710 PUSH1 0x6 SLOAD PUSH1 0xA0 SHR DUP5 MUL DIV DUP1 SWAP6 PUSH2 0x210A JUMP JUMPDEST SWAP4 PUSH1 0x1 DUP1 PUSH1 0xA0 SHL SUB PUSH1 0x60 DUP11 ADD MLOAD AND SWAP3 PUSH2 0x23E4 JUMP JUMPDEST DUP12 DUP1 PUSH2 0x1112 JUMP JUMPDEST POP PUSH1 0x80 DUP6 ADD MLOAD ISZERO PUSH2 0x1349 JUMPI JUMPDEST PUSH1 0x1 DUP1 PUSH1 0xA0 SHL SUB DUP6 MLOAD AND PUSH1 0x40 PUSH1 0xA0 DUP8 ADD MLOAD PUSH1 0x44 PUSH2 0x100 DUP10 ADD MLOAD SWAP2 DUP4 MLOAD SWAP5 DUP6 SWAP4 DUP5 SWAP3 PUSH4 0x152A902D PUSH1 0xE1 SHL DUP5 MSTORE PUSH1 0x4 DUP5 ADD MSTORE PUSH1 0x24 DUP4 ADD MSTORE GAS STATICCALL DUP1 ISZERO PUSH2 0xC45 JUMPI PUSH1 0x0 SWAP2 PUSH1 0x0 SWAP2 PUSH2 0x1300 JUMPI JUMPDEST POP PUSH2 0x1125 SWAP4 SWAP1 SWAP2 PUSH2 0x12F9 SWAP1 DUP4 SWAP1 PUSH1 0x1 PUSH1 0x1 PUSH1 0xA0 SHL SUB AND PUSH2 0x2589 JUMP JUMPDEST SWAP3 POP PUSH2 0x10F8 JUMP JUMPDEST SWAP2 POP POP PUSH1 0x40 DUP2 RETURNDATASIZE PUSH1 0x40 GT PUSH2 0x1341 JUMPI JUMPDEST DUP2 PUSH2 0x131C PUSH1 0x40 SWAP4 DUP4 PUSH2 0x1CA5 JUMP JUMPDEST DUP2 ADD SUB SLT PUSH2 0x12D JUMPI PUSH2 0x1125 SWAP3 PUSH2 0x12F9 PUSH1 0x20 PUSH2 0x1336 DUP5 PUSH2 0x2409 JUMP JUMPDEST SWAP4 ADD MLOAD SWAP2 SWAP5 POP PUSH2 0x12DE JUMP JUMPDEST RETURNDATASIZE SWAP2 POP PUSH2 0x130F JUMP JUMPDEST DUP5 MLOAD PUSH1 0x40 MLOAD PUSH4 0x1FFC9A7 PUSH1 0xE0 SHL DUP2 MSTORE PUSH4 0x80AC58CD PUSH1 0xE0 SHL PUSH1 0x4 DUP3 ADD MSTORE SWAP1 PUSH1 0x20 SWAP1 DUP3 SWAP1 PUSH1 0x24 SWAP1 DUP3 SWAP1 PUSH1 0x1 PUSH1 0x1 PUSH1 0xA0 SHL SUB AND GAS STATICCALL SWAP1 DUP2 ISZERO PUSH2 0xC45 JUMPI PUSH1 0x0 SWAP2 PUSH2 0x1429 JUMPI JUMPDEST POP ISZERO PUSH2 0x1296 JUMPI DUP5 MLOAD PUSH1 0x40 DUP7 ADD MLOAD PUSH1 0xA0 DUP8 ADD MLOAD PUSH2 0x160 DUP9 ADD MLOAD PUSH1 0xC0 DUP10 ADD MLOAD SWAP4 PUSH1 0x1 PUSH1 0x1 PUSH1 0xA0 SHL SUB SWAP4 DUP5 AND SWAP4 PUSH1 0x1 PUSH1 0x1 PUSH1 0x60 SHL SUB SWAP1 SWAP3 AND SWAP3 SWAP2 AND SWAP1 DUP2 EXTCODESIZE ISZERO PUSH2 0x12D JUMPI PUSH1 0x0 DUP1 SWAP5 PUSH2 0x1405 PUSH1 0x40 MLOAD SWAP8 DUP9 SWAP7 DUP8 SWAP6 DUP7 SWAP5 PUSH4 0x396FFCB9 PUSH1 0xE2 SHL DUP7 MSTORE PUSH1 0x4 DUP7 ADD MSTORE PUSH1 0x24 DUP6 ADD MSTORE PUSH1 0x44 DUP5 ADD MSTORE PUSH1 0x80 PUSH1 0x64 DUP5 ADD MSTORE PUSH1 0x84 DUP4 ADD SWAP1 PUSH2 0x2071 JUMP JUMPDEST SUB SWAP3 GAS CALL DUP1 ISZERO PUSH2 0xC45 JUMPI PUSH2 0x141A JUMPI JUMPDEST POP PUSH2 0x1296 JUMP JUMPDEST PUSH2 0x1423 SWAP1 PUSH2 0x1C41 JUMP JUMPDEST DUP12 PUSH2 0x1414 JUMP JUMPDEST PUSH2 0x1442 SWAP2 POP PUSH1 0x20 RETURNDATASIZE PUSH1 0x20 GT PUSH2 0xE9B JUMPI PUSH2 0xE8D DUP2 DUP4 PUSH2 0x1CA5 JUMP JUMPDEST DUP13 PUSH2 0x138A JUMP JUMPDEST PUSH2 0x2710 SWAP1 DUP3 MUL DIV SWAP2 POP PUSH2 0x10D6 PUSH2 0x10B3 JUMP JUMPDEST SWAP8 SWAP1 POP PUSH1 0x1 SWAP2 POP PUSH2 0x119B JUMP JUMPDEST PUSH1 0x40 MLOAD PUSH4 0x1FFC9A7 PUSH1 0xE0 SHL DUP2 MSTORE PUSH4 0x80AC58CD PUSH1 0xE0 SHL PUSH1 0x4 DUP3 ADD MSTORE SWAP1 PUSH1 0x20 SWAP1 DUP3 SWAP1 PUSH1 0x24 SWAP1 DUP3 SWAP1 GAS STATICCALL SWAP1 DUP2 ISZERO PUSH2 0xC45 JUMPI PUSH1 0x0 SWAP2 PUSH2 0x1B5F JUMPI JUMPDEST POP ISZERO DUP1 PUSH2 0x1AF7 JUMPI JUMPDEST ISZERO PUSH2 0x14B7 JUMPI POP PUSH2 0x14B1 PUSH2 0x2689 JUMP JUMPDEST SWAP1 PUSH2 0x1045 JUMP JUMPDEST PUSH1 0x80 DUP7 ADD MLOAD ISZERO ISZERO DUP1 PUSH2 0x1A89 JUMPI JUMPDEST ISZERO PUSH2 0x151E JUMPI POP PUSH1 0x40 MLOAD PUSH2 0x14D6 DUP2 PUSH2 0x1C6F JUMP JUMPDEST PUSH1 0x2F DUP2 MSTORE PUSH32 0x47424D61726B6574706C6163653A204E465420776173206E6F7420617070726F PUSH1 0x20 DUP3 ADD MSTORE PUSH15 0x3B32B210333937B69039B2B63632B9 PUSH1 0x89 SHL PUSH1 0x40 DUP3 ADD MSTORE SWAP1 PUSH2 0x1045 JUMP JUMPDEST PUSH1 0x40 DUP7 ADD MLOAD PUSH1 0x1 PUSH1 0x1 PUSH1 0xA0 SHL SUB AND EXTCODESIZE ISZERO PUSH2 0x1595 JUMPI POP PUSH1 0x40 MLOAD PUSH2 0x153F DUP2 PUSH2 0x1C6F JUMP JUMPDEST PUSH1 0x3A DUP2 MSTORE PUSH32 0x47424D61726B6574706C6163653A2073656C6C65722061646472657373206D75 PUSH1 0x20 DUP3 ADD MSTORE PUSH32 0x7374206E6F7420626520636F6E74726163742061646472657373000000000000 PUSH1 0x40 DUP3 ADD MSTORE SWAP1 PUSH2 0x1045 JUMP JUMPDEST PUSH2 0x120 DUP7 ADD MLOAD PUSH1 0x1 PUSH1 0x1 PUSH1 0xA0 SHL SUB AND PUSH2 0x160B JUMPI POP PUSH1 0x40 MLOAD PUSH2 0x15B5 DUP2 PUSH2 0x1C6F JUMP JUMPDEST PUSH1 0x37 DUP2 MSTORE PUSH32 0x47424D61726B6574706C6163653A20636861726974792061646472657373206D PUSH1 0x20 DUP3 ADD MSTORE PUSH32 0x757374206E6F74206265207A65726F2061646472657373000000000000000000 PUSH1 0x40 DUP3 ADD MSTORE SWAP1 PUSH2 0x1045 JUMP JUMPDEST PUSH1 0x1 PUSH1 0x1 PUSH1 0x60 SHL SUB PUSH2 0x140 DUP8 ADD MLOAD AND PUSH2 0x3E8 DUP2 LT DUP1 ISZERO PUSH2 0x1A7E JUMPI JUMPDEST ISZERO PUSH2 0x168F JUMPI POP POP PUSH1 0x40 MLOAD PUSH2 0x1639 DUP2 PUSH2 0x1C6F JUMP JUMPDEST PUSH1 0x3E DUP2 MSTORE PUSH32 0x47424D61726B6574706C6163653A20636861726974792070657263656E746167 PUSH1 0x20 DUP3 ADD MSTORE PUSH32 0x65206D757374206265206265747765656E2031302520616E6420313030250000 PUSH1 0x40 DUP3 ADD MSTORE SWAP1 PUSH2 0x1045 JUMP JUMPDEST PUSH2 0x160 DUP8 ADD MLOAD PUSH1 0x1 PUSH1 0x1 PUSH1 0x60 SHL SUB AND SWAP1 PUSH2 0x2710 DUP3 GT ISZERO PUSH2 0x170E JUMPI POP POP POP PUSH1 0x40 MLOAD PUSH2 0x16B8 DUP2 PUSH2 0x1C6F JUMP JUMPDEST PUSH1 0x38 DUP2 MSTORE PUSH32 0x47424D61726B6574706C6163653A20726F79616C747920666565206D75737420 PUSH1 0x20 DUP3 ADD MSTORE PUSH32 0x6E6F742062652067726561746572207468616E20313030250000000000000000 PUSH1 0x40 DUP3 ADD MSTORE SWAP1 PUSH2 0x1045 JUMP JUMPDEST PUSH1 0x1 PUSH1 0x1 PUSH1 0x60 SHL SUB DUP3 DUP3 ADD GT PUSH2 0x1A68 JUMPI PUSH2 0x2710 SWAP2 ADD PUSH1 0x1 PUSH1 0x1 PUSH1 0x60 SHL SUB AND GT ISZERO PUSH2 0x1787 JUMPI POP PUSH1 0x40 MLOAD PUSH2 0x173F DUP2 PUSH2 0x1C6F JUMP JUMPDEST PUSH1 0x2F DUP2 MSTORE PUSH32 0x47424D61726B6574706C6163653A20746F74616C20666565206D757374206265 PUSH1 0x20 DUP3 ADD MSTORE PUSH15 0x206C657373207468616E2031303025 PUSH1 0x88 SHL PUSH1 0x40 DUP3 ADD MSTORE SWAP1 PUSH2 0x1045 JUMP JUMPDEST PUSH2 0x100 DUP7 ADD MLOAD DUP6 DUP2 PUSH2 0x17EA JUMPI POP POP POP PUSH1 0x40 MLOAD PUSH2 0x17A2 DUP2 PUSH2 0x1C6F JUMP JUMPDEST PUSH1 0x2F DUP2 MSTORE PUSH32 0x47424D61726B6574706C6163653A204E4654205072696365206D757374206265 PUSH1 0x20 DUP3 ADD MSTORE PUSH15 0x2067726561746572207468616E203 PUSH1 0x8C SHL PUSH1 0x40 DUP3 ADD MSTORE SWAP1 PUSH2 0x1045 JUMP JUMPDEST PUSH2 0x17F3 SWAP2 PUSH2 0x210A JUMP JUMPDEST DUP5 LT ISZERO PUSH2 0x1841 JUMPI POP PUSH1 0x40 MLOAD PUSH2 0x1807 DUP2 PUSH2 0x1C6F JUMP JUMPDEST PUSH1 0x21 DUP2 MSTORE PUSH32 0x47424D61726B6574706C6163653A20496E73756666696369656E742066756E64 PUSH1 0x20 DUP3 ADD MSTORE PUSH1 0x73 PUSH1 0xF8 SHL PUSH1 0x40 DUP3 ADD MSTORE SWAP1 PUSH2 0x1045 JUMP JUMPDEST PUSH2 0x180 DUP7 ADD MLOAD TIMESTAMP GT ISZERO PUSH2 0x188B JUMPI POP PUSH1 0x40 MLOAD PUSH2 0x185B DUP2 PUSH2 0x1C54 JUMP JUMPDEST PUSH1 0x20 DUP2 MSTORE PUSH32 0x47424D61726B6574706C6163653A205369676E61747572652065787069726564 PUSH1 0x20 DUP3 ADD MSTORE SWAP1 PUSH2 0x1045 JUMP JUMPDEST SWAP1 POP PUSH2 0x1896 DUP6 PUSH2 0x29F3 JUMP JUMPDEST SWAP1 DUP2 PUSH1 0x0 MSTORE PUSH1 0x4 PUSH1 0x20 MSTORE PUSH1 0xFF DUP1 PUSH1 0x40 PUSH1 0x0 KECCAK256 SLOAD AND PUSH1 0x0 EQ PUSH2 0x1901 JUMPI POP POP PUSH1 0x40 MLOAD PUSH2 0x18BF DUP2 PUSH2 0x1C6F JUMP JUMPDEST PUSH1 0x29 DUP2 MSTORE PUSH32 0x47424D61726B6574706C6163653A204F7264657220697320616C726561647920 PUSH1 0x20 DUP3 ADD MSTORE PUSH9 0x18D85B98D95B1B1959 PUSH1 0xBA SHL PUSH1 0x40 DUP3 ADD MSTORE SWAP1 PUSH2 0x1045 JUMP JUMPDEST PUSH1 0x5 PUSH1 0x20 MSTORE PUSH1 0x40 PUSH1 0x0 KECCAK256 SLOAD AND ISZERO PUSH2 0x1961 JUMPI POP PUSH1 0x40 MLOAD PUSH2 0x191F DUP2 PUSH2 0x1C6F JUMP JUMPDEST PUSH1 0x29 DUP2 MSTORE PUSH32 0x47424D61726B6574706C6163653A204F7264657220697320616C726561647920 PUSH1 0x20 DUP3 ADD MSTORE PUSH9 0x1C1C9BD8D95CDCD959 PUSH1 0xBA SHL PUSH1 0x40 DUP3 ADD MSTORE SWAP1 PUSH2 0x1045 JUMP JUMPDEST PUSH1 0x40 DUP7 ADD MLOAD PUSH1 0x1 PUSH1 0x1 PUSH1 0xA0 SHL SUB AND SWAP1 PUSH2 0x1978 PUSH2 0x26E8 JUMP JUMPDEST PUSH1 0x40 MLOAD SWAP1 PUSH2 0x1901 PUSH1 0xF0 SHL PUSH1 0x20 DUP4 ADD MSTORE PUSH1 0x22 DUP3 ADD MSTORE PUSH1 0x42 DUP5 DUP2 DUP4 ADD MSTORE DUP2 MSTORE DUP1 PUSH1 0x80 DUP2 ADD LT PUSH1 0x1 PUSH1 0x1 PUSH1 0x40 SHL SUB PUSH1 0x80 DUP4 ADD GT OR PUSH2 0x1A52 JUMPI PUSH2 0x19D0 SWAP2 DUP2 PUSH1 0x80 PUSH2 0x19C8 SWAP4 ADD PUSH1 0x40 MSTORE PUSH1 0x20 DUP2 MLOAD SWAP2 ADD KECCAK256 PUSH2 0x292C JUMP JUMPDEST SWAP2 SWAP1 SWAP2 PUSH2 0x2812 JUMP JUMPDEST PUSH1 0x1 PUSH1 0x1 PUSH1 0xA0 SHL SUB AND EQ PUSH2 0x1A1A JUMPI PUSH1 0x40 MLOAD PUSH2 0x19EA DUP2 PUSH2 0x1C54 JUMP JUMPDEST PUSH1 0x20 DUP2 MSTORE PUSH32 0x47424D61726B6574706C6163653A20496E76616C6964207369676E6174757265 PUSH1 0x20 DUP3 ADD MSTORE SWAP1 PUSH2 0x1045 JUMP JUMPDEST PUSH1 0x40 MLOAD PUSH1 0x1 SWAP3 POP PUSH2 0x1A2A DUP2 PUSH2 0x1C54 JUMP JUMPDEST PUSH1 0x15 DUP2 MSTORE PUSH21 0x11D093585C9AD95D1C1B1858D94E8814185CDCD959 PUSH1 0x5A SHL PUSH1 0x20 DUP3 ADD MSTORE SWAP1 PUSH2 0x1045 JUMP JUMPDEST PUSH4 0x4E487B71 PUSH1 0xE0 SHL PUSH1 0x0 MSTORE PUSH1 0x41 PUSH1 0x4 MSTORE PUSH1 0x24 PUSH1 0x0 REVERT JUMPDEST PUSH4 0x4E487B71 PUSH1 0xE0 SHL PUSH1 0x0 MSTORE PUSH1 0x11 PUSH1 0x4 MSTORE PUSH1 0x24 PUSH1 0x0 REVERT JUMPDEST POP PUSH2 0x2710 DUP2 GT PUSH2 0x1626 JUMP JUMPDEST POP DUP6 MLOAD PUSH1 0x40 DUP1 DUP9 ADD MLOAD SWAP1 MLOAD PUSH4 0xE985E9C5 PUSH1 0xE0 SHL DUP2 MSTORE PUSH1 0x1 PUSH1 0x1 PUSH1 0xA0 SHL SUB SWAP2 DUP3 AND PUSH1 0x4 DUP3 ADD MSTORE ADDRESS PUSH1 0x24 DUP3 ADD MSTORE SWAP2 PUSH1 0x20 SWAP2 DUP4 SWAP2 PUSH1 0x44 SWAP2 DUP4 SWAP2 AND GAS STATICCALL SWAP1 DUP2 ISZERO PUSH2 0xC45 JUMPI PUSH1 0x0 SWAP2 PUSH2 0x1AD8 JUMPI JUMPDEST POP ISZERO PUSH2 0x14C4 JUMP JUMPDEST PUSH2 0x1AF1 SWAP2 POP PUSH1 0x20 RETURNDATASIZE PUSH1 0x20 GT PUSH2 0xE9B JUMPI PUSH2 0xE8D DUP2 DUP4 PUSH2 0x1CA5 JUMP JUMPDEST DUP14 PUSH2 0x1AD1 JUMP JUMPDEST POP DUP6 MLOAD PUSH1 0x40 MLOAD PUSH4 0x1FFC9A7 PUSH1 0xE0 SHL DUP2 MSTORE PUSH4 0x6CDB3D13 PUSH1 0xE1 SHL PUSH1 0x4 DUP3 ADD MSTORE SWAP1 PUSH1 0x20 SWAP1 DUP3 SWAP1 PUSH1 0x24 SWAP1 DUP3 SWAP1 PUSH1 0x1 PUSH1 0x1 PUSH1 0xA0 SHL SUB AND GAS STATICCALL SWAP1 DUP2 ISZERO PUSH2 0xC45 JUMPI PUSH1 0x0 SWAP2 PUSH2 0x1B40 JUMPI JUMPDEST POP ISZERO PUSH2 0x14A3 JUMP JUMPDEST PUSH2 0x1B59 SWAP2 POP PUSH1 0x20 RETURNDATASIZE PUSH1 0x20 GT PUSH2 0xE9B JUMPI PUSH2 0xE8D DUP2 DUP4 PUSH2 0x1CA5 JUMP JUMPDEST DUP14 PUSH2 0x1B39 JUMP JUMPDEST PUSH2 0x1B78 SWAP2 POP PUSH1 0x20 RETURNDATASIZE PUSH1 0x20 GT PUSH2 0xE9B JUMPI PUSH2 0xE8D DUP2 DUP4 PUSH2 0x1CA5 JUMP JUMPDEST DUP14 PUSH2 0x149B JUMP JUMPDEST CALLVALUE PUSH2 0x12D JUMPI PUSH1 0x20 CALLDATASIZE PUSH1 0x3 NOT ADD SLT PUSH2 0x12D JUMPI PUSH1 0x4 CALLDATALOAD SWAP1 PUSH4 0xFFFFFFFF PUSH1 0xE0 SHL DUP3 AND DUP1 SWAP3 SUB PUSH2 0x12D JUMPI PUSH1 0x20 SWAP2 PUSH4 0x7965DB0B PUSH1 0xE0 SHL DUP2 EQ SWAP1 DUP2 ISZERO PUSH2 0x1BC0 JUMPI JUMPDEST POP ISZERO ISZERO DUP2 MSTORE RETURN JUMPDEST PUSH4 0x1FFC9A7 PUSH1 0xE0 SHL EQ SWAP1 POP DUP4 PUSH2 0x1BB9 JUMP JUMPDEST SWAP2 DUP2 PUSH1 0x1F DUP5 ADD SLT ISZERO PUSH2 0x12D JUMPI DUP3 CALLDATALOAD SWAP2 PUSH1 0x1 PUSH1 0x1 PUSH1 0x40 SHL SUB DUP4 GT PUSH2 0x12D JUMPI PUSH1 0x20 DUP1 DUP6 ADD SWAP5 DUP5 PUSH1 0x5 SHL ADD ADD GT PUSH2 0x12D JUMPI JUMP JUMPDEST PUSH1 0x4 CALLDATALOAD SWAP1 PUSH1 0x1 PUSH1 0x1 PUSH1 0xA0 SHL SUB DUP3 AND DUP3 SUB PUSH2 0x12D JUMPI JUMP JUMPDEST PUSH1 0x24 CALLDATALOAD SWAP1 PUSH1 0x1 PUSH1 0x1 PUSH1 0xA0 SHL SUB DUP3 AND DUP3 SUB PUSH2 0x12D JUMPI JUMP JUMPDEST CALLDATALOAD SWAP1 PUSH1 0x1 PUSH1 0x1 PUSH1 0xA0 SHL SUB DUP3 AND DUP3 SUB PUSH2 0x12D JUMPI JUMP JUMPDEST PUSH1 0x1 PUSH1 0x1 PUSH1 0x40 SHL SUB DUP2 GT PUSH2 0x1A52 JUMPI PUSH1 0x40 MSTORE JUMP JUMPDEST PUSH1 0x40 DUP2 ADD SWAP1 DUP2 LT PUSH1 0x1 PUSH1 0x1 PUSH1 0x40 SHL SUB DUP3 GT OR PUSH2 0x1A52 JUMPI PUSH1 0x40 MSTORE JUMP JUMPDEST PUSH1 0x60 DUP2 ADD SWAP1 DUP2 LT PUSH1 0x1 PUSH1 0x1 PUSH1 0x40 SHL SUB DUP3 GT OR PUSH2 0x1A52 JUMPI PUSH1 0x40 MSTORE JUMP JUMPDEST PUSH1 0x80 DUP2 ADD SWAP1 DUP2 LT PUSH1 0x1 PUSH1 0x1 PUSH1 0x40 SHL SUB DUP3 GT OR PUSH2 0x1A52 JUMPI PUSH1 0x40 MSTORE JUMP JUMPDEST SWAP1 PUSH1 0x1F DUP1 NOT SWAP2 ADD AND DUP2 ADD SWAP1 DUP2 LT PUSH1 0x1 PUSH1 0x1 PUSH1 0x40 SHL SUB DUP3 GT OR PUSH2 0x1A52 JUMPI PUSH1 0x40 MSTORE JUMP JUMPDEST PUSH1 0x1 PUSH1 0x1 PUSH1 0x40 SHL SUB DUP2 GT PUSH2 0x1A52 JUMPI PUSH1 0x1F ADD PUSH1 0x1F NOT AND PUSH1 0x20 ADD SWAP1 JUMP JUMPDEST SWAP3 SWAP2 SWAP3 PUSH2 0x1CED DUP3 PUSH2 0x1CC6 JUMP JUMPDEST SWAP2 PUSH2 0x1CFB PUSH1 0x40 MLOAD SWAP4 DUP5 PUSH2 0x1CA5 JUMP JUMPDEST DUP3 SWAP5 DUP2 DUP5 MSTORE DUP2 DUP4 ADD GT PUSH2 0x12D JUMPI DUP3 DUP2 PUSH1 0x20 SWAP4 DUP5 PUSH1 0x0 SWAP7 ADD CALLDATACOPY ADD ADD MSTORE JUMP JUMPDEST SWAP1 DUP1 PUSH1 0x1F DUP4 ADD SLT ISZERO PUSH2 0x12D JUMPI DUP2 PUSH1 0x20 PUSH2 0x1D33 SWAP4 CALLDATALOAD SWAP2 ADD PUSH2 0x1CE1 JUMP JUMPDEST SWAP1 JUMP JUMPDEST CALLDATALOAD SWAP1 PUSH1 0x1 PUSH1 0x1 PUSH1 0x60 SHL SUB DUP3 AND DUP3 SUB PUSH2 0x12D JUMPI JUMP JUMPDEST CALLER PUSH1 0x0 SWAP1 DUP2 MSTORE PUSH32 0xAD3228B676F7D3CD4284A5443F17F1962B36E491B30A40B2405849E597BA5FB5 PUSH1 0x20 SWAP1 DUP2 MSTORE PUSH1 0x40 DUP1 DUP4 KECCAK256 SLOAD SWAP1 SWAP3 SWAP1 PUSH1 0xFF AND ISZERO PUSH2 0x1D8C JUMPI POP POP POP JUMP JUMPDEST PUSH2 0x1D95 CALLER PUSH2 0x213E JUMP JUMPDEST SWAP1 DUP1 DUP5 MLOAD SWAP1 PUSH2 0x1DA3 DUP3 PUSH2 0x1C8A JUMP JUMPDEST PUSH1 0x42 DUP3 MSTORE DUP5 DUP3 ADD SWAP3 PUSH1 0x60 CALLDATASIZE DUP6 CALLDATACOPY DUP3 MLOAD ISZERO PUSH2 0x1F30 JUMPI PUSH1 0x30 DUP5 MSTORE8 DUP3 MLOAD SWAP1 PUSH1 0x1 SWAP2 DUP3 LT ISZERO PUSH2 0x1F30 JUMPI SWAP1 PUSH1 0x78 PUSH1 0x21 DUP6 ADD MSTORE8 PUSH1 0x41 SWAP2 JUMPDEST DUP2 DUP4 GT PUSH2 0x1EC2 JUMPI POP POP POP PUSH2 0x1E80 JUMPI PUSH1 0x48 PUSH2 0x1E7C SWAP4 DUP7 SWAP4 PUSH2 0x1E60 SWAP4 PUSH2 0x1E51 SWAP9 MLOAD SWAP9 DUP10 SWAP4 PUSH23 0x20B1B1B2B9B9A1B7B73A3937B61D1030B1B1B7BAB73A1 PUSH1 0x4D SHL DUP11 DUP7 ADD MSTORE PUSH2 0x1E28 DUP2 MLOAD DUP1 SWAP3 DUP13 PUSH1 0x37 DUP10 ADD SWAP2 ADD PUSH2 0x204E JUMP JUMPDEST DUP5 ADD SWAP2 PUSH17 0x1034B99036B4B9B9B4B733903937B6329 PUSH1 0x7D SHL PUSH1 0x37 DUP5 ADD MSTORE MLOAD DUP1 SWAP4 DUP7 DUP5 ADD SWAP1 PUSH2 0x204E JUMP JUMPDEST ADD SUB PUSH1 0x28 DUP2 ADD DUP8 MSTORE ADD DUP6 PUSH2 0x1CA5 JUMP JUMPDEST MLOAD SWAP3 DUP4 SWAP3 PUSH3 0x461BCD PUSH1 0xE5 SHL DUP5 MSTORE PUSH1 0x4 DUP5 ADD MSTORE PUSH1 0x24 DUP4 ADD SWAP1 PUSH2 0x2071 JUMP JUMPDEST SUB SWAP1 REVERT JUMPDEST PUSH1 0x64 DUP5 DUP7 MLOAD SWAP1 PUSH3 0x461BCD PUSH1 0xE5 SHL DUP3 MSTORE DUP1 PUSH1 0x4 DUP4 ADD MSTORE PUSH1 0x24 DUP3 ADD MSTORE PUSH32 0x537472696E67733A20686578206C656E67746820696E73756666696369656E74 PUSH1 0x44 DUP3 ADD MSTORE REVERT JUMPDEST SWAP1 SWAP2 SWAP3 PUSH1 0xF DUP2 AND PUSH1 0x10 DUP2 LT ISZERO PUSH2 0x1F1C JUMPI PUSH16 0x181899199A1A9B1B9C1CB0B131B232B3 PUSH1 0x81 SHL SWAP1 BYTE PUSH2 0x1EF2 DUP6 DUP8 PUSH2 0x2117 JUMP JUMPDEST MSTORE8 PUSH1 0x4 SHR SWAP3 DUP1 ISZERO PUSH2 0x1F08 JUMPI PUSH1 0x0 NOT ADD SWAP2 SWAP1 PUSH2 0x1DD4 JUMP JUMPDEST PUSH4 0x4E487B71 PUSH1 0xE0 SHL DUP3 MSTORE PUSH1 0x11 PUSH1 0x4 MSTORE PUSH1 0x24 DUP3 REVERT JUMPDEST PUSH4 0x4E487B71 PUSH1 0xE0 SHL DUP4 MSTORE PUSH1 0x32 PUSH1 0x4 MSTORE PUSH1 0x24 DUP4 REVERT JUMPDEST PUSH4 0x4E487B71 PUSH1 0xE0 SHL DUP2 MSTORE PUSH1 0x32 PUSH1 0x4 MSTORE PUSH1 0x24 SWAP1 REVERT JUMPDEST PUSH1 0x0 SWAP1 DUP1 DUP3 MSTORE PUSH1 0x20 SWAP1 DUP3 DUP3 MSTORE PUSH1 0x40 SWAP3 DUP4 DUP2 KECCAK256 CALLER DUP3 MSTORE DUP4 MSTORE PUSH1 0xFF DUP5 DUP3 KECCAK256 SLOAD AND ISZERO PUSH2 0x1F6D JUMPI POP POP POP POP JUMP JUMPDEST PUSH2 0x1F76 CALLER PUSH2 0x213E JUMP JUMPDEST SWAP2 DUP5 MLOAD SWAP1 PUSH2 0x1F83 DUP3 PUSH2 0x1C8A JUMP JUMPDEST PUSH1 0x42 DUP3 MSTORE DUP5 DUP3 ADD SWAP3 PUSH1 0x60 CALLDATASIZE DUP6 CALLDATACOPY DUP3 MLOAD ISZERO PUSH2 0x1F30 JUMPI PUSH1 0x30 DUP5 MSTORE8 DUP3 MLOAD SWAP1 PUSH1 0x1 SWAP2 DUP3 LT ISZERO PUSH2 0x1F30 JUMPI SWAP1 PUSH1 0x78 PUSH1 0x21 DUP6 ADD MSTORE8 PUSH1 0x41 SWAP2 JUMPDEST DUP2 DUP4 GT PUSH2 0x2008 JUMPI POP POP POP PUSH2 0x1E80 JUMPI PUSH1 0x48 PUSH2 0x1E7C SWAP4 DUP7 SWAP4 PUSH2 0x1E60 SWAP4 PUSH2 0x1E51 SWAP9 MLOAD SWAP9 DUP10 SWAP4 PUSH23 0x20B1B1B2B9B9A1B7B73A3937B61D1030B1B1B7BAB73A1 PUSH1 0x4D SHL DUP11 DUP7 ADD MSTORE PUSH2 0x1E28 DUP2 MLOAD DUP1 SWAP3 DUP13 PUSH1 0x37 DUP10 ADD SWAP2 ADD PUSH2 0x204E JUMP JUMPDEST SWAP1 SWAP2 SWAP3 PUSH1 0xF DUP2 AND PUSH1 0x10 DUP2 LT ISZERO PUSH2 0x1F1C JUMPI PUSH16 0x181899199A1A9B1B9C1CB0B131B232B3 PUSH1 0x81 SHL SWAP1 BYTE PUSH2 0x2038 DUP6 DUP8 PUSH2 0x2117 JUMP JUMPDEST MSTORE8 PUSH1 0x4 SHR SWAP3 DUP1 ISZERO PUSH2 0x1F08 JUMPI PUSH1 0x0 NOT ADD SWAP2 SWAP1 PUSH2 0x1FB4 JUMP JUMPDEST PUSH1 0x0 JUMPDEST DUP4 DUP2 LT PUSH2 0x2061 JUMPI POP POP PUSH1 0x0 SWAP2 ADD MSTORE JUMP JUMPDEST DUP2 DUP2 ADD MLOAD DUP4 DUP3 ADD MSTORE PUSH1 0x20 ADD PUSH2 0x2051 JUMP JUMPDEST SWAP1 PUSH1 0x20 SWAP2 PUSH2 0x208A DUP2 MLOAD DUP1 SWAP3 DUP2 DUP6 MSTORE DUP6 DUP1 DUP7 ADD SWAP2 ADD PUSH2 0x204E JUMP JUMPDEST PUSH1 0x1F ADD PUSH1 0x1F NOT AND ADD ADD SWAP1 JUMP JUMPDEST SWAP1 PUSH1 0x0 SWAP2 DUP1 DUP4 MSTORE DUP3 PUSH1 0x20 MSTORE PUSH1 0x40 DUP4 KECCAK256 SWAP2 PUSH1 0x1 DUP1 PUSH1 0xA0 SHL SUB AND SWAP2 DUP3 DUP5 MSTORE PUSH1 0x20 MSTORE PUSH1 0xFF PUSH1 0x40 DUP5 KECCAK256 SLOAD AND PUSH2 0x20C6 JUMPI POP POP POP JUMP JUMPDEST DUP1 DUP4 MSTORE DUP3 PUSH1 0x20 MSTORE PUSH1 0x40 DUP4 KECCAK256 DUP3 DUP5 MSTORE PUSH1 0x20 MSTORE PUSH1 0x40 DUP4 KECCAK256 PUSH1 0xFF NOT DUP2 SLOAD AND SWAP1 SSTORE PUSH32 0xF6391F5C32D9C69D2A47EA670B442974B53935D1EDC7FD64EB21E047A839171B CALLER SWAP4 DUP1 LOG4 JUMP JUMPDEST SWAP2 SWAP1 DUP3 ADD DUP1 SWAP3 GT PUSH2 0x1A68 JUMPI JUMP JUMPDEST SWAP1 DUP2 MLOAD DUP2 LT ISZERO PUSH2 0x2128 JUMPI ADD PUSH1 0x20 ADD SWAP1 JUMP JUMPDEST PUSH4 0x4E487B71 PUSH1 0xE0 SHL PUSH1 0x0 MSTORE PUSH1 0x32 PUSH1 0x4 MSTORE PUSH1 0x24 PUSH1 0x0 REVERT JUMPDEST PUSH1 0x40 MLOAD SWAP1 PUSH2 0x214B DUP3 PUSH2 0x1C6F JUMP JUMPDEST PUSH1 0x2A DUP3 MSTORE PUSH1 0x20 DUP3 ADD PUSH1 0x40 CALLDATASIZE DUP3 CALLDATACOPY DUP3 MLOAD ISZERO PUSH2 0x2128 JUMPI PUSH1 0x30 SWAP1 MSTORE8 DUP2 MLOAD PUSH1 0x1 SWAP1 DUP2 LT ISZERO PUSH2 0x2128 JUMPI PUSH1 0x78 PUSH1 0x21 DUP5 ADD MSTORE8 PUSH1 0x29 SWAP1 JUMPDEST DUP1 DUP3 GT PUSH2 0x21CE JUMPI POP POP PUSH2 0x218A JUMPI SWAP1 JUMP JUMPDEST PUSH1 0x64 PUSH1 0x40 MLOAD PUSH3 0x461BCD PUSH1 0xE5 SHL DUP2 MSTORE PUSH1 0x20 PUSH1 0x4 DUP3 ADD MSTORE PUSH1 0x20 PUSH1 0x24 DUP3 ADD MSTORE PUSH32 0x537472696E67733A20686578206C656E67746820696E73756666696369656E74 PUSH1 0x44 DUP3 ADD MSTORE REVERT JUMPDEST SWAP1 SWAP2 PUSH1 0xF DUP2 AND PUSH1 0x10 DUP2 LT ISZERO PUSH2 0x2227 JUMPI PUSH16 0x181899199A1A9B1B9C1CB0B131B232B3 PUSH1 0x81 SHL SWAP1 BYTE PUSH2 0x21FD DUP5 DUP7 PUSH2 0x2117 JUMP JUMPDEST MSTORE8 PUSH1 0x4 SHR SWAP2 DUP1 ISZERO PUSH2 0x2212 JUMPI PUSH1 0x0 NOT ADD SWAP1 PUSH2 0x217A JUMP JUMPDEST PUSH1 0x24 PUSH1 0x0 PUSH4 0x4E487B71 PUSH1 0xE0 SHL DUP2 MSTORE PUSH1 0x11 PUSH1 0x4 MSTORE REVERT JUMPDEST PUSH1 0x24 PUSH1 0x0 PUSH4 0x4E487B71 PUSH1 0xE0 SHL DUP2 MSTORE PUSH1 0x32 PUSH1 0x4 MSTORE REVERT JUMPDEST PUSH1 0x1 PUSH1 0x1 PUSH1 0x40 SHL SUB DUP2 GT PUSH2 0x1A52 JUMPI PUSH1 0x5 SHL PUSH1 0x20 ADD SWAP1 JUMP JUMPDEST SWAP1 PUSH2 0x225D DUP3 PUSH2 0x223C JUMP JUMPDEST PUSH2 0x226A PUSH1 0x40 MLOAD SWAP2 DUP3 PUSH2 0x1CA5 JUMP JUMPDEST DUP3 DUP2 MSTORE DUP1 SWAP3 PUSH2 0x227B PUSH1 0x1F NOT SWAP2 PUSH2 0x223C JUMP JUMPDEST ADD SWAP1 PUSH1 0x20 CALLDATASIZE SWAP2 ADD CALLDATACOPY JUMP JUMPDEST SWAP1 PUSH2 0x228F DUP3 PUSH2 0x223C JUMP JUMPDEST PUSH2 0x229C PUSH1 0x40 MLOAD SWAP2 DUP3 PUSH2 0x1CA5 JUMP JUMPDEST DUP3 DUP2 MSTORE DUP1 SWAP3 PUSH2 0x22AD PUSH1 0x1F NOT SWAP2 PUSH2 0x223C JUMP JUMPDEST ADD SWAP1 PUSH1 0x0 JUMPDEST DUP3 DUP2 LT PUSH2 0x22BE JUMPI POP POP POP JUMP JUMPDEST DUP1 PUSH1 0x60 PUSH1 0x20 DUP1 SWAP4 DUP6 ADD ADD MSTORE ADD PUSH2 0x22B2 JUMP JUMPDEST SWAP2 SWAP1 SWAP2 PUSH2 0x1C0 SWAP1 DUP2 DUP2 DUP6 SUB SLT PUSH2 0x12D JUMPI PUSH1 0x40 MLOAD SWAP2 DUP3 ADD PUSH1 0x1 PUSH1 0x1 PUSH1 0x40 SHL SUB SWAP1 DUP4 DUP2 LT DUP3 DUP3 GT OR PUSH2 0x1A52 JUMPI PUSH1 0x40 MSTORE DUP3 SWAP5 PUSH2 0x2307 DUP4 PUSH2 0x1C2D JUMP JUMPDEST DUP5 MSTORE PUSH1 0x20 DUP4 ADD CALLDATALOAD PUSH1 0x20 DUP6 ADD MSTORE PUSH2 0x231F PUSH1 0x40 DUP5 ADD PUSH2 0x1C2D JUMP JUMPDEST PUSH1 0x40 DUP6 ADD MSTORE PUSH2 0x2330 PUSH1 0x60 DUP5 ADD PUSH2 0x1C2D JUMP JUMPDEST PUSH1 0x60 DUP6 ADD MSTORE PUSH1 0x80 DUP4 ADD CALLDATALOAD DUP1 ISZERO ISZERO DUP2 SUB PUSH2 0x12D JUMPI PUSH1 0x80 DUP6 ADD MSTORE PUSH1 0xA0 DUP4 ADD CALLDATALOAD PUSH1 0xA0 DUP6 ADD MSTORE PUSH1 0xC0 DUP4 ADD CALLDATALOAD SWAP2 DUP3 GT PUSH2 0x12D JUMPI PUSH2 0x2369 SWAP2 DUP4 ADD PUSH2 0x1D18 JUMP JUMPDEST PUSH1 0xC0 DUP4 ADD MSTORE PUSH1 0xE0 DUP2 ADD CALLDATALOAD PUSH1 0xE0 DUP4 ADD MSTORE PUSH2 0x100 DUP1 DUP3 ADD CALLDATALOAD SWAP1 DUP4 ADD MSTORE PUSH2 0x120 PUSH2 0x2391 DUP2 DUP4 ADD PUSH2 0x1C2D JUMP JUMPDEST SWAP1 DUP4 ADD MSTORE PUSH2 0x140 PUSH2 0x23A3 DUP2 DUP4 ADD PUSH2 0x1D36 JUMP JUMPDEST SWAP1 DUP4 ADD MSTORE PUSH2 0x160 PUSH2 0x23B5 DUP2 DUP4 ADD PUSH2 0x1D36 JUMP JUMPDEST SWAP1 DUP4 ADD MSTORE PUSH2 0x180 DUP1 DUP3 ADD CALLDATALOAD SWAP1 DUP4 ADD MSTORE PUSH2 0x1A0 DUP1 SWAP2 ADD CALLDATALOAD SWAP2 ADD MSTORE JUMP JUMPDEST DUP1 MLOAD DUP3 LT ISZERO PUSH2 0x2128 JUMPI PUSH1 0x20 SWAP2 PUSH1 0x5 SHL ADD ADD SWAP1 JUMP JUMPDEST SWAP2 SWAP1 DUP3 SUB SWAP2 DUP3 GT PUSH2 0x1A68 JUMPI JUMP JUMPDEST SWAP1 DUP2 PUSH1 0x20 SWAP2 SUB SLT PUSH2 0x12D JUMPI MLOAD DUP1 ISZERO ISZERO DUP2 SUB PUSH2 0x12D JUMPI SWAP1 JUMP JUMPDEST MLOAD SWAP1 PUSH1 0x1 PUSH1 0x1 PUSH1 0xA0 SHL SUB DUP3 AND DUP3 SUB PUSH2 0x12D JUMPI JUMP JUMPDEST SWAP2 SWAP1 SWAP2 PUSH1 0x60 DUP2 ADD PUSH1 0x60 DUP3 MSTORE DUP4 MLOAD DUP1 SWAP2 MSTORE PUSH1 0x80 DUP3 ADD SWAP1 PUSH1 0x20 DUP1 SWAP6 ADD SWAP1 PUSH1 0x0 JUMPDEST DUP2 DUP2 LT PUSH2 0x24D9 JUMPI POP POP POP DUP2 DUP2 SUB DUP5 DUP4 ADD MSTORE DUP3 MLOAD DUP1 DUP3 MSTORE DUP5 DUP3 ADD SWAP2 DUP6 DUP1 DUP4 PUSH1 0x5 SHL DUP4 ADD ADD SWAP6 ADD SWAP3 PUSH1 0x0 SWAP2 JUMPDEST DUP4 DUP4 LT PUSH2 0x24AA JUMPI POP POP POP POP POP PUSH1 0x40 DUP2 DUP4 SUB SWAP2 ADD MSTORE DUP2 DUP1 DUP5 MLOAD SWAP3 DUP4 DUP2 MSTORE ADD SWAP4 ADD SWAP2 PUSH1 0x0 JUMPDEST DUP3 DUP2 LT PUSH2 0x2496 JUMPI POP POP POP POP SWAP1 JUMP JUMPDEST DUP4 MLOAD DUP6 MSTORE SWAP4 DUP2 ADD SWAP4 SWAP3 DUP2 ADD SWAP3 PUSH1 0x1 ADD PUSH2 0x2488 JUMP JUMPDEST SWAP1 SWAP2 SWAP3 SWAP4 SWAP7 SWAP6 DUP7 DUP1 PUSH2 0x24C8 PUSH1 0x1 SWAP4 PUSH1 0x1F NOT DUP7 DUP3 SUB ADD DUP8 MSTORE DUP12 MLOAD PUSH2 0x2071 JUMP JUMPDEST SWAP9 SWAP10 ADD SWAP6 SWAP5 SWAP2 SWAP1 SWAP2 ADD SWAP3 ADD SWAP1 PUSH2 0x2465 JUMP JUMPDEST DUP3 MLOAD ISZERO ISZERO DUP5 MSTORE SWAP3 DUP7 ADD SWAP3 SWAP2 DUP7 ADD SWAP2 PUSH1 0x1 ADD PUSH2 0x243B JUMP JUMPDEST PUSH1 0xFF PUSH1 0x2 SLOAD AND PUSH2 0x24FB JUMPI JUMP JUMPDEST PUSH1 0x40 MLOAD PUSH3 0x461BCD PUSH1 0xE5 SHL DUP2 MSTORE PUSH1 0x20 PUSH1 0x4 DUP3 ADD MSTORE PUSH1 0x10 PUSH1 0x24 DUP3 ADD MSTORE PUSH16 0x14185D5CD8589B194E881C185D5CD959 PUSH1 0x82 SHL PUSH1 0x44 DUP3 ADD MSTORE PUSH1 0x64 SWAP1 REVERT JUMPDEST PUSH1 0x2 PUSH1 0x1 SLOAD EQ PUSH2 0x2544 JUMPI PUSH1 0x2 PUSH1 0x1 SSTORE JUMP JUMPDEST PUSH1 0x40 MLOAD PUSH3 0x461BCD PUSH1 0xE5 SHL DUP2 MSTORE PUSH1 0x20 PUSH1 0x4 DUP3 ADD MSTORE PUSH1 0x1F PUSH1 0x24 DUP3 ADD MSTORE PUSH32 0x5265656E7472616E637947756172643A207265656E7472616E742063616C6C00 PUSH1 0x44 DUP3 ADD MSTORE PUSH1 0x64 SWAP1 REVERT JUMPDEST DUP2 SELFBALANCE LT PUSH2 0x2644 JUMPI PUSH1 0x0 SWAP2 DUP3 SWAP2 DUP3 SWAP2 DUP3 SWAP2 PUSH1 0x1 PUSH1 0x1 PUSH1 0xA0 SHL SUB AND GAS CALL RETURNDATASIZE ISZERO PUSH2 0x263F JUMPI RETURNDATASIZE PUSH2 0x25B4 DUP2 PUSH2 0x1CC6 JUMP JUMPDEST SWAP1 PUSH2 0x25C2 PUSH1 0x40 MLOAD SWAP3 DUP4 PUSH2 0x1CA5 JUMP JUMPDEST DUP2 MSTORE PUSH1 0x0 PUSH1 0x20 RETURNDATASIZE SWAP3 ADD RETURNDATACOPY JUMPDEST ISZERO PUSH2 0x25D4 JUMPI JUMP JUMPDEST PUSH1 0x40 MLOAD PUSH3 0x461BCD PUSH1 0xE5 SHL DUP2 MSTORE PUSH1 0x20 PUSH1 0x4 DUP3 ADD MSTORE PUSH1 0x3A PUSH1 0x24 DUP3 ADD MSTORE PUSH32 0x416464726573733A20756E61626C6520746F2073656E642076616C75652C2072 PUSH1 0x44 DUP3 ADD MSTORE PUSH32 0x6563697069656E74206D61792068617665207265766572746564000000000000 PUSH1 0x64 DUP3 ADD MSTORE PUSH1 0x84 SWAP1 REVERT JUMPDEST PUSH2 0x25CD JUMP JUMPDEST PUSH1 0x40 MLOAD PUSH3 0x461BCD PUSH1 0xE5 SHL DUP2 MSTORE PUSH1 0x20 PUSH1 0x4 DUP3 ADD MSTORE PUSH1 0x1D PUSH1 0x24 DUP3 ADD MSTORE PUSH32 0x416464726573733A20696E73756666696369656E742062616C616E6365000000 PUSH1 0x44 DUP3 ADD MSTORE PUSH1 0x64 SWAP1 REVERT JUMPDEST PUSH1 0x40 MLOAD SWAP1 PUSH2 0x2696 DUP3 PUSH2 0x1C6F JUMP JUMPDEST PUSH1 0x3B DUP3 MSTORE PUSH32 0x7373206D757374206E6F74206265207A65726F20616464726573730000000000 PUSH1 0x40 DUP4 PUSH32 0x47424D61726B6574706C6163653A206E6674436F6E7472616374206164647265 PUSH1 0x20 DUP3 ADD MSTORE ADD MSTORE JUMP JUMPDEST ADDRESS PUSH32 0x0 PUSH1 0x1 PUSH1 0x1 PUSH1 0xA0 SHL SUB AND EQ DUP1 PUSH2 0x27E9 JUMPI JUMPDEST ISZERO PUSH2 0x2743 JUMPI PUSH32 0x0 SWAP1 JUMP JUMPDEST PUSH1 0x40 MLOAD PUSH1 0x20 DUP2 ADD SWAP1 PUSH32 0x0 DUP3 MSTORE PUSH32 0x0 PUSH1 0x40 DUP3 ADD MSTORE PUSH32 0x0 PUSH1 0x60 DUP3 ADD MSTORE CHAINID PUSH1 0x80 DUP3 ADD MSTORE ADDRESS PUSH1 0xA0 DUP3 ADD MSTORE PUSH1 0xA0 DUP2 MSTORE PUSH1 0xC0 DUP2 ADD DUP2 DUP2 LT PUSH1 0x1 PUSH1 0x1 PUSH1 0x40 SHL SUB DUP3 GT OR PUSH2 0x1A52 JUMPI PUSH1 0x40 MSTORE MLOAD SWAP1 KECCAK256 SWAP1 JUMP JUMPDEST POP PUSH32 0x0 CHAINID EQ PUSH2 0x271A JUMP JUMPDEST PUSH1 0x5 DUP2 LT ISZERO PUSH2 0x2916 JUMPI DUP1 PUSH2 0x2823 JUMPI POP JUMP JUMPDEST PUSH1 0x1 DUP2 SUB PUSH2 0x2870 JUMPI PUSH1 0x40 MLOAD PUSH3 0x461BCD PUSH1 0xE5 SHL DUP2 MSTORE PUSH1 0x20 PUSH1 0x4 DUP3 ADD MSTORE PUSH1 0x18 PUSH1 0x24 DUP3 ADD MSTORE PUSH32 0x45434453413A20696E76616C6964207369676E61747572650000000000000000 PUSH1 0x44 DUP3 ADD MSTORE PUSH1 0x64 SWAP1 REVERT JUMPDEST PUSH1 0x2 DUP2 SUB PUSH2 0x28BD JUMPI PUSH1 0x40 MLOAD PUSH3 0x461BCD PUSH1 0xE5 SHL DUP2 MSTORE PUSH1 0x20 PUSH1 0x4 DUP3 ADD MSTORE PUSH1 0x1F PUSH1 0x24 DUP3 ADD MSTORE PUSH32 0x45434453413A20696E76616C6964207369676E6174757265206C656E67746800 PUSH1 0x44 DUP3 ADD MSTORE PUSH1 0x64 SWAP1 REVERT JUMPDEST PUSH1 0x3 EQ PUSH2 0x28C6 JUMPI JUMP JUMPDEST PUSH1 0x40 MLOAD PUSH3 0x461BCD PUSH1 0xE5 SHL DUP2 MSTORE PUSH1 0x20 PUSH1 0x4 DUP3 ADD MSTORE PUSH1 0x22 PUSH1 0x24 DUP3 ADD MSTORE PUSH32 0x45434453413A20696E76616C6964207369676E6174757265202773272076616C PUSH1 0x44 DUP3 ADD MSTORE PUSH2 0x7565 PUSH1 0xF0 SHL PUSH1 0x64 DUP3 ADD MSTORE PUSH1 0x84 SWAP1 REVERT JUMPDEST PUSH4 0x4E487B71 PUSH1 0xE0 SHL PUSH1 0x0 MSTORE PUSH1 0x21 PUSH1 0x4 MSTORE PUSH1 0x24 PUSH1 0x0 REVERT JUMPDEST SWAP1 PUSH1 0x41 DUP2 MLOAD EQ PUSH1 0x0 EQ PUSH2 0x295A JUMPI PUSH2 0x2956 SWAP2 PUSH1 0x20 DUP3 ADD MLOAD SWAP1 PUSH1 0x60 PUSH1 0x40 DUP5 ADD MLOAD SWAP4 ADD MLOAD PUSH1 0x0 BYTE SWAP1 PUSH2 0x2964 JUMP JUMPDEST SWAP1 SWAP2 JUMP JUMPDEST POP POP PUSH1 0x0 SWAP1 PUSH1 0x2 SWAP1 JUMP JUMPDEST SWAP3 SWAP2 SWAP1 PUSH32 0x7FFFFFFFFFFFFFFFFFFFFFFFFFFFFFFF5D576E7357A4501DDFE92F46681B20A0 DUP4 GT PUSH2 0x29E7 JUMPI SWAP2 PUSH1 0x80 SWAP5 SWAP4 SWAP2 PUSH1 0xFF PUSH1 0x20 SWAP5 PUSH1 0x40 MLOAD SWAP5 DUP6 MSTORE AND DUP5 DUP5 ADD MSTORE PUSH1 0x40 DUP4 ADD MSTORE PUSH1 0x60 DUP3 ADD MSTORE PUSH1 0x0 SWAP4 DUP5 SWAP2 DUP3 DUP1 MSTORE PUSH1 0x1 GAS STATICCALL ISZERO PUSH2 0x29DA JUMPI DUP2 MLOAD PUSH1 0x1 PUSH1 0x1 PUSH1 0xA0 SHL SUB DUP2 AND ISZERO PUSH2 0x29D4 JUMPI SWAP2 SWAP1 JUMP JUMPDEST POP PUSH1 0x1 SWAP1 JUMP JUMPDEST POP PUSH1 0x40 MLOAD SWAP1 RETURNDATASIZE SWAP1 DUP3 RETURNDATACOPY RETURNDATASIZE SWAP1 REVERT JUMPDEST POP POP POP POP PUSH1 0x0 SWAP1 PUSH1 0x3 SWAP1 JUMP JUMPDEST PUSH1 0x1 DUP1 PUSH1 0xA0 SHL SUB DUP1 DUP3 MLOAD AND SWAP2 PUSH1 0x20 DUP2 ADD MLOAD SWAP2 DUP1 PUSH1 0x40 DUP4 ADD MLOAD AND SWAP1 DUP1 PUSH1 0x60 DUP5 ADD MLOAD AND SWAP1 PUSH1 0x80 DUP5 ADD MLOAD ISZERO ISZERO SWAP1 PUSH1 0xA0 DUP6 ADD MLOAD PUSH1 0xC0 DUP7 ADD MLOAD PUSH1 0x20 DUP2 MLOAD SWAP2 ADD KECCAK256 PUSH1 0xE0 DUP8 ADD MLOAD SWAP2 PUSH2 0x100 DUP9 ADD MLOAD SWAP4 PUSH2 0x120 DUP10 ADD MLOAD AND SWAP5 PUSH1 0x1 PUSH1 0x1 PUSH1 0x60 SHL SUB SWAP7 DUP8 PUSH2 0x140 DUP12 ADD MLOAD AND SWAP8 PUSH2 0x160 DUP12 ADD MLOAD AND SWAP9 PUSH2 0x1A0 PUSH2 0x180 DUP13 ADD MLOAD SWAP12 ADD MLOAD SWAP12 PUSH1 0x60 PUSH1 0x40 MLOAD SWAP15 DUP16 SWAP1 PUSH32 0x51A2C7A72CA7CCBF8EE583E8EEAEDE48C40BFD027939C3CBD4F474227D6B059A PUSH1 0x20 DUP4 ADD MSTORE PUSH1 0x40 DUP3 ADD MSTORE ADD MSTORE PUSH1 0x80 DUP14 ADD MSTORE PUSH1 0xA0 DUP13 ADD MSTORE PUSH1 0xC0 DUP12 ADD MSTORE PUSH1 0xE0 DUP11 ADD MSTORE PUSH2 0x100 DUP10 ADD MSTORE PUSH2 0x120 DUP9 ADD MSTORE PUSH2 0x140 DUP8 ADD MSTORE PUSH2 0x160 DUP7 ADD MSTORE PUSH2 0x180 DUP6 ADD MSTORE PUSH2 0x1A0 DUP5 ADD MSTORE PUSH2 0x1C0 DUP4 ADD MSTORE PUSH2 0x1E0 SWAP1 DUP2 DUP4 ADD MSTORE DUP2 MSTORE PUSH2 0x200 DUP2 ADD DUP2 DUP2 LT PUSH1 0x1 PUSH1 0x1 PUSH1 0x40 SHL SUB DUP3 GT OR PUSH2 0x1A52 JUMPI PUSH1 0x40 MSTORE PUSH1 0x20 DUP2 MLOAD SWAP2 ADD KECCAK256 SWAP1 JUMP INVALID LOG2 PUSH5 0x6970667358 0x22 SLT KECCAK256 SWAP14 0xDB 0xE8 0xAF 0xBC 0xDB SWAP8 0xE1 SELFBALANCE PUSH1 0x5C EXTCODECOPY LOG4 0xBE DUP14 0x49 PUSH26 0x89A4E85FE0631553133E57E67201F764736F6C63430008110033 "},"methodIdentifiers":{"DEFAULT_ADMIN_ROLE()":"a217fddf","buyItems(((address,uint256,address,address,bool,uint256,string,uint256,uint256,address,uint96,uint96,uint256,uint256),uint256,bytes)[])":"02d94ca8","cancelOrders((address,uint256,address,address,bool,uint256,string,uint256,uint256,address,uint96,uint96,uint256,uint256)[])":"9aefa503","gbNftContracts(address)":"27df5389","getRoleAdmin(bytes32)":"248a9ca3","grantRole(bytes32,address)":"2f2ff15d","hasRole(bytes32,address)":"91d14854","orderCancelled(bytes32)":"5889bf5e","orderProcessed(bytes32)":"68b35a13","pause()":"8456cb59","paused()":"5c975abb","platformFeeFromCharity()":"df128e9e","platformFeeFromSeller()":"92cacf41","renounceRole(bytes32,address)":"36568abe","revokeRole(bytes32,address)":"d547741f","setAdminWallet(address)":"35082933","setNftContractAddress(address,bool)":"c0dd3695","setPlatformFee(uint96,uint8)":"35daf728","supportsInterface(bytes4)":"01ffc9a7","unpause()":"3f4ba83a","updateTokenURI(address,uint256,string)":"0fcd7f8f"}},"storageLayout":{"storage":[{"astId":24,"contract":"contracts/GBMarketplace.sol:GBMarketplace","label":"_roles","offset":0,"slot":"0","type":"t_mapping(t_bytes32,t_struct(RoleData)19_storage)"},{"astId":526,"contract":"contracts/GBMarketplace.sol:GBMarketplace","label":"_status","offset":0,"slot":"1","type":"t_uint256"},{"astId":425,"contract":"contracts/GBMarketplace.sol:GBMarketplace","label":"_paused","offset":0,"slot":"2","type":"t_bool"},{"astId":2838,"contract":"contracts/GBMarketplace.sol:GBMarketplace","label":"gbNftContracts","offset":0,"slot":"3","type":"t_mapping(t_address,t_bool)"},{"astId":2842,"contract":"contracts/GBMarketplace.sol:GBMarketplace","label":"orderCancelled","offset":0,"slot":"4","type":"t_mapping(t_bytes32,t_bool)"},{"astId":2846,"contract":"contracts/GBMarketplace.sol:GBMarketplace","label":"orderProcessed","offset":0,"slot":"5","type":"t_mapping(t_bytes32,t_bool)"},{"astId":2848,"contract":"contracts/GBMarketplace.sol:GBMarketplace","label":"adminWallet","offset":0,"slot":"6","type":"t_address"},{"astId":2851,"contract":"contracts/GBMarketplace.sol:GBMarketplace","label":"platformFeeFromSeller","offset":20,"slot":"6","type":"t_uint96"},{"astId":2854,"contract":"contracts/GBMarketplace.sol:GBMarketplace","label":"platformFeeFromCharity","offset":0,"slot":"7","type":"t_uint96"}],"types":{"t_address":{"encoding":"inplace","label":"address","numberOfBytes":"20"},"t_bool":{"encoding":"inplace","label":"bool","numberOfBytes":"1"},"t_bytes32":{"encoding":"inplace","label":"bytes32","numberOfBytes":"32"},"t_mapping(t_address,t_bool)":{"encoding":"mapping","key":"t_address","label":"mapping(address => bool)","numberOfBytes":"32","value":"t_bool"},"t_mapping(t_bytes32,t_bool)":{"encoding":"mapping","key":"t_bytes32","label":"mapping(bytes32 => bool)","numberOfBytes":"32","value":"t_bool"},"t_mapping(t_bytes32,t_struct(RoleData)19_storage)":{"encoding":"mapping","key":"t_bytes32","label":"mapping(bytes32 => struct AccessControl.RoleData)","numberOfBytes":"32","value":"t_struct(RoleData)19_storage"},"t_struct(RoleData)19_storage":{"encoding":"inplace","label":"struct AccessControl.RoleData","members":[{"astId":16,"contract":"contracts/GBMarketplace.sol:GBMarketplace","label":"members","offset":0,"slot":"0","type":"t_mapping(t_address,t_bool)"},{"astId":18,"contract":"contracts/GBMarketplace.sol:GBMarketplace","label":"adminRole","offset":0,"slot":"1","type":"t_bytes32"}],"numberOfBytes":"64"},"t_uint256":{"encoding":"inplace","label":"uint256","numberOfBytes":"32"},"t_uint96":{"encoding":"inplace","label":"uint96","numberOfBytes":"12"}}}}}}