{"contracts/library/Domain.sol":{"Domain":{"abi":[{"inputs":[],"name":"ORDER_ITEM_TYPEHASH","outputs":[{"internalType":"bytes32","name":"","type":"bytes32"}],"stateMutability":"view","type":"function"}],"evm":{"bytecode":{"linkReferences":{},"object":"608080604052346018576094908161001e823930815050f35b600080fdfe6080806040526004361015601257600080fd5b60003560e01c63b96aeab114602657600080fd5b6000366003190112605957807f51a2c7a72ca7ccbf8ee583e8eeaede48c40bfd027939c3cbd4f474227d6b059a60209252f35b600080fdfea26469706673582212203b5175d09cda0dc75d6f3614bf5c38cb97e93bb8f5a826e43ac201452efa6aaf64736f6c63430008110033","opcodes":"PUSH1 0x80 DUP1 PUSH1 0x40 MSTORE CALLVALUE PUSH1 0x18 JUMPI PUSH1 0x94 SWAP1 DUP2 PUSH2 0x1E DUP3 CODECOPY ADDRESS DUP2 POP POP RETURN JUMPDEST PUSH1 0x0 DUP1 REVERT INVALID PUSH1 0x80 DUP1 PUSH1 0x40 MSTORE PUSH1 0x4 CALLDATASIZE LT ISZERO PUSH1 0x12 JUMPI PUSH1 0x0 DUP1 REVERT JUMPDEST PUSH1 0x0 CALLDATALOAD PUSH1 0xE0 SHR PUSH4 0xB96AEAB1 EQ PUSH1 0x26 JUMPI PUSH1 0x0 DUP1 REVERT JUMPDEST PUSH1 0x0 CALLDATASIZE PUSH1 0x3 NOT ADD SLT PUSH1 0x59 JUMPI DUP1 PUSH32 0x51A2C7A72CA7CCBF8EE583E8EEAEDE48C40BFD027939C3CBD4F474227D6B059A PUSH1 0x20 SWAP3 MSTORE RETURN JUMPDEST PUSH1 0x0 DUP1 REVERT INVALID LOG2 PUSH5 0x6970667358 0x22 SLT KECCAK256 EXTCODESIZE MLOAD PUSH22 0xD09CDA0DC75D6F3614BF5C38CB97E93BB8F5A826E43A 0xC2 ADD GASLIMIT 0x2E STATICCALL PUSH11 0xAF64736F6C634300081100 CALLER "},"methodIdentifiers":{"ORDER_ITEM_TYPEHASH()":"b96aeab1"}},"storageLayout":{"storage":[],"types":null}}}}