{"contracts/GBPrimaryCollection.sol":{"GBPrimaryCollection":{"abi":[{"inputs":[{"internalType":"string","name":"name_","type":"string"},{"internalType":"string","name":"symbol_","type":"string"},{"internalType":"address","name":"owner_","type":"address"}],"stateMutability":"nonpayable","type":"constructor"},{"inputs":[],"name":"ApprovalCallerNotOwnerNorApproved","type":"error"},{"inputs":[],"name":"ApprovalQueryForNonexistentToken","type":"error"},{"inputs":[],"name":"BalanceQueryForZeroAddress","type":"error"},{"inputs":[],"name":"MintERC2309QuantityExceedsLimit","type":"error"},{"inputs":[],"name":"MintToZeroAddress","type":"error"},{"inputs":[],"name":"MintZeroQuantity","type":"error"},{"inputs":[],"name":"OwnerQueryForNonexistentToken","type":"error"},{"inputs":[],"name":"OwnershipNotInitializedForExtraData","type":"error"},{"inputs":[],"name":"TransferCallerNotOwnerNorApproved","type":"error"},{"inputs":[],"name":"TransferFromIncorrectOwner","type":"error"},{"inputs":[],"name":"TransferToNonERC721ReceiverImplementer","type":"error"},{"inputs":[],"name":"TransferToZeroAddress","type":"error"},{"inputs":[],"name":"URIQueryForNonexistentToken","type":"error"},{"anonymous":false,"inputs":[{"indexed":true,"internalType":"address","name":"owner","type":"address"},{"indexed":true,"internalType":"address","name":"approved","type":"address"},{"indexed":true,"internalType":"uint256","name":"tokenId","type":"uint256"}],"name":"Approval","type":"event"},{"anonymous":false,"inputs":[{"indexed":true,"internalType":"address","name":"owner","type":"address"},{"indexed":true,"internalType":"address","name":"operator","type":"address"},{"indexed":false,"internalType":"bool","name":"approved","type":"bool"}],"name":"ApprovalForAll","type":"event"},{"anonymous":false,"inputs":[{"indexed":true,"internalType":"uint256","name":"fromTokenId","type":"uint256"},{"indexed":false,"internalType":"uint256","name":"toTokenId","type":"uint256"},{"indexed":true,"internalType":"address","name":"from","type":"address"},{"indexed":true,"internalType":"address","name":"to","type":"address"}],"name":"ConsecutiveTransfer","type":"event"},{"anonymous":false,"inputs":[{"indexed":false,"internalType":"address","name":"mintAddress","type":"address"},{"indexed":false,"internalType":"uint256","name":"tokenId","type":"uint256"}],"name":"MintedNFT","type":"event"},{"anonymous":false,"inputs":[{"indexed":true,"internalType":"address","name":"previousOwner","type":"address"},{"indexed":true,"internalType":"address","name":"newOwner","type":"address"}],"name":"OwnershipTransferred","type":"event"},{"anonymous":false,"inputs":[{"indexed":false,"internalType":"string","name":"baseURI","type":"string"}],"name":"SetBaseURI","type":"event"},{"anonymous":false,"inputs":[{"indexed":true,"internalType":"address","name":"from","type":"address"},{"indexed":true,"internalType":"address","name":"to","type":"address"},{"indexed":true,"internalType":"uint256","name":"tokenId","type":"uint256"}],"name":"Transfer","type":"event"},{"inputs":[{"internalType":"address","name":"to","type":"address"},{"internalType":"uint256","name":"tokenId","type":"uint256"}],"name":"approve","outputs":[],"stateMutability":"payable","type":"function"},{"inputs":[{"internalType":"address","name":"owner","type":"address"}],"name":"balanceOf","outputs":[{"internalType":"uint256","name":"","type":"uint256"}],"stateMutability":"view","type":"function"},{"inputs":[{"internalType":"uint256","name":"tokenId","type":"uint256"}],"name":"getApproved","outputs":[{"internalType":"address","name":"","type":"address"}],"stateMutability":"view","type":"function"},{"inputs":[],"name":"getBaseURI","outputs":[{"internalType":"string","name":"","type":"string"}],"stateMutability":"view","type":"function"},{"inputs":[{"internalType":"address","name":"owner","type":"address"},{"internalType":"address","name":"operator","type":"address"}],"name":"isApprovedForAll","outputs":[{"internalType":"bool","name":"","type":"bool"}],"stateMutability":"view","type":"function"},{"inputs":[{"internalType":"address","name":"to","type":"address"},{"internalType":"uint256","name":"quantity","type":"uint256"}],"name":"mint","outputs":[],"stateMutability":"nonpayable","type":"function"},{"inputs":[],"name":"name","outputs":[{"internalType":"string","name":"","type":"string"}],"stateMutability":"view","type":"function"},{"inputs":[],"name":"owner","outputs":[{"internalType":"address","name":"","type":"address"}],"stateMutability":"view","type":"function"},{"inputs":[{"internalType":"uint256","name":"tokenId","type":"uint256"}],"name":"ownerOf","outputs":[{"internalType":"address","name":"","type":"address"}],"stateMutability":"view","type":"function"},{"inputs":[],"name":"renounceOwnership","outputs":[],"stateMutability":"nonpayable","type":"function"},{"inputs":[{"internalType":"uint256","name":"_tokenId","type":"uint256"},{"internalType":"uint256","name":"_salePrice","type":"uint256"}],"name":"royaltyInfo","outputs":[{"internalType":"address","name":"","type":"address"},{"internalType":"uint256","name":"","type":"uint256"}],"stateMutability":"view","type":"function"},{"inputs":[{"internalType":"address","name":"from","type":"address"},{"internalType":"address","name":"to","type":"address"},{"internalType":"uint256","name":"tokenId","type":"uint256"}],"name":"safeTransferFrom","outputs":[],"stateMutability":"payable","type":"function"},{"inputs":[{"internalType":"address","name":"from","type":"address"},{"internalType":"address","name":"to","type":"address"},{"internalType":"uint256","name":"tokenId","type":"uint256"},{"internalType":"bytes","name":"_data","type":"bytes"}],"name":"safeTransferFrom","outputs":[],"stateMutability":"payable","type":"function"},{"inputs":[{"internalType":"address","name":"operator","type":"address"},{"internalType":"bool","name":"approved","type":"bool"}],"name":"setApprovalForAll","outputs":[],"stateMutability":"nonpayable","type":"function"},{"inputs":[{"internalType":"string","name":"uri","type":"string"}],"name":"setBaseURI","outputs":[],"stateMutability":"nonpayable","type":"function"},{"inputs":[{"internalType":"bytes4","name":"interfaceId","type":"bytes4"}],"name":"supportsInterface","outputs":[{"internalType":"bool","name":"","type":"bool"}],"stateMutability":"view","type":"function"},{"inputs":[],"name":"symbol","outputs":[{"internalType":"string","name":"","type":"string"}],"stateMutability":"view","type":"function"},{"inputs":[{"internalType":"uint256","name":"tokenId","type":"uint256"}],"name":"tokenURI","outputs":[{"internalType":"string","name":"","type":"string"}],"stateMutability":"view","type":"function"},{"inputs":[],"name":"totalSupply","outputs":[{"internalType":"uint256","name":"","type":"uint256"}],"stateMutability":"view","type":"function"},{"inputs":[{"internalType":"address","name":"from","type":"address"},{"internalType":"address","name":"to","type":"address"},{"internalType":"uint256","name":"tokenId","type":"uint256"}],"name":"transferFrom","outputs":[],"stateMutability":"payable","type":"function"},{"inputs":[{"internalType":"address","name":"newOwner","type":"address"}],"name":"transferOwnership","outputs":[],"stateMutability":"nonpayable","type":"function"}],"evm":{"bytecode":{"linkReferences":{},"object":"6080604052346200033e5762001961803803806200001d8162000343565b9283398101906060818303126200033e5780516001600160401b0392908381116200033e57816200005091840162000369565b602091828401518581116200033e576040916200006f91860162000369565b930151926001600160a01b03841684036200033e578151908582116200025057600254916001938484811c9416801562000333575b868510146200022f578190601f94858111620002dc575b508690858311600114620002725760009262000266575b5050600019600383901b1c191690841b176002555b8051958611620002505760039384548481811c9116801562000245575b828210146200022f57838111620001e4575b50809287116001146200017857506200015c95926000928492836200016c575b50501b9160001990841b1c19161790555b600080556200015633620003db565b620003db565b60405161153c9081620004258239f35b01519250388062000136565b909591601f198316968560005282600020926000905b898210620001cc575050836200015c9810620001b3575b505050811b01905562000147565b015160001983861b60f8161c19169055388080620001a5565b8087859682949686015181550195019301906200018e565b856000528160002084808a0160051c820192848b1062000225575b0160051c019085905b8281106200021857505062000116565b6000815501859062000208565b92508192620001ff565b634e487b7160e01b600052602260045260246000fd5b90607f169062000104565b634e487b7160e01b600052604160045260246000fd5b015190503880620000d2565b90869350601f198316916002600052886000209260005b8a828210620002c55750508411620002ab575b505050811b01600255620000e7565b015160001960f88460031b161c191690553880806200029c565b8385015186558a9790950194938401930162000289565b9091506002600052866000208580850160051c82019289861062000329575b918891869594930160051c01915b82811062000319575050620000bb565b6000815585945088910162000309565b92508192620002fb565b93607f1693620000a4565b600080fd5b6040519190601f01601f191682016001600160401b038111838210176200025057604052565b919080601f840112156200033e5782516001600160401b03811162000250576020906200039f601f8201601f1916830162000343565b928184528282870101116200033e5760005b818110620003c757508260009394955001015290565b8581018301518482018401528201620003b1565b600a80546001600160a01b039283166001600160a01b0319821681179092559091167f8be0079c531659141344cd1fd0a4f28419497f9722a3daafe3b4186f6b6457e0600080a356fe60806040526004361015610013575b600080fd5b60003560e01c806301ffc9a7146101b757806306fdde03146101ae578063081812fc146101a5578063095ea7b31461019c57806318160ddd1461019357806323b872dd1461018a5780632a55205a1461018157806340c10f191461017857806342842e0e1461016f57806355f804b3146101665780636352211e1461015d57806370a0823114610154578063714c53981461014b578063715018a6146101425780638da5cb5b1461013957806395d89b4114610130578063a22cb46514610127578063b88d4fde1461011e578063c87b56dd14610115578063e985e9c51461010c5763f2fde38b1461010457600080fd5b61000e610d50565b5061000e610cf2565b5061000e610c24565b5061000e610b9f565b5061000e610a67565b5061000e6109bf565b5061000e610995565b5061000e610936565b5061000e610905565b5061000e6108a8565b5061000e610878565b5061000e6106ee565b5061000e6106ab565b5061000e6105d5565b5061000e61052a565b5061000e610515565b5061000e6104bc565b5061000e610404565b5061000e610383565b5061000e61029d565b5061000e6101d2565b6001600160e01b031981160361000e57565b503461000e57602036600319011261000e5760206004356101f2816101c0565b63ffffffff60e01b166301ffc9a760e01b8114908115610230575b811561021f575b506040519015158152f35b635b5e139f60e01b14905038610214565b6380ac58cd60e01b8114915061020d565b60005b8381106102545750506000910152565b8181015183820152602001610244565b9060209161027d81518092818552858086019101610241565b601f01601f1916010190565b90602061029a928181520190610264565b90565b503461000e576000806003193601126103805760405190806002546102c181610ebd565b8085529160019180831690811561035657506001146102fb575b6102f7856102eb81870382610b52565b60405191829182610289565b0390f35b9250600283527f405787fa12a823e0f2b7631cc41b3ba8828b3321ca811111fa75cd3aa3bb5ace5b82841061033e5750505081016020016102eb826102f76102db565b80546020858701810191909152909301928101610323565b8695506102f7969350602092506102eb94915060ff191682840152151560051b82010192936102db565b80fd5b503461000e57602036600319011261000e576004356103a1816110d3565b156103c6576000526006602052602060018060a01b0360406000205416604051908152f35b6040516333d1c03960e21b8152600490fd5b600435906001600160a01b038216820361000e57565b602435906001600160a01b038216820361000e57565b50604036600319011261000e576104196103d8565b6024356001600160a01b038061042e83611065565b1690813303610489575b600083815260066020526040812080546001600160a01b0319166001600160a01b0387161790559316907f8c5be1e5ebec7d5bd14f71427d1e84f3dd0314c0f7b2291e5b200ac8c7c3b9258480a480f35b600082815260076020908152604080832033845290915290205460ff16610438576040516367d9dca160e11b8152600490fd5b503461000e57600036600319011261000e5760206000546001549003604051908152f35b606090600319011261000e576001600160a01b0390600435828116810361000e5791602435908116810361000e579060443590565b50610528610522366104e0565b916110fc565b005b503461000e57604036600319011261000e5760243560043560005260096020526105576040600020610e98565b80519091906001600160a01b0316156105c5575b6bffffffffffffffffffffffff602083015116908181029181830414901517156105af579051604080516001600160a01b0390921682526127109092046020820152f35b634e487b7160e01b600052601160045260246000fd5b90506105cf610e72565b9061056b565b503461000e57604036600319011261000e576105ef6103d8565b6105f7610e1a565b6001600160a01b0381161561066757612710600054600154900311610623576105289060243590611431565b606460405162461bcd60e51b815260206004820152602060248201527f43616e6e6f74206d696e74206d6f7265207468616e203130303030204e4654736044820152fd5b606460405162461bcd60e51b815260206004820152602060248201527f41646472657373206d757374206e6f74206265207a65726f20616464726573736044820152fd5b506105286106b8366104e0565b90604051926020840184811067ffffffffffffffff8211176106e1575b604052600084526112ce565b6106e9610af6565b6106d5565b503461000e5760208060031936011261000e5767ffffffffffffffff9060043582811161000e573660238201121561000e57806004013592831161000e576024913683858401011161000e57610742610e1a565b61075684610751600b54610ebd565b610ef7565b600090601f85116001146107ca5750837f23c8c9488efebfd474e85a7956de6f39b17c7ab88502d42a623db2d8e382bbaa94846107b8936000926107bd575b50508160011b906000198360031b1c191617600b555b6040519384930183610f68565b0390a1005b8501013590508438610795565b600b60005290601f1985167f0175b7a638427703f0dbe7bb9bbf987a2551717b34e79f33b5b1008d1fa01db99282905b82821061085e5750509185917f23c8c9488efebfd474e85a7956de6f39b17c7ab88502d42a623db2d8e382bbaa966107b89410610842575b5050600181811b01600b556107ab565b8401850135600019600384901b60f8161c191690553880610832565b8060018596898395978a01013581550195019301906107fa565b503461000e57602036600319011261000e5760206001600160a01b0361089f600435611065565b16604051908152f35b503461000e57602036600319011261000e576001600160a01b036108ca6103d8565b1680156108f3576000526005602052602067ffffffffffffffff60406000205416604051908152f35b6040516323d3ad8160e21b8152600490fd5b503461000e57600036600319011261000e576102f7610922610f90565b604051918291602083526020830190610264565b503461000e5760008060031936011261038057610951610e1a565b600a80546001600160a01b0319811690915581906001600160a01b03167f8be0079c531659141344cd1fd0a4f28419497f9722a3daafe3b4186f6b6457e08280a380f35b503461000e57600036600319011261000e57600a546040516001600160a01b039091168152602090f35b503461000e576000806003193601126103805760405190806003546109e381610ebd565b808552916001918083169081156103565750600114610a0c576102f7856102eb81870382610b52565b9250600383527fc2575a0e9e593c00f959f8c92f12db2869c3395a3b0502d05e2516446f71f85b5b828410610a4f5750505081016020016102eb826102f76102db565b80546020858701810191909152909301928101610a34565b503461000e57604036600319011261000e57610a816103d8565b6024359081151580920361000e573360009081526007602090815260408083206001600160a01b0385168452909152902060ff1981541660ff841617905560405191825260018060a01b0316907f17307eab39ab6107e8899845ad3d59bd9653f200f220920489ca2b5937696c3160203392a3005b50634e487b7160e01b600052604160045260246000fd5b6040810190811067ffffffffffffffff821117610b2957604052565b610b31610af6565b604052565b6020810190811067ffffffffffffffff821117610b2957604052565b90601f8019910116810190811067ffffffffffffffff821117610b2957604052565b60209067ffffffffffffffff8111610b92575b601f01601f19160190565b610b9a610af6565b610b87565b50608036600319011261000e57610bb46103d8565b610bbc6103ee565b6064359167ffffffffffffffff831161000e573660238401121561000e57826004013591610be983610b74565b92610bf76040519485610b52565b808452366024828701011161000e57602081600092602461052898018388013785010152604435916112ce565b503461000e57602036600319011261000e57600435610c42816110d3565b15610ce057610c4f610f90565b805160009015610cc6575060405160a08101604052608081019260008452925b6000190192600a906030828206018553049283610c6f576102f79350610cb492610cba6102eb936080601f19948581019203018152604051958693602085019061104e565b9061104e565b03908101835282610b52565b6040516102f793509150610cd982610b36565b81526102eb565b604051630a14c4b560e41b8152600490fd5b503461000e57604036600319011261000e57602060ff610d44610d136103d8565b610d1b6103ee565b6001600160a01b0391821660009081526007865260408082209290931681526020919091522090565b54166040519015158152f35b503461000e57602036600319011261000e57610d6a6103d8565b610d72610e1a565b6001600160a01b03908116908115610dc657600a54826bffffffffffffffffffffffff60a01b821617600a55167f8be0079c531659141344cd1fd0a4f28419497f9722a3daafe3b4186f6b6457e0600080a3005b60405162461bcd60e51b815260206004820152602660248201527f4f776e61626c653a206e6577206f776e657220697320746865207a65726f206160448201526564647265737360d01b6064820152608490fd5b600a546001600160a01b03163303610e2e57565b606460405162461bcd60e51b815260206004820152602060248201527f4f776e61626c653a2063616c6c6572206973206e6f7420746865206f776e65726044820152fd5b60405190610e7f82610b0d565b6008546001600160a01b038116835260a01c6020830152565b90604051610ea581610b0d565b91546001600160a01b038116835260a01c6020830152565b90600182811c92168015610eed575b6020831014610ed757565b634e487b7160e01b600052602260045260246000fd5b91607f1691610ecc565b601f8111610f03575050565b600090600b82527f0175b7a638427703f0dbe7bb9bbf987a2551717b34e79f33b5b1008d1fa01db9906020601f850160051c83019410610f5e575b601f0160051c01915b828110610f5357505050565b818155600101610f47565b9092508290610f3e565b90918060409360208452816020850152848401376000828201840152601f01601f1916010190565b60405190600082600b5491610fa483610ebd565b8083529260019081811690811561102c5750600114610fcd575b50610fcb92500383610b52565b565b600b600090815291507f0175b7a638427703f0dbe7bb9bbf987a2551717b34e79f33b5b1008d1fa01db95b8483106110115750610fcb935050810160200138610fbe565b81935090816020925483858a01015201910190918592610ff8565b905060209250610fcb94915060ff191682840152151560051b82010138610fbe565b9061106160209282815194859201610241565b0190565b60008181548110611083575b604051636f96cda160e11b8152600490fd5b81526004906020918083526040928383205494600160e01b8616156110aa57505050611071565b93929190935b85156110be57505050505090565b600019018083528185528383205495506110b0565b600054811090816110e2575090565b90506000526004602052600160e01b604060002054161590565b9061110683611065565b6001600160a01b03838116928282168490036112bd5760008681526006602052604090208054909261114b6001600160a01b03881633908114908414171590565b1590565b611262575b8216958615611250576111a39361118192611246575b506001600160a01b0316600090815260056020526040902090565b80546000190190556001600160a01b0316600090815260056020526040902090565b80546001019055600160e11b804260a01b8517176111cb866000526004602052604060002090565b558116156111fc575b507fddf252ad1be2c89b69c2b068fc378daa952ba7f163c4a11628f55a4df523b3ef600080a4565b60018401611214816000526004602052604060002090565b5415611221575b506111d4565b600054811461121b5761123e906000526004602052604060002090565b55388061121b565b6000905538611166565b604051633a954ecd60e21b8152600490fd5b6112a661114761129f336112888b60018060a01b03166000526007602052604060002090565b9060018060a01b0316600052602052604060002090565b5460ff1690565b1561115057604051632ce44b5f60e11b8152600490fd5b60405162a1148160e81b8152600490fd5b9291906112dc8282866110fc565b803b6112e9575b50505050565b6112f293611388565b1561130057388080806112e3565b6040516368d2bf6b60e11b8152600490fd5b9081602091031261000e575161029a816101c0565b6001600160a01b03918216815291166020820152604081019190915260806060820181905261029a92910190610264565b3d15611383573d9061136982610b74565b916113776040519384610b52565b82523d6000602084013e565b606090565b926020916113b1936000604051809681958294630a85bd0160e11b9a8b85523360048601611327565b03926001600160a01b03165af160009181611401575b506113f3576113d4611358565b805190816113ee576040516368d2bf6b60e11b8152600490fd5b602001fd5b6001600160e01b0319161490565b61142391925060203d811161142a575b61141b8183610b52565b810190611312565b90386113c7565b503d611411565b9060009081549281156114f4576001600160a01b0381166000908152600560205260409020805468010000000000000001840201905560008481526004602052604090206001600160a01b03909116916001914260a01b83831460e11b1784179055840193817fddf252ad1be2c89b69c2b068fc378daa952ba7f163c4a11628f55a4df523b3ef91808587858180a4015b8581036114e557505050156114d45755565b604051622e076360e81b8152600490fd5b8083918587858180a4016114c2565b60405163b562e8dd60e01b8152600490fdfea264697066735822122041f3aff7650592f3b94c46661162318b01858c707c316d548b7633bad11ca08064736f6c63430008110033","opcodes":"PUSH1 0x80 PUSH1 0x40 MSTORE CALLVALUE PUSH3 0x33E JUMPI PUSH3 0x1961 DUP1 CODESIZE SUB DUP1 PUSH3 0x1D DUP2 PUSH3 0x343 JUMP JUMPDEST SWAP3 DUP4 CODECOPY DUP2 ADD SWAP1 PUSH1 0x60 DUP2 DUP4 SUB SLT PUSH3 0x33E JUMPI DUP1 MLOAD PUSH1 0x1 PUSH1 0x1 PUSH1 0x40 SHL SUB SWAP3 SWAP1 DUP4 DUP2 GT PUSH3 0x33E JUMPI DUP2 PUSH3 0x50 SWAP2 DUP5 ADD PUSH3 0x369 JUMP JUMPDEST PUSH1 0x20 SWAP2 DUP3 DUP5 ADD MLOAD DUP6 DUP2 GT PUSH3 0x33E JUMPI PUSH1 0x40 SWAP2 PUSH3 0x6F SWAP2 DUP7 ADD PUSH3 0x369 JUMP JUMPDEST SWAP4 ADD MLOAD SWAP3 PUSH1 0x1 PUSH1 0x1 PUSH1 0xA0 SHL SUB DUP5 AND DUP5 SUB PUSH3 0x33E JUMPI DUP2 MLOAD SWAP1 DUP6 DUP3 GT PUSH3 0x250 JUMPI PUSH1 0x2 SLOAD SWAP2 PUSH1 0x1 SWAP4 DUP5 DUP5 DUP2 SHR SWAP5 AND DUP1 ISZERO PUSH3 0x333 JUMPI JUMPDEST DUP7 DUP6 LT EQ PUSH3 0x22F JUMPI DUP2 SWAP1 PUSH1 0x1F SWAP5 DUP6 DUP2 GT PUSH3 0x2DC JUMPI JUMPDEST POP DUP7 SWAP1 DUP6 DUP4 GT PUSH1 0x1 EQ PUSH3 0x272 JUMPI PUSH1 0x0 SWAP3 PUSH3 0x266 JUMPI JUMPDEST POP POP PUSH1 0x0 NOT PUSH1 0x3 DUP4 SWAP1 SHL SHR NOT AND SWAP1 DUP5 SHL OR PUSH1 0x2 SSTORE JUMPDEST DUP1 MLOAD SWAP6 DUP7 GT PUSH3 0x250 JUMPI PUSH1 0x3 SWAP4 DUP5 SLOAD DUP5 DUP2 DUP2 SHR SWAP2 AND DUP1 ISZERO PUSH3 0x245 JUMPI JUMPDEST DUP3 DUP3 LT EQ PUSH3 0x22F JUMPI DUP4 DUP2 GT PUSH3 0x1E4 JUMPI JUMPDEST POP DUP1 SWAP3 DUP8 GT PUSH1 0x1 EQ PUSH3 0x178 JUMPI POP PUSH3 0x15C SWAP6 SWAP3 PUSH1 0x0 SWAP3 DUP5 SWAP3 DUP4 PUSH3 0x16C JUMPI JUMPDEST POP POP SHL SWAP2 PUSH1 0x0 NOT SWAP1 DUP5 SHL SHR NOT AND OR SWAP1 SSTORE JUMPDEST PUSH1 0x0 DUP1 SSTORE PUSH3 0x156 CALLER PUSH3 0x3DB JUMP JUMPDEST PUSH3 0x3DB JUMP JUMPDEST PUSH1 0x40 MLOAD PUSH2 0x153C SWAP1 DUP2 PUSH3 0x425 DUP3 CODECOPY RETURN JUMPDEST ADD MLOAD SWAP3 POP CODESIZE DUP1 PUSH3 0x136 JUMP JUMPDEST SWAP1 SWAP6 SWAP2 PUSH1 0x1F NOT DUP4 AND SWAP7 DUP6 PUSH1 0x0 MSTORE DUP3 PUSH1 0x0 KECCAK256 SWAP3 PUSH1 0x0 SWAP1 JUMPDEST DUP10 DUP3 LT PUSH3 0x1CC JUMPI POP POP DUP4 PUSH3 0x15C SWAP9 LT PUSH3 0x1B3 JUMPI JUMPDEST POP POP POP DUP2 SHL ADD SWAP1 SSTORE PUSH3 0x147 JUMP JUMPDEST ADD MLOAD PUSH1 0x0 NOT DUP4 DUP7 SHL PUSH1 0xF8 AND SHR NOT AND SWAP1 SSTORE CODESIZE DUP1 DUP1 PUSH3 0x1A5 JUMP JUMPDEST DUP1 DUP8 DUP6 SWAP7 DUP3 SWAP5 SWAP7 DUP7 ADD MLOAD DUP2 SSTORE ADD SWAP6 ADD SWAP4 ADD SWAP1 PUSH3 0x18E JUMP JUMPDEST DUP6 PUSH1 0x0 MSTORE DUP2 PUSH1 0x0 KECCAK256 DUP5 DUP1 DUP11 ADD PUSH1 0x5 SHR DUP3 ADD SWAP3 DUP5 DUP12 LT PUSH3 0x225 JUMPI JUMPDEST ADD PUSH1 0x5 SHR ADD SWAP1 DUP6 SWAP1 JUMPDEST DUP3 DUP2 LT PUSH3 0x218 JUMPI POP POP PUSH3 0x116 JUMP JUMPDEST PUSH1 0x0 DUP2 SSTORE ADD DUP6 SWAP1 PUSH3 0x208 JUMP JUMPDEST SWAP3 POP DUP2 SWAP3 PUSH3 0x1FF JUMP JUMPDEST PUSH4 0x4E487B71 PUSH1 0xE0 SHL PUSH1 0x0 MSTORE PUSH1 0x22 PUSH1 0x4 MSTORE PUSH1 0x24 PUSH1 0x0 REVERT JUMPDEST SWAP1 PUSH1 0x7F AND SWAP1 PUSH3 0x104 JUMP JUMPDEST PUSH4 0x4E487B71 PUSH1 0xE0 SHL PUSH1 0x0 MSTORE PUSH1 0x41 PUSH1 0x4 MSTORE PUSH1 0x24 PUSH1 0x0 REVERT JUMPDEST ADD MLOAD SWAP1 POP CODESIZE DUP1 PUSH3 0xD2 JUMP JUMPDEST SWAP1 DUP7 SWAP4 POP PUSH1 0x1F NOT DUP4 AND SWAP2 PUSH1 0x2 PUSH1 0x0 MSTORE DUP9 PUSH1 0x0 KECCAK256 SWAP3 PUSH1 0x0 JUMPDEST DUP11 DUP3 DUP3 LT PUSH3 0x2C5 JUMPI POP POP DUP5 GT PUSH3 0x2AB JUMPI JUMPDEST POP POP POP DUP2 SHL ADD PUSH1 0x2 SSTORE PUSH3 0xE7 JUMP JUMPDEST ADD MLOAD PUSH1 0x0 NOT PUSH1 0xF8 DUP5 PUSH1 0x3 SHL AND SHR NOT AND SWAP1 SSTORE CODESIZE DUP1 DUP1 PUSH3 0x29C JUMP JUMPDEST DUP4 DUP6 ADD MLOAD DUP7 SSTORE DUP11 SWAP8 SWAP1 SWAP6 ADD SWAP5 SWAP4 DUP5 ADD SWAP4 ADD PUSH3 0x289 JUMP JUMPDEST SWAP1 SWAP2 POP PUSH1 0x2 PUSH1 0x0 MSTORE DUP7 PUSH1 0x0 KECCAK256 DUP6 DUP1 DUP6 ADD PUSH1 0x5 SHR DUP3 ADD SWAP3 DUP10 DUP7 LT PUSH3 0x329 JUMPI JUMPDEST SWAP2 DUP9 SWAP2 DUP7 SWAP6 SWAP5 SWAP4 ADD PUSH1 0x5 SHR ADD SWAP2 JUMPDEST DUP3 DUP2 LT PUSH3 0x319 JUMPI POP POP PUSH3 0xBB JUMP JUMPDEST PUSH1 0x0 DUP2 SSTORE DUP6 SWAP5 POP DUP9 SWAP2 ADD PUSH3 0x309 JUMP JUMPDEST SWAP3 POP DUP2 SWAP3 PUSH3 0x2FB JUMP JUMPDEST SWAP4 PUSH1 0x7F AND SWAP4 PUSH3 0xA4 JUMP JUMPDEST PUSH1 0x0 DUP1 REVERT JUMPDEST PUSH1 0x40 MLOAD SWAP2 SWAP1 PUSH1 0x1F ADD PUSH1 0x1F NOT AND DUP3 ADD PUSH1 0x1 PUSH1 0x1 PUSH1 0x40 SHL SUB DUP2 GT DUP4 DUP3 LT OR PUSH3 0x250 JUMPI PUSH1 0x40 MSTORE JUMP JUMPDEST SWAP2 SWAP1 DUP1 PUSH1 0x1F DUP5 ADD SLT ISZERO PUSH3 0x33E JUMPI DUP3 MLOAD PUSH1 0x1 PUSH1 0x1 PUSH1 0x40 SHL SUB DUP2 GT PUSH3 0x250 JUMPI PUSH1 0x20 SWAP1 PUSH3 0x39F PUSH1 0x1F DUP3 ADD PUSH1 0x1F NOT AND DUP4 ADD PUSH3 0x343 JUMP JUMPDEST SWAP3 DUP2 DUP5 MSTORE DUP3 DUP3 DUP8 ADD ADD GT PUSH3 0x33E JUMPI PUSH1 0x0 JUMPDEST DUP2 DUP2 LT PUSH3 0x3C7 JUMPI POP DUP3 PUSH1 0x0 SWAP4 SWAP5 SWAP6 POP ADD ADD MSTORE SWAP1 JUMP JUMPDEST DUP6 DUP2 ADD DUP4 ADD MLOAD DUP5 DUP3 ADD DUP5 ADD MSTORE DUP3 ADD PUSH3 0x3B1 JUMP JUMPDEST PUSH1 0xA DUP1 SLOAD PUSH1 0x1 PUSH1 0x1 PUSH1 0xA0 SHL SUB SWAP3 DUP4 AND PUSH1 0x1 PUSH1 0x1 PUSH1 0xA0 SHL SUB NOT DUP3 AND DUP2 OR SWAP1 SWAP3 SSTORE SWAP1 SWAP2 AND PUSH32 0x8BE0079C531659141344CD1FD0A4F28419497F9722A3DAAFE3B4186F6B6457E0 PUSH1 0x0 DUP1 LOG3 JUMP INVALID PUSH1 0x80 PUSH1 0x40 MSTORE PUSH1 0x4 CALLDATASIZE LT ISZERO PUSH2 0x13 JUMPI JUMPDEST PUSH1 0x0 DUP1 REVERT JUMPDEST PUSH1 0x0 CALLDATALOAD PUSH1 0xE0 SHR DUP1 PUSH4 0x1FFC9A7 EQ PUSH2 0x1B7 JUMPI DUP1 PUSH4 0x6FDDE03 EQ PUSH2 0x1AE JUMPI DUP1 PUSH4 0x81812FC EQ PUSH2 0x1A5 JUMPI DUP1 PUSH4 0x95EA7B3 EQ PUSH2 0x19C JUMPI DUP1 PUSH4 0x18160DDD EQ PUSH2 0x193 JUMPI DUP1 PUSH4 0x23B872DD EQ PUSH2 0x18A JUMPI DUP1 PUSH4 0x2A55205A EQ PUSH2 0x181 JUMPI DUP1 PUSH4 0x40C10F19 EQ PUSH2 0x178 JUMPI DUP1 PUSH4 0x42842E0E EQ PUSH2 0x16F JUMPI DUP1 PUSH4 0x55F804B3 EQ PUSH2 0x166 JUMPI DUP1 PUSH4 0x6352211E EQ PUSH2 0x15D JUMPI DUP1 PUSH4 0x70A08231 EQ PUSH2 0x154 JUMPI DUP1 PUSH4 0x714C5398 EQ PUSH2 0x14B JUMPI DUP1 PUSH4 0x715018A6 EQ PUSH2 0x142 JUMPI DUP1 PUSH4 0x8DA5CB5B EQ PUSH2 0x139 JUMPI DUP1 PUSH4 0x95D89B41 EQ PUSH2 0x130 JUMPI DUP1 PUSH4 0xA22CB465 EQ PUSH2 0x127 JUMPI DUP1 PUSH4 0xB88D4FDE EQ PUSH2 0x11E JUMPI DUP1 PUSH4 0xC87B56DD EQ PUSH2 0x115 JUMPI DUP1 PUSH4 0xE985E9C5 EQ PUSH2 0x10C JUMPI PUSH4 0xF2FDE38B EQ PUSH2 0x104 JUMPI PUSH1 0x0 DUP1 REVERT JUMPDEST PUSH2 0xE PUSH2 0xD50 JUMP JUMPDEST POP PUSH2 0xE PUSH2 0xCF2 JUMP JUMPDEST POP PUSH2 0xE PUSH2 0xC24 JUMP JUMPDEST POP PUSH2 0xE PUSH2 0xB9F JUMP JUMPDEST POP PUSH2 0xE PUSH2 0xA67 JUMP JUMPDEST POP PUSH2 0xE PUSH2 0x9BF JUMP JUMPDEST POP PUSH2 0xE PUSH2 0x995 JUMP JUMPDEST POP PUSH2 0xE PUSH2 0x936 JUMP JUMPDEST POP PUSH2 0xE PUSH2 0x905 JUMP JUMPDEST POP PUSH2 0xE PUSH2 0x8A8 JUMP JUMPDEST POP PUSH2 0xE PUSH2 0x878 JUMP JUMPDEST POP PUSH2 0xE PUSH2 0x6EE JUMP JUMPDEST POP PUSH2 0xE PUSH2 0x6AB JUMP JUMPDEST POP PUSH2 0xE PUSH2 0x5D5 JUMP JUMPDEST POP PUSH2 0xE PUSH2 0x52A JUMP JUMPDEST POP PUSH2 0xE PUSH2 0x515 JUMP JUMPDEST POP PUSH2 0xE PUSH2 0x4BC JUMP JUMPDEST POP PUSH2 0xE PUSH2 0x404 JUMP JUMPDEST POP PUSH2 0xE PUSH2 0x383 JUMP JUMPDEST POP PUSH2 0xE PUSH2 0x29D JUMP JUMPDEST POP PUSH2 0xE PUSH2 0x1D2 JUMP JUMPDEST PUSH1 0x1 PUSH1 0x1 PUSH1 0xE0 SHL SUB NOT DUP2 AND SUB PUSH2 0xE JUMPI JUMP JUMPDEST POP CALLVALUE PUSH2 0xE JUMPI PUSH1 0x20 CALLDATASIZE PUSH1 0x3 NOT ADD SLT PUSH2 0xE JUMPI PUSH1 0x20 PUSH1 0x4 CALLDATALOAD PUSH2 0x1F2 DUP2 PUSH2 0x1C0 JUMP JUMPDEST PUSH4 0xFFFFFFFF PUSH1 0xE0 SHL AND PUSH4 0x1FFC9A7 PUSH1 0xE0 SHL DUP2 EQ SWAP1 DUP2 ISZERO PUSH2 0x230 JUMPI JUMPDEST DUP2 ISZERO PUSH2 0x21F JUMPI JUMPDEST POP PUSH1 0x40 MLOAD SWAP1 ISZERO ISZERO DUP2 MSTORE RETURN JUMPDEST PUSH4 0x5B5E139F PUSH1 0xE0 SHL EQ SWAP1 POP CODESIZE PUSH2 0x214 JUMP JUMPDEST PUSH4 0x80AC58CD PUSH1 0xE0 SHL DUP2 EQ SWAP2 POP PUSH2 0x20D JUMP JUMPDEST PUSH1 0x0 JUMPDEST DUP4 DUP2 LT PUSH2 0x254 JUMPI POP POP PUSH1 0x0 SWAP2 ADD MSTORE JUMP JUMPDEST DUP2 DUP2 ADD MLOAD DUP4 DUP3 ADD MSTORE PUSH1 0x20 ADD PUSH2 0x244 JUMP JUMPDEST SWAP1 PUSH1 0x20 SWAP2 PUSH2 0x27D DUP2 MLOAD DUP1 SWAP3 DUP2 DUP6 MSTORE DUP6 DUP1 DUP7 ADD SWAP2 ADD PUSH2 0x241 JUMP JUMPDEST PUSH1 0x1F ADD PUSH1 0x1F NOT AND ADD ADD SWAP1 JUMP JUMPDEST SWAP1 PUSH1 0x20 PUSH2 0x29A SWAP3 DUP2 DUP2 MSTORE ADD SWAP1 PUSH2 0x264 JUMP JUMPDEST SWAP1 JUMP JUMPDEST POP CALLVALUE PUSH2 0xE JUMPI PUSH1 0x0 DUP1 PUSH1 0x3 NOT CALLDATASIZE ADD SLT PUSH2 0x380 JUMPI PUSH1 0x40 MLOAD SWAP1 DUP1 PUSH1 0x2 SLOAD PUSH2 0x2C1 DUP2 PUSH2 0xEBD JUMP JUMPDEST DUP1 DUP6 MSTORE SWAP2 PUSH1 0x1 SWAP2 DUP1 DUP4 AND SWAP1 DUP2 ISZERO PUSH2 0x356 JUMPI POP PUSH1 0x1 EQ PUSH2 0x2FB JUMPI JUMPDEST PUSH2 0x2F7 DUP6 PUSH2 0x2EB DUP2 DUP8 SUB DUP3 PUSH2 0xB52 JUMP JUMPDEST PUSH1 0x40 MLOAD SWAP2 DUP3 SWAP2 DUP3 PUSH2 0x289 JUMP JUMPDEST SUB SWAP1 RETURN JUMPDEST SWAP3 POP PUSH1 0x2 DUP4 MSTORE PUSH32 0x405787FA12A823E0F2B7631CC41B3BA8828B3321CA811111FA75CD3AA3BB5ACE JUMPDEST DUP3 DUP5 LT PUSH2 0x33E JUMPI POP POP POP DUP2 ADD PUSH1 0x20 ADD PUSH2 0x2EB DUP3 PUSH2 0x2F7 PUSH2 0x2DB JUMP JUMPDEST DUP1 SLOAD PUSH1 0x20 DUP6 DUP8 ADD DUP2 ADD SWAP2 SWAP1 SWAP2 MSTORE SWAP1 SWAP4 ADD SWAP3 DUP2 ADD PUSH2 0x323 JUMP JUMPDEST DUP7 SWAP6 POP PUSH2 0x2F7 SWAP7 SWAP4 POP PUSH1 0x20 SWAP3 POP PUSH2 0x2EB SWAP5 SWAP2 POP PUSH1 0xFF NOT AND DUP3 DUP5 ADD MSTORE ISZERO ISZERO PUSH1 0x5 SHL DUP3 ADD ADD SWAP3 SWAP4 PUSH2 0x2DB JUMP JUMPDEST DUP1 REVERT JUMPDEST POP CALLVALUE PUSH2 0xE JUMPI PUSH1 0x20 CALLDATASIZE PUSH1 0x3 NOT ADD SLT PUSH2 0xE JUMPI PUSH1 0x4 CALLDATALOAD PUSH2 0x3A1 DUP2 PUSH2 0x10D3 JUMP JUMPDEST ISZERO PUSH2 0x3C6 JUMPI PUSH1 0x0 MSTORE PUSH1 0x6 PUSH1 0x20 MSTORE PUSH1 0x20 PUSH1 0x1 DUP1 PUSH1 0xA0 SHL SUB PUSH1 0x40 PUSH1 0x0 KECCAK256 SLOAD AND PUSH1 0x40 MLOAD SWAP1 DUP2 MSTORE RETURN JUMPDEST PUSH1 0x40 MLOAD PUSH4 0x33D1C039 PUSH1 0xE2 SHL DUP2 MSTORE PUSH1 0x4 SWAP1 REVERT JUMPDEST PUSH1 0x4 CALLDATALOAD SWAP1 PUSH1 0x1 PUSH1 0x1 PUSH1 0xA0 SHL SUB DUP3 AND DUP3 SUB PUSH2 0xE JUMPI JUMP JUMPDEST PUSH1 0x24 CALLDATALOAD SWAP1 PUSH1 0x1 PUSH1 0x1 PUSH1 0xA0 SHL SUB DUP3 AND DUP3 SUB PUSH2 0xE JUMPI JUMP JUMPDEST POP PUSH1 0x40 CALLDATASIZE PUSH1 0x3 NOT ADD SLT PUSH2 0xE JUMPI PUSH2 0x419 PUSH2 0x3D8 JUMP JUMPDEST PUSH1 0x24 CALLDATALOAD PUSH1 0x1 PUSH1 0x1 PUSH1 0xA0 SHL SUB DUP1 PUSH2 0x42E DUP4 PUSH2 0x1065 JUMP JUMPDEST AND SWAP1 DUP2 CALLER SUB PUSH2 0x489 JUMPI JUMPDEST PUSH1 0x0 DUP4 DUP2 MSTORE PUSH1 0x6 PUSH1 0x20 MSTORE PUSH1 0x40 DUP2 KECCAK256 DUP1 SLOAD PUSH1 0x1 PUSH1 0x1 PUSH1 0xA0 SHL SUB NOT AND PUSH1 0x1 PUSH1 0x1 PUSH1 0xA0 SHL SUB DUP8 AND OR SWAP1 SSTORE SWAP4 AND SWAP1 PUSH32 0x8C5BE1E5EBEC7D5BD14F71427D1E84F3DD0314C0F7B2291E5B200AC8C7C3B925 DUP5 DUP1 LOG4 DUP1 RETURN JUMPDEST PUSH1 0x0 DUP3 DUP2 MSTORE PUSH1 0x7 PUSH1 0x20 SWAP1 DUP2 MSTORE PUSH1 0x40 DUP1 DUP4 KECCAK256 CALLER DUP5 MSTORE SWAP1 SWAP2 MSTORE SWAP1 KECCAK256 SLOAD PUSH1 0xFF AND PUSH2 0x438 JUMPI PUSH1 0x40 MLOAD PUSH4 0x67D9DCA1 PUSH1 0xE1 SHL DUP2 MSTORE PUSH1 0x4 SWAP1 REVERT JUMPDEST POP CALLVALUE PUSH2 0xE JUMPI PUSH1 0x0 CALLDATASIZE PUSH1 0x3 NOT ADD SLT PUSH2 0xE JUMPI PUSH1 0x20 PUSH1 0x0 SLOAD PUSH1 0x1 SLOAD SWAP1 SUB PUSH1 0x40 MLOAD SWAP1 DUP2 MSTORE RETURN JUMPDEST PUSH1 0x60 SWAP1 PUSH1 0x3 NOT ADD SLT PUSH2 0xE JUMPI PUSH1 0x1 PUSH1 0x1 PUSH1 0xA0 SHL SUB SWAP1 PUSH1 0x4 CALLDATALOAD DUP3 DUP2 AND DUP2 SUB PUSH2 0xE JUMPI SWAP2 PUSH1 0x24 CALLDATALOAD SWAP1 DUP2 AND DUP2 SUB PUSH2 0xE JUMPI SWAP1 PUSH1 0x44 CALLDATALOAD SWAP1 JUMP JUMPDEST POP PUSH2 0x528 PUSH2 0x522 CALLDATASIZE PUSH2 0x4E0 JUMP JUMPDEST SWAP2 PUSH2 0x10FC JUMP JUMPDEST STOP JUMPDEST POP CALLVALUE PUSH2 0xE JUMPI PUSH1 0x40 CALLDATASIZE PUSH1 0x3 NOT ADD SLT PUSH2 0xE JUMPI PUSH1 0x24 CALLDATALOAD PUSH1 0x4 CALLDATALOAD PUSH1 0x0 MSTORE PUSH1 0x9 PUSH1 0x20 MSTORE PUSH2 0x557 PUSH1 0x40 PUSH1 0x0 KECCAK256 PUSH2 0xE98 JUMP JUMPDEST DUP1 MLOAD SWAP1 SWAP2 SWAP1 PUSH1 0x1 PUSH1 0x1 PUSH1 0xA0 SHL SUB AND ISZERO PUSH2 0x5C5 JUMPI JUMPDEST PUSH12 0xFFFFFFFFFFFFFFFFFFFFFFFF PUSH1 0x20 DUP4 ADD MLOAD AND SWAP1 DUP2 DUP2 MUL SWAP2 DUP2 DUP4 DIV EQ SWAP1 ISZERO OR ISZERO PUSH2 0x5AF JUMPI SWAP1 MLOAD PUSH1 0x40 DUP1 MLOAD PUSH1 0x1 PUSH1 0x1 PUSH1 0xA0 SHL SUB SWAP1 SWAP3 AND DUP3 MSTORE PUSH2 0x2710 SWAP1 SWAP3 DIV PUSH1 0x20 DUP3 ADD MSTORE RETURN JUMPDEST PUSH4 0x4E487B71 PUSH1 0xE0 SHL PUSH1 0x0 MSTORE PUSH1 0x11 PUSH1 0x4 MSTORE PUSH1 0x24 PUSH1 0x0 REVERT JUMPDEST SWAP1 POP PUSH2 0x5CF PUSH2 0xE72 JUMP JUMPDEST SWAP1 PUSH2 0x56B JUMP JUMPDEST POP CALLVALUE PUSH2 0xE JUMPI PUSH1 0x40 CALLDATASIZE PUSH1 0x3 NOT ADD SLT PUSH2 0xE JUMPI PUSH2 0x5EF PUSH2 0x3D8 JUMP JUMPDEST PUSH2 0x5F7 PUSH2 0xE1A JUMP JUMPDEST PUSH1 0x1 PUSH1 0x1 PUSH1 0xA0 SHL SUB DUP2 AND ISZERO PUSH2 0x667 JUMPI PUSH2 0x2710 PUSH1 0x0 SLOAD PUSH1 0x1 SLOAD SWAP1 SUB GT PUSH2 0x623 JUMPI PUSH2 0x528 SWAP1 PUSH1 0x24 CALLDATALOAD SWAP1 PUSH2 0x1431 JUMP JUMPDEST PUSH1 0x64 PUSH1 0x40 MLOAD PUSH3 0x461BCD PUSH1 0xE5 SHL DUP2 MSTORE PUSH1 0x20 PUSH1 0x4 DUP3 ADD MSTORE PUSH1 0x20 PUSH1 0x24 DUP3 ADD MSTORE PUSH32 0x43616E6E6F74206D696E74206D6F7265207468616E203130303030204E465473 PUSH1 0x44 DUP3 ADD MSTORE REVERT JUMPDEST PUSH1 0x64 PUSH1 0x40 MLOAD PUSH3 0x461BCD PUSH1 0xE5 SHL DUP2 MSTORE PUSH1 0x20 PUSH1 0x4 DUP3 ADD MSTORE PUSH1 0x20 PUSH1 0x24 DUP3 ADD MSTORE PUSH32 0x41646472657373206D757374206E6F74206265207A65726F2061646472657373 PUSH1 0x44 DUP3 ADD MSTORE REVERT JUMPDEST POP PUSH2 0x528 PUSH2 0x6B8 CALLDATASIZE PUSH2 0x4E0 JUMP JUMPDEST SWAP1 PUSH1 0x40 MLOAD SWAP3 PUSH1 0x20 DUP5 ADD DUP5 DUP2 LT PUSH8 0xFFFFFFFFFFFFFFFF DUP3 GT OR PUSH2 0x6E1 JUMPI JUMPDEST PUSH1 0x40 MSTORE PUSH1 0x0 DUP5 MSTORE PUSH2 0x12CE JUMP JUMPDEST PUSH2 0x6E9 PUSH2 0xAF6 JUMP JUMPDEST PUSH2 0x6D5 JUMP JUMPDEST POP CALLVALUE PUSH2 0xE JUMPI PUSH1 0x20 DUP1 PUSH1 0x3 NOT CALLDATASIZE ADD SLT PUSH2 0xE JUMPI PUSH8 0xFFFFFFFFFFFFFFFF SWAP1 PUSH1 0x4 CALLDATALOAD DUP3 DUP2 GT PUSH2 0xE JUMPI CALLDATASIZE PUSH1 0x23 DUP3 ADD SLT ISZERO PUSH2 0xE JUMPI DUP1 PUSH1 0x4 ADD CALLDATALOAD SWAP3 DUP4 GT PUSH2 0xE JUMPI PUSH1 0x24 SWAP2 CALLDATASIZE DUP4 DUP6 DUP5 ADD ADD GT PUSH2 0xE JUMPI PUSH2 0x742 PUSH2 0xE1A JUMP JUMPDEST PUSH2 0x756 DUP5 PUSH2 0x751 PUSH1 0xB SLOAD PUSH2 0xEBD JUMP JUMPDEST PUSH2 0xEF7 JUMP JUMPDEST PUSH1 0x0 SWAP1 PUSH1 0x1F DUP6 GT PUSH1 0x1 EQ PUSH2 0x7CA JUMPI POP DUP4 PUSH32 0x23C8C9488EFEBFD474E85A7956DE6F39B17C7AB88502D42A623DB2D8E382BBAA SWAP5 DUP5 PUSH2 0x7B8 SWAP4 PUSH1 0x0 SWAP3 PUSH2 0x7BD JUMPI JUMPDEST POP POP DUP2 PUSH1 0x1 SHL SWAP1 PUSH1 0x0 NOT DUP4 PUSH1 0x3 SHL SHR NOT AND OR PUSH1 0xB SSTORE JUMPDEST PUSH1 0x40 MLOAD SWAP4 DUP5 SWAP4 ADD DUP4 PUSH2 0xF68 JUMP JUMPDEST SUB SWAP1 LOG1 STOP JUMPDEST DUP6 ADD ADD CALLDATALOAD SWAP1 POP DUP5 CODESIZE PUSH2 0x795 JUMP JUMPDEST PUSH1 0xB PUSH1 0x0 MSTORE SWAP1 PUSH1 0x1F NOT DUP6 AND PUSH32 0x175B7A638427703F0DBE7BB9BBF987A2551717B34E79F33B5B1008D1FA01DB9 SWAP3 DUP3 SWAP1 JUMPDEST DUP3 DUP3 LT PUSH2 0x85E JUMPI POP POP SWAP2 DUP6 SWAP2 PUSH32 0x23C8C9488EFEBFD474E85A7956DE6F39B17C7AB88502D42A623DB2D8E382BBAA SWAP7 PUSH2 0x7B8 SWAP5 LT PUSH2 0x842 JUMPI JUMPDEST POP POP PUSH1 0x1 DUP2 DUP2 SHL ADD PUSH1 0xB SSTORE PUSH2 0x7AB JUMP JUMPDEST DUP5 ADD DUP6 ADD CALLDATALOAD PUSH1 0x0 NOT PUSH1 0x3 DUP5 SWAP1 SHL PUSH1 0xF8 AND SHR NOT AND SWAP1 SSTORE CODESIZE DUP1 PUSH2 0x832 JUMP JUMPDEST DUP1 PUSH1 0x1 DUP6 SWAP7 DUP10 DUP4 SWAP6 SWAP8 DUP11 ADD ADD CALLDATALOAD DUP2 SSTORE ADD SWAP6 ADD SWAP4 ADD SWAP1 PUSH2 0x7FA JUMP JUMPDEST POP CALLVALUE PUSH2 0xE JUMPI PUSH1 0x20 CALLDATASIZE PUSH1 0x3 NOT ADD SLT PUSH2 0xE JUMPI PUSH1 0x20 PUSH1 0x1 PUSH1 0x1 PUSH1 0xA0 SHL SUB PUSH2 0x89F PUSH1 0x4 CALLDATALOAD PUSH2 0x1065 JUMP JUMPDEST AND PUSH1 0x40 MLOAD SWAP1 DUP2 MSTORE RETURN JUMPDEST POP CALLVALUE PUSH2 0xE JUMPI PUSH1 0x20 CALLDATASIZE PUSH1 0x3 NOT ADD SLT PUSH2 0xE JUMPI PUSH1 0x1 PUSH1 0x1 PUSH1 0xA0 SHL SUB PUSH2 0x8CA PUSH2 0x3D8 JUMP JUMPDEST AND DUP1 ISZERO PUSH2 0x8F3 JUMPI PUSH1 0x0 MSTORE PUSH1 0x5 PUSH1 0x20 MSTORE PUSH1 0x20 PUSH8 0xFFFFFFFFFFFFFFFF PUSH1 0x40 PUSH1 0x0 KECCAK256 SLOAD AND PUSH1 0x40 MLOAD SWAP1 DUP2 MSTORE RETURN JUMPDEST PUSH1 0x40 MLOAD PUSH4 0x23D3AD81 PUSH1 0xE2 SHL DUP2 MSTORE PUSH1 0x4 SWAP1 REVERT JUMPDEST POP CALLVALUE PUSH2 0xE JUMPI PUSH1 0x0 CALLDATASIZE PUSH1 0x3 NOT ADD SLT PUSH2 0xE JUMPI PUSH2 0x2F7 PUSH2 0x922 PUSH2 0xF90 JUMP JUMPDEST PUSH1 0x40 MLOAD SWAP2 DUP3 SWAP2 PUSH1 0x20 DUP4 MSTORE PUSH1 0x20 DUP4 ADD SWAP1 PUSH2 0x264 JUMP JUMPDEST POP CALLVALUE PUSH2 0xE JUMPI PUSH1 0x0 DUP1 PUSH1 0x3 NOT CALLDATASIZE ADD SLT PUSH2 0x380 JUMPI PUSH2 0x951 PUSH2 0xE1A JUMP JUMPDEST PUSH1 0xA DUP1 SLOAD PUSH1 0x1 PUSH1 0x1 PUSH1 0xA0 SHL SUB NOT DUP2 AND SWAP1 SWAP2 SSTORE DUP2 SWAP1 PUSH1 0x1 PUSH1 0x1 PUSH1 0xA0 SHL SUB AND PUSH32 0x8BE0079C531659141344CD1FD0A4F28419497F9722A3DAAFE3B4186F6B6457E0 DUP3 DUP1 LOG3 DUP1 RETURN JUMPDEST POP CALLVALUE PUSH2 0xE JUMPI PUSH1 0x0 CALLDATASIZE PUSH1 0x3 NOT ADD SLT PUSH2 0xE JUMPI PUSH1 0xA SLOAD PUSH1 0x40 MLOAD PUSH1 0x1 PUSH1 0x1 PUSH1 0xA0 SHL SUB SWAP1 SWAP2 AND DUP2 MSTORE PUSH1 0x20 SWAP1 RETURN JUMPDEST POP CALLVALUE PUSH2 0xE JUMPI PUSH1 0x0 DUP1 PUSH1 0x3 NOT CALLDATASIZE ADD SLT PUSH2 0x380 JUMPI PUSH1 0x40 MLOAD SWAP1 DUP1 PUSH1 0x3 SLOAD PUSH2 0x9E3 DUP2 PUSH2 0xEBD JUMP JUMPDEST DUP1 DUP6 MSTORE SWAP2 PUSH1 0x1 SWAP2 DUP1 DUP4 AND SWAP1 DUP2 ISZERO PUSH2 0x356 JUMPI POP PUSH1 0x1 EQ PUSH2 0xA0C JUMPI PUSH2 0x2F7 DUP6 PUSH2 0x2EB DUP2 DUP8 SUB DUP3 PUSH2 0xB52 JUMP JUMPDEST SWAP3 POP PUSH1 0x3 DUP4 MSTORE PUSH32 0xC2575A0E9E593C00F959F8C92F12DB2869C3395A3B0502D05E2516446F71F85B JUMPDEST DUP3 DUP5 LT PUSH2 0xA4F JUMPI POP POP POP DUP2 ADD PUSH1 0x20 ADD PUSH2 0x2EB DUP3 PUSH2 0x2F7 PUSH2 0x2DB JUMP JUMPDEST DUP1 SLOAD PUSH1 0x20 DUP6 DUP8 ADD DUP2 ADD SWAP2 SWAP1 SWAP2 MSTORE SWAP1 SWAP4 ADD SWAP3 DUP2 ADD PUSH2 0xA34 JUMP JUMPDEST POP CALLVALUE PUSH2 0xE JUMPI PUSH1 0x40 CALLDATASIZE PUSH1 0x3 NOT ADD SLT PUSH2 0xE JUMPI PUSH2 0xA81 PUSH2 0x3D8 JUMP JUMPDEST PUSH1 0x24 CALLDATALOAD SWAP1 DUP2 ISZERO ISZERO DUP1 SWAP3 SUB PUSH2 0xE JUMPI CALLER PUSH1 0x0 SWAP1 DUP2 MSTORE PUSH1 0x7 PUSH1 0x20 SWAP1 DUP2 MSTORE PUSH1 0x40 DUP1 DUP4 KECCAK256 PUSH1 0x1 PUSH1 0x1 PUSH1 0xA0 SHL SUB DUP6 AND DUP5 MSTORE SWAP1 SWAP2 MSTORE SWAP1 KECCAK256 PUSH1 0xFF NOT DUP2 SLOAD AND PUSH1 0xFF DUP5 AND OR SWAP1 SSTORE PUSH1 0x40 MLOAD SWAP2 DUP3 MSTORE PUSH1 0x1 DUP1 PUSH1 0xA0 SHL SUB AND SWAP1 PUSH32 0x17307EAB39AB6107E8899845AD3D59BD9653F200F220920489CA2B5937696C31 PUSH1 0x20 CALLER SWAP3 LOG3 STOP JUMPDEST POP PUSH4 0x4E487B71 PUSH1 0xE0 SHL PUSH1 0x0 MSTORE PUSH1 0x41 PUSH1 0x4 MSTORE PUSH1 0x24 PUSH1 0x0 REVERT JUMPDEST PUSH1 0x40 DUP2 ADD SWAP1 DUP2 LT PUSH8 0xFFFFFFFFFFFFFFFF DUP3 GT OR PUSH2 0xB29 JUMPI PUSH1 0x40 MSTORE JUMP JUMPDEST PUSH2 0xB31 PUSH2 0xAF6 JUMP JUMPDEST PUSH1 0x40 MSTORE JUMP JUMPDEST PUSH1 0x20 DUP2 ADD SWAP1 DUP2 LT PUSH8 0xFFFFFFFFFFFFFFFF DUP3 GT OR PUSH2 0xB29 JUMPI PUSH1 0x40 MSTORE JUMP JUMPDEST SWAP1 PUSH1 0x1F DUP1 NOT SWAP2 ADD AND DUP2 ADD SWAP1 DUP2 LT PUSH8 0xFFFFFFFFFFFFFFFF DUP3 GT OR PUSH2 0xB29 JUMPI PUSH1 0x40 MSTORE JUMP JUMPDEST PUSH1 0x20 SWAP1 PUSH8 0xFFFFFFFFFFFFFFFF DUP2 GT PUSH2 0xB92 JUMPI JUMPDEST PUSH1 0x1F ADD PUSH1 0x1F NOT AND ADD SWAP1 JUMP JUMPDEST PUSH2 0xB9A PUSH2 0xAF6 JUMP JUMPDEST PUSH2 0xB87 JUMP JUMPDEST POP PUSH1 0x80 CALLDATASIZE PUSH1 0x3 NOT ADD SLT PUSH2 0xE JUMPI PUSH2 0xBB4 PUSH2 0x3D8 JUMP JUMPDEST PUSH2 0xBBC PUSH2 0x3EE JUMP JUMPDEST PUSH1 0x64 CALLDATALOAD SWAP2 PUSH8 0xFFFFFFFFFFFFFFFF DUP4 GT PUSH2 0xE JUMPI CALLDATASIZE PUSH1 0x23 DUP5 ADD SLT ISZERO PUSH2 0xE JUMPI DUP3 PUSH1 0x4 ADD CALLDATALOAD SWAP2 PUSH2 0xBE9 DUP4 PUSH2 0xB74 JUMP JUMPDEST SWAP3 PUSH2 0xBF7 PUSH1 0x40 MLOAD SWAP5 DUP6 PUSH2 0xB52 JUMP JUMPDEST DUP1 DUP5 MSTORE CALLDATASIZE PUSH1 0x24 DUP3 DUP8 ADD ADD GT PUSH2 0xE JUMPI PUSH1 0x20 DUP2 PUSH1 0x0 SWAP3 PUSH1 0x24 PUSH2 0x528 SWAP9 ADD DUP4 DUP9 ADD CALLDATACOPY DUP6 ADD ADD MSTORE PUSH1 0x44 CALLDATALOAD SWAP2 PUSH2 0x12CE JUMP JUMPDEST POP CALLVALUE PUSH2 0xE JUMPI PUSH1 0x20 CALLDATASIZE PUSH1 0x3 NOT ADD SLT PUSH2 0xE JUMPI PUSH1 0x4 CALLDATALOAD PUSH2 0xC42 DUP2 PUSH2 0x10D3 JUMP JUMPDEST ISZERO PUSH2 0xCE0 JUMPI PUSH2 0xC4F PUSH2 0xF90 JUMP JUMPDEST DUP1 MLOAD PUSH1 0x0 SWAP1 ISZERO PUSH2 0xCC6 JUMPI POP PUSH1 0x40 MLOAD PUSH1 0xA0 DUP2 ADD PUSH1 0x40 MSTORE PUSH1 0x80 DUP2 ADD SWAP3 PUSH1 0x0 DUP5 MSTORE SWAP3 JUMPDEST PUSH1 0x0 NOT ADD SWAP3 PUSH1 0xA SWAP1 PUSH1 0x30 DUP3 DUP3 MOD ADD DUP6 MSTORE8 DIV SWAP3 DUP4 PUSH2 0xC6F JUMPI PUSH2 0x2F7 SWAP4 POP PUSH2 0xCB4 SWAP3 PUSH2 0xCBA PUSH2 0x2EB SWAP4 PUSH1 0x80 PUSH1 0x1F NOT SWAP5 DUP6 DUP2 ADD SWAP3 SUB ADD DUP2 MSTORE PUSH1 0x40 MLOAD SWAP6 DUP7 SWAP4 PUSH1 0x20 DUP6 ADD SWAP1 PUSH2 0x104E JUMP JUMPDEST SWAP1 PUSH2 0x104E JUMP JUMPDEST SUB SWAP1 DUP2 ADD DUP4 MSTORE DUP3 PUSH2 0xB52 JUMP JUMPDEST PUSH1 0x40 MLOAD PUSH2 0x2F7 SWAP4 POP SWAP2 POP PUSH2 0xCD9 DUP3 PUSH2 0xB36 JUMP JUMPDEST DUP2 MSTORE PUSH2 0x2EB JUMP JUMPDEST PUSH1 0x40 MLOAD PUSH4 0xA14C4B5 PUSH1 0xE4 SHL DUP2 MSTORE PUSH1 0x4 SWAP1 REVERT JUMPDEST POP CALLVALUE PUSH2 0xE JUMPI PUSH1 0x40 CALLDATASIZE PUSH1 0x3 NOT ADD SLT PUSH2 0xE JUMPI PUSH1 0x20 PUSH1 0xFF PUSH2 0xD44 PUSH2 0xD13 PUSH2 0x3D8 JUMP JUMPDEST PUSH2 0xD1B PUSH2 0x3EE JUMP JUMPDEST PUSH1 0x1 PUSH1 0x1 PUSH1 0xA0 SHL SUB SWAP2 DUP3 AND PUSH1 0x0 SWAP1 DUP2 MSTORE PUSH1 0x7 DUP7 MSTORE PUSH1 0x40 DUP1 DUP3 KECCAK256 SWAP3 SWAP1 SWAP4 AND DUP2 MSTORE PUSH1 0x20 SWAP2 SWAP1 SWAP2 MSTORE KECCAK256 SWAP1 JUMP JUMPDEST SLOAD AND PUSH1 0x40 MLOAD SWAP1 ISZERO ISZERO DUP2 MSTORE RETURN JUMPDEST POP CALLVALUE PUSH2 0xE JUMPI PUSH1 0x20 CALLDATASIZE PUSH1 0x3 NOT ADD SLT PUSH2 0xE JUMPI PUSH2 0xD6A PUSH2 0x3D8 JUMP JUMPDEST PUSH2 0xD72 PUSH2 0xE1A JUMP JUMPDEST PUSH1 0x1 PUSH1 0x1 PUSH1 0xA0 SHL SUB SWAP1 DUP2 AND SWAP1 DUP2 ISZERO PUSH2 0xDC6 JUMPI PUSH1 0xA SLOAD DUP3 PUSH12 0xFFFFFFFFFFFFFFFFFFFFFFFF PUSH1 0xA0 SHL DUP3 AND OR PUSH1 0xA SSTORE AND PUSH32 0x8BE0079C531659141344CD1FD0A4F28419497F9722A3DAAFE3B4186F6B6457E0 PUSH1 0x0 DUP1 LOG3 STOP JUMPDEST PUSH1 0x40 MLOAD PUSH3 0x461BCD PUSH1 0xE5 SHL DUP2 MSTORE PUSH1 0x20 PUSH1 0x4 DUP3 ADD MSTORE PUSH1 0x26 PUSH1 0x24 DUP3 ADD MSTORE PUSH32 0x4F776E61626C653A206E6577206F776E657220697320746865207A65726F2061 PUSH1 0x44 DUP3 ADD MSTORE PUSH6 0x646472657373 PUSH1 0xD0 SHL PUSH1 0x64 DUP3 ADD MSTORE PUSH1 0x84 SWAP1 REVERT JUMPDEST PUSH1 0xA SLOAD PUSH1 0x1 PUSH1 0x1 PUSH1 0xA0 SHL SUB AND CALLER SUB PUSH2 0xE2E JUMPI JUMP JUMPDEST PUSH1 0x64 PUSH1 0x40 MLOAD PUSH3 0x461BCD PUSH1 0xE5 SHL DUP2 MSTORE PUSH1 0x20 PUSH1 0x4 DUP3 ADD MSTORE PUSH1 0x20 PUSH1 0x24 DUP3 ADD MSTORE PUSH32 0x4F776E61626C653A2063616C6C6572206973206E6F7420746865206F776E6572 PUSH1 0x44 DUP3 ADD MSTORE REVERT JUMPDEST PUSH1 0x40 MLOAD SWAP1 PUSH2 0xE7F DUP3 PUSH2 0xB0D JUMP JUMPDEST PUSH1 0x8 SLOAD PUSH1 0x1 PUSH1 0x1 PUSH1 0xA0 SHL SUB DUP2 AND DUP4 MSTORE PUSH1 0xA0 SHR PUSH1 0x20 DUP4 ADD MSTORE JUMP JUMPDEST SWAP1 PUSH1 0x40 MLOAD PUSH2 0xEA5 DUP2 PUSH2 0xB0D JUMP JUMPDEST SWAP2 SLOAD PUSH1 0x1 PUSH1 0x1 PUSH1 0xA0 SHL SUB DUP2 AND DUP4 MSTORE PUSH1 0xA0 SHR PUSH1 0x20 DUP4 ADD MSTORE JUMP JUMPDEST SWAP1 PUSH1 0x1 DUP3 DUP2 SHR SWAP3 AND DUP1 ISZERO PUSH2 0xEED JUMPI JUMPDEST PUSH1 0x20 DUP4 LT EQ PUSH2 0xED7 JUMPI JUMP JUMPDEST PUSH4 0x4E487B71 PUSH1 0xE0 SHL PUSH1 0x0 MSTORE PUSH1 0x22 PUSH1 0x4 MSTORE PUSH1 0x24 PUSH1 0x0 REVERT JUMPDEST SWAP2 PUSH1 0x7F AND SWAP2 PUSH2 0xECC JUMP JUMPDEST PUSH1 0x1F DUP2 GT PUSH2 0xF03 JUMPI POP POP JUMP JUMPDEST PUSH1 0x0 SWAP1 PUSH1 0xB DUP3 MSTORE PUSH32 0x175B7A638427703F0DBE7BB9BBF987A2551717B34E79F33B5B1008D1FA01DB9 SWAP1 PUSH1 0x20 PUSH1 0x1F DUP6 ADD PUSH1 0x5 SHR DUP4 ADD SWAP5 LT PUSH2 0xF5E JUMPI JUMPDEST PUSH1 0x1F ADD PUSH1 0x5 SHR ADD SWAP2 JUMPDEST DUP3 DUP2 LT PUSH2 0xF53 JUMPI POP POP POP JUMP JUMPDEST DUP2 DUP2 SSTORE PUSH1 0x1 ADD PUSH2 0xF47 JUMP JUMPDEST SWAP1 SWAP3 POP DUP3 SWAP1 PUSH2 0xF3E JUMP JUMPDEST SWAP1 SWAP2 DUP1 PUSH1 0x40 SWAP4 PUSH1 0x20 DUP5 MSTORE DUP2 PUSH1 0x20 DUP6 ADD MSTORE DUP5 DUP5 ADD CALLDATACOPY PUSH1 0x0 DUP3 DUP3 ADD DUP5 ADD MSTORE PUSH1 0x1F ADD PUSH1 0x1F NOT AND ADD ADD SWAP1 JUMP JUMPDEST PUSH1 0x40 MLOAD SWAP1 PUSH1 0x0 DUP3 PUSH1 0xB SLOAD SWAP2 PUSH2 0xFA4 DUP4 PUSH2 0xEBD JUMP JUMPDEST DUP1 DUP4 MSTORE SWAP3 PUSH1 0x1 SWAP1 DUP2 DUP2 AND SWAP1 DUP2 ISZERO PUSH2 0x102C JUMPI POP PUSH1 0x1 EQ PUSH2 0xFCD JUMPI JUMPDEST POP PUSH2 0xFCB SWAP3 POP SUB DUP4 PUSH2 0xB52 JUMP JUMPDEST JUMP JUMPDEST PUSH1 0xB PUSH1 0x0 SWAP1 DUP2 MSTORE SWAP2 POP PUSH32 0x175B7A638427703F0DBE7BB9BBF987A2551717B34E79F33B5B1008D1FA01DB9 JUMPDEST DUP5 DUP4 LT PUSH2 0x1011 JUMPI POP PUSH2 0xFCB SWAP4 POP POP DUP2 ADD PUSH1 0x20 ADD CODESIZE PUSH2 0xFBE JUMP JUMPDEST DUP2 SWAP4 POP SWAP1 DUP2 PUSH1 0x20 SWAP3 SLOAD DUP4 DUP6 DUP11 ADD ADD MSTORE ADD SWAP2 ADD SWAP1 SWAP2 DUP6 SWAP3 PUSH2 0xFF8 JUMP JUMPDEST SWAP1 POP PUSH1 0x20 SWAP3 POP PUSH2 0xFCB SWAP5 SWAP2 POP PUSH1 0xFF NOT AND DUP3 DUP5 ADD MSTORE ISZERO ISZERO PUSH1 0x5 SHL DUP3 ADD ADD CODESIZE PUSH2 0xFBE JUMP JUMPDEST SWAP1 PUSH2 0x1061 PUSH1 0x20 SWAP3 DUP3 DUP2 MLOAD SWAP5 DUP6 SWAP3 ADD PUSH2 0x241 JUMP JUMPDEST ADD SWAP1 JUMP JUMPDEST PUSH1 0x0 DUP2 DUP2 SLOAD DUP2 LT PUSH2 0x1083 JUMPI JUMPDEST PUSH1 0x40 MLOAD PUSH4 0x6F96CDA1 PUSH1 0xE1 SHL DUP2 MSTORE PUSH1 0x4 SWAP1 REVERT JUMPDEST DUP2 MSTORE PUSH1 0x4 SWAP1 PUSH1 0x20 SWAP2 DUP1 DUP4 MSTORE PUSH1 0x40 SWAP3 DUP4 DUP4 KECCAK256 SLOAD SWAP5 PUSH1 0x1 PUSH1 0xE0 SHL DUP7 AND ISZERO PUSH2 0x10AA JUMPI POP POP POP PUSH2 0x1071 JUMP JUMPDEST SWAP4 SWAP3 SWAP2 SWAP1 SWAP4 JUMPDEST DUP6 ISZERO PUSH2 0x10BE JUMPI POP POP POP POP POP SWAP1 JUMP JUMPDEST PUSH1 0x0 NOT ADD DUP1 DUP4 MSTORE DUP2 DUP6 MSTORE DUP4 DUP4 KECCAK256 SLOAD SWAP6 POP PUSH2 0x10B0 JUMP JUMPDEST PUSH1 0x0 SLOAD DUP2 LT SWAP1 DUP2 PUSH2 0x10E2 JUMPI POP SWAP1 JUMP JUMPDEST SWAP1 POP PUSH1 0x0 MSTORE PUSH1 0x4 PUSH1 0x20 MSTORE PUSH1 0x1 PUSH1 0xE0 SHL PUSH1 0x40 PUSH1 0x0 KECCAK256 SLOAD AND ISZERO SWAP1 JUMP JUMPDEST SWAP1 PUSH2 0x1106 DUP4 PUSH2 0x1065 JUMP JUMPDEST PUSH1 0x1 PUSH1 0x1 PUSH1 0xA0 SHL SUB DUP4 DUP2 AND SWAP3 DUP3 DUP3 AND DUP5 SWAP1 SUB PUSH2 0x12BD JUMPI PUSH1 0x0 DUP7 DUP2 MSTORE PUSH1 0x6 PUSH1 0x20 MSTORE PUSH1 0x40 SWAP1 KECCAK256 DUP1 SLOAD SWAP1 SWAP3 PUSH2 0x114B PUSH1 0x1 PUSH1 0x1 PUSH1 0xA0 SHL SUB DUP9 AND CALLER SWAP1 DUP2 EQ SWAP1 DUP5 EQ OR ISZERO SWAP1 JUMP JUMPDEST ISZERO SWAP1 JUMP JUMPDEST PUSH2 0x1262 JUMPI JUMPDEST DUP3 AND SWAP6 DUP7 ISZERO PUSH2 0x1250 JUMPI PUSH2 0x11A3 SWAP4 PUSH2 0x1181 SWAP3 PUSH2 0x1246 JUMPI JUMPDEST POP PUSH1 0x1 PUSH1 0x1 PUSH1 0xA0 SHL SUB AND PUSH1 0x0 SWAP1 DUP2 MSTORE PUSH1 0x5 PUSH1 0x20 MSTORE PUSH1 0x40 SWAP1 KECCAK256 SWAP1 JUMP JUMPDEST DUP1 SLOAD PUSH1 0x0 NOT ADD SWAP1 SSTORE PUSH1 0x1 PUSH1 0x1 PUSH1 0xA0 SHL SUB AND PUSH1 0x0 SWAP1 DUP2 MSTORE PUSH1 0x5 PUSH1 0x20 MSTORE PUSH1 0x40 SWAP1 KECCAK256 SWAP1 JUMP JUMPDEST DUP1 SLOAD PUSH1 0x1 ADD SWAP1 SSTORE PUSH1 0x1 PUSH1 0xE1 SHL DUP1 TIMESTAMP PUSH1 0xA0 SHL DUP6 OR OR PUSH2 0x11CB DUP7 PUSH1 0x0 MSTORE PUSH1 0x4 PUSH1 0x20 MSTORE PUSH1 0x40 PUSH1 0x0 KECCAK256 SWAP1 JUMP JUMPDEST SSTORE DUP2 AND ISZERO PUSH2 0x11FC JUMPI JUMPDEST POP PUSH32 0xDDF252AD1BE2C89B69C2B068FC378DAA952BA7F163C4A11628F55A4DF523B3EF PUSH1 0x0 DUP1 LOG4 JUMP JUMPDEST PUSH1 0x1 DUP5 ADD PUSH2 0x1214 DUP2 PUSH1 0x0 MSTORE PUSH1 0x4 PUSH1 0x20 MSTORE PUSH1 0x40 PUSH1 0x0 KECCAK256 SWAP1 JUMP JUMPDEST SLOAD ISZERO PUSH2 0x1221 JUMPI JUMPDEST POP PUSH2 0x11D4 JUMP JUMPDEST PUSH1 0x0 SLOAD DUP2 EQ PUSH2 0x121B JUMPI PUSH2 0x123E SWAP1 PUSH1 0x0 MSTORE PUSH1 0x4 PUSH1 0x20 MSTORE PUSH1 0x40 PUSH1 0x0 KECCAK256 SWAP1 JUMP JUMPDEST SSTORE CODESIZE DUP1 PUSH2 0x121B JUMP JUMPDEST PUSH1 0x0 SWAP1 SSTORE CODESIZE PUSH2 0x1166 JUMP JUMPDEST PUSH1 0x40 MLOAD PUSH4 0x3A954ECD PUSH1 0xE2 SHL DUP2 MSTORE PUSH1 0x4 SWAP1 REVERT JUMPDEST PUSH2 0x12A6 PUSH2 0x1147 PUSH2 0x129F CALLER PUSH2 0x1288 DUP12 PUSH1 0x1 DUP1 PUSH1 0xA0 SHL SUB AND PUSH1 0x0 MSTORE PUSH1 0x7 PUSH1 0x20 MSTORE PUSH1 0x40 PUSH1 0x0 KECCAK256 SWAP1 JUMP JUMPDEST SWAP1 PUSH1 0x1 DUP1 PUSH1 0xA0 SHL SUB AND PUSH1 0x0 MSTORE PUSH1 0x20 MSTORE PUSH1 0x40 PUSH1 0x0 KECCAK256 SWAP1 JUMP JUMPDEST SLOAD PUSH1 0xFF AND SWAP1 JUMP JUMPDEST ISZERO PUSH2 0x1150 JUMPI PUSH1 0x40 MLOAD PUSH4 0x2CE44B5F PUSH1 0xE1 SHL DUP2 MSTORE PUSH1 0x4 SWAP1 REVERT JUMPDEST PUSH1 0x40 MLOAD PUSH3 0xA11481 PUSH1 0xE8 SHL DUP2 MSTORE PUSH1 0x4 SWAP1 REVERT JUMPDEST SWAP3 SWAP2 SWAP1 PUSH2 0x12DC DUP3 DUP3 DUP7 PUSH2 0x10FC JUMP JUMPDEST DUP1 EXTCODESIZE PUSH2 0x12E9 JUMPI JUMPDEST POP POP POP POP JUMP JUMPDEST PUSH2 0x12F2 SWAP4 PUSH2 0x1388 JUMP JUMPDEST ISZERO PUSH2 0x1300 JUMPI CODESIZE DUP1 DUP1 DUP1 PUSH2 0x12E3 JUMP JUMPDEST PUSH1 0x40 MLOAD PUSH4 0x68D2BF6B PUSH1 0xE1 SHL DUP2 MSTORE PUSH1 0x4 SWAP1 REVERT JUMPDEST SWAP1 DUP2 PUSH1 0x20 SWAP2 SUB SLT PUSH2 0xE JUMPI MLOAD PUSH2 0x29A DUP2 PUSH2 0x1C0 JUMP JUMPDEST PUSH1 0x1 PUSH1 0x1 PUSH1 0xA0 SHL SUB SWAP2 DUP3 AND DUP2 MSTORE SWAP2 AND PUSH1 0x20 DUP3 ADD MSTORE PUSH1 0x40 DUP2 ADD SWAP2 SWAP1 SWAP2 MSTORE PUSH1 0x80 PUSH1 0x60 DUP3 ADD DUP2 SWAP1 MSTORE PUSH2 0x29A SWAP3 SWAP2 ADD SWAP1 PUSH2 0x264 JUMP JUMPDEST RETURNDATASIZE ISZERO PUSH2 0x1383 JUMPI RETURNDATASIZE SWAP1 PUSH2 0x1369 DUP3 PUSH2 0xB74 JUMP JUMPDEST SWAP2 PUSH2 0x1377 PUSH1 0x40 MLOAD SWAP4 DUP5 PUSH2 0xB52 JUMP JUMPDEST DUP3 MSTORE RETURNDATASIZE PUSH1 0x0 PUSH1 0x20 DUP5 ADD RETURNDATACOPY JUMP JUMPDEST PUSH1 0x60 SWAP1 JUMP JUMPDEST SWAP3 PUSH1 0x20 SWAP2 PUSH2 0x13B1 SWAP4 PUSH1 0x0 PUSH1 0x40 MLOAD DUP1 SWAP7 DUP2 SWAP6 DUP3 SWAP5 PUSH4 0xA85BD01 PUSH1 0xE1 SHL SWAP11 DUP12 DUP6 MSTORE CALLER PUSH1 0x4 DUP7 ADD PUSH2 0x1327 JUMP JUMPDEST SUB SWAP3 PUSH1 0x1 PUSH1 0x1 PUSH1 0xA0 SHL SUB AND GAS CALL PUSH1 0x0 SWAP2 DUP2 PUSH2 0x1401 JUMPI JUMPDEST POP PUSH2 0x13F3 JUMPI PUSH2 0x13D4 PUSH2 0x1358 JUMP JUMPDEST DUP1 MLOAD SWAP1 DUP2 PUSH2 0x13EE JUMPI PUSH1 0x40 MLOAD PUSH4 0x68D2BF6B PUSH1 0xE1 SHL DUP2 MSTORE PUSH1 0x4 SWAP1 REVERT JUMPDEST PUSH1 0x20 ADD REVERT JUMPDEST PUSH1 0x1 PUSH1 0x1 PUSH1 0xE0 SHL SUB NOT AND EQ SWAP1 JUMP JUMPDEST PUSH2 0x1423 SWAP2 SWAP3 POP PUSH1 0x20 RETURNDATASIZE DUP2 GT PUSH2 0x142A JUMPI JUMPDEST PUSH2 0x141B DUP2 DUP4 PUSH2 0xB52 JUMP JUMPDEST DUP2 ADD SWAP1 PUSH2 0x1312 JUMP JUMPDEST SWAP1 CODESIZE PUSH2 0x13C7 JUMP JUMPDEST POP RETURNDATASIZE PUSH2 0x1411 JUMP JUMPDEST SWAP1 PUSH1 0x0 SWAP1 DUP2 SLOAD SWAP3 DUP2 ISZERO PUSH2 0x14F4 JUMPI PUSH1 0x1 PUSH1 0x1 PUSH1 0xA0 SHL SUB DUP2 AND PUSH1 0x0 SWAP1 DUP2 MSTORE PUSH1 0x5 PUSH1 0x20 MSTORE PUSH1 0x40 SWAP1 KECCAK256 DUP1 SLOAD PUSH9 0x10000000000000001 DUP5 MUL ADD SWAP1 SSTORE PUSH1 0x0 DUP5 DUP2 MSTORE PUSH1 0x4 PUSH1 0x20 MSTORE PUSH1 0x40 SWAP1 KECCAK256 PUSH1 0x1 PUSH1 0x1 PUSH1 0xA0 SHL SUB SWAP1 SWAP2 AND SWAP2 PUSH1 0x1 SWAP2 TIMESTAMP PUSH1 0xA0 SHL DUP4 DUP4 EQ PUSH1 0xE1 SHL OR DUP5 OR SWAP1 SSTORE DUP5 ADD SWAP4 DUP2 PUSH32 0xDDF252AD1BE2C89B69C2B068FC378DAA952BA7F163C4A11628F55A4DF523B3EF SWAP2 DUP1 DUP6 DUP8 DUP6 DUP2 DUP1 LOG4 ADD JUMPDEST DUP6 DUP2 SUB PUSH2 0x14E5 JUMPI POP POP POP ISZERO PUSH2 0x14D4 JUMPI SSTORE JUMP JUMPDEST PUSH1 0x40 MLOAD PUSH3 0x2E0763 PUSH1 0xE8 SHL DUP2 MSTORE PUSH1 0x4 SWAP1 REVERT JUMPDEST DUP1 DUP4 SWAP2 DUP6 DUP8 DUP6 DUP2 DUP1 LOG4 ADD PUSH2 0x14C2 JUMP JUMPDEST PUSH1 0x40 MLOAD PUSH4 0xB562E8DD PUSH1 0xE0 SHL DUP2 MSTORE PUSH1 0x4 SWAP1 REVERT INVALID LOG2 PUSH5 0x6970667358 0x22 SLT KECCAK256 COINBASE RETURN 0xAF 0xF7 PUSH6 0x592F3B94C46 PUSH7 0x1162318B01858C PUSH17 0x7C316D548B7633BAD11CA08064736F6C63 NUMBER STOP ADDMOD GT STOP CALLER "},"methodIdentifiers":{"approve(address,uint256)":"095ea7b3","balanceOf(address)":"70a08231","getApproved(uint256)":"081812fc","getBaseURI()":"714c5398","isApprovedForAll(address,address)":"e985e9c5","mint(address,uint256)":"40c10f19","name()":"06fdde03","owner()":"8da5cb5b","ownerOf(uint256)":"6352211e","renounceOwnership()":"715018a6","royaltyInfo(uint256,uint256)":"2a55205a","safeTransferFrom(address,address,uint256)":"42842e0e","safeTransferFrom(address,address,uint256,bytes)":"b88d4fde","setApprovalForAll(address,bool)":"a22cb465","setBaseURI(string)":"55f804b3","supportsInterface(bytes4)":"01ffc9a7","symbol()":"95d89b41","tokenURI(uint256)":"c87b56dd","totalSupply()":"18160ddd","transferFrom(address,address,uint256)":"23b872dd","transferOwnership(address)":"f2fde38b"}},"storageLayout":{"storage":[{"astId":5786,"contract":"contracts/GBPrimaryCollection.sol:GBPrimaryCollection","label":"_currentIndex","offset":0,"slot":"0","type":"t_uint256"},{"astId":5788,"contract":"contracts/GBPrimaryCollection.sol:GBPrimaryCollection","label":"_burnCounter","offset":0,"slot":"1","type":"t_uint256"},{"astId":5790,"contract":"contracts/GBPrimaryCollection.sol:GBPrimaryCollection","label":"_name","offset":0,"slot":"2","type":"t_string_storage"},{"astId":5792,"contract":"contracts/GBPrimaryCollection.sol:GBPrimaryCollection","label":"_symbol","offset":0,"slot":"3","type":"t_string_storage"},{"astId":5796,"contract":"contracts/GBPrimaryCollection.sol:GBPrimaryCollection","label":"_packedOwnerships","offset":0,"slot":"4","type":"t_mapping(t_uint256,t_uint256)"},{"astId":5800,"contract":"contracts/GBPrimaryCollection.sol:GBPrimaryCollection","label":"_packedAddressData","offset":0,"slot":"5","type":"t_mapping(t_address,t_uint256)"},{"astId":5805,"contract":"contracts/GBPrimaryCollection.sol:GBPrimaryCollection","label":"_tokenApprovals","offset":0,"slot":"6","type":"t_mapping(t_uint256,t_struct(TokenApprovalRef)5718_storage)"},{"astId":5811,"contract":"contracts/GBPrimaryCollection.sol:GBPrimaryCollection","label":"_operatorApprovals","offset":0,"slot":"7","type":"t_mapping(t_address,t_mapping(t_address,t_bool))"},{"astId":2052,"contract":"contracts/GBPrimaryCollection.sol:GBPrimaryCollection","label":"_defaultRoyaltyInfo","offset":0,"slot":"8","type":"t_struct(RoyaltyInfo)2049_storage"},{"astId":2057,"contract":"contracts/GBPrimaryCollection.sol:GBPrimaryCollection","label":"_tokenRoyaltyInfo","offset":0,"slot":"9","type":"t_mapping(t_uint256,t_struct(RoyaltyInfo)2049_storage)"},{"astId":396,"contract":"contracts/GBPrimaryCollection.sol:GBPrimaryCollection","label":"_owner","offset":0,"slot":"10","type":"t_address"},{"astId":5424,"contract":"contracts/GBPrimaryCollection.sol:GBPrimaryCollection","label":"baseURI","offset":0,"slot":"11","type":"t_string_storage"}],"types":{"t_address":{"encoding":"inplace","label":"address","numberOfBytes":"20"},"t_bool":{"encoding":"inplace","label":"bool","numberOfBytes":"1"},"t_mapping(t_address,t_bool)":{"encoding":"mapping","key":"t_address","label":"mapping(address => bool)","numberOfBytes":"32","value":"t_bool"},"t_mapping(t_address,t_mapping(t_address,t_bool))":{"encoding":"mapping","key":"t_address","label":"mapping(address => mapping(address => bool))","numberOfBytes":"32","value":"t_mapping(t_address,t_bool)"},"t_mapping(t_address,t_uint256)":{"encoding":"mapping","key":"t_address","label":"mapping(address => uint256)","numberOfBytes":"32","value":"t_uint256"},"t_mapping(t_uint256,t_struct(RoyaltyInfo)2049_storage)":{"encoding":"mapping","key":"t_uint256","label":"mapping(uint256 => struct ERC2981.RoyaltyInfo)","numberOfBytes":"32","value":"t_struct(RoyaltyInfo)2049_storage"},"t_mapping(t_uint256,t_struct(TokenApprovalRef)5718_storage)":{"encoding":"mapping","key":"t_uint256","label":"mapping(uint256 => struct ERC721A.TokenApprovalRef)","numberOfBytes":"32","value":"t_struct(TokenApprovalRef)5718_storage"},"t_mapping(t_uint256,t_uint256)":{"encoding":"mapping","key":"t_uint256","label":"mapping(uint256 => uint256)","numberOfBytes":"32","value":"t_uint256"},"t_string_storage":{"encoding":"bytes","label":"string","numberOfBytes":"32"},"t_struct(RoyaltyInfo)2049_storage":{"encoding":"inplace","label":"struct ERC2981.RoyaltyInfo","members":[{"astId":2046,"contract":"contracts/GBPrimaryCollection.sol:GBPrimaryCollection","label":"receiver","offset":0,"slot":"0","type":"t_address"},{"astId":2048,"contract":"contracts/GBPrimaryCollection.sol:GBPrimaryCollection","label":"royaltyFraction","offset":20,"slot":"0","type":"t_uint96"}],"numberOfBytes":"32"},"t_struct(TokenApprovalRef)5718_storage":{"encoding":"inplace","label":"struct ERC721A.TokenApprovalRef","members":[{"astId":5717,"contract":"contracts/GBPrimaryCollection.sol:GBPrimaryCollection","label":"value","offset":0,"slot":"0","type":"t_address"}],"numberOfBytes":"32"},"t_uint256":{"encoding":"inplace","label":"uint256","numberOfBytes":"32"},"t_uint96":{"encoding":"inplace","label":"uint96","numberOfBytes":"12"}}}}}}