{"contracts/GBMarketplace.sol":{"GBMarketplace":{"abi":[{"inputs":[{"internalType":"address","name":"owner","type":"address"},{"internalType":"address","name":"verifyRoleAddress","type":"address"},{"internalType":"address","name":"adminWallet_","type":"address"}],"stateMutability":"nonpayable","type":"constructor"},{"anonymous":false,"inputs":[{"indexed":false,"internalType":"address","name":"collection","type":"address"},{"indexed":false,"internalType":"address","name":"from","type":"address"},{"indexed":false,"internalType":"uint256[]","name":"tokenIds","type":"uint256[]"},{"indexed":false,"internalType":"string[]","name":"tokenURIs","type":"string[]"},{"indexed":false,"internalType":"uint96","name":"royaltyFee","type":"uint96"},{"indexed":false,"internalType":"address","name":"artistAddress","type":"address"}],"name":"AddedMultiplePrimaryItems","type":"event"},{"anonymous":false,"inputs":[{"indexed":false,"internalType":"address","name":"collection","type":"address"},{"indexed":false,"internalType":"address","name":"from","type":"address"},{"indexed":false,"internalType":"uint256","name":"tokenId","type":"uint256"},{"indexed":false,"internalType":"string","name":"tokenURI","type":"string"},{"indexed":false,"internalType":"uint96","name":"royaltyFee","type":"uint96"}],"name":"AddedSingleItem","type":"event"},{"anonymous":false,"inputs":[{"components":[{"internalType":"address","name":"account","type":"address"},{"internalType":"address","name":"collection","type":"address"},{"internalType":"address","name":"seller","type":"address"},{"internalType":"uint256","name":"tokenId","type":"uint256"},{"internalType":"uint256","name":"itemPrice","type":"uint256"},{"internalType":"uint256","name":"additionalPrice","type":"uint256"},{"internalType":"address","name":"charityAddress","type":"address"},{"internalType":"uint96","name":"charityFee","type":"uint96"},{"internalType":"uint256","name":"deadline","type":"uint256"},{"internalType":"uint256","name":"nonce","type":"uint256"}],"indexed":false,"internalType":"struct Domain.BuyItem","name":"item","type":"tuple"}],"name":"BoughtItem","type":"event"},{"anonymous":false,"inputs":[{"indexed":false,"internalType":"address","name":"account","type":"address"}],"name":"Paused","type":"event"},{"anonymous":false,"inputs":[{"indexed":true,"internalType":"bytes32","name":"role","type":"bytes32"},{"indexed":true,"internalType":"bytes32","name":"previousAdminRole","type":"bytes32"},{"indexed":true,"internalType":"bytes32","name":"newAdminRole","type":"bytes32"}],"name":"RoleAdminChanged","type":"event"},{"anonymous":false,"inputs":[{"indexed":true,"internalType":"bytes32","name":"role","type":"bytes32"},{"indexed":true,"internalType":"address","name":"account","type":"address"},{"indexed":true,"internalType":"address","name":"sender","type":"address"}],"name":"RoleGranted","type":"event"},{"anonymous":false,"inputs":[{"indexed":true,"internalType":"bytes32","name":"role","type":"bytes32"},{"indexed":true,"internalType":"address","name":"account","type":"address"},{"indexed":true,"internalType":"address","name":"sender","type":"address"}],"name":"RoleRevoked","type":"event"},{"anonymous":false,"inputs":[{"indexed":false,"internalType":"address","name":"account","type":"address"}],"name":"SetAdminWallet","type":"event"},{"anonymous":false,"inputs":[{"indexed":false,"internalType":"address","name":"collectionAddress","type":"address"},{"indexed":false,"internalType":"bool","name":"status","type":"bool"}],"name":"SetCollectionAddress","type":"event"},{"anonymous":false,"inputs":[{"indexed":false,"internalType":"uint96","name":"platformFee","type":"uint96"}],"name":"SetPlatformFee","type":"event"},{"anonymous":false,"inputs":[{"indexed":false,"internalType":"address","name":"verifyRoleAddress","type":"address"}],"name":"SetVerifyRole","type":"event"},{"anonymous":false,"inputs":[{"indexed":false,"internalType":"address","name":"account","type":"address"}],"name":"Unpaused","type":"event"},{"anonymous":false,"inputs":[{"indexed":false,"internalType":"address","name":"collection","type":"address"},{"indexed":false,"internalType":"address","name":"from","type":"address"},{"indexed":false,"internalType":"uint256","name":"tokenId","type":"uint256"},{"indexed":false,"internalType":"string","name":"tokenURI","type":"string"}],"name":"UpdatedTokenURI","type":"event"},{"inputs":[],"name":"DEFAULT_ADMIN_ROLE","outputs":[{"internalType":"bytes32","name":"","type":"bytes32"}],"stateMutability":"view","type":"function"},{"inputs":[],"name":"VERIFY_ROLE","outputs":[{"internalType":"bytes32","name":"","type":"bytes32"}],"stateMutability":"view","type":"function"},{"inputs":[{"internalType":"address","name":"collection","type":"address"},{"internalType":"uint256[]","name":"tokenIds","type":"uint256[]"},{"internalType":"uint96","name":"royaltyFee","type":"uint96"},{"internalType":"string[]","name":"tokenURIs","type":"string[]"},{"internalType":"address","name":"artistAddress","type":"address"}],"name":"addPrimaryMultipleItems","outputs":[],"stateMutability":"nonpayable","type":"function"},{"inputs":[{"components":[{"internalType":"address","name":"account","type":"address"},{"internalType":"address","name":"collection","type":"address"},{"internalType":"uint256","name":"tokenId","type":"uint256"},{"internalType":"uint96","name":"royaltyFee","type":"uint96"},{"internalType":"string","name":"tokenURI","type":"string"},{"internalType":"uint256","name":"deadline","type":"uint256"},{"internalType":"uint256","name":"nonce","type":"uint256"}],"internalType":"struct Domain.AddSingleItem","name":"item","type":"tuple"},{"internalType":"bytes","name":"signature","type":"bytes"}],"name":"addSingleItem","outputs":[],"stateMutability":"nonpayable","type":"function"},{"inputs":[{"components":[{"internalType":"address","name":"account","type":"address"},{"internalType":"address","name":"collection","type":"address"},{"internalType":"address","name":"seller","type":"address"},{"internalType":"uint256","name":"tokenId","type":"uint256"},{"internalType":"uint256","name":"itemPrice","type":"uint256"},{"internalType":"uint256","name":"additionalPrice","type":"uint256"},{"internalType":"address","name":"charityAddress","type":"address"},{"internalType":"uint96","name":"charityFee","type":"uint96"},{"internalType":"uint256","name":"deadline","type":"uint256"},{"internalType":"uint256","name":"nonce","type":"uint256"}],"internalType":"struct Domain.BuyItem","name":"item","type":"tuple"},{"internalType":"bytes","name":"signature","type":"bytes"}],"name":"buyItem","outputs":[],"stateMutability":"payable","type":"function"},{"inputs":[{"internalType":"address","name":"","type":"address"}],"name":"gbCollection","outputs":[{"internalType":"bool","name":"","type":"bool"}],"stateMutability":"view","type":"function"},{"inputs":[{"internalType":"bytes32","name":"role","type":"bytes32"}],"name":"getRoleAdmin","outputs":[{"internalType":"bytes32","name":"","type":"bytes32"}],"stateMutability":"view","type":"function"},{"inputs":[{"internalType":"bytes32","name":"role","type":"bytes32"},{"internalType":"address","name":"account","type":"address"}],"name":"grantRole","outputs":[],"stateMutability":"nonpayable","type":"function"},{"inputs":[{"internalType":"bytes32","name":"role","type":"bytes32"},{"internalType":"address","name":"account","type":"address"}],"name":"hasRole","outputs":[{"internalType":"bool","name":"","type":"bool"}],"stateMutability":"view","type":"function"},{"inputs":[{"internalType":"address","name":"","type":"address"},{"internalType":"uint256","name":"","type":"uint256"}],"name":"itemInfo","outputs":[{"internalType":"address","name":"royaltyAddress","type":"address"},{"internalType":"uint96","name":"royaltyFee","type":"uint96"},{"internalType":"bool","name":"isPrimaryCollection","type":"bool"}],"stateMutability":"view","type":"function"},{"inputs":[{"internalType":"address","name":"","type":"address"}],"name":"nonces","outputs":[{"internalType":"uint256","name":"","type":"uint256"}],"stateMutability":"view","type":"function"},{"inputs":[],"name":"pause","outputs":[],"stateMutability":"nonpayable","type":"function"},{"inputs":[],"name":"paused","outputs":[{"internalType":"bool","name":"","type":"bool"}],"stateMutability":"view","type":"function"},{"inputs":[],"name":"platformFee","outputs":[{"internalType":"uint96","name":"","type":"uint96"}],"stateMutability":"view","type":"function"},{"inputs":[{"internalType":"bytes32","name":"role","type":"bytes32"},{"internalType":"address","name":"account","type":"address"}],"name":"renounceRole","outputs":[],"stateMutability":"nonpayable","type":"function"},{"inputs":[{"internalType":"bytes32","name":"role","type":"bytes32"},{"internalType":"address","name":"account","type":"address"}],"name":"revokeRole","outputs":[],"stateMutability":"nonpayable","type":"function"},{"inputs":[{"internalType":"address","name":"adminWallet_","type":"address"}],"name":"setAdminWallet","outputs":[],"stateMutability":"nonpayable","type":"function"},{"inputs":[{"internalType":"address","name":"collectionAddress","type":"address"},{"internalType":"bool","name":"isCollection","type":"bool"}],"name":"setGBCollectionAddress","outputs":[],"stateMutability":"nonpayable","type":"function"},{"inputs":[{"internalType":"uint96","name":"platformFee_","type":"uint96"}],"name":"setPlatformFee","outputs":[],"stateMutability":"nonpayable","type":"function"},{"inputs":[{"internalType":"address","name":"verifyRoleAddress","type":"address"}],"name":"setVerifyRole","outputs":[],"stateMutability":"nonpayable","type":"function"},{"inputs":[{"internalType":"bytes4","name":"interfaceId","type":"bytes4"}],"name":"supportsInterface","outputs":[{"internalType":"bool","name":"","type":"bool"}],"stateMutability":"view","type":"function"},{"inputs":[],"name":"unpause","outputs":[],"stateMutability":"nonpayable","type":"function"},{"inputs":[{"components":[{"internalType":"address","name":"account","type":"address"},{"internalType":"address","name":"collection","type":"address"},{"internalType":"uint256","name":"tokenId","type":"uint256"},{"internalType":"string","name":"tokenURI","type":"string"},{"internalType":"uint256","name":"deadline","type":"uint256"},{"internalType":"uint256","name":"nonce","type":"uint256"}],"internalType":"struct Domain.UpdateTokenURI","name":"tokenUriInfo","type":"tuple"},{"internalType":"bytes","name":"signature","type":"bytes"}],"name":"updateTokenURI","outputs":[],"stateMutability":"nonpayable","type":"function"}],"evm":{"bytecode":{"linkReferences":{},"object":"610140604052600680546001600160a01b0316607d60a11b1790553480156200002757600080fd5b506040516200354c3803806200354c8339810160408190526200004a9162000278565b604080518082018252600d81526c47424d61726b6574706c61636560981b6020808301918252835180850190945260058452640312e302e360dc1b908401528151902060e08190527f06c015bd22b4c69690933c1058878ebdfef31f9aaae40bbe86d8a09fe1b2972c6101008190524660a0529192917f8b73c3c69bb8fe3d512ecc4cf759cc79239f7b179b0ffacaa9a75d522b39400f620001318184846040805160208101859052908101839052606081018290524660808201523060a082015260009060c0016040516020818303038152906040528051906020012090509392505050565b6080523060c0526101205250506001805550506002805460ff19169055600680546001600160a01b0319166001600160a01b03831617905562000176600084620001ab565b620001a27fd262a1e181ec035692bcc8c920b971bccc173d5263f104f91c1561b5033679dd83620001ab565b505050620002c2565b620001b78282620001bb565b5050565b6000828152602081815260408083206001600160a01b038516845290915290205460ff16620001b7576000828152602081815260408083206001600160a01b03851684529091529020805460ff19166001179055620002173390565b6001600160a01b0316816001600160a01b0316837f2f8788117e7eff1d82e926ec794901d17c78024a50270940304540a733656f0d60405160405180910390a45050565b80516001600160a01b03811681146200027357600080fd5b919050565b6000806000606084860312156200028e57600080fd5b62000299846200025b565b9250620002a9602085016200025b565b9150620002b9604085016200025b565b90509250925092565b60805160a05160c05160e051610100516101205161323a6200031260003960006121ec0152600061223b015260006122160152600061216f01526000612199015260006121c3015261323a6000f3fe6080604052600436106101405760003560e01c80638456cb59116100b6578063b9bca0da1161006f578063b9bca0da1461040d578063c46f23f41461042d578063d41d0e5c1461044d578063d547741f14610481578063e20c7153146104a1578063f99e5dbb146104c157600080fd5b80638456cb591461035357806390bb447f1461036857806391d148541461039857806394ae3881146103b8578063a217fddf146103d8578063ae3771b4146103ed57600080fd5b8063350829331161010857806335082933146102a657806336568abe146102c65780633f4ba83a146102e65780635c975abb146102fb5780637ecebe0014610313578063811f6b761461034057600080fd5b806301ffc9a7146101455780631cdaab671461017a578063248a9ca31461020757806326232a2e146102455780632f2ff15d14610284575b600080fd5b34801561015157600080fd5b50610165610160366004612758565b6104e1565b60405190151581526020015b60405180910390f35b34801561018657600080fd5b506101d86101953660046127a7565b6005602090815260009283526040808420909152908252902080546001909101546001600160a01b03821691600160a01b90046001600160601b03169060ff1683565b604080516001600160a01b0390941684526001600160601b039092166020840152151590820152606001610171565b34801561021357600080fd5b506102376102223660046127d3565b60009081526020819052604090206001015490565b604051908152602001610171565b34801561025157600080fd5b5060065461026c90600160a01b90046001600160601b031681565b6040516001600160601b039091168152602001610171565b34801561029057600080fd5b506102a461029f3660046127ec565b6104f2565b005b3480156102b257600080fd5b506102a46102c136600461281c565b61051c565b3480156102d257600080fd5b506102a46102e13660046127ec565b6105ed565b3480156102f257600080fd5b506102a461066b565b34801561030757600080fd5b5060025460ff16610165565b34801561031f57600080fd5b5061023761032e36600461281c565b60046020526000908152604090205481565b6102a461034e36600461287b565b610681565b34801561035f57600080fd5b506102a4610e36565b34801561037457600080fd5b5061016561038336600461281c565b60036020526000908152604090205460ff1681565b3480156103a457600080fd5b506101656103b33660046127ec565b610e49565b3480156103c457600080fd5b506102a46103d3366004612934565b610e72565b3480156103e457600080fd5b50610237600081565b3480156103f957600080fd5b506102a46104083660046129de565b6111db565b34801561041957600080fd5b506102a4610428366004612a42565b611547565b34801561043957600080fd5b506102a461044836600461281c565b611862565b34801561045957600080fd5b506102377fd262a1e181ec035692bcc8c920b971bccc173d5263f104f91c1561b5033679dd81565b34801561048d57600080fd5b506102a461049c3660046127ec565b61193a565b3480156104ad57600080fd5b506102a46104bc366004612a83565b61195f565b3480156104cd57600080fd5b506102a46104dc366004612ab6565b611a3a565b60006104ec82611b02565b92915050565b60008281526020819052604090206001015461050d81611b37565b6105178383611b41565b505050565b600061052781611b37565b6001600160a01b0382166105975760405162461bcd60e51b815260206004820152602c60248201527f61646d696e57616c6c65742061646472657373206d757374206e6f742062652060448201526b7a65726f206164647265737360a01b60648201526084015b60405180910390fd5b600680546001600160a01b0319166001600160a01b0384169081179091556040519081527f1b651cfd0a3f185590087e7e632381434dfada46f037b9081264f9f5bdbfcd9b906020015b60405180910390a15050565b6001600160a01b038116331461065d5760405162461bcd60e51b815260206004820152602f60248201527f416363657373436f6e74726f6c3a2063616e206f6e6c792072656e6f756e636560448201526e103937b632b9903337b91039b2b63360891b606482015260840161058e565b6106678282611bc5565b5050565b600061067681611b37565b61067e611c2a565b50565b6002600154036106a35760405162461bcd60e51b815260040161058e90612ad1565b60026001556106b0611c7c565b60006106c2604085016020860161281c565b6001600160a01b0316036106e85760405162461bcd60e51b815260040161058e90612b08565b6106f8606084016040850161281c565b6001600160a01b03163b156107755760405162461bcd60e51b815260206004820152603a60248201527f47424d61726b6574706c6163653a2073656c6c65722061646472657373206d7560448201527f7374206e6f7420626520636f6e74726163742061646472657373000000000000606482015260840161058e565b600061078760e0850160c0860161281c565b6001600160a01b0316036108035760405162461bcd60e51b815260206004820152603760248201527f47424d61726b6574706c6163653a20636861726974792061646472657373206d60448201527f757374206e6f74206265207a65726f2061646472657373000000000000000000606482015260840161058e565b6103e8610817610100850160e08601612ab6565b6001600160601b031610158015610849575061271061083d610100850160e08601612ab6565b6001600160601b031611155b6108bb5760405162461bcd60e51b815260206004820152603e60248201527f47424d61726b6574706c6163653a20636861726974792070657263656e74616760448201527f65206d757374206265206265747765656e2031302520616e6420313030250000606482015260840161058e565b60006005816108d0604087016020880161281c565b6001600160a01b039081168252602080830193909352604091820160009081206060808a013583529085529083902083519182018452805492831682526001600160601b03600160a01b93849004811695830186905260019091015460ff16151593820193909352600654909450612710939291900416610958610100880160e08901612ab6565b6109629190612b7b565b61096c9190612b7b565b6001600160601b031611156109db5760405162461bcd60e51b815260206004820152602f60248201527f47424d61726b6574706c6163653a20746f74616c20666565206d75737420626560448201526e206c657373207468616e203130302560881b606482015260840161058e565b6000846080013511610a475760405162461bcd60e51b815260206004820152602f60248201527f47424d61726b6574706c6163653a204e4654205072696365206d75737420626560448201526e02067726561746572207468616e203608c1b606482015260840161058e565b610a5960a08501356080860135612ba2565b341015610ab25760405162461bcd60e51b815260206004820152602160248201527f47424d61726b6574706c6163653a20496e73756666696369656e742066756e646044820152607360f81b606482015260840161058e565b836101000135421115610ad75760405162461bcd60e51b815260040161058e90612bb5565b60036000610aeb604087016020880161281c565b6001600160a01b0316815260208101919091526040016000205460ff16610b245760405162461bcd60e51b815260040161058e90612bea565b33600090815260046020526040902054610b85610b49610b448784611cc4565b611dd3565b85858080601f016020809104026020016040519081016040528093929190818152602001838380828437600092019190915250611de692505050565b610ba15760405162461bcd60e51b815260040161058e90612c33565b6000610bd36080870135610bbc610100890160e08a01612ab6565b6127106001600160601b0391909116919091020490565b9050610bfb610be860e0880160c0890161281c565b610bf660a089013584612ba2565b611e1d565b600080610c0e6040890160208a0161281c565b60405163152a902d60e11b815260608a0135600482015260808a013560248201526001600160a01b039190911690632a55205a906044016040805180830381865afa158015610c61573d6000803e3d6000fd5b505050506040513d601f19601f82011682018060405250810190610c859190612c5e565b91509150610c938282611e1d565b60065461271060808a0135600160a01b83046001600160601b0316020490610cc4906001600160a01b031682611e1d565b6080890135849003829003818103908214610d3e57866040015115610d2b576000610cf0600283612c8c565b9050610d0b610d0560608d0160408e0161281c565b82611e1d565b600654610d25906001600160a01b0316610bf68385612cae565b50610d3e565b610d3e610d0560608c0160408d0161281c565b3360009081526004602090815260409182902080546001019055610d66918c01908c0161281c565b6001600160a01b03166342842e0e610d8460608d0160408e0161281c565b336040516001600160e01b031960e085901b1681526001600160a01b0392831660048201529116602482015260608d01356044820152606401600060405180830381600087803b158015610dd757600080fd5b505af1158015610deb573d6000803e3d6000fd5b505050507fb238def85b84e39431a81cf74571c9e05efa135b52dd670762d0d300f04402968a604051610e1e9190612cc1565b60405180910390a15050600180555050505050505050565b6000610e4181611b37565b61067e611f36565b6000918252602082815260408084206001600160a01b0393909316845291905290205460ff1690565b600260015403610e945760405162461bcd60e51b815260040161058e90612ad1565b6002600155610ea1611c7c565b6000610eac81611b37565b6001600160a01b038816610ed25760405162461bcd60e51b815260040161058e90612b08565b858314610f475760405162461bcd60e51b815260206004820152603a60248201527f47424d61726b6574706c6163653a20746f6b656e49647320616e6420746f6b6560448201527f6e55524973206c656e677468206d75737420626520657175616c000000000000606482015260840161058e565b6001600160a01b03881660009081526003602052604090205460ff16610f7f5760405162461bcd60e51b815260040161058e90612bea565b60005b86811015611187576000888883818110610f9e57610f9e612d85565b9050602002013511610fc25760405162461bcd60e51b815260040161058e90612d9b565b604080516060810182526001600160a01b0380861682526001600160601b038916602080840191909152600183850152908c166000908152600590915291822090918a8a8581811061101657611016612d85565b602090810292909201358352508181019290925260409081016000208351928401516001600160601b0316600160a01b026001600160a01b039384161781559201516001909201805492151560ff1990931692909217909155891663e5bff2e4848a8a8581811061108957611089612d85565b90506020020135898989878181106110a3576110a3612d85565b90506020028101906110b59190612deb565b6040518663ffffffff1660e01b81526004016110d5959493929190612e5b565b600060405180830381600087803b1580156110ef57600080fd5b505af1158015611103573d6000803e3d6000fd5b505050507f723a7f75732cc7c49d80e424f8f880b978246d5e12bd498d41d6a39240e2c67889848a8a8581811061113c5761113c612d85565b9050602002013588888681811061115557611155612d85565b90506020028101906111679190612deb565b8b60405161117a96959493929190612e9d565b60405180910390a1610f82565b507fa74b74a78619f24285b7c1638ce8aca155445a36c3703f2297493080a0c1585a8833898988888b896040516111c5989796959493929190612eed565b60405180910390a1505060018055505050505050565b6002600154036111fd5760405162461bcd60e51b815260040161058e90612ad1565b600260015561120a611c7c565b600061121c604085016020860161281c565b6001600160a01b0316036112425760405162461bcd60e51b815260040161058e90612b08565b60008360400135116112665760405162461bcd60e51b815260040161058e90612d9b565b6003600061127a604086016020870161281c565b6001600160a01b0316815260208101919091526040016000205460ff166112b35760405162461bcd60e51b815260040161058e90612bea565b82608001354211156112d75760405162461bcd60e51b815260040161058e90612bb5565b336000908152600460205260409020546113336112f7610b448684611f73565b84848080601f016020809104026020016040519081016040528093929190818152602001838380828437600092019190915250611de692505050565b61134f5760405162461bcd60e51b815260040161058e90612c33565b33611360604086016020870161281c565b6001600160a01b0316636352211e86604001356040518263ffffffff1660e01b815260040161139191815260200190565b602060405180830381865afa1580156113ae573d6000803e3d6000fd5b505050506040513d601f19601f820116820180604052508101906113d29190613009565b6001600160a01b0316146114465760405162461bcd60e51b815260206004820152603560248201527f47424d61726b6574706c6163653a204f6e6c79204e4654206f776e65722063616044820152746e20757064617465206368617269747920696e666f60581b606482015260840161058e565b336000908152600460209081526040918290208054600101905561146e91860190860161281c565b6001600160a01b031663162094c4604086013561148e6060880188612deb565b6040518463ffffffff1660e01b81526004016114ac93929190613026565b600060405180830381600087803b1580156114c657600080fd5b505af11580156114da573d6000803e3d6000fd5b507f2a594f4fdcfb43b211e3fe501443da843ed0daa6e9cc58965e68afb67938f5f29250611511915050604086016020870161281c565b3360408701356115246060890189612deb565b604051611535959493929190613049565b60405180910390a15050600180555050565b6002600154036115695760405162461bcd60e51b815260040161058e90612ad1565b6002600155611576611c7c565b6000611588604085016020860161281c565b6001600160a01b0316036115ae5760405162461bcd60e51b815260040161058e90612b08565b60008360400135116115d25760405162461bcd60e51b815260040161058e90612d9b565b600360006115e6604086016020870161281c565b6001600160a01b0316815260208101919091526040016000205460ff1661161f5760405162461bcd60e51b815260040161058e90612bea565b8260a001354211156116435760405162461bcd60e51b815260040161058e90612bb5565b336000908152600460205260409020546116636112f7610b448684611fe2565b61167f5760405162461bcd60e51b815260040161058e90612c33565b60405180606001604052806116913390565b6001600160a01b031681526020016116af6080870160608801612ab6565b6001600160601b03168152600060209182018190526005916116d7906040890190890161281c565b6001600160a01b0390811682526020808301939093526040918201600090812089840135825284528281208551948601516001600160601b0316600160a01b02949092169390931781559201516001909201805492151560ff19909316929092179091556004906117453390565b6001600160a01b031681526020808201929092526040908101600020805460010190556117779190860190860161281c565b6001600160a01b031663e5bff2e433604087013561179b6080890160608a01612ab6565b6117a860808a018a612deb565b6040518663ffffffff1660e01b81526004016117c8959493929190612e5b565b600060405180830381600087803b1580156117e257600080fd5b505af11580156117f6573d6000803e3d6000fd5b507f723a7f75732cc7c49d80e424f8f880b978246d5e12bd498d41d6a39240e2c678925061182d915050604086016020870161281c565b3360408701356118406080890189612deb565b61185060808b0160608c01612ab6565b60405161153596959493929190612e9d565b600061186d81611b37565b6001600160a01b0382166118d75760405162461bcd60e51b815260206004820152602b60248201527f766572696679526f6c652061646472657373206d757374206e6f74206265207a60448201526a65726f206164647265737360a81b606482015260840161058e565b6119017fd262a1e181ec035692bcc8c920b971bccc173d5263f104f91c1561b5033679dd83611b41565b6040516001600160a01b03831681527f823bfe6c95b007bb6cc8bb748029c56ae8f83f9fc647a5c47b36f893bdefe74f906020016105e1565b60008281526020819052604090206001015461195581611b37565b6105178383611bc5565b600061196a81611b37565b6001600160a01b0383166119d65760405162461bcd60e51b815260206004820152602d60248201527f6762436f6c6c656374696f6e2061646472657373206d757374206e6f7420626560448201526c207a65726f206164647265737360981b606482015260840161058e565b6001600160a01b038316600081815260036020908152604091829020805460ff19168615159081179091558251938452908301527f223891d059d602a4595404ec0a953e0fa8de6291465a1e0d904d07f387f0b7fa910160405180910390a1505050565b6000611a4581611b37565b6000826001600160601b031611611aac5760405162461bcd60e51b815260206004820152602560248201527f706c6174666f726d466565206d7573742062652067726561746572207468616e604482015264207a65726f60d81b606482015260840161058e565b600680546001600160a01b0316600160a01b6001600160601b038516908102919091179091556040519081527fbe3599c33046219ddc3706f4b99caca706dc0f53775580d18a367dc2188c96e5906020016105e1565b60006001600160e01b03198216637965db0b60e01b14806104ec57506301ffc9a760e01b6001600160e01b03198316146104ec565b61067e81336120b5565b611b4b8282610e49565b610667576000828152602081815260408083206001600160a01b03851684529091529020805460ff19166001179055611b813390565b6001600160a01b0316816001600160a01b0316837f2f8788117e7eff1d82e926ec794901d17c78024a50270940304540a733656f0d60405160405180910390a45050565b611bcf8282610e49565b15610667576000828152602081815260408083206001600160a01b0385168085529252808320805460ff1916905551339285917ff6391f5c32d9c69d2a47ea670b442974b53935d1edc7fd64eb21e047a839171b9190a45050565b611c32612119565b6002805460ff191690557f5db9ee0a495bf2e6ff9c91a7834c1ba4fdd244a5e8aa4e537bd38aeae4b073aa335b6040516001600160a01b03909116815260200160405180910390a1565b60025460ff1615611cc25760405162461bcd60e51b815260206004820152601060248201526f14185d5cd8589b194e881c185d5cd95960821b604482015260640161058e565b565b60007f17267e3c9a41fdc4878f6c57751034dfbbf7febe7592905bfe881b17e566ed2b611cf4602085018561281c565b611d04604086016020870161281c565b611d14606087016040880161281c565b6060870135608088013560a0890135611d3360e08b0160c08c0161281c565b611d446101008c0160e08d01612ab6565b60408051602081019a909a526001600160a01b03988916908a01529587166060890152938616608088015260a087019290925260c086015260e0850152909116610100808401919091526001600160601b039091166101208301528401356101408201526101608101839052610180015b60405160208183030381529060405280519060200120905092915050565b60006104ec611de0612162565b83612289565b6000611e167fd262a1e181ec035692bcc8c920b971bccc173d5263f104f91c1561b5033679dd6103b385856122b0565b9392505050565b80471015611e6d5760405162461bcd60e51b815260206004820152601d60248201527f416464726573733a20696e73756666696369656e742062616c616e6365000000604482015260640161058e565b6000826001600160a01b03168260405160006040518083038185875af1925050503d8060008114611eba576040519150601f19603f3d011682016040523d82523d6000602084013e611ebf565b606091505b50509050806105175760405162461bcd60e51b815260206004820152603a60248201527f416464726573733a20756e61626c6520746f2073656e642076616c75652c207260448201527f6563697069656e74206d61792068617665207265766572746564000000000000606482015260840161058e565b611f3e611c7c565b6002805460ff191660011790557f62e78cea01bee320cd4e420270b5ea74000d11b0c9f74754ebdbfc544b05a258611c5f3390565b60007f485787466c6bb756e23877696afb1ffef4d4f7daa150be930943445b9efd5abc611fa3602085018561281c565b611fb3604086016020870161281c565b6040860135611fc56060880188612deb565b886080013588604051602001611db598979695949392919061307d565b60007fd7414a21ae7fe6c7ae7ba4fc193977b266778b52f64e202866e96f1d30267f7f612012602085018561281c565b612022604086016020870161281c565b60408601356120376080880160608901612ab6565b6120446080890189612deb565b6040516120529291906130ce565b6040805191829003822060208301979097526001600160a01b039586169082015293909216606084015260808301526001600160601b031660a08083019190915260c08201929092529084013560e0820152610100810183905261012001611db5565b6120bf8282610e49565b610667576120d7816001600160a01b031660146122d4565b6120e28360206122d4565b6040516020016120f3929190613102565b60408051601f198184030181529082905262461bcd60e51b825261058e91600401613177565b60025460ff16611cc25760405162461bcd60e51b815260206004820152601460248201527314185d5cd8589b194e881b9bdd081c185d5cd95960621b604482015260640161058e565b6000306001600160a01b037f0000000000000000000000000000000000000000000000000000000000000000161480156121bb57507f000000000000000000000000000000000000000000000000000000000000000046145b156121e557507f000000000000000000000000000000000000000000000000000000000000000090565b50604080517f00000000000000000000000000000000000000000000000000000000000000006020808301919091527f0000000000000000000000000000000000000000000000000000000000000000828401527f000000000000000000000000000000000000000000000000000000000000000060608301524660808301523060a0808401919091528351808403909101815260c0909201909252805191012090565b60405161190160f01b60208201526022810183905260428101829052600090606201611db5565b60008060006122bf8585612470565b915091506122cc816124b5565b509392505050565b606060006122e38360026131aa565b6122ee906002612ba2565b67ffffffffffffffff811115612306576123066131c1565b6040519080825280601f01601f191660200182016040528015612330576020820181803683370190505b509050600360fc1b8160008151811061234b5761234b612d85565b60200101906001600160f81b031916908160001a905350600f60fb1b8160018151811061237a5761237a612d85565b60200101906001600160f81b031916908160001a905350600061239e8460026131aa565b6123a9906001612ba2565b90505b6001811115612421576f181899199a1a9b1b9c1cb0b131b232b360811b85600f16601081106123dd576123dd612d85565b1a60f81b8282815181106123f3576123f3612d85565b60200101906001600160f81b031916908160001a90535060049490941c9361241a816131d7565b90506123ac565b508315611e165760405162461bcd60e51b815260206004820181905260248201527f537472696e67733a20686578206c656e67746820696e73756666696369656e74604482015260640161058e565b60008082516041036124a65760208301516040840151606085015160001a61249a8782858561266b565b945094505050506124ae565b506000905060025b9250929050565b60008160048111156124c9576124c96131ee565b036124d15750565b60018160048111156124e5576124e56131ee565b036125325760405162461bcd60e51b815260206004820152601860248201527f45434453413a20696e76616c6964207369676e61747572650000000000000000604482015260640161058e565b6002816004811115612546576125466131ee565b036125935760405162461bcd60e51b815260206004820152601f60248201527f45434453413a20696e76616c6964207369676e6174757265206c656e67746800604482015260640161058e565b60038160048111156125a7576125a76131ee565b036125ff5760405162461bcd60e51b815260206004820152602260248201527f45434453413a20696e76616c6964207369676e6174757265202773272076616c604482015261756560f01b606482015260840161058e565b6004816004811115612613576126136131ee565b0361067e5760405162461bcd60e51b815260206004820152602260248201527f45434453413a20696e76616c6964207369676e6174757265202776272076616c604482015261756560f01b606482015260840161058e565b6000807f7fffffffffffffffffffffffffffffff5d576e7357a4501ddfe92f46681b20a08311156126a2575060009050600361274f565b8460ff16601b141580156126ba57508460ff16601c14155b156126cb575060009050600461274f565b6040805160008082526020820180845289905260ff881692820192909252606081018690526080810185905260019060a0016020604051602081039080840390855afa15801561271f573d6000803e3d6000fd5b5050604051601f1901519150506001600160a01b0381166127485760006001925092505061274f565b9150600090505b94509492505050565b60006020828403121561276a57600080fd5b81356001600160e01b031981168114611e1657600080fd5b6001600160a01b038116811461067e57600080fd5b80356127a281612782565b919050565b600080604083850312156127ba57600080fd5b82356127c581612782565b946020939093013593505050565b6000602082840312156127e557600080fd5b5035919050565b600080604083850312156127ff57600080fd5b82359150602083013561281181612782565b809150509250929050565b60006020828403121561282e57600080fd5b8135611e1681612782565b60008083601f84011261284b57600080fd5b50813567ffffffffffffffff81111561286357600080fd5b6020830191508360208285010111156124ae57600080fd5b600080600083850361016081121561289257600080fd5b610140808212156128a257600080fd5b859450840135905067ffffffffffffffff8111156128bf57600080fd5b6128cb86828701612839565b9497909650939450505050565b60008083601f8401126128ea57600080fd5b50813567ffffffffffffffff81111561290257600080fd5b6020830191508360208260051b85010111156124ae57600080fd5b80356001600160601b03811681146127a257600080fd5b600080600080600080600060a0888a03121561294f57600080fd5b873561295a81612782565b9650602088013567ffffffffffffffff8082111561297757600080fd5b6129838b838c016128d8565b909850965086915061299760408b0161291d565b955060608a01359150808211156129ad57600080fd5b506129ba8a828b016128d8565b90945092505060808801356129ce81612782565b8091505092959891949750929550565b6000806000604084860312156129f357600080fd5b833567ffffffffffffffff80821115612a0b57600080fd5b9085019060c08288031215612a1f57600080fd5b90935060208501359080821115612a3557600080fd5b506128cb86828701612839565b600080600060408486031215612a5757600080fd5b833567ffffffffffffffff80821115612a6f57600080fd5b9085019060e08288031215612a1f57600080fd5b60008060408385031215612a9657600080fd5b8235612aa181612782565b91506020830135801515811461281157600080fd5b600060208284031215612ac857600080fd5b611e168261291d565b6020808252601f908201527f5265656e7472616e637947756172643a207265656e7472616e742063616c6c00604082015260600190565b6020808252603a908201527f47424d61726b6574706c6163653a20636f6c6c656374696f6e2061646472657360408201527f73206d757374206e6f74206265207a65726f2061646472657373000000000000606082015260800190565b634e487b7160e01b600052601160045260246000fd5b6001600160601b03818116838216019080821115612b9b57612b9b612b65565b5092915050565b808201808211156104ec576104ec612b65565b6020808252818101527f47424d61726b6574706c6163653a205369676e61747572652065787069726564604082015260600190565b60208082526029908201527f47424d61726b6574706c6163653a20496e76616c696420636f6c6c656374696f6040820152686e206164647265737360b81b606082015260800190565b602080825260119082015270496e76616c6964207369676e617475726560781b604082015260600190565b60008060408385031215612c7157600080fd5b8251612c7c81612782565b6020939093015192949293505050565b600082612ca957634e487b7160e01b600052601260045260246000fd5b500490565b818103818111156104ec576104ec612b65565b6101408101612ce082612cd385612797565b6001600160a01b03169052565b612cec60208401612797565b6001600160a01b03166020830152612d0660408401612797565b6001600160a01b038116604084015250606083013560608301526080830135608083015260a083013560a0830152612d4060c08401612797565b6001600160a01b031660c0830152612d5a60e0840161291d565b6001600160601b031660e0830152610100838101359083015261012092830135929091019190915290565b634e487b7160e01b600052603260045260246000fd5b60208082526030908201527f47424d61726b6574706c6163653a20746f6b656e4964206d757374206265206760408201526f726561746572207468616e207a65726f60801b606082015260800190565b6000808335601e19843603018112612e0257600080fd5b83018035915067ffffffffffffffff821115612e1d57600080fd5b6020019150368190038213156124ae57600080fd5b81835281816020850137506000828201602090810191909152601f909101601f19169091010190565b60018060a01b03861681528460208201526001600160601b0384166040820152608060608201526000612e92608083018486612e32565b979650505050505050565b6001600160a01b038781168252861660208201526040810185905260a060608201819052600090612ed19083018587612e32565b90506001600160601b0383166080830152979650505050505050565b6001600160a01b03898116825288811660208084019190915260c0604084018190528301889052600091906001600160fb1b03891115612f2c57600080fd5b8860051b9150818a60e086013760e091840184810383016060860152918201879052610100600588901b830181019083018960005b8a811015612fd15785840360ff190183528135368d9003601e19018112612f8757600080fd5b8c01858101903567ffffffffffffffff811115612fa357600080fd5b803603821315612fb257600080fd5b612fbd868284612e32565b955050509184019190840190600101612f61565b5050506001600160601b03871660808601529250612fed915050565b6001600160a01b03831660a08301529998505050505050505050565b60006020828403121561301b57600080fd5b8151611e1681612782565b838152604060208201526000613040604083018486612e32565b95945050505050565b6001600160a01b0386811682528516602082015260408101849052608060608201819052600090612e929083018486612e32565b8881526001600160a01b038881166020830152871660408201526060810186905260e0608082018190526000906130b79083018688612e32565b60a08301949094525060c001529695505050505050565b8183823760009101908152919050565b60005b838110156130f95781810151838201526020016130e1565b50506000910152565b7f416363657373436f6e74726f6c3a206163636f756e742000000000000000000081526000835161313a8160178501602088016130de565b7001034b99036b4b9b9b4b733903937b6329607d1b601791840191820152835161316b8160288401602088016130de565b01602801949350505050565b60208152600082518060208401526131968160408501602087016130de565b601f01601f19169190910160400192915050565b80820281158282048414176104ec576104ec612b65565b634e487b7160e01b600052604160045260246000fd5b6000816131e6576131e6612b65565b506000190190565b634e487b7160e01b600052602160045260246000fdfea264697066735822122007ce181951b9a99808f279a58e29f18b1eb84560b92fee5a80832ecf22af358064736f6c63430008110033","opcodes":"PUSH2 0x140 PUSH1 0x40 MSTORE PUSH1 0x6 DUP1 SLOAD PUSH1 0x1 PUSH1 0x1 PUSH1 0xA0 SHL SUB AND PUSH1 0x7D PUSH1 0xA1 SHL OR SWAP1 SSTORE CALLVALUE DUP1 ISZERO PUSH3 0x27 JUMPI PUSH1 0x0 DUP1 REVERT JUMPDEST POP PUSH1 0x40 MLOAD PUSH3 0x354C CODESIZE SUB DUP1 PUSH3 0x354C DUP4 CODECOPY DUP2 ADD PUSH1 0x40 DUP2 SWAP1 MSTORE PUSH3 0x4A SWAP2 PUSH3 0x278 JUMP JUMPDEST PUSH1 0x40 DUP1 MLOAD DUP1 DUP3 ADD DUP3 MSTORE PUSH1 0xD DUP2 MSTORE PUSH13 0x47424D61726B6574706C616365 PUSH1 0x98 SHL PUSH1 0x20 DUP1 DUP4 ADD SWAP2 DUP3 MSTORE DUP4 MLOAD DUP1 DUP6 ADD SWAP1 SWAP5 MSTORE PUSH1 0x5 DUP5 MSTORE PUSH5 0x312E302E3 PUSH1 0xDC SHL SWAP1 DUP5 ADD MSTORE DUP2 MLOAD SWAP1 KECCAK256 PUSH1 0xE0 DUP2 SWAP1 MSTORE PUSH32 0x6C015BD22B4C69690933C1058878EBDFEF31F9AAAE40BBE86D8A09FE1B2972C PUSH2 0x100 DUP2 SWAP1 MSTORE CHAINID PUSH1 0xA0 MSTORE SWAP2 SWAP3 SWAP2 PUSH32 0x8B73C3C69BB8FE3D512ECC4CF759CC79239F7B179B0FFACAA9A75D522B39400F PUSH3 0x131 DUP2 DUP5 DUP5 PUSH1 0x40 DUP1 MLOAD PUSH1 0x20 DUP2 ADD DUP6 SWAP1 MSTORE SWAP1 DUP2 ADD DUP4 SWAP1 MSTORE PUSH1 0x60 DUP2 ADD DUP3 SWAP1 MSTORE CHAINID PUSH1 0x80 DUP3 ADD MSTORE ADDRESS PUSH1 0xA0 DUP3 ADD MSTORE PUSH1 0x0 SWAP1 PUSH1 0xC0 ADD PUSH1 0x40 MLOAD PUSH1 0x20 DUP2 DUP4 SUB SUB DUP2 MSTORE SWAP1 PUSH1 0x40 MSTORE DUP1 MLOAD SWAP1 PUSH1 0x20 ADD KECCAK256 SWAP1 POP SWAP4 SWAP3 POP POP POP JUMP JUMPDEST PUSH1 0x80 MSTORE ADDRESS PUSH1 0xC0 MSTORE PUSH2 0x120 MSTORE POP POP PUSH1 0x1 DUP1 SSTORE POP POP PUSH1 0x2 DUP1 SLOAD PUSH1 0xFF NOT AND SWAP1 SSTORE PUSH1 0x6 DUP1 SLOAD PUSH1 0x1 PUSH1 0x1 PUSH1 0xA0 SHL SUB NOT AND PUSH1 0x1 PUSH1 0x1 PUSH1 0xA0 SHL SUB DUP4 AND OR SWAP1 SSTORE PUSH3 0x176 PUSH1 0x0 DUP5 PUSH3 0x1AB JUMP JUMPDEST PUSH3 0x1A2 PUSH32 0xD262A1E181EC035692BCC8C920B971BCCC173D5263F104F91C1561B5033679DD DUP4 PUSH3 0x1AB JUMP JUMPDEST POP POP POP PUSH3 0x2C2 JUMP JUMPDEST PUSH3 0x1B7 DUP3 DUP3 PUSH3 0x1BB JUMP JUMPDEST POP POP JUMP JUMPDEST PUSH1 0x0 DUP3 DUP2 MSTORE PUSH1 0x20 DUP2 DUP2 MSTORE PUSH1 0x40 DUP1 DUP4 KECCAK256 PUSH1 0x1 PUSH1 0x1 PUSH1 0xA0 SHL SUB DUP6 AND DUP5 MSTORE SWAP1 SWAP2 MSTORE SWAP1 KECCAK256 SLOAD PUSH1 0xFF AND PUSH3 0x1B7 JUMPI PUSH1 0x0 DUP3 DUP2 MSTORE PUSH1 0x20 DUP2 DUP2 MSTORE PUSH1 0x40 DUP1 DUP4 KECCAK256 PUSH1 0x1 PUSH1 0x1 PUSH1 0xA0 SHL SUB DUP6 AND DUP5 MSTORE SWAP1 SWAP2 MSTORE SWAP1 KECCAK256 DUP1 SLOAD PUSH1 0xFF NOT AND PUSH1 0x1 OR SWAP1 SSTORE PUSH3 0x217 CALLER SWAP1 JUMP JUMPDEST PUSH1 0x1 PUSH1 0x1 PUSH1 0xA0 SHL SUB AND DUP2 PUSH1 0x1 PUSH1 0x1 PUSH1 0xA0 SHL SUB AND DUP4 PUSH32 0x2F8788117E7EFF1D82E926EC794901D17C78024A50270940304540A733656F0D PUSH1 0x40 MLOAD PUSH1 0x40 MLOAD DUP1 SWAP2 SUB SWAP1 LOG4 POP POP JUMP JUMPDEST DUP1 MLOAD PUSH1 0x1 PUSH1 0x1 PUSH1 0xA0 SHL SUB DUP2 AND DUP2 EQ PUSH3 0x273 JUMPI PUSH1 0x0 DUP1 REVERT JUMPDEST SWAP2 SWAP1 POP JUMP JUMPDEST PUSH1 0x0 DUP1 PUSH1 0x0 PUSH1 0x60 DUP5 DUP7 SUB SLT ISZERO PUSH3 0x28E JUMPI PUSH1 0x0 DUP1 REVERT JUMPDEST PUSH3 0x299 DUP5 PUSH3 0x25B JUMP JUMPDEST SWAP3 POP PUSH3 0x2A9 PUSH1 0x20 DUP6 ADD PUSH3 0x25B JUMP JUMPDEST SWAP2 POP PUSH3 0x2B9 PUSH1 0x40 DUP6 ADD PUSH3 0x25B JUMP JUMPDEST SWAP1 POP SWAP3 POP SWAP3 POP SWAP3 JUMP JUMPDEST PUSH1 0x80 MLOAD PUSH1 0xA0 MLOAD PUSH1 0xC0 MLOAD PUSH1 0xE0 MLOAD PUSH2 0x100 MLOAD PUSH2 0x120 MLOAD PUSH2 0x323A PUSH3 0x312 PUSH1 0x0 CODECOPY PUSH1 0x0 PUSH2 0x21EC ADD MSTORE PUSH1 0x0 PUSH2 0x223B ADD MSTORE PUSH1 0x0 PUSH2 0x2216 ADD MSTORE PUSH1 0x0 PUSH2 0x216F ADD MSTORE PUSH1 0x0 PUSH2 0x2199 ADD MSTORE PUSH1 0x0 PUSH2 0x21C3 ADD MSTORE PUSH2 0x323A PUSH1 0x0 RETURN INVALID PUSH1 0x80 PUSH1 0x40 MSTORE PUSH1 0x4 CALLDATASIZE LT PUSH2 0x140 JUMPI PUSH1 0x0 CALLDATALOAD PUSH1 0xE0 SHR DUP1 PUSH4 0x8456CB59 GT PUSH2 0xB6 JUMPI DUP1 PUSH4 0xB9BCA0DA GT PUSH2 0x6F JUMPI DUP1 PUSH4 0xB9BCA0DA EQ PUSH2 0x40D JUMPI DUP1 PUSH4 0xC46F23F4 EQ PUSH2 0x42D JUMPI DUP1 PUSH4 0xD41D0E5C EQ PUSH2 0x44D JUMPI DUP1 PUSH4 0xD547741F EQ PUSH2 0x481 JUMPI DUP1 PUSH4 0xE20C7153 EQ PUSH2 0x4A1 JUMPI DUP1 PUSH4 0xF99E5DBB EQ PUSH2 0x4C1 JUMPI PUSH1 0x0 DUP1 REVERT JUMPDEST DUP1 PUSH4 0x8456CB59 EQ PUSH2 0x353 JUMPI DUP1 PUSH4 0x90BB447F EQ PUSH2 0x368 JUMPI DUP1 PUSH4 0x91D14854 EQ PUSH2 0x398 JUMPI DUP1 PUSH4 0x94AE3881 EQ PUSH2 0x3B8 JUMPI DUP1 PUSH4 0xA217FDDF EQ PUSH2 0x3D8 JUMPI DUP1 PUSH4 0xAE3771B4 EQ PUSH2 0x3ED JUMPI PUSH1 0x0 DUP1 REVERT JUMPDEST DUP1 PUSH4 0x35082933 GT PUSH2 0x108 JUMPI DUP1 PUSH4 0x35082933 EQ PUSH2 0x2A6 JUMPI DUP1 PUSH4 0x36568ABE EQ PUSH2 0x2C6 JUMPI DUP1 PUSH4 0x3F4BA83A EQ PUSH2 0x2E6 JUMPI DUP1 PUSH4 0x5C975ABB EQ PUSH2 0x2FB JUMPI DUP1 PUSH4 0x7ECEBE00 EQ PUSH2 0x313 JUMPI DUP1 PUSH4 0x811F6B76 EQ PUSH2 0x340 JUMPI PUSH1 0x0 DUP1 REVERT JUMPDEST DUP1 PUSH4 0x1FFC9A7 EQ PUSH2 0x145 JUMPI DUP1 PUSH4 0x1CDAAB67 EQ PUSH2 0x17A JUMPI DUP1 PUSH4 0x248A9CA3 EQ PUSH2 0x207 JUMPI DUP1 PUSH4 0x26232A2E EQ PUSH2 0x245 JUMPI DUP1 PUSH4 0x2F2FF15D EQ PUSH2 0x284 JUMPI JUMPDEST PUSH1 0x0 DUP1 REVERT JUMPDEST CALLVALUE DUP1 ISZERO PUSH2 0x151 JUMPI PUSH1 0x0 DUP1 REVERT JUMPDEST POP PUSH2 0x165 PUSH2 0x160 CALLDATASIZE PUSH1 0x4 PUSH2 0x2758 JUMP JUMPDEST PUSH2 0x4E1 JUMP JUMPDEST PUSH1 0x40 MLOAD SWAP1 ISZERO ISZERO DUP2 MSTORE PUSH1 0x20 ADD JUMPDEST PUSH1 0x40 MLOAD DUP1 SWAP2 SUB SWAP1 RETURN JUMPDEST CALLVALUE DUP1 ISZERO PUSH2 0x186 JUMPI PUSH1 0x0 DUP1 REVERT JUMPDEST POP PUSH2 0x1D8 PUSH2 0x195 CALLDATASIZE PUSH1 0x4 PUSH2 0x27A7 JUMP JUMPDEST PUSH1 0x5 PUSH1 0x20 SWAP1 DUP2 MSTORE PUSH1 0x0 SWAP3 DUP4 MSTORE PUSH1 0x40 DUP1 DUP5 KECCAK256 SWAP1 SWAP2 MSTORE SWAP1 DUP3 MSTORE SWAP1 KECCAK256 DUP1 SLOAD PUSH1 0x1 SWAP1 SWAP2 ADD SLOAD PUSH1 0x1 PUSH1 0x1 PUSH1 0xA0 SHL SUB DUP3 AND SWAP2 PUSH1 0x1 PUSH1 0xA0 SHL SWAP1 DIV PUSH1 0x1 PUSH1 0x1 PUSH1 0x60 SHL SUB AND SWAP1 PUSH1 0xFF AND DUP4 JUMP JUMPDEST PUSH1 0x40 DUP1 MLOAD PUSH1 0x1 PUSH1 0x1 PUSH1 0xA0 SHL SUB SWAP1 SWAP5 AND DUP5 MSTORE PUSH1 0x1 PUSH1 0x1 PUSH1 0x60 SHL SUB SWAP1 SWAP3 AND PUSH1 0x20 DUP5 ADD MSTORE ISZERO ISZERO SWAP1 DUP3 ADD MSTORE PUSH1 0x60 ADD PUSH2 0x171 JUMP JUMPDEST CALLVALUE DUP1 ISZERO PUSH2 0x213 JUMPI PUSH1 0x0 DUP1 REVERT JUMPDEST POP PUSH2 0x237 PUSH2 0x222 CALLDATASIZE PUSH1 0x4 PUSH2 0x27D3 JUMP JUMPDEST PUSH1 0x0 SWAP1 DUP2 MSTORE PUSH1 0x20 DUP2 SWAP1 MSTORE PUSH1 0x40 SWAP1 KECCAK256 PUSH1 0x1 ADD SLOAD SWAP1 JUMP JUMPDEST PUSH1 0x40 MLOAD SWAP1 DUP2 MSTORE PUSH1 0x20 ADD PUSH2 0x171 JUMP JUMPDEST CALLVALUE DUP1 ISZERO PUSH2 0x251 JUMPI PUSH1 0x0 DUP1 REVERT JUMPDEST POP PUSH1 0x6 SLOAD PUSH2 0x26C SWAP1 PUSH1 0x1 PUSH1 0xA0 SHL SWAP1 DIV PUSH1 0x1 PUSH1 0x1 PUSH1 0x60 SHL SUB AND DUP2 JUMP JUMPDEST PUSH1 0x40 MLOAD PUSH1 0x1 PUSH1 0x1 PUSH1 0x60 SHL SUB SWAP1 SWAP2 AND DUP2 MSTORE PUSH1 0x20 ADD PUSH2 0x171 JUMP JUMPDEST CALLVALUE DUP1 ISZERO PUSH2 0x290 JUMPI PUSH1 0x0 DUP1 REVERT JUMPDEST POP PUSH2 0x2A4 PUSH2 0x29F CALLDATASIZE PUSH1 0x4 PUSH2 0x27EC JUMP JUMPDEST PUSH2 0x4F2 JUMP JUMPDEST STOP JUMPDEST CALLVALUE DUP1 ISZERO PUSH2 0x2B2 JUMPI PUSH1 0x0 DUP1 REVERT JUMPDEST POP PUSH2 0x2A4 PUSH2 0x2C1 CALLDATASIZE PUSH1 0x4 PUSH2 0x281C JUMP JUMPDEST PUSH2 0x51C JUMP JUMPDEST CALLVALUE DUP1 ISZERO PUSH2 0x2D2 JUMPI PUSH1 0x0 DUP1 REVERT JUMPDEST POP PUSH2 0x2A4 PUSH2 0x2E1 CALLDATASIZE PUSH1 0x4 PUSH2 0x27EC JUMP JUMPDEST PUSH2 0x5ED JUMP JUMPDEST CALLVALUE DUP1 ISZERO PUSH2 0x2F2 JUMPI PUSH1 0x0 DUP1 REVERT JUMPDEST POP PUSH2 0x2A4 PUSH2 0x66B JUMP JUMPDEST CALLVALUE DUP1 ISZERO PUSH2 0x307 JUMPI PUSH1 0x0 DUP1 REVERT JUMPDEST POP PUSH1 0x2 SLOAD PUSH1 0xFF AND PUSH2 0x165 JUMP JUMPDEST CALLVALUE DUP1 ISZERO PUSH2 0x31F JUMPI PUSH1 0x0 DUP1 REVERT JUMPDEST POP PUSH2 0x237 PUSH2 0x32E CALLDATASIZE PUSH1 0x4 PUSH2 0x281C JUMP JUMPDEST PUSH1 0x4 PUSH1 0x20 MSTORE PUSH1 0x0 SWAP1 DUP2 MSTORE PUSH1 0x40 SWAP1 KECCAK256 SLOAD DUP2 JUMP JUMPDEST PUSH2 0x2A4 PUSH2 0x34E CALLDATASIZE PUSH1 0x4 PUSH2 0x287B JUMP JUMPDEST PUSH2 0x681 JUMP JUMPDEST CALLVALUE DUP1 ISZERO PUSH2 0x35F JUMPI PUSH1 0x0 DUP1 REVERT JUMPDEST POP PUSH2 0x2A4 PUSH2 0xE36 JUMP JUMPDEST CALLVALUE DUP1 ISZERO PUSH2 0x374 JUMPI PUSH1 0x0 DUP1 REVERT JUMPDEST POP PUSH2 0x165 PUSH2 0x383 CALLDATASIZE PUSH1 0x4 PUSH2 0x281C JUMP JUMPDEST PUSH1 0x3 PUSH1 0x20 MSTORE PUSH1 0x0 SWAP1 DUP2 MSTORE PUSH1 0x40 SWAP1 KECCAK256 SLOAD PUSH1 0xFF AND DUP2 JUMP JUMPDEST CALLVALUE DUP1 ISZERO PUSH2 0x3A4 JUMPI PUSH1 0x0 DUP1 REVERT JUMPDEST POP PUSH2 0x165 PUSH2 0x3B3 CALLDATASIZE PUSH1 0x4 PUSH2 0x27EC JUMP JUMPDEST PUSH2 0xE49 JUMP JUMPDEST CALLVALUE DUP1 ISZERO PUSH2 0x3C4 JUMPI PUSH1 0x0 DUP1 REVERT JUMPDEST POP PUSH2 0x2A4 PUSH2 0x3D3 CALLDATASIZE PUSH1 0x4 PUSH2 0x2934 JUMP JUMPDEST PUSH2 0xE72 JUMP JUMPDEST CALLVALUE DUP1 ISZERO PUSH2 0x3E4 JUMPI PUSH1 0x0 DUP1 REVERT JUMPDEST POP PUSH2 0x237 PUSH1 0x0 DUP2 JUMP JUMPDEST CALLVALUE DUP1 ISZERO PUSH2 0x3F9 JUMPI PUSH1 0x0 DUP1 REVERT JUMPDEST POP PUSH2 0x2A4 PUSH2 0x408 CALLDATASIZE PUSH1 0x4 PUSH2 0x29DE JUMP JUMPDEST PUSH2 0x11DB JUMP JUMPDEST CALLVALUE DUP1 ISZERO PUSH2 0x419 JUMPI PUSH1 0x0 DUP1 REVERT JUMPDEST POP PUSH2 0x2A4 PUSH2 0x428 CALLDATASIZE PUSH1 0x4 PUSH2 0x2A42 JUMP JUMPDEST PUSH2 0x1547 JUMP JUMPDEST CALLVALUE DUP1 ISZERO PUSH2 0x439 JUMPI PUSH1 0x0 DUP1 REVERT JUMPDEST POP PUSH2 0x2A4 PUSH2 0x448 CALLDATASIZE PUSH1 0x4 PUSH2 0x281C JUMP JUMPDEST PUSH2 0x1862 JUMP JUMPDEST CALLVALUE DUP1 ISZERO PUSH2 0x459 JUMPI PUSH1 0x0 DUP1 REVERT JUMPDEST POP PUSH2 0x237 PUSH32 0xD262A1E181EC035692BCC8C920B971BCCC173D5263F104F91C1561B5033679DD DUP2 JUMP JUMPDEST CALLVALUE DUP1 ISZERO PUSH2 0x48D JUMPI PUSH1 0x0 DUP1 REVERT JUMPDEST POP PUSH2 0x2A4 PUSH2 0x49C CALLDATASIZE PUSH1 0x4 PUSH2 0x27EC JUMP JUMPDEST PUSH2 0x193A JUMP JUMPDEST CALLVALUE DUP1 ISZERO PUSH2 0x4AD JUMPI PUSH1 0x0 DUP1 REVERT JUMPDEST POP PUSH2 0x2A4 PUSH2 0x4BC CALLDATASIZE PUSH1 0x4 PUSH2 0x2A83 JUMP JUMPDEST PUSH2 0x195F JUMP JUMPDEST CALLVALUE DUP1 ISZERO PUSH2 0x4CD JUMPI PUSH1 0x0 DUP1 REVERT JUMPDEST POP PUSH2 0x2A4 PUSH2 0x4DC CALLDATASIZE PUSH1 0x4 PUSH2 0x2AB6 JUMP JUMPDEST PUSH2 0x1A3A JUMP JUMPDEST PUSH1 0x0 PUSH2 0x4EC DUP3 PUSH2 0x1B02 JUMP JUMPDEST SWAP3 SWAP2 POP POP JUMP JUMPDEST PUSH1 0x0 DUP3 DUP2 MSTORE PUSH1 0x20 DUP2 SWAP1 MSTORE PUSH1 0x40 SWAP1 KECCAK256 PUSH1 0x1 ADD SLOAD PUSH2 0x50D DUP2 PUSH2 0x1B37 JUMP JUMPDEST PUSH2 0x517 DUP4 DUP4 PUSH2 0x1B41 JUMP JUMPDEST POP POP POP JUMP JUMPDEST PUSH1 0x0 PUSH2 0x527 DUP2 PUSH2 0x1B37 JUMP JUMPDEST PUSH1 0x1 PUSH1 0x1 PUSH1 0xA0 SHL SUB DUP3 AND PUSH2 0x597 JUMPI PUSH1 0x40 MLOAD PUSH3 0x461BCD PUSH1 0xE5 SHL DUP2 MSTORE PUSH1 0x20 PUSH1 0x4 DUP3 ADD MSTORE PUSH1 0x2C PUSH1 0x24 DUP3 ADD MSTORE PUSH32 0x61646D696E57616C6C65742061646472657373206D757374206E6F7420626520 PUSH1 0x44 DUP3 ADD MSTORE PUSH12 0x7A65726F2061646472657373 PUSH1 0xA0 SHL PUSH1 0x64 DUP3 ADD MSTORE PUSH1 0x84 ADD JUMPDEST PUSH1 0x40 MLOAD DUP1 SWAP2 SUB SWAP1 REVERT JUMPDEST PUSH1 0x6 DUP1 SLOAD PUSH1 0x1 PUSH1 0x1 PUSH1 0xA0 SHL SUB NOT AND PUSH1 0x1 PUSH1 0x1 PUSH1 0xA0 SHL SUB DUP5 AND SWAP1 DUP2 OR SWAP1 SWAP2 SSTORE PUSH1 0x40 MLOAD SWAP1 DUP2 MSTORE PUSH32 0x1B651CFD0A3F185590087E7E632381434DFADA46F037B9081264F9F5BDBFCD9B SWAP1 PUSH1 0x20 ADD JUMPDEST PUSH1 0x40 MLOAD DUP1 SWAP2 SUB SWAP1 LOG1 POP POP JUMP JUMPDEST PUSH1 0x1 PUSH1 0x1 PUSH1 0xA0 SHL SUB DUP2 AND CALLER EQ PUSH2 0x65D JUMPI PUSH1 0x40 MLOAD PUSH3 0x461BCD PUSH1 0xE5 SHL DUP2 MSTORE PUSH1 0x20 PUSH1 0x4 DUP3 ADD MSTORE PUSH1 0x2F PUSH1 0x24 DUP3 ADD MSTORE PUSH32 0x416363657373436F6E74726F6C3A2063616E206F6E6C792072656E6F756E6365 PUSH1 0x44 DUP3 ADD MSTORE PUSH15 0x103937B632B9903337B91039B2B633 PUSH1 0x89 SHL PUSH1 0x64 DUP3 ADD MSTORE PUSH1 0x84 ADD PUSH2 0x58E JUMP JUMPDEST PUSH2 0x667 DUP3 DUP3 PUSH2 0x1BC5 JUMP JUMPDEST POP POP JUMP JUMPDEST PUSH1 0x0 PUSH2 0x676 DUP2 PUSH2 0x1B37 JUMP JUMPDEST PUSH2 0x67E PUSH2 0x1C2A JUMP JUMPDEST POP JUMP JUMPDEST PUSH1 0x2 PUSH1 0x1 SLOAD SUB PUSH2 0x6A3 JUMPI PUSH1 0x40 MLOAD PUSH3 0x461BCD PUSH1 0xE5 SHL DUP2 MSTORE PUSH1 0x4 ADD PUSH2 0x58E SWAP1 PUSH2 0x2AD1 JUMP JUMPDEST PUSH1 0x2 PUSH1 0x1 SSTORE PUSH2 0x6B0 PUSH2 0x1C7C JUMP JUMPDEST PUSH1 0x0 PUSH2 0x6C2 PUSH1 0x40 DUP6 ADD PUSH1 0x20 DUP7 ADD PUSH2 0x281C JUMP JUMPDEST PUSH1 0x1 PUSH1 0x1 PUSH1 0xA0 SHL SUB AND SUB PUSH2 0x6E8 JUMPI PUSH1 0x40 MLOAD PUSH3 0x461BCD PUSH1 0xE5 SHL DUP2 MSTORE PUSH1 0x4 ADD PUSH2 0x58E SWAP1 PUSH2 0x2B08 JUMP JUMPDEST PUSH2 0x6F8 PUSH1 0x60 DUP5 ADD PUSH1 0x40 DUP6 ADD PUSH2 0x281C JUMP JUMPDEST PUSH1 0x1 PUSH1 0x1 PUSH1 0xA0 SHL SUB AND EXTCODESIZE ISZERO PUSH2 0x775 JUMPI PUSH1 0x40 MLOAD PUSH3 0x461BCD PUSH1 0xE5 SHL DUP2 MSTORE PUSH1 0x20 PUSH1 0x4 DUP3 ADD MSTORE PUSH1 0x3A PUSH1 0x24 DUP3 ADD MSTORE PUSH32 0x47424D61726B6574706C6163653A2073656C6C65722061646472657373206D75 PUSH1 0x44 DUP3 ADD MSTORE PUSH32 0x7374206E6F7420626520636F6E74726163742061646472657373000000000000 PUSH1 0x64 DUP3 ADD MSTORE PUSH1 0x84 ADD PUSH2 0x58E JUMP JUMPDEST PUSH1 0x0 PUSH2 0x787 PUSH1 0xE0 DUP6 ADD PUSH1 0xC0 DUP7 ADD PUSH2 0x281C JUMP JUMPDEST PUSH1 0x1 PUSH1 0x1 PUSH1 0xA0 SHL SUB AND SUB PUSH2 0x803 JUMPI PUSH1 0x40 MLOAD PUSH3 0x461BCD PUSH1 0xE5 SHL DUP2 MSTORE PUSH1 0x20 PUSH1 0x4 DUP3 ADD MSTORE PUSH1 0x37 PUSH1 0x24 DUP3 ADD MSTORE PUSH32 0x47424D61726B6574706C6163653A20636861726974792061646472657373206D PUSH1 0x44 DUP3 ADD MSTORE PUSH32 0x757374206E6F74206265207A65726F2061646472657373000000000000000000 PUSH1 0x64 DUP3 ADD MSTORE PUSH1 0x84 ADD PUSH2 0x58E JUMP JUMPDEST PUSH2 0x3E8 PUSH2 0x817 PUSH2 0x100 DUP6 ADD PUSH1 0xE0 DUP7 ADD PUSH2 0x2AB6 JUMP JUMPDEST PUSH1 0x1 PUSH1 0x1 PUSH1 0x60 SHL SUB AND LT ISZERO DUP1 ISZERO PUSH2 0x849 JUMPI POP PUSH2 0x2710 PUSH2 0x83D PUSH2 0x100 DUP6 ADD PUSH1 0xE0 DUP7 ADD PUSH2 0x2AB6 JUMP JUMPDEST PUSH1 0x1 PUSH1 0x1 PUSH1 0x60 SHL SUB AND GT ISZERO JUMPDEST PUSH2 0x8BB JUMPI PUSH1 0x40 MLOAD PUSH3 0x461BCD PUSH1 0xE5 SHL DUP2 MSTORE PUSH1 0x20 PUSH1 0x4 DUP3 ADD MSTORE PUSH1 0x3E PUSH1 0x24 DUP3 ADD MSTORE PUSH32 0x47424D61726B6574706C6163653A20636861726974792070657263656E746167 PUSH1 0x44 DUP3 ADD MSTORE PUSH32 0x65206D757374206265206265747765656E2031302520616E6420313030250000 PUSH1 0x64 DUP3 ADD MSTORE PUSH1 0x84 ADD PUSH2 0x58E JUMP JUMPDEST PUSH1 0x0 PUSH1 0x5 DUP2 PUSH2 0x8D0 PUSH1 0x40 DUP8 ADD PUSH1 0x20 DUP9 ADD PUSH2 0x281C JUMP JUMPDEST PUSH1 0x1 PUSH1 0x1 PUSH1 0xA0 SHL SUB SWAP1 DUP2 AND DUP3 MSTORE PUSH1 0x20 DUP1 DUP4 ADD SWAP4 SWAP1 SWAP4 MSTORE PUSH1 0x40 SWAP2 DUP3 ADD PUSH1 0x0 SWAP1 DUP2 KECCAK256 PUSH1 0x60 DUP1 DUP11 ADD CALLDATALOAD DUP4 MSTORE SWAP1 DUP6 MSTORE SWAP1 DUP4 SWAP1 KECCAK256 DUP4 MLOAD SWAP2 DUP3 ADD DUP5 MSTORE DUP1 SLOAD SWAP3 DUP4 AND DUP3 MSTORE PUSH1 0x1 PUSH1 0x1 PUSH1 0x60 SHL SUB PUSH1 0x1 PUSH1 0xA0 SHL SWAP4 DUP5 SWAP1 DIV DUP2 AND SWAP6 DUP4 ADD DUP7 SWAP1 MSTORE PUSH1 0x1 SWAP1 SWAP2 ADD SLOAD PUSH1 0xFF AND ISZERO ISZERO SWAP4 DUP3 ADD SWAP4 SWAP1 SWAP4 MSTORE PUSH1 0x6 SLOAD SWAP1 SWAP5 POP PUSH2 0x2710 SWAP4 SWAP3 SWAP2 SWAP1 DIV AND PUSH2 0x958 PUSH2 0x100 DUP9 ADD PUSH1 0xE0 DUP10 ADD PUSH2 0x2AB6 JUMP JUMPDEST PUSH2 0x962 SWAP2 SWAP1 PUSH2 0x2B7B JUMP JUMPDEST PUSH2 0x96C SWAP2 SWAP1 PUSH2 0x2B7B JUMP JUMPDEST PUSH1 0x1 PUSH1 0x1 PUSH1 0x60 SHL SUB AND GT ISZERO PUSH2 0x9DB JUMPI PUSH1 0x40 MLOAD PUSH3 0x461BCD PUSH1 0xE5 SHL DUP2 MSTORE PUSH1 0x20 PUSH1 0x4 DUP3 ADD MSTORE PUSH1 0x2F PUSH1 0x24 DUP3 ADD MSTORE PUSH32 0x47424D61726B6574706C6163653A20746F74616C20666565206D757374206265 PUSH1 0x44 DUP3 ADD MSTORE PUSH15 0x206C657373207468616E2031303025 PUSH1 0x88 SHL PUSH1 0x64 DUP3 ADD MSTORE PUSH1 0x84 ADD PUSH2 0x58E JUMP JUMPDEST PUSH1 0x0 DUP5 PUSH1 0x80 ADD CALLDATALOAD GT PUSH2 0xA47 JUMPI PUSH1 0x40 MLOAD PUSH3 0x461BCD PUSH1 0xE5 SHL DUP2 MSTORE PUSH1 0x20 PUSH1 0x4 DUP3 ADD MSTORE PUSH1 0x2F PUSH1 0x24 DUP3 ADD MSTORE PUSH32 0x47424D61726B6574706C6163653A204E4654205072696365206D757374206265 PUSH1 0x44 DUP3 ADD MSTORE PUSH15 0x2067726561746572207468616E203 PUSH1 0x8C SHL PUSH1 0x64 DUP3 ADD MSTORE PUSH1 0x84 ADD PUSH2 0x58E JUMP JUMPDEST PUSH2 0xA59 PUSH1 0xA0 DUP6 ADD CALLDATALOAD PUSH1 0x80 DUP7 ADD CALLDATALOAD PUSH2 0x2BA2 JUMP JUMPDEST CALLVALUE LT ISZERO PUSH2 0xAB2 JUMPI PUSH1 0x40 MLOAD PUSH3 0x461BCD PUSH1 0xE5 SHL DUP2 MSTORE PUSH1 0x20 PUSH1 0x4 DUP3 ADD MSTORE PUSH1 0x21 PUSH1 0x24 DUP3 ADD MSTORE PUSH32 0x47424D61726B6574706C6163653A20496E73756666696369656E742066756E64 PUSH1 0x44 DUP3 ADD MSTORE PUSH1 0x73 PUSH1 0xF8 SHL PUSH1 0x64 DUP3 ADD MSTORE PUSH1 0x84 ADD PUSH2 0x58E JUMP JUMPDEST DUP4 PUSH2 0x100 ADD CALLDATALOAD TIMESTAMP GT ISZERO PUSH2 0xAD7 JUMPI PUSH1 0x40 MLOAD PUSH3 0x461BCD PUSH1 0xE5 SHL DUP2 MSTORE PUSH1 0x4 ADD PUSH2 0x58E SWAP1 PUSH2 0x2BB5 JUMP JUMPDEST PUSH1 0x3 PUSH1 0x0 PUSH2 0xAEB PUSH1 0x40 DUP8 ADD PUSH1 0x20 DUP9 ADD PUSH2 0x281C JUMP JUMPDEST PUSH1 0x1 PUSH1 0x1 PUSH1 0xA0 SHL SUB AND DUP2 MSTORE PUSH1 0x20 DUP2 ADD SWAP2 SWAP1 SWAP2 MSTORE PUSH1 0x40 ADD PUSH1 0x0 KECCAK256 SLOAD PUSH1 0xFF AND PUSH2 0xB24 JUMPI PUSH1 0x40 MLOAD PUSH3 0x461BCD PUSH1 0xE5 SHL DUP2 MSTORE PUSH1 0x4 ADD PUSH2 0x58E SWAP1 PUSH2 0x2BEA JUMP JUMPDEST CALLER PUSH1 0x0 SWAP1 DUP2 MSTORE PUSH1 0x4 PUSH1 0x20 MSTORE PUSH1 0x40 SWAP1 KECCAK256 SLOAD PUSH2 0xB85 PUSH2 0xB49 PUSH2 0xB44 DUP8 DUP5 PUSH2 0x1CC4 JUMP JUMPDEST PUSH2 0x1DD3 JUMP JUMPDEST DUP6 DUP6 DUP1 DUP1 PUSH1 0x1F ADD PUSH1 0x20 DUP1 SWAP2 DIV MUL PUSH1 0x20 ADD PUSH1 0x40 MLOAD SWAP1 DUP2 ADD PUSH1 0x40 MSTORE DUP1 SWAP4 SWAP3 SWAP2 SWAP1 DUP2 DUP2 MSTORE PUSH1 0x20 ADD DUP4 DUP4 DUP1 DUP3 DUP5 CALLDATACOPY PUSH1 0x0 SWAP3 ADD SWAP2 SWAP1 SWAP2 MSTORE POP PUSH2 0x1DE6 SWAP3 POP POP POP JUMP JUMPDEST PUSH2 0xBA1 JUMPI PUSH1 0x40 MLOAD PUSH3 0x461BCD PUSH1 0xE5 SHL DUP2 MSTORE PUSH1 0x4 ADD PUSH2 0x58E SWAP1 PUSH2 0x2C33 JUMP JUMPDEST PUSH1 0x0 PUSH2 0xBD3 PUSH1 0x80 DUP8 ADD CALLDATALOAD PUSH2 0xBBC PUSH2 0x100 DUP10 ADD PUSH1 0xE0 DUP11 ADD PUSH2 0x2AB6 JUMP JUMPDEST PUSH2 0x2710 PUSH1 0x1 PUSH1 0x1 PUSH1 0x60 SHL SUB SWAP2 SWAP1 SWAP2 AND SWAP2 SWAP1 SWAP2 MUL DIV SWAP1 JUMP JUMPDEST SWAP1 POP PUSH2 0xBFB PUSH2 0xBE8 PUSH1 0xE0 DUP9 ADD PUSH1 0xC0 DUP10 ADD PUSH2 0x281C JUMP JUMPDEST PUSH2 0xBF6 PUSH1 0xA0 DUP10 ADD CALLDATALOAD DUP5 PUSH2 0x2BA2 JUMP JUMPDEST PUSH2 0x1E1D JUMP JUMPDEST PUSH1 0x0 DUP1 PUSH2 0xC0E PUSH1 0x40 DUP10 ADD PUSH1 0x20 DUP11 ADD PUSH2 0x281C JUMP JUMPDEST PUSH1 0x40 MLOAD PUSH4 0x152A902D PUSH1 0xE1 SHL DUP2 MSTORE PUSH1 0x60 DUP11 ADD CALLDATALOAD PUSH1 0x4 DUP3 ADD MSTORE PUSH1 0x80 DUP11 ADD CALLDATALOAD PUSH1 0x24 DUP3 ADD MSTORE PUSH1 0x1 PUSH1 0x1 PUSH1 0xA0 SHL SUB SWAP2 SWAP1 SWAP2 AND SWAP1 PUSH4 0x2A55205A SWAP1 PUSH1 0x44 ADD PUSH1 0x40 DUP1 MLOAD DUP1 DUP4 SUB DUP2 DUP7 GAS STATICCALL ISZERO DUP1 ISZERO PUSH2 0xC61 JUMPI RETURNDATASIZE PUSH1 0x0 DUP1 RETURNDATACOPY RETURNDATASIZE PUSH1 0x0 REVERT JUMPDEST POP POP POP POP PUSH1 0x40 MLOAD RETURNDATASIZE PUSH1 0x1F NOT PUSH1 0x1F DUP3 ADD AND DUP3 ADD DUP1 PUSH1 0x40 MSTORE POP DUP2 ADD SWAP1 PUSH2 0xC85 SWAP2 SWAP1 PUSH2 0x2C5E JUMP JUMPDEST SWAP2 POP SWAP2 POP PUSH2 0xC93 DUP3 DUP3 PUSH2 0x1E1D JUMP JUMPDEST PUSH1 0x6 SLOAD PUSH2 0x2710 PUSH1 0x80 DUP11 ADD CALLDATALOAD PUSH1 0x1 PUSH1 0xA0 SHL DUP4 DIV PUSH1 0x1 PUSH1 0x1 PUSH1 0x60 SHL SUB AND MUL DIV SWAP1 PUSH2 0xCC4 SWAP1 PUSH1 0x1 PUSH1 0x1 PUSH1 0xA0 SHL SUB AND DUP3 PUSH2 0x1E1D JUMP JUMPDEST PUSH1 0x80 DUP10 ADD CALLDATALOAD DUP5 SWAP1 SUB DUP3 SWAP1 SUB DUP2 DUP2 SUB SWAP1 DUP3 EQ PUSH2 0xD3E JUMPI DUP7 PUSH1 0x40 ADD MLOAD ISZERO PUSH2 0xD2B JUMPI PUSH1 0x0 PUSH2 0xCF0 PUSH1 0x2 DUP4 PUSH2 0x2C8C JUMP JUMPDEST SWAP1 POP PUSH2 0xD0B PUSH2 0xD05 PUSH1 0x60 DUP14 ADD PUSH1 0x40 DUP15 ADD PUSH2 0x281C JUMP JUMPDEST DUP3 PUSH2 0x1E1D JUMP JUMPDEST PUSH1 0x6 SLOAD PUSH2 0xD25 SWAP1 PUSH1 0x1 PUSH1 0x1 PUSH1 0xA0 SHL SUB AND PUSH2 0xBF6 DUP4 DUP6 PUSH2 0x2CAE JUMP JUMPDEST POP PUSH2 0xD3E JUMP JUMPDEST PUSH2 0xD3E PUSH2 0xD05 PUSH1 0x60 DUP13 ADD PUSH1 0x40 DUP14 ADD PUSH2 0x281C JUMP JUMPDEST CALLER PUSH1 0x0 SWAP1 DUP2 MSTORE PUSH1 0x4 PUSH1 0x20 SWAP1 DUP2 MSTORE PUSH1 0x40 SWAP2 DUP3 SWAP1 KECCAK256 DUP1 SLOAD PUSH1 0x1 ADD SWAP1 SSTORE PUSH2 0xD66 SWAP2 DUP13 ADD SWAP1 DUP13 ADD PUSH2 0x281C JUMP JUMPDEST PUSH1 0x1 PUSH1 0x1 PUSH1 0xA0 SHL SUB AND PUSH4 0x42842E0E PUSH2 0xD84 PUSH1 0x60 DUP14 ADD PUSH1 0x40 DUP15 ADD PUSH2 0x281C JUMP JUMPDEST CALLER PUSH1 0x40 MLOAD PUSH1 0x1 PUSH1 0x1 PUSH1 0xE0 SHL SUB NOT PUSH1 0xE0 DUP6 SWAP1 SHL AND DUP2 MSTORE PUSH1 0x1 PUSH1 0x1 PUSH1 0xA0 SHL SUB SWAP3 DUP4 AND PUSH1 0x4 DUP3 ADD MSTORE SWAP2 AND PUSH1 0x24 DUP3 ADD MSTORE PUSH1 0x60 DUP14 ADD CALLDATALOAD PUSH1 0x44 DUP3 ADD MSTORE PUSH1 0x64 ADD PUSH1 0x0 PUSH1 0x40 MLOAD DUP1 DUP4 SUB DUP2 PUSH1 0x0 DUP8 DUP1 EXTCODESIZE ISZERO DUP1 ISZERO PUSH2 0xDD7 JUMPI PUSH1 0x0 DUP1 REVERT JUMPDEST POP GAS CALL ISZERO DUP1 ISZERO PUSH2 0xDEB JUMPI RETURNDATASIZE PUSH1 0x0 DUP1 RETURNDATACOPY RETURNDATASIZE PUSH1 0x0 REVERT JUMPDEST POP POP POP POP PUSH32 0xB238DEF85B84E39431A81CF74571C9E05EFA135B52DD670762D0D300F0440296 DUP11 PUSH1 0x40 MLOAD PUSH2 0xE1E SWAP2 SWAP1 PUSH2 0x2CC1 JUMP JUMPDEST PUSH1 0x40 MLOAD DUP1 SWAP2 SUB SWAP1 LOG1 POP POP PUSH1 0x1 DUP1 SSTORE POP POP POP POP POP POP POP POP JUMP JUMPDEST PUSH1 0x0 PUSH2 0xE41 DUP2 PUSH2 0x1B37 JUMP JUMPDEST PUSH2 0x67E PUSH2 0x1F36 JUMP JUMPDEST PUSH1 0x0 SWAP2 DUP3 MSTORE PUSH1 0x20 DUP3 DUP2 MSTORE PUSH1 0x40 DUP1 DUP5 KECCAK256 PUSH1 0x1 PUSH1 0x1 PUSH1 0xA0 SHL SUB SWAP4 SWAP1 SWAP4 AND DUP5 MSTORE SWAP2 SWAP1 MSTORE SWAP1 KECCAK256 SLOAD PUSH1 0xFF AND SWAP1 JUMP JUMPDEST PUSH1 0x2 PUSH1 0x1 SLOAD SUB PUSH2 0xE94 JUMPI PUSH1 0x40 MLOAD PUSH3 0x461BCD PUSH1 0xE5 SHL DUP2 MSTORE PUSH1 0x4 ADD PUSH2 0x58E SWAP1 PUSH2 0x2AD1 JUMP JUMPDEST PUSH1 0x2 PUSH1 0x1 SSTORE PUSH2 0xEA1 PUSH2 0x1C7C JUMP JUMPDEST PUSH1 0x0 PUSH2 0xEAC DUP2 PUSH2 0x1B37 JUMP JUMPDEST PUSH1 0x1 PUSH1 0x1 PUSH1 0xA0 SHL SUB DUP9 AND PUSH2 0xED2 JUMPI PUSH1 0x40 MLOAD PUSH3 0x461BCD PUSH1 0xE5 SHL DUP2 MSTORE PUSH1 0x4 ADD PUSH2 0x58E SWAP1 PUSH2 0x2B08 JUMP JUMPDEST DUP6 DUP4 EQ PUSH2 0xF47 JUMPI PUSH1 0x40 MLOAD PUSH3 0x461BCD PUSH1 0xE5 SHL DUP2 MSTORE PUSH1 0x20 PUSH1 0x4 DUP3 ADD MSTORE PUSH1 0x3A PUSH1 0x24 DUP3 ADD MSTORE PUSH32 0x47424D61726B6574706C6163653A20746F6B656E49647320616E6420746F6B65 PUSH1 0x44 DUP3 ADD MSTORE PUSH32 0x6E55524973206C656E677468206D75737420626520657175616C000000000000 PUSH1 0x64 DUP3 ADD MSTORE PUSH1 0x84 ADD PUSH2 0x58E JUMP JUMPDEST PUSH1 0x1 PUSH1 0x1 PUSH1 0xA0 SHL SUB DUP9 AND PUSH1 0x0 SWAP1 DUP2 MSTORE PUSH1 0x3 PUSH1 0x20 MSTORE PUSH1 0x40 SWAP1 KECCAK256 SLOAD PUSH1 0xFF AND PUSH2 0xF7F JUMPI PUSH1 0x40 MLOAD PUSH3 0x461BCD PUSH1 0xE5 SHL DUP2 MSTORE PUSH1 0x4 ADD PUSH2 0x58E SWAP1 PUSH2 0x2BEA JUMP JUMPDEST PUSH1 0x0 JUMPDEST DUP7 DUP2 LT ISZERO PUSH2 0x1187 JUMPI PUSH1 0x0 DUP9 DUP9 DUP4 DUP2 DUP2 LT PUSH2 0xF9E JUMPI PUSH2 0xF9E PUSH2 0x2D85 JUMP JUMPDEST SWAP1 POP PUSH1 0x20 MUL ADD CALLDATALOAD GT PUSH2 0xFC2 JUMPI PUSH1 0x40 MLOAD PUSH3 0x461BCD PUSH1 0xE5 SHL DUP2 MSTORE PUSH1 0x4 ADD PUSH2 0x58E SWAP1 PUSH2 0x2D9B JUMP JUMPDEST PUSH1 0x40 DUP1 MLOAD PUSH1 0x60 DUP2 ADD DUP3 MSTORE PUSH1 0x1 PUSH1 0x1 PUSH1 0xA0 SHL SUB DUP1 DUP7 AND DUP3 MSTORE PUSH1 0x1 PUSH1 0x1 PUSH1 0x60 SHL SUB DUP10 AND PUSH1 0x20 DUP1 DUP5 ADD SWAP2 SWAP1 SWAP2 MSTORE PUSH1 0x1 DUP4 DUP6 ADD MSTORE SWAP1 DUP13 AND PUSH1 0x0 SWAP1 DUP2 MSTORE PUSH1 0x5 SWAP1 SWAP2 MSTORE SWAP2 DUP3 KECCAK256 SWAP1 SWAP2 DUP11 DUP11 DUP6 DUP2 DUP2 LT PUSH2 0x1016 JUMPI PUSH2 0x1016 PUSH2 0x2D85 JUMP JUMPDEST PUSH1 0x20 SWAP1 DUP2 MUL SWAP3 SWAP1 SWAP3 ADD CALLDATALOAD DUP4 MSTORE POP DUP2 DUP2 ADD SWAP3 SWAP1 SWAP3 MSTORE PUSH1 0x40 SWAP1 DUP2 ADD PUSH1 0x0 KECCAK256 DUP4 MLOAD SWAP3 DUP5 ADD MLOAD PUSH1 0x1 PUSH1 0x1 PUSH1 0x60 SHL SUB AND PUSH1 0x1 PUSH1 0xA0 SHL MUL PUSH1 0x1 PUSH1 0x1 PUSH1 0xA0 SHL SUB SWAP4 DUP5 AND OR DUP2 SSTORE SWAP3 ADD MLOAD PUSH1 0x1 SWAP1 SWAP3 ADD DUP1 SLOAD SWAP3 ISZERO ISZERO PUSH1 0xFF NOT SWAP1 SWAP4 AND SWAP3 SWAP1 SWAP3 OR SWAP1 SWAP2 SSTORE DUP10 AND PUSH4 0xE5BFF2E4 DUP5 DUP11 DUP11 DUP6 DUP2 DUP2 LT PUSH2 0x1089 JUMPI PUSH2 0x1089 PUSH2 0x2D85 JUMP JUMPDEST SWAP1 POP PUSH1 0x20 MUL ADD CALLDATALOAD DUP10 DUP10 DUP10 DUP8 DUP2 DUP2 LT PUSH2 0x10A3 JUMPI PUSH2 0x10A3 PUSH2 0x2D85 JUMP JUMPDEST SWAP1 POP PUSH1 0x20 MUL DUP2 ADD SWAP1 PUSH2 0x10B5 SWAP2 SWAP1 PUSH2 0x2DEB JUMP JUMPDEST PUSH1 0x40 MLOAD DUP7 PUSH4 0xFFFFFFFF AND PUSH1 0xE0 SHL DUP2 MSTORE PUSH1 0x4 ADD PUSH2 0x10D5 SWAP6 SWAP5 SWAP4 SWAP3 SWAP2 SWAP1 PUSH2 0x2E5B JUMP JUMPDEST PUSH1 0x0 PUSH1 0x40 MLOAD DUP1 DUP4 SUB DUP2 PUSH1 0x0 DUP8 DUP1 EXTCODESIZE ISZERO DUP1 ISZERO PUSH2 0x10EF JUMPI PUSH1 0x0 DUP1 REVERT JUMPDEST POP GAS CALL ISZERO DUP1 ISZERO PUSH2 0x1103 JUMPI RETURNDATASIZE PUSH1 0x0 DUP1 RETURNDATACOPY RETURNDATASIZE PUSH1 0x0 REVERT JUMPDEST POP POP POP POP PUSH32 0x723A7F75732CC7C49D80E424F8F880B978246D5E12BD498D41D6A39240E2C678 DUP10 DUP5 DUP11 DUP11 DUP6 DUP2 DUP2 LT PUSH2 0x113C JUMPI PUSH2 0x113C PUSH2 0x2D85 JUMP JUMPDEST SWAP1 POP PUSH1 0x20 MUL ADD CALLDATALOAD DUP9 DUP9 DUP7 DUP2 DUP2 LT PUSH2 0x1155 JUMPI PUSH2 0x1155 PUSH2 0x2D85 JUMP JUMPDEST SWAP1 POP PUSH1 0x20 MUL DUP2 ADD SWAP1 PUSH2 0x1167 SWAP2 SWAP1 PUSH2 0x2DEB JUMP JUMPDEST DUP12 PUSH1 0x40 MLOAD PUSH2 0x117A SWAP7 SWAP6 SWAP5 SWAP4 SWAP3 SWAP2 SWAP1 PUSH2 0x2E9D JUMP JUMPDEST PUSH1 0x40 MLOAD DUP1 SWAP2 SUB SWAP1 LOG1 PUSH2 0xF82 JUMP JUMPDEST POP PUSH32 0xA74B74A78619F24285B7C1638CE8ACA155445A36C3703F2297493080A0C1585A DUP9 CALLER DUP10 DUP10 DUP9 DUP9 DUP12 DUP10 PUSH1 0x40 MLOAD PUSH2 0x11C5 SWAP9 SWAP8 SWAP7 SWAP6 SWAP5 SWAP4 SWAP3 SWAP2 SWAP1 PUSH2 0x2EED JUMP JUMPDEST PUSH1 0x40 MLOAD DUP1 SWAP2 SUB SWAP1 LOG1 POP POP PUSH1 0x1 DUP1 SSTORE POP POP POP POP POP POP JUMP JUMPDEST PUSH1 0x2 PUSH1 0x1 SLOAD SUB PUSH2 0x11FD JUMPI PUSH1 0x40 MLOAD PUSH3 0x461BCD PUSH1 0xE5 SHL DUP2 MSTORE PUSH1 0x4 ADD PUSH2 0x58E SWAP1 PUSH2 0x2AD1 JUMP JUMPDEST PUSH1 0x2 PUSH1 0x1 SSTORE PUSH2 0x120A PUSH2 0x1C7C JUMP JUMPDEST PUSH1 0x0 PUSH2 0x121C PUSH1 0x40 DUP6 ADD PUSH1 0x20 DUP7 ADD PUSH2 0x281C JUMP JUMPDEST PUSH1 0x1 PUSH1 0x1 PUSH1 0xA0 SHL SUB AND SUB PUSH2 0x1242 JUMPI PUSH1 0x40 MLOAD PUSH3 0x461BCD PUSH1 0xE5 SHL DUP2 MSTORE PUSH1 0x4 ADD PUSH2 0x58E SWAP1 PUSH2 0x2B08 JUMP JUMPDEST PUSH1 0x0 DUP4 PUSH1 0x40 ADD CALLDATALOAD GT PUSH2 0x1266 JUMPI PUSH1 0x40 MLOAD PUSH3 0x461BCD PUSH1 0xE5 SHL DUP2 MSTORE PUSH1 0x4 ADD PUSH2 0x58E SWAP1 PUSH2 0x2D9B JUMP JUMPDEST PUSH1 0x3 PUSH1 0x0 PUSH2 0x127A PUSH1 0x40 DUP7 ADD PUSH1 0x20 DUP8 ADD PUSH2 0x281C JUMP JUMPDEST PUSH1 0x1 PUSH1 0x1 PUSH1 0xA0 SHL SUB AND DUP2 MSTORE PUSH1 0x20 DUP2 ADD SWAP2 SWAP1 SWAP2 MSTORE PUSH1 0x40 ADD PUSH1 0x0 KECCAK256 SLOAD PUSH1 0xFF AND PUSH2 0x12B3 JUMPI PUSH1 0x40 MLOAD PUSH3 0x461BCD PUSH1 0xE5 SHL DUP2 MSTORE PUSH1 0x4 ADD PUSH2 0x58E SWAP1 PUSH2 0x2BEA JUMP JUMPDEST DUP3 PUSH1 0x80 ADD CALLDATALOAD TIMESTAMP GT ISZERO PUSH2 0x12D7 JUMPI PUSH1 0x40 MLOAD PUSH3 0x461BCD PUSH1 0xE5 SHL DUP2 MSTORE PUSH1 0x4 ADD PUSH2 0x58E SWAP1 PUSH2 0x2BB5 JUMP JUMPDEST CALLER PUSH1 0x0 SWAP1 DUP2 MSTORE PUSH1 0x4 PUSH1 0x20 MSTORE PUSH1 0x40 SWAP1 KECCAK256 SLOAD PUSH2 0x1333 PUSH2 0x12F7 PUSH2 0xB44 DUP7 DUP5 PUSH2 0x1F73 JUMP JUMPDEST DUP5 DUP5 DUP1 DUP1 PUSH1 0x1F ADD PUSH1 0x20 DUP1 SWAP2 DIV MUL PUSH1 0x20 ADD PUSH1 0x40 MLOAD SWAP1 DUP2 ADD PUSH1 0x40 MSTORE DUP1 SWAP4 SWAP3 SWAP2 SWAP1 DUP2 DUP2 MSTORE PUSH1 0x20 ADD DUP4 DUP4 DUP1 DUP3 DUP5 CALLDATACOPY PUSH1 0x0 SWAP3 ADD SWAP2 SWAP1 SWAP2 MSTORE POP PUSH2 0x1DE6 SWAP3 POP POP POP JUMP JUMPDEST PUSH2 0x134F JUMPI PUSH1 0x40 MLOAD PUSH3 0x461BCD PUSH1 0xE5 SHL DUP2 MSTORE PUSH1 0x4 ADD PUSH2 0x58E SWAP1 PUSH2 0x2C33 JUMP JUMPDEST CALLER PUSH2 0x1360 PUSH1 0x40 DUP7 ADD PUSH1 0x20 DUP8 ADD PUSH2 0x281C JUMP JUMPDEST PUSH1 0x1 PUSH1 0x1 PUSH1 0xA0 SHL SUB AND PUSH4 0x6352211E DUP7 PUSH1 0x40 ADD CALLDATALOAD PUSH1 0x40 MLOAD DUP3 PUSH4 0xFFFFFFFF AND PUSH1 0xE0 SHL DUP2 MSTORE PUSH1 0x4 ADD PUSH2 0x1391 SWAP2 DUP2 MSTORE PUSH1 0x20 ADD SWAP1 JUMP JUMPDEST PUSH1 0x20 PUSH1 0x40 MLOAD DUP1 DUP4 SUB DUP2 DUP7 GAS STATICCALL ISZERO DUP1 ISZERO PUSH2 0x13AE JUMPI RETURNDATASIZE PUSH1 0x0 DUP1 RETURNDATACOPY RETURNDATASIZE PUSH1 0x0 REVERT JUMPDEST POP POP POP POP PUSH1 0x40 MLOAD RETURNDATASIZE PUSH1 0x1F NOT PUSH1 0x1F DUP3 ADD AND DUP3 ADD DUP1 PUSH1 0x40 MSTORE POP DUP2 ADD SWAP1 PUSH2 0x13D2 SWAP2 SWAP1 PUSH2 0x3009 JUMP JUMPDEST PUSH1 0x1 PUSH1 0x1 PUSH1 0xA0 SHL SUB AND EQ PUSH2 0x1446 JUMPI PUSH1 0x40 MLOAD PUSH3 0x461BCD PUSH1 0xE5 SHL DUP2 MSTORE PUSH1 0x20 PUSH1 0x4 DUP3 ADD MSTORE PUSH1 0x35 PUSH1 0x24 DUP3 ADD MSTORE PUSH32 0x47424D61726B6574706C6163653A204F6E6C79204E4654206F776E6572206361 PUSH1 0x44 DUP3 ADD MSTORE PUSH21 0x6E20757064617465206368617269747920696E666F PUSH1 0x58 SHL PUSH1 0x64 DUP3 ADD MSTORE PUSH1 0x84 ADD PUSH2 0x58E JUMP JUMPDEST CALLER PUSH1 0x0 SWAP1 DUP2 MSTORE PUSH1 0x4 PUSH1 0x20 SWAP1 DUP2 MSTORE PUSH1 0x40 SWAP2 DUP3 SWAP1 KECCAK256 DUP1 SLOAD PUSH1 0x1 ADD SWAP1 SSTORE PUSH2 0x146E SWAP2 DUP7 ADD SWAP1 DUP7 ADD PUSH2 0x281C JUMP JUMPDEST PUSH1 0x1 PUSH1 0x1 PUSH1 0xA0 SHL SUB AND PUSH4 0x162094C4 PUSH1 0x40 DUP7 ADD CALLDATALOAD PUSH2 0x148E PUSH1 0x60 DUP9 ADD DUP9 PUSH2 0x2DEB JUMP JUMPDEST PUSH1 0x40 MLOAD DUP5 PUSH4 0xFFFFFFFF AND PUSH1 0xE0 SHL DUP2 MSTORE PUSH1 0x4 ADD PUSH2 0x14AC SWAP4 SWAP3 SWAP2 SWAP1 PUSH2 0x3026 JUMP JUMPDEST PUSH1 0x0 PUSH1 0x40 MLOAD DUP1 DUP4 SUB DUP2 PUSH1 0x0 DUP8 DUP1 EXTCODESIZE ISZERO DUP1 ISZERO PUSH2 0x14C6 JUMPI PUSH1 0x0 DUP1 REVERT JUMPDEST POP GAS CALL ISZERO DUP1 ISZERO PUSH2 0x14DA JUMPI RETURNDATASIZE PUSH1 0x0 DUP1 RETURNDATACOPY RETURNDATASIZE PUSH1 0x0 REVERT JUMPDEST POP PUSH32 0x2A594F4FDCFB43B211E3FE501443DA843ED0DAA6E9CC58965E68AFB67938F5F2 SWAP3 POP PUSH2 0x1511 SWAP2 POP POP PUSH1 0x40 DUP7 ADD PUSH1 0x20 DUP8 ADD PUSH2 0x281C JUMP JUMPDEST CALLER PUSH1 0x40 DUP8 ADD CALLDATALOAD PUSH2 0x1524 PUSH1 0x60 DUP10 ADD DUP10 PUSH2 0x2DEB JUMP JUMPDEST PUSH1 0x40 MLOAD PUSH2 0x1535 SWAP6 SWAP5 SWAP4 SWAP3 SWAP2 SWAP1 PUSH2 0x3049 JUMP JUMPDEST PUSH1 0x40 MLOAD DUP1 SWAP2 SUB SWAP1 LOG1 POP POP PUSH1 0x1 DUP1 SSTORE POP POP JUMP JUMPDEST PUSH1 0x2 PUSH1 0x1 SLOAD SUB PUSH2 0x1569 JUMPI PUSH1 0x40 MLOAD PUSH3 0x461BCD PUSH1 0xE5 SHL DUP2 MSTORE PUSH1 0x4 ADD PUSH2 0x58E SWAP1 PUSH2 0x2AD1 JUMP JUMPDEST PUSH1 0x2 PUSH1 0x1 SSTORE PUSH2 0x1576 PUSH2 0x1C7C JUMP JUMPDEST PUSH1 0x0 PUSH2 0x1588 PUSH1 0x40 DUP6 ADD PUSH1 0x20 DUP7 ADD PUSH2 0x281C JUMP JUMPDEST PUSH1 0x1 PUSH1 0x1 PUSH1 0xA0 SHL SUB AND SUB PUSH2 0x15AE JUMPI PUSH1 0x40 MLOAD PUSH3 0x461BCD PUSH1 0xE5 SHL DUP2 MSTORE PUSH1 0x4 ADD PUSH2 0x58E SWAP1 PUSH2 0x2B08 JUMP JUMPDEST PUSH1 0x0 DUP4 PUSH1 0x40 ADD CALLDATALOAD GT PUSH2 0x15D2 JUMPI PUSH1 0x40 MLOAD PUSH3 0x461BCD PUSH1 0xE5 SHL DUP2 MSTORE PUSH1 0x4 ADD PUSH2 0x58E SWAP1 PUSH2 0x2D9B JUMP JUMPDEST PUSH1 0x3 PUSH1 0x0 PUSH2 0x15E6 PUSH1 0x40 DUP7 ADD PUSH1 0x20 DUP8 ADD PUSH2 0x281C JUMP JUMPDEST PUSH1 0x1 PUSH1 0x1 PUSH1 0xA0 SHL SUB AND DUP2 MSTORE PUSH1 0x20 DUP2 ADD SWAP2 SWAP1 SWAP2 MSTORE PUSH1 0x40 ADD PUSH1 0x0 KECCAK256 SLOAD PUSH1 0xFF AND PUSH2 0x161F JUMPI PUSH1 0x40 MLOAD PUSH3 0x461BCD PUSH1 0xE5 SHL DUP2 MSTORE PUSH1 0x4 ADD PUSH2 0x58E SWAP1 PUSH2 0x2BEA JUMP JUMPDEST DUP3 PUSH1 0xA0 ADD CALLDATALOAD TIMESTAMP GT ISZERO PUSH2 0x1643 JUMPI PUSH1 0x40 MLOAD PUSH3 0x461BCD PUSH1 0xE5 SHL DUP2 MSTORE PUSH1 0x4 ADD PUSH2 0x58E SWAP1 PUSH2 0x2BB5 JUMP JUMPDEST CALLER PUSH1 0x0 SWAP1 DUP2 MSTORE PUSH1 0x4 PUSH1 0x20 MSTORE PUSH1 0x40 SWAP1 KECCAK256 SLOAD PUSH2 0x1663 PUSH2 0x12F7 PUSH2 0xB44 DUP7 DUP5 PUSH2 0x1FE2 JUMP JUMPDEST PUSH2 0x167F JUMPI PUSH1 0x40 MLOAD PUSH3 0x461BCD PUSH1 0xE5 SHL DUP2 MSTORE PUSH1 0x4 ADD PUSH2 0x58E SWAP1 PUSH2 0x2C33 JUMP JUMPDEST PUSH1 0x40 MLOAD DUP1 PUSH1 0x60 ADD PUSH1 0x40 MSTORE DUP1 PUSH2 0x1691 CALLER SWAP1 JUMP JUMPDEST PUSH1 0x1 PUSH1 0x1 PUSH1 0xA0 SHL SUB AND DUP2 MSTORE PUSH1 0x20 ADD PUSH2 0x16AF PUSH1 0x80 DUP8 ADD PUSH1 0x60 DUP9 ADD PUSH2 0x2AB6 JUMP JUMPDEST PUSH1 0x1 PUSH1 0x1 PUSH1 0x60 SHL SUB AND DUP2 MSTORE PUSH1 0x0 PUSH1 0x20 SWAP2 DUP3 ADD DUP2 SWAP1 MSTORE PUSH1 0x5 SWAP2 PUSH2 0x16D7 SWAP1 PUSH1 0x40 DUP10 ADD SWAP1 DUP10 ADD PUSH2 0x281C JUMP JUMPDEST PUSH1 0x1 PUSH1 0x1 PUSH1 0xA0 SHL SUB SWAP1 DUP2 AND DUP3 MSTORE PUSH1 0x20 DUP1 DUP4 ADD SWAP4 SWAP1 SWAP4 MSTORE PUSH1 0x40 SWAP2 DUP3 ADD PUSH1 0x0 SWAP1 DUP2 KECCAK256 DUP10 DUP5 ADD CALLDATALOAD DUP3 MSTORE DUP5 MSTORE DUP3 DUP2 KECCAK256 DUP6 MLOAD SWAP5 DUP7 ADD MLOAD PUSH1 0x1 PUSH1 0x1 PUSH1 0x60 SHL SUB AND PUSH1 0x1 PUSH1 0xA0 SHL MUL SWAP5 SWAP1 SWAP3 AND SWAP4 SWAP1 SWAP4 OR DUP2 SSTORE SWAP3 ADD MLOAD PUSH1 0x1 SWAP1 SWAP3 ADD DUP1 SLOAD SWAP3 ISZERO ISZERO PUSH1 0xFF NOT SWAP1 SWAP4 AND SWAP3 SWAP1 SWAP3 OR SWAP1 SWAP2 SSTORE PUSH1 0x4 SWAP1 PUSH2 0x1745 CALLER SWAP1 JUMP JUMPDEST PUSH1 0x1 PUSH1 0x1 PUSH1 0xA0 SHL SUB AND DUP2 MSTORE PUSH1 0x20 DUP1 DUP3 ADD SWAP3 SWAP1 SWAP3 MSTORE PUSH1 0x40 SWAP1 DUP2 ADD PUSH1 0x0 KECCAK256 DUP1 SLOAD PUSH1 0x1 ADD SWAP1 SSTORE PUSH2 0x1777 SWAP2 SWAP1 DUP7 ADD SWAP1 DUP7 ADD PUSH2 0x281C JUMP JUMPDEST PUSH1 0x1 PUSH1 0x1 PUSH1 0xA0 SHL SUB AND PUSH4 0xE5BFF2E4 CALLER PUSH1 0x40 DUP8 ADD CALLDATALOAD PUSH2 0x179B PUSH1 0x80 DUP10 ADD PUSH1 0x60 DUP11 ADD PUSH2 0x2AB6 JUMP JUMPDEST PUSH2 0x17A8 PUSH1 0x80 DUP11 ADD DUP11 PUSH2 0x2DEB JUMP JUMPDEST PUSH1 0x40 MLOAD DUP7 PUSH4 0xFFFFFFFF AND PUSH1 0xE0 SHL DUP2 MSTORE PUSH1 0x4 ADD PUSH2 0x17C8 SWAP6 SWAP5 SWAP4 SWAP3 SWAP2 SWAP1 PUSH2 0x2E5B JUMP JUMPDEST PUSH1 0x0 PUSH1 0x40 MLOAD DUP1 DUP4 SUB DUP2 PUSH1 0x0 DUP8 DUP1 EXTCODESIZE ISZERO DUP1 ISZERO PUSH2 0x17E2 JUMPI PUSH1 0x0 DUP1 REVERT JUMPDEST POP GAS CALL ISZERO DUP1 ISZERO PUSH2 0x17F6 JUMPI RETURNDATASIZE PUSH1 0x0 DUP1 RETURNDATACOPY RETURNDATASIZE PUSH1 0x0 REVERT JUMPDEST POP PUSH32 0x723A7F75732CC7C49D80E424F8F880B978246D5E12BD498D41D6A39240E2C678 SWAP3 POP PUSH2 0x182D SWAP2 POP POP PUSH1 0x40 DUP7 ADD PUSH1 0x20 DUP8 ADD PUSH2 0x281C JUMP JUMPDEST CALLER PUSH1 0x40 DUP8 ADD CALLDATALOAD PUSH2 0x1840 PUSH1 0x80 DUP10 ADD DUP10 PUSH2 0x2DEB JUMP JUMPDEST PUSH2 0x1850 PUSH1 0x80 DUP12 ADD PUSH1 0x60 DUP13 ADD PUSH2 0x2AB6 JUMP JUMPDEST PUSH1 0x40 MLOAD PUSH2 0x1535 SWAP7 SWAP6 SWAP5 SWAP4 SWAP3 SWAP2 SWAP1 PUSH2 0x2E9D JUMP JUMPDEST PUSH1 0x0 PUSH2 0x186D DUP2 PUSH2 0x1B37 JUMP JUMPDEST PUSH1 0x1 PUSH1 0x1 PUSH1 0xA0 SHL SUB DUP3 AND PUSH2 0x18D7 JUMPI PUSH1 0x40 MLOAD PUSH3 0x461BCD PUSH1 0xE5 SHL DUP2 MSTORE PUSH1 0x20 PUSH1 0x4 DUP3 ADD MSTORE PUSH1 0x2B PUSH1 0x24 DUP3 ADD MSTORE PUSH32 0x766572696679526F6C652061646472657373206D757374206E6F74206265207A PUSH1 0x44 DUP3 ADD MSTORE PUSH11 0x65726F2061646472657373 PUSH1 0xA8 SHL PUSH1 0x64 DUP3 ADD MSTORE PUSH1 0x84 ADD PUSH2 0x58E JUMP JUMPDEST PUSH2 0x1901 PUSH32 0xD262A1E181EC035692BCC8C920B971BCCC173D5263F104F91C1561B5033679DD DUP4 PUSH2 0x1B41 JUMP JUMPDEST PUSH1 0x40 MLOAD PUSH1 0x1 PUSH1 0x1 PUSH1 0xA0 SHL SUB DUP4 AND DUP2 MSTORE PUSH32 0x823BFE6C95B007BB6CC8BB748029C56AE8F83F9FC647A5C47B36F893BDEFE74F SWAP1 PUSH1 0x20 ADD PUSH2 0x5E1 JUMP JUMPDEST PUSH1 0x0 DUP3 DUP2 MSTORE PUSH1 0x20 DUP2 SWAP1 MSTORE PUSH1 0x40 SWAP1 KECCAK256 PUSH1 0x1 ADD SLOAD PUSH2 0x1955 DUP2 PUSH2 0x1B37 JUMP JUMPDEST PUSH2 0x517 DUP4 DUP4 PUSH2 0x1BC5 JUMP JUMPDEST PUSH1 0x0 PUSH2 0x196A DUP2 PUSH2 0x1B37 JUMP JUMPDEST PUSH1 0x1 PUSH1 0x1 PUSH1 0xA0 SHL SUB DUP4 AND PUSH2 0x19D6 JUMPI PUSH1 0x40 MLOAD PUSH3 0x461BCD PUSH1 0xE5 SHL DUP2 MSTORE PUSH1 0x20 PUSH1 0x4 DUP3 ADD MSTORE PUSH1 0x2D PUSH1 0x24 DUP3 ADD MSTORE PUSH32 0x6762436F6C6C656374696F6E2061646472657373206D757374206E6F74206265 PUSH1 0x44 DUP3 ADD MSTORE PUSH13 0x207A65726F2061646472657373 PUSH1 0x98 SHL PUSH1 0x64 DUP3 ADD MSTORE PUSH1 0x84 ADD PUSH2 0x58E JUMP JUMPDEST PUSH1 0x1 PUSH1 0x1 PUSH1 0xA0 SHL SUB DUP4 AND PUSH1 0x0 DUP2 DUP2 MSTORE PUSH1 0x3 PUSH1 0x20 SWAP1 DUP2 MSTORE PUSH1 0x40 SWAP2 DUP3 SWAP1 KECCAK256 DUP1 SLOAD PUSH1 0xFF NOT AND DUP7 ISZERO ISZERO SWAP1 DUP2 OR SWAP1 SWAP2 SSTORE DUP3 MLOAD SWAP4 DUP5 MSTORE SWAP1 DUP4 ADD MSTORE PUSH32 0x223891D059D602A4595404EC0A953E0FA8DE6291465A1E0D904D07F387F0B7FA SWAP2 ADD PUSH1 0x40 MLOAD DUP1 SWAP2 SUB SWAP1 LOG1 POP POP POP JUMP JUMPDEST PUSH1 0x0 PUSH2 0x1A45 DUP2 PUSH2 0x1B37 JUMP JUMPDEST PUSH1 0x0 DUP3 PUSH1 0x1 PUSH1 0x1 PUSH1 0x60 SHL SUB AND GT PUSH2 0x1AAC JUMPI PUSH1 0x40 MLOAD PUSH3 0x461BCD PUSH1 0xE5 SHL DUP2 MSTORE PUSH1 0x20 PUSH1 0x4 DUP3 ADD MSTORE PUSH1 0x25 PUSH1 0x24 DUP3 ADD MSTORE PUSH32 0x706C6174666F726D466565206D7573742062652067726561746572207468616E PUSH1 0x44 DUP3 ADD MSTORE PUSH5 0x207A65726F PUSH1 0xD8 SHL PUSH1 0x64 DUP3 ADD MSTORE PUSH1 0x84 ADD PUSH2 0x58E JUMP JUMPDEST PUSH1 0x6 DUP1 SLOAD PUSH1 0x1 PUSH1 0x1 PUSH1 0xA0 SHL SUB AND PUSH1 0x1 PUSH1 0xA0 SHL PUSH1 0x1 PUSH1 0x1 PUSH1 0x60 SHL SUB DUP6 AND SWAP1 DUP2 MUL SWAP2 SWAP1 SWAP2 OR SWAP1 SWAP2 SSTORE PUSH1 0x40 MLOAD SWAP1 DUP2 MSTORE PUSH32 0xBE3599C33046219DDC3706F4B99CACA706DC0F53775580D18A367DC2188C96E5 SWAP1 PUSH1 0x20 ADD PUSH2 0x5E1 JUMP JUMPDEST PUSH1 0x0 PUSH1 0x1 PUSH1 0x1 PUSH1 0xE0 SHL SUB NOT DUP3 AND PUSH4 0x7965DB0B PUSH1 0xE0 SHL EQ DUP1 PUSH2 0x4EC JUMPI POP PUSH4 0x1FFC9A7 PUSH1 0xE0 SHL PUSH1 0x1 PUSH1 0x1 PUSH1 0xE0 SHL SUB NOT DUP4 AND EQ PUSH2 0x4EC JUMP JUMPDEST PUSH2 0x67E DUP2 CALLER PUSH2 0x20B5 JUMP JUMPDEST PUSH2 0x1B4B DUP3 DUP3 PUSH2 0xE49 JUMP JUMPDEST PUSH2 0x667 JUMPI PUSH1 0x0 DUP3 DUP2 MSTORE PUSH1 0x20 DUP2 DUP2 MSTORE PUSH1 0x40 DUP1 DUP4 KECCAK256 PUSH1 0x1 PUSH1 0x1 PUSH1 0xA0 SHL SUB DUP6 AND DUP5 MSTORE SWAP1 SWAP2 MSTORE SWAP1 KECCAK256 DUP1 SLOAD PUSH1 0xFF NOT AND PUSH1 0x1 OR SWAP1 SSTORE PUSH2 0x1B81 CALLER SWAP1 JUMP JUMPDEST PUSH1 0x1 PUSH1 0x1 PUSH1 0xA0 SHL SUB AND DUP2 PUSH1 0x1 PUSH1 0x1 PUSH1 0xA0 SHL SUB AND DUP4 PUSH32 0x2F8788117E7EFF1D82E926EC794901D17C78024A50270940304540A733656F0D PUSH1 0x40 MLOAD PUSH1 0x40 MLOAD DUP1 SWAP2 SUB SWAP1 LOG4 POP POP JUMP JUMPDEST PUSH2 0x1BCF DUP3 DUP3 PUSH2 0xE49 JUMP JUMPDEST ISZERO PUSH2 0x667 JUMPI PUSH1 0x0 DUP3 DUP2 MSTORE PUSH1 0x20 DUP2 DUP2 MSTORE PUSH1 0x40 DUP1 DUP4 KECCAK256 PUSH1 0x1 PUSH1 0x1 PUSH1 0xA0 SHL SUB DUP6 AND DUP1 DUP6 MSTORE SWAP3 MSTORE DUP1 DUP4 KECCAK256 DUP1 SLOAD PUSH1 0xFF NOT AND SWAP1 SSTORE MLOAD CALLER SWAP3 DUP6 SWAP2 PUSH32 0xF6391F5C32D9C69D2A47EA670B442974B53935D1EDC7FD64EB21E047A839171B SWAP2 SWAP1 LOG4 POP POP JUMP JUMPDEST PUSH2 0x1C32 PUSH2 0x2119 JUMP JUMPDEST PUSH1 0x2 DUP1 SLOAD PUSH1 0xFF NOT AND SWAP1 SSTORE PUSH32 0x5DB9EE0A495BF2E6FF9C91A7834C1BA4FDD244A5E8AA4E537BD38AEAE4B073AA CALLER JUMPDEST PUSH1 0x40 MLOAD PUSH1 0x1 PUSH1 0x1 PUSH1 0xA0 SHL SUB SWAP1 SWAP2 AND DUP2 MSTORE PUSH1 0x20 ADD PUSH1 0x40 MLOAD DUP1 SWAP2 SUB SWAP1 LOG1 JUMP JUMPDEST PUSH1 0x2 SLOAD PUSH1 0xFF AND ISZERO PUSH2 0x1CC2 JUMPI PUSH1 0x40 MLOAD PUSH3 0x461BCD PUSH1 0xE5 SHL DUP2 MSTORE PUSH1 0x20 PUSH1 0x4 DUP3 ADD MSTORE PUSH1 0x10 PUSH1 0x24 DUP3 ADD MSTORE PUSH16 0x14185D5CD8589B194E881C185D5CD959 PUSH1 0x82 SHL PUSH1 0x44 DUP3 ADD MSTORE PUSH1 0x64 ADD PUSH2 0x58E JUMP JUMPDEST JUMP JUMPDEST PUSH1 0x0 PUSH32 0x17267E3C9A41FDC4878F6C57751034DFBBF7FEBE7592905BFE881B17E566ED2B PUSH2 0x1CF4 PUSH1 0x20 DUP6 ADD DUP6 PUSH2 0x281C JUMP JUMPDEST PUSH2 0x1D04 PUSH1 0x40 DUP7 ADD PUSH1 0x20 DUP8 ADD PUSH2 0x281C JUMP JUMPDEST PUSH2 0x1D14 PUSH1 0x60 DUP8 ADD PUSH1 0x40 DUP9 ADD PUSH2 0x281C JUMP JUMPDEST PUSH1 0x60 DUP8 ADD CALLDATALOAD PUSH1 0x80 DUP9 ADD CALLDATALOAD PUSH1 0xA0 DUP10 ADD CALLDATALOAD PUSH2 0x1D33 PUSH1 0xE0 DUP12 ADD PUSH1 0xC0 DUP13 ADD PUSH2 0x281C JUMP JUMPDEST PUSH2 0x1D44 PUSH2 0x100 DUP13 ADD PUSH1 0xE0 DUP14 ADD PUSH2 0x2AB6 JUMP JUMPDEST PUSH1 0x40 DUP1 MLOAD PUSH1 0x20 DUP2 ADD SWAP11 SWAP1 SWAP11 MSTORE PUSH1 0x1 PUSH1 0x1 PUSH1 0xA0 SHL SUB SWAP9 DUP10 AND SWAP1 DUP11 ADD MSTORE SWAP6 DUP8 AND PUSH1 0x60 DUP10 ADD MSTORE SWAP4 DUP7 AND PUSH1 0x80 DUP9 ADD MSTORE PUSH1 0xA0 DUP8 ADD SWAP3 SWAP1 SWAP3 MSTORE PUSH1 0xC0 DUP7 ADD MSTORE PUSH1 0xE0 DUP6 ADD MSTORE SWAP1 SWAP2 AND PUSH2 0x100 DUP1 DUP5 ADD SWAP2 SWAP1 SWAP2 MSTORE PUSH1 0x1 PUSH1 0x1 PUSH1 0x60 SHL SUB SWAP1 SWAP2 AND PUSH2 0x120 DUP4 ADD MSTORE DUP5 ADD CALLDATALOAD PUSH2 0x140 DUP3 ADD MSTORE PUSH2 0x160 DUP2 ADD DUP4 SWAP1 MSTORE PUSH2 0x180 ADD JUMPDEST PUSH1 0x40 MLOAD PUSH1 0x20 DUP2 DUP4 SUB SUB DUP2 MSTORE SWAP1 PUSH1 0x40 MSTORE DUP1 MLOAD SWAP1 PUSH1 0x20 ADD KECCAK256 SWAP1 POP SWAP3 SWAP2 POP POP JUMP JUMPDEST PUSH1 0x0 PUSH2 0x4EC PUSH2 0x1DE0 PUSH2 0x2162 JUMP JUMPDEST DUP4 PUSH2 0x2289 JUMP JUMPDEST PUSH1 0x0 PUSH2 0x1E16 PUSH32 0xD262A1E181EC035692BCC8C920B971BCCC173D5263F104F91C1561B5033679DD PUSH2 0x3B3 DUP6 DUP6 PUSH2 0x22B0 JUMP JUMPDEST SWAP4 SWAP3 POP POP POP JUMP JUMPDEST DUP1 SELFBALANCE LT ISZERO PUSH2 0x1E6D JUMPI PUSH1 0x40 MLOAD PUSH3 0x461BCD PUSH1 0xE5 SHL DUP2 MSTORE PUSH1 0x20 PUSH1 0x4 DUP3 ADD MSTORE PUSH1 0x1D PUSH1 0x24 DUP3 ADD MSTORE PUSH32 0x416464726573733A20696E73756666696369656E742062616C616E6365000000 PUSH1 0x44 DUP3 ADD MSTORE PUSH1 0x64 ADD PUSH2 0x58E JUMP JUMPDEST PUSH1 0x0 DUP3 PUSH1 0x1 PUSH1 0x1 PUSH1 0xA0 SHL SUB AND DUP3 PUSH1 0x40 MLOAD PUSH1 0x0 PUSH1 0x40 MLOAD DUP1 DUP4 SUB DUP2 DUP6 DUP8 GAS CALL SWAP3 POP POP POP RETURNDATASIZE DUP1 PUSH1 0x0 DUP2 EQ PUSH2 0x1EBA JUMPI PUSH1 0x40 MLOAD SWAP2 POP PUSH1 0x1F NOT PUSH1 0x3F RETURNDATASIZE ADD AND DUP3 ADD PUSH1 0x40 MSTORE RETURNDATASIZE DUP3 MSTORE RETURNDATASIZE PUSH1 0x0 PUSH1 0x20 DUP5 ADD RETURNDATACOPY PUSH2 0x1EBF JUMP JUMPDEST PUSH1 0x60 SWAP2 POP JUMPDEST POP POP SWAP1 POP DUP1 PUSH2 0x517 JUMPI PUSH1 0x40 MLOAD PUSH3 0x461BCD PUSH1 0xE5 SHL DUP2 MSTORE PUSH1 0x20 PUSH1 0x4 DUP3 ADD MSTORE PUSH1 0x3A PUSH1 0x24 DUP3 ADD MSTORE PUSH32 0x416464726573733A20756E61626C6520746F2073656E642076616C75652C2072 PUSH1 0x44 DUP3 ADD MSTORE PUSH32 0x6563697069656E74206D61792068617665207265766572746564000000000000 PUSH1 0x64 DUP3 ADD MSTORE PUSH1 0x84 ADD PUSH2 0x58E JUMP JUMPDEST PUSH2 0x1F3E PUSH2 0x1C7C JUMP JUMPDEST PUSH1 0x2 DUP1 SLOAD PUSH1 0xFF NOT AND PUSH1 0x1 OR SWAP1 SSTORE PUSH32 0x62E78CEA01BEE320CD4E420270B5EA74000D11B0C9F74754EBDBFC544B05A258 PUSH2 0x1C5F CALLER SWAP1 JUMP JUMPDEST PUSH1 0x0 PUSH32 0x485787466C6BB756E23877696AFB1FFEF4D4F7DAA150BE930943445B9EFD5ABC PUSH2 0x1FA3 PUSH1 0x20 DUP6 ADD DUP6 PUSH2 0x281C JUMP JUMPDEST PUSH2 0x1FB3 PUSH1 0x40 DUP7 ADD PUSH1 0x20 DUP8 ADD PUSH2 0x281C JUMP JUMPDEST PUSH1 0x40 DUP7 ADD CALLDATALOAD PUSH2 0x1FC5 PUSH1 0x60 DUP9 ADD DUP9 PUSH2 0x2DEB JUMP JUMPDEST DUP9 PUSH1 0x80 ADD CALLDATALOAD DUP9 PUSH1 0x40 MLOAD PUSH1 0x20 ADD PUSH2 0x1DB5 SWAP9 SWAP8 SWAP7 SWAP6 SWAP5 SWAP4 SWAP3 SWAP2 SWAP1 PUSH2 0x307D JUMP JUMPDEST PUSH1 0x0 PUSH32 0xD7414A21AE7FE6C7AE7BA4FC193977B266778B52F64E202866E96F1D30267F7F PUSH2 0x2012 PUSH1 0x20 DUP6 ADD DUP6 PUSH2 0x281C JUMP JUMPDEST PUSH2 0x2022 PUSH1 0x40 DUP7 ADD PUSH1 0x20 DUP8 ADD PUSH2 0x281C JUMP JUMPDEST PUSH1 0x40 DUP7 ADD CALLDATALOAD PUSH2 0x2037 PUSH1 0x80 DUP9 ADD PUSH1 0x60 DUP10 ADD PUSH2 0x2AB6 JUMP JUMPDEST PUSH2 0x2044 PUSH1 0x80 DUP10 ADD DUP10 PUSH2 0x2DEB JUMP JUMPDEST PUSH1 0x40 MLOAD PUSH2 0x2052 SWAP3 SWAP2 SWAP1 PUSH2 0x30CE JUMP JUMPDEST PUSH1 0x40 DUP1 MLOAD SWAP2 DUP3 SWAP1 SUB DUP3 KECCAK256 PUSH1 0x20 DUP4 ADD SWAP8 SWAP1 SWAP8 MSTORE PUSH1 0x1 PUSH1 0x1 PUSH1 0xA0 SHL SUB SWAP6 DUP7 AND SWAP1 DUP3 ADD MSTORE SWAP4 SWAP1 SWAP3 AND PUSH1 0x60 DUP5 ADD MSTORE PUSH1 0x80 DUP4 ADD MSTORE PUSH1 0x1 PUSH1 0x1 PUSH1 0x60 SHL SUB AND PUSH1 0xA0 DUP1 DUP4 ADD SWAP2 SWAP1 SWAP2 MSTORE PUSH1 0xC0 DUP3 ADD SWAP3 SWAP1 SWAP3 MSTORE SWAP1 DUP5 ADD CALLDATALOAD PUSH1 0xE0 DUP3 ADD MSTORE PUSH2 0x100 DUP2 ADD DUP4 SWAP1 MSTORE PUSH2 0x120 ADD PUSH2 0x1DB5 JUMP JUMPDEST PUSH2 0x20BF DUP3 DUP3 PUSH2 0xE49 JUMP JUMPDEST PUSH2 0x667 JUMPI PUSH2 0x20D7 DUP2 PUSH1 0x1 PUSH1 0x1 PUSH1 0xA0 SHL SUB AND PUSH1 0x14 PUSH2 0x22D4 JUMP JUMPDEST PUSH2 0x20E2 DUP4 PUSH1 0x20 PUSH2 0x22D4 JUMP JUMPDEST PUSH1 0x40 MLOAD PUSH1 0x20 ADD PUSH2 0x20F3 SWAP3 SWAP2 SWAP1 PUSH2 0x3102 JUMP JUMPDEST PUSH1 0x40 DUP1 MLOAD PUSH1 0x1F NOT DUP2 DUP5 SUB ADD DUP2 MSTORE SWAP1 DUP3 SWAP1 MSTORE PUSH3 0x461BCD PUSH1 0xE5 SHL DUP3 MSTORE PUSH2 0x58E SWAP2 PUSH1 0x4 ADD PUSH2 0x3177 JUMP JUMPDEST PUSH1 0x2 SLOAD PUSH1 0xFF AND PUSH2 0x1CC2 JUMPI PUSH1 0x40 MLOAD PUSH3 0x461BCD PUSH1 0xE5 SHL DUP2 MSTORE PUSH1 0x20 PUSH1 0x4 DUP3 ADD MSTORE PUSH1 0x14 PUSH1 0x24 DUP3 ADD MSTORE PUSH20 0x14185D5CD8589B194E881B9BDD081C185D5CD959 PUSH1 0x62 SHL PUSH1 0x44 DUP3 ADD MSTORE PUSH1 0x64 ADD PUSH2 0x58E JUMP JUMPDEST PUSH1 0x0 ADDRESS PUSH1 0x1 PUSH1 0x1 PUSH1 0xA0 SHL SUB PUSH32 0x0 AND EQ DUP1 ISZERO PUSH2 0x21BB JUMPI POP PUSH32 0x0 CHAINID EQ JUMPDEST ISZERO PUSH2 0x21E5 JUMPI POP PUSH32 0x0 SWAP1 JUMP JUMPDEST POP PUSH1 0x40 DUP1 MLOAD PUSH32 0x0 PUSH1 0x20 DUP1 DUP4 ADD SWAP2 SWAP1 SWAP2 MSTORE PUSH32 0x0 DUP3 DUP5 ADD MSTORE PUSH32 0x0 PUSH1 0x60 DUP4 ADD MSTORE CHAINID PUSH1 0x80 DUP4 ADD MSTORE ADDRESS PUSH1 0xA0 DUP1 DUP5 ADD SWAP2 SWAP1 SWAP2 MSTORE DUP4 MLOAD DUP1 DUP5 SUB SWAP1 SWAP2 ADD DUP2 MSTORE PUSH1 0xC0 SWAP1 SWAP3 ADD SWAP1 SWAP3 MSTORE DUP1 MLOAD SWAP2 ADD KECCAK256 SWAP1 JUMP JUMPDEST PUSH1 0x40 MLOAD PUSH2 0x1901 PUSH1 0xF0 SHL PUSH1 0x20 DUP3 ADD MSTORE PUSH1 0x22 DUP2 ADD DUP4 SWAP1 MSTORE PUSH1 0x42 DUP2 ADD DUP3 SWAP1 MSTORE PUSH1 0x0 SWAP1 PUSH1 0x62 ADD PUSH2 0x1DB5 JUMP JUMPDEST PUSH1 0x0 DUP1 PUSH1 0x0 PUSH2 0x22BF DUP6 DUP6 PUSH2 0x2470 JUMP JUMPDEST SWAP2 POP SWAP2 POP PUSH2 0x22CC DUP2 PUSH2 0x24B5 JUMP JUMPDEST POP SWAP4 SWAP3 POP POP POP JUMP JUMPDEST PUSH1 0x60 PUSH1 0x0 PUSH2 0x22E3 DUP4 PUSH1 0x2 PUSH2 0x31AA JUMP JUMPDEST PUSH2 0x22EE SWAP1 PUSH1 0x2 PUSH2 0x2BA2 JUMP JUMPDEST PUSH8 0xFFFFFFFFFFFFFFFF DUP2 GT ISZERO PUSH2 0x2306 JUMPI PUSH2 0x2306 PUSH2 0x31C1 JUMP JUMPDEST PUSH1 0x40 MLOAD SWAP1 DUP1 DUP3 MSTORE DUP1 PUSH1 0x1F ADD PUSH1 0x1F NOT AND PUSH1 0x20 ADD DUP3 ADD PUSH1 0x40 MSTORE DUP1 ISZERO PUSH2 0x2330 JUMPI PUSH1 0x20 DUP3 ADD DUP2 DUP1 CALLDATASIZE DUP4 CALLDATACOPY ADD SWAP1 POP JUMPDEST POP SWAP1 POP PUSH1 0x3 PUSH1 0xFC SHL DUP2 PUSH1 0x0 DUP2 MLOAD DUP2 LT PUSH2 0x234B JUMPI PUSH2 0x234B PUSH2 0x2D85 JUMP JUMPDEST PUSH1 0x20 ADD ADD SWAP1 PUSH1 0x1 PUSH1 0x1 PUSH1 0xF8 SHL SUB NOT AND SWAP1 DUP2 PUSH1 0x0 BYTE SWAP1 MSTORE8 POP PUSH1 0xF PUSH1 0xFB SHL DUP2 PUSH1 0x1 DUP2 MLOAD DUP2 LT PUSH2 0x237A JUMPI PUSH2 0x237A PUSH2 0x2D85 JUMP JUMPDEST PUSH1 0x20 ADD ADD SWAP1 PUSH1 0x1 PUSH1 0x1 PUSH1 0xF8 SHL SUB NOT AND SWAP1 DUP2 PUSH1 0x0 BYTE SWAP1 MSTORE8 POP PUSH1 0x0 PUSH2 0x239E DUP5 PUSH1 0x2 PUSH2 0x31AA JUMP JUMPDEST PUSH2 0x23A9 SWAP1 PUSH1 0x1 PUSH2 0x2BA2 JUMP JUMPDEST SWAP1 POP JUMPDEST PUSH1 0x1 DUP2 GT ISZERO PUSH2 0x2421 JUMPI PUSH16 0x181899199A1A9B1B9C1CB0B131B232B3 PUSH1 0x81 SHL DUP6 PUSH1 0xF AND PUSH1 0x10 DUP2 LT PUSH2 0x23DD JUMPI PUSH2 0x23DD PUSH2 0x2D85 JUMP JUMPDEST BYTE PUSH1 0xF8 SHL DUP3 DUP3 DUP2 MLOAD DUP2 LT PUSH2 0x23F3 JUMPI PUSH2 0x23F3 PUSH2 0x2D85 JUMP JUMPDEST PUSH1 0x20 ADD ADD SWAP1 PUSH1 0x1 PUSH1 0x1 PUSH1 0xF8 SHL SUB NOT AND SWAP1 DUP2 PUSH1 0x0 BYTE SWAP1 MSTORE8 POP PUSH1 0x4 SWAP5 SWAP1 SWAP5 SHR SWAP4 PUSH2 0x241A DUP2 PUSH2 0x31D7 JUMP JUMPDEST SWAP1 POP PUSH2 0x23AC JUMP JUMPDEST POP DUP4 ISZERO PUSH2 0x1E16 JUMPI PUSH1 0x40 MLOAD PUSH3 0x461BCD PUSH1 0xE5 SHL DUP2 MSTORE PUSH1 0x20 PUSH1 0x4 DUP3 ADD DUP2 SWAP1 MSTORE PUSH1 0x24 DUP3 ADD MSTORE PUSH32 0x537472696E67733A20686578206C656E67746820696E73756666696369656E74 PUSH1 0x44 DUP3 ADD MSTORE PUSH1 0x64 ADD PUSH2 0x58E JUMP JUMPDEST PUSH1 0x0 DUP1 DUP3 MLOAD PUSH1 0x41 SUB PUSH2 0x24A6 JUMPI PUSH1 0x20 DUP4 ADD MLOAD PUSH1 0x40 DUP5 ADD MLOAD PUSH1 0x60 DUP6 ADD MLOAD PUSH1 0x0 BYTE PUSH2 0x249A DUP8 DUP3 DUP6 DUP6 PUSH2 0x266B JUMP JUMPDEST SWAP5 POP SWAP5 POP POP POP POP PUSH2 0x24AE JUMP JUMPDEST POP PUSH1 0x0 SWAP1 POP PUSH1 0x2 JUMPDEST SWAP3 POP SWAP3 SWAP1 POP JUMP JUMPDEST PUSH1 0x0 DUP2 PUSH1 0x4 DUP2 GT ISZERO PUSH2 0x24C9 JUMPI PUSH2 0x24C9 PUSH2 0x31EE JUMP JUMPDEST SUB PUSH2 0x24D1 JUMPI POP JUMP JUMPDEST PUSH1 0x1 DUP2 PUSH1 0x4 DUP2 GT ISZERO PUSH2 0x24E5 JUMPI PUSH2 0x24E5 PUSH2 0x31EE JUMP JUMPDEST SUB PUSH2 0x2532 JUMPI PUSH1 0x40 MLOAD PUSH3 0x461BCD PUSH1 0xE5 SHL DUP2 MSTORE PUSH1 0x20 PUSH1 0x4 DUP3 ADD MSTORE PUSH1 0x18 PUSH1 0x24 DUP3 ADD MSTORE PUSH32 0x45434453413A20696E76616C6964207369676E61747572650000000000000000 PUSH1 0x44 DUP3 ADD MSTORE PUSH1 0x64 ADD PUSH2 0x58E JUMP JUMPDEST PUSH1 0x2 DUP2 PUSH1 0x4 DUP2 GT ISZERO PUSH2 0x2546 JUMPI PUSH2 0x2546 PUSH2 0x31EE JUMP JUMPDEST SUB PUSH2 0x2593 JUMPI PUSH1 0x40 MLOAD PUSH3 0x461BCD PUSH1 0xE5 SHL DUP2 MSTORE PUSH1 0x20 PUSH1 0x4 DUP3 ADD MSTORE PUSH1 0x1F PUSH1 0x24 DUP3 ADD MSTORE PUSH32 0x45434453413A20696E76616C6964207369676E6174757265206C656E67746800 PUSH1 0x44 DUP3 ADD MSTORE PUSH1 0x64 ADD PUSH2 0x58E JUMP JUMPDEST PUSH1 0x3 DUP2 PUSH1 0x4 DUP2 GT ISZERO PUSH2 0x25A7 JUMPI PUSH2 0x25A7 PUSH2 0x31EE JUMP JUMPDEST SUB PUSH2 0x25FF JUMPI PUSH1 0x40 MLOAD PUSH3 0x461BCD PUSH1 0xE5 SHL DUP2 MSTORE PUSH1 0x20 PUSH1 0x4 DUP3 ADD MSTORE PUSH1 0x22 PUSH1 0x24 DUP3 ADD MSTORE PUSH32 0x45434453413A20696E76616C6964207369676E6174757265202773272076616C PUSH1 0x44 DUP3 ADD MSTORE PUSH2 0x7565 PUSH1 0xF0 SHL PUSH1 0x64 DUP3 ADD MSTORE PUSH1 0x84 ADD PUSH2 0x58E JUMP JUMPDEST PUSH1 0x4 DUP2 PUSH1 0x4 DUP2 GT ISZERO PUSH2 0x2613 JUMPI PUSH2 0x2613 PUSH2 0x31EE JUMP JUMPDEST SUB PUSH2 0x67E JUMPI PUSH1 0x40 MLOAD PUSH3 0x461BCD PUSH1 0xE5 SHL DUP2 MSTORE PUSH1 0x20 PUSH1 0x4 DUP3 ADD MSTORE PUSH1 0x22 PUSH1 0x24 DUP3 ADD MSTORE PUSH32 0x45434453413A20696E76616C6964207369676E6174757265202776272076616C PUSH1 0x44 DUP3 ADD MSTORE PUSH2 0x7565 PUSH1 0xF0 SHL PUSH1 0x64 DUP3 ADD MSTORE PUSH1 0x84 ADD PUSH2 0x58E JUMP JUMPDEST PUSH1 0x0 DUP1 PUSH32 0x7FFFFFFFFFFFFFFFFFFFFFFFFFFFFFFF5D576E7357A4501DDFE92F46681B20A0 DUP4 GT ISZERO PUSH2 0x26A2 JUMPI POP PUSH1 0x0 SWAP1 POP PUSH1 0x3 PUSH2 0x274F JUMP JUMPDEST DUP5 PUSH1 0xFF AND PUSH1 0x1B EQ ISZERO DUP1 ISZERO PUSH2 0x26BA JUMPI POP DUP5 PUSH1 0xFF AND PUSH1 0x1C EQ ISZERO JUMPDEST ISZERO PUSH2 0x26CB JUMPI POP PUSH1 0x0 SWAP1 POP PUSH1 0x4 PUSH2 0x274F JUMP JUMPDEST PUSH1 0x40 DUP1 MLOAD PUSH1 0x0 DUP1 DUP3 MSTORE PUSH1 0x20 DUP3 ADD DUP1 DUP5 MSTORE DUP10 SWAP1 MSTORE PUSH1 0xFF DUP9 AND SWAP3 DUP3 ADD SWAP3 SWAP1 SWAP3 MSTORE PUSH1 0x60 DUP2 ADD DUP7 SWAP1 MSTORE PUSH1 0x80 DUP2 ADD DUP6 SWAP1 MSTORE PUSH1 0x1 SWAP1 PUSH1 0xA0 ADD PUSH1 0x20 PUSH1 0x40 MLOAD PUSH1 0x20 DUP2 SUB SWAP1 DUP1 DUP5 SUB SWAP1 DUP6 GAS STATICCALL ISZERO DUP1 ISZERO PUSH2 0x271F JUMPI RETURNDATASIZE PUSH1 0x0 DUP1 RETURNDATACOPY RETURNDATASIZE PUSH1 0x0 REVERT JUMPDEST POP POP PUSH1 0x40 MLOAD PUSH1 0x1F NOT ADD MLOAD SWAP2 POP POP PUSH1 0x1 PUSH1 0x1 PUSH1 0xA0 SHL SUB DUP2 AND PUSH2 0x2748 JUMPI PUSH1 0x0 PUSH1 0x1 SWAP3 POP SWAP3 POP POP PUSH2 0x274F JUMP JUMPDEST SWAP2 POP PUSH1 0x0 SWAP1 POP JUMPDEST SWAP5 POP SWAP5 SWAP3 POP POP POP JUMP JUMPDEST PUSH1 0x0 PUSH1 0x20 DUP3 DUP5 SUB SLT ISZERO PUSH2 0x276A JUMPI PUSH1 0x0 DUP1 REVERT JUMPDEST DUP2 CALLDATALOAD PUSH1 0x1 PUSH1 0x1 PUSH1 0xE0 SHL SUB NOT DUP2 AND DUP2 EQ PUSH2 0x1E16 JUMPI PUSH1 0x0 DUP1 REVERT JUMPDEST PUSH1 0x1 PUSH1 0x1 PUSH1 0xA0 SHL SUB DUP2 AND DUP2 EQ PUSH2 0x67E JUMPI PUSH1 0x0 DUP1 REVERT JUMPDEST DUP1 CALLDATALOAD PUSH2 0x27A2 DUP2 PUSH2 0x2782 JUMP JUMPDEST SWAP2 SWAP1 POP JUMP JUMPDEST PUSH1 0x0 DUP1 PUSH1 0x40 DUP4 DUP6 SUB SLT ISZERO PUSH2 0x27BA JUMPI PUSH1 0x0 DUP1 REVERT JUMPDEST DUP3 CALLDATALOAD PUSH2 0x27C5 DUP2 PUSH2 0x2782 JUMP JUMPDEST SWAP5 PUSH1 0x20 SWAP4 SWAP1 SWAP4 ADD CALLDATALOAD SWAP4 POP POP POP JUMP JUMPDEST PUSH1 0x0 PUSH1 0x20 DUP3 DUP5 SUB SLT ISZERO PUSH2 0x27E5 JUMPI PUSH1 0x0 DUP1 REVERT JUMPDEST POP CALLDATALOAD SWAP2 SWAP1 POP JUMP JUMPDEST PUSH1 0x0 DUP1 PUSH1 0x40 DUP4 DUP6 SUB SLT ISZERO PUSH2 0x27FF JUMPI PUSH1 0x0 DUP1 REVERT JUMPDEST DUP3 CALLDATALOAD SWAP2 POP PUSH1 0x20 DUP4 ADD CALLDATALOAD PUSH2 0x2811 DUP2 PUSH2 0x2782 JUMP JUMPDEST DUP1 SWAP2 POP POP SWAP3 POP SWAP3 SWAP1 POP JUMP JUMPDEST PUSH1 0x0 PUSH1 0x20 DUP3 DUP5 SUB SLT ISZERO PUSH2 0x282E JUMPI PUSH1 0x0 DUP1 REVERT JUMPDEST DUP2 CALLDATALOAD PUSH2 0x1E16 DUP2 PUSH2 0x2782 JUMP JUMPDEST PUSH1 0x0 DUP1 DUP4 PUSH1 0x1F DUP5 ADD SLT PUSH2 0x284B JUMPI PUSH1 0x0 DUP1 REVERT JUMPDEST POP DUP2 CALLDATALOAD PUSH8 0xFFFFFFFFFFFFFFFF DUP2 GT ISZERO PUSH2 0x2863 JUMPI PUSH1 0x0 DUP1 REVERT JUMPDEST PUSH1 0x20 DUP4 ADD SWAP2 POP DUP4 PUSH1 0x20 DUP3 DUP6 ADD ADD GT ISZERO PUSH2 0x24AE JUMPI PUSH1 0x0 DUP1 REVERT JUMPDEST PUSH1 0x0 DUP1 PUSH1 0x0 DUP4 DUP6 SUB PUSH2 0x160 DUP2 SLT ISZERO PUSH2 0x2892 JUMPI PUSH1 0x0 DUP1 REVERT JUMPDEST PUSH2 0x140 DUP1 DUP3 SLT ISZERO PUSH2 0x28A2 JUMPI PUSH1 0x0 DUP1 REVERT JUMPDEST DUP6 SWAP5 POP DUP5 ADD CALLDATALOAD SWAP1 POP PUSH8 0xFFFFFFFFFFFFFFFF DUP2 GT ISZERO PUSH2 0x28BF JUMPI PUSH1 0x0 DUP1 REVERT JUMPDEST PUSH2 0x28CB DUP7 DUP3 DUP8 ADD PUSH2 0x2839 JUMP JUMPDEST SWAP5 SWAP8 SWAP1 SWAP7 POP SWAP4 SWAP5 POP POP POP POP JUMP JUMPDEST PUSH1 0x0 DUP1 DUP4 PUSH1 0x1F DUP5 ADD SLT PUSH2 0x28EA JUMPI PUSH1 0x0 DUP1 REVERT JUMPDEST POP DUP2 CALLDATALOAD PUSH8 0xFFFFFFFFFFFFFFFF DUP2 GT ISZERO PUSH2 0x2902 JUMPI PUSH1 0x0 DUP1 REVERT JUMPDEST PUSH1 0x20 DUP4 ADD SWAP2 POP DUP4 PUSH1 0x20 DUP3 PUSH1 0x5 SHL DUP6 ADD ADD GT ISZERO PUSH2 0x24AE JUMPI PUSH1 0x0 DUP1 REVERT JUMPDEST DUP1 CALLDATALOAD PUSH1 0x1 PUSH1 0x1 PUSH1 0x60 SHL SUB DUP2 AND DUP2 EQ PUSH2 0x27A2 JUMPI PUSH1 0x0 DUP1 REVERT JUMPDEST PUSH1 0x0 DUP1 PUSH1 0x0 DUP1 PUSH1 0x0 DUP1 PUSH1 0x0 PUSH1 0xA0 DUP9 DUP11 SUB SLT ISZERO PUSH2 0x294F JUMPI PUSH1 0x0 DUP1 REVERT JUMPDEST DUP8 CALLDATALOAD PUSH2 0x295A DUP2 PUSH2 0x2782 JUMP JUMPDEST SWAP7 POP PUSH1 0x20 DUP9 ADD CALLDATALOAD PUSH8 0xFFFFFFFFFFFFFFFF DUP1 DUP3 GT ISZERO PUSH2 0x2977 JUMPI PUSH1 0x0 DUP1 REVERT JUMPDEST PUSH2 0x2983 DUP12 DUP4 DUP13 ADD PUSH2 0x28D8 JUMP JUMPDEST SWAP1 SWAP9 POP SWAP7 POP DUP7 SWAP2 POP PUSH2 0x2997 PUSH1 0x40 DUP12 ADD PUSH2 0x291D JUMP JUMPDEST SWAP6 POP PUSH1 0x60 DUP11 ADD CALLDATALOAD SWAP2 POP DUP1 DUP3 GT ISZERO PUSH2 0x29AD JUMPI PUSH1 0x0 DUP1 REVERT JUMPDEST POP PUSH2 0x29BA DUP11 DUP3 DUP12 ADD PUSH2 0x28D8 JUMP JUMPDEST SWAP1 SWAP5 POP SWAP3 POP POP PUSH1 0x80 DUP9 ADD CALLDATALOAD PUSH2 0x29CE DUP2 PUSH2 0x2782 JUMP JUMPDEST DUP1 SWAP2 POP POP SWAP3 SWAP6 SWAP9 SWAP2 SWAP5 SWAP8 POP SWAP3 SWAP6 POP JUMP JUMPDEST PUSH1 0x0 DUP1 PUSH1 0x0 PUSH1 0x40 DUP5 DUP7 SUB SLT ISZERO PUSH2 0x29F3 JUMPI PUSH1 0x0 DUP1 REVERT JUMPDEST DUP4 CALLDATALOAD PUSH8 0xFFFFFFFFFFFFFFFF DUP1 DUP3 GT ISZERO PUSH2 0x2A0B JUMPI PUSH1 0x0 DUP1 REVERT JUMPDEST SWAP1 DUP6 ADD SWAP1 PUSH1 0xC0 DUP3 DUP9 SUB SLT ISZERO PUSH2 0x2A1F JUMPI PUSH1 0x0 DUP1 REVERT JUMPDEST SWAP1 SWAP4 POP PUSH1 0x20 DUP6 ADD CALLDATALOAD SWAP1 DUP1 DUP3 GT ISZERO PUSH2 0x2A35 JUMPI PUSH1 0x0 DUP1 REVERT JUMPDEST POP PUSH2 0x28CB DUP7 DUP3 DUP8 ADD PUSH2 0x2839 JUMP JUMPDEST PUSH1 0x0 DUP1 PUSH1 0x0 PUSH1 0x40 DUP5 DUP7 SUB SLT ISZERO PUSH2 0x2A57 JUMPI PUSH1 0x0 DUP1 REVERT JUMPDEST DUP4 CALLDATALOAD PUSH8 0xFFFFFFFFFFFFFFFF DUP1 DUP3 GT ISZERO PUSH2 0x2A6F JUMPI PUSH1 0x0 DUP1 REVERT JUMPDEST SWAP1 DUP6 ADD SWAP1 PUSH1 0xE0 DUP3 DUP9 SUB SLT ISZERO PUSH2 0x2A1F JUMPI PUSH1 0x0 DUP1 REVERT JUMPDEST PUSH1 0x0 DUP1 PUSH1 0x40 DUP4 DUP6 SUB SLT ISZERO PUSH2 0x2A96 JUMPI PUSH1 0x0 DUP1 REVERT JUMPDEST DUP3 CALLDATALOAD PUSH2 0x2AA1 DUP2 PUSH2 0x2782 JUMP JUMPDEST SWAP2 POP PUSH1 0x20 DUP4 ADD CALLDATALOAD DUP1 ISZERO ISZERO DUP2 EQ PUSH2 0x2811 JUMPI PUSH1 0x0 DUP1 REVERT JUMPDEST PUSH1 0x0 PUSH1 0x20 DUP3 DUP5 SUB SLT ISZERO PUSH2 0x2AC8 JUMPI PUSH1 0x0 DUP1 REVERT JUMPDEST PUSH2 0x1E16 DUP3 PUSH2 0x291D JUMP JUMPDEST PUSH1 0x20 DUP1 DUP3 MSTORE PUSH1 0x1F SWAP1 DUP3 ADD MSTORE PUSH32 0x5265656E7472616E637947756172643A207265656E7472616E742063616C6C00 PUSH1 0x40 DUP3 ADD MSTORE PUSH1 0x60 ADD SWAP1 JUMP JUMPDEST PUSH1 0x20 DUP1 DUP3 MSTORE PUSH1 0x3A SWAP1 DUP3 ADD MSTORE PUSH32 0x47424D61726B6574706C6163653A20636F6C6C656374696F6E20616464726573 PUSH1 0x40 DUP3 ADD MSTORE PUSH32 0x73206D757374206E6F74206265207A65726F2061646472657373000000000000 PUSH1 0x60 DUP3 ADD MSTORE PUSH1 0x80 ADD SWAP1 JUMP JUMPDEST PUSH4 0x4E487B71 PUSH1 0xE0 SHL PUSH1 0x0 MSTORE PUSH1 0x11 PUSH1 0x4 MSTORE PUSH1 0x24 PUSH1 0x0 REVERT JUMPDEST PUSH1 0x1 PUSH1 0x1 PUSH1 0x60 SHL SUB DUP2 DUP2 AND DUP4 DUP3 AND ADD SWAP1 DUP1 DUP3 GT ISZERO PUSH2 0x2B9B JUMPI PUSH2 0x2B9B PUSH2 0x2B65 JUMP JUMPDEST POP SWAP3 SWAP2 POP POP JUMP JUMPDEST DUP1 DUP3 ADD DUP1 DUP3 GT ISZERO PUSH2 0x4EC JUMPI PUSH2 0x4EC PUSH2 0x2B65 JUMP JUMPDEST PUSH1 0x20 DUP1 DUP3 MSTORE DUP2 DUP2 ADD MSTORE PUSH32 0x47424D61726B6574706C6163653A205369676E61747572652065787069726564 PUSH1 0x40 DUP3 ADD MSTORE PUSH1 0x60 ADD SWAP1 JUMP JUMPDEST PUSH1 0x20 DUP1 DUP3 MSTORE PUSH1 0x29 SWAP1 DUP3 ADD MSTORE PUSH32 0x47424D61726B6574706C6163653A20496E76616C696420636F6C6C656374696F PUSH1 0x40 DUP3 ADD MSTORE PUSH9 0x6E2061646472657373 PUSH1 0xB8 SHL PUSH1 0x60 DUP3 ADD MSTORE PUSH1 0x80 ADD SWAP1 JUMP JUMPDEST PUSH1 0x20 DUP1 DUP3 MSTORE PUSH1 0x11 SWAP1 DUP3 ADD MSTORE PUSH17 0x496E76616C6964207369676E6174757265 PUSH1 0x78 SHL PUSH1 0x40 DUP3 ADD MSTORE PUSH1 0x60 ADD SWAP1 JUMP JUMPDEST PUSH1 0x0 DUP1 PUSH1 0x40 DUP4 DUP6 SUB SLT ISZERO PUSH2 0x2C71 JUMPI PUSH1 0x0 DUP1 REVERT JUMPDEST DUP3 MLOAD PUSH2 0x2C7C DUP2 PUSH2 0x2782 JUMP JUMPDEST PUSH1 0x20 SWAP4 SWAP1 SWAP4 ADD MLOAD SWAP3 SWAP5 SWAP3 SWAP4 POP POP POP JUMP JUMPDEST PUSH1 0x0 DUP3 PUSH2 0x2CA9 JUMPI PUSH4 0x4E487B71 PUSH1 0xE0 SHL PUSH1 0x0 MSTORE PUSH1 0x12 PUSH1 0x4 MSTORE PUSH1 0x24 PUSH1 0x0 REVERT JUMPDEST POP DIV SWAP1 JUMP JUMPDEST DUP2 DUP2 SUB DUP2 DUP2 GT ISZERO PUSH2 0x4EC JUMPI PUSH2 0x4EC PUSH2 0x2B65 JUMP JUMPDEST PUSH2 0x140 DUP2 ADD PUSH2 0x2CE0 DUP3 PUSH2 0x2CD3 DUP6 PUSH2 0x2797 JUMP JUMPDEST PUSH1 0x1 PUSH1 0x1 PUSH1 0xA0 SHL SUB AND SWAP1 MSTORE JUMP JUMPDEST PUSH2 0x2CEC PUSH1 0x20 DUP5 ADD PUSH2 0x2797 JUMP JUMPDEST PUSH1 0x1 PUSH1 0x1 PUSH1 0xA0 SHL SUB AND PUSH1 0x20 DUP4 ADD MSTORE PUSH2 0x2D06 PUSH1 0x40 DUP5 ADD PUSH2 0x2797 JUMP JUMPDEST PUSH1 0x1 PUSH1 0x1 PUSH1 0xA0 SHL SUB DUP2 AND PUSH1 0x40 DUP5 ADD MSTORE POP PUSH1 0x60 DUP4 ADD CALLDATALOAD PUSH1 0x60 DUP4 ADD MSTORE PUSH1 0x80 DUP4 ADD CALLDATALOAD PUSH1 0x80 DUP4 ADD MSTORE PUSH1 0xA0 DUP4 ADD CALLDATALOAD PUSH1 0xA0 DUP4 ADD MSTORE PUSH2 0x2D40 PUSH1 0xC0 DUP5 ADD PUSH2 0x2797 JUMP JUMPDEST PUSH1 0x1 PUSH1 0x1 PUSH1 0xA0 SHL SUB AND PUSH1 0xC0 DUP4 ADD MSTORE PUSH2 0x2D5A PUSH1 0xE0 DUP5 ADD PUSH2 0x291D JUMP JUMPDEST PUSH1 0x1 PUSH1 0x1 PUSH1 0x60 SHL SUB AND PUSH1 0xE0 DUP4 ADD MSTORE PUSH2 0x100 DUP4 DUP2 ADD CALLDATALOAD SWAP1 DUP4 ADD MSTORE PUSH2 0x120 SWAP3 DUP4 ADD CALLDATALOAD SWAP3 SWAP1 SWAP2 ADD SWAP2 SWAP1 SWAP2 MSTORE SWAP1 JUMP JUMPDEST PUSH4 0x4E487B71 PUSH1 0xE0 SHL PUSH1 0x0 MSTORE PUSH1 0x32 PUSH1 0x4 MSTORE PUSH1 0x24 PUSH1 0x0 REVERT JUMPDEST PUSH1 0x20 DUP1 DUP3 MSTORE PUSH1 0x30 SWAP1 DUP3 ADD MSTORE PUSH32 0x47424D61726B6574706C6163653A20746F6B656E4964206D7573742062652067 PUSH1 0x40 DUP3 ADD MSTORE PUSH16 0x726561746572207468616E207A65726F PUSH1 0x80 SHL PUSH1 0x60 DUP3 ADD MSTORE PUSH1 0x80 ADD SWAP1 JUMP JUMPDEST PUSH1 0x0 DUP1 DUP4 CALLDATALOAD PUSH1 0x1E NOT DUP5 CALLDATASIZE SUB ADD DUP2 SLT PUSH2 0x2E02 JUMPI PUSH1 0x0 DUP1 REVERT JUMPDEST DUP4 ADD DUP1 CALLDATALOAD SWAP2 POP PUSH8 0xFFFFFFFFFFFFFFFF DUP3 GT ISZERO PUSH2 0x2E1D JUMPI PUSH1 0x0 DUP1 REVERT JUMPDEST PUSH1 0x20 ADD SWAP2 POP CALLDATASIZE DUP2 SWAP1 SUB DUP3 SGT ISZERO PUSH2 0x24AE JUMPI PUSH1 0x0 DUP1 REVERT JUMPDEST DUP2 DUP4 MSTORE DUP2 DUP2 PUSH1 0x20 DUP6 ADD CALLDATACOPY POP PUSH1 0x0 DUP3 DUP3 ADD PUSH1 0x20 SWAP1 DUP2 ADD SWAP2 SWAP1 SWAP2 MSTORE PUSH1 0x1F SWAP1 SWAP2 ADD PUSH1 0x1F NOT AND SWAP1 SWAP2 ADD ADD SWAP1 JUMP JUMPDEST PUSH1 0x1 DUP1 PUSH1 0xA0 SHL SUB DUP7 AND DUP2 MSTORE DUP5 PUSH1 0x20 DUP3 ADD MSTORE PUSH1 0x1 PUSH1 0x1 PUSH1 0x60 SHL SUB DUP5 AND PUSH1 0x40 DUP3 ADD MSTORE PUSH1 0x80 PUSH1 0x60 DUP3 ADD MSTORE PUSH1 0x0 PUSH2 0x2E92 PUSH1 0x80 DUP4 ADD DUP5 DUP7 PUSH2 0x2E32 JUMP JUMPDEST SWAP8 SWAP7 POP POP POP POP POP POP POP JUMP JUMPDEST PUSH1 0x1 PUSH1 0x1 PUSH1 0xA0 SHL SUB DUP8 DUP2 AND DUP3 MSTORE DUP7 AND PUSH1 0x20 DUP3 ADD MSTORE PUSH1 0x40 DUP2 ADD DUP6 SWAP1 MSTORE PUSH1 0xA0 PUSH1 0x60 DUP3 ADD DUP2 SWAP1 MSTORE PUSH1 0x0 SWAP1 PUSH2 0x2ED1 SWAP1 DUP4 ADD DUP6 DUP8 PUSH2 0x2E32 JUMP JUMPDEST SWAP1 POP PUSH1 0x1 PUSH1 0x1 PUSH1 0x60 SHL SUB DUP4 AND PUSH1 0x80 DUP4 ADD MSTORE SWAP8 SWAP7 POP POP POP POP POP POP POP JUMP JUMPDEST PUSH1 0x1 PUSH1 0x1 PUSH1 0xA0 SHL SUB DUP10 DUP2 AND DUP3 MSTORE DUP9 DUP2 AND PUSH1 0x20 DUP1 DUP5 ADD SWAP2 SWAP1 SWAP2 MSTORE PUSH1 0xC0 PUSH1 0x40 DUP5 ADD DUP2 SWAP1 MSTORE DUP4 ADD DUP9 SWAP1 MSTORE PUSH1 0x0 SWAP2 SWAP1 PUSH1 0x1 PUSH1 0x1 PUSH1 0xFB SHL SUB DUP10 GT ISZERO PUSH2 0x2F2C JUMPI PUSH1 0x0 DUP1 REVERT JUMPDEST DUP9 PUSH1 0x5 SHL SWAP2 POP DUP2 DUP11 PUSH1 0xE0 DUP7 ADD CALLDATACOPY PUSH1 0xE0 SWAP2 DUP5 ADD DUP5 DUP2 SUB DUP4 ADD PUSH1 0x60 DUP7 ADD MSTORE SWAP2 DUP3 ADD DUP8 SWAP1 MSTORE PUSH2 0x100 PUSH1 0x5 DUP9 SWAP1 SHL DUP4 ADD DUP2 ADD SWAP1 DUP4 ADD DUP10 PUSH1 0x0 JUMPDEST DUP11 DUP2 LT ISZERO PUSH2 0x2FD1 JUMPI DUP6 DUP5 SUB PUSH1 0xFF NOT ADD DUP4 MSTORE DUP2 CALLDATALOAD CALLDATASIZE DUP14 SWAP1 SUB PUSH1 0x1E NOT ADD DUP2 SLT PUSH2 0x2F87 JUMPI PUSH1 0x0 DUP1 REVERT JUMPDEST DUP13 ADD DUP6 DUP2 ADD SWAP1 CALLDATALOAD PUSH8 0xFFFFFFFFFFFFFFFF DUP2 GT ISZERO PUSH2 0x2FA3 JUMPI PUSH1 0x0 DUP1 REVERT JUMPDEST DUP1 CALLDATASIZE SUB DUP3 SGT ISZERO PUSH2 0x2FB2 JUMPI PUSH1 0x0 DUP1 REVERT JUMPDEST PUSH2 0x2FBD DUP7 DUP3 DUP5 PUSH2 0x2E32 JUMP JUMPDEST SWAP6 POP POP POP SWAP2 DUP5 ADD SWAP2 SWAP1 DUP5 ADD SWAP1 PUSH1 0x1 ADD PUSH2 0x2F61 JUMP JUMPDEST POP POP POP PUSH1 0x1 PUSH1 0x1 PUSH1 0x60 SHL SUB DUP8 AND PUSH1 0x80 DUP7 ADD MSTORE SWAP3 POP PUSH2 0x2FED SWAP2 POP POP JUMP JUMPDEST PUSH1 0x1 PUSH1 0x1 PUSH1 0xA0 SHL SUB DUP4 AND PUSH1 0xA0 DUP4 ADD MSTORE SWAP10 SWAP9 POP POP POP POP POP POP POP POP POP JUMP JUMPDEST PUSH1 0x0 PUSH1 0x20 DUP3 DUP5 SUB SLT ISZERO PUSH2 0x301B JUMPI PUSH1 0x0 DUP1 REVERT JUMPDEST DUP2 MLOAD PUSH2 0x1E16 DUP2 PUSH2 0x2782 JUMP JUMPDEST DUP4 DUP2 MSTORE PUSH1 0x40 PUSH1 0x20 DUP3 ADD MSTORE PUSH1 0x0 PUSH2 0x3040 PUSH1 0x40 DUP4 ADD DUP5 DUP7 PUSH2 0x2E32 JUMP JUMPDEST SWAP6 SWAP5 POP POP POP POP POP JUMP JUMPDEST PUSH1 0x1 PUSH1 0x1 PUSH1 0xA0 SHL SUB DUP7 DUP2 AND DUP3 MSTORE DUP6 AND PUSH1 0x20 DUP3 ADD MSTORE PUSH1 0x40 DUP2 ADD DUP5 SWAP1 MSTORE PUSH1 0x80 PUSH1 0x60 DUP3 ADD DUP2 SWAP1 MSTORE PUSH1 0x0 SWAP1 PUSH2 0x2E92 SWAP1 DUP4 ADD DUP5 DUP7 PUSH2 0x2E32 JUMP JUMPDEST DUP9 DUP2 MSTORE PUSH1 0x1 PUSH1 0x1 PUSH1 0xA0 SHL SUB DUP9 DUP2 AND PUSH1 0x20 DUP4 ADD MSTORE DUP8 AND PUSH1 0x40 DUP3 ADD MSTORE PUSH1 0x60 DUP2 ADD DUP7 SWAP1 MSTORE PUSH1 0xE0 PUSH1 0x80 DUP3 ADD DUP2 SWAP1 MSTORE PUSH1 0x0 SWAP1 PUSH2 0x30B7 SWAP1 DUP4 ADD DUP7 DUP9 PUSH2 0x2E32 JUMP JUMPDEST PUSH1 0xA0 DUP4 ADD SWAP5 SWAP1 SWAP5 MSTORE POP PUSH1 0xC0 ADD MSTORE SWAP7 SWAP6 POP POP POP POP POP POP JUMP JUMPDEST DUP2 DUP4 DUP3 CALLDATACOPY PUSH1 0x0 SWAP2 ADD SWAP1 DUP2 MSTORE SWAP2 SWAP1 POP JUMP JUMPDEST PUSH1 0x0 JUMPDEST DUP4 DUP2 LT ISZERO PUSH2 0x30F9 JUMPI DUP2 DUP2 ADD MLOAD DUP4 DUP3 ADD MSTORE PUSH1 0x20 ADD PUSH2 0x30E1 JUMP JUMPDEST POP POP PUSH1 0x0 SWAP2 ADD MSTORE JUMP JUMPDEST PUSH32 0x416363657373436F6E74726F6C3A206163636F756E7420000000000000000000 DUP2 MSTORE PUSH1 0x0 DUP4 MLOAD PUSH2 0x313A DUP2 PUSH1 0x17 DUP6 ADD PUSH1 0x20 DUP9 ADD PUSH2 0x30DE JUMP JUMPDEST PUSH17 0x1034B99036B4B9B9B4B733903937B6329 PUSH1 0x7D SHL PUSH1 0x17 SWAP2 DUP5 ADD SWAP2 DUP3 ADD MSTORE DUP4 MLOAD PUSH2 0x316B DUP2 PUSH1 0x28 DUP5 ADD PUSH1 0x20 DUP9 ADD PUSH2 0x30DE JUMP JUMPDEST ADD PUSH1 0x28 ADD SWAP5 SWAP4 POP POP POP POP JUMP JUMPDEST PUSH1 0x20 DUP2 MSTORE PUSH1 0x0 DUP3 MLOAD DUP1 PUSH1 0x20 DUP5 ADD MSTORE PUSH2 0x3196 DUP2 PUSH1 0x40 DUP6 ADD PUSH1 0x20 DUP8 ADD PUSH2 0x30DE JUMP JUMPDEST PUSH1 0x1F ADD PUSH1 0x1F NOT AND SWAP2 SWAP1 SWAP2 ADD PUSH1 0x40 ADD SWAP3 SWAP2 POP POP JUMP JUMPDEST DUP1 DUP3 MUL DUP2 ISZERO DUP3 DUP3 DIV DUP5 EQ OR PUSH2 0x4EC JUMPI PUSH2 0x4EC PUSH2 0x2B65 JUMP JUMPDEST PUSH4 0x4E487B71 PUSH1 0xE0 SHL PUSH1 0x0 MSTORE PUSH1 0x41 PUSH1 0x4 MSTORE PUSH1 0x24 PUSH1 0x0 REVERT JUMPDEST PUSH1 0x0 DUP2 PUSH2 0x31E6 JUMPI PUSH2 0x31E6 PUSH2 0x2B65 JUMP JUMPDEST POP PUSH1 0x0 NOT ADD SWAP1 JUMP JUMPDEST PUSH4 0x4E487B71 PUSH1 0xE0 SHL PUSH1 0x0 MSTORE PUSH1 0x21 PUSH1 0x4 MSTORE PUSH1 0x24 PUSH1 0x0 REVERT INVALID LOG2 PUSH5 0x6970667358 0x22 SLT KECCAK256 SMOD 0xCE XOR NOT MLOAD 0xB9 0xA9 SWAP9 ADDMOD CALLCODE PUSH26 0xA58E29F18B1EB84560B92FEE5A80832ECF22AF358064736F6C63 NUMBER STOP ADDMOD GT STOP CALLER "},"methodIdentifiers":{"DEFAULT_ADMIN_ROLE()":"a217fddf","VERIFY_ROLE()":"d41d0e5c","addPrimaryMultipleItems(address,uint256[],uint96,string[],address)":"94ae3881","addSingleItem((address,address,uint256,uint96,string,uint256,uint256),bytes)":"b9bca0da","buyItem((address,address,address,uint256,uint256,uint256,address,uint96,uint256,uint256),bytes)":"811f6b76","gbCollection(address)":"90bb447f","getRoleAdmin(bytes32)":"248a9ca3","grantRole(bytes32,address)":"2f2ff15d","hasRole(bytes32,address)":"91d14854","itemInfo(address,uint256)":"1cdaab67","nonces(address)":"7ecebe00","pause()":"8456cb59","paused()":"5c975abb","platformFee()":"26232a2e","renounceRole(bytes32,address)":"36568abe","revokeRole(bytes32,address)":"d547741f","setAdminWallet(address)":"35082933","setGBCollectionAddress(address,bool)":"e20c7153","setPlatformFee(uint96)":"f99e5dbb","setVerifyRole(address)":"c46f23f4","supportsInterface(bytes4)":"01ffc9a7","unpause()":"3f4ba83a","updateTokenURI((address,address,uint256,string,uint256,uint256),bytes)":"ae3771b4"}},"storageLayout":{"storage":[{"astId":24,"contract":"contracts/GBMarketplace.sol:GBMarketplace","label":"_roles","offset":0,"slot":"0","type":"t_mapping(t_bytes32,t_struct(RoleData)19_storage)"},{"astId":511,"contract":"contracts/GBMarketplace.sol:GBMarketplace","label":"_status","offset":0,"slot":"1","type":"t_uint256"},{"astId":410,"contract":"contracts/GBMarketplace.sol:GBMarketplace","label":"_paused","offset":0,"slot":"2","type":"t_bool"},{"astId":1868,"contract":"contracts/GBMarketplace.sol:GBMarketplace","label":"gbCollection","offset":0,"slot":"3","type":"t_mapping(t_address,t_bool)"},{"astId":1872,"contract":"contracts/GBMarketplace.sol:GBMarketplace","label":"nonces","offset":0,"slot":"4","type":"t_mapping(t_address,t_uint256)"},{"astId":1879,"contract":"contracts/GBMarketplace.sol:GBMarketplace","label":"itemInfo","offset":0,"slot":"5","type":"t_mapping(t_address,t_mapping(t_uint256,t_struct(ItemInfo)1864_storage))"},{"astId":1886,"contract":"contracts/GBMarketplace.sol:GBMarketplace","label":"adminWallet","offset":0,"slot":"6","type":"t_address"},{"astId":1889,"contract":"contracts/GBMarketplace.sol:GBMarketplace","label":"platformFee","offset":20,"slot":"6","type":"t_uint96"}],"types":{"t_address":{"encoding":"inplace","label":"address","numberOfBytes":"20"},"t_bool":{"encoding":"inplace","label":"bool","numberOfBytes":"1"},"t_bytes32":{"encoding":"inplace","label":"bytes32","numberOfBytes":"32"},"t_mapping(t_address,t_bool)":{"encoding":"mapping","key":"t_address","label":"mapping(address => bool)","numberOfBytes":"32","value":"t_bool"},"t_mapping(t_address,t_mapping(t_uint256,t_struct(ItemInfo)1864_storage))":{"encoding":"mapping","key":"t_address","label":"mapping(address => mapping(uint256 => struct GBMarketplace.ItemInfo))","numberOfBytes":"32","value":"t_mapping(t_uint256,t_struct(ItemInfo)1864_storage)"},"t_mapping(t_address,t_uint256)":{"encoding":"mapping","key":"t_address","label":"mapping(address => uint256)","numberOfBytes":"32","value":"t_uint256"},"t_mapping(t_bytes32,t_struct(RoleData)19_storage)":{"encoding":"mapping","key":"t_bytes32","label":"mapping(bytes32 => struct AccessControl.RoleData)","numberOfBytes":"32","value":"t_struct(RoleData)19_storage"},"t_mapping(t_uint256,t_struct(ItemInfo)1864_storage)":{"encoding":"mapping","key":"t_uint256","label":"mapping(uint256 => struct GBMarketplace.ItemInfo)","numberOfBytes":"32","value":"t_struct(ItemInfo)1864_storage"},"t_struct(ItemInfo)1864_storage":{"encoding":"inplace","label":"struct GBMarketplace.ItemInfo","members":[{"astId":1859,"contract":"contracts/GBMarketplace.sol:GBMarketplace","label":"royaltyAddress","offset":0,"slot":"0","type":"t_address"},{"astId":1861,"contract":"contracts/GBMarketplace.sol:GBMarketplace","label":"royaltyFee","offset":20,"slot":"0","type":"t_uint96"},{"astId":1863,"contract":"contracts/GBMarketplace.sol:GBMarketplace","label":"isPrimaryCollection","offset":0,"slot":"1","type":"t_bool"}],"numberOfBytes":"64"},"t_struct(RoleData)19_storage":{"encoding":"inplace","label":"struct AccessControl.RoleData","members":[{"astId":16,"contract":"contracts/GBMarketplace.sol:GBMarketplace","label":"members","offset":0,"slot":"0","type":"t_mapping(t_address,t_bool)"},{"astId":18,"contract":"contracts/GBMarketplace.sol:GBMarketplace","label":"adminRole","offset":0,"slot":"1","type":"t_bytes32"}],"numberOfBytes":"64"},"t_uint256":{"encoding":"inplace","label":"uint256","numberOfBytes":"32"},"t_uint96":{"encoding":"inplace","label":"uint96","numberOfBytes":"12"}}}}}}