{
  "_format": "hh-sol-artifact-1",
  "contractName": "GBPrimaryCollection",
  "sourceName": "contracts/GBPrimaryCollection.sol",
  "abi": [
    {
      "inputs": [
        {
          "internalType": "string",
          "name": "name_",
          "type": "string"
        },
        {
          "internalType": "string",
          "name": "symbol_",
          "type": "string"
        },
        {
          "internalType": "address",
          "name": "owner_",
          "type": "address"
        }
      ],
      "stateMutability": "nonpayable",
      "type": "constructor"
    },
    {
      "inputs": [],
      "name": "ApprovalCallerNotOwnerNorApproved",
      "type": "error"
    },
    {
      "inputs": [],
      "name": "ApprovalQueryForNonexistentToken",
      "type": "error"
    },
    {
      "inputs": [],
      "name": "BalanceQueryForZeroAddress",
      "type": "error"
    },
    {
      "inputs": [],
      "name": "MintERC2309QuantityExceedsLimit",
      "type": "error"
    },
    {
      "inputs": [],
      "name": "MintToZeroAddress",
      "type": "error"
    },
    {
      "inputs": [],
      "name": "MintZeroQuantity",
      "type": "error"
    },
    {
      "inputs": [],
      "name": "OwnerQueryForNonexistentToken",
      "type": "error"
    },
    {
      "inputs": [],
      "name": "OwnershipNotInitializedForExtraData",
      "type": "error"
    },
    {
      "inputs": [],
      "name": "TransferCallerNotOwnerNorApproved",
      "type": "error"
    },
    {
      "inputs": [],
      "name": "TransferFromIncorrectOwner",
      "type": "error"
    },
    {
      "inputs": [],
      "name": "TransferToNonERC721ReceiverImplementer",
      "type": "error"
    },
    {
      "inputs": [],
      "name": "TransferToZeroAddress",
      "type": "error"
    },
    {
      "inputs": [],
      "name": "URIQueryForNonexistentToken",
      "type": "error"
    },
    {
      "anonymous": false,
      "inputs": [
        {
          "indexed": true,
          "internalType": "address",
          "name": "owner",
          "type": "address"
        },
        {
          "indexed": true,
          "internalType": "address",
          "name": "approved",
          "type": "address"
        },
        {
          "indexed": true,
          "internalType": "uint256",
          "name": "tokenId",
          "type": "uint256"
        }
      ],
      "name": "Approval",
      "type": "event"
    },
    {
      "anonymous": false,
      "inputs": [
        {
          "indexed": true,
          "internalType": "address",
          "name": "owner",
          "type": "address"
        },
        {
          "indexed": true,
          "internalType": "address",
          "name": "operator",
          "type": "address"
        },
        {
          "indexed": false,
          "internalType": "bool",
          "name": "approved",
          "type": "bool"
        }
      ],
      "name": "ApprovalForAll",
      "type": "event"
    },
    {
      "anonymous": false,
      "inputs": [
        {
          "indexed": true,
          "internalType": "uint256",
          "name": "fromTokenId",
          "type": "uint256"
        },
        {
          "indexed": false,
          "internalType": "uint256",
          "name": "toTokenId",
          "type": "uint256"
        },
        {
          "indexed": true,
          "internalType": "address",
          "name": "from",
          "type": "address"
        },
        {
          "indexed": true,
          "internalType": "address",
          "name": "to",
          "type": "address"
        }
      ],
      "name": "ConsecutiveTransfer",
      "type": "event"
    },
    {
      "anonymous": false,
      "inputs": [
        {
          "indexed": false,
          "internalType": "address",
          "name": "mintAddress",
          "type": "address"
        },
        {
          "indexed": false,
          "internalType": "uint256",
          "name": "tokenId",
          "type": "uint256"
        }
      ],
      "name": "MintedNFT",
      "type": "event"
    },
    {
      "anonymous": false,
      "inputs": [
        {
          "indexed": true,
          "internalType": "address",
          "name": "previousOwner",
          "type": "address"
        },
        {
          "indexed": true,
          "internalType": "address",
          "name": "newOwner",
          "type": "address"
        }
      ],
      "name": "OwnershipTransferred",
      "type": "event"
    },
    {
      "anonymous": false,
      "inputs": [
        {
          "indexed": false,
          "internalType": "string",
          "name": "baseURI",
          "type": "string"
        }
      ],
      "name": "SetBaseURI",
      "type": "event"
    },
    {
      "anonymous": false,
      "inputs": [
        {
          "indexed": true,
          "internalType": "address",
          "name": "from",
          "type": "address"
        },
        {
          "indexed": true,
          "internalType": "address",
          "name": "to",
          "type": "address"
        },
        {
          "indexed": true,
          "internalType": "uint256",
          "name": "tokenId",
          "type": "uint256"
        }
      ],
      "name": "Transfer",
      "type": "event"
    },
    {
      "inputs": [
        {
          "internalType": "address",
          "name": "to",
          "type": "address"
        },
        {
          "internalType": "uint256",
          "name": "tokenId",
          "type": "uint256"
        }
      ],
      "name": "approve",
      "outputs": [],
      "stateMutability": "payable",
      "type": "function"
    },
    {
      "inputs": [
        {
          "internalType": "address",
          "name": "owner",
          "type": "address"
        }
      ],
      "name": "balanceOf",
      "outputs": [
        {
          "internalType": "uint256",
          "name": "",
          "type": "uint256"
        }
      ],
      "stateMutability": "view",
      "type": "function"
    },
    {
      "inputs": [
        {
          "internalType": "uint256",
          "name": "tokenId",
          "type": "uint256"
        }
      ],
      "name": "getApproved",
      "outputs": [
        {
          "internalType": "address",
          "name": "",
          "type": "address"
        }
      ],
      "stateMutability": "view",
      "type": "function"
    },
    {
      "inputs": [],
      "name": "getBaseURI",
      "outputs": [
        {
          "internalType": "string",
          "name": "",
          "type": "string"
        }
      ],
      "stateMutability": "view",
      "type": "function"
    },
    {
      "inputs": [
        {
          "internalType": "address",
          "name": "owner",
          "type": "address"
        },
        {
          "internalType": "address",
          "name": "operator",
          "type": "address"
        }
      ],
      "name": "isApprovedForAll",
      "outputs": [
        {
          "internalType": "bool",
          "name": "",
          "type": "bool"
        }
      ],
      "stateMutability": "view",
      "type": "function"
    },
    {
      "inputs": [
        {
          "internalType": "address",
          "name": "to",
          "type": "address"
        },
        {
          "internalType": "uint256",
          "name": "quantity",
          "type": "uint256"
        }
      ],
      "name": "mint",
      "outputs": [],
      "stateMutability": "nonpayable",
      "type": "function"
    },
    {
      "inputs": [],
      "name": "name",
      "outputs": [
        {
          "internalType": "string",
          "name": "",
          "type": "string"
        }
      ],
      "stateMutability": "view",
      "type": "function"
    },
    {
      "inputs": [],
      "name": "owner",
      "outputs": [
        {
          "internalType": "address",
          "name": "",
          "type": "address"
        }
      ],
      "stateMutability": "view",
      "type": "function"
    },
    {
      "inputs": [
        {
          "internalType": "uint256",
          "name": "tokenId",
          "type": "uint256"
        }
      ],
      "name": "ownerOf",
      "outputs": [
        {
          "internalType": "address",
          "name": "",
          "type": "address"
        }
      ],
      "stateMutability": "view",
      "type": "function"
    },
    {
      "inputs": [],
      "name": "renounceOwnership",
      "outputs": [],
      "stateMutability": "nonpayable",
      "type": "function"
    },
    {
      "inputs": [
        {
          "internalType": "uint256",
          "name": "_tokenId",
          "type": "uint256"
        },
        {
          "internalType": "uint256",
          "name": "_salePrice",
          "type": "uint256"
        }
      ],
      "name": "royaltyInfo",
      "outputs": [
        {
          "internalType": "address",
          "name": "",
          "type": "address"
        },
        {
          "internalType": "uint256",
          "name": "",
          "type": "uint256"
        }
      ],
      "stateMutability": "view",
      "type": "function"
    },
    {
      "inputs": [
        {
          "internalType": "address",
          "name": "from",
          "type": "address"
        },
        {
          "internalType": "address",
          "name": "to",
          "type": "address"
        },
        {
          "internalType": "uint256",
          "name": "tokenId",
          "type": "uint256"
        }
      ],
      "name": "safeTransferFrom",
      "outputs": [],
      "stateMutability": "payable",
      "type": "function"
    },
    {
      "inputs": [
        {
          "internalType": "address",
          "name": "from",
          "type": "address"
        },
        {
          "internalType": "address",
          "name": "to",
          "type": "address"
        },
        {
          "internalType": "uint256",
          "name": "tokenId",
          "type": "uint256"
        },
        {
          "internalType": "bytes",
          "name": "_data",
          "type": "bytes"
        }
      ],
      "name": "safeTransferFrom",
      "outputs": [],
      "stateMutability": "payable",
      "type": "function"
    },
    {
      "inputs": [
        {
          "internalType": "address",
          "name": "operator",
          "type": "address"
        },
        {
          "internalType": "bool",
          "name": "approved",
          "type": "bool"
        }
      ],
      "name": "setApprovalForAll",
      "outputs": [],
      "stateMutability": "nonpayable",
      "type": "function"
    },
    {
      "inputs": [
        {
          "internalType": "string",
          "name": "uri",
          "type": "string"
        }
      ],
      "name": "setBaseURI",
      "outputs": [],
      "stateMutability": "nonpayable",
      "type": "function"
    },
    {
      "inputs": [
        {
          "internalType": "bytes4",
          "name": "interfaceId",
          "type": "bytes4"
        }
      ],
      "name": "supportsInterface",
      "outputs": [
        {
          "internalType": "bool",
          "name": "",
          "type": "bool"
        }
      ],
      "stateMutability": "view",
      "type": "function"
    },
    {
      "inputs": [],
      "name": "symbol",
      "outputs": [
        {
          "internalType": "string",
          "name": "",
          "type": "string"
        }
      ],
      "stateMutability": "view",
      "type": "function"
    },
    {
      "inputs": [
        {
          "internalType": "uint256",
          "name": "tokenId",
          "type": "uint256"
        }
      ],
      "name": "tokenURI",
      "outputs": [
        {
          "internalType": "string",
          "name": "",
          "type": "string"
        }
      ],
      "stateMutability": "view",
      "type": "function"
    },
    {
      "inputs": [],
      "name": "totalSupply",
      "outputs": [
        {
          "internalType": "uint256",
          "name": "",
          "type": "uint256"
        }
      ],
      "stateMutability": "view",
      "type": "function"
    },
    {
      "inputs": [
        {
          "internalType": "address",
          "name": "from",
          "type": "address"
        },
        {
          "internalType": "address",
          "name": "to",
          "type": "address"
        },
        {
          "internalType": "uint256",
          "name": "tokenId",
          "type": "uint256"
        }
      ],
      "name": "transferFrom",
      "outputs": [],
      "stateMutability": "payable",
      "type": "function"
    },
    {
      "inputs": [
        {
          "internalType": "address",
          "name": "newOwner",
          "type": "address"
        }
      ],
      "name": "transferOwnership",
      "outputs": [],
      "stateMutability": "nonpayable",
      "type": "function"
    }
  ],
  "bytecode": "0x60806040523480156200001157600080fd5b506040516200183b3803806200183b833981016040819052620000349162000190565b82826002620000448382620002ac565b506003620000538282620002ac565b50506000805550620000653362000079565b620000708162000079565b50505062000378565b600a80546001600160a01b038381166001600160a01b0319831681179093556040519116919082907f8be0079c531659141344cd1fd0a4f28419497f9722a3daafe3b4186f6b6457e090600090a35050565b634e487b7160e01b600052604160045260246000fd5b600082601f830112620000f357600080fd5b81516001600160401b0380821115620001105762000110620000cb565b604051601f8301601f19908116603f011681019082821181831017156200013b576200013b620000cb565b816040528381526020925086838588010111156200015857600080fd5b600091505b838210156200017c57858201830151818301840152908201906200015d565b600093810190920192909252949350505050565b600080600060608486031215620001a657600080fd5b83516001600160401b0380821115620001be57600080fd5b620001cc87838801620000e1565b94506020860151915080821115620001e357600080fd5b50620001f286828701620000e1565b604086015190935090506001600160a01b03811681146200021257600080fd5b809150509250925092565b600181811c908216806200023257607f821691505b6020821081036200025357634e487b7160e01b600052602260045260246000fd5b50919050565b601f821115620002a757600081815260208120601f850160051c81016020861015620002825750805b601f850160051c820191505b81811015620002a3578281556001016200028e565b5050505b505050565b81516001600160401b03811115620002c857620002c8620000cb565b620002e081620002d984546200021d565b8462000259565b602080601f831160018114620003185760008415620002ff5750858301515b600019600386901b1c1916600185901b178555620002a3565b600085815260208120601f198616915b82811015620003495788860151825594840194600190910190840162000328565b5085821015620003685787850151600019600388901b60f8161c191681555b5050505050600190811b01905550565b6114b380620003886000396000f3fe60806040526004361061012a5760003560e01c80636352211e116100ab57806395d89b411161006f57806395d89b4114610323578063a22cb46514610338578063b88d4fde14610358578063c87b56dd1461036b578063e985e9c51461038b578063f2fde38b146103ab57600080fd5b80636352211e1461029b57806370a08231146102bb578063714c5398146102db578063715018a6146102f05780638da5cb5b1461030557600080fd5b806323b872dd116100f257806323b872dd146101f65780632a55205a1461020957806340c10f191461024857806342842e0e1461026857806355f804b31461027b57600080fd5b806301ffc9a71461012f57806306fdde0314610164578063081812fc14610186578063095ea7b3146101be57806318160ddd146101d3575b600080fd5b34801561013b57600080fd5b5061014f61014a366004610f12565b6103cb565b60405190151581526020015b60405180910390f35b34801561017057600080fd5b506101796103dc565b60405161015b9190610f7f565b34801561019257600080fd5b506101a66101a1366004610f92565b61046e565b6040516001600160a01b03909116815260200161015b565b6101d16101cc366004610fc7565b6104b2565b005b3480156101df57600080fd5b50600154600054035b60405190815260200161015b565b6101d1610204366004610ff1565b610552565b34801561021557600080fd5b5061022961022436600461102d565b6106eb565b604080516001600160a01b03909316835260208301919091520161015b565b34801561025457600080fd5b506101d1610263366004610fc7565b610797565b6101d1610276366004610ff1565b61086c565b34801561028757600080fd5b506101d161029636600461104f565b610887565b3480156102a757600080fd5b506101a66102b6366004610f92565b6108da565b3480156102c757600080fd5b506101e86102d63660046110c1565b6108e5565b3480156102e757600080fd5b50610179610934565b3480156102fc57600080fd5b506101d1610943565b34801561031157600080fd5b50600a546001600160a01b03166101a6565b34801561032f57600080fd5b50610179610957565b34801561034457600080fd5b506101d16103533660046110dc565b610966565b6101d161036636600461112e565b6109d2565b34801561037757600080fd5b50610179610386366004610f92565b610a1c565b34801561039757600080fd5b5061014f6103a636600461120a565b610aa0565b3480156103b757600080fd5b506101d16103c63660046110c1565b610ace565b60006103d682610b47565b92915050565b6060600280546103eb9061123d565b80601f01602080910402602001604051908101604052809291908181526020018280546104179061123d565b80156104645780601f1061043957610100808354040283529160200191610464565b820191906000526020600020905b81548152906001019060200180831161044757829003601f168201915b5050505050905090565b600061047982610b95565b610496576040516333d1c03960e21b815260040160405180910390fd5b506000908152600660205260409020546001600160a01b031690565b60006104bd826108da565b9050336001600160a01b038216146104f6576104d98133610aa0565b6104f6576040516367d9dca160e11b815260040160405180910390fd5b60008281526006602052604080822080546001600160a01b0319166001600160a01b0387811691821790925591518593918516917f8c5be1e5ebec7d5bd14f71427d1e84f3dd0314c0f7b2291e5b200ac8c7c3b92591a4505050565b600061055d82610bbc565b9050836001600160a01b0316816001600160a01b0316146105905760405162a1148160e81b815260040160405180910390fd5b60008281526006602052604090208054338082146001600160a01b038816909114176105dd576105c08633610aa0565b6105dd57604051632ce44b5f60e11b815260040160405180910390fd5b6001600160a01b03851661060457604051633a954ecd60e21b815260040160405180910390fd5b801561060f57600082555b6001600160a01b038681166000908152600560205260408082208054600019019055918716808252919020805460010190554260a01b17600160e11b17600085815260046020526040812091909155600160e11b841690036106a15760018401600081815260046020526040812054900361069f57600054811461069f5760008181526004602052604090208490555b505b83856001600160a01b0316876001600160a01b03167fddf252ad1be2c89b69c2b068fc378daa952ba7f163c4a11628f55a4df523b3ef60405160405180910390a45b505050505050565b60008281526009602090815260408083208151808301909252546001600160a01b038116808352600160a01b9091046001600160601b03169282019290925282916107605750604080518082019091526008546001600160a01b0381168252600160a01b90046001600160601b031660208201525b60208101516000906127109061077f906001600160601b031687611277565b610789919061129c565b915196919550909350505050565b61079f610c23565b6001600160a01b0382166107fa5760405162461bcd60e51b815260206004820181905260248201527f41646472657373206d757374206e6f74206265207a65726f206164647265737360448201526064015b60405180910390fd5b60006108096001546000540390565b905061271081111561085d5760405162461bcd60e51b815260206004820181905260248201527f43616e6e6f74206d696e74206d6f7265207468616e203130303030204e46547360448201526064016107f1565b6108678383610c7d565b505050565b610867838383604051806020016040528060008152506109d2565b61088f610c23565b600b61089c828483611304565b507f23c8c9488efebfd474e85a7956de6f39b17c7ab88502d42a623db2d8e382bbaa82826040516108ce9291906113c5565b60405180910390a15050565b60006103d682610bbc565b60006001600160a01b03821661090e576040516323d3ad8160e21b815260040160405180910390fd5b506001600160a01b031660009081526005602052604090205467ffffffffffffffff1690565b6060600b80546103eb9061123d565b61094b610c23565b6109556000610d7b565b565b6060600380546103eb9061123d565b3360008181526007602090815260408083206001600160a01b03871680855290835292819020805460ff191686151590811790915590519081529192917f17307eab39ab6107e8899845ad3d59bd9653f200f220920489ca2b5937696c31910160405180910390a35050565b6109dd848484610552565b6001600160a01b0383163b15610a16576109f984848484610dcd565b610a16576040516368d2bf6b60e11b815260040160405180910390fd5b50505050565b6060610a2782610b95565b610a4457604051630a14c4b560e41b815260040160405180910390fd5b6000610a4e610934565b90508051600003610a6e5760405180602001604052806000815250610a99565b80610a7884610eb8565b604051602001610a899291906113f4565b6040516020818303038152906040525b9392505050565b6001600160a01b03918216600090815260076020908152604080832093909416825291909152205460ff1690565b610ad6610c23565b6001600160a01b038116610b3b5760405162461bcd60e51b815260206004820152602660248201527f4f776e61626c653a206e6577206f776e657220697320746865207a65726f206160448201526564647265737360d01b60648201526084016107f1565b610b4481610d7b565b50565b60006301ffc9a760e01b6001600160e01b031983161480610b7857506380ac58cd60e01b6001600160e01b03198316145b806103d65750506001600160e01b031916635b5e139f60e01b1490565b60008054821080156103d6575050600090815260046020526040902054600160e01b161590565b600081600054811015610c0a5760008181526004602052604081205490600160e01b82169003610c08575b80600003610a99575060001901600081815260046020526040902054610be7565b505b604051636f96cda160e11b815260040160405180910390fd5b600a546001600160a01b031633146109555760405162461bcd60e51b815260206004820181905260248201527f4f776e61626c653a2063616c6c6572206973206e6f7420746865206f776e657260448201526064016107f1565b6000805490829003610ca25760405163b562e8dd60e01b815260040160405180910390fd5b6001600160a01b03831660008181526005602090815260408083208054680100000000000000018802019055848352600490915281206001851460e11b4260a01b178317905582840190839083907fddf252ad1be2c89b69c2b068fc378daa952ba7f163c4a11628f55a4df523b3ef8180a4600183015b818114610d5157808360007fddf252ad1be2c89b69c2b068fc378daa952ba7f163c4a11628f55a4df523b3ef600080a4600101610d19565b5081600003610d7257604051622e076360e81b815260040160405180910390fd5b60005550505050565b600a80546001600160a01b038381166001600160a01b0319831681179093556040519116919082907f8be0079c531659141344cd1fd0a4f28419497f9722a3daafe3b4186f6b6457e090600090a35050565b604051630a85bd0160e11b81526000906001600160a01b0385169063150b7a0290610e02903390899088908890600401611423565b6020604051808303816000875af1925050508015610e3d575060408051601f3d908101601f19168201909252610e3a91810190611460565b60015b610e9b573d808015610e6b576040519150601f19603f3d011682016040523d82523d6000602084013e610e70565b606091505b508051600003610e93576040516368d2bf6b60e11b815260040160405180910390fd5b805181602001fd5b6001600160e01b031916630a85bd0160e11b149050949350505050565b606060a06040510180604052602081039150506000815280825b600183039250600a81066030018353600a900480610ed25750819003601f19909101908152919050565b6001600160e01b031981168114610b4457600080fd5b600060208284031215610f2457600080fd5b8135610a9981610efc565b60005b83811015610f4a578181015183820152602001610f32565b50506000910152565b60008151808452610f6b816020860160208601610f2f565b601f01601f19169290920160200192915050565b602081526000610a996020830184610f53565b600060208284031215610fa457600080fd5b5035919050565b80356001600160a01b0381168114610fc257600080fd5b919050565b60008060408385031215610fda57600080fd5b610fe383610fab565b946020939093013593505050565b60008060006060848603121561100657600080fd5b61100f84610fab565b925061101d60208501610fab565b9150604084013590509250925092565b6000806040838503121561104057600080fd5b50508035926020909101359150565b6000806020838503121561106257600080fd5b823567ffffffffffffffff8082111561107a57600080fd5b818501915085601f83011261108e57600080fd5b81358181111561109d57600080fd5b8660208285010111156110af57600080fd5b60209290920196919550909350505050565b6000602082840312156110d357600080fd5b610a9982610fab565b600080604083850312156110ef57600080fd5b6110f883610fab565b91506020830135801515811461110d57600080fd5b809150509250929050565b634e487b7160e01b600052604160045260246000fd5b6000806000806080858703121561114457600080fd5b61114d85610fab565b935061115b60208601610fab565b925060408501359150606085013567ffffffffffffffff8082111561117f57600080fd5b818701915087601f83011261119357600080fd5b8135818111156111a5576111a5611118565b604051601f8201601f19908116603f011681019083821181831017156111cd576111cd611118565b816040528281528a60208487010111156111e657600080fd5b82602086016020830137600060208483010152809550505050505092959194509250565b6000806040838503121561121d57600080fd5b61122683610fab565b915061123460208401610fab565b90509250929050565b600181811c9082168061125157607f821691505b60208210810361127157634e487b7160e01b600052602260045260246000fd5b50919050565b80820281158282048414176103d657634e487b7160e01b600052601160045260246000fd5b6000826112b957634e487b7160e01b600052601260045260246000fd5b500490565b601f82111561086757600081815260208120601f850160051c810160208610156112e55750805b601f850160051c820191505b818110156106e3578281556001016112f1565b67ffffffffffffffff83111561131c5761131c611118565b6113308361132a835461123d565b836112be565b6000601f841160018114611364576000851561134c5750838201355b600019600387901b1c1916600186901b1783556113be565b600083815260209020601f19861690835b828110156113955786850135825560209485019460019092019101611375565b50868210156113b25760001960f88860031b161c19848701351681555b505060018560011b0183555b5050505050565b60208152816020820152818360408301376000818301604090810191909152601f909201601f19160101919050565b60008351611406818460208801610f2f565b83519083019061141a818360208801610f2f565b01949350505050565b6001600160a01b038581168252841660208201526040810183905260806060820181905260009061145690830184610f53565b9695505050505050565b60006020828403121561147257600080fd5b8151610a9981610efc56fea2646970667358221220657dee36e5b288bb2c42ac2824ddeb2b2314573b49d1d1788d7cfa89c21975f764736f6c63430008110033",
  "linkReferences": {},
  "deployedLinkReferences": {}
}