{
  "_format": "hh-sol-artifact-1",
  "contractName": "GBPrimaryCollection",
  "sourceName": "contracts/GBPrimaryCollection.sol",
  "abi": [
    {
      "inputs": [
        {
          "internalType": "string",
          "name": "name_",
          "type": "string"
        },
        {
          "internalType": "string",
          "name": "symbol_",
          "type": "string"
        },
        {
          "internalType": "address",
          "name": "owner_",
          "type": "address"
        }
      ],
      "stateMutability": "nonpayable",
      "type": "constructor"
    },
    {
      "inputs": [],
      "name": "ApprovalCallerNotOwnerNorApproved",
      "type": "error"
    },
    {
      "inputs": [],
      "name": "ApprovalQueryForNonexistentToken",
      "type": "error"
    },
    {
      "inputs": [],
      "name": "BalanceQueryForZeroAddress",
      "type": "error"
    },
    {
      "inputs": [],
      "name": "MintERC2309QuantityExceedsLimit",
      "type": "error"
    },
    {
      "inputs": [],
      "name": "MintToZeroAddress",
      "type": "error"
    },
    {
      "inputs": [],
      "name": "MintZeroQuantity",
      "type": "error"
    },
    {
      "inputs": [],
      "name": "OwnerQueryForNonexistentToken",
      "type": "error"
    },
    {
      "inputs": [],
      "name": "OwnershipNotInitializedForExtraData",
      "type": "error"
    },
    {
      "inputs": [],
      "name": "TransferCallerNotOwnerNorApproved",
      "type": "error"
    },
    {
      "inputs": [],
      "name": "TransferFromIncorrectOwner",
      "type": "error"
    },
    {
      "inputs": [],
      "name": "TransferToNonERC721ReceiverImplementer",
      "type": "error"
    },
    {
      "inputs": [],
      "name": "TransferToZeroAddress",
      "type": "error"
    },
    {
      "inputs": [],
      "name": "URIQueryForNonexistentToken",
      "type": "error"
    },
    {
      "anonymous": false,
      "inputs": [
        {
          "indexed": true,
          "internalType": "address",
          "name": "owner",
          "type": "address"
        },
        {
          "indexed": true,
          "internalType": "address",
          "name": "approved",
          "type": "address"
        },
        {
          "indexed": true,
          "internalType": "uint256",
          "name": "tokenId",
          "type": "uint256"
        }
      ],
      "name": "Approval",
      "type": "event"
    },
    {
      "anonymous": false,
      "inputs": [
        {
          "indexed": true,
          "internalType": "address",
          "name": "owner",
          "type": "address"
        },
        {
          "indexed": true,
          "internalType": "address",
          "name": "operator",
          "type": "address"
        },
        {
          "indexed": false,
          "internalType": "bool",
          "name": "approved",
          "type": "bool"
        }
      ],
      "name": "ApprovalForAll",
      "type": "event"
    },
    {
      "anonymous": false,
      "inputs": [
        {
          "indexed": true,
          "internalType": "uint256",
          "name": "fromTokenId",
          "type": "uint256"
        },
        {
          "indexed": false,
          "internalType": "uint256",
          "name": "toTokenId",
          "type": "uint256"
        },
        {
          "indexed": true,
          "internalType": "address",
          "name": "from",
          "type": "address"
        },
        {
          "indexed": true,
          "internalType": "address",
          "name": "to",
          "type": "address"
        }
      ],
      "name": "ConsecutiveTransfer",
      "type": "event"
    },
    {
      "anonymous": false,
      "inputs": [
        {
          "indexed": false,
          "internalType": "address",
          "name": "mintAddress",
          "type": "address"
        },
        {
          "indexed": false,
          "internalType": "uint256",
          "name": "tokenId",
          "type": "uint256"
        }
      ],
      "name": "MintedNFT",
      "type": "event"
    },
    {
      "anonymous": false,
      "inputs": [
        {
          "indexed": true,
          "internalType": "address",
          "name": "previousOwner",
          "type": "address"
        },
        {
          "indexed": true,
          "internalType": "address",
          "name": "newOwner",
          "type": "address"
        }
      ],
      "name": "OwnershipTransferred",
      "type": "event"
    },
    {
      "anonymous": false,
      "inputs": [
        {
          "indexed": false,
          "internalType": "string",
          "name": "baseURI",
          "type": "string"
        }
      ],
      "name": "SetBaseURI",
      "type": "event"
    },
    {
      "anonymous": false,
      "inputs": [
        {
          "indexed": true,
          "internalType": "address",
          "name": "from",
          "type": "address"
        },
        {
          "indexed": true,
          "internalType": "address",
          "name": "to",
          "type": "address"
        },
        {
          "indexed": true,
          "internalType": "uint256",
          "name": "tokenId",
          "type": "uint256"
        }
      ],
      "name": "Transfer",
      "type": "event"
    },
    {
      "inputs": [
        {
          "internalType": "address",
          "name": "to",
          "type": "address"
        },
        {
          "internalType": "uint256",
          "name": "tokenId",
          "type": "uint256"
        }
      ],
      "name": "approve",
      "outputs": [],
      "stateMutability": "payable",
      "type": "function"
    },
    {
      "inputs": [
        {
          "internalType": "address",
          "name": "owner",
          "type": "address"
        }
      ],
      "name": "balanceOf",
      "outputs": [
        {
          "internalType": "uint256",
          "name": "",
          "type": "uint256"
        }
      ],
      "stateMutability": "view",
      "type": "function"
    },
    {
      "inputs": [
        {
          "internalType": "uint256",
          "name": "tokenId",
          "type": "uint256"
        }
      ],
      "name": "getApproved",
      "outputs": [
        {
          "internalType": "address",
          "name": "",
          "type": "address"
        }
      ],
      "stateMutability": "view",
      "type": "function"
    },
    {
      "inputs": [],
      "name": "getBaseURI",
      "outputs": [
        {
          "internalType": "string",
          "name": "",
          "type": "string"
        }
      ],
      "stateMutability": "view",
      "type": "function"
    },
    {
      "inputs": [
        {
          "internalType": "address",
          "name": "owner",
          "type": "address"
        },
        {
          "internalType": "address",
          "name": "operator",
          "type": "address"
        }
      ],
      "name": "isApprovedForAll",
      "outputs": [
        {
          "internalType": "bool",
          "name": "",
          "type": "bool"
        }
      ],
      "stateMutability": "view",
      "type": "function"
    },
    {
      "inputs": [
        {
          "internalType": "address",
          "name": "to",
          "type": "address"
        },
        {
          "internalType": "uint256",
          "name": "quantity",
          "type": "uint256"
        }
      ],
      "name": "mint",
      "outputs": [],
      "stateMutability": "nonpayable",
      "type": "function"
    },
    {
      "inputs": [],
      "name": "name",
      "outputs": [
        {
          "internalType": "string",
          "name": "",
          "type": "string"
        }
      ],
      "stateMutability": "view",
      "type": "function"
    },
    {
      "inputs": [],
      "name": "owner",
      "outputs": [
        {
          "internalType": "address",
          "name": "",
          "type": "address"
        }
      ],
      "stateMutability": "view",
      "type": "function"
    },
    {
      "inputs": [
        {
          "internalType": "uint256",
          "name": "tokenId",
          "type": "uint256"
        }
      ],
      "name": "ownerOf",
      "outputs": [
        {
          "internalType": "address",
          "name": "",
          "type": "address"
        }
      ],
      "stateMutability": "view",
      "type": "function"
    },
    {
      "inputs": [],
      "name": "renounceOwnership",
      "outputs": [],
      "stateMutability": "nonpayable",
      "type": "function"
    },
    {
      "inputs": [
        {
          "internalType": "uint256",
          "name": "_tokenId",
          "type": "uint256"
        },
        {
          "internalType": "uint256",
          "name": "_salePrice",
          "type": "uint256"
        }
      ],
      "name": "royaltyInfo",
      "outputs": [
        {
          "internalType": "address",
          "name": "",
          "type": "address"
        },
        {
          "internalType": "uint256",
          "name": "",
          "type": "uint256"
        }
      ],
      "stateMutability": "view",
      "type": "function"
    },
    {
      "inputs": [
        {
          "internalType": "address",
          "name": "from",
          "type": "address"
        },
        {
          "internalType": "address",
          "name": "to",
          "type": "address"
        },
        {
          "internalType": "uint256",
          "name": "tokenId",
          "type": "uint256"
        }
      ],
      "name": "safeTransferFrom",
      "outputs": [],
      "stateMutability": "payable",
      "type": "function"
    },
    {
      "inputs": [
        {
          "internalType": "address",
          "name": "from",
          "type": "address"
        },
        {
          "internalType": "address",
          "name": "to",
          "type": "address"
        },
        {
          "internalType": "uint256",
          "name": "tokenId",
          "type": "uint256"
        },
        {
          "internalType": "bytes",
          "name": "_data",
          "type": "bytes"
        }
      ],
      "name": "safeTransferFrom",
      "outputs": [],
      "stateMutability": "payable",
      "type": "function"
    },
    {
      "inputs": [
        {
          "internalType": "address",
          "name": "operator",
          "type": "address"
        },
        {
          "internalType": "bool",
          "name": "approved",
          "type": "bool"
        }
      ],
      "name": "setApprovalForAll",
      "outputs": [],
      "stateMutability": "nonpayable",
      "type": "function"
    },
    {
      "inputs": [
        {
          "internalType": "string",
          "name": "uri",
          "type": "string"
        }
      ],
      "name": "setBaseURI",
      "outputs": [],
      "stateMutability": "nonpayable",
      "type": "function"
    },
    {
      "inputs": [
        {
          "internalType": "bytes4",
          "name": "interfaceId",
          "type": "bytes4"
        }
      ],
      "name": "supportsInterface",
      "outputs": [
        {
          "internalType": "bool",
          "name": "",
          "type": "bool"
        }
      ],
      "stateMutability": "view",
      "type": "function"
    },
    {
      "inputs": [],
      "name": "symbol",
      "outputs": [
        {
          "internalType": "string",
          "name": "",
          "type": "string"
        }
      ],
      "stateMutability": "view",
      "type": "function"
    },
    {
      "inputs": [
        {
          "internalType": "uint256",
          "name": "tokenId",
          "type": "uint256"
        }
      ],
      "name": "tokenURI",
      "outputs": [
        {
          "internalType": "string",
          "name": "",
          "type": "string"
        }
      ],
      "stateMutability": "view",
      "type": "function"
    },
    {
      "inputs": [],
      "name": "totalSupply",
      "outputs": [
        {
          "internalType": "uint256",
          "name": "",
          "type": "uint256"
        }
      ],
      "stateMutability": "view",
      "type": "function"
    },
    {
      "inputs": [
        {
          "internalType": "address",
          "name": "from",
          "type": "address"
        },
        {
          "internalType": "address",
          "name": "to",
          "type": "address"
        },
        {
          "internalType": "uint256",
          "name": "tokenId",
          "type": "uint256"
        }
      ],
      "name": "transferFrom",
      "outputs": [],
      "stateMutability": "payable",
      "type": "function"
    },
    {
      "inputs": [
        {
          "internalType": "address",
          "name": "newOwner",
          "type": "address"
        }
      ],
      "name": "transferOwnership",
      "outputs": [],
      "stateMutability": "nonpayable",
      "type": "function"
    }
  ],
  "bytecode": "0x6080604052346200033e5762001961803803806200001d8162000343565b9283398101906060818303126200033e5780516001600160401b0392908381116200033e57816200005091840162000369565b602091828401518581116200033e576040916200006f91860162000369565b930151926001600160a01b03841684036200033e578151908582116200025057600254916001938484811c9416801562000333575b868510146200022f578190601f94858111620002dc575b508690858311600114620002725760009262000266575b5050600019600383901b1c191690841b176002555b8051958611620002505760039384548481811c9116801562000245575b828210146200022f57838111620001e4575b50809287116001146200017857506200015c95926000928492836200016c575b50501b9160001990841b1c19161790555b600080556200015633620003db565b620003db565b60405161153c9081620004258239f35b01519250388062000136565b909591601f198316968560005282600020926000905b898210620001cc575050836200015c9810620001b3575b505050811b01905562000147565b015160001983861b60f8161c19169055388080620001a5565b8087859682949686015181550195019301906200018e565b856000528160002084808a0160051c820192848b1062000225575b0160051c019085905b8281106200021857505062000116565b6000815501859062000208565b92508192620001ff565b634e487b7160e01b600052602260045260246000fd5b90607f169062000104565b634e487b7160e01b600052604160045260246000fd5b015190503880620000d2565b90869350601f198316916002600052886000209260005b8a828210620002c55750508411620002ab575b505050811b01600255620000e7565b015160001960f88460031b161c191690553880806200029c565b8385015186558a9790950194938401930162000289565b9091506002600052866000208580850160051c82019289861062000329575b918891869594930160051c01915b82811062000319575050620000bb565b6000815585945088910162000309565b92508192620002fb565b93607f1693620000a4565b600080fd5b6040519190601f01601f191682016001600160401b038111838210176200025057604052565b919080601f840112156200033e5782516001600160401b03811162000250576020906200039f601f8201601f1916830162000343565b928184528282870101116200033e5760005b818110620003c757508260009394955001015290565b8581018301518482018401528201620003b1565b600a80546001600160a01b039283166001600160a01b0319821681179092559091167f8be0079c531659141344cd1fd0a4f28419497f9722a3daafe3b4186f6b6457e0600080a356fe60806040526004361015610013575b600080fd5b60003560e01c806301ffc9a7146101b757806306fdde03146101ae578063081812fc146101a5578063095ea7b31461019c57806318160ddd1461019357806323b872dd1461018a5780632a55205a1461018157806340c10f191461017857806342842e0e1461016f57806355f804b3146101665780636352211e1461015d57806370a0823114610154578063714c53981461014b578063715018a6146101425780638da5cb5b1461013957806395d89b4114610130578063a22cb46514610127578063b88d4fde1461011e578063c87b56dd14610115578063e985e9c51461010c5763f2fde38b1461010457600080fd5b61000e610d50565b5061000e610cf2565b5061000e610c24565b5061000e610b9f565b5061000e610a67565b5061000e6109bf565b5061000e610995565b5061000e610936565b5061000e610905565b5061000e6108a8565b5061000e610878565b5061000e6106ee565b5061000e6106ab565b5061000e6105d5565b5061000e61052a565b5061000e610515565b5061000e6104bc565b5061000e610404565b5061000e610383565b5061000e61029d565b5061000e6101d2565b6001600160e01b031981160361000e57565b503461000e57602036600319011261000e5760206004356101f2816101c0565b63ffffffff60e01b166301ffc9a760e01b8114908115610230575b811561021f575b506040519015158152f35b635b5e139f60e01b14905038610214565b6380ac58cd60e01b8114915061020d565b60005b8381106102545750506000910152565b8181015183820152602001610244565b9060209161027d81518092818552858086019101610241565b601f01601f1916010190565b90602061029a928181520190610264565b90565b503461000e576000806003193601126103805760405190806002546102c181610ebd565b8085529160019180831690811561035657506001146102fb575b6102f7856102eb81870382610b52565b60405191829182610289565b0390f35b9250600283527f405787fa12a823e0f2b7631cc41b3ba8828b3321ca811111fa75cd3aa3bb5ace5b82841061033e5750505081016020016102eb826102f76102db565b80546020858701810191909152909301928101610323565b8695506102f7969350602092506102eb94915060ff191682840152151560051b82010192936102db565b80fd5b503461000e57602036600319011261000e576004356103a1816110d3565b156103c6576000526006602052602060018060a01b0360406000205416604051908152f35b6040516333d1c03960e21b8152600490fd5b600435906001600160a01b038216820361000e57565b602435906001600160a01b038216820361000e57565b50604036600319011261000e576104196103d8565b6024356001600160a01b038061042e83611065565b1690813303610489575b600083815260066020526040812080546001600160a01b0319166001600160a01b0387161790559316907f8c5be1e5ebec7d5bd14f71427d1e84f3dd0314c0f7b2291e5b200ac8c7c3b9258480a480f35b600082815260076020908152604080832033845290915290205460ff16610438576040516367d9dca160e11b8152600490fd5b503461000e57600036600319011261000e5760206000546001549003604051908152f35b606090600319011261000e576001600160a01b0390600435828116810361000e5791602435908116810361000e579060443590565b50610528610522366104e0565b916110fc565b005b503461000e57604036600319011261000e5760243560043560005260096020526105576040600020610e98565b80519091906001600160a01b0316156105c5575b6bffffffffffffffffffffffff602083015116908181029181830414901517156105af579051604080516001600160a01b0390921682526127109092046020820152f35b634e487b7160e01b600052601160045260246000fd5b90506105cf610e72565b9061056b565b503461000e57604036600319011261000e576105ef6103d8565b6105f7610e1a565b6001600160a01b0381161561066757612710600054600154900311610623576105289060243590611431565b606460405162461bcd60e51b815260206004820152602060248201527f43616e6e6f74206d696e74206d6f7265207468616e203130303030204e4654736044820152fd5b606460405162461bcd60e51b815260206004820152602060248201527f41646472657373206d757374206e6f74206265207a65726f20616464726573736044820152fd5b506105286106b8366104e0565b90604051926020840184811067ffffffffffffffff8211176106e1575b604052600084526112ce565b6106e9610af6565b6106d5565b503461000e5760208060031936011261000e5767ffffffffffffffff9060043582811161000e573660238201121561000e57806004013592831161000e576024913683858401011161000e57610742610e1a565b61075684610751600b54610ebd565b610ef7565b600090601f85116001146107ca5750837f23c8c9488efebfd474e85a7956de6f39b17c7ab88502d42a623db2d8e382bbaa94846107b8936000926107bd575b50508160011b906000198360031b1c191617600b555b6040519384930183610f68565b0390a1005b8501013590508438610795565b600b60005290601f1985167f0175b7a638427703f0dbe7bb9bbf987a2551717b34e79f33b5b1008d1fa01db99282905b82821061085e5750509185917f23c8c9488efebfd474e85a7956de6f39b17c7ab88502d42a623db2d8e382bbaa966107b89410610842575b5050600181811b01600b556107ab565b8401850135600019600384901b60f8161c191690553880610832565b8060018596898395978a01013581550195019301906107fa565b503461000e57602036600319011261000e5760206001600160a01b0361089f600435611065565b16604051908152f35b503461000e57602036600319011261000e576001600160a01b036108ca6103d8565b1680156108f3576000526005602052602067ffffffffffffffff60406000205416604051908152f35b6040516323d3ad8160e21b8152600490fd5b503461000e57600036600319011261000e576102f7610922610f90565b604051918291602083526020830190610264565b503461000e5760008060031936011261038057610951610e1a565b600a80546001600160a01b0319811690915581906001600160a01b03167f8be0079c531659141344cd1fd0a4f28419497f9722a3daafe3b4186f6b6457e08280a380f35b503461000e57600036600319011261000e57600a546040516001600160a01b039091168152602090f35b503461000e576000806003193601126103805760405190806003546109e381610ebd565b808552916001918083169081156103565750600114610a0c576102f7856102eb81870382610b52565b9250600383527fc2575a0e9e593c00f959f8c92f12db2869c3395a3b0502d05e2516446f71f85b5b828410610a4f5750505081016020016102eb826102f76102db565b80546020858701810191909152909301928101610a34565b503461000e57604036600319011261000e57610a816103d8565b6024359081151580920361000e573360009081526007602090815260408083206001600160a01b0385168452909152902060ff1981541660ff841617905560405191825260018060a01b0316907f17307eab39ab6107e8899845ad3d59bd9653f200f220920489ca2b5937696c3160203392a3005b50634e487b7160e01b600052604160045260246000fd5b6040810190811067ffffffffffffffff821117610b2957604052565b610b31610af6565b604052565b6020810190811067ffffffffffffffff821117610b2957604052565b90601f8019910116810190811067ffffffffffffffff821117610b2957604052565b60209067ffffffffffffffff8111610b92575b601f01601f19160190565b610b9a610af6565b610b87565b50608036600319011261000e57610bb46103d8565b610bbc6103ee565b6064359167ffffffffffffffff831161000e573660238401121561000e57826004013591610be983610b74565b92610bf76040519485610b52565b808452366024828701011161000e57602081600092602461052898018388013785010152604435916112ce565b503461000e57602036600319011261000e57600435610c42816110d3565b15610ce057610c4f610f90565b805160009015610cc6575060405160a08101604052608081019260008452925b6000190192600a906030828206018553049283610c6f576102f79350610cb492610cba6102eb936080601f19948581019203018152604051958693602085019061104e565b9061104e565b03908101835282610b52565b6040516102f793509150610cd982610b36565b81526102eb565b604051630a14c4b560e41b8152600490fd5b503461000e57604036600319011261000e57602060ff610d44610d136103d8565b610d1b6103ee565b6001600160a01b0391821660009081526007865260408082209290931681526020919091522090565b54166040519015158152f35b503461000e57602036600319011261000e57610d6a6103d8565b610d72610e1a565b6001600160a01b03908116908115610dc657600a54826bffffffffffffffffffffffff60a01b821617600a55167f8be0079c531659141344cd1fd0a4f28419497f9722a3daafe3b4186f6b6457e0600080a3005b60405162461bcd60e51b815260206004820152602660248201527f4f776e61626c653a206e6577206f776e657220697320746865207a65726f206160448201526564647265737360d01b6064820152608490fd5b600a546001600160a01b03163303610e2e57565b606460405162461bcd60e51b815260206004820152602060248201527f4f776e61626c653a2063616c6c6572206973206e6f7420746865206f776e65726044820152fd5b60405190610e7f82610b0d565b6008546001600160a01b038116835260a01c6020830152565b90604051610ea581610b0d565b91546001600160a01b038116835260a01c6020830152565b90600182811c92168015610eed575b6020831014610ed757565b634e487b7160e01b600052602260045260246000fd5b91607f1691610ecc565b601f8111610f03575050565b600090600b82527f0175b7a638427703f0dbe7bb9bbf987a2551717b34e79f33b5b1008d1fa01db9906020601f850160051c83019410610f5e575b601f0160051c01915b828110610f5357505050565b818155600101610f47565b9092508290610f3e565b90918060409360208452816020850152848401376000828201840152601f01601f1916010190565b60405190600082600b5491610fa483610ebd565b8083529260019081811690811561102c5750600114610fcd575b50610fcb92500383610b52565b565b600b600090815291507f0175b7a638427703f0dbe7bb9bbf987a2551717b34e79f33b5b1008d1fa01db95b8483106110115750610fcb935050810160200138610fbe565b81935090816020925483858a01015201910190918592610ff8565b905060209250610fcb94915060ff191682840152151560051b82010138610fbe565b9061106160209282815194859201610241565b0190565b60008181548110611083575b604051636f96cda160e11b8152600490fd5b81526004906020918083526040928383205494600160e01b8616156110aa57505050611071565b93929190935b85156110be57505050505090565b600019018083528185528383205495506110b0565b600054811090816110e2575090565b90506000526004602052600160e01b604060002054161590565b9061110683611065565b6001600160a01b03838116928282168490036112bd5760008681526006602052604090208054909261114b6001600160a01b03881633908114908414171590565b1590565b611262575b8216958615611250576111a39361118192611246575b506001600160a01b0316600090815260056020526040902090565b80546000190190556001600160a01b0316600090815260056020526040902090565b80546001019055600160e11b804260a01b8517176111cb866000526004602052604060002090565b558116156111fc575b507fddf252ad1be2c89b69c2b068fc378daa952ba7f163c4a11628f55a4df523b3ef600080a4565b60018401611214816000526004602052604060002090565b5415611221575b506111d4565b600054811461121b5761123e906000526004602052604060002090565b55388061121b565b6000905538611166565b604051633a954ecd60e21b8152600490fd5b6112a661114761129f336112888b60018060a01b03166000526007602052604060002090565b9060018060a01b0316600052602052604060002090565b5460ff1690565b1561115057604051632ce44b5f60e11b8152600490fd5b60405162a1148160e81b8152600490fd5b9291906112dc8282866110fc565b803b6112e9575b50505050565b6112f293611388565b1561130057388080806112e3565b6040516368d2bf6b60e11b8152600490fd5b9081602091031261000e575161029a816101c0565b6001600160a01b03918216815291166020820152604081019190915260806060820181905261029a92910190610264565b3d15611383573d9061136982610b74565b916113776040519384610b52565b82523d6000602084013e565b606090565b926020916113b1936000604051809681958294630a85bd0160e11b9a8b85523360048601611327565b03926001600160a01b03165af160009181611401575b506113f3576113d4611358565b805190816113ee576040516368d2bf6b60e11b8152600490fd5b602001fd5b6001600160e01b0319161490565b61142391925060203d811161142a575b61141b8183610b52565b810190611312565b90386113c7565b503d611411565b9060009081549281156114f4576001600160a01b0381166000908152600560205260409020805468010000000000000001840201905560008481526004602052604090206001600160a01b03909116916001914260a01b83831460e11b1784179055840193817fddf252ad1be2c89b69c2b068fc378daa952ba7f163c4a11628f55a4df523b3ef91808587858180a4015b8581036114e557505050156114d45755565b604051622e076360e81b8152600490fd5b8083918587858180a4016114c2565b60405163b562e8dd60e01b8152600490fdfea264697066735822122041f3aff7650592f3b94c46661162318b01858c707c316d548b7633bad11ca08064736f6c63430008110033",
  "linkReferences": {},
  "deployedLinkReferences": {}
}