{
  "_format": "hh-sol-artifact-1",
  "contractName": "Domain",
  "sourceName": "contracts/library/Domain.sol",
  "abi": [
    {
      "inputs": [],
      "name": "ADD_SINGLE_ITEM_TYPEHASH",
      "outputs": [
        {
          "internalType": "bytes32",
          "name": "",
          "type": "bytes32"
        }
      ],
      "stateMutability": "view",
      "type": "function"
    },
    {
      "inputs": [],
      "name": "BUY_ITEM_TYPEHASH",
      "outputs": [
        {
          "internalType": "bytes32",
          "name": "",
          "type": "bytes32"
        }
      ],
      "stateMutability": "view",
      "type": "function"
    },
    {
      "inputs": [],
      "name": "UPDATE_TOKENURI_TYPEHASH",
      "outputs": [
        {
          "internalType": "bytes32",
          "name": "",
          "type": "bytes32"
        }
      ],
      "stateMutability": "view",
      "type": "function"
    }
  ],
  "bytecode": "0x61010661003a600b82828239805160001a60731461002d57634e487b7160e01b600052600060045260246000fd5b30600052607381538281f3fe730000000000000000000000000000000000000000301460806040526004361060475760003560e01c80634543218214604c578063cee4d50a146084578063e7e89c7d1460aa575b600080fd5b60727f17267e3c9a41fdc4878f6c57751034dfbbf7febe7592905bfe881b17e566ed2b81565b60405190815260200160405180910390f35b60727f485787466c6bb756e23877696afb1ffef4d4f7daa150be930943445b9efd5abc81565b60727fd7414a21ae7fe6c7ae7ba4fc193977b266778b52f64e202866e96f1d30267f7f8156fea26469706673582212202a8e892df084bcc56934006bcf6a059a3df762bb8eeb31cdcb2d25834615811864736f6c63430008110033",
  "linkReferences": {},
  "deployedLinkReferences": {}
}