{
  "_format": "hh-sol-artifact-1",
  "contractName": "Domain",
  "sourceName": "contracts/library/Domain.sol",
  "abi": [
    {
      "inputs": [],
      "name": "ORDER_ITEM_TYPEHASH",
      "outputs": [
        {
          "internalType": "bytes32",
          "name": "",
          "type": "bytes32"
        }
      ],
      "stateMutability": "view",
      "type": "function"
    }
  ],
  "bytecode": "0x608080604052346018576094908161001e823930815050f35b600080fdfe6080806040526004361015601257600080fd5b60003560e01c63b96aeab114602657600080fd5b6000366003190112605957807f51a2c7a72ca7ccbf8ee583e8eeaede48c40bfd027939c3cbd4f474227d6b059a60209252f35b600080fdfea26469706673582212203b5175d09cda0dc75d6f3614bf5c38cb97e93bb8f5a826e43ac201452efa6aaf64736f6c63430008110033",
  "linkReferences": {},
  "deployedLinkReferences": {}
}