{
  "_format": "hh-sol-artifact-1",
  "contractName": "Domain",
  "sourceName": "contracts/library/Domain.sol",
  "abi": [
    {
      "inputs": [],
      "name": "ORDER_ITEM_TYPEHASH",
      "outputs": [
        {
          "internalType": "bytes32",
          "name": "",
          "type": "bytes32"
        }
      ],
      "stateMutability": "view",
      "type": "function"
    }
  ],
  "bytecode": "0x60a6610038600b82828239805160001a607314602b57634e487b7160e01b600052600060045260246000fd5b30600052607381538281f3fe730000000000000000000000000000000000000000301460806040526004361060335760003560e01c8063b96aeab1146038575b600080fd5b605e7feff405bb0a78706e059b96d98cf8097c37ba430ba5998157d907b89c96b953eb81565b60405190815260200160405180910390f3fea2646970667358221220063fb336a0129c4a1ef7b9c2cd2a1321a24dcfcbf5a1ce2f351132029c1bf86064736f6c63430008110033",
  "linkReferences": {},
  "deployedLinkReferences": {}
}