{
  "_format": "hh-sol-artifact-1",
  "contractName": "GBMarketplace",
  "sourceName": "contracts/GBMarketplace.sol",
  "abi": [
    {
      "inputs": [
        {
          "internalType": "address",
          "name": "owner",
          "type": "address"
        },
        {
          "internalType": "address",
          "name": "verifyRoleAddress",
          "type": "address"
        },
        {
          "internalType": "address",
          "name": "adminWallet_",
          "type": "address"
        }
      ],
      "stateMutability": "nonpayable",
      "type": "constructor"
    },
    {
      "anonymous": false,
      "inputs": [
        {
          "indexed": false,
          "internalType": "address",
          "name": "collection",
          "type": "address"
        },
        {
          "indexed": false,
          "internalType": "address",
          "name": "from",
          "type": "address"
        },
        {
          "indexed": false,
          "internalType": "uint256[]",
          "name": "tokenIds",
          "type": "uint256[]"
        },
        {
          "indexed": false,
          "internalType": "string[]",
          "name": "tokenURIs",
          "type": "string[]"
        },
        {
          "indexed": false,
          "internalType": "uint96",
          "name": "royaltyFee",
          "type": "uint96"
        },
        {
          "indexed": false,
          "internalType": "address",
          "name": "artistAddress",
          "type": "address"
        },
        {
          "indexed": false,
          "internalType": "uint256",
          "name": "timestamp",
          "type": "uint256"
        }
      ],
      "name": "AddedMultiplePrimaryItems",
      "type": "event"
    },
    {
      "anonymous": false,
      "inputs": [
        {
          "indexed": false,
          "internalType": "address",
          "name": "collection",
          "type": "address"
        },
        {
          "indexed": false,
          "internalType": "address",
          "name": "from",
          "type": "address"
        },
        {
          "indexed": false,
          "internalType": "uint256",
          "name": "tokenId",
          "type": "uint256"
        },
        {
          "indexed": false,
          "internalType": "string",
          "name": "tokenURI",
          "type": "string"
        },
        {
          "indexed": false,
          "internalType": "uint96",
          "name": "royaltyFee",
          "type": "uint96"
        },
        {
          "indexed": false,
          "internalType": "uint256",
          "name": "timestamp",
          "type": "uint256"
        }
      ],
      "name": "AddedSingleItem",
      "type": "event"
    },
    {
      "anonymous": false,
      "inputs": [
        {
          "components": [
            {
              "internalType": "address",
              "name": "account",
              "type": "address"
            },
            {
              "internalType": "address",
              "name": "collection",
              "type": "address"
            },
            {
              "internalType": "address",
              "name": "seller",
              "type": "address"
            },
            {
              "internalType": "uint256",
              "name": "tokenId",
              "type": "uint256"
            },
            {
              "internalType": "uint256",
              "name": "itemPrice",
              "type": "uint256"
            },
            {
              "internalType": "uint256",
              "name": "additionalPrice",
              "type": "uint256"
            },
            {
              "internalType": "address",
              "name": "charityAddress",
              "type": "address"
            },
            {
              "internalType": "uint96",
              "name": "charityFee",
              "type": "uint96"
            },
            {
              "internalType": "uint256",
              "name": "deadline",
              "type": "uint256"
            }
          ],
          "indexed": false,
          "internalType": "struct Domain.BuyItem",
          "name": "item",
          "type": "tuple"
        },
        {
          "indexed": false,
          "internalType": "uint256",
          "name": "timestamp",
          "type": "uint256"
        }
      ],
      "name": "BoughtItem",
      "type": "event"
    },
    {
      "anonymous": false,
      "inputs": [
        {
          "indexed": false,
          "internalType": "address",
          "name": "account",
          "type": "address"
        }
      ],
      "name": "Paused",
      "type": "event"
    },
    {
      "anonymous": false,
      "inputs": [
        {
          "indexed": true,
          "internalType": "bytes32",
          "name": "role",
          "type": "bytes32"
        },
        {
          "indexed": true,
          "internalType": "bytes32",
          "name": "previousAdminRole",
          "type": "bytes32"
        },
        {
          "indexed": true,
          "internalType": "bytes32",
          "name": "newAdminRole",
          "type": "bytes32"
        }
      ],
      "name": "RoleAdminChanged",
      "type": "event"
    },
    {
      "anonymous": false,
      "inputs": [
        {
          "indexed": true,
          "internalType": "bytes32",
          "name": "role",
          "type": "bytes32"
        },
        {
          "indexed": true,
          "internalType": "address",
          "name": "account",
          "type": "address"
        },
        {
          "indexed": true,
          "internalType": "address",
          "name": "sender",
          "type": "address"
        }
      ],
      "name": "RoleGranted",
      "type": "event"
    },
    {
      "anonymous": false,
      "inputs": [
        {
          "indexed": true,
          "internalType": "bytes32",
          "name": "role",
          "type": "bytes32"
        },
        {
          "indexed": true,
          "internalType": "address",
          "name": "account",
          "type": "address"
        },
        {
          "indexed": true,
          "internalType": "address",
          "name": "sender",
          "type": "address"
        }
      ],
      "name": "RoleRevoked",
      "type": "event"
    },
    {
      "anonymous": false,
      "inputs": [
        {
          "indexed": false,
          "internalType": "address",
          "name": "account",
          "type": "address"
        }
      ],
      "name": "SetAdminWallet",
      "type": "event"
    },
    {
      "anonymous": false,
      "inputs": [
        {
          "indexed": false,
          "internalType": "address",
          "name": "collectionAddress",
          "type": "address"
        },
        {
          "indexed": false,
          "internalType": "bool",
          "name": "status",
          "type": "bool"
        }
      ],
      "name": "SetCollectionAddress",
      "type": "event"
    },
    {
      "anonymous": false,
      "inputs": [
        {
          "indexed": false,
          "internalType": "uint96",
          "name": "platformFee",
          "type": "uint96"
        }
      ],
      "name": "SetPlatformFee",
      "type": "event"
    },
    {
      "anonymous": false,
      "inputs": [
        {
          "indexed": false,
          "internalType": "address",
          "name": "verifyRoleAddress",
          "type": "address"
        }
      ],
      "name": "SetVerifyRole",
      "type": "event"
    },
    {
      "anonymous": false,
      "inputs": [
        {
          "indexed": false,
          "internalType": "address",
          "name": "account",
          "type": "address"
        }
      ],
      "name": "Unpaused",
      "type": "event"
    },
    {
      "anonymous": false,
      "inputs": [
        {
          "indexed": false,
          "internalType": "address",
          "name": "collection",
          "type": "address"
        },
        {
          "indexed": false,
          "internalType": "address",
          "name": "from",
          "type": "address"
        },
        {
          "indexed": false,
          "internalType": "uint256",
          "name": "tokenId",
          "type": "uint256"
        },
        {
          "indexed": false,
          "internalType": "string",
          "name": "tokenURI",
          "type": "string"
        },
        {
          "indexed": false,
          "internalType": "uint256",
          "name": "timestamp",
          "type": "uint256"
        }
      ],
      "name": "UpdatedTokenURI",
      "type": "event"
    },
    {
      "inputs": [],
      "name": "DEFAULT_ADMIN_ROLE",
      "outputs": [
        {
          "internalType": "bytes32",
          "name": "",
          "type": "bytes32"
        }
      ],
      "stateMutability": "view",
      "type": "function"
    },
    {
      "inputs": [],
      "name": "VERIFY_ROLE",
      "outputs": [
        {
          "internalType": "bytes32",
          "name": "",
          "type": "bytes32"
        }
      ],
      "stateMutability": "view",
      "type": "function"
    },
    {
      "inputs": [
        {
          "internalType": "address",
          "name": "collection",
          "type": "address"
        },
        {
          "internalType": "uint256[]",
          "name": "tokenIds",
          "type": "uint256[]"
        },
        {
          "internalType": "uint96",
          "name": "royaltyFee",
          "type": "uint96"
        },
        {
          "internalType": "string[]",
          "name": "tokenURIs",
          "type": "string[]"
        },
        {
          "internalType": "address",
          "name": "artistAddress",
          "type": "address"
        }
      ],
      "name": "addPrimaryMultipleItems",
      "outputs": [],
      "stateMutability": "nonpayable",
      "type": "function"
    },
    {
      "inputs": [
        {
          "components": [
            {
              "internalType": "address",
              "name": "account",
              "type": "address"
            },
            {
              "internalType": "address",
              "name": "collection",
              "type": "address"
            },
            {
              "internalType": "uint256",
              "name": "tokenId",
              "type": "uint256"
            },
            {
              "internalType": "uint96",
              "name": "royaltyFee",
              "type": "uint96"
            },
            {
              "internalType": "string",
              "name": "tokenURI",
              "type": "string"
            },
            {
              "internalType": "uint256",
              "name": "deadline",
              "type": "uint256"
            }
          ],
          "internalType": "struct Domain.AddSingleItem",
          "name": "item",
          "type": "tuple"
        },
        {
          "internalType": "bytes",
          "name": "signature",
          "type": "bytes"
        }
      ],
      "name": "addSingleItem",
      "outputs": [],
      "stateMutability": "nonpayable",
      "type": "function"
    },
    {
      "inputs": [
        {
          "components": [
            {
              "internalType": "address",
              "name": "account",
              "type": "address"
            },
            {
              "internalType": "address",
              "name": "collection",
              "type": "address"
            },
            {
              "internalType": "address",
              "name": "seller",
              "type": "address"
            },
            {
              "internalType": "uint256",
              "name": "tokenId",
              "type": "uint256"
            },
            {
              "internalType": "uint256",
              "name": "itemPrice",
              "type": "uint256"
            },
            {
              "internalType": "uint256",
              "name": "additionalPrice",
              "type": "uint256"
            },
            {
              "internalType": "address",
              "name": "charityAddress",
              "type": "address"
            },
            {
              "internalType": "uint96",
              "name": "charityFee",
              "type": "uint96"
            },
            {
              "internalType": "uint256",
              "name": "deadline",
              "type": "uint256"
            }
          ],
          "internalType": "struct Domain.BuyItem",
          "name": "item",
          "type": "tuple"
        },
        {
          "internalType": "bytes",
          "name": "signature",
          "type": "bytes"
        }
      ],
      "name": "buyItem",
      "outputs": [],
      "stateMutability": "payable",
      "type": "function"
    },
    {
      "inputs": [
        {
          "internalType": "address",
          "name": "",
          "type": "address"
        }
      ],
      "name": "gbCollection",
      "outputs": [
        {
          "internalType": "bool",
          "name": "",
          "type": "bool"
        }
      ],
      "stateMutability": "view",
      "type": "function"
    },
    {
      "inputs": [
        {
          "internalType": "bytes32",
          "name": "role",
          "type": "bytes32"
        }
      ],
      "name": "getRoleAdmin",
      "outputs": [
        {
          "internalType": "bytes32",
          "name": "",
          "type": "bytes32"
        }
      ],
      "stateMutability": "view",
      "type": "function"
    },
    {
      "inputs": [
        {
          "internalType": "bytes32",
          "name": "role",
          "type": "bytes32"
        },
        {
          "internalType": "address",
          "name": "account",
          "type": "address"
        }
      ],
      "name": "grantRole",
      "outputs": [],
      "stateMutability": "nonpayable",
      "type": "function"
    },
    {
      "inputs": [
        {
          "internalType": "bytes32",
          "name": "role",
          "type": "bytes32"
        },
        {
          "internalType": "address",
          "name": "account",
          "type": "address"
        }
      ],
      "name": "hasRole",
      "outputs": [
        {
          "internalType": "bool",
          "name": "",
          "type": "bool"
        }
      ],
      "stateMutability": "view",
      "type": "function"
    },
    {
      "inputs": [
        {
          "internalType": "address",
          "name": "",
          "type": "address"
        },
        {
          "internalType": "uint256",
          "name": "",
          "type": "uint256"
        }
      ],
      "name": "itemInfo",
      "outputs": [
        {
          "internalType": "address",
          "name": "royaltyAddress",
          "type": "address"
        },
        {
          "internalType": "uint96",
          "name": "royaltyFee",
          "type": "uint96"
        },
        {
          "internalType": "bool",
          "name": "isPrimaryCollection",
          "type": "bool"
        }
      ],
      "stateMutability": "view",
      "type": "function"
    },
    {
      "inputs": [
        {
          "internalType": "address",
          "name": "",
          "type": "address"
        }
      ],
      "name": "nonces",
      "outputs": [
        {
          "internalType": "uint256",
          "name": "",
          "type": "uint256"
        }
      ],
      "stateMutability": "view",
      "type": "function"
    },
    {
      "inputs": [],
      "name": "pause",
      "outputs": [],
      "stateMutability": "nonpayable",
      "type": "function"
    },
    {
      "inputs": [],
      "name": "paused",
      "outputs": [
        {
          "internalType": "bool",
          "name": "",
          "type": "bool"
        }
      ],
      "stateMutability": "view",
      "type": "function"
    },
    {
      "inputs": [],
      "name": "platformFee",
      "outputs": [
        {
          "internalType": "uint96",
          "name": "",
          "type": "uint96"
        }
      ],
      "stateMutability": "view",
      "type": "function"
    },
    {
      "inputs": [
        {
          "internalType": "bytes32",
          "name": "role",
          "type": "bytes32"
        },
        {
          "internalType": "address",
          "name": "account",
          "type": "address"
        }
      ],
      "name": "renounceRole",
      "outputs": [],
      "stateMutability": "nonpayable",
      "type": "function"
    },
    {
      "inputs": [
        {
          "internalType": "bytes32",
          "name": "role",
          "type": "bytes32"
        },
        {
          "internalType": "address",
          "name": "account",
          "type": "address"
        }
      ],
      "name": "revokeRole",
      "outputs": [],
      "stateMutability": "nonpayable",
      "type": "function"
    },
    {
      "inputs": [
        {
          "internalType": "address",
          "name": "adminWallet_",
          "type": "address"
        }
      ],
      "name": "setAdminWallet",
      "outputs": [],
      "stateMutability": "nonpayable",
      "type": "function"
    },
    {
      "inputs": [
        {
          "internalType": "address",
          "name": "collectionAddress",
          "type": "address"
        },
        {
          "internalType": "bool",
          "name": "isCollection",
          "type": "bool"
        }
      ],
      "name": "setGBCollectionAddress",
      "outputs": [],
      "stateMutability": "nonpayable",
      "type": "function"
    },
    {
      "inputs": [
        {
          "internalType": "uint96",
          "name": "platformFee_",
          "type": "uint96"
        }
      ],
      "name": "setPlatformFee",
      "outputs": [],
      "stateMutability": "nonpayable",
      "type": "function"
    },
    {
      "inputs": [
        {
          "internalType": "address",
          "name": "verifyRoleAddress",
          "type": "address"
        }
      ],
      "name": "setVerifyRole",
      "outputs": [],
      "stateMutability": "nonpayable",
      "type": "function"
    },
    {
      "inputs": [
        {
          "internalType": "bytes4",
          "name": "interfaceId",
          "type": "bytes4"
        }
      ],
      "name": "supportsInterface",
      "outputs": [
        {
          "internalType": "bool",
          "name": "",
          "type": "bool"
        }
      ],
      "stateMutability": "view",
      "type": "function"
    },
    {
      "inputs": [],
      "name": "unpause",
      "outputs": [],
      "stateMutability": "nonpayable",
      "type": "function"
    },
    {
      "inputs": [
        {
          "components": [
            {
              "internalType": "address",
              "name": "account",
              "type": "address"
            },
            {
              "internalType": "address",
              "name": "collection",
              "type": "address"
            },
            {
              "internalType": "uint256",
              "name": "tokenId",
              "type": "uint256"
            },
            {
              "internalType": "string",
              "name": "tokenURI",
              "type": "string"
            },
            {
              "internalType": "uint256",
              "name": "deadline",
              "type": "uint256"
            }
          ],
          "internalType": "struct Domain.UpdateTokenURI",
          "name": "tokenUriInfo",
          "type": "tuple"
        },
        {
          "internalType": "bytes",
          "name": "signature",
          "type": "bytes"
        }
      ],
      "name": "updateTokenURI",
      "outputs": [],
      "stateMutability": "nonpayable",
      "type": "function"
    }
  ],
  "bytecode": "0x610140604052600680546001600160a01b0316607d60a11b1790553480156200002757600080fd5b5060405162003540380380620035408339810160408190526200004a916200027d565b604080518082018252600d81526c47424d61726b6574706c61636560981b6020808301918252835180850190945260058452640312e302e360dc1b908401528151902060e08190527f06c015bd22b4c69690933c1058878ebdfef31f9aaae40bbe86d8a09fe1b2972c6101008190524660a0529192917f8b73c3c69bb8fe3d512ecc4cf759cc79239f7b179b0ffacaa9a75d522b39400f620001318184846040805160208101859052908101839052606081018290524660808201523060a082015260009060c0016040516020818303038152906040528051906020012090509392505050565b6080523060c0526101205250506001805550506002805460ff191690556200015b600084620001b0565b620001877fd262a1e181ec035692bcc8c920b971bccc173d5263f104f91c1561b5033679dd83620001b0565b600680546001600160a01b0319166001600160a01b039290921691909117905550620002c79050565b620001bc8282620001c0565b5050565b6000828152602081815260408083206001600160a01b038516845290915290205460ff16620001bc576000828152602081815260408083206001600160a01b03851684529091529020805460ff191660011790556200021c3390565b6001600160a01b0316816001600160a01b0316837f2f8788117e7eff1d82e926ec794901d17c78024a50270940304540a733656f0d60405160405180910390a45050565b80516001600160a01b03811681146200027857600080fd5b919050565b6000806000606084860312156200029357600080fd5b6200029e8462000260565b9250620002ae6020850162000260565b9150620002be6040850162000260565b90509250925092565b60805160a05160c05160e05161010051610120516132296200031760003960006121390152600061218801526000612163015260006120bc015260006120e60152600061211001526132296000f3fe6080604052600436106101405760003560e01c80638456cb59116100b6578063b5bb4ec81161006f578063b5bb4ec81461040d578063c46f23f41461042d578063d41d0e5c1461044d578063d547741f14610481578063e20c7153146104a1578063f99e5dbb146104c157600080fd5b80638456cb59146103605780638cac56d91461037557806390bb447f1461038857806391d14854146103b857806394ae3881146103d8578063a217fddf146103f857600080fd5b8063350829331161010857806335082933146102a657806336568abe146102c65780633f4ba83a146102e65780635c975abb146102fb57806364ce6f79146103135780637ecebe001461033357600080fd5b806301ffc9a7146101455780631cdaab671461017a578063248a9ca31461020757806326232a2e146102455780632f2ff15d14610284575b600080fd5b34801561015157600080fd5b506101656101603660046126a5565b6104e1565b60405190151581526020015b60405180910390f35b34801561018657600080fd5b506101d86101953660046126f4565b6005602090815260009283526040808420909152908252902080546001909101546001600160a01b03821691600160a01b90046001600160601b03169060ff1683565b604080516001600160a01b0390941684526001600160601b039092166020840152151590820152606001610171565b34801561021357600080fd5b50610237610222366004612720565b60009081526020819052604090206001015490565b604051908152602001610171565b34801561025157600080fd5b5060065461026c90600160a01b90046001600160601b031681565b6040516001600160601b039091168152602001610171565b34801561029057600080fd5b506102a461029f366004612739565b6104f2565b005b3480156102b257600080fd5b506102a46102c1366004612769565b61051c565b3480156102d257600080fd5b506102a46102e1366004612739565b6105ed565b3480156102f257600080fd5b506102a461066b565b34801561030757600080fd5b5060025460ff16610165565b34801561031f57600080fd5b506102a461032e366004612829565b610681565b34801561033f57600080fd5b5061023761034e366004612769565b60046020526000908152604090205481565b34801561036c57600080fd5b506102a46109bd565b6102a4610383366004612895565b6109d0565b34801561039457600080fd5b506101656103a3366004612769565b60036020526000908152604090205460ff1681565b3480156103c457600080fd5b506101656103d3366004612739565b61114b565b3480156103e457600080fd5b506102a46103f336600461293f565b611174565b34801561040457600080fd5b50610237600081565b34801561041957600080fd5b506102a46104283660046129e9565b6114e1565b34801561043957600080fd5b506102a4610448366004612769565b6117fe565b34801561045957600080fd5b506102377fd262a1e181ec035692bcc8c920b971bccc173d5263f104f91c1561b5033679dd81565b34801561048d57600080fd5b506102a461049c366004612739565b6118d6565b3480156104ad57600080fd5b506102a46104bc366004612a28565b6118fb565b3480156104cd57600080fd5b506102a46104dc366004612a5b565b6119d6565b60006104ec82611a9e565b92915050565b60008281526020819052604090206001015461050d81611ad3565b6105178383611add565b505050565b600061052781611ad3565b6001600160a01b0382166105975760405162461bcd60e51b815260206004820152602c60248201527f61646d696e57616c6c65742061646472657373206d757374206e6f742062652060448201526b7a65726f206164647265737360a01b60648201526084015b60405180910390fd5b600680546001600160a01b0319166001600160a01b0384169081179091556040519081527f1b651cfd0a3f185590087e7e632381434dfada46f037b9081264f9f5bdbfcd9b906020015b60405180910390a15050565b6001600160a01b038116331461065d5760405162461bcd60e51b815260206004820152602f60248201527f416363657373436f6e74726f6c3a2063616e206f6e6c792072656e6f756e636560448201526e103937b632b9903337b91039b2b63360891b606482015260840161058e565b6106678282611b61565b5050565b600061067681611ad3565b61067e611bc6565b50565b6002600154036106a35760405162461bcd60e51b815260040161058e90612a76565b60026001556106b0611c18565b60006106c26040840160208501612769565b6001600160a01b0316036106e85760405162461bcd60e51b815260040161058e90612aad565b600082604001351161070c5760405162461bcd60e51b815260040161058e90612b0a565b600360006107206040850160208601612769565b6001600160a01b0316815260208101919091526040016000205460ff166107595760405162461bcd60e51b815260040161058e90612b5a565b816080013542111561077d5760405162461bcd60e51b815260040161058e90612ba3565b336000908152600460205260409020546107a86107a261079d8584611c60565b611ced565b83611d00565b6107c45760405162461bcd60e51b815260040161058e90612bd8565b336107d56040850160208601612769565b6001600160a01b0316636352211e85604001356040518263ffffffff1660e01b815260040161080691815260200190565b602060405180830381865afa158015610823573d6000803e3d6000fd5b505050506040513d601f19601f820116820180604052508101906108479190612c03565b6001600160a01b0316146108bb5760405162461bcd60e51b815260206004820152603560248201527f47424d61726b6574706c6163653a204f6e6c79204e4654206f776e65722063616044820152746e20757064617465206368617269747920696e666f60581b606482015260840161058e565b33600090815260046020908152604091829020805460010190556108e3918501908501612769565b6001600160a01b031663162094c460408501356109036060870187612c20565b6040518463ffffffff1660e01b815260040161092193929190612c90565b600060405180830381600087803b15801561093b57600080fd5b505af115801561094f573d6000803e3d6000fd5b507fe1f839c4aeae0043e808cd49b4b7ab926266154dfc7cd789334663e78fee2f7692506109869150506040850160208601612769565b3360408601356109996060880188612c20565b426040516109ac96959493929190612cb3565b60405180910390a150506001805550565b60006109c881611ad3565b61067e611d37565b6002600154036109f25760405162461bcd60e51b815260040161058e90612a76565b60026001556109ff611c18565b6000610a116040840160208501612769565b6001600160a01b031603610a375760405162461bcd60e51b815260040161058e90612aad565b610a476060830160408401612769565b6001600160a01b03163b15610ac45760405162461bcd60e51b815260206004820152603a60248201527f47424d61726b6574706c6163653a2073656c6c65722061646472657373206d7560448201527f7374206e6f7420626520636f6e74726163742061646472657373000000000000606482015260840161058e565b6000610ad660e0840160c08501612769565b6001600160a01b031603610b525760405162461bcd60e51b815260206004820152603760248201527f47424d61726b6574706c6163653a20636861726974792061646472657373206d60448201527f757374206e6f74206265207a65726f2061646472657373000000000000000000606482015260840161058e565b6103e8610b66610100840160e08501612a5b565b6001600160601b031610158015610b985750612710610b8c610100840160e08501612a5b565b6001600160601b031611155b610c0a5760405162461bcd60e51b815260206004820152603e60248201527f47424d61726b6574706c6163653a20636861726974792070657263656e74616760448201527f65206d757374206265206265747765656e2031302520616e6420313030250000606482015260840161058e565b6000600581610c1f6040860160208701612769565b6001600160a01b0390811682526020808301939093526040918201600090812060608089013583529085529083902083519182018452805492831682526001600160601b03600160a01b93849004811695830186905260019091015460ff16151593820193909352600654909450612710939291900416610ca7610100870160e08801612a5b565b610cb19190612d10565b610cbb9190612d10565b6001600160601b03161115610d2a5760405162461bcd60e51b815260206004820152602f60248201527f47424d61726b6574706c6163653a20746f74616c20666565206d75737420626560448201526e206c657373207468616e203130302560881b606482015260840161058e565b6000836080013511610d965760405162461bcd60e51b815260206004820152602f60248201527f47424d61726b6574706c6163653a204e4654205072696365206d75737420626560448201526e02067726561746572207468616e203608c1b606482015260840161058e565b610da860a08401356080850135612d37565b341015610e015760405162461bcd60e51b815260206004820152602160248201527f47424d61726b6574706c6163653a20496e73756666696369656e742066756e646044820152607360f81b606482015260840161058e565b826101000135421115610e265760405162461bcd60e51b815260040161058e90612ba3565b60036000610e3a6040860160208701612769565b6001600160a01b0316815260208101919091526040016000205460ff16610e735760405162461bcd60e51b815260040161058e90612b5a565b33600090815260046020526040902054610e99610e9361079d8684611d74565b84611d00565b610eb55760405162461bcd60e51b815260040161058e90612bd8565b6000610ee76080860135610ed0610100880160e08901612a5b565b6127106001600160601b0391909116919091020490565b9050610f0f610efc60e0870160c08801612769565b610f0a60a088013584612d37565b611e69565b600080610f226040880160208901612769565b60405163152a902d60e11b815260608901356004820152608089013560248201526001600160a01b039190911690632a55205a906044016040805180830381865afa158015610f75573d6000803e3d6000fd5b505050506040513d601f19601f82011682018060405250810190610f999190612d4a565b91509150610fa78282611e69565b6006546127106080890135600160a01b83046001600160601b0316020490610fd8906001600160a01b031682611e69565b60808801358490038290038181039082146110525786604001511561103f576000611004600283612d78565b905061101f61101960608c0160408d01612769565b82611e69565b600654611039906001600160a01b0316610f0a8385612d9a565b50611052565b61105261101960608b0160408c01612769565b336000908152600460209081526040918290208054600101905561107a918b01908b01612769565b6001600160a01b03166342842e0e61109860608c0160408d01612769565b336040516001600160e01b031960e085901b1681526001600160a01b0392831660048201529116602482015260608c01356044820152606401600060405180830381600087803b1580156110eb57600080fd5b505af11580156110ff573d6000803e3d6000fd5b505050507f8e4c38f8d861e949358d505080ae24192a05e0e6a65a4d62f6a64b998c515c3c8942604051611134929190612dad565b60405180910390a150506001805550505050505050565b6000918252602082815260408084206001600160a01b0393909316845291905290205460ff1690565b6002600154036111965760405162461bcd60e51b815260040161058e90612a76565b60026001556111a3611c18565b60006111ae81611ad3565b6001600160a01b0388166111d45760405162461bcd60e51b815260040161058e90612aad565b8583146112495760405162461bcd60e51b815260206004820152603a60248201527f47424d61726b6574706c6163653a20746f6b656e49647320616e6420746f6b6560448201527f6e55524973206c656e677468206d75737420626520657175616c000000000000606482015260840161058e565b6001600160a01b03881660009081526003602052604090205460ff166112815760405162461bcd60e51b815260040161058e90612b5a565b60005b8681101561148b5760008888838181106112a0576112a0612e66565b90506020020135116112c45760405162461bcd60e51b815260040161058e90612b0a565b604080516060810182526001600160a01b0380861682526001600160601b038916602080840191909152600183850152908c166000908152600590915291822090918a8a8581811061131857611318612e66565b602090810292909201358352508181019290925260409081016000208351928401516001600160601b0316600160a01b026001600160a01b039384161781559201516001909201805492151560ff1990931692909217909155891663e5bff2e4848a8a8581811061138b5761138b612e66565b90506020020135898989878181106113a5576113a5612e66565b90506020028101906113b79190612c20565b6040518663ffffffff1660e01b81526004016113d7959493929190612e7c565b600060405180830381600087803b1580156113f157600080fd5b505af1158015611405573d6000803e3d6000fd5b505050507f65db01c4647d26831be2dde422dc7b3d0ed4d22f9d4bbc1d5306d5cc4176a2ff89848a8a8581811061143e5761143e612e66565b9050602002013588888681811061145757611457612e66565b90506020028101906114699190612c20565b8b4260405161147e9796959493929190612ebe565b60405180910390a1611284565b507f3e8765325d2cfee06ac79d772ffa0bb848dcb609ee5a506031a679b8a4b829038833898988888b89426040516114cb99989796959493929190612f11565b60405180910390a1505060018055505050505050565b6002600154036115035760405162461bcd60e51b815260040161058e90612a76565b6002600155611510611c18565b60006115226040840160208501612769565b6001600160a01b0316036115485760405162461bcd60e51b815260040161058e90612aad565b600082604001351161156c5760405162461bcd60e51b815260040161058e90612b0a565b600360006115806040850160208601612769565b6001600160a01b0316815260208101919091526040016000205460ff166115b95760405162461bcd60e51b815260040161058e90612b5a565b8160a001354211156115dd5760405162461bcd60e51b815260040161058e90612ba3565b336000908152600460205260409020546115fd6107a261079d8584611f82565b6116195760405162461bcd60e51b815260040161058e90612bd8565b604051806060016040528061162b3390565b6001600160a01b031681526020016116496080860160608701612a5b565b6001600160601b03168152600060209182018190526005916116719060408801908801612769565b6001600160a01b0390811682526020808301939093526040918201600090812088840135825284528281208551948601516001600160601b0316600160a01b02949092169390931781559201516001909201805492151560ff19909316929092179091556004906116df3390565b6001600160a01b0316815260208082019290925260409081016000208054600101905561171191908501908501612769565b6001600160a01b031663e5bff2e43360408601356117356080880160608901612a5b565b6117426080890189612c20565b6040518663ffffffff1660e01b8152600401611762959493929190612e7c565b600060405180830381600087803b15801561177c57600080fd5b505af1158015611790573d6000803e3d6000fd5b507f65db01c4647d26831be2dde422dc7b3d0ed4d22f9d4bbc1d5306d5cc4176a2ff92506117c79150506040850160208601612769565b3360408601356117da6080880188612c20565b6117ea60808a0160608b01612a5b565b426040516109ac9796959493929190612ebe565b600061180981611ad3565b6001600160a01b0382166118735760405162461bcd60e51b815260206004820152602b60248201527f766572696679526f6c652061646472657373206d757374206e6f74206265207a60448201526a65726f206164647265737360a81b606482015260840161058e565b61189d7fd262a1e181ec035692bcc8c920b971bccc173d5263f104f91c1561b5033679dd83611add565b6040516001600160a01b03831681527f823bfe6c95b007bb6cc8bb748029c56ae8f83f9fc647a5c47b36f893bdefe74f906020016105e1565b6000828152602081905260409020600101546118f181611ad3565b6105178383611b61565b600061190681611ad3565b6001600160a01b0383166119725760405162461bcd60e51b815260206004820152602d60248201527f6762436f6c6c656374696f6e2061646472657373206d757374206e6f7420626560448201526c207a65726f206164647265737360981b606482015260840161058e565b6001600160a01b038316600081815260036020908152604091829020805460ff19168615159081179091558251938452908301527f223891d059d602a4595404ec0a953e0fa8de6291465a1e0d904d07f387f0b7fa910160405180910390a1505050565b60006119e181611ad3565b6000826001600160601b031611611a485760405162461bcd60e51b815260206004820152602560248201527f706c6174666f726d466565206d7573742062652067726561746572207468616e604482015264207a65726f60d81b606482015260840161058e565b600680546001600160a01b0316600160a01b6001600160601b038516908102919091179091556040519081527fbe3599c33046219ddc3706f4b99caca706dc0f53775580d18a367dc2188c96e5906020016105e1565b60006001600160e01b03198216637965db0b60e01b14806104ec57506301ffc9a760e01b6001600160e01b03198316146104ec565b61067e8133612002565b611ae7828261114b565b610667576000828152602081815260408083206001600160a01b03851684529091529020805460ff19166001179055611b1d3390565b6001600160a01b0316816001600160a01b0316837f2f8788117e7eff1d82e926ec794901d17c78024a50270940304540a733656f0d60405160405180910390a45050565b611b6b828261114b565b15610667576000828152602081815260408083206001600160a01b0385168085529252808320805460ff1916905551339285917ff6391f5c32d9c69d2a47ea670b442974b53935d1edc7fd64eb21e047a839171b9190a45050565b611bce612066565b6002805460ff191690557f5db9ee0a495bf2e6ff9c91a7834c1ba4fdd244a5e8aa4e537bd38aeae4b073aa335b6040516001600160a01b03909116815260200160405180910390a1565b60025460ff1615611c5e5760405162461bcd60e51b815260206004820152601060248201526f14185d5cd8589b194e881c185d5cd95960821b604482015260640161058e565b565b60007f485787466c6bb756e23877696afb1ffef4d4f7daa150be930943445b9efd5abc611c906020850185612769565b611ca06040860160208701612769565b6040860135611cb26060880188612c20565b886080013588604051602001611ccf98979695949392919061302f565b60405160208183030381529060405280519060200120905092915050565b60006104ec611cfa6120af565b836121d6565b6000611d307fd262a1e181ec035692bcc8c920b971bccc173d5263f104f91c1561b5033679dd6103d385856121fd565b9392505050565b611d3f611c18565b6002805460ff191660011790557f62e78cea01bee320cd4e420270b5ea74000d11b0c9f74754ebdbfc544b05a258611bfb3390565b60007f17267e3c9a41fdc4878f6c57751034dfbbf7febe7592905bfe881b17e566ed2b611da46020850185612769565b611db46040860160208701612769565b611dc46060870160408801612769565b6060870135608088013560a0890135611de360e08b0160c08c01612769565b611df46101008c0160e08d01612a5b565b60408051602081019a909a526001600160a01b03988916908a01529587166060890152938616608088015260a087019290925260c086015260e0850152909116610100808401919091526001600160601b03909116610120830152840135610140820152610160810183905261018001611ccf565b80471015611eb95760405162461bcd60e51b815260206004820152601d60248201527f416464726573733a20696e73756666696369656e742062616c616e6365000000604482015260640161058e565b6000826001600160a01b03168260405160006040518083038185875af1925050503d8060008114611f06576040519150601f19603f3d011682016040523d82523d6000602084013e611f0b565b606091505b50509050806105175760405162461bcd60e51b815260206004820152603a60248201527f416464726573733a20756e61626c6520746f2073656e642076616c75652c207260448201527f6563697069656e74206d61792068617665207265766572746564000000000000606482015260840161058e565b60007fd7414a21ae7fe6c7ae7ba4fc193977b266778b52f64e202866e96f1d30267f7f611fb26020850185612769565b611fc26040860160208701612769565b6040860135611fd76080880160608901612a5b565b611fe46080890189612c20565b8960a0013589604051602001611ccf99989796959493929190613080565b61200c828261114b565b61066757612024816001600160a01b03166014612221565b61202f836020612221565b604051602001612040929190613107565b60408051601f198184030181529082905262461bcd60e51b825261058e9160040161317c565b60025460ff16611c5e5760405162461bcd60e51b815260206004820152601460248201527314185d5cd8589b194e881b9bdd081c185d5cd95960621b604482015260640161058e565b6000306001600160a01b037f00000000000000000000000000000000000000000000000000000000000000001614801561210857507f000000000000000000000000000000000000000000000000000000000000000046145b1561213257507f000000000000000000000000000000000000000000000000000000000000000090565b50604080517f00000000000000000000000000000000000000000000000000000000000000006020808301919091527f0000000000000000000000000000000000000000000000000000000000000000828401527f000000000000000000000000000000000000000000000000000000000000000060608301524660808301523060a0808401919091528351808403909101815260c0909201909252805191012090565b60405161190160f01b60208201526022810183905260428101829052600090606201611ccf565b600080600061220c85856123bd565b9150915061221981612402565b509392505050565b606060006122308360026131af565b61223b906002612d37565b67ffffffffffffffff81111561225357612253612786565b6040519080825280601f01601f19166020018201604052801561227d576020820181803683370190505b509050600360fc1b8160008151811061229857612298612e66565b60200101906001600160f81b031916908160001a905350600f60fb1b816001815181106122c7576122c7612e66565b60200101906001600160f81b031916908160001a90535060006122eb8460026131af565b6122f6906001612d37565b90505b600181111561236e576f181899199a1a9b1b9c1cb0b131b232b360811b85600f166010811061232a5761232a612e66565b1a60f81b82828151811061234057612340612e66565b60200101906001600160f81b031916908160001a90535060049490941c93612367816131c6565b90506122f9565b508315611d305760405162461bcd60e51b815260206004820181905260248201527f537472696e67733a20686578206c656e67746820696e73756666696369656e74604482015260640161058e565b60008082516041036123f35760208301516040840151606085015160001a6123e7878285856125b8565b945094505050506123fb565b506000905060025b9250929050565b6000816004811115612416576124166131dd565b0361241e5750565b6001816004811115612432576124326131dd565b0361247f5760405162461bcd60e51b815260206004820152601860248201527f45434453413a20696e76616c6964207369676e61747572650000000000000000604482015260640161058e565b6002816004811115612493576124936131dd565b036124e05760405162461bcd60e51b815260206004820152601f60248201527f45434453413a20696e76616c6964207369676e6174757265206c656e67746800604482015260640161058e565b60038160048111156124f4576124f46131dd565b0361254c5760405162461bcd60e51b815260206004820152602260248201527f45434453413a20696e76616c6964207369676e6174757265202773272076616c604482015261756560f01b606482015260840161058e565b6004816004811115612560576125606131dd565b0361067e5760405162461bcd60e51b815260206004820152602260248201527f45434453413a20696e76616c6964207369676e6174757265202776272076616c604482015261756560f01b606482015260840161058e565b6000807f7fffffffffffffffffffffffffffffff5d576e7357a4501ddfe92f46681b20a08311156125ef575060009050600361269c565b8460ff16601b1415801561260757508460ff16601c14155b15612618575060009050600461269c565b6040805160008082526020820180845289905260ff881692820192909252606081018690526080810185905260019060a0016020604051602081039080840390855afa15801561266c573d6000803e3d6000fd5b5050604051601f1901519150506001600160a01b0381166126955760006001925092505061269c565b9150600090505b94509492505050565b6000602082840312156126b757600080fd5b81356001600160e01b031981168114611d3057600080fd5b6001600160a01b038116811461067e57600080fd5b80356126ef816126cf565b919050565b6000806040838503121561270757600080fd5b8235612712816126cf565b946020939093013593505050565b60006020828403121561273257600080fd5b5035919050565b6000806040838503121561274c57600080fd5b82359150602083013561275e816126cf565b809150509250929050565b60006020828403121561277b57600080fd5b8135611d30816126cf565b634e487b7160e01b600052604160045260246000fd5b600082601f8301126127ad57600080fd5b813567ffffffffffffffff808211156127c8576127c8612786565b604051601f8301601f19908116603f011681019082821181831017156127f0576127f0612786565b8160405283815286602085880101111561280957600080fd5b836020870160208301376000602085830101528094505050505092915050565b6000806040838503121561283c57600080fd5b823567ffffffffffffffff8082111561285457600080fd5b9084019060a0828703121561286857600080fd5b9092506020840135908082111561287e57600080fd5b5061288b8582860161279c565b9150509250929050565b6000808284036101408112156128aa57600080fd5b610120808212156128ba57600080fd5b849350830135905067ffffffffffffffff8111156128d757600080fd5b61288b8582860161279c565b60008083601f8401126128f557600080fd5b50813567ffffffffffffffff81111561290d57600080fd5b6020830191508360208260051b85010111156123fb57600080fd5b80356001600160601b03811681146126ef57600080fd5b600080600080600080600060a0888a03121561295a57600080fd5b8735612965816126cf565b9650602088013567ffffffffffffffff8082111561298257600080fd5b61298e8b838c016128e3565b90985096508691506129a260408b01612928565b955060608a01359150808211156129b857600080fd5b506129c58a828b016128e3565b90945092505060808801356129d9816126cf565b8091505092959891949750929550565b600080604083850312156129fc57600080fd5b823567ffffffffffffffff80821115612a1457600080fd5b9084019060c0828703121561286857600080fd5b60008060408385031215612a3b57600080fd5b8235612a46816126cf565b91506020830135801515811461275e57600080fd5b600060208284031215612a6d57600080fd5b611d3082612928565b6020808252601f908201527f5265656e7472616e637947756172643a207265656e7472616e742063616c6c00604082015260600190565b6020808252603a908201527f47424d61726b6574706c6163653a20636f6c6c656374696f6e2061646472657360408201527f73206d757374206e6f74206265207a65726f2061646472657373000000000000606082015260800190565b60208082526030908201527f47424d61726b6574706c6163653a20746f6b656e4964206d757374206265206760408201526f726561746572207468616e207a65726f60801b606082015260800190565b60208082526029908201527f47424d61726b6574706c6163653a20496e76616c696420636f6c6c656374696f6040820152686e206164647265737360b81b606082015260800190565b6020808252818101527f47424d61726b6574706c6163653a205369676e61747572652065787069726564604082015260600190565b602080825260119082015270496e76616c6964207369676e617475726560781b604082015260600190565b600060208284031215612c1557600080fd5b8151611d30816126cf565b6000808335601e19843603018112612c3757600080fd5b83018035915067ffffffffffffffff821115612c5257600080fd5b6020019150368190038213156123fb57600080fd5b81835281816020850137506000828201602090810191909152601f909101601f19169091010190565b838152604060208201526000612caa604083018486612c67565b95945050505050565b6001600160a01b038781168252861660208201526040810185905260a060608201819052600090612ce79083018587612c67565b9050826080830152979650505050505050565b634e487b7160e01b600052601160045260246000fd5b6001600160601b03818116838216019080821115612d3057612d30612cfa565b5092915050565b808201808211156104ec576104ec612cfa565b60008060408385031215612d5d57600080fd5b8251612d68816126cf565b6020939093015192949293505050565b600082612d9557634e487b7160e01b600052601260045260246000fd5b500490565b818103818111156104ec576104ec612cfa565b61014081018335612dbd816126cf565b6001600160a01b03168252612dd4602085016126e4565b6001600160a01b03166020830152612dee604085016126e4565b6001600160a01b038116604084015250606084013560608301526080840135608083015260a084013560a0830152612e2860c085016126e4565b6001600160a01b031660c0830152612e4260e08501612928565b6001600160601b031660e08301526101009384013593820193909352610120015290565b634e487b7160e01b600052603260045260246000fd5b60018060a01b03861681528460208201526001600160601b0384166040820152608060608201526000612eb3608083018486612c67565b979650505050505050565b6001600160a01b038881168252871660208201526040810186905260c060608201819052600090612ef29083018688612c67565b6001600160601b039490941660808301525060a0015295945050505050565b6001600160a01b038a81168252891660208083019190915260e0604083018190528201889052600090610100906001600160fb1b038a1115612f5257600080fd5b8960051b808c84870137840184810383016060860152918201889052610120808301929060058a901b8201018a60005b8b811015612ff35783830361011f190186528135368e9003601e19018112612fa957600080fd5b8d01858101903567ffffffffffffffff811115612fc557600080fd5b803603821315612fd457600080fd5b612fdf858284612c67565b978701979450505090840190600101612f82565b50506001600160601b0389166080870152935061300f92505050565b6001600160a01b039390931660a082015260c00152979650505050505050565b8881526001600160a01b038881166020830152871660408201526060810186905260e0608082018190526000906130699083018688612c67565b60a08301949094525060c001529695505050505050565b8981526001600160a01b03898116602083015288166040820152606081018790526001600160601b038616608082015261010060a082018190526000906130ca8382018789612c67565b60c0840195909552505060e00152979650505050505050565b60005b838110156130fe5781810151838201526020016130e6565b50506000910152565b7f416363657373436f6e74726f6c3a206163636f756e742000000000000000000081526000835161313f8160178501602088016130e3565b7001034b99036b4b9b9b4b733903937b6329607d1b60179184019182015283516131708160288401602088016130e3565b01602801949350505050565b602081526000825180602084015261319b8160408501602087016130e3565b601f01601f19169190910160400192915050565b80820281158282048414176104ec576104ec612cfa565b6000816131d5576131d5612cfa565b506000190190565b634e487b7160e01b600052602160045260246000fdfea2646970667358221220733e27f216bfa37d9ca4b435affda14c6a7d3ad20c3294845c5e46d7a18cd50364736f6c63430008110033",
  "linkReferences": {},
  "deployedLinkReferences": {}
}