{
  "_format": "hh-sol-artifact-1",
  "contractName": "GBMarketplace",
  "sourceName": "contracts/GBMarketplace.sol",
  "abi": [
    {
      "inputs": [
        {
          "internalType": "address",
          "name": "owner",
          "type": "address"
        },
        {
          "internalType": "address",
          "name": "adminWallet_",
          "type": "address"
        }
      ],
      "stateMutability": "nonpayable",
      "type": "constructor"
    },
    {
      "anonymous": false,
      "inputs": [
        {
          "indexed": false,
          "internalType": "uint256[]",
          "name": "ids",
          "type": "uint256[]"
        }
      ],
      "name": "BoughtItem",
      "type": "event"
    },
    {
      "anonymous": false,
      "inputs": [
        {
          "indexed": false,
          "internalType": "bool[]",
          "name": "cancelResults",
          "type": "bool[]"
        },
        {
          "indexed": false,
          "internalType": "string[]",
          "name": "cancelStatus",
          "type": "string[]"
        },
        {
          "indexed": false,
          "internalType": "bytes32[]",
          "name": "ordersHash",
          "type": "bytes32[]"
        }
      ],
      "name": "OrderCancelled",
      "type": "event"
    },
    {
      "anonymous": false,
      "inputs": [
        {
          "indexed": false,
          "internalType": "address",
          "name": "account",
          "type": "address"
        }
      ],
      "name": "Paused",
      "type": "event"
    },
    {
      "anonymous": false,
      "inputs": [
        {
          "indexed": true,
          "internalType": "bytes32",
          "name": "role",
          "type": "bytes32"
        },
        {
          "indexed": true,
          "internalType": "bytes32",
          "name": "previousAdminRole",
          "type": "bytes32"
        },
        {
          "indexed": true,
          "internalType": "bytes32",
          "name": "newAdminRole",
          "type": "bytes32"
        }
      ],
      "name": "RoleAdminChanged",
      "type": "event"
    },
    {
      "anonymous": false,
      "inputs": [
        {
          "indexed": true,
          "internalType": "bytes32",
          "name": "role",
          "type": "bytes32"
        },
        {
          "indexed": true,
          "internalType": "address",
          "name": "account",
          "type": "address"
        },
        {
          "indexed": true,
          "internalType": "address",
          "name": "sender",
          "type": "address"
        }
      ],
      "name": "RoleGranted",
      "type": "event"
    },
    {
      "anonymous": false,
      "inputs": [
        {
          "indexed": true,
          "internalType": "bytes32",
          "name": "role",
          "type": "bytes32"
        },
        {
          "indexed": true,
          "internalType": "address",
          "name": "account",
          "type": "address"
        },
        {
          "indexed": true,
          "internalType": "address",
          "name": "sender",
          "type": "address"
        }
      ],
      "name": "RoleRevoked",
      "type": "event"
    },
    {
      "anonymous": false,
      "inputs": [
        {
          "indexed": false,
          "internalType": "address",
          "name": "account",
          "type": "address"
        }
      ],
      "name": "SetAdminWallet",
      "type": "event"
    },
    {
      "anonymous": false,
      "inputs": [
        {
          "indexed": false,
          "internalType": "address",
          "name": "nftContract",
          "type": "address"
        },
        {
          "indexed": false,
          "internalType": "bool",
          "name": "status",
          "type": "bool"
        }
      ],
      "name": "SetNftContractAddress",
      "type": "event"
    },
    {
      "anonymous": false,
      "inputs": [
        {
          "indexed": false,
          "internalType": "uint96",
          "name": "platformFee",
          "type": "uint96"
        },
        {
          "indexed": false,
          "internalType": "uint8",
          "name": "platformFeeType",
          "type": "uint8"
        }
      ],
      "name": "SetPlatformFee",
      "type": "event"
    },
    {
      "anonymous": false,
      "inputs": [
        {
          "indexed": false,
          "internalType": "address",
          "name": "account",
          "type": "address"
        }
      ],
      "name": "Unpaused",
      "type": "event"
    },
    {
      "anonymous": false,
      "inputs": [
        {
          "indexed": false,
          "internalType": "address",
          "name": "nftContract",
          "type": "address"
        },
        {
          "indexed": false,
          "internalType": "address",
          "name": "owner",
          "type": "address"
        },
        {
          "indexed": false,
          "internalType": "uint256",
          "name": "tokenId",
          "type": "uint256"
        },
        {
          "indexed": false,
          "internalType": "string",
          "name": "tokenURI",
          "type": "string"
        }
      ],
      "name": "UpdatedTokenURI",
      "type": "event"
    },
    {
      "inputs": [],
      "name": "DEFAULT_ADMIN_ROLE",
      "outputs": [
        {
          "internalType": "bytes32",
          "name": "",
          "type": "bytes32"
        }
      ],
      "stateMutability": "view",
      "type": "function"
    },
    {
      "inputs": [
        {
          "components": [
            {
              "components": [
                {
                  "internalType": "address",
                  "name": "nftContract",
                  "type": "address"
                },
                {
                  "internalType": "uint256",
                  "name": "itemType",
                  "type": "uint256"
                },
                {
                  "internalType": "address",
                  "name": "seller",
                  "type": "address"
                },
                {
                  "internalType": "address",
                  "name": "artist",
                  "type": "address"
                },
                {
                  "internalType": "bool",
                  "name": "isMinted",
                  "type": "bool"
                },
                {
                  "internalType": "uint256",
                  "name": "tokenId",
                  "type": "uint256"
                },
                {
                  "internalType": "string",
                  "name": "tokenURI",
                  "type": "string"
                },
                {
                  "internalType": "uint256",
                  "name": "quantity",
                  "type": "uint256"
                },
                {
                  "internalType": "uint256",
                  "name": "itemPrice",
                  "type": "uint256"
                },
                {
                  "internalType": "address",
                  "name": "charityAddress",
                  "type": "address"
                },
                {
                  "internalType": "uint96",
                  "name": "charityShare",
                  "type": "uint96"
                },
                {
                  "internalType": "uint96",
                  "name": "royaltyFee",
                  "type": "uint96"
                },
                {
                  "internalType": "uint256",
                  "name": "deadline",
                  "type": "uint256"
                },
                {
                  "internalType": "uint256",
                  "name": "salt",
                  "type": "uint256"
                }
              ],
              "internalType": "struct OrderItem",
              "name": "orderItem",
              "type": "tuple"
            },
            {
              "internalType": "uint256",
              "name": "additionalAmount",
              "type": "uint256"
            },
            {
              "internalType": "bytes",
              "name": "signature",
              "type": "bytes"
            }
          ],
          "internalType": "struct Order[]",
          "name": "orders",
          "type": "tuple[]"
        }
      ],
      "name": "buyItems",
      "outputs": [],
      "stateMutability": "payable",
      "type": "function"
    },
    {
      "inputs": [
        {
          "components": [
            {
              "internalType": "address",
              "name": "nftContract",
              "type": "address"
            },
            {
              "internalType": "uint256",
              "name": "itemType",
              "type": "uint256"
            },
            {
              "internalType": "address",
              "name": "seller",
              "type": "address"
            },
            {
              "internalType": "address",
              "name": "artist",
              "type": "address"
            },
            {
              "internalType": "bool",
              "name": "isMinted",
              "type": "bool"
            },
            {
              "internalType": "uint256",
              "name": "tokenId",
              "type": "uint256"
            },
            {
              "internalType": "string",
              "name": "tokenURI",
              "type": "string"
            },
            {
              "internalType": "uint256",
              "name": "quantity",
              "type": "uint256"
            },
            {
              "internalType": "uint256",
              "name": "itemPrice",
              "type": "uint256"
            },
            {
              "internalType": "address",
              "name": "charityAddress",
              "type": "address"
            },
            {
              "internalType": "uint96",
              "name": "charityShare",
              "type": "uint96"
            },
            {
              "internalType": "uint96",
              "name": "royaltyFee",
              "type": "uint96"
            },
            {
              "internalType": "uint256",
              "name": "deadline",
              "type": "uint256"
            },
            {
              "internalType": "uint256",
              "name": "salt",
              "type": "uint256"
            }
          ],
          "internalType": "struct OrderItem[]",
          "name": "orderItems",
          "type": "tuple[]"
        }
      ],
      "name": "cancelOrders",
      "outputs": [],
      "stateMutability": "nonpayable",
      "type": "function"
    },
    {
      "inputs": [
        {
          "internalType": "address",
          "name": "",
          "type": "address"
        }
      ],
      "name": "gbNftContracts",
      "outputs": [
        {
          "internalType": "bool",
          "name": "",
          "type": "bool"
        }
      ],
      "stateMutability": "view",
      "type": "function"
    },
    {
      "inputs": [
        {
          "internalType": "bytes32",
          "name": "role",
          "type": "bytes32"
        }
      ],
      "name": "getRoleAdmin",
      "outputs": [
        {
          "internalType": "bytes32",
          "name": "",
          "type": "bytes32"
        }
      ],
      "stateMutability": "view",
      "type": "function"
    },
    {
      "inputs": [
        {
          "internalType": "bytes32",
          "name": "role",
          "type": "bytes32"
        },
        {
          "internalType": "address",
          "name": "account",
          "type": "address"
        }
      ],
      "name": "grantRole",
      "outputs": [],
      "stateMutability": "nonpayable",
      "type": "function"
    },
    {
      "inputs": [
        {
          "internalType": "bytes32",
          "name": "role",
          "type": "bytes32"
        },
        {
          "internalType": "address",
          "name": "account",
          "type": "address"
        }
      ],
      "name": "hasRole",
      "outputs": [
        {
          "internalType": "bool",
          "name": "",
          "type": "bool"
        }
      ],
      "stateMutability": "view",
      "type": "function"
    },
    {
      "inputs": [
        {
          "internalType": "bytes32",
          "name": "",
          "type": "bytes32"
        }
      ],
      "name": "orderCancelled",
      "outputs": [
        {
          "internalType": "bool",
          "name": "",
          "type": "bool"
        }
      ],
      "stateMutability": "view",
      "type": "function"
    },
    {
      "inputs": [
        {
          "internalType": "bytes32",
          "name": "",
          "type": "bytes32"
        }
      ],
      "name": "orderProcessed",
      "outputs": [
        {
          "internalType": "bool",
          "name": "",
          "type": "bool"
        }
      ],
      "stateMutability": "view",
      "type": "function"
    },
    {
      "inputs": [],
      "name": "pause",
      "outputs": [],
      "stateMutability": "nonpayable",
      "type": "function"
    },
    {
      "inputs": [],
      "name": "paused",
      "outputs": [
        {
          "internalType": "bool",
          "name": "",
          "type": "bool"
        }
      ],
      "stateMutability": "view",
      "type": "function"
    },
    {
      "inputs": [],
      "name": "platformFeeFromCharity",
      "outputs": [
        {
          "internalType": "uint96",
          "name": "",
          "type": "uint96"
        }
      ],
      "stateMutability": "view",
      "type": "function"
    },
    {
      "inputs": [],
      "name": "platformFeeFromSeller",
      "outputs": [
        {
          "internalType": "uint96",
          "name": "",
          "type": "uint96"
        }
      ],
      "stateMutability": "view",
      "type": "function"
    },
    {
      "inputs": [
        {
          "internalType": "bytes32",
          "name": "role",
          "type": "bytes32"
        },
        {
          "internalType": "address",
          "name": "account",
          "type": "address"
        }
      ],
      "name": "renounceRole",
      "outputs": [],
      "stateMutability": "nonpayable",
      "type": "function"
    },
    {
      "inputs": [
        {
          "internalType": "bytes32",
          "name": "role",
          "type": "bytes32"
        },
        {
          "internalType": "address",
          "name": "account",
          "type": "address"
        }
      ],
      "name": "revokeRole",
      "outputs": [],
      "stateMutability": "nonpayable",
      "type": "function"
    },
    {
      "inputs": [
        {
          "internalType": "address",
          "name": "adminWallet_",
          "type": "address"
        }
      ],
      "name": "setAdminWallet",
      "outputs": [],
      "stateMutability": "nonpayable",
      "type": "function"
    },
    {
      "inputs": [
        {
          "internalType": "address",
          "name": "nftContractAddress",
          "type": "address"
        },
        {
          "internalType": "bool",
          "name": "isEnabled",
          "type": "bool"
        }
      ],
      "name": "setNftContractAddress",
      "outputs": [],
      "stateMutability": "nonpayable",
      "type": "function"
    },
    {
      "inputs": [
        {
          "internalType": "uint96",
          "name": "platformFee_",
          "type": "uint96"
        },
        {
          "internalType": "uint8",
          "name": "platformFeeType",
          "type": "uint8"
        }
      ],
      "name": "setPlatformFee",
      "outputs": [],
      "stateMutability": "nonpayable",
      "type": "function"
    },
    {
      "inputs": [
        {
          "internalType": "bytes4",
          "name": "interfaceId",
          "type": "bytes4"
        }
      ],
      "name": "supportsInterface",
      "outputs": [
        {
          "internalType": "bool",
          "name": "",
          "type": "bool"
        }
      ],
      "stateMutability": "view",
      "type": "function"
    },
    {
      "inputs": [],
      "name": "unpause",
      "outputs": [],
      "stateMutability": "nonpayable",
      "type": "function"
    },
    {
      "inputs": [
        {
          "internalType": "address",
          "name": "nftContract",
          "type": "address"
        },
        {
          "internalType": "uint256",
          "name": "tokenId",
          "type": "uint256"
        },
        {
          "internalType": "string",
          "name": "tokenURI",
          "type": "string"
        }
      ],
      "name": "updateTokenURI",
      "outputs": [],
      "stateMutability": "nonpayable",
      "type": "function"
    }
  ],
  "bytecode": "0x6101403462000214576001600160401b0362001fec601f38829003908101601f191684019083821185831017620001fe57808591604094859485528339810103126200021457620000508362000235565b6200005f602080950162000235565b908251926200006e8462000219565b600d845260058685016c47424d61726b6574706c61636560981b8152878351620000988162000219565b8381520195640312e302e360dc1b87525190209420958460e052610100968088524660a0528251828101917f8b73c3c69bb8fe3d512ecc4cf759cc79239f7b179b0ffacaa9a75d522b39400f978884528583015260608201524660808201523060a082015260a0815260c081019781891090891117620001fe578784525190206080523060c052610120948552600180556002805460ff19908116909155600780546001600160601b031916606417905561027160a31b6001600160a01b03958616176006556000808052808352838120949095168086529382528285205490929060ff1615620001b3575b611da187878a836200024b843960805183505060a05183505060c05183505060e0518350505182505051815050f35b600191858052858152818620908587525284209182541617905533917f2f8788117e7eff1d82e926ec794901d17c78024a50270940304540a733656f0d8180a4388080808062000184565b634e487b7160e01b600052604160045260246000fd5b600080fd5b604081019081106001600160401b03821117620001fe57604052565b51906001600160a01b0382168203620002145756fe608080604052600436101561001357600080fd5b60003560e01c90816301ffc9a7146114f75750806302d94ca8146111545780630fcd7f8f14610d3d578063248a9ca314610d0e57806327df538914610ccf5780632f2ff15d14610c1c5780633508293314610b5157806335daf72814610a4757806336568abe146109b55780633f4ba83a146109215780635889bf5e146108f05780635c975abb146108cd57806368b35a131461089c5780638456cb591461084257806391d14854146107f557806392cacf41146107d45780639aefa50314610274578063a217fddf14610258578063c0dd369514610173578063d547741f146101325763df128e9e1461010657600080fd5b3461012d57600036600319011261012d5760206001600160601b0360075416604051908152f35b600080fd5b3461012d57604036600319011261012d57610171600435610151611590565b9080600052600060205261016c6001604060002001546118a2565b6119f4565b005b3461012d57604036600319011261012d5761018c61157a565b6024359081151580920361012d576101a26116a8565b6001600160a01b03169081156101fe57816040917f37940b2348bce0015e28074f3a1d2ddc211ad7dfa13f0aef19072b22034ebc979360005260036020528260002060ff1981541660ff831617905582519182526020820152a1005b60405162461bcd60e51b815260206004820152602c60248201527f4e6674436f6e74726163742061646472657373206d757374206e6f742062652060448201526b7a65726f206164647265737360a01b6064820152608490fd5b3461012d57600036600319011261012d57602060405160008152f35b3461012d57602036600319011261012d576004356001600160401b03811161012d576102a490369060040161154a565b6102ac611cd1565b6102b581611b8d565b906102c36040519283611603565b808252601f196102d282611b8d565b013660208401376102e281611b8d565b906102f06040519283611603565b808252601f196102ff82611b8d565b0160005b8181106107c357505061031581611b8d565b936103236040519586611603565b818552601f1961033283611b8d565b0136602087013760005b82811061043c57505050604051916060830160608452815180915260206080850192019060005b818110610424575050508281036020840152815180825260208201916020808360051b8301019401926000915b8383106103f75787878781810360408301526020808451928381520193019060005b8181106103e1577f15f99f1cf783ec6699f2ff7916a0502d78d1cf20b8c9422ae62c33c66dce90d184860385a1005b82518552602094850194909201916001016103b2565b9091929394602080610415600193601f1986820301875289516119cf565b97019301930191939290610390565b82511515845260209384019390920191600101610363565b8060051b8201356101be198336030181121561012d576001600160a01b0390830160408101358281169081900361012d5733146104db575050600190604051610484816115cd565b602781527f47424d61726b6574706c6163653a20496e76616c6964206f726465722063616e60208201526631b2b63632b91760c91b60408201526104c88287611cbd565b526104d38186611cbd565b505b0161033c565b6104e6903690611ba4565b90808251169160208101519180604083015116908060608401511690608084015115159060a085015160c08601516020815191012060e0870151916101008801519361012089015116946001600160601b036101408a015116966001600160601b036101608b015116986101a06101808c01519b01519b60606040519e8f907f51a2c7a72ca7ccbf8ee583e8eeaede48c40bfd027939c3cbd4f474227d6b059a60208301526040820152015260808d015260a08c015260c08b015260e08a01526101008901526101208801526101408701526101608601526101808501526101a08401526101c08301526101e090818301528152806102008101106001600160401b03610200830111176107ad5761020081016040526020815191012061060d8288611cbd565b526106188187611cbd565b51600052600460205260ff806040600020541660001461069b5750600190604051610642816115cd565b602b81527f47424d61726b6574706c6163653a204f726465722077617320616c726561647960208201526a1031b0b731b2b63632b21760a91b604082015261068a8287611cbd565b526106958186611cbd565b506104d5565b6106a58288611cbd565b51600052600560205260406000205416600014610713576001906040516106cb816115cd565b602b81527f47424d61726b6574706c6163653a204f726465722077617320616c726561647960208201526a10383937b1b2b9b9b2b21760a91b604082015261068a8287611cbd565b600161071f8287611cbd565b52604051908160408101106001600160401b036040840111176107ad5781604060019301604052601f81527f47424d61726b6574706c6163653a2043616e63656c6c6564206f726465722e00602082015261077a8287611cbd565b526107858186611cbd565b506107908188611cbd565b51600052600460205260406000208260ff198254161790556104d5565b634e487b7160e01b600052604160045260246000fd5b806060602080938701015201610303565b3461012d57600036600319011261012d57602060065460a01c604051908152f35b3461012d57604036600319011261012d5761080e611590565b600435600052600060205260406000209060018060a01b0316600052602052602060ff604060002054166040519015158152f35b3461012d57600036600319011261012d5761085b6116a8565b610863611cd1565b600160ff1960025416176002557f62e78cea01bee320cd4e420270b5ea74000d11b0c9f74754ebdbfc544b05a2586020604051338152a1005b3461012d57602036600319011261012d576004356000526005602052602060ff604060002054166040519015158152f35b3461012d57600036600319011261012d57602060ff600254166040519015158152f35b3461012d57602036600319011261012d576004356000526004602052602060ff604060002054166040519015158152f35b3461012d57600036600319011261012d5761093a6116a8565b60025460ff8116156109795760ff19166002557f5db9ee0a495bf2e6ff9c91a7834c1ba4fdd244a5e8aa4e537bd38aeae4b073aa6020604051338152a1005b60405162461bcd60e51b815260206004820152601460248201527314185d5cd8589b194e881b9bdd081c185d5cd95960621b6044820152606490fd5b3461012d57604036600319011261012d576109ce611590565b336001600160a01b038216036109ea57610171906004356119f4565b60405162461bcd60e51b815260206004820152602f60248201527f416363657373436f6e74726f6c3a2063616e206f6e6c792072656e6f756e636560448201526e103937b632b9903337b91039b2b63360891b6064820152608490fd5b3461012d57604036600319011261012d576004356001600160601b0381169081810361012d576024359160ff831680930361012d57610a846116a8565b612710811015610b01577f75822b40f249c484aaeef9e7b5723e5abaf2a9573937a605fec2e69b7cd1e7eb9260409281610ae957600680546001600160a01b031660a09290921b6001600160a01b0319169190911790555b82519182526020820152a1005b50816001600160601b03196007541617600755610adc565b60405162461bcd60e51b815260206004820152602260248201527f706c6174666f726d466565206d757374206265206c657373207468616e203130604482015261302560f01b6064820152608490fd5b3461012d57602036600319011261012d57610b6a61157a565b610b726116a8565b6001600160a01b03168015610bc2576020817f1b651cfd0a3f185590087e7e632381434dfada46f037b9081264f9f5bdbfcd9b926001600160601b0360a01b6006541617600655604051908152a1005b60405162461bcd60e51b815260206004820152602c60248201527f61646d696e57616c6c65742061646472657373206d757374206e6f742062652060448201526b7a65726f206164647265737360a01b6064820152608490fd5b3461012d57604036600319011261012d57600435610c38611590565b816000526000602052610c526001604060002001546118a2565b81600052600060205260406000209060018060a01b0316908160005260205260ff6040600020541615610c8157005b8160005260006020526040600020816000526020526040600020600160ff1982541617905533917f2f8788117e7eff1d82e926ec794901d17c78024a50270940304540a733656f0d600080a4005b3461012d57602036600319011261012d576001600160a01b03610cf061157a565b166000526003602052602060ff604060002054166040519015158152f35b3461012d57602036600319011261012d5760043560005260006020526020600160406000200154604051908152f35b3461012d57606036600319011261012d57610d5661157a565b6044906024803583356001600160401b03811161012d57610d7b903690600401611676565b610d83611d15565b610d8b611cd1565b6040516301ffc9a760e01b8082526380ac58cd60e01b60048301526020956001600160a01b0390811695929091878285818a5afa918215610ed757600092611135575b5081156110d6575b501561107857841561100f578315610fb357846000526003865260ff6040600020541615610f5d576040516331a9108f60e11b8152600481018590529086828481895afa918215610ed757600092610f25575b5033911603610ee357833b1561012d576040600091610e6382519889938493630588253160e21b85528860048601528401528201856119cf565b038183875af1918215610ed7577f2a594f4fdcfb43b211e3fe501443da843ed0daa6e9cc58965e68afb67938f5f295610ebf93610ec8575b506040519485948552339085015260408401526080606084015260808301906119cf565b0390a160018055005b610ed1906115ba565b86610e9b565b6040513d6000823e3d90fd5b847f47424d61726b6574706c6163653a206973206e6f74206e6674206f776e65720087601f6064946040519462461bcd60e51b86526004860152840152820152fd5b9091508681813d8311610f56575b610f3d8183611603565b8101031261012d5751818116810361012d579088610e29565b503d610f33565b60405162461bcd60e51b815260048101879052602a818401527f47424d61726b6574706c6163653a20496e76616c6964206e6674436f6e74726181890152696374206164647265737360b01b6064820152608490fd5b60405162461bcd60e51b8152600481018790526030818401527f47424d61726b6574706c6163653a20746f6b656e4964206d7573742062652067818901526f726561746572207468616e207a65726f60801b6064820152608490fd5b60405162461bcd60e51b815260048101879052603b818401527f47424d61726b6574706c6163653a206e6674436f6e7472616374206164647265818901527f7373206d757374206e6f74206265207a65726f206164647265737300000000006064820152608490fd5b60405162461bcd60e51b8152600481018790526032818401527f47424d61726b6574706c6163653a2054686973206973206e6f7420455243373281890152710c4bd15490cc4c4d4d4818dbdb9d1c9858dd60721b6064820152608490fd5b604051908152636cdb3d1360e11b6004820152905086818481895afa908115610ed757600091611108575b5088610dd6565b6111289150873d891161112e575b6111208183611603565b810190611ca5565b88611101565b503d611116565b61114d919250883d8a1161112e576111208183611603565b9089610dce565b60208060031936011261012d576001600160401b039060043582811161012d5761118290369060040161154a565b61118d939193611d15565b611195611cd1565b61119e81611b8d565b916111ac6040519384611603565b8183526111b882611b8d565b8385019590601f190136873760005b83811061122e576040805187815286518189018190529181019189908960005b82811061121a577f2054bc223c304b304149e171a2f1706c4776ed99d46d0585e60a696305747d2985870386a160018055005b8351865294810194928101926001016111e7565b8060051b820135605e198336030181121561012d578201606090818136031261012d57604051918201828110868211176107ad57604052803585811161012d5761127b9036908301611ba4565b8252878101358883015260408101359085821161012d570136601f8201121561012d576112ae903690898135910161163f565b6040820152516006549091906001600160a01b039081163447106114b25760008080809334905af13d156114ad573d6112e681611624565b906112f46040519283611603565b815260008a3d92013e5b15611442578088918451166000526003825260ff6040600020541661132a575b505060019150016111c7565b608090818501511561133d575b5061131e565b84516040516301ffc9a760e01b81526380ac58cd60e01b6004820152602494909182908690829086165afa908115610ed757600091611425575b50611385575b899250611337565b80855116906040860151169060a086019384519260c06001600160601b036101608a01511698015190833b1561012d576113ee6000969287936040519b8c988997889663396ffcb960e21b885260048801528601526044850152606484015260848301906119cf565b03925af1928315610ed757600193611416575b505161140d8288611cbd565b5288808061137d565b61141f906115ba565b89611401565b61143c91508b3d8d1161112e576111208183611603565b8c611377565b60405162461bcd60e51b815260048101899052603a60248201527f416464726573733a20756e61626c6520746f2073656e642076616c75652c207260448201527f6563697069656e74206d617920686176652072657665727465640000000000006064820152608490fd5b6112fe565b60405162461bcd60e51b8152600481018a9052601d60248201527f416464726573733a20696e73756666696369656e742062616c616e63650000006044820152606490fd5b3461012d57602036600319011261012d576004359063ffffffff60e01b821680920361012d57602091637965db0b60e01b8114908115611539575b5015158152f35b6301ffc9a760e01b14905083611532565b9181601f8401121561012d578235916001600160401b03831161012d576020808501948460051b01011161012d57565b600435906001600160a01b038216820361012d57565b602435906001600160a01b038216820361012d57565b35906001600160a01b038216820361012d57565b6001600160401b0381116107ad57604052565b606081019081106001600160401b038211176107ad57604052565b608081019081106001600160401b038211176107ad57604052565b90601f801991011681019081106001600160401b038211176107ad57604052565b6001600160401b0381116107ad57601f01601f191660200190565b92919261164b82611624565b916116596040519384611603565b82948184528183011161012d578281602093846000960137010152565b9080601f8301121561012d578160206116919335910161163f565b90565b35906001600160601b038216820361012d57565b3360009081527fad3228b676f7d3cd4284a5443f17f1962b36e491b30a40b2405849e597ba5fb5602090815260408083205490929060ff16156116ea57505050565b6116f333611a8f565b9080845190611701826115e8565b6042825284820192606036853782511561188e576030845382519060019182101561188e5790607860218501536041915b818311611820575050506117de5760486117da9386936117be936117af985198899376020b1b1b2b9b9a1b7b73a3937b61d1030b1b1b7bab73a1604d1b8a860152611786815180928c6037890191016119ac565b8401917001034b99036b4b9b9b4b733903937b6329607d1b6037840152518093868401906119ac565b01036028810187520185611603565b5192839262461bcd60e51b8452600484015260248301906119cf565b0390fd5b60648486519062461bcd60e51b825280600483015260248201527f537472696e67733a20686578206c656e67746820696e73756666696369656e746044820152fd5b909192600f8116601081101561187a576f181899199a1a9b1b9c1cb0b131b232b360811b901a6118508587611a68565b5360041c92801561186657600019019190611732565b634e487b7160e01b82526011600452602482fd5b634e487b7160e01b83526032600452602483fd5b634e487b7160e01b81526032600452602490fd5b600090808252602090828252604092838120338252835260ff8482205416156118cb5750505050565b6118d433611a8f565b918451906118e1826115e8565b6042825284820192606036853782511561188e576030845382519060019182101561188e5790607860218501536041915b818311611966575050506117de5760486117da9386936117be936117af985198899376020b1b1b2b9b9a1b7b73a3937b61d1030b1b1b7bab73a1604d1b8a860152611786815180928c6037890191016119ac565b909192600f8116601081101561187a576f181899199a1a9b1b9c1cb0b131b232b360811b901a6119968587611a68565b5360041c92801561186657600019019190611912565b60005b8381106119bf5750506000910152565b81810151838201526020016119af565b906020916119e8815180928185528580860191016119ac565b601f01601f1916010190565b9060009180835282602052604083209160018060a01b03169182845260205260ff604084205416611a2457505050565b80835282602052604083208284526020526040832060ff1981541690557ff6391f5c32d9c69d2a47ea670b442974b53935d1edc7fd64eb21e047a839171b339380a4565b908151811015611a79570160200190565b634e487b7160e01b600052603260045260246000fd5b60405190611a9c826115cd565b602a8252602082016040368237825115611a7957603090538151600190811015611a7957607860218401536029905b808211611b1f575050611adb5790565b606460405162461bcd60e51b815260206004820152602060248201527f537472696e67733a20686578206c656e67746820696e73756666696369656e746044820152fd5b9091600f81166010811015611b78576f181899199a1a9b1b9c1cb0b131b232b360811b901a611b4e8486611a68565b5360041c918015611b63576000190190611acb565b60246000634e487b7160e01b81526011600452fd5b60246000634e487b7160e01b81526032600452fd5b6001600160401b0381116107ad5760051b60200190565b9190916101c090818185031261012d576040519182016001600160401b0390838110828211176107ad576040528294611bdc836115a6565b845260208301356020850152611bf4604084016115a6565b6040850152611c05606084016115a6565b60608501526080830135801515810361012d57608085015260a083013560a085015260c083013591821161012d57611c3e918301611676565b60c083015260e081013560e08301526101008082013590830152610120611c668183016115a6565b90830152610140611c78818301611694565b90830152610160611c8a818301611694565b9083015261018080820135908301526101a080910135910152565b9081602091031261012d5751801515810361012d5790565b8051821015611a795760209160051b010190565b60ff60025416611cdd57565b60405162461bcd60e51b815260206004820152601060248201526f14185d5cd8589b194e881c185d5cd95960821b6044820152606490fd5b600260015414611d26576002600155565b60405162461bcd60e51b815260206004820152601f60248201527f5265656e7472616e637947756172643a207265656e7472616e742063616c6c006044820152606490fdfea26469706673582212204751b5d3bb4de4e5ad9ffd762cc9a2ee0a72e1641cdadf94f7ab9ae8cef4542564736f6c63430008110033",
  "linkReferences": {},
  "deployedLinkReferences": {}
}