{
  "_format": "hh-sol-artifact-1",
  "contractName": "GBMarketplace",
  "sourceName": "contracts/GBMarketplace.sol",
  "abi": [
    {
      "inputs": [
        {
          "internalType": "address",
          "name": "owner",
          "type": "address"
        },
        {
          "internalType": "address",
          "name": "adminWallet_",
          "type": "address"
        }
      ],
      "stateMutability": "nonpayable",
      "type": "constructor"
    },
    {
      "anonymous": false,
      "inputs": [
        {
          "indexed": false,
          "internalType": "bool[]",
          "name": "ordersResult",
          "type": "bool[]"
        },
        {
          "indexed": false,
          "internalType": "string[]",
          "name": "ordersStatus",
          "type": "string[]"
        },
        {
          "indexed": false,
          "internalType": "bytes32[]",
          "name": "ordersHash",
          "type": "bytes32[]"
        }
      ],
      "name": "BoughtItem",
      "type": "event"
    },
    {
      "anonymous": false,
      "inputs": [
        {
          "indexed": false,
          "internalType": "bool[]",
          "name": "cancelResults",
          "type": "bool[]"
        },
        {
          "indexed": false,
          "internalType": "string[]",
          "name": "cancelStatus",
          "type": "string[]"
        },
        {
          "indexed": false,
          "internalType": "bytes32[]",
          "name": "ordersHash",
          "type": "bytes32[]"
        }
      ],
      "name": "OrderCancelled",
      "type": "event"
    },
    {
      "anonymous": false,
      "inputs": [
        {
          "indexed": false,
          "internalType": "address",
          "name": "account",
          "type": "address"
        }
      ],
      "name": "Paused",
      "type": "event"
    },
    {
      "anonymous": false,
      "inputs": [
        {
          "indexed": true,
          "internalType": "bytes32",
          "name": "role",
          "type": "bytes32"
        },
        {
          "indexed": true,
          "internalType": "bytes32",
          "name": "previousAdminRole",
          "type": "bytes32"
        },
        {
          "indexed": true,
          "internalType": "bytes32",
          "name": "newAdminRole",
          "type": "bytes32"
        }
      ],
      "name": "RoleAdminChanged",
      "type": "event"
    },
    {
      "anonymous": false,
      "inputs": [
        {
          "indexed": true,
          "internalType": "bytes32",
          "name": "role",
          "type": "bytes32"
        },
        {
          "indexed": true,
          "internalType": "address",
          "name": "account",
          "type": "address"
        },
        {
          "indexed": true,
          "internalType": "address",
          "name": "sender",
          "type": "address"
        }
      ],
      "name": "RoleGranted",
      "type": "event"
    },
    {
      "anonymous": false,
      "inputs": [
        {
          "indexed": true,
          "internalType": "bytes32",
          "name": "role",
          "type": "bytes32"
        },
        {
          "indexed": true,
          "internalType": "address",
          "name": "account",
          "type": "address"
        },
        {
          "indexed": true,
          "internalType": "address",
          "name": "sender",
          "type": "address"
        }
      ],
      "name": "RoleRevoked",
      "type": "event"
    },
    {
      "anonymous": false,
      "inputs": [
        {
          "indexed": false,
          "internalType": "address",
          "name": "account",
          "type": "address"
        }
      ],
      "name": "SetAdminWallet",
      "type": "event"
    },
    {
      "anonymous": false,
      "inputs": [
        {
          "indexed": false,
          "internalType": "address",
          "name": "nftContract",
          "type": "address"
        },
        {
          "indexed": false,
          "internalType": "bool",
          "name": "status",
          "type": "bool"
        }
      ],
      "name": "SetNftContractAddress",
      "type": "event"
    },
    {
      "anonymous": false,
      "inputs": [
        {
          "indexed": false,
          "internalType": "uint96",
          "name": "platformFee",
          "type": "uint96"
        },
        {
          "indexed": false,
          "internalType": "uint8",
          "name": "platformFeeType",
          "type": "uint8"
        }
      ],
      "name": "SetPlatformFee",
      "type": "event"
    },
    {
      "anonymous": false,
      "inputs": [
        {
          "indexed": false,
          "internalType": "address",
          "name": "account",
          "type": "address"
        }
      ],
      "name": "Unpaused",
      "type": "event"
    },
    {
      "anonymous": false,
      "inputs": [
        {
          "indexed": false,
          "internalType": "address",
          "name": "nftContract",
          "type": "address"
        },
        {
          "indexed": false,
          "internalType": "address",
          "name": "owner",
          "type": "address"
        },
        {
          "indexed": false,
          "internalType": "uint256",
          "name": "tokenId",
          "type": "uint256"
        },
        {
          "indexed": false,
          "internalType": "string",
          "name": "tokenURI",
          "type": "string"
        }
      ],
      "name": "UpdatedTokenURI",
      "type": "event"
    },
    {
      "inputs": [],
      "name": "DEFAULT_ADMIN_ROLE",
      "outputs": [
        {
          "internalType": "bytes32",
          "name": "",
          "type": "bytes32"
        }
      ],
      "stateMutability": "view",
      "type": "function"
    },
    {
      "inputs": [
        {
          "components": [
            {
              "components": [
                {
                  "internalType": "address",
                  "name": "nftContract",
                  "type": "address"
                },
                {
                  "internalType": "uint256",
                  "name": "itemType",
                  "type": "uint256"
                },
                {
                  "internalType": "address",
                  "name": "seller",
                  "type": "address"
                },
                {
                  "internalType": "address",
                  "name": "artist",
                  "type": "address"
                },
                {
                  "internalType": "bool",
                  "name": "isMinted",
                  "type": "bool"
                },
                {
                  "internalType": "uint256",
                  "name": "tokenId",
                  "type": "uint256"
                },
                {
                  "internalType": "string",
                  "name": "tokenURI",
                  "type": "string"
                },
                {
                  "internalType": "uint256",
                  "name": "quantity",
                  "type": "uint256"
                },
                {
                  "internalType": "uint256",
                  "name": "itemPrice",
                  "type": "uint256"
                },
                {
                  "internalType": "address",
                  "name": "charityAddress",
                  "type": "address"
                },
                {
                  "internalType": "uint96",
                  "name": "charityShare",
                  "type": "uint96"
                },
                {
                  "internalType": "uint96",
                  "name": "royaltyFee",
                  "type": "uint96"
                },
                {
                  "internalType": "uint256",
                  "name": "deadline",
                  "type": "uint256"
                },
                {
                  "internalType": "uint256",
                  "name": "salt",
                  "type": "uint256"
                }
              ],
              "internalType": "struct OrderItem",
              "name": "orderItem",
              "type": "tuple"
            },
            {
              "internalType": "uint256",
              "name": "additionalAmount",
              "type": "uint256"
            },
            {
              "internalType": "bytes",
              "name": "signature",
              "type": "bytes"
            }
          ],
          "internalType": "struct Order[]",
          "name": "orders",
          "type": "tuple[]"
        }
      ],
      "name": "buyItems",
      "outputs": [],
      "stateMutability": "payable",
      "type": "function"
    },
    {
      "inputs": [
        {
          "components": [
            {
              "internalType": "address",
              "name": "nftContract",
              "type": "address"
            },
            {
              "internalType": "uint256",
              "name": "itemType",
              "type": "uint256"
            },
            {
              "internalType": "address",
              "name": "seller",
              "type": "address"
            },
            {
              "internalType": "address",
              "name": "artist",
              "type": "address"
            },
            {
              "internalType": "bool",
              "name": "isMinted",
              "type": "bool"
            },
            {
              "internalType": "uint256",
              "name": "tokenId",
              "type": "uint256"
            },
            {
              "internalType": "string",
              "name": "tokenURI",
              "type": "string"
            },
            {
              "internalType": "uint256",
              "name": "quantity",
              "type": "uint256"
            },
            {
              "internalType": "uint256",
              "name": "itemPrice",
              "type": "uint256"
            },
            {
              "internalType": "address",
              "name": "charityAddress",
              "type": "address"
            },
            {
              "internalType": "uint96",
              "name": "charityShare",
              "type": "uint96"
            },
            {
              "internalType": "uint96",
              "name": "royaltyFee",
              "type": "uint96"
            },
            {
              "internalType": "uint256",
              "name": "deadline",
              "type": "uint256"
            },
            {
              "internalType": "uint256",
              "name": "salt",
              "type": "uint256"
            }
          ],
          "internalType": "struct OrderItem[]",
          "name": "orderItems",
          "type": "tuple[]"
        }
      ],
      "name": "cancelOrders",
      "outputs": [],
      "stateMutability": "nonpayable",
      "type": "function"
    },
    {
      "inputs": [
        {
          "internalType": "address",
          "name": "",
          "type": "address"
        }
      ],
      "name": "gbNftContracts",
      "outputs": [
        {
          "internalType": "bool",
          "name": "",
          "type": "bool"
        }
      ],
      "stateMutability": "view",
      "type": "function"
    },
    {
      "inputs": [
        {
          "internalType": "bytes32",
          "name": "role",
          "type": "bytes32"
        }
      ],
      "name": "getRoleAdmin",
      "outputs": [
        {
          "internalType": "bytes32",
          "name": "",
          "type": "bytes32"
        }
      ],
      "stateMutability": "view",
      "type": "function"
    },
    {
      "inputs": [
        {
          "internalType": "bytes32",
          "name": "role",
          "type": "bytes32"
        },
        {
          "internalType": "address",
          "name": "account",
          "type": "address"
        }
      ],
      "name": "grantRole",
      "outputs": [],
      "stateMutability": "nonpayable",
      "type": "function"
    },
    {
      "inputs": [
        {
          "internalType": "bytes32",
          "name": "role",
          "type": "bytes32"
        },
        {
          "internalType": "address",
          "name": "account",
          "type": "address"
        }
      ],
      "name": "hasRole",
      "outputs": [
        {
          "internalType": "bool",
          "name": "",
          "type": "bool"
        }
      ],
      "stateMutability": "view",
      "type": "function"
    },
    {
      "inputs": [
        {
          "internalType": "bytes32",
          "name": "",
          "type": "bytes32"
        }
      ],
      "name": "orderCancelled",
      "outputs": [
        {
          "internalType": "bool",
          "name": "",
          "type": "bool"
        }
      ],
      "stateMutability": "view",
      "type": "function"
    },
    {
      "inputs": [
        {
          "internalType": "bytes32",
          "name": "",
          "type": "bytes32"
        }
      ],
      "name": "orderProcessed",
      "outputs": [
        {
          "internalType": "bool",
          "name": "",
          "type": "bool"
        }
      ],
      "stateMutability": "view",
      "type": "function"
    },
    {
      "inputs": [],
      "name": "pause",
      "outputs": [],
      "stateMutability": "nonpayable",
      "type": "function"
    },
    {
      "inputs": [],
      "name": "paused",
      "outputs": [
        {
          "internalType": "bool",
          "name": "",
          "type": "bool"
        }
      ],
      "stateMutability": "view",
      "type": "function"
    },
    {
      "inputs": [],
      "name": "platformFeeFromCharity",
      "outputs": [
        {
          "internalType": "uint96",
          "name": "",
          "type": "uint96"
        }
      ],
      "stateMutability": "view",
      "type": "function"
    },
    {
      "inputs": [],
      "name": "platformFeeFromSeller",
      "outputs": [
        {
          "internalType": "uint96",
          "name": "",
          "type": "uint96"
        }
      ],
      "stateMutability": "view",
      "type": "function"
    },
    {
      "inputs": [
        {
          "internalType": "bytes32",
          "name": "role",
          "type": "bytes32"
        },
        {
          "internalType": "address",
          "name": "account",
          "type": "address"
        }
      ],
      "name": "renounceRole",
      "outputs": [],
      "stateMutability": "nonpayable",
      "type": "function"
    },
    {
      "inputs": [
        {
          "internalType": "bytes32",
          "name": "role",
          "type": "bytes32"
        },
        {
          "internalType": "address",
          "name": "account",
          "type": "address"
        }
      ],
      "name": "revokeRole",
      "outputs": [],
      "stateMutability": "nonpayable",
      "type": "function"
    },
    {
      "inputs": [
        {
          "internalType": "address",
          "name": "adminWallet_",
          "type": "address"
        }
      ],
      "name": "setAdminWallet",
      "outputs": [],
      "stateMutability": "nonpayable",
      "type": "function"
    },
    {
      "inputs": [
        {
          "internalType": "address",
          "name": "nftContractAddress",
          "type": "address"
        },
        {
          "internalType": "bool",
          "name": "isEnabled",
          "type": "bool"
        }
      ],
      "name": "setNftContractAddress",
      "outputs": [],
      "stateMutability": "nonpayable",
      "type": "function"
    },
    {
      "inputs": [
        {
          "internalType": "uint96",
          "name": "platformFee_",
          "type": "uint96"
        },
        {
          "internalType": "uint8",
          "name": "platformFeeType",
          "type": "uint8"
        }
      ],
      "name": "setPlatformFee",
      "outputs": [],
      "stateMutability": "nonpayable",
      "type": "function"
    },
    {
      "inputs": [
        {
          "internalType": "bytes4",
          "name": "interfaceId",
          "type": "bytes4"
        }
      ],
      "name": "supportsInterface",
      "outputs": [
        {
          "internalType": "bool",
          "name": "",
          "type": "bool"
        }
      ],
      "stateMutability": "view",
      "type": "function"
    },
    {
      "inputs": [],
      "name": "unpause",
      "outputs": [],
      "stateMutability": "nonpayable",
      "type": "function"
    },
    {
      "inputs": [
        {
          "internalType": "address",
          "name": "nftContract",
          "type": "address"
        },
        {
          "internalType": "uint256",
          "name": "tokenId",
          "type": "uint256"
        },
        {
          "internalType": "string",
          "name": "tokenURI",
          "type": "string"
        }
      ],
      "name": "updateTokenURI",
      "outputs": [],
      "stateMutability": "nonpayable",
      "type": "function"
    }
  ],
  "bytecode": "0x6101403462000226576001600160401b0362002d9e601f38829003908101601f1916840190838211858310176200021057808591604094859485528339810103126200022657620000508362000247565b6200005f602080950162000247565b908251926200006e846200022b565b600d845260058685016c47424d61726b6574706c61636560981b815287835162000098816200022b565b8381520195640312e302e360dc1b87525190209420958460e052610100968088524660a0528251828101917f8b73c3c69bb8fe3d512ecc4cf759cc79239f7b179b0ffacaa9a75d522b39400f978884528583015260608201524660808201523060a082015260a0815260c08101978189109089111762000210578784525190206080523060c052610120948552600180556002805460ff19908116909155600780546001600160601b031916606417905561027160a31b6001600160a01b03958616176006556000808052808352838120949095168086529382528285205490929060ff1615620001c5575b612b4187878a836200025d843960805183612721015260a051836127ec015260c051836126eb015260e05183612770015251826127960152518161274d0152f35b600191858052858152818620908587525284209182541617905533917f2f8788117e7eff1d82e926ec794901d17c78024a50270940304540a733656f0d8180a4388080808062000184565b634e487b7160e01b600052604160045260246000fd5b600080fd5b604081019081106001600160401b038211176200021057604052565b51906001600160a01b0382168203620002265756fe608080604052600436101561001357600080fd5b60003560e01c90816301ffc9a714611b7e5750806302d94ca814610ec15780630fcd7f8f14610aab578063248a9ca314610a7c57806327df538914610a3d5780632f2ff15d1461098a57806335082933146108bf57806335daf728146107b557806336568abe146107235780633f4ba83a1461068f5780635889bf5e1461065e5780635c975abb1461063b57806368b35a131461060a5780638456cb59146105b057806391d148541461056357806392cacf41146105425780639aefa50314610274578063a217fddf14610258578063c0dd369514610173578063d547741f146101325763df128e9e1461010657600080fd5b3461012d57600036600319011261012d5760206001600160601b0360075416604051908152f35b600080fd5b3461012d57604036600319011261012d57610171600435610151611c17565b9080600052600060205261016c600160406000200154611f44565b612096565b005b3461012d57604036600319011261012d5761018c611c01565b6024359081151580920361012d576101a2611d4a565b6001600160a01b03169081156101fe57816040917f37940b2348bce0015e28074f3a1d2ddc211ad7dfa13f0aef19072b22034ebc979360005260036020528260002060ff1981541660ff831617905582519182526020820152a1005b60405162461bcd60e51b815260206004820152602c60248201527f4e6674436f6e74726163742061646472657373206d757374206e6f742062652060448201526b7a65726f206164647265737360a01b6064820152608490fd5b3461012d57600036600319011261012d57602060405160008152f35b3461012d5760208060031936011261012d576004356001600160401b03811161012d576102a5903690600401611bd1565b916102ae6124ef565b6102b783612253565b926102c181612285565b926102cb82612253565b9260005b83811061030d576040517f15f99f1cf783ec6699f2ff7916a0502d78d1cf20b8c9422ae62c33c66dce90d19080610308888a8c8461241d565b0390a1005b60059080821b8401356101be198536030181121561012d5784019160408301359260018060a01b03841680940361012d5760019333146103ab57505060405161035581611c6f565b602781527f47424d61726b6574706c6163653a20496e76616c6964206f726465722063616e848201526631b2b63632b91760c91b604082015261039882896123d0565b526103a381886123d0565b505b016102cf565b6103b96103be9136906122cf565b6129f3565b6103c883896123d0565b526103d382886123d0565b516000526004845260ff9081604060002054166000146104535750506040516103fb81611c6f565b602b81527f47424d61726b6574706c6163653a204f726465722077617320616c7265616479848201526a1031b0b731b2b63632b21760a91b604082015261044282896123d0565b5261044d81886123d0565b506103a5565b61045d83896123d0565b516000528452604060002054166000146104c45760405161047d81611c6f565b602b81527f47424d61726b6574706c6163653a204f726465722077617320616c7265616479848201526a10383937b1b2b9b9b2b21760a91b604082015261044282896123d0565b81806104d0838b6123d0565b526040516104dd81611c54565b601f81527f47424d61726b6574706c6163653a2043616e63656c6c6564206f726465722e0085820152610510838a6123d0565b5261051b82896123d0565b5061052682886123d0565b516000526004845260406000209060ff198254161790556103a5565b3461012d57600036600319011261012d57602060065460a01c604051908152f35b3461012d57604036600319011261012d5761057c611c17565b600435600052600060205260406000209060018060a01b0316600052602052602060ff604060002054166040519015158152f35b3461012d57600036600319011261012d576105c9611d4a565b6105d16124ef565b600160ff1960025416176002557f62e78cea01bee320cd4e420270b5ea74000d11b0c9f74754ebdbfc544b05a2586020604051338152a1005b3461012d57602036600319011261012d576004356000526005602052602060ff604060002054166040519015158152f35b3461012d57600036600319011261012d57602060ff600254166040519015158152f35b3461012d57602036600319011261012d576004356000526004602052602060ff604060002054166040519015158152f35b3461012d57600036600319011261012d576106a8611d4a565b60025460ff8116156106e75760ff19166002557f5db9ee0a495bf2e6ff9c91a7834c1ba4fdd244a5e8aa4e537bd38aeae4b073aa6020604051338152a1005b60405162461bcd60e51b815260206004820152601460248201527314185d5cd8589b194e881b9bdd081c185d5cd95960621b6044820152606490fd5b3461012d57604036600319011261012d5761073c611c17565b336001600160a01b038216036107585761017190600435612096565b60405162461bcd60e51b815260206004820152602f60248201527f416363657373436f6e74726f6c3a2063616e206f6e6c792072656e6f756e636560448201526e103937b632b9903337b91039b2b63360891b6064820152608490fd5b3461012d57604036600319011261012d576004356001600160601b0381169081810361012d576024359160ff831680930361012d576107f2611d4a565b61271081101561086f577f75822b40f249c484aaeef9e7b5723e5abaf2a9573937a605fec2e69b7cd1e7eb926040928161085757600680546001600160a01b031660a09290921b6001600160a01b0319169190911790555b82519182526020820152a1005b50816001600160601b0319600754161760075561084a565b60405162461bcd60e51b815260206004820152602260248201527f706c6174666f726d466565206d757374206265206c657373207468616e203130604482015261302560f01b6064820152608490fd5b3461012d57602036600319011261012d576108d8611c01565b6108e0611d4a565b6001600160a01b03168015610930576020817f1b651cfd0a3f185590087e7e632381434dfada46f037b9081264f9f5bdbfcd9b926001600160601b0360a01b6006541617600655604051908152a1005b60405162461bcd60e51b815260206004820152602c60248201527f61646d696e57616c6c65742061646472657373206d757374206e6f742062652060448201526b7a65726f206164647265737360a01b6064820152608490fd5b3461012d57604036600319011261012d576004356109a6611c17565b8160005260006020526109c0600160406000200154611f44565b81600052600060205260406000209060018060a01b0316908160005260205260ff60406000205416156109ef57005b8160005260006020526040600020816000526020526040600020600160ff1982541617905533917f2f8788117e7eff1d82e926ec794901d17c78024a50270940304540a733656f0d600080a4005b3461012d57602036600319011261012d576001600160a01b03610a5e611c01565b166000526003602052602060ff604060002054166040519015158152f35b3461012d57602036600319011261012d5760043560005260006020526020600160406000200154604051908152f35b3461012d57606036600319011261012d57610ac4611c01565b6044906024803583356001600160401b03811161012d57610ae9903690600401611d18565b610af1612533565b610af96124ef565b6040516301ffc9a760e01b8082526380ac58cd60e01b60048301526020956001600160a01b0390811695929091878285818a5afa918215610c4557600092610ea2575b508115610e43575b5015610de5578415610d7c578315610d2057846000526003865260ff6040600020541615610cca576040516331a9108f60e11b8152600481018590529086828481895afa918215610c4557600092610c93575b5033911603610c5157833b1561012d576040600091610bd182519889938493630588253160e21b8552886004860152840152820185612071565b038183875af1918215610c45577f2a594f4fdcfb43b211e3fe501443da843ed0daa6e9cc58965e68afb67938f5f295610c2d93610c36575b50604051948594855233908501526040840152608060608401526080830190612071565b0390a160018055005b610c3f90611c41565b86610c09565b6040513d6000823e3d90fd5b847f47424d61726b6574706c6163653a206973206e6f74206e6674206f776e65720087601f6064946040519462461bcd60e51b86526004860152840152820152fd5b9091508681813d8311610cc3575b610cab8183611ca5565b8101031261012d57610cbc90612409565b9088610b97565b503d610ca1565b60405162461bcd60e51b815260048101879052602a818401527f47424d61726b6574706c6163653a20496e76616c6964206e6674436f6e74726181890152696374206164647265737360b01b6064820152608490fd5b60405162461bcd60e51b8152600481018790526030818401527f47424d61726b6574706c6163653a20746f6b656e4964206d7573742062652067818901526f726561746572207468616e207a65726f60801b6064820152608490fd5b60405162461bcd60e51b815260048101879052603b818401527f47424d61726b6574706c6163653a206e6674436f6e7472616374206164647265818901527f7373206d757374206e6f74206265207a65726f206164647265737300000000006064820152608490fd5b60405162461bcd60e51b8152600481018790526032818401527f47424d61726b6574706c6163653a2054686973206973206e6f7420455243373281890152710c4bd15490cc4c4d4d4818dbdb9d1c9858dd60721b6064820152608490fd5b604051908152636cdb3d1360e11b6004820152905086818481895afa908115610c4557600091610e75575b5088610b44565b610e959150873d8911610e9b575b610e8d8183611ca5565b8101906123f1565b88610e6e565b503d610e83565b610eba919250883d8a11610e9b57610e8d8183611ca5565b9089610b3c565b602036600319011261012d576004356001600160401b03811161012d57610eec903690600401611bd1565b90610ef5612533565b610efd6124ef565b3491610f0881612253565b90610f1281612285565b92610f1c82612253565b916000915b818310610f7457505050610c2d90847f2936eb2452e2f53567f08a410dfa6bc4e0e084810986e7cc62d29af7cc13d74b95610f64575b506040519384938461241d565b610f6e9033612589565b85610f57565b9091958660051b820135605e198336030181121561012d5782019060608236031261012d5760405191606083018381106001600160401b03821117611a525760405280356001600160401b03811161012d57610fd390369083016122cf565b83526020810135602084015260408101356001600160401b03811161012d5736601f82840101121561012d5761101191369101803590602001611ce1565b60408301819052825160209093015183519092916000918291906001600160a01b031680611465575050611043612689565b905b61104f8c8a6123d0565b5261105a8b8b6123d0565b526110658a896123d0565b901515905261107489886123d0565b51156114595760006127106101008501516001600160601b03610140870151160204906110a1848361210a565b6001600160601b036007541680611448575b506110d6906110d08360018060a01b036101208a015116926123e4565b90612589565b84516001600160a01b031660009081526003602052604081205460ff1661128a575b6111259261010087015161110c838361210a565b1061123b575b50506006546001600160a01b0316612589565b82516040516301ffc9a760e01b81526380ac58cd60e01b600482015290602090829060249082906001600160a01b03165afa908115610c455760009161121c575b506111a3575b61010060019301519003039661118281866123d0565b51600052600560205260406000208260ff198254161790555b019190610f21565b8251604084015160a08501516001600160a01b03928316959290911690853b1561012d576064600092836040519889948593632142170760e11b8552600485015233602485015260448401525af1908115610c45576001946101009261120d575b5093505061116c565b61121690611c41565b8b611204565b611235915060203d602011610e9b57610e8d8183611ca5565b8a611166565b61128391611251611256926101008a01516123e4565b6123e4565b6110d061126f61271060065460a01c840204809561210a565b9360018060a01b0360608a015116926123e4565b8b80611112565b50608085015115611349575b60018060a01b03855116604060a08701516044610100890151918351948593849263152a902d60e11b8452600484015260248301525afa8015610c4557600091600091611300575b506111259390916112f99083906001600160a01b0316612589565b92506110f8565b9150506040813d604011611341575b8161131c60409383611ca5565b8101031261012d57611125926112f9602061133684612409565b9301519194506112de565b3d915061130f565b84516040516301ffc9a760e01b81526380ac58cd60e01b600482015290602090829060249082906001600160a01b03165afa908115610c4557600091611429575b5015611296578451604086015160a087015161016088015160c0890151936001600160a01b03938416936001600160601b0390921692911690813b1561012d57600080946114056040519788968795869463396ffcb960e21b8652600486015260248501526044840152608060648401526084830190612071565b03925af18015610c455761141a575b50611296565b61142390611c41565b8b611414565b611442915060203d602011610e9b57610e8d8183611ca5565b8c61138a565b6127109082020491506110d66110b3565b9790506001915061119b565b6040516301ffc9a760e01b81526380ac58cd60e01b600482015290602090829060249082905afa908115610c4557600091611b5f575b501580611af7575b156114b757506114b1612689565b90611045565b6080860151151580611a89575b1561151e57506040516114d681611c6f565b602f81527f47424d61726b6574706c6163653a204e465420776173206e6f7420617070726f60208201526e3b32b210333937b69039b2b63632b960891b604082015290611045565b60408601516001600160a01b03163b15611595575060405161153f81611c6f565b603a81527f47424d61726b6574706c6163653a2073656c6c65722061646472657373206d7560208201527f7374206e6f7420626520636f6e74726163742061646472657373000000000000604082015290611045565b6101208601516001600160a01b031661160b57506040516115b581611c6f565b603781527f47424d61726b6574706c6163653a20636861726974792061646472657373206d60208201527f757374206e6f74206265207a65726f2061646472657373000000000000000000604082015290611045565b6001600160601b03610140870151166103e881108015611a7e575b1561168f57505060405161163981611c6f565b603e81527f47424d61726b6574706c6163653a20636861726974792070657263656e74616760208201527f65206d757374206265206265747765656e2031302520616e6420313030250000604082015290611045565b6101608701516001600160601b03169061271082111561170e575050506040516116b881611c6f565b603881527f47424d61726b6574706c6163653a20726f79616c747920666565206d7573742060208201527f6e6f742062652067726561746572207468616e20313030250000000000000000604082015290611045565b6001600160601b0382820111611a685761271091016001600160601b03161115611787575060405161173f81611c6f565b602f81527f47424d61726b6574706c6163653a20746f74616c20666565206d75737420626560208201526e206c657373207468616e203130302560881b604082015290611045565b61010086015185816117ea575050506040516117a281611c6f565b602f81527f47424d61726b6574706c6163653a204e4654205072696365206d75737420626560208201526e02067726561746572207468616e203608c1b604082015290611045565b6117f39161210a565b841015611841575060405161180781611c6f565b602181527f47424d61726b6574706c6163653a20496e73756666696369656e742066756e646020820152607360f81b604082015290611045565b61018086015142111561188b575060405161185b81611c54565b602081527f47424d61726b6574706c6163653a205369676e61747572652065787069726564602082015290611045565b9050611896856129f3565b9081600052600460205260ff80604060002054166000146119015750506040516118bf81611c6f565b602981527f47424d61726b6574706c6163653a204f7264657220697320616c72656164792060208201526818d85b98d95b1b195960ba1b604082015290611045565b60056020526040600020541615611961575060405161191f81611c6f565b602981527f47424d61726b6574706c6163653a204f7264657220697320616c7265616479206020820152681c1c9bd8d95cdcd95960ba1b604082015290611045565b60408601516001600160a01b0316906119786126e8565b6040519061190160f01b602083015260228201526042848183015281528060808101106001600160401b03608083011117611a52576119d0918160806119c893016040526020815191012061292c565b919091612812565b6001600160a01b031614611a1a576040516119ea81611c54565b602081527f47424d61726b6574706c6163653a20496e76616c6964207369676e6174757265602082015290611045565b60405160019250611a2a81611c54565b601581527411d093585c9ad95d1c1b1858d94e8814185cdcd959605a1b602082015290611045565b634e487b7160e01b600052604160045260246000fd5b634e487b7160e01b600052601160045260246000fd5b506127108111611626565b508551604080880151905163e985e9c560e01b81526001600160a01b0391821660048201523060248201529160209183916044918391165afa908115610c4557600091611ad8575b50156114c4565b611af1915060203d602011610e9b57610e8d8183611ca5565b8d611ad1565b5085516040516301ffc9a760e01b8152636cdb3d1360e11b600482015290602090829060249082906001600160a01b03165afa908115610c4557600091611b40575b50156114a3565b611b59915060203d602011610e9b57610e8d8183611ca5565b8d611b39565b611b78915060203d602011610e9b57610e8d8183611ca5565b8d61149b565b3461012d57602036600319011261012d576004359063ffffffff60e01b821680920361012d57602091637965db0b60e01b8114908115611bc0575b5015158152f35b6301ffc9a760e01b14905083611bb9565b9181601f8401121561012d578235916001600160401b03831161012d576020808501948460051b01011161012d57565b600435906001600160a01b038216820361012d57565b602435906001600160a01b038216820361012d57565b35906001600160a01b038216820361012d57565b6001600160401b038111611a5257604052565b604081019081106001600160401b03821117611a5257604052565b606081019081106001600160401b03821117611a5257604052565b608081019081106001600160401b03821117611a5257604052565b90601f801991011681019081106001600160401b03821117611a5257604052565b6001600160401b038111611a5257601f01601f191660200190565b929192611ced82611cc6565b91611cfb6040519384611ca5565b82948184528183011161012d578281602093846000960137010152565b9080601f8301121561012d57816020611d3393359101611ce1565b90565b35906001600160601b038216820361012d57565b3360009081527fad3228b676f7d3cd4284a5443f17f1962b36e491b30a40b2405849e597ba5fb5602090815260408083205490929060ff1615611d8c57505050565b611d953361213e565b9080845190611da382611c8a565b60428252848201926060368537825115611f305760308453825190600191821015611f305790607860218501536041915b818311611ec257505050611e80576048611e7c938693611e6093611e51985198899376020b1b1b2b9b9a1b7b73a3937b61d1030b1b1b7bab73a1604d1b8a860152611e28815180928c60378901910161204e565b8401917001034b99036b4b9b9b4b733903937b6329607d1b60378401525180938684019061204e565b01036028810187520185611ca5565b5192839262461bcd60e51b845260048401526024830190612071565b0390fd5b60648486519062461bcd60e51b825280600483015260248201527f537472696e67733a20686578206c656e67746820696e73756666696369656e746044820152fd5b909192600f81166010811015611f1c576f181899199a1a9b1b9c1cb0b131b232b360811b901a611ef28587612117565b5360041c928015611f0857600019019190611dd4565b634e487b7160e01b82526011600452602482fd5b634e487b7160e01b83526032600452602483fd5b634e487b7160e01b81526032600452602490fd5b600090808252602090828252604092838120338252835260ff848220541615611f6d5750505050565b611f763361213e565b91845190611f8382611c8a565b60428252848201926060368537825115611f305760308453825190600191821015611f305790607860218501536041915b81831161200857505050611e80576048611e7c938693611e6093611e51985198899376020b1b1b2b9b9a1b7b73a3937b61d1030b1b1b7bab73a1604d1b8a860152611e28815180928c60378901910161204e565b909192600f81166010811015611f1c576f181899199a1a9b1b9c1cb0b131b232b360811b901a6120388587612117565b5360041c928015611f0857600019019190611fb4565b60005b8381106120615750506000910152565b8181015183820152602001612051565b9060209161208a8151809281855285808601910161204e565b601f01601f1916010190565b9060009180835282602052604083209160018060a01b03169182845260205260ff6040842054166120c657505050565b80835282602052604083208284526020526040832060ff1981541690557ff6391f5c32d9c69d2a47ea670b442974b53935d1edc7fd64eb21e047a839171b339380a4565b91908201809211611a6857565b908151811015612128570160200190565b634e487b7160e01b600052603260045260246000fd5b6040519061214b82611c6f565b602a82526020820160403682378251156121285760309053815160019081101561212857607860218401536029905b8082116121ce57505061218a5790565b606460405162461bcd60e51b815260206004820152602060248201527f537472696e67733a20686578206c656e67746820696e73756666696369656e746044820152fd5b9091600f81166010811015612227576f181899199a1a9b1b9c1cb0b131b232b360811b901a6121fd8486612117565b5360041c91801561221257600019019061217a565b60246000634e487b7160e01b81526011600452fd5b60246000634e487b7160e01b81526032600452fd5b6001600160401b038111611a525760051b60200190565b9061225d8261223c565b61226a6040519182611ca5565b828152809261227b601f199161223c565b0190602036910137565b9061228f8261223c565b61229c6040519182611ca5565b82815280926122ad601f199161223c565b019060005b8281106122be57505050565b8060606020809385010152016122b2565b9190916101c090818185031261012d576040519182016001600160401b039083811082821117611a5257604052829461230783611c2d565b84526020830135602085015261231f60408401611c2d565b604085015261233060608401611c2d565b60608501526080830135801515810361012d57608085015260a083013560a085015260c083013591821161012d57612369918301611d18565b60c083015260e081013560e08301526101008082013590830152610120612391818301611c2d565b908301526101406123a3818301611d36565b908301526101606123b5818301611d36565b9083015261018080820135908301526101a080910135910152565b80518210156121285760209160051b010190565b91908203918211611a6857565b9081602091031261012d5751801515810361012d5790565b51906001600160a01b038216820361012d57565b91909160608101606082528351809152608082019060208095019060005b8181106124d9575050508181038483015282518082528482019185808360051b8301019501926000915b8383106124aa575050505050604081830391015281808451928381520193019160005b828110612496575050505090565b835185529381019392810192600101612488565b90919293969586806124c8600193601f198682030187528b51612071565b989901959491909101920190612465565b825115158452928601929186019160010161243b565b60ff600254166124fb57565b60405162461bcd60e51b815260206004820152601060248201526f14185d5cd8589b194e881c185d5cd95960821b6044820152606490fd5b600260015414612544576002600155565b60405162461bcd60e51b815260206004820152601f60248201527f5265656e7472616e637947756172643a207265656e7472616e742063616c6c006044820152606490fd5b814710612644576000918291829182916001600160a01b03165af13d1561263f573d6125b481611cc6565b906125c26040519283611ca5565b8152600060203d92013e5b156125d457565b60405162461bcd60e51b815260206004820152603a60248201527f416464726573733a20756e61626c6520746f2073656e642076616c75652c207260448201527f6563697069656e74206d617920686176652072657665727465640000000000006064820152608490fd5b6125cd565b60405162461bcd60e51b815260206004820152601d60248201527f416464726573733a20696e73756666696369656e742062616c616e63650000006044820152606490fd5b6040519061269682611c6f565b603b82527f7373206d757374206e6f74206265207a65726f206164647265737300000000006040837f47424d61726b6574706c6163653a206e6674436f6e747261637420616464726560208201520152565b307f00000000000000000000000000000000000000000000000000000000000000006001600160a01b031614806127e9575b15612743577f000000000000000000000000000000000000000000000000000000000000000090565b60405160208101907f000000000000000000000000000000000000000000000000000000000000000082527f000000000000000000000000000000000000000000000000000000000000000060408201527f000000000000000000000000000000000000000000000000000000000000000060608201524660808201523060a082015260a0815260c081018181106001600160401b03821117611a525760405251902090565b507f0000000000000000000000000000000000000000000000000000000000000000461461271a565b600581101561291657806128235750565b600181036128705760405162461bcd60e51b815260206004820152601860248201527f45434453413a20696e76616c6964207369676e617475726500000000000000006044820152606490fd5b600281036128bd5760405162461bcd60e51b815260206004820152601f60248201527f45434453413a20696e76616c6964207369676e6174757265206c656e677468006044820152606490fd5b6003146128c657565b60405162461bcd60e51b815260206004820152602260248201527f45434453413a20696e76616c6964207369676e6174757265202773272076616c604482015261756560f01b6064820152608490fd5b634e487b7160e01b600052602160045260246000fd5b90604181511460001461295a57612956916020820151906060604084015193015160001a90612964565b9091565b5050600090600290565b9291907f7fffffffffffffffffffffffffffffff5d576e7357a4501ddfe92f46681b20a083116129e75791608094939160ff602094604051948552168484015260408301526060820152600093849182805260015afa156129da5781516001600160a01b038116156129d4579190565b50600190565b50604051903d90823e3d90fd5b50505050600090600390565b60018060a01b03808251169160208101519180604083015116908060608401511690608084015115159060a085015160c08601516020815191012060e0870151916101008801519361012089015116946001600160601b0396876101408b015116976101608b015116986101a06101808c01519b01519b60606040519e8f907f51a2c7a72ca7ccbf8ee583e8eeaede48c40bfd027939c3cbd4f474227d6b059a60208301526040820152015260808d015260a08c015260c08b015260e08a01526101008901526101208801526101408701526101608601526101808501526101a08401526101c08301526101e09081830152815261020081018181106001600160401b03821117611a5257604052602081519101209056fea26469706673582212209ddbe8afbcdb97e147605c3ca4be8d497989a4e85fe0631553133e57e67201f764736f6c63430008110033",
  "linkReferences": {},
  "deployedLinkReferences": {}
}