{
  "_format": "hh-sol-artifact-1",
  "contractName": "GBMarketplace",
  "sourceName": "contracts/GBMarketplace.sol",
  "abi": [
    {
      "inputs": [
        {
          "internalType": "address",
          "name": "owner",
          "type": "address"
        },
        {
          "internalType": "address",
          "name": "adminWallet_",
          "type": "address"
        }
      ],
      "stateMutability": "nonpayable",
      "type": "constructor"
    },
    {
      "anonymous": false,
      "inputs": [
        {
          "components": [
            {
              "internalType": "address",
              "name": "nftContract",
              "type": "address"
            },
            {
              "internalType": "address",
              "name": "seller",
              "type": "address"
            },
            {
              "internalType": "bool",
              "name": "isMinted",
              "type": "bool"
            },
            {
              "internalType": "uint256",
              "name": "tokenId",
              "type": "uint256"
            },
            {
              "internalType": "string",
              "name": "tokenURI",
              "type": "string"
            },
            {
              "internalType": "uint256",
              "name": "quantity",
              "type": "uint256"
            },
            {
              "internalType": "uint256",
              "name": "itemPrice",
              "type": "uint256"
            },
            {
              "internalType": "uint256",
              "name": "additionalPrice",
              "type": "uint256"
            },
            {
              "internalType": "address",
              "name": "charityAddress",
              "type": "address"
            },
            {
              "internalType": "uint96",
              "name": "charityFee",
              "type": "uint96"
            },
            {
              "internalType": "uint96",
              "name": "royaltyFee",
              "type": "uint96"
            },
            {
              "internalType": "uint256",
              "name": "deadline",
              "type": "uint256"
            }
          ],
          "indexed": false,
          "internalType": "struct OrderItem",
          "name": "item",
          "type": "tuple"
        },
        {
          "indexed": false,
          "internalType": "bytes32",
          "name": "orderHash",
          "type": "bytes32"
        }
      ],
      "name": "BoughtItem",
      "type": "event"
    },
    {
      "anonymous": false,
      "inputs": [
        {
          "indexed": false,
          "internalType": "bytes32",
          "name": "orderHash",
          "type": "bytes32"
        },
        {
          "indexed": false,
          "internalType": "address",
          "name": "account",
          "type": "address"
        }
      ],
      "name": "OrderCancelled",
      "type": "event"
    },
    {
      "anonymous": false,
      "inputs": [
        {
          "indexed": false,
          "internalType": "address",
          "name": "account",
          "type": "address"
        }
      ],
      "name": "Paused",
      "type": "event"
    },
    {
      "anonymous": false,
      "inputs": [
        {
          "indexed": true,
          "internalType": "bytes32",
          "name": "role",
          "type": "bytes32"
        },
        {
          "indexed": true,
          "internalType": "bytes32",
          "name": "previousAdminRole",
          "type": "bytes32"
        },
        {
          "indexed": true,
          "internalType": "bytes32",
          "name": "newAdminRole",
          "type": "bytes32"
        }
      ],
      "name": "RoleAdminChanged",
      "type": "event"
    },
    {
      "anonymous": false,
      "inputs": [
        {
          "indexed": true,
          "internalType": "bytes32",
          "name": "role",
          "type": "bytes32"
        },
        {
          "indexed": true,
          "internalType": "address",
          "name": "account",
          "type": "address"
        },
        {
          "indexed": true,
          "internalType": "address",
          "name": "sender",
          "type": "address"
        }
      ],
      "name": "RoleGranted",
      "type": "event"
    },
    {
      "anonymous": false,
      "inputs": [
        {
          "indexed": true,
          "internalType": "bytes32",
          "name": "role",
          "type": "bytes32"
        },
        {
          "indexed": true,
          "internalType": "address",
          "name": "account",
          "type": "address"
        },
        {
          "indexed": true,
          "internalType": "address",
          "name": "sender",
          "type": "address"
        }
      ],
      "name": "RoleRevoked",
      "type": "event"
    },
    {
      "anonymous": false,
      "inputs": [
        {
          "indexed": false,
          "internalType": "address",
          "name": "account",
          "type": "address"
        }
      ],
      "name": "SetAdminWallet",
      "type": "event"
    },
    {
      "anonymous": false,
      "inputs": [
        {
          "indexed": false,
          "internalType": "address",
          "name": "nftContract",
          "type": "address"
        },
        {
          "indexed": false,
          "internalType": "bool",
          "name": "status",
          "type": "bool"
        }
      ],
      "name": "SetNftContractAddress",
      "type": "event"
    },
    {
      "anonymous": false,
      "inputs": [
        {
          "indexed": false,
          "internalType": "uint96",
          "name": "platformFee",
          "type": "uint96"
        }
      ],
      "name": "SetPlatformFee",
      "type": "event"
    },
    {
      "anonymous": false,
      "inputs": [
        {
          "indexed": false,
          "internalType": "address",
          "name": "account",
          "type": "address"
        }
      ],
      "name": "Unpaused",
      "type": "event"
    },
    {
      "anonymous": false,
      "inputs": [
        {
          "indexed": false,
          "internalType": "address",
          "name": "nftContract",
          "type": "address"
        },
        {
          "indexed": false,
          "internalType": "address",
          "name": "owner",
          "type": "address"
        },
        {
          "indexed": false,
          "internalType": "uint256",
          "name": "tokenId",
          "type": "uint256"
        },
        {
          "indexed": false,
          "internalType": "string",
          "name": "tokenURI",
          "type": "string"
        }
      ],
      "name": "UpdatedTokenURI",
      "type": "event"
    },
    {
      "inputs": [],
      "name": "DEFAULT_ADMIN_ROLE",
      "outputs": [
        {
          "internalType": "bytes32",
          "name": "",
          "type": "bytes32"
        }
      ],
      "stateMutability": "view",
      "type": "function"
    },
    {
      "inputs": [
        {
          "components": [
            {
              "components": [
                {
                  "internalType": "address",
                  "name": "nftContract",
                  "type": "address"
                },
                {
                  "internalType": "address",
                  "name": "seller",
                  "type": "address"
                },
                {
                  "internalType": "bool",
                  "name": "isMinted",
                  "type": "bool"
                },
                {
                  "internalType": "uint256",
                  "name": "tokenId",
                  "type": "uint256"
                },
                {
                  "internalType": "string",
                  "name": "tokenURI",
                  "type": "string"
                },
                {
                  "internalType": "uint256",
                  "name": "quantity",
                  "type": "uint256"
                },
                {
                  "internalType": "uint256",
                  "name": "itemPrice",
                  "type": "uint256"
                },
                {
                  "internalType": "uint256",
                  "name": "additionalPrice",
                  "type": "uint256"
                },
                {
                  "internalType": "address",
                  "name": "charityAddress",
                  "type": "address"
                },
                {
                  "internalType": "uint96",
                  "name": "charityFee",
                  "type": "uint96"
                },
                {
                  "internalType": "uint96",
                  "name": "royaltyFee",
                  "type": "uint96"
                },
                {
                  "internalType": "uint256",
                  "name": "deadline",
                  "type": "uint256"
                }
              ],
              "internalType": "struct OrderItem",
              "name": "orderItem",
              "type": "tuple"
            },
            {
              "internalType": "bytes",
              "name": "signature",
              "type": "bytes"
            }
          ],
          "internalType": "struct Order[]",
          "name": "orders",
          "type": "tuple[]"
        }
      ],
      "name": "buyItems",
      "outputs": [
        {
          "internalType": "bool[]",
          "name": "ordersResult",
          "type": "bool[]"
        },
        {
          "internalType": "string[]",
          "name": "ordersStatus",
          "type": "string[]"
        },
        {
          "internalType": "bytes32[]",
          "name": "ordersHash",
          "type": "bytes32[]"
        }
      ],
      "stateMutability": "payable",
      "type": "function"
    },
    {
      "inputs": [
        {
          "components": [
            {
              "internalType": "address",
              "name": "nftContract",
              "type": "address"
            },
            {
              "internalType": "address",
              "name": "seller",
              "type": "address"
            },
            {
              "internalType": "bool",
              "name": "isMinted",
              "type": "bool"
            },
            {
              "internalType": "uint256",
              "name": "tokenId",
              "type": "uint256"
            },
            {
              "internalType": "string",
              "name": "tokenURI",
              "type": "string"
            },
            {
              "internalType": "uint256",
              "name": "quantity",
              "type": "uint256"
            },
            {
              "internalType": "uint256",
              "name": "itemPrice",
              "type": "uint256"
            },
            {
              "internalType": "uint256",
              "name": "additionalPrice",
              "type": "uint256"
            },
            {
              "internalType": "address",
              "name": "charityAddress",
              "type": "address"
            },
            {
              "internalType": "uint96",
              "name": "charityFee",
              "type": "uint96"
            },
            {
              "internalType": "uint96",
              "name": "royaltyFee",
              "type": "uint96"
            },
            {
              "internalType": "uint256",
              "name": "deadline",
              "type": "uint256"
            }
          ],
          "internalType": "struct OrderItem[]",
          "name": "orderItems",
          "type": "tuple[]"
        }
      ],
      "name": "cancelOrders",
      "outputs": [
        {
          "internalType": "bool[]",
          "name": "cancelResults",
          "type": "bool[]"
        },
        {
          "internalType": "string[]",
          "name": "cancelStatus",
          "type": "string[]"
        }
      ],
      "stateMutability": "nonpayable",
      "type": "function"
    },
    {
      "inputs": [
        {
          "internalType": "address",
          "name": "",
          "type": "address"
        }
      ],
      "name": "gbNftContracts",
      "outputs": [
        {
          "internalType": "bool",
          "name": "",
          "type": "bool"
        }
      ],
      "stateMutability": "view",
      "type": "function"
    },
    {
      "inputs": [
        {
          "internalType": "bytes32",
          "name": "role",
          "type": "bytes32"
        }
      ],
      "name": "getRoleAdmin",
      "outputs": [
        {
          "internalType": "bytes32",
          "name": "",
          "type": "bytes32"
        }
      ],
      "stateMutability": "view",
      "type": "function"
    },
    {
      "inputs": [
        {
          "internalType": "bytes32",
          "name": "role",
          "type": "bytes32"
        },
        {
          "internalType": "address",
          "name": "account",
          "type": "address"
        }
      ],
      "name": "grantRole",
      "outputs": [],
      "stateMutability": "nonpayable",
      "type": "function"
    },
    {
      "inputs": [
        {
          "internalType": "bytes32",
          "name": "role",
          "type": "bytes32"
        },
        {
          "internalType": "address",
          "name": "account",
          "type": "address"
        }
      ],
      "name": "hasRole",
      "outputs": [
        {
          "internalType": "bool",
          "name": "",
          "type": "bool"
        }
      ],
      "stateMutability": "view",
      "type": "function"
    },
    {
      "inputs": [
        {
          "internalType": "bytes32",
          "name": "",
          "type": "bytes32"
        }
      ],
      "name": "orderCancelled",
      "outputs": [
        {
          "internalType": "bool",
          "name": "",
          "type": "bool"
        }
      ],
      "stateMutability": "view",
      "type": "function"
    },
    {
      "inputs": [],
      "name": "pause",
      "outputs": [],
      "stateMutability": "nonpayable",
      "type": "function"
    },
    {
      "inputs": [],
      "name": "paused",
      "outputs": [
        {
          "internalType": "bool",
          "name": "",
          "type": "bool"
        }
      ],
      "stateMutability": "view",
      "type": "function"
    },
    {
      "inputs": [],
      "name": "platformFee",
      "outputs": [
        {
          "internalType": "uint96",
          "name": "",
          "type": "uint96"
        }
      ],
      "stateMutability": "view",
      "type": "function"
    },
    {
      "inputs": [
        {
          "internalType": "bytes32",
          "name": "role",
          "type": "bytes32"
        },
        {
          "internalType": "address",
          "name": "account",
          "type": "address"
        }
      ],
      "name": "renounceRole",
      "outputs": [],
      "stateMutability": "nonpayable",
      "type": "function"
    },
    {
      "inputs": [
        {
          "internalType": "bytes32",
          "name": "role",
          "type": "bytes32"
        },
        {
          "internalType": "address",
          "name": "account",
          "type": "address"
        }
      ],
      "name": "revokeRole",
      "outputs": [],
      "stateMutability": "nonpayable",
      "type": "function"
    },
    {
      "inputs": [
        {
          "internalType": "address",
          "name": "adminWallet_",
          "type": "address"
        }
      ],
      "name": "setAdminWallet",
      "outputs": [],
      "stateMutability": "nonpayable",
      "type": "function"
    },
    {
      "inputs": [
        {
          "internalType": "address",
          "name": "nftContractAddress",
          "type": "address"
        },
        {
          "internalType": "bool",
          "name": "isEnabled",
          "type": "bool"
        }
      ],
      "name": "setNftContractAddress",
      "outputs": [],
      "stateMutability": "nonpayable",
      "type": "function"
    },
    {
      "inputs": [
        {
          "internalType": "uint96",
          "name": "platformFee_",
          "type": "uint96"
        }
      ],
      "name": "setPlatformFee",
      "outputs": [],
      "stateMutability": "nonpayable",
      "type": "function"
    },
    {
      "inputs": [
        {
          "internalType": "bytes4",
          "name": "interfaceId",
          "type": "bytes4"
        }
      ],
      "name": "supportsInterface",
      "outputs": [
        {
          "internalType": "bool",
          "name": "",
          "type": "bool"
        }
      ],
      "stateMutability": "view",
      "type": "function"
    },
    {
      "inputs": [],
      "name": "unpause",
      "outputs": [],
      "stateMutability": "nonpayable",
      "type": "function"
    },
    {
      "inputs": [
        {
          "internalType": "address",
          "name": "nftContract",
          "type": "address"
        },
        {
          "internalType": "uint256",
          "name": "tokenId",
          "type": "uint256"
        },
        {
          "internalType": "string",
          "name": "tokenURI",
          "type": "string"
        }
      ],
      "name": "updateTokenURI",
      "outputs": [],
      "stateMutability": "nonpayable",
      "type": "function"
    }
  ],
  "bytecode": "0x610140604052600580546001600160a01b0316607d60a11b1790553480156200002757600080fd5b506040516200308f3803806200308f8339810160408190526200004a916200024b565b604080518082018252600d81526c47424d61726b6574706c61636560981b6020808301918252835180850190945260058452640312e302e360dc1b908401528151902060e08190527f06c015bd22b4c69690933c1058878ebdfef31f9aaae40bbe86d8a09fe1b2972c6101008190524660a0529192917f8b73c3c69bb8fe3d512ecc4cf759cc79239f7b179b0ffacaa9a75d522b39400f620001318184846040805160208101859052908101839052606081018290524660808201523060a082015260009060c0016040516020818303038152906040528051906020012090509392505050565b6080523060c0526101205250506001805550506002805460ff19169055600580546001600160a01b0319166001600160a01b038316179055620001766000836200017e565b505062000283565b6200018a82826200018e565b5050565b6000828152602081815260408083206001600160a01b038516845290915290205460ff166200018a576000828152602081815260408083206001600160a01b03851684529091529020805460ff19166001179055620001ea3390565b6001600160a01b0316816001600160a01b0316837f2f8788117e7eff1d82e926ec794901d17c78024a50270940304540a733656f0d60405160405180910390a45050565b80516001600160a01b03811681146200024657600080fd5b919050565b600080604083850312156200025f57600080fd5b6200026a836200022e565b91506200027a602084016200022e565b90509250929050565b60805160a05160c05160e0516101005161012051612dbc620002d36000396000611f2f01526000611f7e01526000611f5901526000611eb201526000611edc01526000611f060152612dbc6000f3fe6080604052600436106101145760003560e01c80635889bf5e116100a0578063a217fddf11610064578063a217fddf14610331578063a90f5b8414610346578063c0dd369514610374578063d547741f14610394578063f99e5dbb146103b457600080fd5b80635889bf5e146102925780635c975abb146102c25780638456cb59146102da57806391d14854146102ef578063a07eb78b1461030f57600080fd5b806327df5389116100e757806327df5389146101ed5780632f2ff15d1461021d578063350829331461023d57806336568abe1461025d5780633f4ba83a1461027d57600080fd5b806301ffc9a7146101195780630fcd7f8f1461014e578063248a9ca31461017057806326232a2e146101ae575b600080fd5b34801561012557600080fd5b50610139610134366004612243565b6103d4565b60405190151581526020015b60405180910390f35b34801561015a57600080fd5b5061016e610169366004612366565b6103e5565b005b34801561017c57600080fd5b506101a061018b3660046123be565b60009081526020819052604090206001015490565b604051908152602001610145565b3480156101ba57600080fd5b506005546101d590600160a01b90046001600160601b031681565b6040516001600160601b039091168152602001610145565b3480156101f957600080fd5b506101396102083660046123d7565b60036020526000908152604090205460ff1681565b34801561022957600080fd5b5061016e6102383660046123f4565b61081e565b34801561024957600080fd5b5061016e6102583660046123d7565b610843565b34801561026957600080fd5b5061016e6102783660046123f4565b61090f565b34801561028957600080fd5b5061016e61098d565b34801561029e57600080fd5b506101396102ad3660046123be565b60046020526000908152604090205460ff1681565b3480156102ce57600080fd5b5060025460ff16610139565b3480156102e657600080fd5b5061016e6109a3565b3480156102fb57600080fd5b5061013961030a3660046123f4565b6109b6565b61032261031d366004612468565b6109df565b6040516101459392919061258b565b34801561033d57600080fd5b506101a0600081565b34801561035257600080fd5b50610366610361366004612468565b610f6f565b6040516101459291906125f4565b34801561038057600080fd5b5061016e61038f36600461263b565b611155565b3480156103a057600080fd5b5061016e6103af3660046123f4565b61122f565b3480156103c057600080fd5b5061016e6103cf366004612680565b611254565b60006103df8261131c565b92915050565b6103ed611351565b6103f56113aa565b6040516301ffc9a760e01b815283906001600160a01b038216906301ffc9a79061042a906380ac58cd60e01b9060040161269b565b602060405180830381865afa158015610447573d6000803e3d6000fd5b505050506040513d601f19601f8201168201806040525081019061046b91906126b0565b806104e557506040516301ffc9a760e01b81526001600160a01b038216906301ffc9a7906104a490636cdb3d1360e11b9060040161269b565b602060405180830381865afa1580156104c1573d6000803e3d6000fd5b505050506040513d601f19601f820116820180604052508101906104e591906126b0565b6105515760405162461bcd60e51b815260206004820152603260248201527f47424d61726b6574706c6163653a2054686973206973206e6f742045524337326044820152710c4bd15490cc4c4d4d4818dbdb9d1c9858dd60721b60648201526084015b60405180910390fd5b6001600160a01b0384166105cd5760405162461bcd60e51b815260206004820152603b60248201527f47424d61726b6574706c6163653a206e6674436f6e747261637420616464726560448201527f7373206d757374206e6f74206265207a65726f206164647265737300000000006064820152608401610548565b600083116106365760405162461bcd60e51b815260206004820152603060248201527f47424d61726b6574706c6163653a20746f6b656e4964206d757374206265206760448201526f726561746572207468616e207a65726f60801b6064820152608401610548565b6001600160a01b03841660009081526003602052604090205460ff166106b15760405162461bcd60e51b815260206004820152602a60248201527f47424d61726b6574706c6163653a20496e76616c6964206e6674436f6e7472616044820152696374206164647265737360b01b6064820152608401610548565b6040516331a9108f60e11b81526004810184905233906001600160a01b03861690636352211e90602401602060405180830381865afa1580156106f8573d6000803e3d6000fd5b505050506040513d601f19601f8201168201806040525081019061071c91906126cd565b6001600160a01b0316146107725760405162461bcd60e51b815260206004820152601f60248201527f47424d61726b6574706c6163653a206973206e6f74206e6674206f776e6572006044820152606401610548565b604051630588253160e21b81526001600160a01b0385169063162094c4906107a090869086906004016126ea565b600060405180830381600087803b1580156107ba57600080fd5b505af11580156107ce573d6000803e3d6000fd5b505050507f2a594f4fdcfb43b211e3fe501443da843ed0daa6e9cc58965e68afb67938f5f284338585604051610807949392919061270b565b60405180910390a15061081960018055565b505050565b600082815260208190526040902060010154610839816113f2565b61081983836113fc565b600061084e816113f2565b6001600160a01b0382166108b95760405162461bcd60e51b815260206004820152602c60248201527f61646d696e57616c6c65742061646472657373206d757374206e6f742062652060448201526b7a65726f206164647265737360a01b6064820152608401610548565b600580546001600160a01b0319166001600160a01b0384169081179091556040519081527f1b651cfd0a3f185590087e7e632381434dfada46f037b9081264f9f5bdbfcd9b906020015b60405180910390a15050565b6001600160a01b038116331461097f5760405162461bcd60e51b815260206004820152602f60248201527f416363657373436f6e74726f6c3a2063616e206f6e6c792072656e6f756e636560448201526e103937b632b9903337b91039b2b63360891b6064820152608401610548565b6109898282611480565b5050565b6000610998816113f2565b6109a06114e5565b50565b60006109ae816113f2565b6109a0611537565b6000918252602082815260408084206001600160a01b0393909316845291905290205460ff1690565b60608060606109ec611351565b6109f46113aa565b3484806001600160401b03811115610a0e57610a0e612292565b604051908082528060200260200182016040528015610a37578160200160208202803683370190505b509450806001600160401b03811115610a5257610a52612292565b604051908082528060200260200182016040528015610a8557816020015b6060815260200190600190039081610a705790505b509350806001600160401b03811115610aa057610aa0612292565b604051908082528060200260200182016040528015610ac9578160200160208202803683370190505b50925060005b81811015610f5c576000888883818110610aeb57610aeb612748565b9050602002810190610afd919061275e565b610b0690612864565b8051602082015191925090610b1c828288611574565b8b8781518110610b2e57610b2e612748565b602002602001018b8881518110610b4757610b47612748565b602002602001018b8981518110610b6057610b60612748565b60200260200101838152508390528315151515815250505050888481518110610b8b57610b8b612748565b6020026020010151610b9f57505050610acf565b60c08201516101208301516000916127106001600160601b0390921602049050610bdd8361010001518460e0015183610bd89190612913565b6119ab565b60c08301516005546127106001600160601b03600160a01b8304169092029190910490610c13906001600160a01b0316826119ab565b83516001600160a01b0316600090815260036020526040812054819060ff1615610dc0578560400151610d365785516040516301ffc9a760e01b81526001600160a01b03909116906301ffc9a790610c76906380ac58cd60e01b9060040161269b565b602060405180830381865afa158015610c93573d6000803e3d6000fd5b505050506040513d601f19601f82011682018060405250810190610cb791906126b0565b15610d365785600001516001600160a01b031663e5bff2e4876020015188606001518961014001518a608001516040518563ffffffff1660e01b8152600401610d039493929190612926565b600060405180830381600087803b158015610d1d57600080fd5b505af1158015610d31573d6000803e3d6000fd5b505050505b8551606087015160c088015160405163152a902d60e11b8152600481019290925260248201526001600160a01b0390911690632a55205a906044016040805180830381865afa158015610d8d573d6000803e3d6000fd5b505050506040513d601f19601f82011682018060405250810190610db1919061295c565b9092509050610dc082826119ab565b60c0860151848201840190811015610de657610de68760200151828960c00151036119ab565b5085516040516301ffc9a760e01b81526001600160a01b03909116906301ffc9a790610e1d906380ac58cd60e01b9060040161269b565b602060405180830381865afa158015610e3a573d6000803e3d6000fd5b505050506040513d601f19601f82011682018060405250810190610e5e91906126b0565b15610eef5785600001516001600160a01b03166342842e0e8760200151610e823390565b60608a01516040516001600160e01b031960e086901b1681526001600160a01b0393841660048201529290911660248301526044820152606401600060405180830381600087803b158015610ed657600080fd5b505af1158015610eea573d6000803e3d6000fd5b505050505b7f8b56b296fc7e02c2257135d15035e14618bc25e4c4dd2bb7a13b2233f2c585f1868c8a81518110610f2357610f23612748565b6020026020010151604051610f3992919061298a565b60405180910390a18560e001518660c001518b0303995050505050505050610acf565b505050610f6860018055565b9250925092565b60608082806001600160401b03811115610f8b57610f8b612292565b604051908082528060200260200182016040528015610fb4578160200160208202803683370190505b509250806001600160401b03811115610fcf57610fcf612292565b60405190808252806020026020018201604052801561100257816020015b6060815260200190600190039081610fed5790505b50915060005b8481101561114c573686868381811061102357611023612748565b90506020028101906110359190612a7f565b905061104760408201602083016123d7565b6001600160a01b0316336001600160a01b03161461109a57604051806060016040528060278152602001612bb76027913984838151811061108a5761108a612748565b6020026020010181905250611146565b60018583815181106110ae576110ae612748565b9115156020928302919091019091015260006110d16110cc83612a96565b611ac4565b600081815260046020908152604091829020805460ff191660011790559192507fa6eb7cdc219e1518ced964e9a34e61d68a94e4f1569db3e84256ba981ba52753918391611124919086019086016123d7565b604080519283526001600160a01b0390911660208301520160405180910390a1505b50611008565b50509250929050565b6000611160816113f2565b6001600160a01b0383166111cb5760405162461bcd60e51b815260206004820152602c60248201527f4e6674436f6e74726163742061646472657373206d757374206e6f742062652060448201526b7a65726f206164647265737360a01b6064820152608401610548565b6001600160a01b038316600081815260036020908152604091829020805460ff19168615159081179091558251938452908301527f37940b2348bce0015e28074f3a1d2ddc211ad7dfa13f0aef19072b22034ebc97910160405180910390a1505050565b60008281526020819052604090206001015461124a816113f2565b6108198383611480565b600061125f816113f2565b6000826001600160601b0316116112c65760405162461bcd60e51b815260206004820152602560248201527f706c6174666f726d466565206d7573742062652067726561746572207468616e604482015264207a65726f60d81b6064820152608401610548565b600580546001600160a01b0316600160a01b6001600160601b038516908102919091179091556040519081527fbe3599c33046219ddc3706f4b99caca706dc0f53775580d18a367dc2188c96e590602001610903565b60006001600160e01b03198216637965db0b60e01b14806103df57506301ffc9a760e01b6001600160e01b03198316146103df565b6002600154036113a35760405162461bcd60e51b815260206004820152601f60248201527f5265656e7472616e637947756172643a207265656e7472616e742063616c6c006044820152606401610548565b6002600155565b60025460ff16156113f05760405162461bcd60e51b815260206004820152601060248201526f14185d5cd8589b194e881c185d5cd95960821b6044820152606401610548565b565b6109a08133611bd8565b61140682826109b6565b610989576000828152602081815260408083206001600160a01b03851684529091529020805460ff1916600117905561143c3390565b6001600160a01b0316816001600160a01b0316837f2f8788117e7eff1d82e926ec794901d17c78024a50270940304540a733656f0d60405160405180910390a45050565b61148a82826109b6565b15610989576000828152602081815260408083206001600160a01b0385168085529252808320805460ff1916905551339285917ff6391f5c32d9c69d2a47ea670b442974b53935d1edc7fd64eb21e047a839171b9190a45050565b6114ed611c31565b6002805460ff191690557f5db9ee0a495bf2e6ff9c91a7834c1ba4fdd244a5e8aa4e537bd38aeae4b073aa335b6040516001600160a01b03909116815260200160405180910390a1565b61153f6113aa565b6002805460ff191660011790557f62e78cea01bee320cd4e420270b5ea74000d11b0c9f74754ebdbfc544b05a25861151a3390565b825160009060609082906001600160a01b03166115ab576040518060600160405280603b8152602001612bde603b913991506119a2565b85516040516301ffc9a760e01b81526001600160a01b03909116906301ffc9a7906115e1906380ac58cd60e01b9060040161269b565b602060405180830381865afa1580156115fe573d6000803e3d6000fd5b505050506040513d601f19601f8201168201806040525081019061162291906126b0565b1580156116a3575085516040516301ffc9a760e01b81526001600160a01b03909116906301ffc9a79061166090636cdb3d1360e11b9060040161269b565b602060405180830381865afa15801561167d573d6000803e3d6000fd5b505050506040513d601f19601f820116820180604052508101906116a191906126b0565b155b156116c8576040518060600160405280603b8152602001612bde603b913991506119a2565b60208601516001600160a01b03163b156116fc576040518060600160405280603a8152602001612c51603a913991506119a2565b6101008601516001600160a01b031661172f57604051806060016040528060378152602001612c8b6037913991506119a2565b6103e88661012001516001600160601b0316108061175c57506127108661012001516001600160601b0316115b15611781576040518060600160405280603e8152602001612d20603e913991506119a2565b6127108661014001516001600160601b031611156117b957604051806060016040528060388152602001612c196038913991506119a2565b612710866101400151600560149054906101000a90046001600160601b03168861012001516117e89190612aa2565b6117f29190612aa2565b6001600160601b03161115611821576040518060600160405280602f8152602001612cc2602f913991506119a2565b8560c0015160000361184d576040518060600160405280602f8152602001612cf1602f913991506119a2565b8560e001518660c001516118619190612913565b84101561188857604051806060016040528060218152602001612b966021913991506119a2565b4286610160015110156118d2576040518060400160405280602081526020017f47424d61726b6574706c6163653a205369676e6174757265206578706972656481525091506119a2565b6118db86611ac4565b60008181526004602052604090205490915060ff161561191557604051806060016040528060298152602001612d5e6029913991506119a2565b61192c866020015161192683611c7a565b87611cc8565b61196d576040518060400160405280602081526020017f47424d61726b6574706c6163653a20496e76616c6964207369676e617475726581525091506119a2565b600192506040518060400160405280601581526020017411d093585c9ad95d1c1b1858d94e8814185cdcd959605a1b81525091505b93509350939050565b804710156119fb5760405162461bcd60e51b815260206004820152601d60248201527f416464726573733a20696e73756666696369656e742062616c616e63650000006044820152606401610548565b6000826001600160a01b03168260405160006040518083038185875af1925050503d8060008114611a48576040519150601f19603f3d011682016040523d82523d6000602084013e611a4d565b606091505b50509050806108195760405162461bcd60e51b815260206004820152603a60248201527f416464726573733a20756e61626c6520746f2073656e642076616c75652c207260448201527f6563697069656e74206d617920686176652072657665727465640000000000006064820152608401610548565b60007f746acdb0316790c6d1f8d2ebc2ea0c2484fdd348a1db80092fec1947edaad1f982600001518360200151846040015185606001518660800151805190602001208760a001518860c001518960e001518a61010001518b61012001518c61014001518d6101600151604051602001611bbb9d9c9b9a999897969594939291909c8d526001600160a01b039b8c1660208e0152998b1660408d015297151560608c015260808b019690965260a08a019490945260c089019290925260e08801526101008701529093166101208501526001600160601b039283166101408501529091166101608301526101808201526101a00190565b604051602081830303815290604052805190602001209050919050565b611be282826109b6565b61098957611bef81611cf1565b611bfa836020611d03565b604051602001611c0b929190612ac9565b60408051601f198184030181529082905262461bcd60e51b825261054891600401612b3e565b60025460ff166113f05760405162461bcd60e51b815260206004820152601460248201527314185d5cd8589b194e881b9bdd081c185d5cd95960621b6044820152606401610548565b60006103df611c87611ea5565b8360405161190160f01b6020820152602281018390526042810182905260009060620160405160208183030381529060405280519060200120905092915050565b6000611cd48383611fcc565b6001600160a01b0316846001600160a01b03161490509392505050565b60606103df6001600160a01b03831660145b60606000611d12836002612b51565b611d1d906002612913565b6001600160401b03811115611d3457611d34612292565b6040519080825280601f01601f191660200182016040528015611d5e576020820181803683370190505b509050600360fc1b81600081518110611d7957611d79612748565b60200101906001600160f81b031916908160001a905350600f60fb1b81600181518110611da857611da8612748565b60200101906001600160f81b031916908160001a9053506000611dcc846002612b51565b611dd7906001612913565b90505b6001811115611e4f576f181899199a1a9b1b9c1cb0b131b232b360811b85600f1660108110611e0b57611e0b612748565b1a60f81b828281518110611e2157611e21612748565b60200101906001600160f81b031916908160001a90535060049490941c93611e4881612b68565b9050611dda565b508315611e9e5760405162461bcd60e51b815260206004820181905260248201527f537472696e67733a20686578206c656e67746820696e73756666696369656e746044820152606401610548565b9392505050565b6000306001600160a01b037f000000000000000000000000000000000000000000000000000000000000000016148015611efe57507f000000000000000000000000000000000000000000000000000000000000000046145b15611f2857507f000000000000000000000000000000000000000000000000000000000000000090565b50604080517f00000000000000000000000000000000000000000000000000000000000000006020808301919091527f0000000000000000000000000000000000000000000000000000000000000000828401527f000000000000000000000000000000000000000000000000000000000000000060608301524660808301523060a0808401919091528351808403909101815260c0909201909252805191012090565b6000806000611fdb8585611ff0565b91509150611fe881612035565b509392505050565b60008082516041036120265760208301516040840151606085015160001a61201a8782858561217f565b9450945050505061202e565b506000905060025b9250929050565b600081600481111561204957612049612b7f565b036120515750565b600181600481111561206557612065612b7f565b036120b25760405162461bcd60e51b815260206004820152601860248201527f45434453413a20696e76616c6964207369676e617475726500000000000000006044820152606401610548565b60028160048111156120c6576120c6612b7f565b036121135760405162461bcd60e51b815260206004820152601f60248201527f45434453413a20696e76616c6964207369676e6174757265206c656e677468006044820152606401610548565b600381600481111561212757612127612b7f565b036109a05760405162461bcd60e51b815260206004820152602260248201527f45434453413a20696e76616c6964207369676e6174757265202773272076616c604482015261756560f01b6064820152608401610548565b6000807f7fffffffffffffffffffffffffffffff5d576e7357a4501ddfe92f46681b20a08311156121b6575060009050600361223a565b6040805160008082526020820180845289905260ff881692820192909252606081018690526080810185905260019060a0016020604051602081039080840390855afa15801561220a573d6000803e3d6000fd5b5050604051601f1901519150506001600160a01b0381166122335760006001925092505061223a565b9150600090505b94509492505050565b60006020828403121561225557600080fd5b81356001600160e01b031981168114611e9e57600080fd5b6001600160a01b03811681146109a057600080fd5b803561228d8161226d565b919050565b634e487b7160e01b600052604160045260246000fd5b60405161018081016001600160401b03811182821017156122cb576122cb612292565b60405290565b60006001600160401b03808411156122eb576122eb612292565b604051601f8501601f19908116603f0116810190828211818310171561231357612313612292565b8160405280935085815286868601111561232c57600080fd5b858560208301376000602087830101525050509392505050565b600082601f83011261235757600080fd5b611e9e838335602085016122d1565b60008060006060848603121561237b57600080fd5b83356123868161226d565b92506020840135915060408401356001600160401b038111156123a857600080fd5b6123b486828701612346565b9150509250925092565b6000602082840312156123d057600080fd5b5035919050565b6000602082840312156123e957600080fd5b8135611e9e8161226d565b6000806040838503121561240757600080fd5b8235915060208301356124198161226d565b809150509250929050565b60008083601f84011261243657600080fd5b5081356001600160401b0381111561244d57600080fd5b6020830191508360208260051b850101111561202e57600080fd5b6000806020838503121561247b57600080fd5b82356001600160401b0381111561249157600080fd5b61249d85828601612424565b90969095509350505050565b600081518084526020808501945080840160005b838110156124db5781511515875295820195908201906001016124bd565b509495945050505050565b60005b838110156125015781810151838201526020016124e9565b50506000910152565b600081518084526125228160208601602086016124e6565b601f01601f19169290920160200192915050565b600081518084526020808501808196508360051b8101915082860160005b8581101561257e57828403895261256c84835161250a565b98850198935090840190600101612554565b5091979650505050505050565b60608152600061259e60608301866124a9565b6020838203818501526125b18287612536565b8481036040860152855180825282870193509082019060005b818110156125e6578451835293830193918301916001016125ca565b509098975050505050505050565b60408152600061260760408301856124a9565b82810360208401526126198185612536565b95945050505050565b80151581146109a057600080fd5b803561228d81612622565b6000806040838503121561264e57600080fd5b82356126598161226d565b9150602083013561241981612622565b80356001600160601b038116811461228d57600080fd5b60006020828403121561269257600080fd5b611e9e82612669565b6001600160e01b031991909116815260200190565b6000602082840312156126c257600080fd5b8151611e9e81612622565b6000602082840312156126df57600080fd5b8151611e9e8161226d565b828152604060208201526000612703604083018461250a565b949350505050565b6001600160a01b038581168252841660208201526040810183905260806060820181905260009061273e9083018461250a565b9695505050505050565b634e487b7160e01b600052603260045260246000fd5b60008235603e1983360301811261277457600080fd5b9190910192915050565b6000610180828403121561279157600080fd5b6127996122a8565b90506127a482612282565b81526127b260208301612282565b60208201526127c360408301612630565b60408201526060820135606082015260808201356001600160401b038111156127eb57600080fd5b6127f784828501612346565b60808301525060a082013560a082015260c082013560c082015260e082013560e0820152610100612829818401612282565b9082015261012061283b838201612669565b9082015261014061284d838201612669565b818301525061016080830135818301525092915050565b60006040823603121561287657600080fd5b604051604081016001600160401b03828210818311171561289957612899612292565b8160405284359150808211156128ae57600080fd5b6128ba3683870161277e565b835260208501359150808211156128d057600080fd5b50830136601f8201126128e257600080fd5b6128f1368235602084016122d1565b60208301525092915050565b634e487b7160e01b600052601160045260246000fd5b808201808211156103df576103df6128fd565b60018060a01b03851681528360208201526001600160601b038316604082015260806060820152600061273e608083018461250a565b6000806040838503121561296f57600080fd5b825161297a8161226d565b6020939093015192949293505050565b604081526129a46040820184516001600160a01b03169052565b600060208401516129c060608401826001600160a01b03169052565b506040840151801515608084015250606084015160a083015260808401516101808060c08501526129f56101c085018361250a565b915060a086015160e085015260c0860151610100818187015260e0880151915061012082818801528189015192506101409150612a3c828801846001600160a01b03169052565b8801519150610160612a58878201846001600160601b03169052565b908801516001600160601b03169286019290925250909401516101a0830152506020015290565b6000823561017e1983360301811261277457600080fd5b60006103df368361277e565b6001600160601b03818116838216019080821115612ac257612ac26128fd565b5092915050565b7f416363657373436f6e74726f6c3a206163636f756e7420000000000000000000815260008351612b018160178501602088016124e6565b7001034b99036b4b9b9b4b733903937b6329607d1b6017918401918201528351612b328160288401602088016124e6565b01602801949350505050565b602081526000611e9e602083018461250a565b80820281158282048414176103df576103df6128fd565b600081612b7757612b776128fd565b506000190190565b634e487b7160e01b600052602160045260246000fdfe47424d61726b6574706c6163653a20496e73756666696369656e742066756e647347424d61726b6574706c6163653a20496e76616c6964206f726465722063616e63656c6c65722e47424d61726b6574706c6163653a206e6674436f6e74726163742061646472657373206d757374206e6f74206265207a65726f206164647265737347424d61726b6574706c6163653a20726f79616c747920666565206d757374206e6f742062652067726561746572207468616e203130302547424d61726b6574706c6163653a2073656c6c65722061646472657373206d757374206e6f7420626520636f6e7472616374206164647265737347424d61726b6574706c6163653a20636861726974792061646472657373206d757374206e6f74206265207a65726f206164647265737347424d61726b6574706c6163653a20746f74616c20666565206d757374206265206c657373207468616e203130302547424d61726b6574706c6163653a204e4654205072696365206d7573742062652067726561746572207468616e203047424d61726b6574706c6163653a20636861726974792070657263656e74616765206d757374206265206265747765656e2031302520616e64203130302547424d61726b6574706c6163653a204f7264657220697320616c72656164792063616e63656c6c6564a2646970667358221220c6c98bfda90cf68969c031e8159bdfb49cd160c8188f2c021214b2a656033df064736f6c63430008110033",
  "linkReferences": {},
  "deployedLinkReferences": {}
}