{
  "_format": "hh-sol-artifact-1",
  "contractName": "GBMarketplace",
  "sourceName": "contracts/GBMarketplace.sol",
  "abi": [
    {
      "inputs": [
        {
          "internalType": "address",
          "name": "owner",
          "type": "address"
        },
        {
          "internalType": "address",
          "name": "adminWallet_",
          "type": "address"
        }
      ],
      "stateMutability": "nonpayable",
      "type": "constructor"
    },
    {
      "anonymous": false,
      "inputs": [
        {
          "indexed": false,
          "internalType": "uint256[]",
          "name": "ids",
          "type": "uint256[]"
        }
      ],
      "name": "BoughtItem",
      "type": "event"
    },
    {
      "anonymous": false,
      "inputs": [
        {
          "indexed": false,
          "internalType": "bool[]",
          "name": "cancelResults",
          "type": "bool[]"
        },
        {
          "indexed": false,
          "internalType": "string[]",
          "name": "cancelStatus",
          "type": "string[]"
        },
        {
          "indexed": false,
          "internalType": "bytes32[]",
          "name": "ordersHash",
          "type": "bytes32[]"
        }
      ],
      "name": "OrderCancelled",
      "type": "event"
    },
    {
      "anonymous": false,
      "inputs": [
        {
          "indexed": false,
          "internalType": "address",
          "name": "account",
          "type": "address"
        }
      ],
      "name": "Paused",
      "type": "event"
    },
    {
      "anonymous": false,
      "inputs": [
        {
          "indexed": true,
          "internalType": "bytes32",
          "name": "role",
          "type": "bytes32"
        },
        {
          "indexed": true,
          "internalType": "bytes32",
          "name": "previousAdminRole",
          "type": "bytes32"
        },
        {
          "indexed": true,
          "internalType": "bytes32",
          "name": "newAdminRole",
          "type": "bytes32"
        }
      ],
      "name": "RoleAdminChanged",
      "type": "event"
    },
    {
      "anonymous": false,
      "inputs": [
        {
          "indexed": true,
          "internalType": "bytes32",
          "name": "role",
          "type": "bytes32"
        },
        {
          "indexed": true,
          "internalType": "address",
          "name": "account",
          "type": "address"
        },
        {
          "indexed": true,
          "internalType": "address",
          "name": "sender",
          "type": "address"
        }
      ],
      "name": "RoleGranted",
      "type": "event"
    },
    {
      "anonymous": false,
      "inputs": [
        {
          "indexed": true,
          "internalType": "bytes32",
          "name": "role",
          "type": "bytes32"
        },
        {
          "indexed": true,
          "internalType": "address",
          "name": "account",
          "type": "address"
        },
        {
          "indexed": true,
          "internalType": "address",
          "name": "sender",
          "type": "address"
        }
      ],
      "name": "RoleRevoked",
      "type": "event"
    },
    {
      "anonymous": false,
      "inputs": [
        {
          "indexed": false,
          "internalType": "address",
          "name": "account",
          "type": "address"
        }
      ],
      "name": "SetAdminWallet",
      "type": "event"
    },
    {
      "anonymous": false,
      "inputs": [
        {
          "indexed": false,
          "internalType": "address",
          "name": "nftContract",
          "type": "address"
        },
        {
          "indexed": false,
          "internalType": "bool",
          "name": "status",
          "type": "bool"
        }
      ],
      "name": "SetNftContractAddress",
      "type": "event"
    },
    {
      "anonymous": false,
      "inputs": [
        {
          "indexed": false,
          "internalType": "uint96",
          "name": "platformFee",
          "type": "uint96"
        },
        {
          "indexed": false,
          "internalType": "uint8",
          "name": "platformFeeType",
          "type": "uint8"
        }
      ],
      "name": "SetPlatformFee",
      "type": "event"
    },
    {
      "anonymous": false,
      "inputs": [
        {
          "indexed": false,
          "internalType": "address",
          "name": "account",
          "type": "address"
        }
      ],
      "name": "Unpaused",
      "type": "event"
    },
    {
      "anonymous": false,
      "inputs": [
        {
          "indexed": false,
          "internalType": "address",
          "name": "nftContract",
          "type": "address"
        },
        {
          "indexed": false,
          "internalType": "address",
          "name": "owner",
          "type": "address"
        },
        {
          "indexed": false,
          "internalType": "uint256",
          "name": "tokenId",
          "type": "uint256"
        },
        {
          "indexed": false,
          "internalType": "string",
          "name": "tokenURI",
          "type": "string"
        }
      ],
      "name": "UpdatedTokenURI",
      "type": "event"
    },
    {
      "inputs": [],
      "name": "DEFAULT_ADMIN_ROLE",
      "outputs": [
        {
          "internalType": "bytes32",
          "name": "",
          "type": "bytes32"
        }
      ],
      "stateMutability": "view",
      "type": "function"
    },
    {
      "inputs": [
        {
          "components": [
            {
              "components": [
                {
                  "internalType": "address",
                  "name": "nftContract",
                  "type": "address"
                },
                {
                  "internalType": "uint256",
                  "name": "itemType",
                  "type": "uint256"
                },
                {
                  "internalType": "address",
                  "name": "seller",
                  "type": "address"
                },
                {
                  "internalType": "address",
                  "name": "artist",
                  "type": "address"
                },
                {
                  "internalType": "bool",
                  "name": "isMinted",
                  "type": "bool"
                },
                {
                  "internalType": "uint256",
                  "name": "tokenId",
                  "type": "uint256"
                },
                {
                  "internalType": "string",
                  "name": "tokenURI",
                  "type": "string"
                },
                {
                  "internalType": "uint256",
                  "name": "quantity",
                  "type": "uint256"
                },
                {
                  "internalType": "uint256",
                  "name": "itemPrice",
                  "type": "uint256"
                },
                {
                  "internalType": "address",
                  "name": "charityAddress",
                  "type": "address"
                },
                {
                  "internalType": "uint96",
                  "name": "charityShare",
                  "type": "uint96"
                },
                {
                  "internalType": "uint96",
                  "name": "royaltyFee",
                  "type": "uint96"
                },
                {
                  "internalType": "uint256",
                  "name": "deadline",
                  "type": "uint256"
                },
                {
                  "internalType": "uint256",
                  "name": "salt",
                  "type": "uint256"
                }
              ],
              "internalType": "struct OrderItem",
              "name": "orderItem",
              "type": "tuple"
            },
            {
              "internalType": "uint256",
              "name": "additionalAmount",
              "type": "uint256"
            },
            {
              "internalType": "bytes",
              "name": "signature",
              "type": "bytes"
            }
          ],
          "internalType": "struct Order[]",
          "name": "orders",
          "type": "tuple[]"
        }
      ],
      "name": "buyItems",
      "outputs": [],
      "stateMutability": "payable",
      "type": "function"
    },
    {
      "inputs": [
        {
          "internalType": "address",
          "name": "",
          "type": "address"
        }
      ],
      "name": "gbNftContracts",
      "outputs": [
        {
          "internalType": "bool",
          "name": "",
          "type": "bool"
        }
      ],
      "stateMutability": "view",
      "type": "function"
    },
    {
      "inputs": [
        {
          "internalType": "bytes32",
          "name": "role",
          "type": "bytes32"
        }
      ],
      "name": "getRoleAdmin",
      "outputs": [
        {
          "internalType": "bytes32",
          "name": "",
          "type": "bytes32"
        }
      ],
      "stateMutability": "view",
      "type": "function"
    },
    {
      "inputs": [
        {
          "internalType": "bytes32",
          "name": "role",
          "type": "bytes32"
        },
        {
          "internalType": "address",
          "name": "account",
          "type": "address"
        }
      ],
      "name": "grantRole",
      "outputs": [],
      "stateMutability": "nonpayable",
      "type": "function"
    },
    {
      "inputs": [
        {
          "internalType": "bytes32",
          "name": "role",
          "type": "bytes32"
        },
        {
          "internalType": "address",
          "name": "account",
          "type": "address"
        }
      ],
      "name": "hasRole",
      "outputs": [
        {
          "internalType": "bool",
          "name": "",
          "type": "bool"
        }
      ],
      "stateMutability": "view",
      "type": "function"
    },
    {
      "inputs": [
        {
          "internalType": "bytes32",
          "name": "",
          "type": "bytes32"
        }
      ],
      "name": "orderCancelled",
      "outputs": [
        {
          "internalType": "bool",
          "name": "",
          "type": "bool"
        }
      ],
      "stateMutability": "view",
      "type": "function"
    },
    {
      "inputs": [
        {
          "internalType": "bytes32",
          "name": "",
          "type": "bytes32"
        }
      ],
      "name": "orderProcessed",
      "outputs": [
        {
          "internalType": "bool",
          "name": "",
          "type": "bool"
        }
      ],
      "stateMutability": "view",
      "type": "function"
    },
    {
      "inputs": [],
      "name": "pause",
      "outputs": [],
      "stateMutability": "nonpayable",
      "type": "function"
    },
    {
      "inputs": [],
      "name": "paused",
      "outputs": [
        {
          "internalType": "bool",
          "name": "",
          "type": "bool"
        }
      ],
      "stateMutability": "view",
      "type": "function"
    },
    {
      "inputs": [],
      "name": "platformFeeFromCharity",
      "outputs": [
        {
          "internalType": "uint96",
          "name": "",
          "type": "uint96"
        }
      ],
      "stateMutability": "view",
      "type": "function"
    },
    {
      "inputs": [],
      "name": "platformFeeFromSeller",
      "outputs": [
        {
          "internalType": "uint96",
          "name": "",
          "type": "uint96"
        }
      ],
      "stateMutability": "view",
      "type": "function"
    },
    {
      "inputs": [
        {
          "internalType": "bytes32",
          "name": "role",
          "type": "bytes32"
        },
        {
          "internalType": "address",
          "name": "account",
          "type": "address"
        }
      ],
      "name": "renounceRole",
      "outputs": [],
      "stateMutability": "nonpayable",
      "type": "function"
    },
    {
      "inputs": [
        {
          "internalType": "bytes32",
          "name": "role",
          "type": "bytes32"
        },
        {
          "internalType": "address",
          "name": "account",
          "type": "address"
        }
      ],
      "name": "revokeRole",
      "outputs": [],
      "stateMutability": "nonpayable",
      "type": "function"
    },
    {
      "inputs": [
        {
          "internalType": "address",
          "name": "adminWallet_",
          "type": "address"
        }
      ],
      "name": "setAdminWallet",
      "outputs": [],
      "stateMutability": "nonpayable",
      "type": "function"
    },
    {
      "inputs": [
        {
          "internalType": "address",
          "name": "nftContractAddress",
          "type": "address"
        },
        {
          "internalType": "bool",
          "name": "isEnabled",
          "type": "bool"
        }
      ],
      "name": "setNftContractAddress",
      "outputs": [],
      "stateMutability": "nonpayable",
      "type": "function"
    },
    {
      "inputs": [
        {
          "internalType": "uint96",
          "name": "platformFee_",
          "type": "uint96"
        },
        {
          "internalType": "uint8",
          "name": "platformFeeType",
          "type": "uint8"
        }
      ],
      "name": "setPlatformFee",
      "outputs": [],
      "stateMutability": "nonpayable",
      "type": "function"
    },
    {
      "inputs": [
        {
          "internalType": "bytes4",
          "name": "interfaceId",
          "type": "bytes4"
        }
      ],
      "name": "supportsInterface",
      "outputs": [
        {
          "internalType": "bool",
          "name": "",
          "type": "bool"
        }
      ],
      "stateMutability": "view",
      "type": "function"
    },
    {
      "inputs": [],
      "name": "unpause",
      "outputs": [],
      "stateMutability": "nonpayable",
      "type": "function"
    },
    {
      "inputs": [
        {
          "internalType": "address",
          "name": "nftContract",
          "type": "address"
        },
        {
          "internalType": "uint256",
          "name": "tokenId",
          "type": "uint256"
        },
        {
          "internalType": "string",
          "name": "tokenURI",
          "type": "string"
        }
      ],
      "name": "updateTokenURI",
      "outputs": [],
      "stateMutability": "nonpayable",
      "type": "function"
    }
  ],
  "bytecode": "0x6101403462000214576001600160401b0362001b19601f38829003908101601f191684019083821185831017620001fe57808591604094859485528339810103126200021457620000508362000235565b6200005f602080950162000235565b908251926200006e8462000219565b600d845260058685016c47424d61726b6574706c61636560981b8152878351620000988162000219565b8381520195640312e302e360dc1b87525190209420958460e052610100968088524660a0528251828101917f8b73c3c69bb8fe3d512ecc4cf759cc79239f7b179b0ffacaa9a75d522b39400f978884528583015260608201524660808201523060a082015260a0815260c081019781891090891117620001fe578784525190206080523060c052610120948552600180556002805460ff19908116909155600780546001600160601b031916606417905561027160a31b6001600160a01b03958616176006556000808052808352838120949095168086529382528285205490929060ff1615620001b3575b6118ce87878a836200024b843960805183505060a05183505060c05183505060e0518350505182505051815050f35b600191858052858152818620908587525284209182541617905533917f2f8788117e7eff1d82e926ec794901d17c78024a50270940304540a733656f0d8180a4388080808062000184565b634e487b7160e01b600052604160045260246000fd5b600080fd5b604081019081106001600160401b03821117620001fe57604052565b51906001600160a01b0382168203620002145756fe608080604052600436101561001357600080fd5b60003560e01c90816301ffc9a71461118a5750806302d94ca814610be95780630fcd7f8f146107d2578063248a9ca3146107a357806327df5389146107645780632f2ff15d146106b157806335082933146105e657806335daf728146104dc57806336568abe1461044a5780633f4ba83a146103b65780635889bf5e146103855780635c975abb1461036257806368b35a13146103315780638456cb59146102d757806391d148541461028a57806392cacf4114610269578063a217fddf1461024d578063c0dd369514610168578063d547741f146101275763df128e9e146100fb57600080fd5b346101225760003660031901126101225760206001600160601b0360075416604051908152f35b600080fd5b34610122576040366003190112610122576101666004356101466111f3565b908060005260006020526101616001604060002001546114ea565b61163c565b005b34610122576040366003190112610122576101816111dd565b60243590811515809203610122576101976112f0565b6001600160a01b03169081156101f357816040917f37940b2348bce0015e28074f3a1d2ddc211ad7dfa13f0aef19072b22034ebc979360005260036020528260002060ff1981541660ff831617905582519182526020820152a1005b60405162461bcd60e51b815260206004820152602c60248201527f4e6674436f6e74726163742061646472657373206d757374206e6f742062652060448201526b7a65726f206164647265737360a01b6064820152608490fd5b3461012257600036600319011261012257602060405160008152f35b3461012257600036600319011261012257602060065460a01c604051908152f35b34610122576040366003190112610122576102a36111f3565b600435600052600060205260406000209060018060a01b0316600052602052602060ff604060002054166040519015158152f35b34610122576000366003190112610122576102f06112f0565b6102f86117fe565b600160ff1960025416176002557f62e78cea01bee320cd4e420270b5ea74000d11b0c9f74754ebdbfc544b05a2586020604051338152a1005b34610122576020366003190112610122576004356000526005602052602060ff604060002054166040519015158152f35b3461012257600036600319011261012257602060ff600254166040519015158152f35b34610122576020366003190112610122576004356000526004602052602060ff604060002054166040519015158152f35b34610122576000366003190112610122576103cf6112f0565b60025460ff81161561040e5760ff19166002557f5db9ee0a495bf2e6ff9c91a7834c1ba4fdd244a5e8aa4e537bd38aeae4b073aa6020604051338152a1005b60405162461bcd60e51b815260206004820152601460248201527314185d5cd8589b194e881b9bdd081c185d5cd95960621b6044820152606490fd5b34610122576040366003190112610122576104636111f3565b336001600160a01b0382160361047f576101669060043561163c565b60405162461bcd60e51b815260206004820152602f60248201527f416363657373436f6e74726f6c3a2063616e206f6e6c792072656e6f756e636560448201526e103937b632b9903337b91039b2b63360891b6064820152608490fd5b34610122576040366003190112610122576004356001600160601b03811690818103610122576024359160ff8316809303610122576105196112f0565b612710811015610596577f75822b40f249c484aaeef9e7b5723e5abaf2a9573937a605fec2e69b7cd1e7eb926040928161057e57600680546001600160a01b031660a09290921b6001600160a01b0319169190911790555b82519182526020820152a1005b50816001600160601b03196007541617600755610571565b60405162461bcd60e51b815260206004820152602260248201527f706c6174666f726d466565206d757374206265206c657373207468616e203130604482015261302560f01b6064820152608490fd5b34610122576020366003190112610122576105ff6111dd565b6106076112f0565b6001600160a01b03168015610657576020817f1b651cfd0a3f185590087e7e632381434dfada46f037b9081264f9f5bdbfcd9b926001600160601b0360a01b6006541617600655604051908152a1005b60405162461bcd60e51b815260206004820152602c60248201527f61646d696e57616c6c65742061646472657373206d757374206e6f742062652060448201526b7a65726f206164647265737360a01b6064820152608490fd5b34610122576040366003190112610122576004356106cd6111f3565b8160005260006020526106e76001604060002001546114ea565b81600052600060205260406000209060018060a01b0316908160005260205260ff604060002054161561071657005b8160005260006020526040600020816000526020526040600020600160ff1982541617905533917f2f8788117e7eff1d82e926ec794901d17c78024a50270940304540a733656f0d600080a4005b34610122576020366003190112610122576001600160a01b036107856111dd565b166000526003602052602060ff604060002054166040519015158152f35b346101225760203660031901126101225760043560005260006020526020600160406000200154604051908152f35b34610122576060366003190112610122576107eb6111dd565b6044906024803583356001600160401b038111610122576108109036906004016112be565b610818611842565b6108206117fe565b6040516301ffc9a760e01b8082526380ac58cd60e01b60048301526020956001600160a01b0390811695929091878285818a5afa91821561096c57600092610bca575b508115610b6b575b5015610b0d578415610aa4578315610a4857846000526003865260ff60406000205416156109f2576040516331a9108f60e11b8152600481018590529086828481895afa91821561096c576000926109ba575b503391160361097857833b156101225760406000916108f882519889938493630588253160e21b8552886004860152840152820185611617565b038183875af191821561096c577f2a594f4fdcfb43b211e3fe501443da843ed0daa6e9cc58965e68afb67938f5f2956109549361095d575b50604051948594855233908501526040840152608060608401526080830190611617565b0390a160018055005b6109669061121d565b86610930565b6040513d6000823e3d90fd5b847f47424d61726b6574706c6163653a206973206e6f74206e6674206f776e65720087601f6064946040519462461bcd60e51b86526004860152840152820152fd5b9091508681813d83116109eb575b6109d2818361124b565b81010312610122575181811681036101225790886108be565b503d6109c8565b60405162461bcd60e51b815260048101879052602a818401527f47424d61726b6574706c6163653a20496e76616c6964206e6674436f6e74726181890152696374206164647265737360b01b6064820152608490fd5b60405162461bcd60e51b8152600481018790526030818401527f47424d61726b6574706c6163653a20746f6b656e4964206d7573742062652067818901526f726561746572207468616e207a65726f60801b6064820152608490fd5b60405162461bcd60e51b815260048101879052603b818401527f47424d61726b6574706c6163653a206e6674436f6e7472616374206164647265818901527f7373206d757374206e6f74206265207a65726f206164647265737300000000006064820152608490fd5b60405162461bcd60e51b8152600481018790526032818401527f47424d61726b6574706c6163653a2054686973206973206e6f7420455243373281890152710c4bd15490cc4c4d4d4818dbdb9d1c9858dd60721b6064820152608490fd5b604051908152636cdb3d1360e11b6004820152905086818481895afa90811561096c57600091610b9d575b508861086b565b610bbd9150873d8911610bc3575b610bb5818361124b565b8101906117e6565b88610b96565b503d610bab565b610be2919250883d8a11610bc357610bb5818361124b565b9089610863565b6020366003190112610122576001600160401b036004351161012257366023600435011215610122576001600160401b036004356004013511610122573660246004356004013560051b60043501011161012257610c45611842565b610c4d6117fe565b610c5c600435600401356117cf565b610c69604051918261124b565b600480350135808252601f1990610c7f906117cf565b0136602083013760005b600435600401358110610cfc57506040516020810160208252825180915260206040830193019060005b818110610ce6577f2054bc223c304b304149e171a2f1706c4776ed99d46d0585e60a696305747d2984860385a160018055005b8251855260209485019490920191600101610cb3565b60248160051b6004350101356082196004353603018112156101225760609081602319826004350136030112610122576040519182818101106001600160401b038285011117611174576024826004350101356001600160401b038111610122576101c06004358401820136036023190112610122578184016102208501106001600160401b0361022086011117611174576102208401604052610da860248285600435010101611209565b848301526004358301810160448101356080860152610dc990606401611209565b60a0850152610de060848285600435010101611209565b60c085015260a481846004350101013580151581036101225760e08501526004358301810160c481013561010086015260e40135906001600160401b03821161012257610e3c6101c492602436918488600435010101016112be565b61012086015260043584018101610104810135610140870152610124810135610160870152610e6e9061014401611209565b610180860152610e8761016482866004350101016112dc565b6101a0860152610ea061018482866004350101016112dc565b6101c086015260043584019081016101a48101356101e0870152919091013561020085015290830183526044810135602084015260640135906001600160401b0382116101225760043501013660438201121561012257610f0b903690604460248201359101611287565b6040820152516006546001600160a01b031634471061112f5760008080809334905af13d1561112a573d610f3e8161126c565b90610f4c604051928361124b565b8152600060203d92013e5b156110bf5780516001600160a01b031660009081526003602052604090205460ff16610f87575b50600101610c89565b6080810151610f7e5780516040516301ffc9a760e01b81526380ac58cd60e01b600482015290602090829060249082906001600160a01b03165afa90811561096c576000916110a0575b5015610f7e5760018060a01b0381511660018060a01b0360408301511660a083019283519260c06001600160601b036101608401511692015193813b15610122576000809461104d6040519788968795869463396ffcb960e21b8652600486015260248501526044840152608060648401526084830190611617565b03925af1801561096c57611091575b505190825181101561107b5760019160208260051b8501015290610f7e565b634e487b7160e01b600052603260045260246000fd5b61109a9061121d565b8361105c565b6110b9915060203d602011610bc357610bb5818361124b565b84610fd1565b60405162461bcd60e51b815260206004820152603a60248201527f416464726573733a20756e61626c6520746f2073656e642076616c75652c207260448201527f6563697069656e74206d617920686176652072657665727465640000000000006064820152608490fd5b610f57565b60405162461bcd60e51b815260206004820152601d60248201527f416464726573733a20696e73756666696369656e742062616c616e63650000006044820152606490fd5b634e487b7160e01b600052604160045260246000fd5b34610122576020366003190112610122576004359063ffffffff60e01b821680920361012257602091637965db0b60e01b81149081156111cc575b5015158152f35b6301ffc9a760e01b149050836111c5565b600435906001600160a01b038216820361012257565b602435906001600160a01b038216820361012257565b35906001600160a01b038216820361012257565b6001600160401b03811161117457604052565b608081019081106001600160401b0382111761117457604052565b90601f801991011681019081106001600160401b0382111761117457604052565b6001600160401b03811161117457601f01601f191660200190565b9291926112938261126c565b916112a1604051938461124b565b829481845281830111610122578281602093846000960137010152565b9080601f83011215610122578160206112d993359101611287565b90565b35906001600160601b038216820361012257565b3360009081527fad3228b676f7d3cd4284a5443f17f1962b36e491b30a40b2405849e597ba5fb5602090815260408083205490929060ff161561133257505050565b61133b336116c1565b908084519061134982611230565b604282528482019260603685378251156114d657603084538251906001918210156114d65790607860218501536041915b81831161146857505050611426576048611422938693611406936113f7985198899376020b1b1b2b9b9a1b7b73a3937b61d1030b1b1b7bab73a1604d1b8a8601526113ce815180928c6037890191016115f4565b8401917001034b99036b4b9b9b4b733903937b6329607d1b6037840152518093868401906115f4565b0103602881018752018561124b565b5192839262461bcd60e51b845260048401526024830190611617565b0390fd5b60648486519062461bcd60e51b825280600483015260248201527f537472696e67733a20686578206c656e67746820696e73756666696369656e746044820152fd5b909192600f811660108110156114c2576f181899199a1a9b1b9c1cb0b131b232b360811b901a61149885876116b0565b5360041c9280156114ae5760001901919061137a565b634e487b7160e01b82526011600452602482fd5b634e487b7160e01b83526032600452602483fd5b634e487b7160e01b81526032600452602490fd5b600090808252602090828252604092838120338252835260ff8482205416156115135750505050565b61151c336116c1565b9184519061152982611230565b604282528482019260603685378251156114d657603084538251906001918210156114d65790607860218501536041915b8183116115ae57505050611426576048611422938693611406936113f7985198899376020b1b1b2b9b9a1b7b73a3937b61d1030b1b1b7bab73a1604d1b8a8601526113ce815180928c6037890191016115f4565b909192600f811660108110156114c2576f181899199a1a9b1b9c1cb0b131b232b360811b901a6115de85876116b0565b5360041c9280156114ae5760001901919061155a565b60005b8381106116075750506000910152565b81810151838201526020016115f7565b90602091611630815180928185528580860191016115f4565b601f01601f1916010190565b9060009180835282602052604083209160018060a01b03169182845260205260ff60408420541661166c57505050565b80835282602052604083208284526020526040832060ff1981541690557ff6391f5c32d9c69d2a47ea670b442974b53935d1edc7fd64eb21e047a839171b339380a4565b90815181101561107b570160200190565b60405190606082018281106001600160401b0382111761117457604052602a825260208201604036823782511561107b5760309053815160019081101561107b57607860218401536029905b80821161176157505061171d5790565b606460405162461bcd60e51b815260206004820152602060248201527f537472696e67733a20686578206c656e67746820696e73756666696369656e746044820152fd5b9091600f811660108110156117ba576f181899199a1a9b1b9c1cb0b131b232b360811b901a61179084866116b0565b5360041c9180156117a557600019019061170d565b60246000634e487b7160e01b81526011600452fd5b60246000634e487b7160e01b81526032600452fd5b6001600160401b0381116111745760051b60200190565b90816020910312610122575180151581036101225790565b60ff6002541661180a57565b60405162461bcd60e51b815260206004820152601060248201526f14185d5cd8589b194e881c185d5cd95960821b6044820152606490fd5b600260015414611853576002600155565b60405162461bcd60e51b815260206004820152601f60248201527f5265656e7472616e637947756172643a207265656e7472616e742063616c6c006044820152606490fdfea26469706673582212206960ccab62ab15981e54193465f5dc440d950d348a98481f47360d4799fc982164736f6c63430008110033",
  "linkReferences": {},
  "deployedLinkReferences": {}
}