{
  "_format": "hh-sol-artifact-1",
  "contractName": "GBMarketplace",
  "sourceName": "contracts/GBMarketplace.sol",
  "abi": [
    {
      "inputs": [
        {
          "internalType": "address",
          "name": "owner",
          "type": "address"
        },
        {
          "internalType": "address",
          "name": "adminWallet_",
          "type": "address"
        }
      ],
      "stateMutability": "nonpayable",
      "type": "constructor"
    },
    {
      "anonymous": false,
      "inputs": [
        {
          "components": [
            {
              "components": [
                {
                  "internalType": "address",
                  "name": "nftContract",
                  "type": "address"
                },
                {
                  "internalType": "uint256",
                  "name": "itemType",
                  "type": "uint256"
                },
                {
                  "internalType": "address",
                  "name": "seller",
                  "type": "address"
                },
                {
                  "internalType": "bool",
                  "name": "isMinted",
                  "type": "bool"
                },
                {
                  "internalType": "uint256",
                  "name": "tokenId",
                  "type": "uint256"
                },
                {
                  "internalType": "string",
                  "name": "tokenURI",
                  "type": "string"
                },
                {
                  "internalType": "uint256",
                  "name": "quantity",
                  "type": "uint256"
                },
                {
                  "internalType": "uint256",
                  "name": "itemAmount",
                  "type": "uint256"
                },
                {
                  "internalType": "address",
                  "name": "charityAddress",
                  "type": "address"
                },
                {
                  "internalType": "uint96",
                  "name": "charityShare",
                  "type": "uint96"
                },
                {
                  "internalType": "uint96",
                  "name": "royaltyFee",
                  "type": "uint96"
                },
                {
                  "internalType": "uint256",
                  "name": "deadline",
                  "type": "uint256"
                },
                {
                  "internalType": "uint256",
                  "name": "salt",
                  "type": "uint256"
                }
              ],
              "internalType": "struct OrderItem",
              "name": "orderItem",
              "type": "tuple"
            },
            {
              "internalType": "uint256",
              "name": "additionalAmount",
              "type": "uint256"
            },
            {
              "internalType": "bytes",
              "name": "signature",
              "type": "bytes"
            }
          ],
          "indexed": false,
          "internalType": "struct Order[]",
          "name": "orders",
          "type": "tuple[]"
        },
        {
          "indexed": false,
          "internalType": "bool[]",
          "name": "ordersResult",
          "type": "bool[]"
        },
        {
          "indexed": false,
          "internalType": "string[]",
          "name": "ordersStatus",
          "type": "string[]"
        },
        {
          "indexed": false,
          "internalType": "bytes32[]",
          "name": "ordersHash",
          "type": "bytes32[]"
        }
      ],
      "name": "BoughtItem",
      "type": "event"
    },
    {
      "anonymous": false,
      "inputs": [
        {
          "indexed": false,
          "internalType": "bool[]",
          "name": "cancelResults",
          "type": "bool[]"
        },
        {
          "indexed": false,
          "internalType": "string[]",
          "name": "cancelStatus",
          "type": "string[]"
        },
        {
          "indexed": false,
          "internalType": "bytes32[]",
          "name": "ordersHash",
          "type": "bytes32[]"
        }
      ],
      "name": "OrderCancelled",
      "type": "event"
    },
    {
      "anonymous": false,
      "inputs": [
        {
          "indexed": false,
          "internalType": "address",
          "name": "account",
          "type": "address"
        }
      ],
      "name": "Paused",
      "type": "event"
    },
    {
      "anonymous": false,
      "inputs": [
        {
          "indexed": true,
          "internalType": "bytes32",
          "name": "role",
          "type": "bytes32"
        },
        {
          "indexed": true,
          "internalType": "bytes32",
          "name": "previousAdminRole",
          "type": "bytes32"
        },
        {
          "indexed": true,
          "internalType": "bytes32",
          "name": "newAdminRole",
          "type": "bytes32"
        }
      ],
      "name": "RoleAdminChanged",
      "type": "event"
    },
    {
      "anonymous": false,
      "inputs": [
        {
          "indexed": true,
          "internalType": "bytes32",
          "name": "role",
          "type": "bytes32"
        },
        {
          "indexed": true,
          "internalType": "address",
          "name": "account",
          "type": "address"
        },
        {
          "indexed": true,
          "internalType": "address",
          "name": "sender",
          "type": "address"
        }
      ],
      "name": "RoleGranted",
      "type": "event"
    },
    {
      "anonymous": false,
      "inputs": [
        {
          "indexed": true,
          "internalType": "bytes32",
          "name": "role",
          "type": "bytes32"
        },
        {
          "indexed": true,
          "internalType": "address",
          "name": "account",
          "type": "address"
        },
        {
          "indexed": true,
          "internalType": "address",
          "name": "sender",
          "type": "address"
        }
      ],
      "name": "RoleRevoked",
      "type": "event"
    },
    {
      "anonymous": false,
      "inputs": [
        {
          "indexed": false,
          "internalType": "address",
          "name": "account",
          "type": "address"
        }
      ],
      "name": "SetAdminWallet",
      "type": "event"
    },
    {
      "anonymous": false,
      "inputs": [
        {
          "indexed": false,
          "internalType": "address",
          "name": "nftContract",
          "type": "address"
        },
        {
          "indexed": false,
          "internalType": "bool",
          "name": "status",
          "type": "bool"
        }
      ],
      "name": "SetNftContractAddress",
      "type": "event"
    },
    {
      "anonymous": false,
      "inputs": [
        {
          "indexed": false,
          "internalType": "uint96",
          "name": "platformFee",
          "type": "uint96"
        }
      ],
      "name": "SetPlatformFee",
      "type": "event"
    },
    {
      "anonymous": false,
      "inputs": [
        {
          "indexed": false,
          "internalType": "address",
          "name": "account",
          "type": "address"
        }
      ],
      "name": "Unpaused",
      "type": "event"
    },
    {
      "anonymous": false,
      "inputs": [
        {
          "indexed": false,
          "internalType": "address",
          "name": "nftContract",
          "type": "address"
        },
        {
          "indexed": false,
          "internalType": "address",
          "name": "owner",
          "type": "address"
        },
        {
          "indexed": false,
          "internalType": "uint256",
          "name": "tokenId",
          "type": "uint256"
        },
        {
          "indexed": false,
          "internalType": "string",
          "name": "tokenURI",
          "type": "string"
        }
      ],
      "name": "UpdatedTokenURI",
      "type": "event"
    },
    {
      "inputs": [],
      "name": "DEFAULT_ADMIN_ROLE",
      "outputs": [
        {
          "internalType": "bytes32",
          "name": "",
          "type": "bytes32"
        }
      ],
      "stateMutability": "view",
      "type": "function"
    },
    {
      "inputs": [
        {
          "components": [
            {
              "components": [
                {
                  "internalType": "address",
                  "name": "nftContract",
                  "type": "address"
                },
                {
                  "internalType": "uint256",
                  "name": "itemType",
                  "type": "uint256"
                },
                {
                  "internalType": "address",
                  "name": "seller",
                  "type": "address"
                },
                {
                  "internalType": "bool",
                  "name": "isMinted",
                  "type": "bool"
                },
                {
                  "internalType": "uint256",
                  "name": "tokenId",
                  "type": "uint256"
                },
                {
                  "internalType": "string",
                  "name": "tokenURI",
                  "type": "string"
                },
                {
                  "internalType": "uint256",
                  "name": "quantity",
                  "type": "uint256"
                },
                {
                  "internalType": "uint256",
                  "name": "itemAmount",
                  "type": "uint256"
                },
                {
                  "internalType": "address",
                  "name": "charityAddress",
                  "type": "address"
                },
                {
                  "internalType": "uint96",
                  "name": "charityShare",
                  "type": "uint96"
                },
                {
                  "internalType": "uint96",
                  "name": "royaltyFee",
                  "type": "uint96"
                },
                {
                  "internalType": "uint256",
                  "name": "deadline",
                  "type": "uint256"
                },
                {
                  "internalType": "uint256",
                  "name": "salt",
                  "type": "uint256"
                }
              ],
              "internalType": "struct OrderItem",
              "name": "orderItem",
              "type": "tuple"
            },
            {
              "internalType": "uint256",
              "name": "additionalAmount",
              "type": "uint256"
            },
            {
              "internalType": "bytes",
              "name": "signature",
              "type": "bytes"
            }
          ],
          "internalType": "struct Order[]",
          "name": "orders",
          "type": "tuple[]"
        }
      ],
      "name": "buyItems",
      "outputs": [],
      "stateMutability": "payable",
      "type": "function"
    },
    {
      "inputs": [
        {
          "components": [
            {
              "internalType": "address",
              "name": "nftContract",
              "type": "address"
            },
            {
              "internalType": "uint256",
              "name": "itemType",
              "type": "uint256"
            },
            {
              "internalType": "address",
              "name": "seller",
              "type": "address"
            },
            {
              "internalType": "bool",
              "name": "isMinted",
              "type": "bool"
            },
            {
              "internalType": "uint256",
              "name": "tokenId",
              "type": "uint256"
            },
            {
              "internalType": "string",
              "name": "tokenURI",
              "type": "string"
            },
            {
              "internalType": "uint256",
              "name": "quantity",
              "type": "uint256"
            },
            {
              "internalType": "uint256",
              "name": "itemAmount",
              "type": "uint256"
            },
            {
              "internalType": "address",
              "name": "charityAddress",
              "type": "address"
            },
            {
              "internalType": "uint96",
              "name": "charityShare",
              "type": "uint96"
            },
            {
              "internalType": "uint96",
              "name": "royaltyFee",
              "type": "uint96"
            },
            {
              "internalType": "uint256",
              "name": "deadline",
              "type": "uint256"
            },
            {
              "internalType": "uint256",
              "name": "salt",
              "type": "uint256"
            }
          ],
          "internalType": "struct OrderItem[]",
          "name": "orderItems",
          "type": "tuple[]"
        }
      ],
      "name": "cancelOrders",
      "outputs": [],
      "stateMutability": "nonpayable",
      "type": "function"
    },
    {
      "inputs": [
        {
          "internalType": "address",
          "name": "",
          "type": "address"
        }
      ],
      "name": "gbNftContracts",
      "outputs": [
        {
          "internalType": "bool",
          "name": "",
          "type": "bool"
        }
      ],
      "stateMutability": "view",
      "type": "function"
    },
    {
      "inputs": [
        {
          "internalType": "bytes32",
          "name": "role",
          "type": "bytes32"
        }
      ],
      "name": "getRoleAdmin",
      "outputs": [
        {
          "internalType": "bytes32",
          "name": "",
          "type": "bytes32"
        }
      ],
      "stateMutability": "view",
      "type": "function"
    },
    {
      "inputs": [
        {
          "internalType": "bytes32",
          "name": "role",
          "type": "bytes32"
        },
        {
          "internalType": "address",
          "name": "account",
          "type": "address"
        }
      ],
      "name": "grantRole",
      "outputs": [],
      "stateMutability": "nonpayable",
      "type": "function"
    },
    {
      "inputs": [
        {
          "internalType": "bytes32",
          "name": "role",
          "type": "bytes32"
        },
        {
          "internalType": "address",
          "name": "account",
          "type": "address"
        }
      ],
      "name": "hasRole",
      "outputs": [
        {
          "internalType": "bool",
          "name": "",
          "type": "bool"
        }
      ],
      "stateMutability": "view",
      "type": "function"
    },
    {
      "inputs": [
        {
          "internalType": "bytes32",
          "name": "",
          "type": "bytes32"
        }
      ],
      "name": "orderCancelled",
      "outputs": [
        {
          "internalType": "bool",
          "name": "",
          "type": "bool"
        }
      ],
      "stateMutability": "view",
      "type": "function"
    },
    {
      "inputs": [
        {
          "internalType": "bytes32",
          "name": "",
          "type": "bytes32"
        }
      ],
      "name": "orderProcessed",
      "outputs": [
        {
          "internalType": "bool",
          "name": "",
          "type": "bool"
        }
      ],
      "stateMutability": "view",
      "type": "function"
    },
    {
      "inputs": [],
      "name": "pause",
      "outputs": [],
      "stateMutability": "nonpayable",
      "type": "function"
    },
    {
      "inputs": [],
      "name": "paused",
      "outputs": [
        {
          "internalType": "bool",
          "name": "",
          "type": "bool"
        }
      ],
      "stateMutability": "view",
      "type": "function"
    },
    {
      "inputs": [],
      "name": "platformFee",
      "outputs": [
        {
          "internalType": "uint96",
          "name": "",
          "type": "uint96"
        }
      ],
      "stateMutability": "view",
      "type": "function"
    },
    {
      "inputs": [
        {
          "internalType": "bytes32",
          "name": "role",
          "type": "bytes32"
        },
        {
          "internalType": "address",
          "name": "account",
          "type": "address"
        }
      ],
      "name": "renounceRole",
      "outputs": [],
      "stateMutability": "nonpayable",
      "type": "function"
    },
    {
      "inputs": [
        {
          "internalType": "bytes32",
          "name": "role",
          "type": "bytes32"
        },
        {
          "internalType": "address",
          "name": "account",
          "type": "address"
        }
      ],
      "name": "revokeRole",
      "outputs": [],
      "stateMutability": "nonpayable",
      "type": "function"
    },
    {
      "inputs": [
        {
          "internalType": "address",
          "name": "adminWallet_",
          "type": "address"
        }
      ],
      "name": "setAdminWallet",
      "outputs": [],
      "stateMutability": "nonpayable",
      "type": "function"
    },
    {
      "inputs": [
        {
          "internalType": "address",
          "name": "nftContractAddress",
          "type": "address"
        },
        {
          "internalType": "bool",
          "name": "isEnabled",
          "type": "bool"
        }
      ],
      "name": "setNftContractAddress",
      "outputs": [],
      "stateMutability": "nonpayable",
      "type": "function"
    },
    {
      "inputs": [
        {
          "internalType": "uint96",
          "name": "platformFee_",
          "type": "uint96"
        }
      ],
      "name": "setPlatformFee",
      "outputs": [],
      "stateMutability": "nonpayable",
      "type": "function"
    },
    {
      "inputs": [
        {
          "internalType": "bytes4",
          "name": "interfaceId",
          "type": "bytes4"
        }
      ],
      "name": "supportsInterface",
      "outputs": [
        {
          "internalType": "bool",
          "name": "",
          "type": "bool"
        }
      ],
      "stateMutability": "view",
      "type": "function"
    },
    {
      "inputs": [],
      "name": "unpause",
      "outputs": [],
      "stateMutability": "nonpayable",
      "type": "function"
    },
    {
      "inputs": [
        {
          "internalType": "address",
          "name": "nftContract",
          "type": "address"
        },
        {
          "internalType": "uint256",
          "name": "tokenId",
          "type": "uint256"
        },
        {
          "internalType": "string",
          "name": "tokenURI",
          "type": "string"
        }
      ],
      "name": "updateTokenURI",
      "outputs": [],
      "stateMutability": "nonpayable",
      "type": "function"
    }
  ],
  "bytecode": "0x610140604052600680546001600160a01b0316607d60a11b1790553480156200002757600080fd5b5060405162003469380380620034698339810160408190526200004a916200024b565b604080518082018252600d81526c47424d61726b6574706c61636560981b6020808301918252835180850190945260058452640312e302e360dc1b908401528151902060e08190527f06c015bd22b4c69690933c1058878ebdfef31f9aaae40bbe86d8a09fe1b2972c6101008190524660a0529192917f8b73c3c69bb8fe3d512ecc4cf759cc79239f7b179b0ffacaa9a75d522b39400f620001318184846040805160208101859052908101839052606081018290524660808201523060a082015260009060c0016040516020818303038152906040528051906020012090509392505050565b6080523060c0526101205250506001805550506002805460ff19169055600680546001600160a01b0319166001600160a01b038316179055620001766000836200017e565b505062000283565b6200018a82826200018e565b5050565b6000828152602081815260408083206001600160a01b038516845290915290205460ff166200018a576000828152602081815260408083206001600160a01b03851684529091529020805460ff19166001179055620001ea3390565b6001600160a01b0316816001600160a01b0316837f2f8788117e7eff1d82e926ec794901d17c78024a50270940304540a733656f0d60405160405180910390a45050565b80516001600160a01b03811681146200024657600080fd5b919050565b600080604083850312156200025f57600080fd5b6200026a836200022e565b91506200027a602084016200022e565b90509250929050565b60805160a05160c05160e0516101005161012051613196620002d3600039600061213d0152600061218c01526000612167015260006120c0015260006120ea0152600061211401526131966000f3fe60806040526004361061011f5760003560e01c80635889bf5e116100a0578063a217fddf11610064578063a217fddf1461035d578063c0dd369514610372578063d547741f14610392578063dab93b0a146103b2578063f99e5dbb146103d257600080fd5b80635889bf5e146102b05780635c975abb146102e057806368b35a13146102f85780638456cb591461032857806391d148541461033d57600080fd5b80632f2ff15d116100e75780632f2ff15d1461022857806334e001d314610248578063350829331461025b57806336568abe1461027b5780633f4ba83a1461029b57600080fd5b806301ffc9a7146101245780630fcd7f8f14610159578063248a9ca31461017b57806326232a2e146101b957806327df5389146101f8575b600080fd5b34801561013057600080fd5b5061014461013f366004612451565b6103f2565b60405190151581526020015b60405180910390f35b34801561016557600080fd5b50610179610174366004612574565b610403565b005b34801561018757600080fd5b506101ab6101963660046125cc565b60009081526020819052604090206001015490565b604051908152602001610150565b3480156101c557600080fd5b506006546101e090600160a01b90046001600160601b031681565b6040516001600160601b039091168152602001610150565b34801561020457600080fd5b506101446102133660046125e5565b60036020526000908152604090205460ff1681565b34801561023457600080fd5b50610179610243366004612602565b61083c565b610179610256366004612676565b610861565b34801561026757600080fd5b506101796102763660046125e5565b610e24565b34801561028757600080fd5b50610179610296366004612602565b610ef0565b3480156102a757600080fd5b50610179610f6a565b3480156102bc57600080fd5b506101446102cb3660046125cc565b60046020526000908152604090205460ff1681565b3480156102ec57600080fd5b5060025460ff16610144565b34801561030457600080fd5b506101446103133660046125cc565b60056020526000908152604090205460ff1681565b34801561033457600080fd5b50610179610f80565b34801561034957600080fd5b50610144610358366004612602565b610f93565b34801561036957600080fd5b506101ab600081565b34801561037e57600080fd5b5061017961038d3660046126d0565b610fbc565b34801561039e57600080fd5b506101796103ad366004612602565b611096565b3480156103be57600080fd5b506101796103cd366004612676565b6110bb565b3480156103de57600080fd5b506101796103ed366004612715565b611371565b60006103fd82611439565b92915050565b61040b61146e565b6104136114c7565b6040516301ffc9a760e01b815283906001600160a01b038216906301ffc9a790610448906380ac58cd60e01b90600401612730565b602060405180830381865afa158015610465573d6000803e3d6000fd5b505050506040513d601f19601f820116820180604052508101906104899190612745565b8061050357506040516301ffc9a760e01b81526001600160a01b038216906301ffc9a7906104c290636cdb3d1360e11b90600401612730565b602060405180830381865afa1580156104df573d6000803e3d6000fd5b505050506040513d601f19601f820116820180604052508101906105039190612745565b61056f5760405162461bcd60e51b815260206004820152603260248201527f47424d61726b6574706c6163653a2054686973206973206e6f742045524337326044820152710c4bd15490cc4c4d4d4818dbdb9d1c9858dd60721b60648201526084015b60405180910390fd5b6001600160a01b0384166105eb5760405162461bcd60e51b815260206004820152603b60248201527f47424d61726b6574706c6163653a206e6674436f6e747261637420616464726560448201527f7373206d757374206e6f74206265207a65726f206164647265737300000000006064820152608401610566565b600083116106545760405162461bcd60e51b815260206004820152603060248201527f47424d61726b6574706c6163653a20746f6b656e4964206d757374206265206760448201526f726561746572207468616e207a65726f60801b6064820152608401610566565b6001600160a01b03841660009081526003602052604090205460ff166106cf5760405162461bcd60e51b815260206004820152602a60248201527f47424d61726b6574706c6163653a20496e76616c6964206e6674436f6e7472616044820152696374206164647265737360b01b6064820152608401610566565b6040516331a9108f60e11b81526004810184905233906001600160a01b03861690636352211e90602401602060405180830381865afa158015610716573d6000803e3d6000fd5b505050506040513d601f19601f8201168201806040525081019061073a9190612762565b6001600160a01b0316146107905760405162461bcd60e51b815260206004820152601f60248201527f47424d61726b6574706c6163653a206973206e6f74206e6674206f776e6572006044820152606401610566565b604051630588253160e21b81526001600160a01b0385169063162094c4906107be90869086906004016127cf565b600060405180830381600087803b1580156107d857600080fd5b505af11580156107ec573d6000803e3d6000fd5b505050507f2a594f4fdcfb43b211e3fe501443da843ed0daa6e9cc58965e68afb67938f5f28433858560405161082594939291906127f0565b60405180910390a15061083760018055565b505050565b6000828152602081905260409020600101546108578161150f565b6108378383611519565b61086961146e565b6108716114c7565b34816000816001600160401b0381111561088d5761088d6124a0565b6040519080825280602002602001820160405280156108b6578160200160208202803683370190505b5090506000826001600160401b038111156108d3576108d36124a0565b60405190808252806020026020018201604052801561090657816020015b60608152602001906001900390816108f15790505b5090506000836001600160401b03811115610923576109236124a0565b60405190808252806020026020018201604052801561094c578160200160208202803683370190505b50905060005b84811015610dd257600088888381811061096e5761096e61282d565b90506020028101906109809190612843565b61098990612954565b80516040820151602083015192935090916109a68383838d61159d565b8a88815181106109b8576109b861282d565b602002602001018a89815181106109d1576109d161282d565b602002602001018a8a815181106109ea576109ea61282d565b60200260200101838152508390528315151515815250505050878581518110610a1557610a1561282d565b6020026020010151610a2a5750505050610dca565b60e08301516101208401516101008501516127106001600160601b039092169092020490610a6190610a5c8484612a0d565b611ab2565b60e08401516006546127106001600160601b03600160a01b8304169092029190910490610a97906001600160a01b031682611ab2565b84516001600160a01b0316600090815260036020526040812054819060ff1615610c42578660600151610bb85786516040516301ffc9a760e01b81526001600160a01b03909116906301ffc9a790610afa906380ac58cd60e01b90600401612730565b602060405180830381865afa158015610b17573d6000803e3d6000fd5b505050506040513d601f19601f82011682018060405250810190610b3b9190612745565b15610bb857865160408089015160808a01516101408b015160a08c0151935163396ffcb960e21b81526001600160a01b039095169463e5bff2e494610b8594939291600401612a20565b600060405180830381600087803b158015610b9f57600080fd5b505af1158015610bb3573d6000803e3d6000fd5b505050505b8651608088015160e089015160405163152a902d60e11b8152600481019290925260248201526001600160a01b0390911690632a55205a906044016040805180830381865afa158015610c0f573d6000803e3d6000fd5b505050506040513d601f19601f82011682018060405250810190610c339190612a56565b9092509050610c428282611ab2565b60e0870151848201840190811015610c6857610c688860400151828a60e0015103611ab2565b5086516040516301ffc9a760e01b81526001600160a01b03909116906301ffc9a790610c9f906380ac58cd60e01b90600401612730565b602060405180830381865afa158015610cbc573d6000803e3d6000fd5b505050506040513d601f19601f82011682018060405250810190610ce09190612745565b15610d715786600001516001600160a01b03166342842e0e8860400151610d043390565b60808b01516040516001600160e01b031960e086901b1681526001600160a01b0393841660048201529290911660248301526044820152606401600060405180830381600087803b158015610d5857600080fd5b505af1158015610d6c573d6000803e3d6000fd5b505050505b848760e001518f03039d506001600560008c8c81518110610d9457610d9461282d565b6020026020010151815260200190815260200160002060006101000a81548160ff02191690831515021790555050505050505050505b600101610952565b507f7fc4538ec4e24165838a31cf55558696a0936db77a700812580300c7ebc3b9cf8787858585604051610e0a959493929190612bb1565b60405180910390a15050505050610e2060018055565b5050565b6000610e2f8161150f565b6001600160a01b038216610e9a5760405162461bcd60e51b815260206004820152602c60248201527f61646d696e57616c6c65742061646472657373206d757374206e6f742062652060448201526b7a65726f206164647265737360a01b6064820152608401610566565b600680546001600160a01b0319166001600160a01b0384169081179091556040519081527f1b651cfd0a3f185590087e7e632381434dfada46f037b9081264f9f5bdbfcd9b906020015b60405180910390a15050565b6001600160a01b0381163314610f605760405162461bcd60e51b815260206004820152602f60248201527f416363657373436f6e74726f6c3a2063616e206f6e6c792072656e6f756e636560448201526e103937b632b9903337b91039b2b63360891b6064820152608401610566565b610e208282611bcb565b6000610f758161150f565b610f7d611c30565b50565b6000610f8b8161150f565b610f7d611c82565b6000918252602082815260408084206001600160a01b0393909316845291905290205460ff1690565b6000610fc78161150f565b6001600160a01b0383166110325760405162461bcd60e51b815260206004820152602c60248201527f4e6674436f6e74726163742061646472657373206d757374206e6f742062652060448201526b7a65726f206164647265737360a01b6064820152608401610566565b6001600160a01b038316600081815260036020908152604091829020805460ff19168615159081179091558251938452908301527f37940b2348bce0015e28074f3a1d2ddc211ad7dfa13f0aef19072b22034ebc97910160405180910390a1505050565b6000828152602081905260409020600101546110b18161150f565b6108378383611bcb565b6110c36114c7565b806000816001600160401b038111156110de576110de6124a0565b604051908082528060200260200182016040528015611107578160200160208202803683370190505b5090506000826001600160401b03811115611124576111246124a0565b60405190808252806020026020018201604052801561115757816020015b60608152602001906001900390816111425790505b5090506000836001600160401b03811115611174576111746124a0565b60405190808252806020026020018201604052801561119d578160200160208202803683370190505b50905060005b8581101561132d57368787838181106111be576111be61282d565b90506020028101906111d09190612dc8565b90506111e260608201604083016125e5565b6001600160a01b0316336001600160a01b03161461123557604051806060016040528060278152602001612f62602791398483815181106112255761122561282d565b6020026020010181905250611324565b60018583815181106112495761124961282d565b6020026020010190151590811515815250506040518060400160405280601f81526020017f47424d61726b6574706c6163653a2043616e63656c6c6564206f726465722e008152508483815181106112a3576112a361282d565b60200260200101819052506112c0816112bb90612ddf565b611cbf565b8383815181106112d2576112d261282d565b6020026020010181815250506001600460008585815181106112f6576112f661282d565b6020026020010151815260200190815260200160002060006101000a81548160ff0219169083151502179055505b506001016111a3565b507f15f99f1cf783ec6699f2ff7916a0502d78d1cf20b8c9422ae62c33c66dce90d183838360405161136193929190612deb565b60405180910390a1505050505050565b600061137c8161150f565b6000826001600160601b0316116113e35760405162461bcd60e51b815260206004820152602560248201527f706c6174666f726d466565206d7573742062652067726561746572207468616e604482015264207a65726f60d81b6064820152608401610566565b600680546001600160a01b0316600160a01b6001600160601b038516908102919091179091556040519081527fbe3599c33046219ddc3706f4b99caca706dc0f53775580d18a367dc2188c96e590602001610ee4565b60006001600160e01b03198216637965db0b60e01b14806103fd57506301ffc9a760e01b6001600160e01b03198316146103fd565b6002600154036114c05760405162461bcd60e51b815260206004820152601f60248201527f5265656e7472616e637947756172643a207265656e7472616e742063616c6c006044820152606401610566565b6002600155565b60025460ff161561150d5760405162461bcd60e51b815260206004820152601060248201526f14185d5cd8589b194e881c185d5cd95960821b6044820152606401610566565b565b610f7d8133611de6565b6115238282610f93565b610e20576000828152602081815260408083206001600160a01b03851684529091529020805460ff191660011790556115593390565b6001600160a01b0316816001600160a01b0316837f2f8788117e7eff1d82e926ec794901d17c78024a50270940304540a733656f0d60405160405180910390a45050565b835160009060609082906001600160a01b03166115d4576040518060600160405280603b8152602001612f89603b91399150611aa8565b86516040516301ffc9a760e01b81526001600160a01b03909116906301ffc9a79061160a906380ac58cd60e01b90600401612730565b602060405180830381865afa158015611627573d6000803e3d6000fd5b505050506040513d601f19601f8201168201806040525081019061164b9190612745565b1580156116cc575086516040516301ffc9a760e01b81526001600160a01b03909116906301ffc9a79061168990636cdb3d1360e11b90600401612730565b602060405180830381865afa1580156116a6573d6000803e3d6000fd5b505050506040513d601f19601f820116820180604052508101906116ca9190612745565b155b156116f1576040518060600160405280603b8152602001612f89603b91399150611aa8565b8660600151801561177657508651604080890151905163e985e9c560e01b81526001600160a01b03918216600482015230602482015291169063e985e9c590604401602060405180830381865afa158015611750573d6000803e3d6000fd5b505050506040513d601f19601f820116820180604052508101906117749190612745565b155b1561179b576040518060600160405280602f815260200161309c602f91399150611aa8565b60408701516001600160a01b03163b156117cf576040518060600160405280603a8152602001612ffc603a91399150611aa8565b6101008701516001600160a01b031661180257604051806060016040528060378152602001613036603791399150611aa8565b6103e88761012001516001600160601b0316108061182f57506127108761012001516001600160601b0316115b15611854576040518060600160405280603e81526020016130fa603e91399150611aa8565b6127108761014001516001600160601b0316111561188c57604051806060016040528060388152602001612fc4603891399150611aa8565b612710876101400151600660149054906101000a90046001600160601b03168961012001516118bb9190612e24565b6118c59190612e24565b6001600160601b031611156118f4576040518060600160405280602f815260200161306d602f91399150611aa8565b8660e00151600003611920576040518060600160405280602f81526020016130cb602f91399150611aa8565b848760e001516119309190612a0d565b84101561195757604051806060016040528060218152602001612f18602191399150611aa8565b4287610160015110156119a1576040518060400160405280602081526020017f47424d61726b6574706c6163653a205369676e617475726520657870697265648152509150611aa8565b6119aa87611cbf565b60008181526004602052604090205490915060ff16156119e457604051806060016040528060298152602001613138602991399150611aa8565b60008181526005602052604090205460ff1615611a1b57604051806060016040528060298152602001612f39602991399150611aa8565b611a328760400151611a2c83611e3f565b88611e8d565b611a73576040518060400160405280602081526020017f47424d61726b6574706c6163653a20496e76616c6964207369676e61747572658152509150611aa8565b600192506040518060400160405280601581526020017411d093585c9ad95d1c1b1858d94e8814185cdcd959605a1b81525091505b9450945094915050565b80471015611b025760405162461bcd60e51b815260206004820152601d60248201527f416464726573733a20696e73756666696369656e742062616c616e63650000006044820152606401610566565b6000826001600160a01b03168260405160006040518083038185875af1925050503d8060008114611b4f576040519150601f19603f3d011682016040523d82523d6000602084013e611b54565b606091505b50509050806108375760405162461bcd60e51b815260206004820152603a60248201527f416464726573733a20756e61626c6520746f2073656e642076616c75652c207260448201527f6563697069656e74206d617920686176652072657665727465640000000000006064820152608401610566565b611bd58282610f93565b15610e20576000828152602081815260408083206001600160a01b0385168085529252808320805460ff1916905551339285917ff6391f5c32d9c69d2a47ea670b442974b53935d1edc7fd64eb21e047a839171b9190a45050565b611c38611eb6565b6002805460ff191690557f5db9ee0a495bf2e6ff9c91a7834c1ba4fdd244a5e8aa4e537bd38aeae4b073aa335b6040516001600160a01b03909116815260200160405180910390a1565b611c8a6114c7565b6002805460ff191660011790557f62e78cea01bee320cd4e420270b5ea74000d11b0c9f74754ebdbfc544b05a258611c653390565b60007f43cb2d66fc4660f41ce79c595d8ba94fbce89a75a46365a6cfb8a49de5d7a6cc826000015183602001518460400151856060015186608001518760a00151805190602001208860c001518960e001518a61010001518b61012001518c61014001518d61016001518e6101800151604051602001611dc99e9d9c9b9a999897969594939291909d8e526001600160a01b039c8d1660208f015260408e019b909b52988b1660608d015296151560808c015260a08b019590955260c08a019390935260e08901919091526101008801529094166101208601526001600160601b039384166101408601529092166101608401526101808301919091526101a08201526101c00190565b604051602081830303815290604052805190602001209050919050565b611df08282610f93565b610e2057611dfd81611eff565b611e08836020611f11565b604051602001611e19929190612e4b565b60408051601f198184030181529082905262461bcd60e51b825261056691600401612ec0565b60006103fd611e4c6120b3565b8360405161190160f01b6020820152602281018390526042810182905260009060620160405160208183030381529060405280519060200120905092915050565b6000611e9983836121da565b6001600160a01b0316846001600160a01b03161490509392505050565b60025460ff1661150d5760405162461bcd60e51b815260206004820152601460248201527314185d5cd8589b194e881b9bdd081c185d5cd95960621b6044820152606401610566565b60606103fd6001600160a01b03831660145b60606000611f20836002612ed3565b611f2b906002612a0d565b6001600160401b03811115611f4257611f426124a0565b6040519080825280601f01601f191660200182016040528015611f6c576020820181803683370190505b509050600360fc1b81600081518110611f8757611f8761282d565b60200101906001600160f81b031916908160001a905350600f60fb1b81600181518110611fb657611fb661282d565b60200101906001600160f81b031916908160001a9053506000611fda846002612ed3565b611fe5906001612a0d565b90505b600181111561205d576f181899199a1a9b1b9c1cb0b131b232b360811b85600f16601081106120195761201961282d565b1a60f81b82828151811061202f5761202f61282d565b60200101906001600160f81b031916908160001a90535060049490941c9361205681612eea565b9050611fe8565b5083156120ac5760405162461bcd60e51b815260206004820181905260248201527f537472696e67733a20686578206c656e67746820696e73756666696369656e746044820152606401610566565b9392505050565b6000306001600160a01b037f00000000000000000000000000000000000000000000000000000000000000001614801561210c57507f000000000000000000000000000000000000000000000000000000000000000046145b1561213657507f000000000000000000000000000000000000000000000000000000000000000090565b50604080517f00000000000000000000000000000000000000000000000000000000000000006020808301919091527f0000000000000000000000000000000000000000000000000000000000000000828401527f000000000000000000000000000000000000000000000000000000000000000060608301524660808301523060a0808401919091528351808403909101815260c0909201909252805191012090565b60008060006121e985856121fe565b915091506121f681612243565b509392505050565b60008082516041036122345760208301516040840151606085015160001a6122288782858561238d565b9450945050505061223c565b506000905060025b9250929050565b600081600481111561225757612257612f01565b0361225f5750565b600181600481111561227357612273612f01565b036122c05760405162461bcd60e51b815260206004820152601860248201527f45434453413a20696e76616c6964207369676e617475726500000000000000006044820152606401610566565b60028160048111156122d4576122d4612f01565b036123215760405162461bcd60e51b815260206004820152601f60248201527f45434453413a20696e76616c6964207369676e6174757265206c656e677468006044820152606401610566565b600381600481111561233557612335612f01565b03610f7d5760405162461bcd60e51b815260206004820152602260248201527f45434453413a20696e76616c6964207369676e6174757265202773272076616c604482015261756560f01b6064820152608401610566565b6000807f7fffffffffffffffffffffffffffffff5d576e7357a4501ddfe92f46681b20a08311156123c45750600090506003612448565b6040805160008082526020820180845289905260ff881692820192909252606081018690526080810185905260019060a0016020604051602081039080840390855afa158015612418573d6000803e3d6000fd5b5050604051601f1901519150506001600160a01b03811661244157600060019250925050612448565b9150600090505b94509492505050565b60006020828403121561246357600080fd5b81356001600160e01b0319811681146120ac57600080fd5b6001600160a01b0381168114610f7d57600080fd5b803561249b8161247b565b919050565b634e487b7160e01b600052604160045260246000fd5b6040516101a081016001600160401b03811182821017156124d9576124d96124a0565b60405290565b60006001600160401b03808411156124f9576124f96124a0565b604051601f8501601f19908116603f01168101908282118183101715612521576125216124a0565b8160405280935085815286868601111561253a57600080fd5b858560208301376000602087830101525050509392505050565b600082601f83011261256557600080fd5b6120ac838335602085016124df565b60008060006060848603121561258957600080fd5b83356125948161247b565b92506020840135915060408401356001600160401b038111156125b657600080fd5b6125c286828701612554565b9150509250925092565b6000602082840312156125de57600080fd5b5035919050565b6000602082840312156125f757600080fd5b81356120ac8161247b565b6000806040838503121561261557600080fd5b8235915060208301356126278161247b565b809150509250929050565b60008083601f84011261264457600080fd5b5081356001600160401b0381111561265b57600080fd5b6020830191508360208260051b850101111561223c57600080fd5b6000806020838503121561268957600080fd5b82356001600160401b0381111561269f57600080fd5b6126ab85828601612632565b90969095509350505050565b8015158114610f7d57600080fd5b803561249b816126b7565b600080604083850312156126e357600080fd5b82356126ee8161247b565b91506020830135612627816126b7565b80356001600160601b038116811461249b57600080fd5b60006020828403121561272757600080fd5b6120ac826126fe565b6001600160e01b031991909116815260200190565b60006020828403121561275757600080fd5b81516120ac816126b7565b60006020828403121561277457600080fd5b81516120ac8161247b565b60005b8381101561279a578181015183820152602001612782565b50506000910152565b600081518084526127bb81602086016020860161277f565b601f01601f19169290920160200192915050565b8281526040602082015260006127e860408301846127a3565b949350505050565b6001600160a01b0385811682528416602082015260408101839052608060608201819052600090612823908301846127a3565b9695505050505050565b634e487b7160e01b600052603260045260246000fd5b60008235605e1983360301811261285957600080fd5b9190910192915050565b60006101a0828403121561287657600080fd5b61287e6124b6565b905061288982612490565b8152602082013560208201526128a160408301612490565b60408201526128b2606083016126c5565b60608201526080820135608082015260a08201356001600160401b038111156128da57600080fd5b6128e684828501612554565b60a08301525060c082013560c082015260e082013560e082015261010061290e818401612490565b908201526101206129208382016126fe565b908201526101406129328382016126fe565b9082015261016082810135908201526101809182013591810191909152919050565b60006060823603121561296657600080fd5b604051606081016001600160401b038282108183111715612989576129896124a0565b81604052843591508082111561299e57600080fd5b6129aa36838701612863565b83526020850135602084015260408501359150808211156129ca57600080fd5b50830136601f8201126129dc57600080fd5b6129eb368235602084016124df565b60408301525092915050565b634e487b7160e01b600052601160045260246000fd5b808201808211156103fd576103fd6129f7565b60018060a01b03851681528360208201526001600160601b038316604082015260806060820152600061282360808301846127a3565b60008060408385031215612a6957600080fd5b8251612a748161247b565b6020939093015192949293505050565b6000808335601e19843603018112612a9b57600080fd5b83016020810192503590506001600160401b03811115612aba57600080fd5b80360382131561223c57600080fd5b81835281816020850137506000828201602090810191909152601f909101601f19169091010190565b600081518084526020808501945080840160005b83811015612b24578151151587529582019590820190600101612b06565b509495945050505050565b6000815180845260208085019450848260051b860182860160005b85811015612b74578383038952612b628383516127a3565b98850198925090840190600101612b4a565b5090979650505050505050565b600081518084526020808501945080840160005b83811015612b2457815187529582019590820190600101612b95565b608080825281810186905260009060a0808401600589901b850182018a855b8b811015612d7d57878303609f190184528135368e9003605e19018112612bf657600080fd5b8d01606081353683900361019e19018112612c1057600080fd5b8186528201612c31868301612c2483612490565b6001600160a01b03169052565b6020808201358a8801526040612c48818401612490565b6001600160a01b03168a890152612c608385016126c5565b935060c0612c71818a018615159052565b60e094508b840135858a0152612c898b850185612a84565b6101a061010081818e0152612ca36102008e018486612ac9565b9350610120925084880135838e0152610140945088880135858e0152612cca818901612490565b985050610160612ce4818e018a6001600160a01b03169052565b612cef8389016126fe565b98506101809250612d0a838e018a6001600160601b03169052565b612d158589016126fe565b6001600160601b0381168e84015298508701356101c08d0152508501356101e08b015286840135848b0152612d4c83880188612a84565b97509550898103838b0152612d62818888612ac9565b9a84019a995050509501945050506001919091019050612bd0565b50508581036020870152612d91818a612af2565b93505050508281036040840152612da88186612b2f565b90508281036060840152612dbc8185612b81565b98975050505050505050565b6000823561019e1983360301811261285957600080fd5b60006103fd3683612863565b606081526000612dfe6060830186612af2565b8281036020840152612e108186612b2f565b905082810360408401526128238185612b81565b6001600160601b03818116838216019080821115612e4457612e446129f7565b5092915050565b7f416363657373436f6e74726f6c3a206163636f756e7420000000000000000000815260008351612e8381601785016020880161277f565b7001034b99036b4b9b9b4b733903937b6329607d1b6017918401918201528351612eb481602884016020880161277f565b01602801949350505050565b6020815260006120ac60208301846127a3565b80820281158282048414176103fd576103fd6129f7565b600081612ef957612ef96129f7565b506000190190565b634e487b7160e01b600052602160045260246000fdfe47424d61726b6574706c6163653a20496e73756666696369656e742066756e647347424d61726b6574706c6163653a204f7264657220697320616c72656164792070726f63657373656447424d61726b6574706c6163653a20496e76616c6964206f726465722063616e63656c6c65722e47424d61726b6574706c6163653a206e6674436f6e74726163742061646472657373206d757374206e6f74206265207a65726f206164647265737347424d61726b6574706c6163653a20726f79616c747920666565206d757374206e6f742062652067726561746572207468616e203130302547424d61726b6574706c6163653a2073656c6c65722061646472657373206d757374206e6f7420626520636f6e7472616374206164647265737347424d61726b6574706c6163653a20636861726974792061646472657373206d757374206e6f74206265207a65726f206164647265737347424d61726b6574706c6163653a20746f74616c20666565206d757374206265206c657373207468616e203130302547424d61726b6574706c6163653a204e465420776173206e6f7420617070726f7665642066726f6d2073656c6c657247424d61726b6574706c6163653a204e4654205072696365206d7573742062652067726561746572207468616e203047424d61726b6574706c6163653a20636861726974792070657263656e74616765206d757374206265206265747765656e2031302520616e64203130302547424d61726b6574706c6163653a204f7264657220697320616c72656164792063616e63656c6c6564a2646970667358221220178abaec545f3c346696107ed5eef25a6d5a9769fbe732e434ef255968c54b5564736f6c63430008110033",
  "linkReferences": {},
  "deployedLinkReferences": {}
}