{
  "_format": "hh-sol-artifact-1",
  "contractName": "GBMarketplace",
  "sourceName": "contracts/GBMarketplace.sol",
  "abi": [
    {
      "inputs": [
        {
          "internalType": "address",
          "name": "owner",
          "type": "address"
        },
        {
          "internalType": "address",
          "name": "verifyRoleAddress",
          "type": "address"
        },
        {
          "internalType": "address",
          "name": "adminWallet_",
          "type": "address"
        }
      ],
      "stateMutability": "nonpayable",
      "type": "constructor"
    },
    {
      "anonymous": false,
      "inputs": [
        {
          "indexed": false,
          "internalType": "address",
          "name": "collection",
          "type": "address"
        },
        {
          "indexed": false,
          "internalType": "address",
          "name": "from",
          "type": "address"
        },
        {
          "indexed": false,
          "internalType": "uint256[]",
          "name": "tokenIds",
          "type": "uint256[]"
        },
        {
          "indexed": false,
          "internalType": "string[]",
          "name": "tokenURIs",
          "type": "string[]"
        },
        {
          "indexed": false,
          "internalType": "uint96",
          "name": "royaltyFee",
          "type": "uint96"
        },
        {
          "indexed": false,
          "internalType": "address",
          "name": "artistAddress",
          "type": "address"
        }
      ],
      "name": "AddedMultiplePrimaryItems",
      "type": "event"
    },
    {
      "anonymous": false,
      "inputs": [
        {
          "indexed": false,
          "internalType": "address",
          "name": "collection",
          "type": "address"
        },
        {
          "indexed": false,
          "internalType": "address",
          "name": "from",
          "type": "address"
        },
        {
          "indexed": false,
          "internalType": "uint256",
          "name": "tokenId",
          "type": "uint256"
        },
        {
          "indexed": false,
          "internalType": "string",
          "name": "tokenURI",
          "type": "string"
        },
        {
          "indexed": false,
          "internalType": "uint96",
          "name": "royaltyFee",
          "type": "uint96"
        }
      ],
      "name": "AddedSingleItem",
      "type": "event"
    },
    {
      "anonymous": false,
      "inputs": [
        {
          "components": [
            {
              "internalType": "address",
              "name": "account",
              "type": "address"
            },
            {
              "internalType": "address",
              "name": "collection",
              "type": "address"
            },
            {
              "internalType": "address",
              "name": "seller",
              "type": "address"
            },
            {
              "internalType": "uint256",
              "name": "tokenId",
              "type": "uint256"
            },
            {
              "internalType": "uint256",
              "name": "itemPrice",
              "type": "uint256"
            },
            {
              "internalType": "uint256",
              "name": "additionalPrice",
              "type": "uint256"
            },
            {
              "internalType": "address",
              "name": "charityAddress",
              "type": "address"
            },
            {
              "internalType": "uint96",
              "name": "charityFee",
              "type": "uint96"
            },
            {
              "internalType": "uint256",
              "name": "deadline",
              "type": "uint256"
            },
            {
              "internalType": "uint256",
              "name": "nonce",
              "type": "uint256"
            }
          ],
          "indexed": false,
          "internalType": "struct Domain.BuyItem",
          "name": "item",
          "type": "tuple"
        }
      ],
      "name": "BoughtItem",
      "type": "event"
    },
    {
      "anonymous": false,
      "inputs": [
        {
          "indexed": false,
          "internalType": "address",
          "name": "account",
          "type": "address"
        }
      ],
      "name": "Paused",
      "type": "event"
    },
    {
      "anonymous": false,
      "inputs": [
        {
          "indexed": true,
          "internalType": "bytes32",
          "name": "role",
          "type": "bytes32"
        },
        {
          "indexed": true,
          "internalType": "bytes32",
          "name": "previousAdminRole",
          "type": "bytes32"
        },
        {
          "indexed": true,
          "internalType": "bytes32",
          "name": "newAdminRole",
          "type": "bytes32"
        }
      ],
      "name": "RoleAdminChanged",
      "type": "event"
    },
    {
      "anonymous": false,
      "inputs": [
        {
          "indexed": true,
          "internalType": "bytes32",
          "name": "role",
          "type": "bytes32"
        },
        {
          "indexed": true,
          "internalType": "address",
          "name": "account",
          "type": "address"
        },
        {
          "indexed": true,
          "internalType": "address",
          "name": "sender",
          "type": "address"
        }
      ],
      "name": "RoleGranted",
      "type": "event"
    },
    {
      "anonymous": false,
      "inputs": [
        {
          "indexed": true,
          "internalType": "bytes32",
          "name": "role",
          "type": "bytes32"
        },
        {
          "indexed": true,
          "internalType": "address",
          "name": "account",
          "type": "address"
        },
        {
          "indexed": true,
          "internalType": "address",
          "name": "sender",
          "type": "address"
        }
      ],
      "name": "RoleRevoked",
      "type": "event"
    },
    {
      "anonymous": false,
      "inputs": [
        {
          "indexed": false,
          "internalType": "address",
          "name": "account",
          "type": "address"
        }
      ],
      "name": "SetAdminWallet",
      "type": "event"
    },
    {
      "anonymous": false,
      "inputs": [
        {
          "indexed": false,
          "internalType": "address",
          "name": "collectionAddress",
          "type": "address"
        },
        {
          "indexed": false,
          "internalType": "bool",
          "name": "status",
          "type": "bool"
        }
      ],
      "name": "SetCollectionAddress",
      "type": "event"
    },
    {
      "anonymous": false,
      "inputs": [
        {
          "indexed": false,
          "internalType": "uint96",
          "name": "platformFee",
          "type": "uint96"
        }
      ],
      "name": "SetPlatformFee",
      "type": "event"
    },
    {
      "anonymous": false,
      "inputs": [
        {
          "indexed": false,
          "internalType": "address",
          "name": "verifyRoleAddress",
          "type": "address"
        }
      ],
      "name": "SetVerifyRole",
      "type": "event"
    },
    {
      "anonymous": false,
      "inputs": [
        {
          "indexed": false,
          "internalType": "address",
          "name": "account",
          "type": "address"
        }
      ],
      "name": "Unpaused",
      "type": "event"
    },
    {
      "anonymous": false,
      "inputs": [
        {
          "indexed": false,
          "internalType": "address",
          "name": "collection",
          "type": "address"
        },
        {
          "indexed": false,
          "internalType": "address",
          "name": "from",
          "type": "address"
        },
        {
          "indexed": false,
          "internalType": "uint256",
          "name": "tokenId",
          "type": "uint256"
        },
        {
          "indexed": false,
          "internalType": "string",
          "name": "tokenURI",
          "type": "string"
        }
      ],
      "name": "UpdatedTokenURI",
      "type": "event"
    },
    {
      "inputs": [],
      "name": "DEFAULT_ADMIN_ROLE",
      "outputs": [
        {
          "internalType": "bytes32",
          "name": "",
          "type": "bytes32"
        }
      ],
      "stateMutability": "view",
      "type": "function"
    },
    {
      "inputs": [],
      "name": "VERIFY_ROLE",
      "outputs": [
        {
          "internalType": "bytes32",
          "name": "",
          "type": "bytes32"
        }
      ],
      "stateMutability": "view",
      "type": "function"
    },
    {
      "inputs": [
        {
          "internalType": "address",
          "name": "collection",
          "type": "address"
        },
        {
          "internalType": "uint256[]",
          "name": "tokenIds",
          "type": "uint256[]"
        },
        {
          "internalType": "uint96",
          "name": "royaltyFee",
          "type": "uint96"
        },
        {
          "internalType": "string[]",
          "name": "tokenURIs",
          "type": "string[]"
        },
        {
          "internalType": "address",
          "name": "artistAddress",
          "type": "address"
        }
      ],
      "name": "addPrimaryMultipleItems",
      "outputs": [],
      "stateMutability": "nonpayable",
      "type": "function"
    },
    {
      "inputs": [
        {
          "components": [
            {
              "internalType": "address",
              "name": "account",
              "type": "address"
            },
            {
              "internalType": "address",
              "name": "collection",
              "type": "address"
            },
            {
              "internalType": "uint256",
              "name": "tokenId",
              "type": "uint256"
            },
            {
              "internalType": "uint96",
              "name": "royaltyFee",
              "type": "uint96"
            },
            {
              "internalType": "string",
              "name": "tokenURI",
              "type": "string"
            },
            {
              "internalType": "uint256",
              "name": "deadline",
              "type": "uint256"
            },
            {
              "internalType": "uint256",
              "name": "nonce",
              "type": "uint256"
            }
          ],
          "internalType": "struct Domain.AddSingleItem",
          "name": "item",
          "type": "tuple"
        },
        {
          "internalType": "bytes",
          "name": "signature",
          "type": "bytes"
        }
      ],
      "name": "addSingleItem",
      "outputs": [],
      "stateMutability": "nonpayable",
      "type": "function"
    },
    {
      "inputs": [
        {
          "components": [
            {
              "internalType": "address",
              "name": "account",
              "type": "address"
            },
            {
              "internalType": "address",
              "name": "collection",
              "type": "address"
            },
            {
              "internalType": "address",
              "name": "seller",
              "type": "address"
            },
            {
              "internalType": "uint256",
              "name": "tokenId",
              "type": "uint256"
            },
            {
              "internalType": "uint256",
              "name": "itemPrice",
              "type": "uint256"
            },
            {
              "internalType": "uint256",
              "name": "additionalPrice",
              "type": "uint256"
            },
            {
              "internalType": "address",
              "name": "charityAddress",
              "type": "address"
            },
            {
              "internalType": "uint96",
              "name": "charityFee",
              "type": "uint96"
            },
            {
              "internalType": "uint256",
              "name": "deadline",
              "type": "uint256"
            },
            {
              "internalType": "uint256",
              "name": "nonce",
              "type": "uint256"
            }
          ],
          "internalType": "struct Domain.BuyItem",
          "name": "item",
          "type": "tuple"
        },
        {
          "internalType": "bytes",
          "name": "signature",
          "type": "bytes"
        }
      ],
      "name": "buyItem",
      "outputs": [],
      "stateMutability": "payable",
      "type": "function"
    },
    {
      "inputs": [
        {
          "internalType": "address",
          "name": "",
          "type": "address"
        }
      ],
      "name": "gbCollection",
      "outputs": [
        {
          "internalType": "bool",
          "name": "",
          "type": "bool"
        }
      ],
      "stateMutability": "view",
      "type": "function"
    },
    {
      "inputs": [
        {
          "internalType": "bytes32",
          "name": "role",
          "type": "bytes32"
        }
      ],
      "name": "getRoleAdmin",
      "outputs": [
        {
          "internalType": "bytes32",
          "name": "",
          "type": "bytes32"
        }
      ],
      "stateMutability": "view",
      "type": "function"
    },
    {
      "inputs": [
        {
          "internalType": "bytes32",
          "name": "role",
          "type": "bytes32"
        },
        {
          "internalType": "address",
          "name": "account",
          "type": "address"
        }
      ],
      "name": "grantRole",
      "outputs": [],
      "stateMutability": "nonpayable",
      "type": "function"
    },
    {
      "inputs": [
        {
          "internalType": "bytes32",
          "name": "role",
          "type": "bytes32"
        },
        {
          "internalType": "address",
          "name": "account",
          "type": "address"
        }
      ],
      "name": "hasRole",
      "outputs": [
        {
          "internalType": "bool",
          "name": "",
          "type": "bool"
        }
      ],
      "stateMutability": "view",
      "type": "function"
    },
    {
      "inputs": [
        {
          "internalType": "address",
          "name": "",
          "type": "address"
        },
        {
          "internalType": "uint256",
          "name": "",
          "type": "uint256"
        }
      ],
      "name": "itemInfo",
      "outputs": [
        {
          "internalType": "address",
          "name": "royaltyAddress",
          "type": "address"
        },
        {
          "internalType": "uint96",
          "name": "royaltyFee",
          "type": "uint96"
        },
        {
          "internalType": "bool",
          "name": "isPrimaryCollection",
          "type": "bool"
        }
      ],
      "stateMutability": "view",
      "type": "function"
    },
    {
      "inputs": [
        {
          "internalType": "address",
          "name": "",
          "type": "address"
        }
      ],
      "name": "nonces",
      "outputs": [
        {
          "internalType": "uint256",
          "name": "",
          "type": "uint256"
        }
      ],
      "stateMutability": "view",
      "type": "function"
    },
    {
      "inputs": [],
      "name": "pause",
      "outputs": [],
      "stateMutability": "nonpayable",
      "type": "function"
    },
    {
      "inputs": [],
      "name": "paused",
      "outputs": [
        {
          "internalType": "bool",
          "name": "",
          "type": "bool"
        }
      ],
      "stateMutability": "view",
      "type": "function"
    },
    {
      "inputs": [],
      "name": "platformFee",
      "outputs": [
        {
          "internalType": "uint96",
          "name": "",
          "type": "uint96"
        }
      ],
      "stateMutability": "view",
      "type": "function"
    },
    {
      "inputs": [
        {
          "internalType": "bytes32",
          "name": "role",
          "type": "bytes32"
        },
        {
          "internalType": "address",
          "name": "account",
          "type": "address"
        }
      ],
      "name": "renounceRole",
      "outputs": [],
      "stateMutability": "nonpayable",
      "type": "function"
    },
    {
      "inputs": [
        {
          "internalType": "bytes32",
          "name": "role",
          "type": "bytes32"
        },
        {
          "internalType": "address",
          "name": "account",
          "type": "address"
        }
      ],
      "name": "revokeRole",
      "outputs": [],
      "stateMutability": "nonpayable",
      "type": "function"
    },
    {
      "inputs": [
        {
          "internalType": "address",
          "name": "adminWallet_",
          "type": "address"
        }
      ],
      "name": "setAdminWallet",
      "outputs": [],
      "stateMutability": "nonpayable",
      "type": "function"
    },
    {
      "inputs": [
        {
          "internalType": "address",
          "name": "collectionAddress",
          "type": "address"
        },
        {
          "internalType": "bool",
          "name": "isCollection",
          "type": "bool"
        }
      ],
      "name": "setGBCollectionAddress",
      "outputs": [],
      "stateMutability": "nonpayable",
      "type": "function"
    },
    {
      "inputs": [
        {
          "internalType": "uint96",
          "name": "platformFee_",
          "type": "uint96"
        }
      ],
      "name": "setPlatformFee",
      "outputs": [],
      "stateMutability": "nonpayable",
      "type": "function"
    },
    {
      "inputs": [
        {
          "internalType": "address",
          "name": "verifyRoleAddress",
          "type": "address"
        }
      ],
      "name": "setVerifyRole",
      "outputs": [],
      "stateMutability": "nonpayable",
      "type": "function"
    },
    {
      "inputs": [
        {
          "internalType": "bytes4",
          "name": "interfaceId",
          "type": "bytes4"
        }
      ],
      "name": "supportsInterface",
      "outputs": [
        {
          "internalType": "bool",
          "name": "",
          "type": "bool"
        }
      ],
      "stateMutability": "view",
      "type": "function"
    },
    {
      "inputs": [],
      "name": "unpause",
      "outputs": [],
      "stateMutability": "nonpayable",
      "type": "function"
    },
    {
      "inputs": [
        {
          "components": [
            {
              "internalType": "address",
              "name": "account",
              "type": "address"
            },
            {
              "internalType": "address",
              "name": "collection",
              "type": "address"
            },
            {
              "internalType": "uint256",
              "name": "tokenId",
              "type": "uint256"
            },
            {
              "internalType": "string",
              "name": "tokenURI",
              "type": "string"
            },
            {
              "internalType": "uint256",
              "name": "deadline",
              "type": "uint256"
            },
            {
              "internalType": "uint256",
              "name": "nonce",
              "type": "uint256"
            }
          ],
          "internalType": "struct Domain.UpdateTokenURI",
          "name": "tokenUriInfo",
          "type": "tuple"
        },
        {
          "internalType": "bytes",
          "name": "signature",
          "type": "bytes"
        }
      ],
      "name": "updateTokenURI",
      "outputs": [],
      "stateMutability": "nonpayable",
      "type": "function"
    }
  ],
  "bytecode": "0x610140604052600680546001600160a01b0316607d60a11b1790553480156200002757600080fd5b506040516200354c3803806200354c8339810160408190526200004a9162000278565b604080518082018252600d81526c47424d61726b6574706c61636560981b6020808301918252835180850190945260058452640312e302e360dc1b908401528151902060e08190527f06c015bd22b4c69690933c1058878ebdfef31f9aaae40bbe86d8a09fe1b2972c6101008190524660a0529192917f8b73c3c69bb8fe3d512ecc4cf759cc79239f7b179b0ffacaa9a75d522b39400f620001318184846040805160208101859052908101839052606081018290524660808201523060a082015260009060c0016040516020818303038152906040528051906020012090509392505050565b6080523060c0526101205250506001805550506002805460ff19169055600680546001600160a01b0319166001600160a01b03831617905562000176600084620001ab565b620001a27fd262a1e181ec035692bcc8c920b971bccc173d5263f104f91c1561b5033679dd83620001ab565b505050620002c2565b620001b78282620001bb565b5050565b6000828152602081815260408083206001600160a01b038516845290915290205460ff16620001b7576000828152602081815260408083206001600160a01b03851684529091529020805460ff19166001179055620002173390565b6001600160a01b0316816001600160a01b0316837f2f8788117e7eff1d82e926ec794901d17c78024a50270940304540a733656f0d60405160405180910390a45050565b80516001600160a01b03811681146200027357600080fd5b919050565b6000806000606084860312156200028e57600080fd5b62000299846200025b565b9250620002a9602085016200025b565b9150620002b9604085016200025b565b90509250925092565b60805160a05160c05160e051610100516101205161323a6200031260003960006121ec0152600061223b015260006122160152600061216f01526000612199015260006121c3015261323a6000f3fe6080604052600436106101405760003560e01c80638456cb59116100b6578063b9bca0da1161006f578063b9bca0da1461040d578063c46f23f41461042d578063d41d0e5c1461044d578063d547741f14610481578063e20c7153146104a1578063f99e5dbb146104c157600080fd5b80638456cb591461035357806390bb447f1461036857806391d148541461039857806394ae3881146103b8578063a217fddf146103d8578063ae3771b4146103ed57600080fd5b8063350829331161010857806335082933146102a657806336568abe146102c65780633f4ba83a146102e65780635c975abb146102fb5780637ecebe0014610313578063811f6b761461034057600080fd5b806301ffc9a7146101455780631cdaab671461017a578063248a9ca31461020757806326232a2e146102455780632f2ff15d14610284575b600080fd5b34801561015157600080fd5b50610165610160366004612758565b6104e1565b60405190151581526020015b60405180910390f35b34801561018657600080fd5b506101d86101953660046127a7565b6005602090815260009283526040808420909152908252902080546001909101546001600160a01b03821691600160a01b90046001600160601b03169060ff1683565b604080516001600160a01b0390941684526001600160601b039092166020840152151590820152606001610171565b34801561021357600080fd5b506102376102223660046127d3565b60009081526020819052604090206001015490565b604051908152602001610171565b34801561025157600080fd5b5060065461026c90600160a01b90046001600160601b031681565b6040516001600160601b039091168152602001610171565b34801561029057600080fd5b506102a461029f3660046127ec565b6104f2565b005b3480156102b257600080fd5b506102a46102c136600461281c565b61051c565b3480156102d257600080fd5b506102a46102e13660046127ec565b6105ed565b3480156102f257600080fd5b506102a461066b565b34801561030757600080fd5b5060025460ff16610165565b34801561031f57600080fd5b5061023761032e36600461281c565b60046020526000908152604090205481565b6102a461034e36600461287b565b610681565b34801561035f57600080fd5b506102a4610e36565b34801561037457600080fd5b5061016561038336600461281c565b60036020526000908152604090205460ff1681565b3480156103a457600080fd5b506101656103b33660046127ec565b610e49565b3480156103c457600080fd5b506102a46103d3366004612934565b610e72565b3480156103e457600080fd5b50610237600081565b3480156103f957600080fd5b506102a46104083660046129de565b6111db565b34801561041957600080fd5b506102a4610428366004612a42565b611547565b34801561043957600080fd5b506102a461044836600461281c565b611862565b34801561045957600080fd5b506102377fd262a1e181ec035692bcc8c920b971bccc173d5263f104f91c1561b5033679dd81565b34801561048d57600080fd5b506102a461049c3660046127ec565b61193a565b3480156104ad57600080fd5b506102a46104bc366004612a83565b61195f565b3480156104cd57600080fd5b506102a46104dc366004612ab6565b611a3a565b60006104ec82611b02565b92915050565b60008281526020819052604090206001015461050d81611b37565b6105178383611b41565b505050565b600061052781611b37565b6001600160a01b0382166105975760405162461bcd60e51b815260206004820152602c60248201527f61646d696e57616c6c65742061646472657373206d757374206e6f742062652060448201526b7a65726f206164647265737360a01b60648201526084015b60405180910390fd5b600680546001600160a01b0319166001600160a01b0384169081179091556040519081527f1b651cfd0a3f185590087e7e632381434dfada46f037b9081264f9f5bdbfcd9b906020015b60405180910390a15050565b6001600160a01b038116331461065d5760405162461bcd60e51b815260206004820152602f60248201527f416363657373436f6e74726f6c3a2063616e206f6e6c792072656e6f756e636560448201526e103937b632b9903337b91039b2b63360891b606482015260840161058e565b6106678282611bc5565b5050565b600061067681611b37565b61067e611c2a565b50565b6002600154036106a35760405162461bcd60e51b815260040161058e90612ad1565b60026001556106b0611c7c565b60006106c2604085016020860161281c565b6001600160a01b0316036106e85760405162461bcd60e51b815260040161058e90612b08565b6106f8606084016040850161281c565b6001600160a01b03163b156107755760405162461bcd60e51b815260206004820152603a60248201527f47424d61726b6574706c6163653a2073656c6c65722061646472657373206d7560448201527f7374206e6f7420626520636f6e74726163742061646472657373000000000000606482015260840161058e565b600061078760e0850160c0860161281c565b6001600160a01b0316036108035760405162461bcd60e51b815260206004820152603760248201527f47424d61726b6574706c6163653a20636861726974792061646472657373206d60448201527f757374206e6f74206265207a65726f2061646472657373000000000000000000606482015260840161058e565b6103e8610817610100850160e08601612ab6565b6001600160601b031610158015610849575061271061083d610100850160e08601612ab6565b6001600160601b031611155b6108bb5760405162461bcd60e51b815260206004820152603e60248201527f47424d61726b6574706c6163653a20636861726974792070657263656e74616760448201527f65206d757374206265206265747765656e2031302520616e6420313030250000606482015260840161058e565b60006005816108d0604087016020880161281c565b6001600160a01b039081168252602080830193909352604091820160009081206060808a013583529085529083902083519182018452805492831682526001600160601b03600160a01b93849004811695830186905260019091015460ff16151593820193909352600654909450612710939291900416610958610100880160e08901612ab6565b6109629190612b7b565b61096c9190612b7b565b6001600160601b031611156109db5760405162461bcd60e51b815260206004820152602f60248201527f47424d61726b6574706c6163653a20746f74616c20666565206d75737420626560448201526e206c657373207468616e203130302560881b606482015260840161058e565b6000846080013511610a475760405162461bcd60e51b815260206004820152602f60248201527f47424d61726b6574706c6163653a204e4654205072696365206d75737420626560448201526e02067726561746572207468616e203608c1b606482015260840161058e565b610a5960a08501356080860135612ba2565b341015610ab25760405162461bcd60e51b815260206004820152602160248201527f47424d61726b6574706c6163653a20496e73756666696369656e742066756e646044820152607360f81b606482015260840161058e565b836101000135421115610ad75760405162461bcd60e51b815260040161058e90612bb5565b60036000610aeb604087016020880161281c565b6001600160a01b0316815260208101919091526040016000205460ff16610b245760405162461bcd60e51b815260040161058e90612bea565b33600090815260046020526040902054610b85610b49610b448784611cc4565b611dd3565b85858080601f016020809104026020016040519081016040528093929190818152602001838380828437600092019190915250611de692505050565b610ba15760405162461bcd60e51b815260040161058e90612c33565b6000610bd36080870135610bbc610100890160e08a01612ab6565b6127106001600160601b0391909116919091020490565b9050610bfb610be860e0880160c0890161281c565b610bf660a089013584612ba2565b611e1d565b600080610c0e6040890160208a0161281c565b60405163152a902d60e11b815260608a0135600482015260808a013560248201526001600160a01b039190911690632a55205a906044016040805180830381865afa158015610c61573d6000803e3d6000fd5b505050506040513d601f19601f82011682018060405250810190610c859190612c5e565b91509150610c938282611e1d565b60065461271060808a0135600160a01b83046001600160601b0316020490610cc4906001600160a01b031682611e1d565b6080890135849003829003818103908214610d3e57866040015115610d2b576000610cf0600283612c8c565b9050610d0b610d0560608d0160408e0161281c565b82611e1d565b600654610d25906001600160a01b0316610bf68385612cae565b50610d3e565b610d3e610d0560608c0160408d0161281c565b3360009081526004602090815260409182902080546001019055610d66918c01908c0161281c565b6001600160a01b03166342842e0e610d8460608d0160408e0161281c565b336040516001600160e01b031960e085901b1681526001600160a01b0392831660048201529116602482015260608d01356044820152606401600060405180830381600087803b158015610dd757600080fd5b505af1158015610deb573d6000803e3d6000fd5b505050507fb238def85b84e39431a81cf74571c9e05efa135b52dd670762d0d300f04402968a604051610e1e9190612cc1565b60405180910390a15050600180555050505050505050565b6000610e4181611b37565b61067e611f36565b6000918252602082815260408084206001600160a01b0393909316845291905290205460ff1690565b600260015403610e945760405162461bcd60e51b815260040161058e90612ad1565b6002600155610ea1611c7c565b6000610eac81611b37565b6001600160a01b038816610ed25760405162461bcd60e51b815260040161058e90612b08565b858314610f475760405162461bcd60e51b815260206004820152603a60248201527f47424d61726b6574706c6163653a20746f6b656e49647320616e6420746f6b6560448201527f6e55524973206c656e677468206d75737420626520657175616c000000000000606482015260840161058e565b6001600160a01b03881660009081526003602052604090205460ff16610f7f5760405162461bcd60e51b815260040161058e90612bea565b60005b86811015611187576000888883818110610f9e57610f9e612d85565b9050602002013511610fc25760405162461bcd60e51b815260040161058e90612d9b565b604080516060810182526001600160a01b0380861682526001600160601b038916602080840191909152600183850152908c166000908152600590915291822090918a8a8581811061101657611016612d85565b602090810292909201358352508181019290925260409081016000208351928401516001600160601b0316600160a01b026001600160a01b039384161781559201516001909201805492151560ff1990931692909217909155891663e5bff2e4848a8a8581811061108957611089612d85565b90506020020135898989878181106110a3576110a3612d85565b90506020028101906110b59190612deb565b6040518663ffffffff1660e01b81526004016110d5959493929190612e5b565b600060405180830381600087803b1580156110ef57600080fd5b505af1158015611103573d6000803e3d6000fd5b505050507f723a7f75732cc7c49d80e424f8f880b978246d5e12bd498d41d6a39240e2c67889848a8a8581811061113c5761113c612d85565b9050602002013588888681811061115557611155612d85565b90506020028101906111679190612deb565b8b60405161117a96959493929190612e9d565b60405180910390a1610f82565b507fa74b74a78619f24285b7c1638ce8aca155445a36c3703f2297493080a0c1585a8833898988888b896040516111c5989796959493929190612eed565b60405180910390a1505060018055505050505050565b6002600154036111fd5760405162461bcd60e51b815260040161058e90612ad1565b600260015561120a611c7c565b600061121c604085016020860161281c565b6001600160a01b0316036112425760405162461bcd60e51b815260040161058e90612b08565b60008360400135116112665760405162461bcd60e51b815260040161058e90612d9b565b6003600061127a604086016020870161281c565b6001600160a01b0316815260208101919091526040016000205460ff166112b35760405162461bcd60e51b815260040161058e90612bea565b82608001354211156112d75760405162461bcd60e51b815260040161058e90612bb5565b336000908152600460205260409020546113336112f7610b448684611f73565b84848080601f016020809104026020016040519081016040528093929190818152602001838380828437600092019190915250611de692505050565b61134f5760405162461bcd60e51b815260040161058e90612c33565b33611360604086016020870161281c565b6001600160a01b0316636352211e86604001356040518263ffffffff1660e01b815260040161139191815260200190565b602060405180830381865afa1580156113ae573d6000803e3d6000fd5b505050506040513d601f19601f820116820180604052508101906113d29190613009565b6001600160a01b0316146114465760405162461bcd60e51b815260206004820152603560248201527f47424d61726b6574706c6163653a204f6e6c79204e4654206f776e65722063616044820152746e20757064617465206368617269747920696e666f60581b606482015260840161058e565b336000908152600460209081526040918290208054600101905561146e91860190860161281c565b6001600160a01b031663162094c4604086013561148e6060880188612deb565b6040518463ffffffff1660e01b81526004016114ac93929190613026565b600060405180830381600087803b1580156114c657600080fd5b505af11580156114da573d6000803e3d6000fd5b507f2a594f4fdcfb43b211e3fe501443da843ed0daa6e9cc58965e68afb67938f5f29250611511915050604086016020870161281c565b3360408701356115246060890189612deb565b604051611535959493929190613049565b60405180910390a15050600180555050565b6002600154036115695760405162461bcd60e51b815260040161058e90612ad1565b6002600155611576611c7c565b6000611588604085016020860161281c565b6001600160a01b0316036115ae5760405162461bcd60e51b815260040161058e90612b08565b60008360400135116115d25760405162461bcd60e51b815260040161058e90612d9b565b600360006115e6604086016020870161281c565b6001600160a01b0316815260208101919091526040016000205460ff1661161f5760405162461bcd60e51b815260040161058e90612bea565b8260a001354211156116435760405162461bcd60e51b815260040161058e90612bb5565b336000908152600460205260409020546116636112f7610b448684611fe2565b61167f5760405162461bcd60e51b815260040161058e90612c33565b60405180606001604052806116913390565b6001600160a01b031681526020016116af6080870160608801612ab6565b6001600160601b03168152600060209182018190526005916116d7906040890190890161281c565b6001600160a01b0390811682526020808301939093526040918201600090812089840135825284528281208551948601516001600160601b0316600160a01b02949092169390931781559201516001909201805492151560ff19909316929092179091556004906117453390565b6001600160a01b031681526020808201929092526040908101600020805460010190556117779190860190860161281c565b6001600160a01b031663e5bff2e433604087013561179b6080890160608a01612ab6565b6117a860808a018a612deb565b6040518663ffffffff1660e01b81526004016117c8959493929190612e5b565b600060405180830381600087803b1580156117e257600080fd5b505af11580156117f6573d6000803e3d6000fd5b507f723a7f75732cc7c49d80e424f8f880b978246d5e12bd498d41d6a39240e2c678925061182d915050604086016020870161281c565b3360408701356118406080890189612deb565b61185060808b0160608c01612ab6565b60405161153596959493929190612e9d565b600061186d81611b37565b6001600160a01b0382166118d75760405162461bcd60e51b815260206004820152602b60248201527f766572696679526f6c652061646472657373206d757374206e6f74206265207a60448201526a65726f206164647265737360a81b606482015260840161058e565b6119017fd262a1e181ec035692bcc8c920b971bccc173d5263f104f91c1561b5033679dd83611b41565b6040516001600160a01b03831681527f823bfe6c95b007bb6cc8bb748029c56ae8f83f9fc647a5c47b36f893bdefe74f906020016105e1565b60008281526020819052604090206001015461195581611b37565b6105178383611bc5565b600061196a81611b37565b6001600160a01b0383166119d65760405162461bcd60e51b815260206004820152602d60248201527f6762436f6c6c656374696f6e2061646472657373206d757374206e6f7420626560448201526c207a65726f206164647265737360981b606482015260840161058e565b6001600160a01b038316600081815260036020908152604091829020805460ff19168615159081179091558251938452908301527f223891d059d602a4595404ec0a953e0fa8de6291465a1e0d904d07f387f0b7fa910160405180910390a1505050565b6000611a4581611b37565b6000826001600160601b031611611aac5760405162461bcd60e51b815260206004820152602560248201527f706c6174666f726d466565206d7573742062652067726561746572207468616e604482015264207a65726f60d81b606482015260840161058e565b600680546001600160a01b0316600160a01b6001600160601b038516908102919091179091556040519081527fbe3599c33046219ddc3706f4b99caca706dc0f53775580d18a367dc2188c96e5906020016105e1565b60006001600160e01b03198216637965db0b60e01b14806104ec57506301ffc9a760e01b6001600160e01b03198316146104ec565b61067e81336120b5565b611b4b8282610e49565b610667576000828152602081815260408083206001600160a01b03851684529091529020805460ff19166001179055611b813390565b6001600160a01b0316816001600160a01b0316837f2f8788117e7eff1d82e926ec794901d17c78024a50270940304540a733656f0d60405160405180910390a45050565b611bcf8282610e49565b15610667576000828152602081815260408083206001600160a01b0385168085529252808320805460ff1916905551339285917ff6391f5c32d9c69d2a47ea670b442974b53935d1edc7fd64eb21e047a839171b9190a45050565b611c32612119565b6002805460ff191690557f5db9ee0a495bf2e6ff9c91a7834c1ba4fdd244a5e8aa4e537bd38aeae4b073aa335b6040516001600160a01b03909116815260200160405180910390a1565b60025460ff1615611cc25760405162461bcd60e51b815260206004820152601060248201526f14185d5cd8589b194e881c185d5cd95960821b604482015260640161058e565b565b60007f17267e3c9a41fdc4878f6c57751034dfbbf7febe7592905bfe881b17e566ed2b611cf4602085018561281c565b611d04604086016020870161281c565b611d14606087016040880161281c565b6060870135608088013560a0890135611d3360e08b0160c08c0161281c565b611d446101008c0160e08d01612ab6565b60408051602081019a909a526001600160a01b03988916908a01529587166060890152938616608088015260a087019290925260c086015260e0850152909116610100808401919091526001600160601b039091166101208301528401356101408201526101608101839052610180015b60405160208183030381529060405280519060200120905092915050565b60006104ec611de0612162565b83612289565b6000611e167fd262a1e181ec035692bcc8c920b971bccc173d5263f104f91c1561b5033679dd6103b385856122b0565b9392505050565b80471015611e6d5760405162461bcd60e51b815260206004820152601d60248201527f416464726573733a20696e73756666696369656e742062616c616e6365000000604482015260640161058e565b6000826001600160a01b03168260405160006040518083038185875af1925050503d8060008114611eba576040519150601f19603f3d011682016040523d82523d6000602084013e611ebf565b606091505b50509050806105175760405162461bcd60e51b815260206004820152603a60248201527f416464726573733a20756e61626c6520746f2073656e642076616c75652c207260448201527f6563697069656e74206d61792068617665207265766572746564000000000000606482015260840161058e565b611f3e611c7c565b6002805460ff191660011790557f62e78cea01bee320cd4e420270b5ea74000d11b0c9f74754ebdbfc544b05a258611c5f3390565b60007f485787466c6bb756e23877696afb1ffef4d4f7daa150be930943445b9efd5abc611fa3602085018561281c565b611fb3604086016020870161281c565b6040860135611fc56060880188612deb565b886080013588604051602001611db598979695949392919061307d565b60007fd7414a21ae7fe6c7ae7ba4fc193977b266778b52f64e202866e96f1d30267f7f612012602085018561281c565b612022604086016020870161281c565b60408601356120376080880160608901612ab6565b6120446080890189612deb565b6040516120529291906130ce565b6040805191829003822060208301979097526001600160a01b039586169082015293909216606084015260808301526001600160601b031660a08083019190915260c08201929092529084013560e0820152610100810183905261012001611db5565b6120bf8282610e49565b610667576120d7816001600160a01b031660146122d4565b6120e28360206122d4565b6040516020016120f3929190613102565b60408051601f198184030181529082905262461bcd60e51b825261058e91600401613177565b60025460ff16611cc25760405162461bcd60e51b815260206004820152601460248201527314185d5cd8589b194e881b9bdd081c185d5cd95960621b604482015260640161058e565b6000306001600160a01b037f0000000000000000000000000000000000000000000000000000000000000000161480156121bb57507f000000000000000000000000000000000000000000000000000000000000000046145b156121e557507f000000000000000000000000000000000000000000000000000000000000000090565b50604080517f00000000000000000000000000000000000000000000000000000000000000006020808301919091527f0000000000000000000000000000000000000000000000000000000000000000828401527f000000000000000000000000000000000000000000000000000000000000000060608301524660808301523060a0808401919091528351808403909101815260c0909201909252805191012090565b60405161190160f01b60208201526022810183905260428101829052600090606201611db5565b60008060006122bf8585612470565b915091506122cc816124b5565b509392505050565b606060006122e38360026131aa565b6122ee906002612ba2565b67ffffffffffffffff811115612306576123066131c1565b6040519080825280601f01601f191660200182016040528015612330576020820181803683370190505b509050600360fc1b8160008151811061234b5761234b612d85565b60200101906001600160f81b031916908160001a905350600f60fb1b8160018151811061237a5761237a612d85565b60200101906001600160f81b031916908160001a905350600061239e8460026131aa565b6123a9906001612ba2565b90505b6001811115612421576f181899199a1a9b1b9c1cb0b131b232b360811b85600f16601081106123dd576123dd612d85565b1a60f81b8282815181106123f3576123f3612d85565b60200101906001600160f81b031916908160001a90535060049490941c9361241a816131d7565b90506123ac565b508315611e165760405162461bcd60e51b815260206004820181905260248201527f537472696e67733a20686578206c656e67746820696e73756666696369656e74604482015260640161058e565b60008082516041036124a65760208301516040840151606085015160001a61249a8782858561266b565b945094505050506124ae565b506000905060025b9250929050565b60008160048111156124c9576124c96131ee565b036124d15750565b60018160048111156124e5576124e56131ee565b036125325760405162461bcd60e51b815260206004820152601860248201527f45434453413a20696e76616c6964207369676e61747572650000000000000000604482015260640161058e565b6002816004811115612546576125466131ee565b036125935760405162461bcd60e51b815260206004820152601f60248201527f45434453413a20696e76616c6964207369676e6174757265206c656e67746800604482015260640161058e565b60038160048111156125a7576125a76131ee565b036125ff5760405162461bcd60e51b815260206004820152602260248201527f45434453413a20696e76616c6964207369676e6174757265202773272076616c604482015261756560f01b606482015260840161058e565b6004816004811115612613576126136131ee565b0361067e5760405162461bcd60e51b815260206004820152602260248201527f45434453413a20696e76616c6964207369676e6174757265202776272076616c604482015261756560f01b606482015260840161058e565b6000807f7fffffffffffffffffffffffffffffff5d576e7357a4501ddfe92f46681b20a08311156126a2575060009050600361274f565b8460ff16601b141580156126ba57508460ff16601c14155b156126cb575060009050600461274f565b6040805160008082526020820180845289905260ff881692820192909252606081018690526080810185905260019060a0016020604051602081039080840390855afa15801561271f573d6000803e3d6000fd5b5050604051601f1901519150506001600160a01b0381166127485760006001925092505061274f565b9150600090505b94509492505050565b60006020828403121561276a57600080fd5b81356001600160e01b031981168114611e1657600080fd5b6001600160a01b038116811461067e57600080fd5b80356127a281612782565b919050565b600080604083850312156127ba57600080fd5b82356127c581612782565b946020939093013593505050565b6000602082840312156127e557600080fd5b5035919050565b600080604083850312156127ff57600080fd5b82359150602083013561281181612782565b809150509250929050565b60006020828403121561282e57600080fd5b8135611e1681612782565b60008083601f84011261284b57600080fd5b50813567ffffffffffffffff81111561286357600080fd5b6020830191508360208285010111156124ae57600080fd5b600080600083850361016081121561289257600080fd5b610140808212156128a257600080fd5b859450840135905067ffffffffffffffff8111156128bf57600080fd5b6128cb86828701612839565b9497909650939450505050565b60008083601f8401126128ea57600080fd5b50813567ffffffffffffffff81111561290257600080fd5b6020830191508360208260051b85010111156124ae57600080fd5b80356001600160601b03811681146127a257600080fd5b600080600080600080600060a0888a03121561294f57600080fd5b873561295a81612782565b9650602088013567ffffffffffffffff8082111561297757600080fd5b6129838b838c016128d8565b909850965086915061299760408b0161291d565b955060608a01359150808211156129ad57600080fd5b506129ba8a828b016128d8565b90945092505060808801356129ce81612782565b8091505092959891949750929550565b6000806000604084860312156129f357600080fd5b833567ffffffffffffffff80821115612a0b57600080fd5b9085019060c08288031215612a1f57600080fd5b90935060208501359080821115612a3557600080fd5b506128cb86828701612839565b600080600060408486031215612a5757600080fd5b833567ffffffffffffffff80821115612a6f57600080fd5b9085019060e08288031215612a1f57600080fd5b60008060408385031215612a9657600080fd5b8235612aa181612782565b91506020830135801515811461281157600080fd5b600060208284031215612ac857600080fd5b611e168261291d565b6020808252601f908201527f5265656e7472616e637947756172643a207265656e7472616e742063616c6c00604082015260600190565b6020808252603a908201527f47424d61726b6574706c6163653a20636f6c6c656374696f6e2061646472657360408201527f73206d757374206e6f74206265207a65726f2061646472657373000000000000606082015260800190565b634e487b7160e01b600052601160045260246000fd5b6001600160601b03818116838216019080821115612b9b57612b9b612b65565b5092915050565b808201808211156104ec576104ec612b65565b6020808252818101527f47424d61726b6574706c6163653a205369676e61747572652065787069726564604082015260600190565b60208082526029908201527f47424d61726b6574706c6163653a20496e76616c696420636f6c6c656374696f6040820152686e206164647265737360b81b606082015260800190565b602080825260119082015270496e76616c6964207369676e617475726560781b604082015260600190565b60008060408385031215612c7157600080fd5b8251612c7c81612782565b6020939093015192949293505050565b600082612ca957634e487b7160e01b600052601260045260246000fd5b500490565b818103818111156104ec576104ec612b65565b6101408101612ce082612cd385612797565b6001600160a01b03169052565b612cec60208401612797565b6001600160a01b03166020830152612d0660408401612797565b6001600160a01b038116604084015250606083013560608301526080830135608083015260a083013560a0830152612d4060c08401612797565b6001600160a01b031660c0830152612d5a60e0840161291d565b6001600160601b031660e0830152610100838101359083015261012092830135929091019190915290565b634e487b7160e01b600052603260045260246000fd5b60208082526030908201527f47424d61726b6574706c6163653a20746f6b656e4964206d757374206265206760408201526f726561746572207468616e207a65726f60801b606082015260800190565b6000808335601e19843603018112612e0257600080fd5b83018035915067ffffffffffffffff821115612e1d57600080fd5b6020019150368190038213156124ae57600080fd5b81835281816020850137506000828201602090810191909152601f909101601f19169091010190565b60018060a01b03861681528460208201526001600160601b0384166040820152608060608201526000612e92608083018486612e32565b979650505050505050565b6001600160a01b038781168252861660208201526040810185905260a060608201819052600090612ed19083018587612e32565b90506001600160601b0383166080830152979650505050505050565b6001600160a01b03898116825288811660208084019190915260c0604084018190528301889052600091906001600160fb1b03891115612f2c57600080fd5b8860051b9150818a60e086013760e091840184810383016060860152918201879052610100600588901b830181019083018960005b8a811015612fd15785840360ff190183528135368d9003601e19018112612f8757600080fd5b8c01858101903567ffffffffffffffff811115612fa357600080fd5b803603821315612fb257600080fd5b612fbd868284612e32565b955050509184019190840190600101612f61565b5050506001600160601b03871660808601529250612fed915050565b6001600160a01b03831660a08301529998505050505050505050565b60006020828403121561301b57600080fd5b8151611e1681612782565b838152604060208201526000613040604083018486612e32565b95945050505050565b6001600160a01b0386811682528516602082015260408101849052608060608201819052600090612e929083018486612e32565b8881526001600160a01b038881166020830152871660408201526060810186905260e0608082018190526000906130b79083018688612e32565b60a08301949094525060c001529695505050505050565b8183823760009101908152919050565b60005b838110156130f95781810151838201526020016130e1565b50506000910152565b7f416363657373436f6e74726f6c3a206163636f756e742000000000000000000081526000835161313a8160178501602088016130de565b7001034b99036b4b9b9b4b733903937b6329607d1b601791840191820152835161316b8160288401602088016130de565b01602801949350505050565b60208152600082518060208401526131968160408501602087016130de565b601f01601f19169190910160400192915050565b80820281158282048414176104ec576104ec612b65565b634e487b7160e01b600052604160045260246000fd5b6000816131e6576131e6612b65565b506000190190565b634e487b7160e01b600052602160045260246000fdfea264697066735822122007ce181951b9a99808f279a58e29f18b1eb84560b92fee5a80832ecf22af358064736f6c63430008110033",
  "linkReferences": {},
  "deployedLinkReferences": {}
}