{
  "_format": "hh-sol-artifact-1",
  "contractName": "GBCollection",
  "sourceName": "contracts/GBCollection.sol",
  "abi": [
    {
      "inputs": [
        {
          "internalType": "string",
          "name": "name_",
          "type": "string"
        },
        {
          "internalType": "string",
          "name": "symbol_",
          "type": "string"
        },
        {
          "internalType": "address",
          "name": "marketplace_",
          "type": "address"
        }
      ],
      "stateMutability": "nonpayable",
      "type": "constructor"
    },
    {
      "anonymous": false,
      "inputs": [
        {
          "indexed": true,
          "internalType": "address",
          "name": "owner",
          "type": "address"
        },
        {
          "indexed": true,
          "internalType": "address",
          "name": "approved",
          "type": "address"
        },
        {
          "indexed": true,
          "internalType": "uint256",
          "name": "tokenId",
          "type": "uint256"
        }
      ],
      "name": "Approval",
      "type": "event"
    },
    {
      "anonymous": false,
      "inputs": [
        {
          "indexed": true,
          "internalType": "address",
          "name": "owner",
          "type": "address"
        },
        {
          "indexed": true,
          "internalType": "address",
          "name": "operator",
          "type": "address"
        },
        {
          "indexed": false,
          "internalType": "bool",
          "name": "approved",
          "type": "bool"
        }
      ],
      "name": "ApprovalForAll",
      "type": "event"
    },
    {
      "anonymous": false,
      "inputs": [
        {
          "indexed": false,
          "internalType": "address",
          "name": "mintAddress",
          "type": "address"
        },
        {
          "indexed": false,
          "internalType": "uint256",
          "name": "tokenId",
          "type": "uint256"
        }
      ],
      "name": "MintedNFT",
      "type": "event"
    },
    {
      "anonymous": false,
      "inputs": [
        {
          "indexed": true,
          "internalType": "bytes32",
          "name": "role",
          "type": "bytes32"
        },
        {
          "indexed": true,
          "internalType": "bytes32",
          "name": "previousAdminRole",
          "type": "bytes32"
        },
        {
          "indexed": true,
          "internalType": "bytes32",
          "name": "newAdminRole",
          "type": "bytes32"
        }
      ],
      "name": "RoleAdminChanged",
      "type": "event"
    },
    {
      "anonymous": false,
      "inputs": [
        {
          "indexed": true,
          "internalType": "bytes32",
          "name": "role",
          "type": "bytes32"
        },
        {
          "indexed": true,
          "internalType": "address",
          "name": "account",
          "type": "address"
        },
        {
          "indexed": true,
          "internalType": "address",
          "name": "sender",
          "type": "address"
        }
      ],
      "name": "RoleGranted",
      "type": "event"
    },
    {
      "anonymous": false,
      "inputs": [
        {
          "indexed": true,
          "internalType": "bytes32",
          "name": "role",
          "type": "bytes32"
        },
        {
          "indexed": true,
          "internalType": "address",
          "name": "account",
          "type": "address"
        },
        {
          "indexed": true,
          "internalType": "address",
          "name": "sender",
          "type": "address"
        }
      ],
      "name": "RoleRevoked",
      "type": "event"
    },
    {
      "anonymous": false,
      "inputs": [
        {
          "indexed": true,
          "internalType": "address",
          "name": "from",
          "type": "address"
        },
        {
          "indexed": true,
          "internalType": "address",
          "name": "to",
          "type": "address"
        },
        {
          "indexed": true,
          "internalType": "uint256",
          "name": "tokenId",
          "type": "uint256"
        }
      ],
      "name": "Transfer",
      "type": "event"
    },
    {
      "inputs": [],
      "name": "DEFAULT_ADMIN_ROLE",
      "outputs": [
        {
          "internalType": "bytes32",
          "name": "",
          "type": "bytes32"
        }
      ],
      "stateMutability": "view",
      "type": "function"
    },
    {
      "inputs": [],
      "name": "MARKETPLACE_ROLE",
      "outputs": [
        {
          "internalType": "bytes32",
          "name": "",
          "type": "bytes32"
        }
      ],
      "stateMutability": "view",
      "type": "function"
    },
    {
      "inputs": [
        {
          "internalType": "address",
          "name": "to",
          "type": "address"
        },
        {
          "internalType": "uint256",
          "name": "tokenId",
          "type": "uint256"
        }
      ],
      "name": "approve",
      "outputs": [],
      "stateMutability": "nonpayable",
      "type": "function"
    },
    {
      "inputs": [
        {
          "internalType": "address",
          "name": "owner",
          "type": "address"
        }
      ],
      "name": "balanceOf",
      "outputs": [
        {
          "internalType": "uint256",
          "name": "",
          "type": "uint256"
        }
      ],
      "stateMutability": "view",
      "type": "function"
    },
    {
      "inputs": [
        {
          "internalType": "uint256",
          "name": "tokenId",
          "type": "uint256"
        }
      ],
      "name": "getApproved",
      "outputs": [
        {
          "internalType": "address",
          "name": "",
          "type": "address"
        }
      ],
      "stateMutability": "view",
      "type": "function"
    },
    {
      "inputs": [
        {
          "internalType": "bytes32",
          "name": "role",
          "type": "bytes32"
        }
      ],
      "name": "getRoleAdmin",
      "outputs": [
        {
          "internalType": "bytes32",
          "name": "",
          "type": "bytes32"
        }
      ],
      "stateMutability": "view",
      "type": "function"
    },
    {
      "inputs": [
        {
          "internalType": "bytes32",
          "name": "role",
          "type": "bytes32"
        },
        {
          "internalType": "address",
          "name": "account",
          "type": "address"
        }
      ],
      "name": "grantRole",
      "outputs": [],
      "stateMutability": "nonpayable",
      "type": "function"
    },
    {
      "inputs": [
        {
          "internalType": "bytes32",
          "name": "role",
          "type": "bytes32"
        },
        {
          "internalType": "address",
          "name": "account",
          "type": "address"
        }
      ],
      "name": "hasRole",
      "outputs": [
        {
          "internalType": "bool",
          "name": "",
          "type": "bool"
        }
      ],
      "stateMutability": "view",
      "type": "function"
    },
    {
      "inputs": [
        {
          "internalType": "address",
          "name": "owner",
          "type": "address"
        },
        {
          "internalType": "address",
          "name": "operator",
          "type": "address"
        }
      ],
      "name": "isApprovedForAll",
      "outputs": [
        {
          "internalType": "bool",
          "name": "",
          "type": "bool"
        }
      ],
      "stateMutability": "view",
      "type": "function"
    },
    {
      "inputs": [
        {
          "internalType": "address",
          "name": "account",
          "type": "address"
        },
        {
          "internalType": "uint256",
          "name": "tokenId",
          "type": "uint256"
        },
        {
          "internalType": "uint96",
          "name": "royalty",
          "type": "uint96"
        },
        {
          "internalType": "string",
          "name": "tokenURI_",
          "type": "string"
        }
      ],
      "name": "mintToken",
      "outputs": [],
      "stateMutability": "nonpayable",
      "type": "function"
    },
    {
      "inputs": [],
      "name": "name",
      "outputs": [
        {
          "internalType": "string",
          "name": "",
          "type": "string"
        }
      ],
      "stateMutability": "view",
      "type": "function"
    },
    {
      "inputs": [
        {
          "internalType": "uint256",
          "name": "tokenId",
          "type": "uint256"
        }
      ],
      "name": "ownerOf",
      "outputs": [
        {
          "internalType": "address",
          "name": "",
          "type": "address"
        }
      ],
      "stateMutability": "view",
      "type": "function"
    },
    {
      "inputs": [
        {
          "internalType": "bytes32",
          "name": "role",
          "type": "bytes32"
        },
        {
          "internalType": "address",
          "name": "account",
          "type": "address"
        }
      ],
      "name": "renounceRole",
      "outputs": [],
      "stateMutability": "nonpayable",
      "type": "function"
    },
    {
      "inputs": [
        {
          "internalType": "bytes32",
          "name": "role",
          "type": "bytes32"
        },
        {
          "internalType": "address",
          "name": "account",
          "type": "address"
        }
      ],
      "name": "revokeRole",
      "outputs": [],
      "stateMutability": "nonpayable",
      "type": "function"
    },
    {
      "inputs": [
        {
          "internalType": "uint256",
          "name": "_tokenId",
          "type": "uint256"
        },
        {
          "internalType": "uint256",
          "name": "_salePrice",
          "type": "uint256"
        }
      ],
      "name": "royaltyInfo",
      "outputs": [
        {
          "internalType": "address",
          "name": "",
          "type": "address"
        },
        {
          "internalType": "uint256",
          "name": "",
          "type": "uint256"
        }
      ],
      "stateMutability": "view",
      "type": "function"
    },
    {
      "inputs": [
        {
          "internalType": "address",
          "name": "from",
          "type": "address"
        },
        {
          "internalType": "address",
          "name": "to",
          "type": "address"
        },
        {
          "internalType": "uint256",
          "name": "tokenId",
          "type": "uint256"
        }
      ],
      "name": "safeTransferFrom",
      "outputs": [],
      "stateMutability": "nonpayable",
      "type": "function"
    },
    {
      "inputs": [
        {
          "internalType": "address",
          "name": "from",
          "type": "address"
        },
        {
          "internalType": "address",
          "name": "to",
          "type": "address"
        },
        {
          "internalType": "uint256",
          "name": "tokenId",
          "type": "uint256"
        },
        {
          "internalType": "bytes",
          "name": "data",
          "type": "bytes"
        }
      ],
      "name": "safeTransferFrom",
      "outputs": [],
      "stateMutability": "nonpayable",
      "type": "function"
    },
    {
      "inputs": [
        {
          "internalType": "address",
          "name": "operator",
          "type": "address"
        },
        {
          "internalType": "bool",
          "name": "approved",
          "type": "bool"
        }
      ],
      "name": "setApprovalForAll",
      "outputs": [],
      "stateMutability": "nonpayable",
      "type": "function"
    },
    {
      "inputs": [
        {
          "internalType": "address",
          "name": "_marketplaceAddress",
          "type": "address"
        }
      ],
      "name": "setMarketplaceAddress",
      "outputs": [],
      "stateMutability": "nonpayable",
      "type": "function"
    },
    {
      "inputs": [
        {
          "internalType": "uint256",
          "name": "tokenId",
          "type": "uint256"
        },
        {
          "internalType": "string",
          "name": "tokenURI_",
          "type": "string"
        }
      ],
      "name": "setTokenURI",
      "outputs": [],
      "stateMutability": "nonpayable",
      "type": "function"
    },
    {
      "inputs": [
        {
          "internalType": "bytes4",
          "name": "interfaceId",
          "type": "bytes4"
        }
      ],
      "name": "supportsInterface",
      "outputs": [
        {
          "internalType": "bool",
          "name": "",
          "type": "bool"
        }
      ],
      "stateMutability": "view",
      "type": "function"
    },
    {
      "inputs": [],
      "name": "symbol",
      "outputs": [
        {
          "internalType": "string",
          "name": "",
          "type": "string"
        }
      ],
      "stateMutability": "view",
      "type": "function"
    },
    {
      "inputs": [
        {
          "internalType": "uint256",
          "name": "tokenId",
          "type": "uint256"
        }
      ],
      "name": "tokenURI",
      "outputs": [
        {
          "internalType": "string",
          "name": "",
          "type": "string"
        }
      ],
      "stateMutability": "view",
      "type": "function"
    },
    {
      "inputs": [
        {
          "internalType": "address",
          "name": "from",
          "type": "address"
        },
        {
          "internalType": "address",
          "name": "to",
          "type": "address"
        },
        {
          "internalType": "uint256",
          "name": "tokenId",
          "type": "uint256"
        }
      ],
      "name": "transferFrom",
      "outputs": [],
      "stateMutability": "nonpayable",
      "type": "function"
    }
  ],
  "bytecode": "0x60806040523480156200001157600080fd5b506040516200256038038062002560833981016040819052620000349162000209565b8282600062000044838262000325565b50600162000053828262000325565b50506001600a5550620000877f0ea61da3a8a09ad801432653699f8c1860b1ae9d2ea4a141fadfd63227717bc88262000090565b505050620003f1565b6200009c8282620000a0565b5050565b60008281526009602090815260408083206001600160a01b038516845290915290205460ff166200009c5760008281526009602090815260408083206001600160a01b03851684529091529020805460ff19166001179055620001003390565b6001600160a01b0316816001600160a01b0316837f2f8788117e7eff1d82e926ec794901d17c78024a50270940304540a733656f0d60405160405180910390a45050565b634e487b7160e01b600052604160045260246000fd5b600082601f8301126200016c57600080fd5b81516001600160401b038082111562000189576200018962000144565b604051601f8301601f19908116603f01168101908282118183101715620001b457620001b462000144565b81604052838152602092508683858801011115620001d157600080fd5b600091505b83821015620001f55785820183015181830184015290820190620001d6565b600093810190920192909252949350505050565b6000806000606084860312156200021f57600080fd5b83516001600160401b03808211156200023757600080fd5b62000245878388016200015a565b945060208601519150808211156200025c57600080fd5b506200026b868287016200015a565b604086015190935090506001600160a01b03811681146200028b57600080fd5b809150509250925092565b600181811c90821680620002ab57607f821691505b602082108103620002cc57634e487b7160e01b600052602260045260246000fd5b50919050565b601f8211156200032057600081815260208120601f850160051c81016020861015620002fb5750805b601f850160051c820191505b818110156200031c5782815560010162000307565b5050505b505050565b81516001600160401b0381111562000341576200034162000144565b620003598162000352845462000296565b84620002d2565b602080601f831160018114620003915760008415620003785750858301515b600019600386901b1c1916600185901b1785556200031c565b600085815260208120601f198616915b82811015620003c257888601518255948401946001909101908401620003a1565b5085821015620003e15787850151600019600388901b60f8161c191681555b5050505050600190811b01905550565b61215f80620004016000396000f3fe608060405234801561001057600080fd5b50600436106101585760003560e01c806370a08231116100c3578063b88d4fde1161007c578063b88d4fde1461030b578063c3439f3f1461031e578063c87b56dd14610333578063d547741f14610346578063e5bff2e414610359578063e985e9c51461036c57600080fd5b806370a08231146102af57806391d14854146102c257806395d89b41146102d5578063a217fddf146102dd578063a22cb465146102e5578063b47cc556146102f857600080fd5b8063248a9ca311610115578063248a9ca3146102005780632a55205a146102315780632f2ff15d1461026357806336568abe1461027657806342842e0e146102895780636352211e1461029c57600080fd5b806301ffc9a71461015d57806306fdde0314610185578063081812fc1461019a578063095ea7b3146101c5578063162094c4146101da57806323b872dd146101ed575b600080fd5b61017061016b366004611989565b6103a8565b60405190151581526020015b60405180910390f35b61018d6103b9565b60405161017c91906119f6565b6101ad6101a8366004611a09565b61044b565b6040516001600160a01b03909116815260200161017c565b6101d86101d3366004611a3e565b610472565b005b6101d86101e8366004611b14565b61058c565b6101d86101fb366004611b5b565b610621565b61022361020e366004611a09565b60009081526009602052604090206001015490565b60405190815260200161017c565b61024461023f366004611b97565b610652565b604080516001600160a01b03909316835260208301919091520161017c565b6101d8610271366004611bb9565b6106fe565b6101d8610284366004611bb9565b610723565b6101d8610297366004611b5b565b6107a1565b6101ad6102aa366004611a09565b6107bc565b6102236102bd366004611be5565b61081c565b6101706102d0366004611bb9565b6108a2565b61018d6108cd565b610223600081565b6101d86102f3366004611c00565b6108dc565b6101d8610306366004611be5565b6108e7565b6101d8610319366004611c3c565b610982565b61022360008051602061210a83398151915281565b61018d610341366004611a09565b6109ba565b6101d8610354366004611bb9565b610aca565b6101d8610367366004611cb8565b610aef565b61017061037a366004611d22565b6001600160a01b03918216600090815260056020908152604080832093909416825291909152205460ff1690565b60006103b382610c9e565b92915050565b6060600080546103c890611d4c565b80601f01602080910402602001604051908101604052809291908181526020018280546103f490611d4c565b80156104415780601f1061041657610100808354040283529160200191610441565b820191906000526020600020905b81548152906001019060200180831161042457829003601f168201915b5050505050905090565b600061045682610cc3565b506000908152600460205260409020546001600160a01b031690565b600061047d826107bc565b9050806001600160a01b0316836001600160a01b0316036104ef5760405162461bcd60e51b815260206004820152602160248201527f4552433732313a20617070726f76616c20746f2063757272656e74206f776e656044820152603960f91b60648201526084015b60405180910390fd5b336001600160a01b038216148061050b575061050b813361037a565b61057d5760405162461bcd60e51b815260206004820152603e60248201527f4552433732313a20617070726f76652063616c6c6572206973206e6f7420746f60448201527f6b656e206f776e6572206e6f7220617070726f76656420666f7220616c6c000060648201526084016104e6565b6105878383610d25565b505050565b60008051602061210a8339815191526105a481610d93565b6000838152600260205260409020546001600160a01b03166106175760405162461bcd60e51b815260206004820152602660248201527f4742436f6c6c656374696f6e3a205468697320746f6b656e206973206e6f74206044820152651b5a5b9d195960d21b60648201526084016104e6565b6105878383610d9d565b61062b3382610e30565b6106475760405162461bcd60e51b81526004016104e690611d86565b610587838383610eae565b60008281526008602090815260408083208151808301909252546001600160a01b038116808352600160a01b9091046001600160601b03169282019290925282916106c75750604080518082019091526007546001600160a01b0381168252600160a01b90046001600160601b031660208201525b6020810151600090612710906106e6906001600160601b031687611dea565b6106f09190611e17565b915196919550909350505050565b60008281526009602052604090206001015461071981610d93565b610587838361104a565b6001600160a01b03811633146107935760405162461bcd60e51b815260206004820152602f60248201527f416363657373436f6e74726f6c3a2063616e206f6e6c792072656e6f756e636560448201526e103937b632b9903337b91039b2b63360891b60648201526084016104e6565b61079d82826110d0565b5050565b61058783838360405180602001604052806000815250610982565b6000818152600260205260408120546001600160a01b0316806103b35760405162461bcd60e51b8152602060048201526018602482015277115490cdcc8c4e881a5b9d985b1a59081d1bdad95b88125160421b60448201526064016104e6565b60006001600160a01b0382166108865760405162461bcd60e51b815260206004820152602960248201527f4552433732313a2061646472657373207a65726f206973206e6f7420612076616044820152683634b21037bbb732b960b91b60648201526084016104e6565b506001600160a01b031660009081526003602052604090205490565b60009182526009602090815260408084206001600160a01b0393909316845291905290205460ff1690565b6060600180546103c890611d4c565b61079d338383611137565b60008051602061210a8339815191526108ff81610d93565b6001600160a01b03821661096a5760405162461bcd60e51b815260206004820152602c60248201527f6d61726b6574706c6163652061646472657373206d757374206e6f742062652060448201526b7a65726f206164647265737360a01b60648201526084016104e6565b61079d60008051602061210a8339815191528361104a565b61098c3383610e30565b6109a85760405162461bcd60e51b81526004016104e690611d86565b6109b484848484611205565b50505050565b60606109c582610cc3565b600082815260066020526040812080546109de90611d4c565b80601f0160208091040260200160405190810160405280929190818152602001828054610a0a90611d4c565b8015610a575780601f10610a2c57610100808354040283529160200191610a57565b820191906000526020600020905b815481529060010190602001808311610a3a57829003601f168201915b505050505090506000610a7560408051602081019091526000815290565b90508051600003610a87575092915050565b815115610ab9578082604051602001610aa1929190611e2b565b60405160208183030381529060405292505050919050565b610ac284611238565b949350505050565b600082815260096020526040902060010154610ae581610d93565b61058783836110d0565b60008051602061210a833981519152610b0781610d93565b6002600a5403610b595760405162461bcd60e51b815260206004820152601f60248201527f5265656e7472616e637947756172643a207265656e7472616e742063616c6c0060448201526064016104e6565b6002600a55333214610bad5760405162461bcd60e51b815260206004820152601f60248201527f4742436f6c6c656374696f6e3a204f6e6c7920454f412063616e206d696e740060448201526064016104e6565b6000848152600260205260409020546001600160a01b031615610c255760405162461bcd60e51b815260206004820152602a60248201527f4742436f6c6c656374696f6e3a205468697320746f6b656e20697320616c726560448201526918591e481b5a5b9d195960b21b60648201526084016104e6565b610c2f85856112ac565b610c398483610d9d565b610c448486856113ee565b610c5085336001611137565b604080516001600160a01b0387168152602081018690527f7a5477f3d257e8974dc6fb5c008b442d975968577dfad5d1283aa0a488bfab0b910160405180910390a150506001600a55505050565b60006001600160e01b03198216637965db0b60e01b14806103b357506103b3826114fc565b6000818152600260205260409020546001600160a01b0316610d225760405162461bcd60e51b8152602060048201526018602482015277115490cdcc8c4e881a5b9d985b1a59081d1bdad95b88125160421b60448201526064016104e6565b50565b600081815260046020526040902080546001600160a01b0319166001600160a01b0384169081179091558190610d5a826107bc565b6001600160a01b03167f8c5be1e5ebec7d5bd14f71427d1e84f3dd0314c0f7b2291e5b200ac8c7c3b92560405160405180910390a45050565b610d228133611521565b6000828152600260205260409020546001600160a01b0316610e185760405162461bcd60e51b815260206004820152602e60248201527f45524337323155524953746f726167653a2055524920736574206f66206e6f6e60448201526d32bc34b9ba32b73a103a37b5b2b760911b60648201526084016104e6565b60008281526006602052604090206105878282611ea8565b600080610e3c836107bc565b9050806001600160a01b0316846001600160a01b03161480610e8357506001600160a01b0380821660009081526005602090815260408083209388168352929052205460ff165b80610ac25750836001600160a01b0316610e9c8461044b565b6001600160a01b031614949350505050565b826001600160a01b0316610ec1826107bc565b6001600160a01b031614610f255760405162461bcd60e51b815260206004820152602560248201527f4552433732313a207472616e736665722066726f6d20696e636f72726563742060448201526437bbb732b960d91b60648201526084016104e6565b6001600160a01b038216610f875760405162461bcd60e51b8152602060048201526024808201527f4552433732313a207472616e7366657220746f20746865207a65726f206164646044820152637265737360e01b60648201526084016104e6565b610f92600082610d25565b6001600160a01b0383166000908152600360205260408120805460019290610fbb908490611f68565b90915550506001600160a01b0382166000908152600360205260408120805460019290610fe9908490611f7b565b909155505060008181526002602052604080822080546001600160a01b0319166001600160a01b0386811691821790925591518493918716917fddf252ad1be2c89b69c2b068fc378daa952ba7f163c4a11628f55a4df523b3ef91a4505050565b61105482826108a2565b61079d5760008281526009602090815260408083206001600160a01b03851684529091529020805460ff1916600117905561108c3390565b6001600160a01b0316816001600160a01b0316837f2f8788117e7eff1d82e926ec794901d17c78024a50270940304540a733656f0d60405160405180910390a45050565b6110da82826108a2565b1561079d5760008281526009602090815260408083206001600160a01b0385168085529252808320805460ff1916905551339285917ff6391f5c32d9c69d2a47ea670b442974b53935d1edc7fd64eb21e047a839171b9190a45050565b816001600160a01b0316836001600160a01b0316036111985760405162461bcd60e51b815260206004820152601960248201527f4552433732313a20617070726f766520746f2063616c6c65720000000000000060448201526064016104e6565b6001600160a01b03838116600081815260056020908152604080832094871680845294825291829020805460ff191686151590811790915591519182527f17307eab39ab6107e8899845ad3d59bd9653f200f220920489ca2b5937696c31910160405180910390a3505050565b611210848484610eae565b61121c84848484611585565b6109b45760405162461bcd60e51b81526004016104e690611f8e565b606061124382610cc3565b600061125a60408051602081019091526000815290565b9050600081511161127a57604051806020016040528060008152506112a5565b8061128484611686565b604051602001611295929190611e2b565b6040516020818303038152906040525b9392505050565b6001600160a01b0382166113025760405162461bcd60e51b815260206004820181905260248201527f4552433732313a206d696e7420746f20746865207a65726f206164647265737360448201526064016104e6565b6000818152600260205260409020546001600160a01b0316156113675760405162461bcd60e51b815260206004820152601c60248201527f4552433732313a20746f6b656e20616c7265616479206d696e7465640000000060448201526064016104e6565b6001600160a01b0382166000908152600360205260408120805460019290611390908490611f7b565b909155505060008181526002602052604080822080546001600160a01b0319166001600160a01b03861690811790915590518392907fddf252ad1be2c89b69c2b068fc378daa952ba7f163c4a11628f55a4df523b3ef908290a45050565b6127106001600160601b038216111561145c5760405162461bcd60e51b815260206004820152602a60248201527f455243323938313a20726f79616c7479206665652077696c6c206578636565646044820152692073616c65507269636560b01b60648201526084016104e6565b6001600160a01b0382166114b25760405162461bcd60e51b815260206004820152601b60248201527f455243323938313a20496e76616c696420706172616d6574657273000000000060448201526064016104e6565b6040805180820182526001600160a01b0393841681526001600160601b0392831660208083019182526000968752600890529190942093519051909116600160a01b029116179055565b60006001600160e01b0319821663152a902d60e11b14806103b357506103b382611787565b61152b82826108a2565b61079d57611543816001600160a01b031660146117d7565b61154e8360206117d7565b60405160200161155f929190611fe0565b60408051601f198184030181529082905262461bcd60e51b82526104e6916004016119f6565b60006001600160a01b0384163b1561167b57604051630a85bd0160e11b81526001600160a01b0385169063150b7a02906115c9903390899088908890600401612055565b6020604051808303816000875af1925050508015611604575060408051601f3d908101601f1916820190925261160191810190612092565b60015b611661573d808015611632576040519150601f19603f3d011682016040523d82523d6000602084013e611637565b606091505b5080516000036116595760405162461bcd60e51b81526004016104e690611f8e565b805181602001fd5b6001600160e01b031916630a85bd0160e11b149050610ac2565b506001949350505050565b6060816000036116ad5750506040805180820190915260018152600360fc1b602082015290565b8160005b81156116d757806116c1816120af565b91506116d09050600a83611e17565b91506116b1565b60008167ffffffffffffffff8111156116f2576116f2611a68565b6040519080825280601f01601f19166020018201604052801561171c576020820181803683370190505b5090505b8415610ac257611731600183611f68565b915061173e600a866120c8565b611749906030611f7b565b60f81b81838151811061175e5761175e6120dc565b60200101906001600160f81b031916908160001a905350611780600a86611e17565b9450611720565b60006001600160e01b031982166380ac58cd60e01b14806117b857506001600160e01b03198216635b5e139f60e01b145b806103b357506301ffc9a760e01b6001600160e01b03198316146103b3565b606060006117e6836002611dea565b6117f1906002611f7b565b67ffffffffffffffff81111561180957611809611a68565b6040519080825280601f01601f191660200182016040528015611833576020820181803683370190505b509050600360fc1b8160008151811061184e5761184e6120dc565b60200101906001600160f81b031916908160001a905350600f60fb1b8160018151811061187d5761187d6120dc565b60200101906001600160f81b031916908160001a90535060006118a1846002611dea565b6118ac906001611f7b565b90505b6001811115611924576f181899199a1a9b1b9c1cb0b131b232b360811b85600f16601081106118e0576118e06120dc565b1a60f81b8282815181106118f6576118f66120dc565b60200101906001600160f81b031916908160001a90535060049490941c9361191d816120f2565b90506118af565b5083156112a55760405162461bcd60e51b815260206004820181905260248201527f537472696e67733a20686578206c656e67746820696e73756666696369656e7460448201526064016104e6565b6001600160e01b031981168114610d2257600080fd5b60006020828403121561199b57600080fd5b81356112a581611973565b60005b838110156119c15781810151838201526020016119a9565b50506000910152565b600081518084526119e28160208601602086016119a6565b601f01601f19169290920160200192915050565b6020815260006112a560208301846119ca565b600060208284031215611a1b57600080fd5b5035919050565b80356001600160a01b0381168114611a3957600080fd5b919050565b60008060408385031215611a5157600080fd5b611a5a83611a22565b946020939093013593505050565b634e487b7160e01b600052604160045260246000fd5b600067ffffffffffffffff80841115611a9957611a99611a68565b604051601f8501601f19908116603f01168101908282118183101715611ac157611ac1611a68565b81604052809350858152868686011115611ada57600080fd5b858560208301376000602087830101525050509392505050565b600082601f830112611b0557600080fd5b6112a583833560208501611a7e565b60008060408385031215611b2757600080fd5b82359150602083013567ffffffffffffffff811115611b4557600080fd5b611b5185828601611af4565b9150509250929050565b600080600060608486031215611b7057600080fd5b611b7984611a22565b9250611b8760208501611a22565b9150604084013590509250925092565b60008060408385031215611baa57600080fd5b50508035926020909101359150565b60008060408385031215611bcc57600080fd5b82359150611bdc60208401611a22565b90509250929050565b600060208284031215611bf757600080fd5b6112a582611a22565b60008060408385031215611c1357600080fd5b611c1c83611a22565b915060208301358015158114611c3157600080fd5b809150509250929050565b60008060008060808587031215611c5257600080fd5b611c5b85611a22565b9350611c6960208601611a22565b925060408501359150606085013567ffffffffffffffff811115611c8c57600080fd5b8501601f81018713611c9d57600080fd5b611cac87823560208401611a7e565b91505092959194509250565b60008060008060808587031215611cce57600080fd5b611cd785611a22565b93506020850135925060408501356001600160601b0381168114611cfa57600080fd5b9150606085013567ffffffffffffffff811115611d1657600080fd5b611cac87828801611af4565b60008060408385031215611d3557600080fd5b611d3e83611a22565b9150611bdc60208401611a22565b600181811c90821680611d6057607f821691505b602082108103611d8057634e487b7160e01b600052602260045260246000fd5b50919050565b6020808252602e908201527f4552433732313a2063616c6c6572206973206e6f7420746f6b656e206f776e6560408201526d1c881b9bdc88185c1c1c9bdd995960921b606082015260800190565b634e487b7160e01b600052601160045260246000fd5b80820281158282048414176103b3576103b3611dd4565b634e487b7160e01b600052601260045260246000fd5b600082611e2657611e26611e01565b500490565b60008351611e3d8184602088016119a6565b835190830190611e518183602088016119a6565b01949350505050565b601f82111561058757600081815260208120601f850160051c81016020861015611e815750805b601f850160051c820191505b81811015611ea057828155600101611e8d565b505050505050565b815167ffffffffffffffff811115611ec257611ec2611a68565b611ed681611ed08454611d4c565b84611e5a565b602080601f831160018114611f0b5760008415611ef35750858301515b600019600386901b1c1916600185901b178555611ea0565b600085815260208120601f198616915b82811015611f3a57888601518255948401946001909101908401611f1b565b5085821015611f585787850151600019600388901b60f8161c191681555b5050505050600190811b01905550565b818103818111156103b3576103b3611dd4565b808201808211156103b3576103b3611dd4565b60208082526032908201527f4552433732313a207472616e7366657220746f206e6f6e20455243373231526560408201527131b2b4bb32b91034b6b83632b6b2b73a32b960711b606082015260800190565b7f416363657373436f6e74726f6c3a206163636f756e74200000000000000000008152600083516120188160178501602088016119a6565b7001034b99036b4b9b9b4b733903937b6329607d1b60179184019182015283516120498160288401602088016119a6565b01602801949350505050565b6001600160a01b0385811682528416602082015260408101839052608060608201819052600090612088908301846119ca565b9695505050505050565b6000602082840312156120a457600080fd5b81516112a581611973565b6000600182016120c1576120c1611dd4565b5060010190565b6000826120d7576120d7611e01565b500690565b634e487b7160e01b600052603260045260246000fd5b60008161210157612101611dd4565b50600019019056fe0ea61da3a8a09ad801432653699f8c1860b1ae9d2ea4a141fadfd63227717bc8a2646970667358221220d51f8c4c98e2670e30cf7f2cb4d797cc158755fc6d7919ac85af938969b260d464736f6c63430008110033",
  "linkReferences": {},
  "deployedLinkReferences": {}
}